:10000000D4C1000003C2000001C20000FFC1000013
:10001000FDC10000FBC10000F9C10000F7C10000F4
:10002000F5C10000F3C10000F1C10000EFC1000004
:10003000EDC100000C945624E9C10000E7C10000A6
:10004000E5C100000C94B524E1C10000DFC100004F
:10005000DDC100000C941E25D9C100000C94CF35E1
:10006000D5C100000C947D190C945319CFC1000028
:10007000CDC10000CBC10000C9C10000C7C1000054
:10008000C5C10000C3C10000C1C10000BFC1000064
:100090000C9429190C94FF18B9C100000C944D2739
:1000A000B5C10000B3C10000B1C10000AFC1000084
:1000B000ADC10000ABC10000A9C100000C949823A1
:1000C000A5C10000A3C10000A1C100009FC10000A4
:1000D0009DC100009BC1000099C1000097C10000B4
:1000E00095C10000660568055C055E056005620552
:1000F0006405860CFD0CB10F9C10C7101B11F8167F
:10010000F816F8167C11A211A211A211F816F81611
:10011000F816F816F816C7101B11912B932B8F2B7E
:10012000912B932B952B982BA82BD232D532C432FE
:10013000C832CE320C33D932DD32E332E732EB3221
:10014000F132F532F9320C33FF3203330733557095
:10015000646174696E672074696D652E2E2E004986
:100160006E636F727265637420536F6E6720466FA3
:10017000726D617421005247423D6F6666005247BE
:10018000423D6F6E004D6F6E74683A004461793A7B
:1001900000446F776E206C6F6E672E2E2E2E0044FB
:1001A0006F776E2073686F7274005570206C6F6E7D
:1001B000672E2E2E2E0055702073686F7274004DBE
:1001C0006F6465206C6F6E672E2E2E2E004D6F644F
:1001D000652073686F72740053796E632066726F66
:1001E0006D204750530002010053746F7020546516
:1001F00073740054656D702E2073656E736F72207A
:100200006E6F7420666F756E642E00537461727425
:100210002054657374004669726D7761726520764B
:10022000657273696F6E3A20005761726E696E670E
:10023000212052544320444F4E27542052455350BE
:100240004F4E44210057616B652075702C204E6520
:100250006F21004E6F7420696E2072616E676500B9
:10026000426C75653D00475245454E3D0052454440
:100270003D005265616465642066726F6D2045457E
:1002800050524F4D0000002200250028002B002E68
:10029000003100340002010000050108010B0100DB
:1002A0000020002300260029002C002F003200002F
:1002B0000100000301060109010505050507050800
:1002C000080808020202020A0A08080404040401D9
:1002D00001010101010101030303030303030304FB
:1002E0000707070C0C0C0C0C0C0C0C02020202068B
:1002F000060606060606060B0B0B0B0B0B0B0B017B
:100300000210202008081020401020408002010226
:1003100001080402010102040810204080804020EE
:100320001008040201800402018040201008040229
:1003300001080402010102040810204080010204A7
:10034000081020408000002100240027002A002DF2
:10035000003000330001010000040107010A010020
:10036000000A0B02090C0D0E08070304010000002F
:10037000000000000000000000000000000000007D
:10038000000000000000000000000012111000003A
:10039000000000000000000000000000000000005D
:1003A0000000000000006642E34111241FBECFEFB1
:1003B000D1E2DEBFCDBF00E00CBF2AE0AEE2B5E087
:1003C00001C01D92A934B207E1F715E0A0E0B2E048
:1003D000E8E2F2E900E00BBF02C007900D92AE32F6
:1003E000B107D9F711E0C4EDD1E000E006C02197D4
:1003F0000109802FFE010E94D046C33DD10780E055
:100400000807A9F70E94B43C0C940349F9CD2F9238
:100410003F924F925F926F927F928F929F92AF9294
:10042000BF92CF92DF92EF92FF920F931F93CF93E1
:10043000DF93CDB7DEB7CA56D1400FB6F894DEBF12
:100440000FBECDBF0E94C33520E137E240E050E04F
:100450000E949246672B682B692B29F480910B062A
:1004600081110C943D138EE197E00E94F920892BB5
:1004700009F44CC08EE197E00E94D720909181054D
:10048000E92FF0E0E25DFA4F80839F5F923519F02B
:100490009093810502C0109281058A30B9F5E091F0
:1004A0008105F0E0E25DFA4F10821092810581E053
:1004B00090E020E0FC01E25DFA4F30813A3241F0F9
:1004C0002327019683359105A9F78FE094E011C0A9
:1004D000818181340CF087538295807F92819134A1
:1004E00014F0975301C09053890F821729F08FE1C0
:1004F00094E00E9417310AC080912E05843231F4B5
:1005000080913105823511F40C945B130E94C33540
:1005100021E137E240E050E00E949246672B682BD1
:10052000692B09F0CAC0809186058111A7C00E947D
:10053000C3350091B2091091B3092091B4093091EB
:10054000B509DC01CB01801B910BA20BB30B893BDE
:100550009B40A105B10528F08EE294E00E9417317E
:10056000A8C08EE491E00E940B318091AA090E94FC
:10057000C4348091AB090E94C4348091AC090E94BC
:10058000C4348091AF099091B00948EEC42E43E085
:10059000D42EB6010E947F467C010091AE0910E086
:1005A0002091AD0930E04091AC0950E06091AB0979
:1005B00070E08091AA0990E00E9487254091530243
:1005C0005091540220E13EE0429FC001439F900DB4
:1005D000529F900D1124092E000CAA0BBB0B4091C9
:1005E0005706509158066091590670915A06840F2B
:1005F000951FA61FB71F8093570690935806A09388
:100600005906B0935A060E9462267C010E946A260F
:10061000082F0E947026C659DE4F8883CA56D140E3
:100620000E947626C759DE4F8883C956D1400E9462
:100630007C26182F0E949126382FC701B6010E94F0
:100640007F46E82EC659DE4F2881CA56D140C75989
:10065000DE4F4881C956D140612F832F0E9440341C
:1006600081E0809386050E94C33560938205709374
:10067000830580938405909385051BC00E94C33534
:1006800000918205109183052091840530918505A4
:10069000DC01CB01801B910BA20BB30B813497477C
:1006A000AB41B10518F01092860503C081E080933C
:1006B000860588ED91E00E940B311092E7051092BB
:1006C000E8051092E9051092EA058BE698E0909310
:1006D000EE058093ED0580916808282E312C30922C
:1006E000F0052092EF058091350990E09093F20596
:1006F0008093F10580916408853009F000C18091F4
:1007000068088A3108F455C080916B0890916C0894
:10071000843F914090F41092EC051092EB058FEF1E
:100720009FEFDC018093E7059093E805A093E9052E
:10073000B093EA058BE090E0CAC080916D0890917B
:100740006E0885974B97A8F5E1E7F8E082E090E026
:10075000C12CD12C7601AC014F5F5F4F209168080E
:1007600030E04217530764F4DF0112972D913C915A
:10077000275031092730310510F40C945914CA015F
:100780000197959587959093EC058093EB050C97D1
:100790002CF41092EC051092EB050BC0C092E7050B
:1007A000D092E805E092E905F092EA0584E090E055
:1007B0008EC086E0281631040CF49CC001E718E0D6
:1007C000A3E0B0E0CD59DE4FB983A883C356D14032
:1007D00025EC822E2DE9922E2CE1A22E21E8B22EBC
:1007E000CD59DE4FA881B981C356D140A215B305BA
:1007F0000CF05DC0F801608171813497E080F18078
:1008000080E090E00E9472442B013C01B70180E03F
:1008100090E00E9472446B017C012DEC3CEC4CE4B6
:100820005FE30E94D3449B01AC01C301B2010E946B
:100830006E4487FD18C02DEC3CEC4CE45FE3C30133
:10084000B2010E94D3449B01AC01C701B6010E94D2
:100850006E44082E000C990BFC01EE27FF0FEE1FD3
:10086000FF27319602C0E0E0F0E0A501940163E9C2
:1008700071E080E091E00E9450466F01FF0FEE08AA
:10088000FF084601570186269726A826B926CD5986
:10089000DE4F88819981C356D1400196CD59DE4FF4
:1008A00099838883C356D1400E5F1F4F99CF8092A2
:1008B000E7059092E805A092E905B092EA0580E28A
:1008C00090E09093EC058093EB058FEF9FEF909372
:1008D000E4058093E3056091E7057091E805809158
:1008E000E9059091EA0540E10E946D338FE494E0C0
:1008F0000E94D83082E0809364081092680860916A
:10090000E7057091E80580ED99E00E944D3C9093D9
:10091000E2058093E105019721F48DEC91E00E94BE
:100920000B318091E1059091E205019621F48FEB66
:1009300091E00E940B316091E7057091E80583EC2E
:1009400099E00E944D3C9093E0058093DF0501976C
:1009500021F486EB91E00E940B318091DF059091AC
:10096000E005019621F48AEA91E00E940B31609142
:10097000E7057091E80586EB99E00E944D3C909365
:10098000DE058093DD05019721F48FE991E00E9457
:100990000B318091DD059091DE05019621F481E90E
:1009A00091E00E940B310091FF0510910006D801E3
:1009B0008C91882309F434C10E94C335C0908D0501
:1009C000D0908E05E0908F05F0909005DC01CB0172
:1009D0008C199D09AE09BF09C0908905D0908A0580
:1009E000E0908B05F0908C05C816D906EA06FB0648
:1009F00008F016C10E94C3356B017C0160938D0520
:100A000070938E0580938F059093900510923D0A08
:100A100010923C0AA801EAE08A01DA017C904F5F5B
:100A20005F4F80ED870D20913C0A30913D0A8A305E
:100A300080F4E29FB001E39F700D1124872D770CA5
:100A4000990BC097860F971F90933D0A80933C0A9D
:100A5000E3CF6091380A7091390A80913A0A9091F7
:100A60003B0A2115310529F0032E000C440B550BD0
:100A700005C020915C0230E040E050E00E94B446A6
:100A80002093890530938A0540938B0550938C05FC
:100A9000872D770C990BAA0BBB0BFC01E156F109D2
:100AA000E730F10530F48827EE58FF4F8F4F0C9454
:100AB000D046109288050FC081E00BC083E009C0CA
:100AC00085E007C086E005C088E003C08AE001C079
:100AD0008CE080938805F8018181833219F00F5FE3
:100AE0001F4F07C0809188058F5F809388050E5F38
:100AF0001F4FD8018C918E3201F54090890550909E
:100B00008A0560908B0570908C05C301B20122E0CC
:100B100030E040E050E00E94B446D301C201820FB1
:100B2000931FA41FB51F8093890590938A05A093F6
:100B30008B05B0938C050F5F1F4FF80180818053A8
:100B40008A3028F4809387050F5F1F4F04C080917F
:100B50005B028093870580918705D8019C919C3228
:100B600011F40F5F1F4F20918805222309F458C00C
:100B70004090890550908A0560908B0570908C0597
:100B800090E004973CE0389FF001399FF00D11246C
:100B9000E20FF11DEE0FFF1FE558FD4FB301A2015B
:100BA000808191810E94002F0E94C335DC01CB011E
:100BB0008C199D09AE09BF09481659066A067B06BD
:100BC00078F50E94C33560938D0570938E058093F0
:100BD0008F059093900580911D07813051F08230F0
:100BE00071F0811111C080916E008D7F80936E0035
:100BF0000BC080916F008D7F80936F0005C0809146
:100C000070008D7F8093700060E080911C070E94CF
:100C1000FD348FE591E00E940B3190E080E002C04E
:100C2000902F812F9093FF05809300060E94C3357B
:100C30000091D9051091DA052091DB053091DC0592
:100C4000DC01CB01801B910BA20BB30B8997A10593
:100C5000B10508F4A9C080911D07813039F08230B8
:100C600041F081110CC080916E0005C080916F0031
:100C700002C0809170008695817009F08BC08091D0
:100C80002C02811103C00E94B22984C080910E06FB
:100C9000811180C00091930510919405C801880FBF
:100CA000991F800F911FFC01EE0FFF1FE352FD4FB4
:100CB000208131816AE0629FA001639F500D112461
:100CC0002091000230910102420F531F5093010204
:100CD00040930002FC01EE0FFF1FE152FD4F208107
:100CE0003181629FF001639FF00D11242091CF05A7
:100CF0003091D0052E0F3F1F3093D0052093CF05A4
:100D0000880F991FFC01EF51FD4F80819181689FF1
:100D10002001699F500C11248091CD059091CE0542
:100D2000480E591E5092CE054092CD05512C612C93
:100D3000712C642A522AE12CF12CB301A201C701C3
:100D40000E942331BFEFEB1AFB0AE8E0EE16F10434
:100D5000A1F70E948E3180919105909192050196A4
:100D60009093920580939105499751F40F5F1F4F1F
:100D7000109394050093930510929205109291059B
:100D80008091930590919405069724F01092940514
:100D9000109293050E94C3356093D9057093DA05CC
:100DA0008093DB059093DC0580911B0690911C06D7
:100DB000892B21F080911A06811106C080913E0A8C
:100DC000811102C00E94261A0E94C2298DE799E073
:100DD0000E94972684E699E00E9497268BE499E08A
:100DE0000E94972680913E0A811103C01092BC0692
:100DF0002DC00E94C33500913F0A1091400A2091F6
:100E0000410A3091420ADC01CB01801B910BA20BFD
:100E1000B30B81369A4EA105B105C0F010923E0A7F
:100E2000E0911B06F0911C06EE0FFF1FEF5AFC4FDE
:100E30008081918190931C0680931B06880F991FD7
:100E4000FC01EE5FFD4F80818093BC0680917D099F
:100E500090917E09181619063CF08091E105909159
:100E6000E205019709F09BC081E080931A06109279
:100E700000061092FF0544E650E060E070E088EE66
:100E800093E00E94002F0E94C33560933F0A709345
:100E9000400A8093410A9093420A80911B069091E8
:100EA0001C0601968630910529F090931C068093CC
:100EB0001B0604C010921C0610921B0640911B06D4
:100EC00050911C068A01000F111FF801EE5FFD4FC3
:100ED00080818093BC06DA011197FD01EE0FFF1FA0
:100EE000E75DFC4F608171816115710509F448C0AF
:100EF0009B0121503109F901EE0FFF1FEF5FFC4FFD
:100F00000190F081E02DEA17FB07D1F56230710501
:100F100011F00C94781488E1E3E6F2E0DE0111961A
:100F200001900D928A95E1F78091450290914602D9
:100F300083709927892B21F48DE190E09C838B832A
:100F40004091410250914202E0914302F0914402EB
:100F50003197EE0FFF1F81E090E08C0F9D1FE80F8F
:100F6000F91F808191818417950714F00C947814EF
:100F70008AE090E090931C0680931B060C94F81670
:100F80004331510561F0495051094230510538F063
:100F90000E94B338F801E35DFD4F91838083809117
:100FA0007D0990917E0997FD07C08091E1059091A0
:100FB000E205019609F07AC344E650E060E070E093
:100FC00088EE93E00E94002F80913E0A811145C176
:100FD0000E94C33560933F0A7093400A8093410A90
:100FE0009093420A80911B0690911C06892B09F070
:100FF00034C10E947626181619061CF40E94762623
:1010000005C00E94762691958195910911E00A9775
:101010004CF010E00E9476261816190664F50E941E
:1010200076262EC00E947626181619061CF40E94F9
:10103000762605C00E9476269195819591094AE011
:10104000BC01CE01835A9E4F0E9474186BE674E077
:10105000CE01895A9E4F0E94A718BE01635A7E4F47
:10106000CE01895A9E4F0E94FB17BC01CE01859686
:101070000E949F180BC00E94762691958195910938
:101080004AE0BC01CE0185960E9474180E947C261D
:10109000181619061CF40E947C2605C00E947C26A6
:1010A00091958195910901E00A974CF000E00E942A
:1010B0007C261816190664F50E947C262EC00E9414
:1010C0007C26181619061CF40E947C2605C00E9476
:1010D0007C269195819591094AE0BC01CE018F5AF9
:1010E0009E4F0E9474186BE674E0CE01855B9E4FA4
:1010F0000E94A718BE016F5A7E4FCE01855B9E4F9E
:101100000E94FB17BC01CE014F960E949F180BC096
:101110000E947C269195819591094AE0BC01CE01FF
:101120004F960E9474180E949126181619061CF4F6
:101130000E94912605C00E94912691958195910962
:10114000FF24F3940A974CF0F12C0E949126181674
:10115000190664F50E9491262EC00E949126181649
:1011600019061CF40E94912605C00E9491269195B3
:10117000819591094AE0BC01CE018B5B9E4F0E9494
:1011800074186BE674E0CE01815C9E4F0E94A71834
:10119000BE016B5B7E4FCE01815C9E4F0E94FB17B0
:1011A000BC01CE0101960E949F180BC00E9491269F
:1011B0009195819591094AE0BC01CE0101960E946A
:1011C0007418BE016F5F7F4FCE0149960E949F1831
:1011D000BE01615E7F4FCE0149960E94FB17BE01A2
:1011E0006B5D7F4F0E94FB17BC0186E999E00E946E
:1011F0002118CE0149960E946F18CE0101960E94D7
:101200006F18FF2051F0CE01815C9E4F0E946F1835
:10121000CE018B5B9E4F0E946F18CE014F960E94AD
:101220006F18002351F0CE01855B9E4F0E946F180E
:10123000CE018F5A9E4F0E946F18CE0185960E9454
:101240006F18112351F0CE01895A9E4F0E946F18DA
:10125000CE01835A9E4F0E946F1880911B06909179
:101260001C06019709F0E9C10E9470269093420282
:10127000809341020E946A26909344028093430225
:101280000E94622668EE73E00E947F4690934602B9
:101290008093450240913F02509140029C01275F9C
:1012A0003F4FBC01452B09F0E4C02331310508F55F
:1012B00097FF03C07195619571094AE0CE01875C83
:1012C0009E4F0E9474186BE674E0CE018D5C9E4FB9
:1012D0000E94A718BE01675C7E4FCE018D5C9E4FB9
:1012E0000E94FB17BC01CE0185960E949F1811E059
:1012F0000BC097FF03C07195619571094AE0CE015B
:1013000085960E94741810E0609143027091440227
:10131000CB010996439708F577FF03C07195619556
:1013200071094AE0CE01835D9E4F0E9474186BE6FE
:1013300074E0CE01895D9E4F0E94A718BE01635DD7
:101340007E4FCE01895D9E4F0E94FB17BC01CE01EE
:101350004F960E949F1801E00BC077FF03C0719564
:10136000619571094AE0CE014F960E94741800E021
:101370006091410270914202CB010996439710F5AA
:1013800077FF03C07195619571094AE0CE018F5DC9
:101390009E4F0E9474186BE674E0CE01855E9E4FEE
:1013A0000E94A718BE016F5D7E4FCE01855E9E4FE5
:1013B0000E94FB17BC01CE0101960E949F18FF24DA
:1013C000F3940BC077FF03C07195619571094AE0F2
:1013D000CE0101960E947418F12CBE016F5F7F4F01
:1013E000CE0149960E949F18BE01615E7F4FCE01DB
:1013F00049960E94FB17BE016B5D7F4F0E94FB1751
:10140000BC0186E999E00E942118CE0149960E940C
:101410006F18CE0101960E946F18FF2051F0CE0187
:10142000855E9E4F0E946F18CE018F5D9E4F0E9479
:101430006F18CE014F960E946F18002351F0CE0115
:10144000895D9E4F0E946F18CE01835D9E4F0E9462
:101450006F18CE0185960E946F18112309F4EDC014
:10146000CE018D5C9E4F0E946F18CE01875C9E4F0F
:10147000E2C02331310508F597FF03C071956195EE
:1014800071094AE0CE018B5E9E4F0E9474186BE694
:1014900074E0CE01815F9E4F0E94A718BE016B5E73
:1014A0007E4FCE01815F9E4F0E94FB17BC01CE0193
:1014B00085960E949F1811E00BC097FF03C071959D
:1014C000619571094AE0CE0185960E94741810E07A
:1014D0006091410270914202CB010996439708F551
:1014E00077FF03C07195619571094AE0CE01875F6E
:1014F0009E4F0E9474186BE674E0CE018D5F9E4F84
:101500000E94A718BE01675F7E4FCE018D5F9E4F80
:101510000E94FB17BC01CE014F960E949F1801E06C
:101520000BC077FF03C07195619571094AE0CE0148
:101530004F960E94741800E060914302709144023B
:10154000CB010996439710F577FF03C0719561951C
:1015500071094AE0CE0183509F4F0E9474186BE6D8
:1015600074E0CE0189509F4F0E94A718BE016350BE
:101570007F4FCE0189509F4F0E94FB17BC01CE01C7
:1015800001960E949F18FF24F3940BC077FF03C0BD
:101590007195619571094AE0CE0101960E94741817
:1015A000F12CBE016F5F7F4FCE0149960E949F18BC
:1015B000BE01615E7F4FCE0149960E94FB17BE01BE
:1015C0006B5D7F4F0E94FB17BC0186E999E00E948A
:1015D0002118CE0149960E946F18CE0101960E94F3
:1015E0006F18FF2051F0CE0189509F4F0E946F1855
:1015F000CE0183509F4F0E946F18CE014F960E94DC
:101600006F18002351F0CE018D5F9E4F0E946F181E
:10161000CE01875F9E4F0E946F18CE0185960E9473
:101620006F18112351F0CE01815F9E4F0E946F18F9
:10163000CE018B5E9E4F0E946F18E0911B06F091C9
:101640001C06EE0FFF1FEF5AFC4F208131813093B3
:101650001C0620931B062D30310549F481E090E0F3
:1016600090934E0280934D0280E88093BB06909148
:101670003E0A81E0892780933E0A8901000F111FED
:10168000F801EE5FFD4F80818093BC06A9014251B5
:1016900051094230510550F02930310539F00E948E
:1016A000B338F801E35DFD4F918380838091640935
:1016B00090916509009739F48091DF059091E005DC
:1016C000019721F507C09093D8058093D705181688
:1016D000190694F781E080931A0610920006109282
:1016E000FF0544E650E060E070E088EE93E00E9481
:1016F000002F0E94CF3780913E0A811107C01092BF
:101700000E0660E087E090E00E94C6208091D70539
:101710009091D805019661F580916609882341F181
:101720001092BE0680913E0A882329F10E94C3359B
:101730000091D3051091D4052091D5053091D6059F
:10174000DC01CB01801B910BA20BB30B87399105F8
:10175000A105B10580F00E94C3356093D305709355
:10176000D4058093D5059093D6050E94CF3703C04A
:1017700081E08093BE0680914B0990914C090097BF
:1017800039F48091DD059091DE050197B1F507C030
:101790009093D2058093D1051816190694F711E09D
:1017A00010931A06109200061092FF0544E650E0CE
:1017B00060E070E088EE93E00E94002F0E94713795
:1017C00080913E0A811119C010930E0661E087E0F6
:1017D00090E00E94C6206091000288E090E00E94A4
:1017E000C6206091CF0589E090E00E94C6206091FC
:1017F000CD058AE090E00E94C6208091D1059091AD
:10180000D205019661F580914D09882341F110922E
:10181000BD0680913E0A882329F10E94C3350091BC
:10182000C9051091CA052091CB053091CC05DC018A
:10183000CB01801B910BA20BB30B87399105A1053E
:10184000B10580F00E94C3356093C9057093CA0545
:101850008093CB059093CC050E94713703C081E043
:101860008093BD0680913E0A811141C08091640938
:101870009091650997FD06C08091DF059091E00584
:101880000196B1F444E650E060E070E088EE93E049
:101890000E94002F81E080932C0261E080E090E0C4
:1018A0000E94C6208EE791E00E940B310E945D29C4
:1018B00080914B0990914C0997FD06C08091DD0500
:1018C0009091DE05019699F444E650E060E070E006
:1018D00088EE93E00E94002F10922C0260E080E0DE
:1018E00090E00E94C62086E791E00E940B31E091D3
:1018F0001B06F0911C06E431F10510F00C94F8166B
:101900008827E758FF4F8F4F0C94D04680911906D7
:10191000811135C00E94C33500919505109196053F
:101920002091970530919805DC01CB01801B910B2C
:10193000A20BB30B893E9340A105B10578F00E943C
:10194000C3356093950570939605809397059093A2
:101950009805CE0101960E94DB3906C066E979E060
:10196000CE0101960E949F18BE016F5F7F4F86E9EE
:1019700099E00E943618CE0101960E946F1880915E
:101980009E0581110DC00E94C33560939A05709326
:101990009B0580939C0590939D0581E080939E0517
:1019A0000E94C33500919A0510919B0520919C05DA
:1019B00030919D05DC01CB01801B910BA20BB30B79
:1019C000893E9340A105B10508F4C4C20E94C33505
:1019D00060939A0570939B0580939C0590939D0559
:1019E0009091990581E0892780939905882311F0CA
:1019F00080ECAEC21092BB06ADC280911906811177
:101A0000A6C28091C105811113C00E94C335DC01BB
:101A1000CB0187519C4FAF4FBF4F8093BD05909333
:101A2000BE05A093BF05B093C00581E08093C105BA
:101A30008091B505811152C10E94622608EE13E023
:101A4000B8010E947F461816190634F40E946226D7
:101A5000B8010E947F4608C00E946226B8010E9419
:101A60007F4691958195910911E00A979CF010E0CD
:101A70000E946226E8EEEE2EE3E0FE2EB7010E9401
:101A80007F4618161906CCF50E946226B7010E94FF
:101A90007F463BC00E946226F8EEEF2EF3E0FF2E59
:101AA000B7010E947F461816190634F40E94622678
:101AB000B7010E947F4608C00E946226B7010E94BB
:101AC0007F469195819591094AE0BC01CE014996E6
:101AD0000E9474186BE674E0CE014F960E94A7181E
:101AE000BE01675E7F4FCE014F960E94FB17BC017F
:101AF000CE0101960E949F180EC00E946226B70177
:101B00000E947F469195819591094AE0BC01CE01E2
:101B100001960E9474180E946A26181619061CF471
:101B20000E946A2605C00E946A26919581959109B6
:101B300001E00A974CF000E00E946A261816190688
:101B40004CF50E946A262BC00E946A2618161906B8
:101B50001CF40E946A2605C00E946A269195819510
:101B600091094AE0BC01CE018B960E9474186BE685
:101B700074E0CE01C1960E94A718BE01655D7F4F3B
:101B8000CE01C1960E94FB17BC01CE0185960E9432
:101B90009F180BC00E946A269195819591094AE091
:101BA000BC01CE0185960E9474180E9470261816FA
:101BB00019061CF40E94702605C00E94702691959B
:101BC00081959109FF24F3940A974CF0F12C0E941F
:101BD00070261816190664F50E9470262EC00E9401
:101BE0007026181619061CF40E94702605C00E9463
:101BF00070269195819591094AE0BC01CE018D5BDB
:101C00009F4F0E9474186BE674E0CE01875B9F4F74
:101C10000E94A718BE016D5B7F4FCE01875B9F4F6F
:101C20000E94FB17BC01CE01CD960E949F180BC0ED
:101C30000E9470269195819591094AE0BC01CE01E0
:101C4000CD960E947418BE01635C7F4FCE01C7968B
:101C50000E949F18BE016B5D7F4FCE01C7960E9408
:101C6000FB17BE016F5F7F4F0E94FB17BC018FEA1D
:101C700095E00E949F1881E08093B505CE01C7963C
:101C80000E946F18CE01CD960E946F18FF2051F070
:101C9000CE01875B9F4F0E946F18CE018D5B9F4FD7
:101CA0000E946F18CE0185960E946F18002341F0A4
:101CB000CE01C1960E946F18CE018B960E946F18BC
:101CC000CE0101960E946F18112341F0CE014F966C
:101CD0000E946F18CE0149960E946F188091A70547
:101CE000811107C080913F028093A60581E0809317
:101CF000A7050E94C3350091BD051091BE05209136
:101D0000BF053091C005DC01CB01801B910BA20BFC
:101D1000B30B893E9340A105B10558F48091A60507
:101D200090E020913F02309140028217930709F41E
:101D3000FDC00E94C3356093BD057093BE058093BE
:101D4000BF059093C00580913F0290914002892B7E
:101D500009F010C70E94622608EE13E0B8010E9445
:101D60007F46181619060CF091C60E946226B8012B
:101D70000E947F4611E00A970CF091C60E946226ED
:101D800078EEE72E73E0F72EB7010E947F46181613
:101D900019060CF097C60E946226B7010E947F4682
:101DA0004AE0BC01CE0185960E9474186BE674E08F
:101DB000CE01C7960E94A718BE016B5D7F4FCE0172
:101DC000C7960E94FB17BC01CE0101960E949F1886
:101DD0000E946A26181619060CF08BC60E946A2605
:101DE00001E00A970CF08BC60E946A2618161906A5
:101DF0000CF08EC60E946A264AE0BC01CE01815BCF
:101E00009F4F0E9474186BE674E0CE018B5A9F4F6F
:101E10000E94A718BE01615B7F4FCE018B5A9F4F76
:101E20000E94FB17BC01CE01CD960E949F180E9414
:101E30007026181619060CF07CC60E947026FF2426
:101E4000F3940A970CF07BC60E94702618161906A8
:101E50000CF07EC60E9470264AE0BC01CE01895972
:101E60009F4F0E9474186BE674E0CE0183599F4F18
:101E70000E94A718BE0169597F4FCE0183599F4F19
:101E80000E94FB17BC01CE018F599F4F0E949F18E3
:101E9000BE016F597F4FCE01855A9F4F0E949F18F8
:101EA000BE01635C7F4FCE01855A9F4F0E94FB1796
:101EB000BE016F5F7F4F0E94FB17BC018FEA95E068
:101EC0000E942118CE01855A9F4F0E946F18CE01A3
:101ED0008F599F4F0E946F18FF2051F0CE018359F8
:101EE0009F4F0E946F18CE0189599F4F0E946F1813
:101EF000CE01CD960E946F18002351F0CE018B5A6F
:101F00009F4F0E946F18CE01815B9F4F0E946F18F8
:101F1000CE0101960E946F18112341F0CE01C796A1
:101F20000E946F18CE0185960E946F186FEA75E0C7
:101F3000CE0101960E949F18BE016F5F7F4F86E918
:101F400099E00E943618CE0101960E946F1880E435
:101F50008093BB060E94A22E1092BA061092B90678
:101F600047C760914B0270914C02CB010996439791
:101F700008F577FF03C07195619571094AE0CE01BC
:101F80008F509F4F0E9474186BE674E0CE0185510C
:101F90009F4F0E94A718BE016F507F4FCE01855101
:101FA0009F4F0E94FB17BC01CE0185960E949F188F
:101FB00011E00BC077FF03C07195619571094AE08C
:101FC000CE0185960E94741810E0609149027091CC
:101FD0004A02CB010996439700F577FF03C071953C
:101FE000619571094AE0CE018B519F4F0E94741890
:101FF0006BE674E0CE0181529F4F0E94A718BE018C
:102000006B517F4FCE0181529F4FF5D7BC01CE015E
:102010004F960E949F1801E00BC077FF03C0719597
:10202000619571094AE0CE014F960E94741800E054
:102030006091470270914802CB010996439708F5D9
:1020400077FF03C07195619571094AE0CE0187520F
:102050009F4F0E9474186BE674E0CE018D529F4F23
:102060000E94A718BE0167527F4FCE018D529F4F2D
:10207000C2D7BC01CE0101960E949F18FF24F394A1
:102080000BC077FF03C07195619571094AE0CE01DD
:1020900001960E947418F12CBE016F5F7F4FCE0134
:1020A00049960E949F18BE01615E7F4FCE014996FE
:1020B000A2D7BE016B5D7F4F9ED7BC0186E999E038
:1020C000C0D7CE0149960E946F18CE0101960E949A
:1020D0006F18FF2049F0CE018D529F4F0E946F185C
:1020E000CE0187529F4FFBD7CE014F96F8D70023E2
:1020F00041F0CE0181529F4FF2D7CE018B519F4FBD
:10210000EED7CE018596EBD7112341F0CE01855154
:102110009F4FE5D7CE018F509F4FE1D71092BA065F
:102120001092B90680914D0290914E02019751F59F
:1021300080E88093BB0628C060914F0270915002E6
:102140004AE0CE014996D0D76AE674E0CE01019606
:10215000FED7BE01675E7F4FCE0101964CD76AE67F
:1021600074E032D7BC0186E999E06BD7CE010196C5
:10217000B6D7CE014996B3D783E390E09093BA06E1
:102180008093B9061092BB060E94A22E31C68091A0
:102190001906811139C081E020915102309152021B
:1021A000232B09F480E00E94782BCB59DE4F688303
:1021B00079838A839B83C556D140AB01BC01CE0194
:1021C00001960E940A2CBE016F5F7F4F86E999E05D
:1021D0004DD7CE01019683D7809151029091520242
:1021E000892B51F481E390E09093BA068093B9066D
:1021F00080E48093BB0608C083E290E09093BA0627
:102200008093B9061092BB0620E030E0A901CB59BB
:10221000DE4F688179818A819B81C556D1400E94B9
:102220006E449091BB0687FF02C0906801C09F7703
:102230009093BB06DDC56091530270915402CB01AF
:1022400009964397E8F477FF03C07195619571098A
:102250004AE0CE0183539F4F47D76BE674E0CE012F
:1022600089539F4F74D7BE0163537F4FCE0189536B
:102270009F4FC1D6BC01CE01019661D711E00AC0C3
:1022800077FF03C07195619571094AE0CE0101960F
:102290002BD710E0BE016F5F7F4FCE0149964FD71D
:1022A00068E674E0CE0149968FD6BC0186E999E0D4
:1022B000C8D6CE01499613D7CE01019610D7112367
:1022C00041F0CE0189539F4F0AD7CE0183539F4FD0
:1022D00006D78FE090E09093BA068093B90680917C
:1022E00053029091540297FD03C01092BB0680C523
:1022F00080E88093BB067CC580913F0290914002AC
:10230000892B71F461E474E086E999E085D683E075
:1023100090E090931702809316028CE090E00DC03D
:1023200068E474E086E999E077D68CE090E09093D9
:1023300017028093160283E090E090931902809335
:10234000180256C580913F0290914002609145026B
:1023500070914602892B09F0C9C0CB0109964397B9
:10236000E8F477FF03C07195619571094AE0CE01E9
:102370008F539F4FB9D66BE674E0CE0185549F4FC3
:10238000E6D6BE016F537F4FCE0185549F4F33D6A3
:10239000BC01CE018596D3D611E00AC077FF03C0F9
:1023A0007195619571094AE0CE0185969DD610E040
:1023B0006091430270914402CB0109964397E8F47F
:1023C00077FF03C07195619571094AE0CE018B5486
:1023D0009F4F8AD66BE674E0CE0181559F4FB7D6EA
:1023E000BE016B547F4FCE0181559F4F04D6BC0177
:1023F000CE014F96A4D601E00AC077FF03C07195C5
:10240000619571094AE0CE014F966ED600E0609169
:10241000410270914202CB0109964397F0F477FF95
:1024200003C07195619571094AE0CE0187559F4FB0
:102430005BD66BE674E0CE018D559F4F88D6BE010A
:1024400067557F4FCE018D559F4FD5D5BC01CE012D
:10245000019675D6FF24F3940AC077FF03C07195E7
:10246000619571094AE0CE0101963ED6F12CBE017C
:102470006F5F7F4FCE01499662D6BE01615E7F4F8E
:10248000CE014996B8D5BE016B5D7F4FB4D5BC0176
:1024900086E999E0D6D5CE01499621D6CE0101969E
:1024A0001ED6FF2041F0CE018D559F4F18D6CE018C
:1024B00087559F4F14D6CE014F9611D6002341F079
:1024C000CE0181559F4F0BD6CE018B549F4F07D61F
:1024D000CE01859604D6112309F48AC4CE01855411
:1024E0009F4FFDD5CE018F539F4FC5C0CB0109969D
:1024F0004397E8F477FF03C07195619571094AE04D
:10250000CE0183569F4FF0D56BE674E0CE0189561D
:102510009F4F1DD6BE0163567F4FCE0189569F4FF8
:102520006AD5BC01CE018B960AD611E00AC077FFAE
:1025300003C07195619571094AE0CE018B96D4D59F
:1025400010E06091410270914202CB0109964397DD
:10255000E8F477FF03C07195619571094AE0CE01F7
:102560008F569F4FC1D56BE674E0CE0185579F4FC4
:10257000EED5BE016F567F4FCE0185579F4F3BD59D
:10258000BC01CE018596DBD501E00AC077FF03C010
:102590007195619571094AE0CE018596A5D500E057
:1025A0006091430270914402CB0109964397E0F495
:1025B00077FF03C07195619571094AE0CE018B5791
:1025C0009F4F92D56BE674E0CE010196C0D5BE0157
:1025D0006B577F4FCE0101960ED5BC01CE014996B7
:1025E000AED5FF24F3940AC077FF03C071956195BF
:1025F00071094AE0CE01499677D5F12CBE01675E9C
:102600007F4FCE014F969BD5BE016B5D7F4FCE01B4
:102610004F96F1D4BE01655D7F4FEDD4BC0186E9D4
:1026200099E00FD5CE014F965AD5CE01499657D590
:10263000FF2039F0CE01019652D5CE018B579F4F26
:102640004ED5CE0185964BD5002341F0CE0185575E
:102650009F4F45D5CE018F569F4F41D5CE018B96CA
:102660003ED5112309F4C4C3CE0189569F4F37D5F7
:10267000CE0183569F4F33D5BBC30E940939E090EA
:102680000906F0900A0600910706109108062091AD
:1026900005063091060640910C0650910D0660919A
:1026A00003067091040680910106909102060E9433
:1026B00087250C943302809132058D3411F00C94EF
:1026C000860280913305833411F00C948602D090F9
:1026D0003505C09036057090370560903805E0905C
:1026E0003905B0903A0580E090E0ECE0F0E0DF01E1
:1026F000A25DBA4F2C912C3231F4019688309105AD
:1027000011F4EF5F05C03196E335F10581F7E0E0A4
:10271000F0E0E25DFA4F5080418032802380848176
:10272000082E000C990BC0975AE0F52EF89E8001F8
:10273000F99E100D11240053184F8581080F111DAB
:1027400087FD1A950053110946EF57E062EE77E0D6
:10275000C8010E94F741882311F40C948602832D4E
:10276000330C990BC097F89E9001F99E300D1124FF
:10277000C901820D911D27FC9A951C0190E3291A2D
:1027800031084CE050E061E070E0C1010E94F74187
:10279000882311F40C948602852D550C990BC09753
:1027A000F89E9001F99E300D1124D901A40DB11DA0
:1027B00047FCBA952D01B0E34B1A51084FE150E0A8
:1027C00061E070E0C2010E94F741882311F40C948B
:1027D00086028D2DDD0C990BC097F89E9001F99E15
:1027E000300D1124F901EC0DF11DC7FCFA956F01B4
:1027F000F0E3CF1AD10847E150E060E070E0C60195
:102800000E94F741882311F40C948602872D770CDF
:10281000990BC097F89E9001F99E300D1124C901C3
:10282000860D911D67FC9A953C0190E3691A710829
:102830004BE350E060E070E0C3010E94F741882361
:1028400011F40C9486028E2DEE0C990BC097F89E15
:102850009001F99E300D11247901EB0CF11CB7FCAD
:10286000FA94A0E3EA1AF1084BE350E060E070E06C
:10287000C7010E94F741882311F40C948602C0928C
:10288000AA096092AB09E092AC094092AD0920928E
:10289000AE091093B0090093AF090E94C33560934D
:1028A000B2097093B3098093B4099093B5090C945D
:1028B000860220813181235131092F30310550F4B6
:1028C000CC0CDD1CEE1CFF1C6894C0F802963496FC
:1028D0000C94AB03208131812A5031092930310514
:1028E00010F00C94D903CC0CDD1CEE1CFF1CEECFB9
:1028F00010923E0A30931C0620931B06232BB9F43A
:102900000E9462267C010E946A268C010E94702629
:102910009C0140913D0250913E0260913B027091BA
:102920003C028091390290913A020E948725809161
:102930001B0690911C060197B9F58CE891E00E9466
:10294000EA3080914102909142020E94AD3385E8C5
:1029500091E00E94EA3080914302909144020E94EB
:10296000AD33E0904502F090460290E3E91A98EF0B
:10297000F90A009143021091440280904102909024
:1029800042020E9476265C010E947C266C010E9415
:1029900091269401A501B6010E94872560913F020E
:1029A0008DE090E00E94C62080911B0690911C064D
:1029B0000297C1F46091470282E090E00E94C62035
:1029C0006091490283E090E00E94C62060914B0232
:1029D00084E090E00E94C62060914D0286E090E085
:1029E0000E94C62080911B0690911C06039731F42B
:1029F00060914F0281E090E00E94C62080911B060A
:102A000090911C06049731F4609151028BE090E0A4
:102A10000E94C62080911B0690911C06059739F4F0
:102A200060915302645F8CE090E00E94C6200E9497
:102A300062267C010E946A26082F0E947026C659D1
:102A4000DE4F8883CA56D1400E947626C759DE4F92
:102A50008883C956D1400E947C26182F0E94912657
:102A6000382FC70168EE73E00E947F46E82EC659F2
:102A7000DE4F2881CA56D140C759DE4F4881C9561A
:102A8000D140612F832F0E944034B2C10E94622640
:102A9000B8010E947F469195819591096BC910E01C
:102AA0000E94622668EEE62E63E0F62EB7010E94D1
:102AB0007F46181619067CF40E946226B7010E9410
:102AC0007F4611C00E946226B7010E947F46919501
:102AD0008195910965C90E946226B7010E947F46CF
:102AE0009195819591094AE0BC01CE010196FCD2F5
:102AF0006FC90E946A2691958195910971C900E07C
:102B00000E946A26181619064CF40E946A260BC009
:102B10000E946A269195819591096EC90E946A2644
:102B20009195819591094AE0BC01CE01CD96DCD208
:102B30007EC90E94702691958195910980C9F12CDA
:102B40000E947026181619064CF40E9470260BC0BD
:102B50000E9470269195819591097EC90E947026E8
:102B60009195819591094AE0BC01CE018F599F4F03
:102B7000BBD28EC90E94622608EE13E0B8010E9403
:102B80007F461816190634F40E946226B8010E9486
:102B90007F4608C00E946226B8010E947F46919538
:102BA0008195910911E00A979CF010E00E9462263D
:102BB00048EEE42E43E0F42EB7010E947F4618163B
:102BC0001906BCF50E946226B7010E947F4639C0F3
:102BD0000E94622658EEE52E53E0F52EB7010E94C2
:102BE0007F461816190634F40E946226B7010E9427
:102BF0007F4608C00E946226B7010E947F469195D9
:102C0000819591094AE0BC01CE01CD966DD26BE66B
:102C100074E0CE01855A9F4F9AD2BE01635C7F4F0C
:102C2000CE01855A9F4FE7D1BC01CE01019687D2D4
:102C30000DC00E946226B7010E947F469195819542
:102C400091094AE0BC01CE0101964ED20E94702645
:102C5000181619061CF40E94702605C00E947026E2
:102C600091958195910901E00A974CF000E00E944E
:102C700070261816190644F50E9470262AC00E9474
:102C80007026181619061CF40E94702605C00E94B2
:102C900070269195819591094AE0BC01CE018F592A
:102CA0009F4F22D26BE674E0CE018D589F4F4FD2DA
:102CB000BE016F597F4FCE018D589F4F9CD1BC01F3
:102CC000CE0185963CD20AC00E94702691958195CE
:102CD00091094AE0BC01CE01859606D20E946A267F
:102CE000181619061CF40E946A2605C00E946A265E
:102CF000919581959109FF24F3940A974CF0F12C5A
:102D00000E946A26181619064CF50E946A262BC0E6
:102D10000E946A26181619061CF40E946A2605C02D
:102D20000E946A269195819591094AE0BC01CE01E5
:102D300087589F4FD9D16BE674E0CE0181589F4FE1
:102D400006D2BE0167587F4FCE0181589F4F53D1A5
:102D5000BC01CE01815B9F4FF2D10BC00E946A265D
:102D60009195819591094AE0BC01CE01815B9F4F0D
:102D7000BBD1BE01615B7F4FCE01C796E0D1BE01E2
:102D80006B5D7F4FCE01C79636D1BE016F5F7F4F1F
:102D900032D1BC018FEA95E054D1CE01C7969FD1C4
:102DA000CE01815B9F4F9BD1FF2041F0CE01815826
:102DB0009F4F95D1CE0187589F4F91D1CE018596D7
:102DC0008ED1002341F0CE018D589F4F88D1CE0186
:102DD0008F599F4F84D1CE01019681D1112309F4DF
:102DE000A5C8CE01855A9F4F7AD1CE01CD969CC8F9
:102DF000C659DE4F0FB6F894DEBF0FBECDBFDF91D0
:102E0000CF911F910F91FF90EF90DF90CF90BF90E7
:102E1000AF909F908F907F906F905F904F903F907A
:102E20002F9008950895CF92DF92EF92FF920F9323
:102E30001F93CF93DF936C017A018B01C0E0D0E048
:102E4000CE15DF0589F0D8016D918D01D601ED9188
:102E5000FC910190F081E02DC6011995892B11F4A8
:102E60007E0102C02196ECCFC701DF91CF911F9167
:102E70000F91FF90EF90DF90CF9008950E94EF4860
:102E8000CF93DF93EC0188819981009711F00E9424
:102E90007347198218821D821C821B821A82DF915D
:102EA000CF9108950F931F93CF93DF93EC01888107
:102EB0009981009729F02A813B812617370788F4EA
:102EC0008B016F5F7F4F0E940B48009761F09983E1
:102ED00088831B830A832C813D81232B11F4FC0101
:102EE000108281E001C080E0DF91CF911F910F91AE
:102EF0000895EF92FF920F931F93CF93DF93EC010E
:102F00007B018A01BA01CEDF811103C0CE01B8DF97
:102F100007C01D830C83B701888199810E94FC48FA
:102F2000CE01DF91CF911F910F91FF90EF90089507
:102F30008EE197E00E94F92021E0892B09F420E03E
:102F4000822F08958BEB97E00E94F92021E0892BD6
:102F500009F420E0822F0895FC018081918100977F
:102F600011F00C94F64360E070E0CB010895EF920D
:102F7000FF920F931F93CF93DF93FC012481358140
:102F80006115710511F480E018C041155105A1F0DB
:102F90007B01EC018A01020F131FB80183DF882334
:102FA00091F3288139818C819D81B701820F931F14
:102FB0000E94FC481D830C8381E0DF91CF911F911B
:102FC0000F91FF90EF900895CF93DF93EC0161157F
:102FD000710559F0FB0101900020E9F73197AF012D
:102FE000461B570BC4DF811102C0CE0149DFCE0161
:102FF000DF91CF910895CF93DF93EC01FB014481E2
:10300000558160817181B3DF811102C0CE0138DF4B
:10301000CE01DF91CF910895CF93DF93EC0161153D
:10302000710551F0FB0101900020E9F73197AF01E4
:10303000461B570B5EDF01C023DFCE01DF91CF912E
:103040000895CF93DF93EC01FB018617970751F0AA
:10305000608171816115710521F04481558149DFDD
:1030600001C00EDFCE01DF91CF9108950F931F9322
:10307000CF93DF938C01EB01FC018081918100975C
:10308000B1F0688179816115710579F042815381D0
:103090002C813D814217530740F00E94FC488C81EF
:1030A0009D81F8019583848313C00E9473478881B2
:1030B0009981F801918380838A819B8193838283A4
:1030C0008C819D8195838483198218821B821A8248
:1030D0001D821C82DF91CF911F910F910895FC01F9
:1030E000808191810C9473470F931F93CF93DF934B
:1030F000CDB7DEB762970FB6F894DEBF0FBECDBF77
:103100008C01CB01F8011182108213821282158288
:10311000148250E0BE016F5F7F4F0E941C44BE01CD
:103120006F5F7F4FC80178DF62960FB6F894DEBFFD
:103130000FBECDBFDF91CF911F910F910895FC017C
:103140001182108213821282158214827ACFFC01BE
:103150001182108213821282158214826115710508
:1031600049F0FB0101900020E9F73197AF01461BC0
:10317000570BBFCE0895BF92CF92DF92EF92FF928E
:103180000F931F93CF93DF937C016B018A01E901B9
:103190002417350720F4812F8901C42FD82F61E52A
:1031A00074E0C701D4DFD60114968D919C911597D8
:1031B00008171907C8F48C179D0708F4EC01D6010D
:1031C000ED91FC911197EC0FFD1FB08010824D9195
:1031D0005C91BA01600F711FC7011EDFD601ED912E
:1031E000FC91EC0FFD1FB082C701DF91CF911F91C1
:1031F0000F91FF90EF90DF90CF90BF9008951F92B6
:103200000F920FB60F9211240BB60F922F933F938C
:103210004F935F936F937F938F939F93AF93BF93DE
:10322000EF93FF938EE197E00E941023FF91EF91BF
:10323000BF91AF919F918F917F916F915F914F91CE
:103240003F912F910F900BBE0F900FBE0F901F90CC
:1032500018951F920F920FB60F9211240BB60F9272
:103260002F933F934F935F936F937F938F939F938E
:10327000AF93BF93EF93FF938EE197E00E94F72205
:10328000FF91EF91BF91AF919F918F917F916F913E
:103290005F914F913F912F910F900BBE0F900FBEFA
:1032A0000F901F9018951F920F920FB60F92112436
:1032B0000BB60F922F933F934F935F936F937F9330
:1032C0008F939F93AF93BF93EF93FF938BEB97E015
:1032D0000E941023FF91EF91BF91AF919F918F9129
:1032E0007F916F915F914F913F912F910F900BBE06
:1032F0000F900FBE0F901F9018951F920F920FB650
:103300000F9211240BB60F922F933F934F935F931D
:103310006F937F938F939F93AF93BF93EF93FF939D
:103320008BEB97E00E94F722FF91EF91BF91AF9155
:103330009F918F917F916F915F914F913F912F91CD
:103340000F900BBE0F900FBE0F901F90189590918D
:10335000F4058091F305981750F4E92FF0E0E95C4B
:10336000F94F208130E09F5F9093F40502C02FEF6A
:103370003FEFC90108958091F30590E02091F40595
:10338000821B91090895089580E090E00895CF92FE
:10339000DF92EF92FF920F931F93CF93DF937C0105
:1033A000262F972F8A0180910B0A882391F0C62F30
:1033B000D72F6E01C40ED51ECC15DD0571F06991B5
:1033C000D701ED91FC910190F081E02DC701199595
:1033D000F3CF642F822F0E947E28C801DF91CF9106
:1033E0001F910F91FF90EF90DF90CF900895CF93B2
:1033F000DF931F92CDB7DEB7698320910B0A22239A
:10340000D1F020912E0A203240F021E030E0FC0182
:103410003383228380E090E015C080910C0AE82F6E
:10342000F0E0E35FF54F998190838F5F80930C0A02
:1034300080932E0A05C061E0CE0101960E947E288D
:1034400081E090E00F90DF91CF910895EF92FF928D
:103450000F931F93CF93DF93CDB7DEB7C25AD10935
:103460000FB6F894DEBF0FBECDBF80912F0681113D
:103470000DC00E94C33560932B0670932C06809379
:103480002D0690932E0681E080932F0680912306CF
:1034900081110DC00E94C33560931F0670932006F2
:1034A000809321069093220681E0809323060E9458
:1034B000C33500912B0610912C0620912D063091DA
:1034C0002E06DC01CB01801B910BA20BB30B0091EC
:1034D0005502109156022091570230915802081758
:1034E00019072A073B0708F06FC00E94C335609395
:1034F0002B0670932C0680932D0690932E068091B8
:103500001D0690911E06009799F481E090E090933B
:103510001C0680931B0688E893E1A0E0B0E080934E
:10352000550290935602A0935702B09358021EC0C2
:103530000197E1F484E090E090931C0680931B06D1
:1035400088E893E1A0E0B0E08093550290935602A2
:10355000A0935702B09358028091FE05811106C0D6
:1035600082E090E090931E0680931D0680911D06D8
:1035700090911E068230910581F410921C061092E3
:103580001B0640E65AEE60E070E04093550250930F
:10359000560260935702709358020196833091054A
:1035A0002CF490931E0680931D0604C010921E06F4
:1035B00010921D0680911A06882321F010921C0695
:1035C00010921B0610921A060E94C33500912B061A
:1035D00010912C0620912D0630912E06DC01CB0196
:1035E000801B910BA20BB30B803D9740A105B10549
:1035F00008F0BCC50E94C33500911F06109120063B
:103600002091210630912206DC01CB01801B910B19
:10361000A20BB30B85369105A105B10508F4A8C529
:103620000E94C33560931F06709320068093210685
:10363000909322062091FE0580911B0690911C0616
:10364000222309F4F5C2892B69F5CE0107960E9461
:10365000DB3981E02091510230915202232B09F491
:1036600080E00E94782BAB01BC01CE010D960E9438
:103670000A2CAE01495F5F4FBE01635F7F4FCE01F1
:1036800001960E94EB2DBE016F5F7F4F86E999E0A6
:10369000EDDCCE01019623DDCE010D9620DDCE01BD
:1036A00007961DDD80911B0690911C06019709F07D
:1036B0004FC10E94622608EE13E0B8010E947F46C7
:1036C0001816190634F40E946226B8010E947F463B
:1036D00008C00E946226B8010E947F46919581959C
:1036E000910911E00A979CF010E00E946226E8EE32
:1036F000EE2EE3E0FE2EB7010E947F461816190653
:10370000ACF50E946226B7010E947F4637C00E9436
:103710006226F8EEEF2EF3E0FF2EB7010E947F46FF
:103720001816190634F40E946226B7010E947F46DB
:1037300008C00E946226B7010E947F46919581953C
:1037400091094AE0BC01CE014396CEDC6BE674E001
:10375000CE014996FCDCBE016D5E7F4FCE014996DD
:103760004ADCBC01CE010D96EADC0DC00E94622647
:10377000B7010E947F469195819591094AE0BC016D
:10378000CE010D96B1DC0E946A26181619061CF4AB
:103790000E946A2605C00E946A269195819591092A
:1037A00001E00A974CF000E00E946A2618161906FC
:1037B0002CF50E946A2627C00E946A261816190650
:1037C0001CF40E946A2605C00E946A269195819584
:1037D00091094AE0BC01CE01859686DC6BE674E077
:1037E000CE018B96B4DCBE016B5D7F4FCE018B9614
:1037F00002DCBC01CE014F96A2DC0AC00E946A2600
:103800009195819591094AE0BC01CE014F966CDCFF
:103810000E947026181619061CF40E94702605C016
:103820000E947026919581959109FF24F3940A973F
:103830004CF0F12C0E947026181619063CF50E94D7
:10384000702629C00E947026181619061CF40E94C2
:10385000702605C00E9470269195819591094AE0D5
:10386000BC01CE01CD9640DC6BE674E0CE018D5BF1
:103870009F4F6DDCBE01635C7F4FCE018D5B9F4F20
:10388000BADBBC01CE01C7965ADC0AC00E94702682
:103890009195819591094AE0BC01CE01C79624DC3F
:1038A000BE01695C7F4FCE01C19649DCBE01615EFD
:1038B0007F4FCE01C1969FDBBE01635F7F4F9BDBD5
:1038C000BC01CE0107963BDCCE01875B9F4F0E9477
:1038D000DB39AE01495F5F4FBE01675B7F4FCE01B1
:1038E00001960E94EB2DBE016F5F7F4F86E999E044
:1038F000BDDBCE010196F3DBCE01875B9F4FEFDB93
:10390000CE010796ECDBCE01C196E9DBCE01C7966E
:10391000E6DBFF2039F0CE018D5B9F4FE0DBCE016F
:10392000CD96DDDBCE014F96DADB002331F0CE0100
:103930008B96D5DBCE018596D2DBCE010D96CFDB03
:10394000112331F0CE014996CADBCE014396C7DB85
:1039500080911B0690911C06049709F009C481E030
:103960002091510230915202232B09F480E00E94F1
:10397000782BAB01BC01CE0107960E940A2C0E9455
:10398000622608EE13E0B8010E947F461816190659
:1039900034F40E946226B8010E947F4608C00E944B
:1039A0006226B8010E947F4691958195910911E0A8
:1039B0000A979CF010E00E94622668EEE62E63E013
:1039C000F62EB7010E947F4618161906ACF50E9424
:1039D0006226B7010E947F4637C00E94622678EEB9
:1039E000E72E73E0F72EB7010E947F4618161906DE
:1039F00034F40E946226B7010E947F4608C00E94EC
:103A00006226B7010E947F469195819591094AE00F
:103A1000BC01CE01C19668DB6BE674E0CE01C796AF
:103A200096DBBE016F5C7F4FCE01C796E4DABC0126
:103A3000CE014F9684DB0DC00E946226B7010E9422
:103A40007F469195819591094AE0BC01CE014F9640
:103A50004BDB0E946A26181619061CF40E946A267F
:103A600005C00E946A2691958195910901E00A9707
:103A70004CF000E00E946A26181619064CF50E94C8
:103A80006A262BC00E946A26181619061CF40E948A
:103A90006A2605C00E946A269195819591094AE09F
:103AA000BC01CE01815B9F4F1FDB6BE674E0CE0152
:103AB0008B5A9F4F4CDBBE01615B7F4FCE018B5A0F
:103AC0009F4F99DABC01CE01875B9F4F38DB0BC05B
:103AD0000E946A269195819591094AE0BC01CE0128
:103AE000875B9F4F01DB0E947026181619061CF495
:103AF0000E94702605C00E947026919581959109BB
:103B0000FF24F3940A974CF0F12C0E9470261816AB
:103B100019064CF50E9470262BC00E9470261816BC
:103B200019061CF40E94702605C00E94702691950B
:103B3000819591094AE0BC01CE0189599F4FD4DAA1
:103B40006BE674E0CE0183599F4F01DBBE016959DA
:103B50007F4FCE0183599F4F4EDABC01CE018F5962
:103B60009F4FEDDA0BC00E947026919581959109C7
:103B70004AE0BC01CE018F599F4FB6DABE016F59A2
:103B80007F4FCE01855A9F4FDADABE01675B7F4FC8
:103B9000CE01855A9F4F2FDABE01615E7F4F2BDA2F
:103BA000BC01CE010D96CBDAAE01495F5F4FBE017D
:103BB000635F7F4FCE0101960E94EB2DBE016F5FC8
:103BC0007F4F86E999E052DACE01019688DACE017C
:103BD0000D9685DACE01855A9F4F81DACE018F5935
:103BE0009F4F7DDAFF2041F0CE0183599F4F77DA56
:103BF000CE0189599F4F73DACE01875B9F4F6FDAF1
:103C0000002341F0CE018B5A9F4F69DACE01815BD0
:103C10009F4F65DACE014F9662DA112331F0CE0163
:103C2000C7965DDACE01C1965ADACE0107969BC2DD
:103C3000892B09F044C1CE0107960E94DB390E940E
:103C4000622608EE13E0B8010E947F461816190696
:103C500034F40E946226B8010E947F4608C00E9488
:103C60006226B8010E947F4691958195910911E0E5
:103C70000A979CF010E00E94622648EEE42E43E092
:103C8000F42EB7010E947F4618161906BCF50E9453
:103C90006226B7010E947F4638C00E94622658EE15
:103CA000E52E53E0F52EB7010E947F46181619063F
:103CB00034F40E946226B7010E947F4608C00E9429
:103CC0006226B7010E947F469195819591094AE04D
:103CD000BC01CE014F9608DA6BE674E0CE01875B3B
:103CE0009F4F35DABE01615E7F4FCE01875B9F4FEC
:103CF00082D9BC01CE01439622DA0CC0E3D7B701CA
:103D00000E947F469195819591094AE0BC01CE01C0
:103D10004396EAD9DFD71816190614F4DBD704C086
:103D2000D9D791958195910901E00A973CF000E07F
:103D3000D1D71816190624F5CDD726C0CBD718161B
:103D4000190614F4C7D704C0C5D791958195910978
:103D50004AE0BC01CE01855A9F4FC6D96BE674E09C
:103D6000CE018F599F4FF3D9BE01655A7F4FCE01C7
:103D70008F599F4F40D9BC01CE014996E0D909C067
:103D8000A9D79195819591094AE0BC01CE01499648
:103D9000ABD9A6D71816190614F4A2D704C0A0D719
:103DA000919581959109FF24F3940A973CF0F12CA9
:103DB00097D71816190624F593D726C091D7181649
:103DC000190614F48DD704C08BD79195819591096C
:103DD0004AE0BC01CE018D589F4F86D96BE674E056
:103DE000CE0187589F4FB3D9BE016D587F4FCE018A
:103DF00087589F4F00D9BC01CE018B96A0D909C02E
:103E00006FD79195819591094AE0BC01CE018B96BF
:103E10006BD9BE01655D7F4FCE01859690D9BE01FD
:103E2000675E7F4FCE018596E6D8BE016D5E7F4FFF
:103E3000E2D8BC01CE010D9682D9AE01495F5F4F39
:103E4000BE01635F7F4FCE0101960E94EB2DBE0144
:103E50006F5F7F4F86E999E009D9CE0101963FD97E
:103E6000CE010D963CD9CE01859639D9CE018B96DF
:103E700036D9FF2041F0CE0187589F4F30D9CE016F
:103E80008D589F4F2CD9CE01499629D9002341F056
:103E9000CE018F599F4F23D9CE01855A9F4F1FD9ED
:103EA000CE0143961CD9112339F0CE01875B9F4F79
:103EB00016D9CE014F9613D9CE01079610D980910D
:103EC0001B0690911C06019709F052C1FBD608EE23
:103ED00013E0B8010E947F46181619062CF4F2D69A
:103EE000B8010E947F4607C0EDD6B8010E947F4608
:103EF00091958195910911E00A978CF010E0E2D636
:103F000028EEE22E23E0F22EB7010E947F4618161B
:103F10001906A4F5D7D6B7010E947F4636C0D2D67F
:103F200038EEE32E33E0F32EB7010E947F461816D9
:103F300019062CF4C7D6B7010E947F4607C0C2D627
:103F4000B7010E947F469195819591094AE0BC0195
:103F5000CE0181589F4FC8D86BE674E0CE018B57D5
:103F60009F4FF5D8BE0161587F4FCE018B579F4FB1
:103F700042D8BC01CE010D96E2D80CC0A3D6B70141
:103F80000E947F469195819591094AE0BC01CE013E
:103F90000D96AAD89FD61816190614F49BD604C0FD
:103FA00099D691958195910901E00A973CF000E03E
:103FB00091D61816190624F58DD626C08BD618165C
:103FC000190614F487D604C085D691958195910978
:103FD0004AE0BC01CE0185579F4F86D86BE674E05E
:103FE000CE018F569F4FB3D8BE0165577F4FCE018C
:103FF0008F569F4F00D8BC01CE014396A0D809C070
:1040000069D69195819591094AE0BC01CE0143960C
:104010006BD866D61816190614F462D604C060D69A
:10402000919581959109FF24F3940A973CF0F12C26
:1040300057D6181619062CF553D627C051D6181680
:10404000190614F44DD604C04BD69195819591096B
:104050004AE0BC01CE0189569F4F46D86BE674E01A
:10406000CE0183569F4F73D8BE0169567F4FCE0154
:1040700083569F4F0E94FB17BC01CE0185965FD8E7
:1040800009C02ED69195819591094AE0BC01CE01D7
:1040900085962AD8BE016B5D7F4FCE0149964FD8D9
:1040A000BE016D5E7F4FCE0149960E94FB17BE0197
:1040B000635F7F4F0E94FB17BC01CE0107963FD87C
:1040C000CE018B960E94DB39AE01495F5F4FBE0186
:1040D000655D7F4FCE0101960E94EB2DBE016F5FA3
:1040E0007F4F86E999E00E943618CE0101960E9422
:1040F0006F18CE018B960E946F18CE0107960E9412
:104100006F18CE0149960E946F18CE0185960E94C5
:104110006F18FF2051F0CE0183569F4F0E946F18F9
:10412000CE0189569F4F0E946F18CE0143960E9480
:104130006F18002351F0CE018F569F4F0E946F18C9
:10414000CE0185579F4F0E946F18CE010D960E9499
:104150006F18112369F0CE018B579F4F0E946F1883
:10416000CE0181589F4F0E946F1802C0109219060D
:10417000CE55DF4F0FB6F894DEBF0FBECDBFDF9137
:10418000CF911F910F91FF90EF9008950C948F4560
:10419000FC01538D448D252F30E0842F90E0821B4D
:1041A000930B541710F0CF96089501970895FC01D2
:1041B000918D828D981761F0828DDF01A80FB11D5E
:1041C0005D968C91928D9F5F9F73928F90E0089582
:1041D0008FEF9FEF0895FC01918D828D981731F03C
:1041E000828DE80FF11D858D90E008958FEF9FEF90
:1041F0000895FC01918D228D892F90E0805C9F4F66
:10420000821B91098F739927089580E090E0892B94
:1042100021F00E94A217811121C080E090E0892B3B
:1042200021F00E94981781111CC080E090E0892B3A
:1042300041F080E090E0892B21F00E940000811184
:1042400013C080E090E0892BA1F080E090E0892B02
:1042500081F00E94000081110AC008950E940000B0
:10426000DCCF0E940000E1CF0E940000EACF0C9456
:10427000000008954F925F926F927F928F929F926B
:10428000AF92BF92CF92DF92EF92FF920F931F9364
:10429000CF93DF934B015C018091A2069091A3061E
:1042A000A091A406B091A50688169906AA06BB0699
:1042B00009F4C2C08CE3C82ED12CE12CF12CC5012D
:1042C000B401A70196010E9492466093B206CA010A
:1042D000B901A70196010E9492466093B306CA01F4
:1042E000B90128E130E040E050E00E9492466901C7
:1042F0007A016093B406CA01B9016C5F7F4F8F4F9A
:104300009F4F27E030E040E050E00E9492466F5F10
:104310006093B506412C512C320140E004E610E0D8
:10432000C0E9D1E0242F30E02E54384FF901E3707A
:10433000FF27309789F4C901B8010E947F46892B75
:1043400031F4C901BE010E947F46892B29F48EE613
:1043500091E0A0E0B0E004C08DE691E0A0E0B0E024
:10436000480E591E6A1E7B1ED301C201AA27BB2715
:10437000C816D906EA06FB0610F04F5FD3CF40936C
:10438000B806309799F4C90164E670E00E947F4650
:10439000892B39F4C90160E971E00E947F46892BBD
:1043A00029F48EE691E0A0E0B0E004C08DE691E053
:1043B000A0E0B0E0481A590A6A0A7B0AC418D50876
:1043C000E608F708C90164E670E00E947F46EC0148
:1043D000C90160E971E00E947F46A1EAB3E020E0F4
:1043E000213039F4309749F4209729F4009729F4C3
:1043F00002C04C9103C04DE101C04CE150E060E0CF
:1044000070E0C416D506E606F70640F0C41AD50AD1
:10441000E60AF70A2F5F11962C3011F72F5F2093D1
:10442000B706C394C092B6068092A2069092A306E5
:10443000A092A406B092A506DF91CF911F910F9193
:10444000FF90EF90DF90CF90BF90AF909F908F90B4
:104450007F906F905F904F90089585ED8093BC00A2
:104460008091BC0084FDFCCF10920A0A0895089543
:10447000E091F4058091F305E81730F4F0E0E95C91
:10448000F94F808190E008958FEF9FEF089560933A
:104490005706709358068093590690935A06DC018C
:1044A000CB01845D9E4FAF4FBF4F8093AE0690937C
:1044B000AF06A093B006B093B10682E090E090936F
:1044C000AD068093AC060E94C3356093A806709336
:1044D000A9068093AA069093AB060895CF92DF9227
:1044E000EF92FF920F931F930E94C335C090A806CE
:1044F000D090A906E090AA06F090AB068B019C0133
:104500000C191D092E093F098091570690915806F4
:10451000A0915906B0915A06083E13402105310575
:10452000D0F00196A11DB11D8093570690935806B7
:10453000A0935906B0935A06B701A60148515C4FA3
:104540006F4F7F4F4093A8065093A9066093AA0629
:104550007093AB06C9CF4091AE065091AF06609103
:10456000B0067091B10684179507A607B70780F1CA
:10457000E091A606F091A706309751F119956115C3
:1045800071058105910511F082DF22C080915706E7
:1045900090915806A0915906B0915A06845D9E4F9D
:1045A000AF4FBF4F8093AE069093AF06A093B00677
:1045B000B093B10681E090E02091AC063091AD0659
:1045C000232B11F480E090E09093AD068093AC062D
:1045D00060915706709158068091590690915A063D
:1045E0001F910F91FF90EF90DF90CF900895FC0105
:1045F000A089B1898C91A689B78982FD0FC09C9151
:10460000818D8F5F8F73228D821749F0218DDF019D
:10461000A20FB11D5D969C93818F08958C91089592
:10462000FC01848DDF01A80FB11DA35ABF4F2C914F
:10463000848D90E001968F739927848FA689B7891E
:104640002C93A089B1898C9180648C93938D848DF7
:10465000981306C00288F389E02D80818F7D8083C6
:104660000895EF92FF920F931F93CF93DF93EC0186
:1046700081E0888F9B8D8C8D981305C0E889F9891E
:10468000808185FD23C0F62E0B8D10E00F5F1F4F3C
:104690000F731127E02E8C8DE8120BC00FB607FCAC
:1046A000FACFE889F989808185FFF5CFCE01B8DF9F
:1046B000F2CF8B8DFE01E80FF11DE35AFF4FF08220
:1046C0000B8FEA89FB898081806207C0EE89FF89B0
:1046D0006083E889F98980818064808381E090E04B
:1046E000DF91CF911F910F91FF90EF900895CF939D
:1046F000DF93EC01888D8823C1F0EA89FB898081F2
:1047000085FD05C0A889B9898C9186FD0EC00FB6BC
:1047100007FCF5CF808185FFF2CFA889B9898C91FC
:1047200085FFEDCFCE017CDFE8CFDF91CF910895FB
:104730001F920F920FB60F9211240BB60F922F9368
:104740003F934F935F936F937F938F939F93AF9319
:10475000BF93EF93FF93809165080E94D534209119
:10476000690830916A082F5F3F4F30936A082093A1
:10477000690890916808953618F096E0909364085F
:10478000909164089430C9F128F4923069F0933024
:10479000D1F05EC0953009F451C0963009F058C090
:1047A00091E09093350951C0811152C02091690860
:1047B00030916A082436310508F442C01092350958
:1047C000109268081CC0813009F042C0E09168086E
:1047D00091E09E0F90936808F0E020916908309175
:1047E0006A08EE0FFF1FEC59F74F308727831092AE
:1047F0006A081092690894E029C0811117C0E091FD
:10480000680891E09E0F90936808F0E02091690895
:1048100030916A08EE0FFF1FEC59F74F308727835E
:1048200010926A081092690893E010C020916908FC
:1048300030916A082536310558F007C0811108C04B
:1048400010926A081092690803C095E0909364087A
:10485000909167089923B9F081110AC08091660888
:10486000882321F08091660861E009C02F9A0BC06F
:1048700080916608882331F08091660860E00E948C
:10488000FD3401C02F98FF91EF91BF91AF919F919F
:104890008F917F916F915F914F913F912F910F90E9
:1048A0000BBE0F900FBE0F901F9018951F920F9286
:1048B0000FB60F9211240BB60F922F933F934F9385
:1048C0005F936F937F938F939F93EF93FF934091A9
:1048D000100750911107609112077091130741154D
:1048E00051056105710599F08091F505E091F60596
:1048F000F091F70590818927808314161506160616
:104900001706D4F4415051096109710915C080910D
:1049100070008D7F809370009091F505E091F60511
:10492000F091F7058081282F30E0892F90E0809565
:10493000909582239323808340931007509311070F
:104940006093120770931307FF91EF919F918F91DE
:104950007F916F915F914F913F912F910F900BBE7F
:104960000F900FBE0F901F9018951F920F920FB6C9
:104970000F9211240BB60F922F933F938F939F9317
:10498000AF93BF93EF93FF93809114079091150716
:10499000A0911607B0911707892B8A2B8B2B51F109
:1049A0008091F805E091F905F091FA059081892749
:1049B00080838091140790911507A0911607B091FC
:1049C0001707181619061A061B064CF580911407CE
:1049D00090911507A0911607B09117070197A109AB
:1049E000B1098093140790931507A0931607B0930D
:1049F000170715C080916F008D7F80936F00909195
:104A0000F805E091F905F091FA058081282F30E052
:104A1000892F90E080959095822393238083FF9146
:104A2000EF91BF91AF919F918F913F912F910F90F7
:104A30000BBE0F900FBE0F901F9018951F920F92F4
:104A40000FB60F9211240BB60F922F933F938F93B3
:104A50009F93AF93BF93EF93FF938091180790912B
:104A60001907A0911A07B0911B07892B8A2B8B2B52
:104A700051F18091FB05E091FC05F091FD059081DD
:104A8000892780838091180790911907A0911A07B0
:104A9000B0911B07181619061A061B064CF58091D3
:104AA000180790911907A0911A07B0911B07019759
:104AB000A109B1098093180790931907A0931A07C9
:104AC000B0931B0715C080916E008D7F80936E00A0
:104AD0009091FB05E091FC05F091FD058081282F68
:104AE00030E0892F90E080959095822393238083F6
:104AF000FF91EF91BF91AF919F918F913F912F9136
:104B00000F900BBE0F900FBE0F901F9018953F9205
:104B10004F925F926F927F928F929F92AF92BF92CD
:104B2000CF92DF92EF92FF920F931F93CF93DF9379
:104B3000382E962E842EF90184E6E816F1042CF026
:104B400082EBE81A87E0F80A03C08EE1E80EF11C58
:104B5000E092B8060093B706E093B6063092B4062A
:104B60009092B3068092B206AE2DB0E020E833E317
:104B700041EE51E00E949D452B013C0122EB37E0C4
:104B8000FF2484E6C82ED12CC0E9D1E0C901825BA4
:104B900097408E159F05DCF4C90183709927892BF6
:104BA00099F4C901B6010E947F46892B31F4C901ED
:104BB000BE010E947F46892B39F480E8480E81E5CA
:104BC000581E81E0681E711C2F5F3F4FDFCF8EE4BF
:104BD000E81A88EFF80AC70164E670E00E947F4691
:104BE0006C01C70160E971E00E947F465C01C1E091
:104BF000D0E0112783E0E822FF24C017D1072CF56D
:104C0000C230D10589F4E114F10471F4C114D10466
:104C100019F4A114B10441F480E8480E8BE3581E46
:104C200086E2681E711C0FC0DE01A056BC4FAC911D
:104C3000B0E020E831E541E050E00E949D45460E9D
:104C4000571E681E791E2196D8CF292D30E0ACE37F
:104C5000B0E00E94A7456B017C01C80CD11CE11C8F
:104C6000F11C232D30E0A0E1BEE00E94A745C60E56
:104C7000D71EE81EF91EDF01BB27119720E831E59A
:104C800041E050E00E94D846DC01CB018C0D9D1D17
:104C9000AE1DBF1DBC01CD01640D751D861D971D88
:104CA000DF91CF911F910F91FF90EF90DF90CF9008
:104CB000BF90AF909F908F907F906F905F904F903C
:104CC0003F90E5CB0BDCD6DA8091B80690E08E54AD
:104CD000984F089503DCCEDA8091B70690E00895EE
:104CE000FDDBC8DA8091B60690E00895F7DBC2DA02
:104CF0008091B20690E00895F1DBBCDA8091B306B2
:104D000090E00895EBDBB6DA2091B406222331F06F
:104D1000822F90E02D3020F00C9708958CE090E0E9
:104D20000895DCDBA7DA8091B40690E00895CF9275
:104D3000DF92EF92FF92CF93DF93EC010E94C33595
:104D40006B017C018F850E94D53421E0892B09F409
:104D500020E0298B8889811103C081E08227898B1B
:104D600029898A89281721F0CD8ADE8AEF8AF88E70
:104D70008D899E89AF89B88DB701A601481B590B53
:104D80006A0B7B0BDB01CA01CB80DC80ED80FE80EF
:104D9000C416D506E606F70664F43A81231749F0EF
:104DA0002A83222331F04B895C894F5F5F4F5C8BF4
:104DB0004B8B3A8131110CC0CF80D884E984FA84BE
:104DC000C816D906EA06FB06ACF48B899C890EC08E
:104DD000CB84DC84ED84FE84C816D906EA06FB0683
:104DE0004CF48B899C89919581959109998388834D
:104DF0001C8A1B8A2A8BDF91CF91FF90EF90DF9066
:104E0000CF9008950F931F93CF93DF931F92CDB749
:104E1000DEB78C01862FF8016787408B91E0492728
:104E2000418B428B148A138A118210821282158A56
:104E3000168A178A108E44E150E060E070E04383E8
:104E40005483658376834AEF50E060E070E04783E7
:104E500050876187728748EE53E060E070E04387D7
:104E600054876587768760E029830E942C35F80196
:104E70008089298181110BC0222349F061E0878557
:104E80000F90DF91CF911F910F910C94FD340F90F3
:104E9000DF91CF911F910F9108951F920F920FB63E
:104EA0000F9211240BB60F922F933F934F935F9362
:104EB0006F937F938F939F93AF93BF93EF93FF93E2
:104EC0008091B900887F803609F49CC068F58832EB
:104ED00009F45BC090F4803109F454C038F488239D
:104EE00009F4F6C0883009F44DC0F5C0883109F4E2
:104EF0004CC0803209F45DC0EEC0803409F468C053
:104F000048F4803309F455C0883309F0E4C0809335
:104F1000080AD8C0803509F44FC0883509F45DC04F
:104F2000883409F0D8C0D6C0883909F4C7C0A8F4BD
:104F3000883709F467C038F4883609F463C08037CD
:104F400009F460C0C8C0883809F4B8C0803909F4D1
:104F50005FC0803809F0BFC05BC0803B09F486C0E9
:104F600038F4803A09F466C0883A09F47FC0B3C0C7
:104F7000803C09F4A7C0883C09F4A4C0883B09F42C
:104F80008AC0A9C08091E50910C09091070A80915C
:104F9000060A981770F5E091070A81E08E0F80935A
:104FA000070AF0E0EA51F64F80818093BB0085EC60
:104FB00086C08093080A8EC0E091070A81E08E0FB8
:104FC0008093070A8091BB00F0E0EA51F64F80839E
:104FD0009091070A8091060A6EC0E091070A81E06D
:104FE0008E0F8093070A8091BB00F0E0EA51F64FE4
:104FF00080838091090A81116DC081E08093E4096A
:1050000084EA61C083E080930A0A1092A106CFCFA0
:105010008091A106803208F051C0E091A10681E0A4
:105020008E0F8093A1068091BB00F0E0EF57F94FFF
:105030008083BDCF85EC8093BC0010920A0A8091DA
:10504000A106803230F4E091A106F0E0EF57F94F6D
:1050500010826091A10670E0E0917F06F0918006D9
:1050600081E896E019951092A10635C084E08093FE
:105070000A0A10927E0610927D06E0917B06F0915E
:105080007C06199580917D06811105C081E0809391
:105090007D0610925B06E0917E0681E08E0F809384
:1050A0007E06F0E0E55AF94F80818093BB00909135
:1050B0007E0680917D06981708F479CF85E8809365
:1050C000BC0009C085EC8093BC0010920A0A03C0A2
:1050D0001092080AC2D9FF91EF91BF91AF919F91B1
:1050E0008F917F916F915F914F913F912F910F9091
:1050F0000BBE0F900FBE0F901F90189540917D062C
:10510000262F30E0240F311D21323105DCF42091AF
:105110000A0A2430C9F4FC0180E090E0861758F4B4
:1051200030917D062191DC01A55AB94FA30FB11D25
:105130002C930196F3CF80917D06680F60937D06D6
:1051400080E0089581E0089582E0089540910E077F
:1051500050910F0720910C0730910D07421753070C
:1051600019F080E09CE302C08FEF9FEF4F5F5F4F2D
:105170004330510529F050930F0740930E070895CF
:1051800010920F0710920E072F5F3F4F233031050B
:1051900029F030930D0720930C07089510920D0706
:1051A00010920C070895CF92DF92EF92FF921F9317
:1051B000CF93DF939091BE06911103C08FEF9FEFC5
:1051C00072C09091BD069923C9F3182FC091BC06F7
:1051D000D0E08091040781110DC00E94C335609317
:1051E000000770930107809302079093030781E003
:1051F000809304070E94C335C0900007D090010738
:10520000E0900207F0900307DC01CB018C199D09A7
:10521000AE09BF098D329140A105B105D8F00E94B9
:10522000C335609300077093010780930207909342
:1052300003078091FF0691E098279093FF0699233A
:1052400029F01092FE061092FD0604C0D093FE06CF
:10525000C093FD062091FD063091FE062095309505
:105260004091BB0650E02423352326FF04C081E093
:105270008093FC0602C01092FC0627FF04C081E068
:105280008093FB0602C01092FB068091FF068823E4
:1052900009F494CF02C0D595C7951A95E2F7C0FFDF
:1052A0008DCF80E09CE3DF91CF911F91FF90EF9035
:1052B000DF90CF9008950C9487458F929F92AF9284
:1052C000BF92CF92DF92EF92FF920F931F93CF93F3
:1052D000DF9388E090E0EFDF982EA82EB12C89E0D4
:1052E00090E0E9DFC82E082F10E08AE090E0E3DFCD
:1052F000C82FD0E0D12CE12CF12CFE2CED2CDC2C95
:10530000CC24E928C82A812C912CB701A601C4011C
:105310009AD78FEF881A980A88E088169104A9F71F
:10532000FDD782E792E077D78DE692E053D7C501AB
:105330000E94AD3386E692E04DD7C8010E94AD339E
:1053400080E692E047D7CE01DF91CF911F910F9178
:10535000FF90EF90DF90CF90BF90AF909F908F9095
:105360000C94AD33CF93DF93C0E0D0E040E050E049
:10537000BA01CE0168D72196C830D105B9F7DF91BF
:10538000CF91CCC72F923F924F925F926F927F92B4
:105390008F929F92AF92BF92CF92DF92EF92FF9245
:1053A0000F931F93CF93DF93CDB7DEB728970FB638
:1053B000F894DEBF0FBECDBF0E9468356093F7063C
:1053C0007093F8068093F9069093FA060091F3061D
:1053D0001091F4062091F5063091F6066B017C01E0
:1053E000C01AD10AE20AF30A40EDC41647E0D40617
:1053F000E104F10408F463C16093F3067093F406CA
:105400008093F5069093F60686E999E00E94AC1722
:105410006B017C0160E08AE00E94FD348AE0882E06
:10542000912CA12CB12CC701B601A50194010E94B9
:10543000B446660F771FFB01E355FC4FC080D18057
:10544000DA82C98285E090E02B833C834D835E83C2
:10545000AADE98878F837ADE7C012B813C814D8187
:105460005E81CA01B901A50194010E94B446660F8C
:10547000771FFB01E355FC4F6080718084E090E072
:105480002B833C834D835E838EDE8C015FDE6C015B
:105490002B813C814D815E81CA01B901A501940136
:1054A0000E94B44619012A01660F771FFB01E355DC
:1054B000FC4F8080918083E090E075DE5C0146DEE9
:1054C0000C211D210621172120E030E0AAE0000F69
:1054D000111F221F331FAA95D1F78A219B21AC01EE
:1054E0004821592160E070E048015901842A952A39
:1054F000A62AB72ACF80D884EC20FD20C980DA8084
:10550000EC20FD20A70160E070E0B4E1440F551FDE
:10551000661F771FBA95D1F7842A952AA62AB72A3B
:105520008091FC06882319F06894B6F802C0E894CC
:10553000B6F88091FB06882319F06894B7F802C08A
:10554000E894B7F88B2D0E94AD3C8A2D0E94AD3CAB
:10555000892D0E94AD3C882D0E94AD3C8AE0C82E6A
:10556000D12CE12CF12CC201B101A70196010E94BE
:10557000B446660F771FFB01E355FC4F4080518016
:1055800082E090E02B833C834D835E830CDE5C01E4
:10559000DDDD8C012B813C814D815E81CA01B90129
:1055A000A70196010E94B446660F771FFB01E355E1
:1055B000FC4F6080718081E090E02B833C834D83C1
:1055C0005E83F1DD4C01C2DD150120223122242051
:1055D0003520412C512CF4E1220C331C441C551C69
:1055E000FA95D1F78821992186219721A0E0B0E092
:1055F0001AE0880F991FAA1FBB1F1A95D1F75201F5
:105600004101882A992AAA2ABB2A2B813C814D81F3
:105610005E81CA01B901A70196010E94B446660FD6
:10562000771FFB01E355FC4FE080F18080E090E0C4
:10563000BADD8C018BDD802391238E219F21A0E098
:10564000B0E0882A992AAA2ABB2A8091FC068823DE
:1056500019F06894B6F802C0E894B6F88091FB0699
:10566000882319F06894B7F802C0E894B7F88B2D36
:105670000E94AD3C8A2D0E94AD3C892D0E94AD3C1C
:10568000882D0E94AD3C61E08AE028960FB6F89420
:10569000DEBF0FBECDBFDF91CF911F910F91FF9065
:1056A000EF90DF90CF90BF90AF909F908F907F90C2
:1056B0006F905F904F903F902F900C94FD34289600
:1056C0000FB6F894DEBF0FBECDBFDF91CF911F9113
:1056D0000F91FF90EF90DF90CF90BF90AF909F9091
:1056E0008F907F906F905F904F903F902F90089594
:1056F000DF92EF92FF920F931F93CF93DF93C091AE
:10570000F106D091F206C830D10508F066C0082F26
:10571000FE018827E357FF4F8F4F0C94D04684E457
:1057200005C0A4D75AC08CEC01C08EEB76D755C00B
:1057300028E0E22EF12C01E010E0C2D68111102BFE
:10574000000F81E0E81AF108C1F71093EF0645C099
:1057500098E0E92EF12CDD24D39410E0B1D681112C
:105760001D29DD0C81E0E81AF108C1F71093F0065D
:10577000612F70E0762F66278091EF06682B6F3FD0
:105780008FEF780711F460E070E0072E000C880BB3
:10579000990B0E94744420E030E040E85DE30E94F1
:1057A000D344002361F026E636E646EE5FE30E942E
:1057B000D34420E030E040E052E40E94B74520E0CE
:1057C00030E040E251E40E94D3446093EB067093D2
:1057D000EC068093ED069093EE062196C830D10535
:1057E00029F0D093F206C093F10604C01092F2069D
:1057F0001092F1066091EB067091EC068091ED0637
:105800009091EE06DF91CF911F910F91FF90EF9055
:10581000DF9008958F929F92AF92BF92CF92DF92C6
:10582000EF92FF920F931F93CF93DF93CDB7DEB725
:105830002C970FB6F894DEBF0FBECDBF8C016A0166
:105840007B018091E306811113C00E94C335DC0106
:10585000CB01845B9B4FAF4FBF4F8093DF0690938C
:10586000E006A093E106B093E20681E08093E306B0
:105870008091D706811109C066E674E081ED96E05B
:105880000E94A71881E08093D7060E94C3358090BC
:10589000DF069090E006A090E106B090E206DC0101
:1058A000CB0188199909AA09BB09893E9340A10532
:1058B000B10508F477C10E94C3356093DF06709389
:1058C000E0068093E1069093E20620E030E0A90133
:1058D000C701B6010E944C4620E030E040E05FE3A3
:1058E00087FD05C0C701B6010E94B74504C0C701C6
:1058F000B6010E94B6450E941B46809151029091CC
:1059000052029B0129513C4F49012458334059010F
:105910002A55310969017B01892B09F095C077FF70
:1059200003C0F194E194F1084AE0B701CE01079673
:105930000E9474186BE674E0CE0101960E94A718CD
:10594000BE01695F7F4FCE0101960E94FB176BE697
:1059500074E00E94E417BC0181ED96E00E942118DA
:10596000CE0101960E946F18CE0107960E946F1813
:105970003FEC831637E0930620F54AE0B701CE01ED
:1059800007960E9474186AE674E0CE0101960E94A0
:10599000A718BE01695F7F4FCE0101960E94FB17D9
:1059A0006BE674E00E94E417BC0181ED96E00E9472
:1059B0002118CE0101960E946F18CE0107960E9411
:1059C0006F1887ECA816B10420F54AE0B701CE01A4
:1059D00007960E94741869E674E0CE0101960E9451
:1059E000A718BE01695F7F4FCE0101960E94FB1789
:1059F0006BE674E00E94E417BC0181ED96E00E9422
:105A00002118CE0101960E946F18CE0107960E94C0
:105A10006F1823E1C216D10408F0C4C04AE0B701F0
:105A2000CE0107960E94741868E674E0CE010196D4
:105A30000E94A718BE01695F7F4FCE0101960E94A8
:105A4000FB176BE674E09FC077FF03C0F194E1940D
:105A5000F1084AE0B701CE0107960E9474186BE680
:105A600074E0CE0101960E94A718BE01695F7F4FC6
:105A7000CE0101960E94FB176BE674E00E94E417CA
:105A8000BC0181ED96E00E942118CE0101960E9492
:105A90006F18CE0107960E946F183FEC831637E00F
:105AA000930640F5C7016AE070E00E947F464AE035
:105AB000CE0107960E9474186AE674E0CE01019642
:105AC0000E94A718BE01695F7F4FCE0101960E9418
:105AD000FB176AE674E00E94E417BC0181ED96E0D2
