:10000000F4C1000023C2000021C200001FC2000092
:100010001DC200001BC2000019C2000017C2000070
:1000200015C2000013C2000011C200000FC2000080
:100030000DC200000C94CF2A09C2000007C20000C4
:1000400005C200000C942E2B01C20000FFC100006D
:10005000FDC100000C94972BF9C100000C94C72936
:10006000F5C100000C9416370C94ED36EFC100007A
:10007000EDC10000EBC10000E9C10000E7C10000D4
:10008000E5C10000E3C10000E1C10000DFC10000E4
:100090000C94C4360C949B36D9C100000C94E12D0D
:1000A000D5C10000D3C100000C94F621CFC10000DF
:1000B000CDC10000CBC10000C9C100000C94112AC1
:1000C000C5C10000C3C10000C1C10000BFC1000024
:1000D000BDC10000BBC10000B9C10000B7C1000034
:1000E000B5C100004F0751074507470749074B07B0
:1000F0004D076E0EA00E591150128212CE121B180F
:100100001B181B1839136113611361131B181B187B
:100110001B181B181B188212CE129D23A0239B2391
:100120009D23A023A223A623B723C034C334B23413
:10013000B634BC34FA34C734CB34D134D534D934A2
:10014000DF34E334E734FA34ED34F134F53408398C
:1001500018391F3925392C39323939393D3948395F
:100160005A44410056544700524D430047535600ED
:100170004753540047534100474C4C004747410008
:100180007C017801740170016C01680164016001F7
:100190005570646174696E672074696D652E2E2ECA
:1001A00000496E636F727265637420536F6E6720CF
:1001B000466F726D617421005247423D6F66660062
:1001C0005247423D6F6E004D6F6E74683A00446155
:1001D000793A00446F776E206C6F6E672E2E2E2E4C
:1001E00000446F776E2073686F7274005570206CD6
:1001F0006F6E672E2E2E2E0055702073686F7274EE
:10020000004D6F6465206C6F6E672E2E2E2E004D94
:100210006F64652073686F727400426C75653D0091
:10022000475245454E3D005245443D00526561648C
:1002300065642066726F6D20454550524F4D0057E2
:10024000616B652075702C204E656F2100020100E6
:1002500000002100240027002A002D003000330078
:1002600001010000040107010A014661756C7479FF
:100270002044533332333121004453333233315F1E
:10028000543D0053746F7020546573740054656D51
:10029000702E2073656E736F72206E6F7420666FA0
:1002A000756E642E0053746172742054657374000B
:1002B0004669726D776172652076657273696F6EDB
:1002C0003A20005761726E696E67212052544320B4
:1002D000444F4E275420524553504F4E4421000066
:1002E000002200250028002B002E003100340002DF
:1002F000010000050108010B010000200023002679
:100300000029002C002F003200000100000301062C
:10031000010901050505050705080808080202028C
:10032000020A0A0808040404040101010101010190
:10033000010303030303030303040707070C0C0C67
:100340000C0C0C0C0C02020202060606060606063F
:10035000060B0B0B0B0B0B0B0B01021020200808DC
:100360001020401020408002010201080402010117
:100370000204081020408080402010080402018000
:100380000402018040201008040201080402010157
:100390000204081020408001020408102040800060
:1003A000000A0B02090C0D0E0807030401000000EF
:1003B000000000000000000000000000000000003D
:1003C00000000000000000000000001211100000FA
:1003D000000000000000000000000000000000001D
:1003E000000000000000B944143F11241FBECFEFED
:1003F000D1E2DEBFCDBF00E00CBF29E0A4E0B5E054
:1004000001C01D92A13EB207E1F715E0A0E0B2E005
:10041000E2E2F7E900E00BBF02C007900D92A430C2
:10042000B107D9F711E0C4EFD1E000E006C0219791
:100430000109802FFE010E944749C33FD10780E098
:100440000807A9F70E942A3F0C94804BD9CD2F9220
:100450003F924F925F926F927F928F929F92AF9254
:10046000BF92CF92DF92EF92FF920F931F93CF93A1
:10047000DF93CDB7DEB7C057D1400FB6F894DEBFDB
:100480000FBECDBF0E940D2920E137E240E050E0D1
:100490000E942348672B682B692B29F48091F10572
:1004A00081110C943515DD24D39401E053E0C52E61
:1004B000F2E0FF2EAAE0EA2EE0917806F0917906AC
:1004C0000084F185E02D88E796E01995892B09F4E1
:1004D000D0C1E0917806F09179060284F385E02D91
:1004E00088E796E01995182F80913F09909140096F
:1004F000A0914109B09142090196A11DB11D8093BF
:100500003F0990934009A0934109B09342091432E6
:1005100009F58091590984FF0FC00E94B0286093AB
:100520004709709348098093490990934A0980913B
:1005300059098F7E809359091092550910923609F6
:1005400000935A0910925709809159098D7F809321
:100550005909B2CF20915A09223071F51A3219F493
:10056000C0925A0920C080EE810F8F3508F012C169
:1005700080915509812780935509809136098630ED
:1005800031F4812F0E94EE38882309F403C11C3214
:1005900069F4809159098D7F80935909809156099A
:1005A0008F5F809356091092570986CF8091570923
:1005B0008F5F8093570980CF213009F071C08091FF
:1005C00055098127809355091C32D9F48091360949
:1005D000882311F40C94151884E599E0C059DE4F76
:1005E0002883C057D1400E94983EC059DE4F2881D1
:1005F000C057D1402093560910925709F0925A09DA
:100600005BCFA090570921E02A1510F00C945315E8
:100610004EEF942E9A0CB0903609BB2021F0BA947C
:1006200087E08B1508F4B12CEB2DF0E0EE0FFF1FE7
:10063000E058FE4F85919491692D70E0FC01E60F22
:10064000F71FE4911E1305C0B394B09236090C94C1
:1006500053151E1714F40C941518B394A8E0BA1689
:1006600011F40C941518EB2DF0E0EE0FFF1FE0587D
:10067000FE4F459154919C01DA01A81BB90BE22F62
:10068000E81BE91510F0CA01D9CFF9018490FD01EA
:10069000E20FF31FE4912F5F3F4F8E1681F3F3CFEC
:1006A000233009F07DC010628FE9810F863010F48D
:1006B000175501C010534091570920915509812FBA
:1006C00090E041110DC00093570930E0B4E035953A
:1006D0002795BA95E1F72817390709F4EDCE47C0F9
:1006E0002F7030E02817390709F041C0809159096F
:1006F00081FF0DC08D7F809359094F5F409357094B
:1007000080913609863019F48CE20E94EE3880918F
:10071000370990913809A0913909B0913A090196A9
:10072000A11DB11D8093370990933809A093390911
:10073000B0933A0991E080913609823009F090E057
:100740008091590990FB84F98093590910925A09B4
:1007500020916509222349F18860809359091092FC
:100760006609809165098150809365091EC080915A
:100770003B0990913C09A0913D09B0913E09019639
:10078000A11DB11D80933B0990933C09A0933D09A5
:10079000B0933E0984E599E00E94983E0C941518A8
:1007A00021118ACE1092360987CE8091540980FF9C
:1007B0000CC0309164092091530930FF04C030917E
:1007C0006309321710F42093630981FF0CC0209154
:1007D0004F0920935F0920915009209360092091CF
:1007E00051092093610982FF10C080914D098093C7
:1007F0005D0980914C0980935C0980914B0980933D
:100800005B0980915209809362092091640980916B
:100810005409822B80936409992309F44DCE809169
:100820006709E89EC0011124FC01EC59F64F2081B4
:1008300022FF16C0FC01EA5CF64F84A5811110C0AE
:100840008091470990914809A0914909B0914A09BE
:100850008093430990934409A0934509B0934609B6
:100860001092670980916509811126CED0926509A1
:100870001FCE80916509882351F1CE0149960E94CF
:100880009B3E809165098823C1F081508093650962
:10089000809166092AE0289FC0011124FC01E55AD5
:1008A000F64FDE01599601900D922A95E1F7855A8F
:1008B000964F0E949B3E109266098AE0FE0179964F
:1008C000ACE2B9E001900D928A95E1F705C0809104
:1008D00035098B7F809335090E940D2900915F05B2
:1008E000109160052091610530916205DC01CB011A
:1008F000801B910BA20BB30B00912D0210912E02C5
:1009000020912F0230913002081719072A073B0760
:1009100070F480E497E7ABE1B0E080932D02909310
:100920002E02A0932F02B093300210922C028091DD
:100930002C028111A9C080912E09883108F0A4C031
:1009400080912D098C3308F09FC080912C098C3345
:1009500008F09AC080913009803208F095C08091EB
:1009600031098D3008F090C08091320990E04497B1
:100970000B9708F089C0809135098B7F80933509EA
:1009800080E991E00E94453180912E090E940F3E3E
:1009900080912D090E940F3E80912C090E940F3EEC
:1009A000E0903209F12C0091310910E020913009DA
:1009B00030E040912C0950E060912D0970E0809169
:1009C0002E0990E00E941C2C0E94B028009143093F
:1009D000109144092091450930914609DC01CB0171
:1009E000801B910BA20BB30B8032914AA740B1053B
:1009F00030F061E070E080E090E00E94002CA09177
:100A00006202B091630220E13EE00E944F490E94E1
:100A1000002C0E94F72C7C010E94FF2C082F0E94C2
:100A2000052DC059DE4F8883C057D1400E940B2D41
:100A3000C159DE4F8883CF56D1400E94112D182F07
:100A40000E94262D382FC70168EE73E00E941849D6
:100A5000E82EC059DE4F2881C057D140C159DE4F22
:100A60004881CF56D140612F832F0E94943D81E071
:100A700080932C020E940D2960935F05709360059E
:100A8000809361059093620510925305109254056E
:100A9000109255051092560585EC97E090935A05F3
:100AA000809359058091C207282E312C30925C0525
:100AB00020925B0580918F0890E090935E05809373
:100AC0005D058091BE07853009F002C18091C207A3
:100AD0008A3108F46BC08091C5079091C607843FA6
:100AE000914090F410925805109257058FEF9FEFA8
:100AF000DC018093530590935405A0935505B09362
:100B000056058BE090E03EC08091C7079091C807E2
:100B100085974B9708F04AC0EBECF7E082E090E055
:100B200040E050E0BA018C010F5F1F4F2091C207D7
:100B300030E00217130774F49F0122503109D901E4
:100B40002D913C91275031092730310510F40C9438
:100B50005815C801019795958795909358058093EE
:100B600057050C972CF410925805109257051EC08B
:100B70004093530550935405609355057093560563
:100B800084E090E09093500580934F056091530569
:100B900070915405809155059091560540E10E9451
:100BA000D23784E294E00E9413318DC0B6E02B1658
:100BB00031040CF488C00BEC17E0E3E0F0E0C3591B
:100BC000DE4FF983E883CD56D14065ECC62E6DE942
:100BD000D62E6CE1E62E61E8F62EC359DE4F8881F1
:100BE0009981CD56D140821593050CF05BC0D80198
:100BF0006D917C91F8013497A080B18080E090E005
:100C00000E94E9462B013C01B50180E090E00E9482
:100C1000E9464B015C012DEC3CEC4CE45FE30E94A7
:100C20004A479B01AC01C301B2010E94E54687FD22
:100C300017C02DEC3CEC4CE45FE3C301B2010E9411
:100C40004A479B01AC01C501B4010E94E546E82F6B
:100C5000880FFF0BEE27FF0FEE1FFF27319602C014
:100C6000E0E0F0E0A701960163E971E080E091E047
:100C70000E9414486F01FF0FEE08FF08C626D72612
:100C8000E826F926C359DE4FE881F981CD56D140D7
:100C90003196C359DE4FF983E883CD56D1400E5FBC
:100CA0001F4F9BCFC0925305D0925405E09255053B
:100CB000F092560580E290E0909358058093570596
:100CC0008FEF9FEF5FCF82E08093BE071092C20745
:100CD00060915305709154058EE199E00E94363E73
:100CE00090934E0580934D05019721F48FE092E09B
:100CF0000E94453180914D0590914E05019621F459
:100D000081E092E00E944531609153057091540555
:100D100081E199E00E94363E90934C0580934B050B
:100D2000019721F488EF91E00E94453180914B05B5
:100D300090914C05019621F48CEE91E00E94453192
:100D4000609153057091540584E099E00E94363E0D
:100D500090934A0580934905019721F481EE91E033
:100D60000E9445318091490590914A05019621F4F0
:100D700083ED91E00E9445310091E5051091E60573
:100D8000D8018C91882309F435C10E940D29C090A7
:100D90000A05D0900B05E0900C05F0900D05DC01E4
:100DA000CB018C199D09AE09BF09C0900605D090F2
:100DB0000705E0900805F0900905C816D906EA066F
:100DC000FB0608F017C10E940D296B017C0160939E
:100DD0000A0570930B0580930C0590930D051092F6
:100DE000860510928505A8016AE08A01FA01B080A3
:100DF0004F5F5F4F80ED8B0D20918505309186050B
:100E00008A3080F4629FF001639FF00D11248B2DD6
:100E1000BB0C990BC0978E0F9F1F909386058093F4
:100E20008505E3CF609181057091820580918305EE
:100E3000909184052115310529F0032E000C440BF7
:100E4000550B05C02091380230E040E050E00E9490
:100E50002B492093060530930705409308055093CE
:100E600009058B2DBB0C990BAA0BBB0BFC01E156A2
:100E7000F109E730F10530F48827EE58FF4F8F4F26
:100E80000C944749109205050FC081E00BC083E028
:100E900009C085E007C086E005C088E003C08AE09D
:100EA00001C08CE080930505D80111968C918332A6
:100EB00019F00F5F1F4F07C0809105058F5F80936A
:100EC00005050E5F1F4FF80180818E3201F580907D
:100ED000060590900705A0900805B0900905C5018A
:100EE000B40122E030E040E050E00E942B49D501FF
:100EF000C401820F931FA41FB51F80930605909312
:100F00000705A0930805B09309050F5F1F4FD8018F
:100F10008C9180538A3028F4809304050F5F1F4F13
:100F200004C0809137028093040580910405F80184
:100F300090819C3211F40F5F1F4F209105052223F1
:100F400009F458C08090060590900705A090080508
:100F5000B090090590E004973CE0389FF001399F7C
:100F6000F00D1124E20FF11DEE0FFF1FEE57FD4FA4
:100F7000B501A401808191810E943A2F0E940D2920
:100F8000DC01CB018C199D09AE09BF0988169906B1
:100F9000AA06BB0678F50E940D2960930A05709396
:100FA0000B0580930C0590930D0580917706813099
:100FB00051F0823071F0811111C080916E008D7FEF
:100FC00080936E000BC080916F008D7F80936F00C7
:100FD00005C0809170008D7F8093700060E08091EB
:100FE00076060E94673781EA91E00E94453190E0E1
:100FF00080E002C0902F812F9093E5058093E60555
:101000000E940D2900914505109146052091470544
:1010100030914805DC01CB01801B910BA20BB30B77
:101020008997A105B10508F4A9C0809177068130A0
:1010300039F0823041F081110CC080916E0005C002
:1010400080916F0002C0809170008695817009F0D8
:101050008BC080913B02811103C00E94E42184C0B7
:101060008091F405811180C0009110051091110547
:10107000C801880F991F800F911FFC01EE0FFF1F01
:10108000EC51FD4F208131816AE0629FA001639F96
:10109000500D11242091020230910302420F531F80
:1010A0005093030240930202FC01EE0FFF1FEA512E
:1010B000FD4F20813181629FF001639FF00D11246B
:1010C00020913B0530913C052E0F3F1F30933C058E
:1010D00020933B05880F991FFC01E851FD4F80814B
:1010E0009181689F6001699FD00C1124809139051E
:1010F00090913A05C80ED91ED0923A05C092390592
:10110000D12CE12CF12CE42AD22AA12CB12CB7014C
:10111000A601C5010E942B32FFEFAF1ABF0A28E0DB
:10112000A216B104A1F70E94963280910E0590910B
:101130000F05019690930F0580930E05499751F482
:101140000F5F1F4F109311050093100510920F05AC
:1011500010920E058091100590911105069724F0CC
:1011600010921105109210050E940D2960934505FB
:1011700070934605809347059093480580916505D7
:1011800090916605892B21F080916405811106C03C
:1011900080918705811102C00E94351887ED98E083
:1011A0000E942C2D8EEB98E00E942C2D85EA98E071
:1011B0000E942C2D80918705811103C010928F050C
:1011C0002DC00E940D29009188051091890520915C
:1011D0008A0530918B05DC01CB01801B910BA20BA2
:1011E000B30B81369A4EA105B105C0F01092870568
:1011F000E0916505F0916605EE0FFF1FE85AFC4F80
:10120000808191819093660580936505880F991F71
:10121000FC01EC5FFD4F808180938F058091D708A2
:101220009091D808181619063CF080914D059091C0
:101230004E05019709F09BC081E0809364051092F0
:10124000E6051092E50544E650E060E070E088EEC7
:1012500093E00E943A2F0E940D29609388057093B5
:10126000890580938A0590938B05809165059091FF
:10127000660501968630910529F090936605809366
:10128000650504C0109266051092650520916505FC
:10129000309166058901000F111FF801EC5FFD4FC9
:1012A000808180938F05D9011197FD01EE0FFF1FFB
:1012B000E05DFC4F608171816115710509F448C0E2
:1012C000AB0141505109FA01EE0FFF1FE85FFC4FDF
:1012D0000190F081E02DEA17FB07D1F5623071052E
:1012E00011F00C94761588E1EAE6F2E0DE01119641
:1012F00001900D928A95E1F78091540290915502E8
:1013000083709927892B21F48DE190E09C838B8356
:101310002091500230915102E0915202F09153021B
:101320003197EE0FFF1F81E090E08C0F9D1FE80FBB
:10133000F91F808191818217930714F00C94761520
:101340008AE090E090936605809365050C941B18E5
:101350002331310561F0295031092230310538F04F
:101360000E947D3AF801E45CFD4F91838083809177
:10137000D7089091D80897FD07C080914D059091AE
:101380004E05019609F07AC344E650E060E070E053
:1013900088EE93E00E943A2F80918705811145C124
:1013A0000E940D29609388057093890580938A05B2
:1013B00090938B058091650590916605892B09F0C6
:1013C00034C10E940B2D181619061CF40E940B2D17
:1013D00005C00E940B2D91958195910911E00A9706
:1013E0004CF010E00E940B2D1816190664F50E94AF
:1013F0000B2D2EC00E940B2D181619061CF40E94EE
:101400000B2D05C00E940B2D9195819591094AE005
:10141000BC01CE0189599E4F0E9410366CE274E0E7
:10142000CE018F599E4F0E944336BE0169597E4FAF
:10143000CE018F599E4F0E949735BC01CE018F96E9
:101440000E943B360BC00E940B2D9195819591090E
:101450004AE0BC01CE018F960E9410360E94112DE9
:10146000181619061CF40E94112D05C00E94112D9A
:1014700091958195910901E00A974CF000E00E9456
:10148000112D1816190664F50E94112D2EC00E9408
:10149000112D181619061CF40E94112D05C00E946A
:1014A000112D9195819591094AE0BC01CE01855A93
:1014B0009E4F0E9410366CE274E0CE018B5A9E4F14
:1014C0000E944336BE01655A7E4FCE018B5A9E4F15
:1014D0000E949735BC01CE0189960E943B360BC015
:1014E0000E94112D9195819591094AE0BC01CE0190
:1014F00089960E9410360E94262D181619061CF493
:101500000E94262D05C00E94262D91958195910956
:10151000FF24F3940A974CF0F12C0E94262D181604
:10152000190664F50E94262D2EC00E94262D18163D
:1015300019061CF40E94262D05C00E94262D9195A7
:10154000819591094AE0BC01CE01815B9E4F0E94CA
:1015500010366CE274E0CE01875B9E4F0E944336EA
:10156000BE01615B7E4FCE01875B9E4F0E94973527
:10157000BC01CE0101960E943B360BC00E94262D75
:101580009195819591094AE0BC01CE0101960E9496
:101590001036BE016F5F7F4FCE0183960E943B36AF
:1015A000BE01675D7F4FCE0183960E949735BE01D5
:1015B000615D7F4F0E949735BC0180EF98E00E94EB
:1015C000BD35CE0183960E940B36CE0101960E9456
:1015D0000B36FF2051F0CE01875B9E4F0E940B36E9
:1015E000CE01815B9E4F0E940B36CE0189960E94F0
:1015F0000B36002351F0CE018B5A9E4F0E940B36C2
:10160000CE01855A9E4F0E940B36CE018F960E94C6
:101610000B36112351F0CE018F599E4F0E940B368D
:10162000CE0189599E4F0E940B368091650590919D
:101630006605019709F0E9C10E94052D90935102BA
:10164000809350020E94FF2C909353028093520289
:101650000E94F72C68EE73E00E941849909355029F
:101660008093540240914E0250914F029C01275F9B
:101670003F4FBC01452B09F0E4C02331310508F58B
:1016800097FF03C07195619571094AE0CE018D5BAA
:101690009E4F0E9410366CE274E0CE01835C9E4F38
:1016A0000E944336BE016D5B7E4FCE01835C9E4F30
:1016B0000E949735BC01CE018F960E943B3611E007
:1016C0000BC097FF03C07195619571094AE0CE0187
:1016D0008F960E94103610E0609152027091530272
:1016E000CB010996439708F577FF03C07195619583
:1016F00071094AE0CE01895C9E4F0E9410366CE26F
:1017000074E0CE018F5C9E4F0E944336BE01695C3F
:101710007E4FCE018F5C9E4F0E949735BC01CE015B
:1017200089960E943B3601E00BC077FF03C071959C
:10173000619571094AE0CE0189960E94103600E059
:101740006091500270915102CB010996439710F5B8
:1017500077FF03C07195619571094AE0CE01855DFF
:101760009E4F0E9410366CE274E0CE018B5D9E4F5E
:101770000E944336BE01655D7E4FCE018B5D9E4F5C
:101780000E949735BC01CE0101960E943B36FF2492
:10179000F3940BC077FF03C07195619571094AE01E
:1017A000CE0101960E941036F12CBE016F5F7F4F73
:1017B000CE0183960E943B36BE01675D7F4FCE010E
:1017C00083960E949735BE01615D7F4F0E949735D9
:1017D000BC0180EF98E00E94BD35CE0183960E9447
:1017E0000B36CE0101960E940B36FF2051F0CE0140
:1017F0008B5D9E4F0E940B36CE01855D9E4F0E94F1
:101800000B36CE0189960E940B36002351F0CE0193
:101810008F5C9E4F0E940B36CE01895C9E4F0E94CA
:101820000B36CE018F960E940B36112309F4EDC0C2
:10183000CE01835C9E4F0E940B36CE018D5B9E4F86
:10184000E2C02331310508F597FF03C0719561951A
:1018500071094AE0CE01815E9E4F0E9410366CE213
:1018600074E0CE01875E9E4F0E944336BE01615EEA
:101870007E4FCE01875E9E4F0E949735BC01CE0100
:101880008F960E943B3611E00BC097FF03C0719505
:10189000619571094AE0CE018F960E94103610E0E2
:1018A0006091500270915102CB010996439708F55F
:1018B00077FF03C07195619571094AE0CE018D5E95
:1018C0009E4F0E9410366CE274E0CE01835F9E4F03
:1018D0000E944336BE016D5E7E4FCE01835F9E4FF8
:1018E0000E949735BC01CE0189960E943B3601E0EB
:1018F0000BC077FF03C07195619571094AE0CE0175
:1019000089960E94103600E0609152027091530255
:10191000CB010996439710F577FF03C07195619548
:1019200071094AE0CE01895F9E4F0E9410366CE239
:1019300074E0CE018F5F9E4F0E944336BE01695F07
:101940007E4FCE018F5F9E4F0E949735BC01CE0126
:1019500001960E943B36FF24F3940BC077FF03C02F
:101960007195619571094AE0CE0101960E94103689
:10197000F12CBE016F5F7F4FCE0183960E943B36F4
:10198000BE01675D7F4FCE0183960E949735BE01F1
:10199000615D7F4F0E949735BC0180EF98E00E9407
:1019A000BD35CE0183960E940B36CE0101960E9472
:1019B0000B36FF2051F0CE018F5F9E4F0E940B36F9
:1019C000CE01895F9E4F0E940B36CE0189960E9400
:1019D0000B36002351F0CE01835F9E4F0E940B36E1
:1019E000CE018D5E9E4F0E940B36CE018F960E94D7
:1019F0000B36112351F0CE01875E9E4F0E940B36AD
:101A0000CE01815E9E4F0E940B36E0916505F091FC
:101A10006605EE0FFF1FE85AFC4F2081318130939D
:101A20006605209365052D30310549F481E090E08D
:101A300090935D0280935C0280E880938E05909184
:101A4000870581E08927809387058901000F111F91
:101A5000F801EC5FFD4F808180938F05A901425111
:101A600051094230510550F02930310539F00E94BA
:101A70007D3AF801E45CFD4F918380838091BE083C
:101A80009091BF08009739F480914B0590914C05D7
:101A9000019721F507C090934405809343051816DC
:101AA000190694F781E0809364051092E605109280
:101AB000E50544E650E060E070E088EE93E00E94C7
:101AC0003A2F0E94672780918705811107C01092E5
:101AD000F40560E087E090E00E94781F8091430564
:101AE00090914405019661F58091C008882341F1E9
:101AF0001092910580918705882329F10E940D2974
:101B000000913F051091400520914105309142051B
:101B1000DC01CB01801B910BA20BB30B8739910524
:101B2000A105B10580F00E940D2960933F057093D7
:101B3000400580934105909342050E94672703C0AA
:101B400081E0809391058091A5089091A608009767
:101B500039F48091490590914A050197B1F507C084
:101B600090933E0580933D051816190694F711E0F1
:101B7000109364051092E6051092E50544E650E0E6
:101B800060E070E088EE93E00E943A2F0E940927FF
:101B900080918705811119C01093F40561E087E0F9
:101BA00090E00E94781F6091020288E090E00E941D
:101BB000781F60913B0589E090E00E94781F60915A
:101BC00039058AE090E00E94781F80913D05909150
:101BD0003E05019661F58091A708882341F1109296
:101BE000900580918705882329F10E940D29009195
:101BF0003505109136052091370530913805DC0107
:101C0000CB01801B910BA20BB30B87399105A1056A
:101C1000B10580F00E940D2960933505709336055B
:101C200080933705909338050E94092703C081E00F
:101C30008093900580918705811141C08091BE08F5
:101C40009091BF0897FD06C080914B0590914C057F
:101C50000196B1F444E650E060E070E088EE93E075
:101C60000E943A2F81E080933B0261E080E090E0A7
:101C70000E94781F80EC91E00E9445310E947C1FF9
:101C80008091A5089091A60897FD06C0809149050E
:101C900090914A05019699F444E650E060E070E0C6
:101CA00088EE93E00E943A2F10923B0260E080E0C1
:101CB00090E00E94781F88EB91E00E944531E0910E
:101CC0006505F0916605E431F10510F00C941B18E0
:101CD0008827E758FF4F8F4F0C9447498091630541
:101CE000811125C00E940B2D20910002309101022C
:101CF0008217930759F00E940B2D90930102809355
:101D00000002CE0101960E945B3B06C060EF78E0C6
:101D1000CE0101960E943B36BE016F5F7F4F80EF80
:101D200098E00E94D235CE0101960E940B360E94A7
:101D30000B2D80FD02C080ECB3C210928E05B2C2A2
:101D4000809163058111ABC280912D05811113C073
:101D50000E940D29DC01CB0187519C4FAF4FBF4F33
:101D60008093290590932A05A0932B05B0932C0509
:101D700081E080932D0580912105811154C10E943D
:101D8000F72C08EE13E0B8010E941849181619063E
:101D900034F40E94F72CB8010E94184908C00E9430
:101DA000F72CB8010E941849919581959109FF245B
:101DB000F3940A978CF0F12C0E94F72C08EE13E0B4
:101DC000B8010E94184918161906BCF50E94F72C94
:101DD000B8010E94184939C00E94F72C08EE13E0A0
:101DE000B8010E9418491816190634F40E94F72CFD
:101DF000B8010E94184908C00E94F72CB8010E943F
:101E000018499195819591094AE0BC01CE018396CC
:101E10000E9410366CE274E0CE0189960E9443362F
:101E2000BE016D5D7F4FCE0189960E949735BC0142
:101E3000CE0101960E943B360EC00E94F72CB801DD
:101E40000E9418499195819591094AE0BC01CE0103
:101E500001960E9410360E94FF2C181619061CF4D9
:101E60000E94FF2C05C00E94FF2C9195819591093D
:101E700011E00A974CF010E00E94FF2C181619068A
:101E80004CF50E94FF2C2BC00E94FF2C181619063F
:101E90001CF40E94FF2C05C00E94FF2C9195819597
:101EA00091094AE0BC01CE01C5960E9410366CE251
:101EB00074E0CE01CB960E944336BE016B5C7F4F2F
:101EC000CE01CB960E949735BC01CE018F960E9421
:101ED0003B360BC00E94FF2C9195819591094AE0F9
:101EE000BC01CE018F960E9410360E94052D181657
:101EF00019061CF40E94052D05C00E94052D919520
:101F00008195910901E00A974CF000E00E94052DAF
:101F1000181619066CF50E94052D2FC00E94052D7C
:101F2000181619061CF40E94052D05C00E94052DE7
:101F30009195819591094AE0BC01CE01835B9F4F49
:101F40000E9410366CE274E0CE018D5A9F4F0E94C1
:101F50004336BE01635B7F4FCE018D5A9F4F0E9477
:101F60009735BC01CE01895B9F4F0E943B360CC068
:101F70000E94052D9195819591094AE0BC01CE0101
:101F8000895B9F4F0E941036BE01695B7F4FCE0177
:101F90008F5B9F4F0E943B36BE01615D7F4FCE013C
:101FA0008F5B9F4F0E949735BE016F5F7F4F0E94EE
:101FB0009735BC018BE195E00E943B3681E0809330
:101FC0002105CE018F5B9F4F0E940B36CE01895BAE
:101FD0009F4F0E940B36002351F0CE018D5A9F4F28
:101FE0000E940B36CE01835B9F4F0E940B36CE01C1
:101FF0008F960E940B36112341F0CE01CB960E94A2
:102000000B36CE01C5960E940B36CE0101960E947A
:102010000B36FF2041F0CE0189960E940B36CE018F
:1020200083960E940B3680911305811107C0809121
:102030004E028093120581E0809313050E940D29C2
:102040000091290510912A0520912B0530912C052E
:10205000DC01CB01801B910BA20BB30B893E93409B
:10206000A105B10558F48091120590E020914E022F
:1020700030914F028217930709F400C10E940D2985
:102080006093290570932A0580932B0590932C0566
:1020900080914E0290914F02892B09F06BC60E94ED
:1020A000F72C08EE13E0B8010E941849181619061B
:1020B0000CF0EAC50E94F72CB8010E941849FF24D1
:1020C000F3940A970CF0E9C50E94F72C08EE13E090
:1020D000B8010E941849181619060CF0EFC50E94A5
:1020E000F72CB8010E9418494AE0BC01CE018F9636
:1020F0000E9410366CE274E0CE018F5B9F4F0E940D
:102100004336BE01615D7F4FCE018F5B9F4F0E94C2
:102110009735BC01CE0101960E943B360E94FF2CF0
:10212000181619060CF0E2C50E94FF2C11E00A9760
:102130000CF0E2C50E94FF2C181619060CF0E5C53C
:102140000E94FF2C4AE0BC01CE01875A9F4F0E949B
:1021500010366CE274E0CE01815A9F4F0E944336E4
:10216000BE01675A7F4FCE01815A9F4F0E9497351B
:10217000BC01CE01895B9F4F0E943B360E94052D1A
:10218000181619060CF0D4C50E94052D01E00A9717
:102190000CF0D4C50E94052D181619060CF0D7C5F1
:1021A0000E94052D4AE0BC01CE018F589F4F0E942E
:1021B00010366CE274E0CE0189589F4F0E9443367E
:1021C000BE016F587F4FCE0189589F4F0E949735AF
:1021D000BC01CE0185599F4F0E943B36BE01655917
:1021E0007F4FCE018B599F4F0E943B36BE01695BEA
:1021F0007F4FCE018B599F4F0E949735BE016F5F75
:102200007F4F0E949735BC018BE195E00E94BD3560
:10221000CE018B599F4F0E940B36CE0185599F4F9F
:102220000E940B36002351F0CE0189589F4F0E9427
:102230000B36CE018F589F4F0E940B36CE01895B23
:102240009F4F0E940B36112351F0CE01815A9F4FB0
:102250000E940B36CE01875A9F4F0E940B36CE014B
:1022600001960E940B36FF2049F0CE018F5B9F4FF5
:102270000E940B36CE018F960E940B366BE175E003
:10228000CE0101960E943B36BE016F5F7F4F80EF0B
:1022900098E00E94D235CE0101960E940B3680E470
:1022A00080938E050E94AD2610928D0510928C05AC
:1022B000C2C660915A0270915B02CB0109964397A6
:1022C00008F577FF03C07195619571094AE0CE0169
:1022D00085509F4F0E9410366CE274E0CE018B5007
:1022E0009F4F0E944336BE0165507F4FCE018B50F9
:1022F0009F4F0E949735BC01CE018F960E943B36BE
:1023000011E00BC077FF03C07195619571094AE038
:10231000CE018F960E94103610E0609158027091A5
:102320005902CB010996439708F577FF03C07195D1
:10233000619571094AE0CE0181519F4F0E9410368C
:102340006CE274E0CE0187519F4F0E944336BE017C
:1023500061517F4FCE0187519F4F0E949735BC013D
:10236000CE0189960E943B3601E00BC077FF03C087
:102370007195619571094AE0CE0189960E941036E7
:1023800000E06091560270915702CB010996439785
:1023900010F577FF03C07195619571094AE0CE0190
:1023A0008D519F4F0E9410366CE274E0CE01835233
:1023B0009F4F0E944336BE016D517F4FCE01835225
:1023C0009F4F0E949735BC01CE0101960E943B367B
:1023D000FF24F3940BC077FF03C0719561957109D9
:1023E0004AE0CE0101960E941036F12CBE016F5FCB
:1023F0007F4FCE0183960E943B36BE01675D7F4FC3
:10240000CE0183960E949735BE01615D7F4F0E9489
:102410009735BC0180EF98E00E94BD35CE018396D0
:102420000E940B36CE0101960E940B36FF2051F020
:10243000CE0183529F4F0E940B36CE018D519F4F8C
:102440000E940B36CE0189960E940B36002351F074
:10245000CE0187519F4F0E940B36CE0181519F4F75
:102460000E940B36CE018F960E940B36112351F03D
:10247000CE018B509F4F0E940B36CE0185509F4F4F
:102480000E940B3610928D0510928C0580915C0293
:1024900090915D02019789F580E880938E052FC0A9
:1024A00060915E0270915F024AE0CE0183960E94C5
:1024B00010366BE274E0CE0101960E944336BE01F5
:1024C0006D5D7F4FCE0101960E9497356BE274E0FF
:1024D0000E948035BC0180EF98E00E94BD35CE019E
:1024E00001960E940B36CE0183960E940B3683E341
:1024F00090E090938D0580938C0510928E050E943C
:10250000AD2699C580916305811142C081E020917B
:10251000600230916102232B09F480E00E94842341
:102520006B017C01AB01BC01CE0101960E941A2413
:10253000BE016F5F7F4F80EF98E00E94D235CE01E1
:1025400001960E940B368091600290916102892B66
:1025500051F481E390E090938D0580938C0580E4A5
:1025600080938E0508C083E290E090938D05809360
:102570008C0510928E0520E030E0A901C701B6015C
:102580000E94E54687FF04C080918E05806803C0E5
:1025900080918E058F7780938E054DC56091620284
:1025A00070916302CB010996439708F577FF03C04A
:1025B0007195619571094AE0CE0189529F4F0E9441
:1025C00010366CE274E0CE018F529F4F0E9443366A
:1025D000BE0169527F4FCE018F529F4F0E949735A7
:1025E000BC01CE0101960E943B3611E00BC077FF83
:1025F00003C07195619571094AE0CE0101960E9470
:10260000103610E0BE016F5F7F4FCE0183960E94AF
:102610003B3669E274E0CE0183960E948035BC01AE
:1026200080EF98E00E94BD35CE0183960E940B3664
:10263000CE0101960E940B36112351F0CE018F522C
:102640009F4F0E940B36CE0189529F4F0E940B363E
:102650008FE090E090938D0580938C0580916202CD
:102660009091630297FD03C010928E05E4C480E848
:1026700092CF80914E0290914F02892B79F466E1BE
:1026800074E080EF98E00E94A83583E090E090939A
:102690001902809318028CE090E00EC06DE174E0A6
:1026A00080EF98E00E94A8358CE090E090931902AA
:1026B0008093180283E090E090931B0280931A02AB
:1026C000BAC480914E0290914F0260915402709171
:1026D0005502892B09F0E5C0CB010996439708F50F
:1026E00077FF03C07195619571094AE0CE0185536A
:1026F0009F4F0E9410366CE274E0CE018B539F4FC7
:102700000E944336BE0165537F4FCE018B539F4FCE
:102710000E949735BC01CE018F960E943B3611E096
:102720000BC077FF03C07195619571094AE0CE0136
:102730008F960E94103610E0609152027091530201
:10274000CB010996439708F577FF03C07195619512
:1027500071094AE0CE0181549F4F0E9410366CE20D
:1027600074E0CE0187549F4F0E944336BE016154EE
:102770007F4FCE0187549F4F0E949735BC01CE01F9
:1027800089960E943B3601E00BC077FF03C071952C
:10279000619571094AE0CE0189960E94103600E0E9
:1027A0006091500270915102CB010996439710F548
:1027B00077FF03C07195619571094AE0CE018D5490
:1027C0009F4F0E9410366CE274E0CE0183559F4FFC
:1027D0000E944336BE016D547F4FCE0183559F4FFB
:1027E0000E949735BC01CE0101960E943B36FF2422
:1027F000F3940BC077FF03C07195619571094AE0AE
:10280000CE0101960E941036F12CBE016F5F7F4F02
:10281000CE0183960E943B36BE01675D7F4FCE019D
:1028200083960E949735BE01615D7F4F0E94973568
:10283000BC0180EF98E00E94BD35CE0183960E94D6
:102840000B36CE0101960E940B36FF2051F0CE01CF
:1028500083559F4F0E940B36CE018D549F4F0E948F
:102860000B36CE0189960E940B36002351F0CE0123
:1028700087549F4F0E940B36CE0181549F4F0E9478
:102880000B36CE018F960E940B36112309F4D3C369
:10289000CE018B539F4F0E940B36CE0185539F4F25
:1028A000E1C0CB010996439708F577FF03C0719506
:1028B000619571094AE0CE0189559F4F0E941036FB
:1028C0006CE274E0CE018F559F4F0E944336BE01EB
:1028D00069557F4FCE018F559F4F0E949735BC01A0
:1028E000CE01C5960E943B3611E00BC077FF03C0B6
:1028F0007195619571094AE0CE01C5960E94103626
:1029000010E06091500270915102CB0109964397FB
:1029100008F577FF03C07195619571094AE0CE0112
:1029200085569F4F0E9410366CE274E0CE018B56A4
:102930009F4F0E944336BE0165567F4FCE018B5696
:102940009F4F0E949735BC01CE018F960E943B3667
:1029500001E00BC077FF03C07195619571094AE0F2
:10296000CE018F960E94103600E060915202709165
:102970005302CB010996439700F577FF03C0719589
:10298000619571094AE0CE0181579F4F0E94103630
:102990006CE274E0CE0101960E944336BE0161579D
:1029A0007F4FCE0101960E949735BC01CE018396E0
:1029B0000E943B36FF24F3940BC077FF03C0719550
:1029C000619571094AE0CE0183960E941036F12C80
:1029D000BE016D5D7F4FCE0189960E943B36BE01E0
:1029E000615D7F4FCE0189960E949735BE016B5C79
:1029F0007F4F0E949735BC0180EF98E00E94BD3563
:102A0000CE0189960E940B36CE0183960E940B362A
:102A1000FF2049F0CE0101960E940B36CE0181576E
:102A20009F4F0E940B36CE018F960E940B360023DB
:102A300051F0CE018B569F4F0E940B36CE0185562A
:102A40009F4F0E940B36CE01C5960E940B36112374
:102A500009F4F1C2CE018F559F4F0E940B36CE0173
:102A600089559F4F0E940B36E6C20E94CE3AE090F5
:102A7000EF05F090F0050091ED051091EE05209125
:102A8000EB053091EC054091F2055091F305609112
:102A9000E9057091EA058091E7059091E8050E94AB
:102AA0001C2C0C945302A394A09257090C945C0222
:102AB00020813181235131092F30310548F4440FF1
:102AC000551F661F771F4160029634960C9493053C
:102AD000208131812A5031092930310510F00C94C0
:102AE000D605440F551F661F771FEECF109287053E
:102AF0005093660540936505452BB9F40E94F72C69
:102B00007C010E94FF2C8C010E94052D9C014091AC
:102B10004C0250914D0260914A0270914B0280919B
:102B20004802909149020E941C2C80916505909169
:102B300066050197B9F58EEC91E00E9424318091F1
:102B40005002909151020E94123887EC91E00E944D
:102B5000243180915202909153020E941238E090E9
:102B60005402F090550290E3E91A98EFF90A0091A7
:102B700052021091530280905002909051020E9494
:102B80000B2D5C010E94112D6C010E94262D9401D9
:102B9000A501B6010E941C2C60914E028DE090E0D0
:102BA0000E94781F80916505909166050297C1F497
:102BB0006091560282E090E00E94781F6091580276
:102BC00083E090E00E94781F60915A0284E090E0D8
:102BD0000E94781F60915C0286E090E00E94781F5E
:102BE0008091650590916605039731F460915E02CE
:102BF00081E090E00E94781F8091650590916605C4
:102C0000049731F4609160028BE090E00E94781F9D
:102C10008091650590916605059739F4609162028F
:102C2000645F8CE090E00E94781F0E94F72C7C018A
:102C30000E94FF2C082F0E94052DC059DE4F88836B
:102C4000C057D1400E940B2DC159DE4F8883CF560B
:102C5000D1400E94112D182F0E94262D382FC70118
:102C600068EE73E00E941849E82EC059DE4F2881B3
:102C7000C057D140C159DE4F4881CF56D140612F56
:102C8000832F0E94943DD7C10E94F72CB8010E9467
:102C9000184991958195910912CAF12C0E94F72C3F
:102CA00008EE13E0B8010E941849181619067CF4C2
:102CB0000E94F72CB8010E94184911C00E94F72CFD
:102CC000B8010E9418499195819591090DCA0E94F9
:102CD000F72CB8010E9418499195819591094AE015
:102CE000BC01CE0101960E94103618CA0E94FF2C2A
:102CF0009195819591091ACA10E00E94FF2C18162F
:102D000019064CF40E94FF2C0BC00E94FF2C9195D9
:102D10008195910917CA0E94FF2C9195819591097F
:102D20004AE0BC01CE01895B9F4F0E94103626CA43
:102D30000E94052D91958195910928CA00E00E9475
:102D4000052D181619064CF40E94052D0BC00E9483
:102D5000052D91958195910925CA0E94052D919582
:102D6000819591094AE0BC01CE0185599F4F0E948F
:102D7000103634CA0E94F72C08EE13E0B8010E9406
:102D800018491816190634F40E94F72CB8010E944D
:102D9000184908C00E94F72CB8010E941849919563
:102DA00081959109FF24F3940A978CF0F12C0E94ED
:102DB000F72C08EE13E0B8010E94184918161906FE
:102DC000D4F50E94F72CB8010E9418493CC00E941B
:102DD000F72C08EE13E0B8010E94184918161906DE
:102DE00034F40E94F72CB8010E94184908C00E94D0
:102DF000F72CB8010E9418499195819591094AE0F4
:102E0000BC01CE01895B9F4F0E9410366CE274E0DA
:102E1000CE018B599F4F0E944336BE01695B7F4FA5
:102E2000CE018B599F4F0E949735BC01CE01019670
:102E30000E943B360EC00E94F72CB8010E94184930
:102E40009195819591094AE0BC01CE0101960E94BD
:102E500010360E94052D181619061CF40E94052D27
:102E600005C00E94052D91958195910911E00A9761
:102E70004CF010E00E94052D1816190664F50E940A
:102E8000052D2EC00E94052D181619061CF40E944F
:102E9000052D05C00E94052D9195819591094AE067
:102EA000BC01CE0185599F4F0E9410366CE274E040
:102EB000CE0183589F4F0E944336BE0165597F4F14
:102EC000CE0183589F4F0E949735BC01CE018F964B
:102ED0000E943B360BC00E94052D9195819591096A
:102EE0004AE0BC01CE018F960E9410360E94FF2C52
:102EF000181619061CF40E94FF2C05C00E94FF2C16
:102F000091958195910901E00A974CF000E00E94AB
:102F1000FF2C181619066CF50E94FF2C2FC00E947A
:102F2000FF2C181619061CF40E94FF2C05C00E94E5
:102F3000FF2C9195819591094AE0BC01CE018D57F6
:102F40009F4F0E9410366CE274E0CE0187579F4F6E
:102F50000E944336BE016D577F4FCE0187579F4F6A
:102F60000E949735BC01CE01875A9F4F0E943B3685
:102F70000CC00E94FF2C9195819591094AE0BC01FB
:102F8000CE01875A9F4F0E941036BE01675A7F4F6D
:102F9000CE018F5B9F4F0E943B36BE01615D7F4F2C
:102FA000CE018F5B9F4F0E949735BE016F5F7F4FB1
:102FB0000E949735BC018BE195E00E94BD35CE01A2
:102FC0008F5B9F4F0E940B36CE01875A9F4F0E9406
:102FD0000B36002351F0CE0187579F4F0E940B36CE
:102FE000CE018D579F4F0E940B36CE018F960E94C7
:102FF0000B36112351F0CE0183589F4F0E940B36A0
:10300000CE0185599F4F0E940B36CE0101960E943A
:103010000B36FF2009F432C9CE018B599F4F0E9415
:103020000B36CE01895B9F4F27C91092360910924B
:103030005A090C945C02C059DE4F0FB6F894DEBFFB
:103040000FBECDBFDF91CF911F910F91FF90EF90F9
:10305000DF90CF90BF90AF909F908F907F906F90B8
:103060005F904F903F902F900895EF92FF920F93B3
:103070001F93CF93DF93CDB7DEB7C25AD1090FB6F6
:10308000F894DEBF0FBECDBF8091790581110DC0D0
:103090000E940D29609375057093760580937705DE
:1030A0009093780581E08093790580916D05811179
:1030B0000DC00E940D296093690570936A05809385
:1030C0006B0590936C0581E080936D050E940D293E
:1030D000009175051091760520917705309178055E
:1030E000DC01CB01801B910BA20BB30B00913102D1
:1030F00010913202209133023091340208171907DF
:103100002A073B0708F06FC00E940D2960937505E0
:103110007093760580937705909378058091670585
:1031200090916805009799F481E090E0909366058E
:103130008093650588E893E1A0E0B0E080933102D8
:1031400090933202A0933302B09334021EC00197D1
:10315000E1F484E090E0909366058093650588E84B
:1031600093E1A0E0B0E08093310290933202A0930B
:103170003302B09334028091E405811106C082E0ED
:1031800090E0909368058093670580916705909122
:1031900068058230910581F41092660510926505EC
:1031A00040E65AEE60E070E0409331025093320204
:1031B00060933302709334020196833091052CF4AE
:1031C000909368058093670504C01092680510927B
:1031D000670580916405882321F01092660510929E
:1031E0006505109264050E940D29009175051091E6
:1031F00076052091770530917805DC01CB01801BA5
:10320000910BA20BB30B803D9740A105B10508F0CF
:103210005FC60E940D290091690510916A052091F1
:103220006B0530916C05DC01CB01801B910BA20B6F
:10323000B30B85369105A105B10508F44BC60E9474
:103240000D296093690570936A0580936B059093CF
:103250006C052091E4058091650590916605222317
:1032600009F43AC3892B89F5CE0107960E945B3B8E
:1032700081E02091600230916102232B09F480E00B
:103280000E948423AB01BC01CE010D960E941A243A
:10329000AE01495F5F4FBE01635F7F4FCE01019674
:1032A0000E94F825BE016F5F7F4F80EF98E00E947B
:1032B000D235CE0101960E940B36CE010D960E94AA
:1032C0000B36CE0107960E940B36809165059091D2
:1032D0006605019709F070C10E94F72C08EE13E013
:1032E000B8010E9418491816190634F40E94F72CE8
:1032F000B8010E94184908C00E94F72CB8010E942A
:10330000184991958195910911E00A979CF010E078
:103310000E94F72CE8EEEE2EE3E0FE2EB7010E94AD
:10332000184918161906CCF50E94F72CB7010E940F
:1033300018493BC00E94F72CF8EEEF2EF3E0FF2E69
:10334000B7010E9418491816190634F40E94F72C88
:10335000B7010E94184908C00E94F72CB7010E94CB
:1033600018499195819591094AE0BC01CE01439697
:103370000E9410366CE274E0CE0149960E944336FA
:10338000BE016D5E7F4FCE0149960E949735BC010C
:10339000CE010D960E943B360EC00E94F72CB7015D
:1033A0000E9418499195819591094AE0BC01CE018E
:1033B0000D960E9410360E94FF2C181619061CF458
:1033C0000E94FF2C05C00E94FF2C919581959109C8
:1033D00001E00A974CF000E00E94FF2C1816190635
:1033E0004CF50E94FF2C2BC00E94FF2C18161906CA
:1033F0001CF40E94FF2C05C00E94FF2C9195819522
:1034000091094AE0BC01CE0185960E9410366CE21B
:1034100074E0CE018B960E944336BE016B5D7F4FF8
:10342000CE018B960E949735BC01CE014F960E942B
:103430003B360BC00E94FF2C9195819591094AE083
:10344000BC01CE014F960E9410360E94052D181621
:1034500019061CF40E94052D05C00E94052D9195AA
:1034600081959109FF24F3940A974CF0F12C0E9466
:10347000052D181619065CF50E94052D2DC00E9419
:10348000052D181619061CF40E94052D05C00E9472
:10349000052D9195819591094AE0BC01CE01CD960B
:1034A0000E9410366CE274E0CE018D5B9F4F0E944B
:1034B0004336BE01635C7F4FCE018D5B9F4F0E9400
:1034C0009735BC01CE01C7960E943B360BC00E94C7
:1034D000052D9195819591094AE0BC01CE01C796D1
:1034E0000E941036BE01695C7F4FCE01C1960E94DA
:1034F0003B36BE01615E7F4FCE01C1960E9497357B
:10350000BE01635F7F4F0E949735BC01CE010796D5
:103510000E943B36CE01875B9F4F0E945B3BAE0112
:10352000495F5F4FBE01675B7F4FCE0101960E94EE
:10353000F825BE016F5F7F4F80EF98E00E94D23583
:10354000CE0101960E940B36CE01875B9F4F0E94F1
:103550000B36CE0107960E940B36CE01C1960E9413
:103560000B36CE01C7960E940B36FF2049F0CE01E4
:103570008D5B9F4F0E940B36CE01CD960E940B367D
:10358000CE014F960E940B36002341F0CE018B9660
:103590000E940B36CE0185960E940B36CE010D9609
:1035A0000E940B36112341F0CE0149960E940B3642
:1035B000CE0143960E940B36809165059091660579
:1035C000049709F087C481E0209160023091610284
:1035D000232B09F480E00E948423AB01BC01CE01BF
:1035E00007960E941A240E94F72C08EE13E0B801F7
:1035F0000E9418491816190634F40E94F72CB801D5
:103600000E94184908C00E94F72CB8010E9418496E
:1036100091958195910911E00A979CF010E00E9424
:10362000F72C68EEE62E63E0F62EB7010E941849EB
:1036300018161906CCF50E94F72CB7010E941849FC
:103640003BC00E94F72C78EEE72E73E0F72EB7010F
:103650000E9418491816190634F40E94F72CB70175
:103660000E94184908C00E94F72CB7010E9418490F
:103670009195819591094AE0BC01CE01C1960E94C5
:1036800010366CE274E0CE01C7960E944336BE014C
:103690006F5C7F4FCE01C7960E949735BC01CE016B
:1036A0004F960E943B360EC00E94F72CB7010E9435
:1036B00018499195819591094AE0BC01CE014F9638
:1036C0000E9410360E94FF2C181619061CF40E9446
:1036D000FF2C05C00E94FF2C91958195910901E076
:1036E0000A974CF000E00E94FF2C181619066CF5A2
:1036F0000E94FF2C2FC00E94FF2C181619061CF4E4
:103700000E94FF2C05C00E94FF2C91958195910984
:103710004AE0BC01CE01815B9F4F0E9410366CE2F3
:1037200074E0CE018B5A9F4F0E944336BE01615B0D
:103730007F4FCE018B5A9F4F0E949735BC01CE011F
:10374000875B9F4F0E943B360CC00E94FF2C9195D7
:10375000819591094AE0BC01CE01875B9F4F0E9491
:1037600010360E94052D181619061CF40E94052D0E
:1037700005C00E94052D919581959109FF24F39430
:103780000A974CF0F12C0E94052D181619066CF5BD
:103790000E94052D2FC00E94052D181619061CF435
:1037A0000E94052D05C00E94052D919581959109D6
:1037B0004AE0BC01CE0189599F4F0E9410366CE24D
:1037C00074E0CE0183599F4F0E944336BE01695970
:1037D0007F4FCE0183599F4F0E949735BC01CE0188
:1037E0008F599F4F0E943B360CC00E94052D91952A
:1037F000819591094AE0BC01CE018F599F4F0E94EB
:103800001036BE016F597F4FCE01855A9F4F0E94DF
:103810003B36BE01675B7F4FCE01855A9F4F0E94AA
:103820009735BE01615E7F4F0E949735BC01CE0186
:103830000D960E943B36AE01495F5F4FBE01635F4C
:103840007F4FCE0101960E94F825BE016F5F7F4F2A
:1038500080EF98E00E94D235CE0101960E940B368F
:10386000CE010D960E940B36CE01855A9F4F0E94C5
:103870000B36CE018F599F4F0E940B36FF2051F01F
:10388000CE0183599F4F0E940B36CE0189599F4F1D
:103890000E940B36CE01875B9F4F0E940B360023A0
:1038A00051F0CE018B5A9F4F0E940B36CE01815BA7
:1038B0009F4F0E940B36CE014F960E940B3611236C
:1038C00041F0CE01C7960E940B36CE01C1960E94F0
:1038D0000B36CE010796F9C2892B09F078C1CE01CB
:1038E00007960E945B3B0E94F72C08EE13E0B8019C
:1038F0000E9418491816190634F40E94F72CB801D2
:103900000E94184908C00E94F72CB8010E9418496B
:1039100091958195910911E00A979CF010E00E9421
:10392000F72C48EEE42E43E0F42EB7010E9418492C
:1039300018161906DCF50E94F72CB7010E941849E9
:103940003DC00E94F72C58EEE52E53E0F52EB7014E
:103950000E9418491816190634F40E94F72CB70172
:103960000E94184908C00E94F72CB7010E9418490C
:103970009195819591094AE0BC01CE014F960E9434
:1039800010366CE274E0CE01875B9F4F0E94433695
:10399000BE01615E7F4FCE01875B9F4F0E949735CE
:1039A000BC01CE0143960E943B360EC00E94F72C0C
:1039B000B7010E9418499195819591094AE0BC018F
:1039C000CE0143960E9410360E94FF2C181619064D
:1039D0001CF40E94FF2C05C00E94FF2C919581953C
:1039E000910901E00A974CF000E00E94FF2C1816A4
:1039F000190664F50E94FF2C2EC00E94FF2C181699
:103A000019061CF40E94FF2C05C00E94FF2C919502
:103A1000819591094AE0BC01CE01855A9F4F0E94D1
:103A200010366CE274E0CE018F599F4F0E944336EE
:103A3000BE01655A7F4FCE018F599F4F0E94973527
:103A4000BC01CE0149960E943B360BC00E94FF2C60
:103A50009195819591094AE0BC01CE0149960E9459
:103A600010360E94052D181619061CF40E94052D0B
:103A700005C00E94052D919581959109FF24F3942D
:103A80000A974CF0F12C0E94052D1816190664F5C2
:103A90000E94052D2EC00E94052D181619061CF433
:103AA0000E94052D05C00E94052D919581959109D3
:103AB0004AE0BC01CE018D589F4F0E9410366CE247
:103AC00074E0CE0187589F4F0E944336BE016D5867
:103AD0007F4FCE0187589F4F0E949735BC01CE0182
:103AE0008B960E943B360BC00E94052D91958195C7
:103AF00091094AE0BC01CE018B960E941036BE01AE
:103B0000655D7F4FCE0185960E943B36BE01675EA4
:103B10007F4FCE0185960E949735BE016D5E7F4F27
:103B20000E949735BC01CE010D960E943B36AE0136
:103B3000495F5F4FBE01635F7F4FCE0101960E94D8
:103B4000F825BE016F5F7F4F80EF98E00E94D2356D
:103B5000CE0101960E940B36CE010D960E940B36C7
:103B6000CE0185960E940B36CE018B960E940B36B5
:103B7000FF2051F0CE0187589F4F0E940B36CE0197
:103B80008D589F4F0E940B36CE0149960E940B36EE
:103B9000002351F0CE018F599F4F0E940B36CE016A
:103BA000855A9F4F0E940B36CE0143960E940B36DA
:103BB000112349F0CE01875B9F4F0E940B36CE0147
:103BC0004F960E940B36CE0107960E940B368091CD
:103BD000650590916605019709F07CC10E94F72C5C
:103BE00008EE13E0B8010E9418491816190634F4BB
:103BF0000E94F72CB8010E94184908C00E94F72CB7
:103C0000B8010E94184991958195910911E00A9790
:103C10009CF010E00E94F72C28EEE22E23E0F22E1A
:103C2000B7010E94184918161906E4F50E94F72CEE
:103C3000B7010E9418493EC00E94F72C38EEE32ECF
:103C400033E0F32EB7010E9418491816190634F410
:103C50000E94F72CB7010E94184908C00E94F72C57
:103C6000B7010E9418499195819591094AE0BC01DC
:103C7000CE0181589F4F0E9410366CE274E0CE0155
:103C80008B579F4F0E944336BE0161587F4FCE0134
:103C90008B579F4F0E949735BC01CE010D960E9415
:103CA0003B360EC00E94F72CB7010E94184991952F
:103CB000819591094AE0BC01CE010D960E94103613
:103CC0000E94FF2C181619061CF40E94FF2C05C038
:103CD0000E94FF2C91958195910901E00A974CF083
:103CE00000E00E94FF2C1816190664F50E94FF2CB4
:103CF0002EC00E94FF2C181619061CF40E94FF2CDF
:103D000005C00E94FF2C9195819591094AE0BC0164
:103D1000CE0185579F4F0E9410366CE274E0CE01B1
:103D20008F569F4F0E944336BE0165577F4FCE018D
:103D30008F569F4F0E949735BC01CE0143960E943B
:103D40003B360BC00E94FF2C9195819591094AE06A
:103D5000BC01CE0143960E9410360E94052D181614
:103D600019061CF40E94052D05C00E94052D919591
:103D700081959109FF24F3940A974CF0F12C0E944D
:103D8000052D1816190664F50E94052D2EC00E94F7
:103D9000052D181619061CF40E94052D05C00E9459
:103DA000052D9195819591094AE0BC01CE01895676
:103DB0009F4F0E9410366CE274E0CE0183569F4FF5
:103DC0000E944336BE0169567F4FCE0183569F4FF6
:103DD0000E949735BC01CE0185960E943B360BC0F0
:103DE0000E94052D9195819591094AE0BC01CE0173
:103DF00085960E941036BE016B5D7F4FCE014996BD
:103E00000E943B36BE016D5E7F4FCE0149960E94F7
:103E10009735BE01635F7F4F0E949735BC01CE018D
:103E200007960E943B36CE018B960E945B3BAE010B
:103E3000495F5F4FBE01655D7F4FCE010196D8D6C9
:103E4000BE016F5F7F4F80EF98E00E94D235CE01B8
:103E500001960E940B36CE018B960E940B36CE0146
:103E600007960E940B36CE0149960E940B36CE0172
:103E700085960E940B36FF2051F0CE0183569F4F4E
:103E80000E940B36CE0189569F4F0E940B36CE0101
:103E900043960E940B36002351F0CE018F569F4F60
:103EA0000E940B36CE0185579F4F0E940B36CE01E4
:103EB0000D960E940B36112369F0CE018B579F4F50
:103EC0000E940B36CE0181589F4F0E940B3602C0D4
:103ED00010926305CE55DF4F0FB6F894DEBF0FBECC
:103EE000CDBFDF91CF911F910F91FF90EF9008957B
:103EF0000C9406480C94FE478F929F92AF92BF920B
:103F0000CF92DF92EF92FF920F931F93CF93DF93A5
:103F100088E090E0EFDF982EA82EB12C89E090E0A9
:103F2000E9DFC82E082F10E08AE090E0E3DFC82F19
:103F3000D0E0D12CE12CF12CFE2CED2CDC2CCC246F
:103F4000E928C82A812C912CB701A601C4010E943E
:103F50002B328FEF881A980A88E088169104A1F70F
:103F60000E9496328CE292E00E94453187E292E014
:103F70000E942431C5010E94123880E292E00E9422
:103F80002431C8010E9412388AE192E00E94243153
:103F9000CE01DF91CF911F910F91FF90EF90DF90B5
:103FA000CF90BF90AF909F908F900C94123840911B
:103FB000D9055091DA052091D7053091D8054217DF
:103FC000530719F080E09CE302C08FEF9FEF4F5F33
:103FD0005F4F4330510529F05093DA054093D905DE
:103FE00008951092DA051092D9052F5F3F4F2330C4
:103FF000310529F03093D8052093D7050895109204
:10400000D8051092D7050895CF92DF92EF92FF92D4
:104010001F93CF93DF9390919105911103C08FEF80
:104020009FEF72C0909190059923C9F3182FC0910A
:104030008F05D0E08091CF0581110DC00E940D2920
:104040006093CB057093CC058093CD059093CE05FE
:1040500081E08093CF050E940D29C090CB05D090C0
:10406000CC05E090CD05F090CE05DC01CB018C199C
:104070009D09AE09BF098D329140A105B105D8F067
:104080000E940D296093CB057093CC058093CD05DC
:104090009093CE058091CA0591E098279093CA0528
:1040A000992329F01092C9051092C80504C0D09335
:1040B000C905C093C8052091C8053091C905209550
:1040C000309540918E0550E02423352326FF04C00F
:1040D00081E08093C70502C01092C70527FF04C086
:1040E00081E08093C60502C01092C6058091CA0582
:1040F000882309F494CF02C0D595C7951A95E2F7A5
:10410000C0FF8DCF80E09CE3DF91CF911F91FF90A6
:10411000EF90DF90CF9008950F931F93CF93DF938D
:10412000CDB7DEB7A4970FB6F894DEBF0FBECDBFF4
:104130008B01833009F062C02091F4083091F508BA
:1041400042E050E060EF78E0CE0149960E94573699
:10415000C8010996B8014397F0F417FF03C07195A1
:10416000619571094AE0CE0107960E9410366CE213
:1041700074E0CE0101960E944336BE01695F7F4F15
:10418000CE0101960E949735BC01CE010D960E948A
:104190003B3611E00BC017FF03C0719561957109A3
:1041A0004AE0CE010D960E94103610E0BE01635F1A
:1041B0007F4FCE0143960E943B36BE01675E7F4F24
:1041C000CE0143960E949735BC0180EF98E00E9493
:1041D000BD35CE0143960E940B36CE010D960E944E
:1041E0000B36112341F0CE0101960E940B36CE0111
:1041F00007960E940B36CE014996D9C08C3009F043
:1042000075C02091F4083091F50844E050E060EF6B
:1042100078E0CE0143960E945736C8010996B8014E
:104220004397F0F417FF03C07195619571094AE057
:10423000CE014F960E9410366CE274E0CE01499692
:104240000E944336BE01615E7F4FCE0149960E94B7
:104250009735BC01CE010D960E943B3611E00BC094
:1042600017FF03C07195619571094AE0CE010D9663
:104270000E94103610E022E030E040E050E060EFB5
:1042800078E0CE0101960E945736BE016F5F7F4FE6
:10429000CE0107960E943B36BE01635F7F4FCE0181
:1042A00007960E949735BE016D5E7F4F0E9497353D
:1042B000BC0180EF98E00E94BD35CE0107960E94B8
:1042C0000B36CE0101960E940B36CE010D960E9450
:1042D0000B36112341F0CE0149960E940B36CE01D8
:1042E0004F960E940B36CE01439661C0803309F091
:1042F00060C0CB0109964397F0F477FF03C0719536
:10430000619571094AE0CE0143960E9410366CE235
:1043100074E0CE010D960E944336BE016D5E7F4F64
:10432000CE010D960E949735BC01CE0149960E94A0
:104330003B3611E00BC077FF03C0719561957109A1
:104340004AE0CE0149960E94103610E024E030E0A9
:1043500040E050E060EF78E0CE0101960E945736D1
:10436000BE016F5F7F4FCE0107960E943B36BE01B4
:10437000675E7F4FCE0107960E949735BC0180EFA4
:1043800098E00E94BD35CE0107960E940B36CE0103
:1043900001960E940B36CE0149960E940B361123DE
:1043A00041F0CE010D960E940B36CE0143960E943D
:1043B0000B36A4960FB6F894DEBF0FBECDBFDF91CB
:1043C000CF911F910F910895CF93DF93C0E0D0E07C
:1043D00040E050E0BA01CE010E942B322196C83055
:1043E000D105B1F7DF91CF910C9496321F920F92C5
:1043F0000FB60F9211240BB60F922F923F924F924D
:104400005F926F927F928F929F92AF92BF92CF9264
:10441000DF92EF92FF920F931F932F933F934F934F
:104420005F936F937F938F939F93AF93BF93EF931C
:10443000FF93CF93DF93CDB7DEB72897DEBFCDBF15
:10444000789480EF98E029D62C982AE0822E912C3F
:10445000A12CB12CA50194010E942B49660F771F56
:10446000FB01E855FC4F808191819A83898385E027
:1044700090E02B833C834D835E83C6DD98878F83DA
:1044800096DD7C012B813C814D815E81CA01B901A1
:10449000A50194010E942B49660F771FFB01E85587
:1044A000FC4F6080718084E090E02B833C834D83DF
:1044B0005E83AADD8C017BDD6C012B813C814D810B
:1044C0005E81CA01B901A50194010E942B4919011D
:1044D0002A01660F771FFB01E855FC4F8080918011
:1044E00083E090E091DD5C0162DD0C211D2106215D
:1044F000172120E030E0BAE0000F111F221F331F08
:10450000BA95D1F78A219B21AC014821592160E05D
:1045100070E048015901842A952AA62AB72A8F817A
:104520009885E822F92289819A81E822F922A70157
:1045300060E070E014E1440F551F661F771F1A9565
:10454000D1F7842A952AA62AB72A8091C7058823FD
:1045500019F06894B6F802C0E894B6F88091C605E0
:10456000882319F06894B7F802C0E894B7F88B2D47
:104570000E94AA3E8A2D0E94AA3E892D0E94AA3E30
:10458000882D0E94AA3E8AE0C82ED12CE12CF12C65
:10459000C201B101A70196010E942B49660F771F46
:1045A000FB01E855FC4F4080518082E090E02B8376
:1045B0003C834D835E8328DD5C01F9DC8C012B811B
:1045C0003C814D815E81CA01B901A70196010E941B
:1045D0002B49660F771FFB01E855FC4F6080718007
:1045E00081E090E02B833C834D835E830DDD4C01A5
:1045F000DEDC15012022312224203520412C512CD3
:10460000F4E1220C331C441C551CFA95D1F7882187
:10461000992186219721A0E0B0E01AE0880F991F28
:10462000AA1FBB1F1A95D1F752014101882A992A66
:10463000AA2ABB2A2B813C814D815E81CA01B90126
:10464000A70196010E942B49660F771FFB01E855D1
:10465000FC4FE080F18080E090E0D6DC8C01A7DCAC
:10466000802391238E219F21A0E0B0E0882A992AFF
:10467000AA2ABB2A8091C705882319F06894B6F846
:1046800002C0E894B6F88091C605882319F06894B2
:10469000B7F802C0E894B7F88B2D0E94AA3E8A2D85
:1046A0000E94AA3E892D0E94AA3E882D0E94AA3E01
:1046B0002C9A28960FB6F894DEBF0FBECDBFDF91BF
:1046C000CF91FF91EF91BF91AF919F918F917F918A
:1046D0006F915F914F913F912F911F910F91FF909B
:1046E000EF90DF90CF90BF90AF909F908F907F9092
:1046F0006F905F904F903F902F900F900BBE0F9058
:104700000FBE0F901F901895DF92EF92FF920F93BC
:104710001F93CF93DF93C091C405D091C505C830D6
:10472000D10508F06AC0082FFE018827E357FF4F24
:104730008F4F0C94474984E406C00E94463A5DC0FE
:104740008CEC01C08EEB0E941D3A57C028E0E22E8F
:10475000F12C01E010E00E94C6398111102B000FEE
:1047600081E0E81AF108B9F71093C20546C098E055
:10477000E92EF12CDD24D39410E00E94C63981117A
:104780001D29DD0C81E0E81AF108B9F71093C30583
:10479000612F70E0762F66278091C205682B6F3FEE
:1047A0008FEF780711F460E070E0072E000C880BA3
:1047B000990B0E94EB4620E030E040E85DE30E9468
:1047C0004A47002361F026E636E646EE5FE30E94A4
:1047D0004A4720E030E040E052E40E945F4820E099
:1047E00030E040E251E40E944A476093BE05709376
:1047F000BF058093C0059093C1052196C830D105AF
:1048000029F0D093C505C093C40504C01092C50516
:104810001092C4056091BE057091BF058091C005DE
:104820009091C105DF91CF911F910F91FF90EF9073
:10483000DF9008958F929F92AF92BF92CF92DF92B6
:10484000EF92FF920F931F93CF93DF93CDB7DEB715
:104850002C970FB6F894DEBF0FBECDBF8C016A0156
:104860007B018091B605811112C0D7D4DC01CB0148
:10487000845B9B4FAF4FBF4F8093B2059093B305BE
:10488000A093B405B093B50581E08093B6058091FF
:10489000AA05811109C067E274E084EA95E00E94EC
:1048A000433681E08093AA05B8D48090B2059090F9
:1048B000B305A090B405B090B505DC01CB01881913
:1048C0009909AA09BB09893E9340A105B10508F4DD
:1048D00076C1A3D46093B2057093B3058093B405F9
:1048E0009093B50520E030E0A901C701B6010E9410
:1048F000F44820E030E040E05FE387FD05C0C701F9
:10490000B6010E945F4804C0C701B6010E945E481C
:104910000E94C34880916002909161029B012951DD
:104920003C4F49012458334059012A553109690146
:104930007B01892B09F095C077FF03C0F194E194C6
:10494000F1084AE0B701CE0107960E9410366CE2EA
:1049500074E0CE0101960E944336BE01695F7F4F2D
:10496000CE0101960E9497356CE274E00E9480357A
:10497000BC0184EA95E00E94BD35CE0101960E94FB
:104980000B36CE0107960E940B363FEC831637E0BC
:10499000930620F54AE0B701CE0107960E94103633
:1049A0006BE274E0CE0101960E944336BE01695F5E
:1049B0007F4FCE0101960E9497356CE274E00E9411
:1049C0008035BC0184EA95E00E94BD35CE01019698
:1049D0000E940B36CE0107960E940B3687ECA81674
:1049E000B10420F54AE0B701CE0107960E941036C7
:1049F0006AE274E0CE0101960E944336BE01695F0F
:104A00007F4FCE0101960E9497356CE274E00E94C0
:104A10008035BC0184EA95E00E94BD35CE01019647
:104A20000E940B36CE0107960E940B3623E1C21678
:104A3000D10408F0C4C04AE0B701CE0107960E9435
:104A4000103669E274E0CE0101960E944336BE0141
:104A5000695F7F4FCE0101960E9497356CE274E04A
:104A60009FC077FF03C0F194E194F1084AE0B701D9
:104A7000CE0107960E9410366CE274E0CE010196DA
:104A80000E944336BE01695F7F4FCE0101960E94AE
:104A900097356CE274E00E948035BC0184EA95E0B1
:104AA0000E94BD35CE0101960E940B36CE010796BD
:104AB0000E940B363FEC831637E0930640F5C701A2
:104AC0006AE070E00E9418494AE0CE0107960E9411
:104AD00010366BE274E0CE0101960E944336BE01AF
:104AE000695F7F4FCE0101960E9497356BE274E0BB
:104AF0000E948035BC0184EA95E00E94BD35CE015C
:104B000001960E940B36CE0107960E940B3687EC69
:104B1000A816B10440F5C7016AE070E00E94184988
:104B20004AE0CE0107960E9410366AE274E0CE0198
:104B300001960E944336BE01695F7F4FCE01019608
:104B40000E9497356BE274E00E948035BC0184EAD4
:104B500095E00E94BD35CE0101960E940B36CE0134
:104B600007960E940B3623E1C216D10440F5C70117
:104B70006AE070E00E9418494AE0CE0107960E9460
:104B8000103669E274E0CE0101960E944336BE0100
:104B9000695F7F4FCE0101960E9497356BE274E00A
:104BA0000E948035BC0184EA95E00E94BD35CE01AB
:104BB00001960E940B36CE0107960E940B3664EADE
:104BC00075E0C8010E943B36C8012C960FB6F894D8
:104BD000DEBF0FBECDBFDF91CF911F910F91FF9030
:104BE000EF90DF90CF90BF90AF909F908F900895FF
:104BF0004F925F926F927F928F929F92AF92BF92ED
:104C0000CF92DF92EF92FF920F931F93CF93DF9398
:104C100000D000D0CDB7DEB77C014B015A018091A6
:104C20006305882341F0809197050EE915E0A8E916
:104C3000B5E0F8014AC081E08093630510928D05CC
:104C400010928C058EE9682E85E0782E98E9492E21
:104C500095E0592E00E010E00F5F1F4F680181E0E2
:104C6000C81AD1089801A601B401CE0101960E948C
:104C70005736CE01019611D2F30161933F01CE0167
:104C800001960E940B369801A601B501CE0101964E
:104C90000E945736CE01019600D2F20161932F0196
:104CA000CE0101960E940B3606301105A9F6BBCF46
:104CB0002C9192130DC090819A3009F41082319694
:104CC000119695E0E43AF90731F090818A3080F747
:104CD0009F5F9083F0CF8F5F843119F080939705A9
:104CE00004C0109297051092630566E274E0C70154
:104CF0000E944336FE0131966F01F80181918F01C8
:104D00004AE0B60190E00E949D46F6010190002025
:104D1000E9F73197AF014C195D09B601C7010E944F
:104D20005335F5E0043A1F0741F7C70126960FB641
:104D3000F894DEBF0FBECDBFDF91CF911F910F91D1
:104D4000FF90EF90DF90CF90BF90AF909F908F90AB
:104D50007F906F905F904F9008950F931F93809175
:104D60005C0290915D02892B09F450C080919605F8
:104D70008823A1F052D200919205109193052091C1
:104D8000940530919505DC01CB01801B910BA20BA2
:104D9000B30B893E9340A105B105A8F58091960516
:104DA000811134C053D62091560230915702821798
:104DB000930761F536D62091580230915902821737
:104DC000930721F528D620915A0230915B02821771
:104DD0009307E1F422D26093920570939305809338
:104DE00094059093950581E0809396058FE392E07A
:104DF0000E9445318091390290913A029093E605E4
:104E00008093E50503C010929605C8CF1F910F91BE
:104E1000089503D2609388057093890580938A056D
:104E200090938B0580918705882309F44FC02091CA
:104E3000650530916605C901880F991F213131053B
:104E400051F0FC01E45CFD4F40815181415051091A
:104E5000518340830AC040915E0250915F024C50E2
:104E6000510950935F0240935E02DC01A45CBD4F88
:104E70006D917C911197FC01E454FC4F408151816C
:104E8000641775073CF4FC01E058FC4F40815181E8
:104E90004D935C932031310571F420915C02309187
:104EA0005D022130310521F420E820938E0506C0F3
:104EB00010928E0503C02930310541F0FC01E45CFD
:104EC000FD4F6081718180918F0526C90895A5D11C
:104ED000609388057093890580938A0590938B056C
:104EE00080918705882309F444C02091650530919D
:104EF0006605C901880F991F2131310551F0FC0168
:104F0000E45CFD4F408151814F5F5F4F518340838F
:104F10000AC040915E0250915F02445F5F4F509320
:104F20005F0240935E02DC01A45CBD4F6D917C91F9
:104F30001197FC01E058FC4F4081518146175707FB
:104F40003CF4FC01E454FC4F408151814D935C934F
:104F50002031310519F410928E0503C02930310536
:104F600041F0FC01E45CFD4F6081718180918F050F
:104F7000D3C80895CF93DF93EC01019628812A339B
:104F8000D9F78981843639F5109286051092850506
:104F900023964AE0FE018881219690ED980F20919A
:104FA0008505309186059A3080F4429FB001439F79
:104FB000700D1124082E000C990BC097860F971FB7
:104FC0009093860580938505E5CF1216130614F499
:104FD00020933802EF01219688818F3689F48A81E7
:104FE000082E000C990B9C01205331093093860543
:104FF00020938505C397059710F4209337022496D4
:105000008881823629F51092860510928505FE0169
:1050100032964AE0819190ED980F2091850530916C
:1050200086059A3080F4429FB001439F700D112491
:10503000082E000C990BC097860F971F909386053A
:1050400080938505E7CF3093360220933502EF0138
:105050002091350230913602032E000C440B550B83
:1050600060E67AEE80E090E00E942B49DA01C90107
:1050700022E0880F991FAA1FBB1F2A95D1F78093A2
:10508000810590938205A0938305B0938405CE019A
:10509000DF91CF9108950E946C4BFC01808191813A
:1050A000009711F00C946D4660E070E0CB0108951C
:1050B00085ED8093BC008091BC0084FDFCCF1092F4
:1050C000B80908950895E091BA098091B909E817DF
:1050D00030F4F0E0E554F64F808190E008958FEFD2
:1050E0009FEF08959091BA098091B909981750F4EB
:1050F000E92FF0E0E554F64F208130E09F5F909378
:10510000BA0902C02FEF3FEFC90108958091B90994
:1051100090E02091BA09821B91090895CF92DF9205
:10512000EF92FF92C0904606D0904706E090480666
:10513000F09049066C157D058E059F0561F06B01A9
:105140007C010E945131C0924606D0924706E092FF
:105150004806F0924906FF90EF90DF90CF900895B7
:105160003FB7F89480915F0690916006A091610628
:10517000B091620626B5A89B05C02F3F19F0019695
:10518000A11DB11D3FBFBA2FA92F982F8827820FCD
:10519000911DA11DB11DBC01CD0142E0660F771F1D
:1051A000881F991F4A95D1F708958F929F92AF92C9
:1051B000BF92CF92DF92EF92FF926B017C01D0DF22
:1051C0004B015C01C114D104E104F104E9F0C8DF32
:1051D000DC01CB0188199909AA09BB09883E9340D3
:1051E000A105B10578F321E0C21AD108E108F10860
:1051F00088EE880E83E0981EA11CB11CC114D10456
:10520000E104F10421F7DECFFF90EF90DF90CF9023
:10521000BF90AF909F908F9008952FB7F8946091B2
:105220005B0670915C0680915D0690915E062FBFD3
:10523000089560935606709357068093580690938E
:105240005906DC01CB01845D9E4FAF4FBF4F809369
:10525000520690935306A0935406B093550682E0ED
:1052600090E09093510680935006D7DF60934C06F0
:1052700070934D0680934E0690934F060895CF92FB
:10528000DF92EF92FF920F931F93C7DFC0904C06FF
:10529000D0904D06E0904E06F0904F068B019C0199
:1052A0000C191D092E093F09809156069091570649
:1052B000A0915806B0915906083E134021053105CA
:1052C000D0F00196A11DB11D80935606909357060C
:1052D000A0935806B0935906B701A60148515C4FF8
:1052E0006F4F7F4F40934C0650934D0660934E0690
:1052F00070934F06CACF4091520650915306609169
:1053000054067091550684179507A607B70780F1D4
:10531000E0914A06F0914B06309751F119956115CD
:1053200071058105910511F084DF22C08091560638
:1053300090915706A0915806B0915906845D9E4FF2
:10534000AF4FBF4F8093520690935306A0935406DD
:10535000B093550681E090E02091500630915106BF
:10536000232B11F480E090E0909351068093500637
:105370006091560670915706809158069091590693
:105380001F910F91FF90EF90DF90CF9008951F92A3
:105390000F920FB60F9211242F933F938F939F93E9
:1053A000AF93BF9380915B0690915C06A0915D06E0
:1053B000B0915E0630915A0623E0230F2D3720F47A
:1053C0000196A11DB11D05C026E8230F0296A11D5F
:1053D000B11D20935A0680935B0690935C06A093C0
:1053E0005D06B0935E0680915F0690916006A09185
:1053F0006106B09162060196A11DB11D80935F0602
:1054000090936006A0936106B0936206BF91AF913E
:105410009F918F913F912F910F900FBE0F901F90F2
:1054200018951F920F920FB60F9211240BB60F9280
:105430002F933F934F935F936F937F938F939F939C
:10544000AF93BF93EF93FF938091BF070E943F37C5
:105450002091C3073091C4072F5F3F4F3093C4079B
:105460002093C3079091C207953618F096E0909369
:10547000BE079091BE079430C9F128F4923069F0CC
:105480009330D1F05EC0953009F451C0963009F0E8
:1054900058C091E090938F0851C0811152C0209163
:1054A000C3073091C4072436310508F442C0109276
:1054B0008F081092C2071CC0813009F042C0E091F1
:1054C000C20791E09E0F9093C207F0E02091C307BE
:1054D0003091C407EE0FFF1FE254F84F3087278347
:1054E0001092C4071092C30794E029C0811117C01D
:1054F000E091C20791E09E0F9093C207F0E02091E7
:10550000C3073091C407EE0FFF1FE254F84F3087F6
:1055100027831092C4071092C30793E010C0209114
:10552000C3073091C4072536310558F007C08111F3
:1055300008C01092C4071092C30703C095E090936F
:10554000BE079091C1079923B9F081110AC08091DB
:10555000C007882321F08091C00761E009C02F9A1D
:105560000BC08091C007882331F08091C00760E0B4
:105570000E94673701C02F98FF91EF91BF91AF91C3
:105580009F918F917F916F915F914F913F912F915B
:105590000F900BBE0F900FBE0F901F9018951F928B
:1055A0000F920FB60F9211240BB60F922F933F93C9
:1055B0004F935F936F937F938F939F93EF93FF939B
:1055C00040916A0650916B0660916C0670916D0671
:1055D000411551056105710599F08091DB05E09158
:1055E000DC05F091DD05908189278083141615066E
:1055F00016061706D4F4415051096109710915C006
:10560000809170008D7F809370009091DB05E09118
:10561000DC05F091DD058081282F30E0892F90E0B6
:105620008095909582239323808340936A065093BC
:105630006B0660936C0670936D06FF91EF919F91DE
:105640008F917F916F915F914F913F912F910F902B
:105650000BBE0F900FBE0F901F9018951F920F92C8
:105660000FB60F9211240BB60F922F933F938F9387
:105670009F93AF93BF93EF93FF9380916E069091AA
:105680006F06A0917006B0917106892B8A2B8B2B27
:1056900051F18091DE05E091DF05F091E005908108
:1056A0008927808380916E0690916F06A091700685
:1056B000B0917106181619061A061B064CF5809152
:1056C0006E0690916F06A0917006B09171060197D9
:1056D000A109B10980936E0690936F06A09370069E
:1056E000B093710615C080916F008D7F80936F001D
:1056F0009091DE05E091DF05F091E0058081282F93
:1057000030E0892F90E080959095822393238083C9
:10571000FF91EF91BF91AF919F918F913F912F9109
:105720000F900BBE0F900FBE0F901F9018951F92F9
:105730000F920FB60F9211240BB60F922F933F9337
:105740008F939F93AF93BF93EF93FF9380917206D4
:1057500090917306A0917406B0917506892B8A2BDF
:105760008B2B51F18091E105E091E205F091E30589
:105770009081892780838091720690917306A09111
:105780007406B0917506181619061A061B064CF514
:105790008091720690917306A0917406B09175067F
:1057A0000197A109B1098093720690937306A093A3
:1057B0007406B093750615C080916E008D7F80933E
:1057C0006E009091E105E091E205F091E3058081A2
:1057D000282F30E0892F90E08095909582239323A5
:1057E0008083FF91EF91BF91AF919F918F913F91F6
:1057F0002F910F900BBE0F900FBE0F901F9018951A
:105800000F931F930091560610915706209158064A
:1058100030915906DC01CB01800F911FA21FB31FED
:105820008093560690935706A0935806B093590656
:1058300026DD1F910F9135C53F924F925F926F9277
:105840007F928F929F92AF92BF92CF92DF92EF9210
:10585000FF920F931F93CF93DF93382E962E842EB3
:10586000F90184E6E816F1042CF082EBE81A87E0EF
:10587000F80A03C08EE1E80EF11CE092690600937D
:105880006806E093670630926506909264068092FF
:105890006306AE2DB0E020E833E341EE51E00E9414
:1058A00045482B013C0122EB37E0FF2484E6C82E5B
:1058B000D12CC0E9D1E0C901825B97408E159F05CC
:1058C000DCF4C90183709927892B99F4C901B601C9
:1058D0000E941849892B31F4C901BE010E94184960
:1058E000892B39F480E8480E81E5581E81E0681E56
:1058F000711C2F5F3F4FDFCF8EE4E81A88EFF80A64
:10590000C70164E670E00E9418496C01C70160E9B4
:1059100071E00E9418495C01C1E0D0E0112783E0EA
:10592000E822FF24C017D1072CF5C230D10589F435
:10593000E114F10471F4C114D10419F4A114B104F7
:1059400041F480E8480E8BE3581E86E2681E711C05
:105950000FC0DE01AD51BC4FAC91B0E020E831E5A5
:1059600041E050E00E944548460E571E681E791ED1
:105970002196D8CF292D30E0ACE3B0E00E944F480B
:105980006B017C01C80CD11CE11CF11C232D30E003
:10599000A0E1BEE00E944F48C60ED71EE81EF91EC9
:1059A000DF01BB27119720E831E541E050E00E947C
:1059B0005549DC01CB018C0D9D1DAE1DBF1DBC01E9
:1059C000CD01640D751D861D971DDF91CF911F912F
:1059D0000F91FF90EF90DF90CF90BF90AF909F908E
:1059E0008F907F906F905F904F903F9022CC47DCDC
:1059F00095DB8091690690E08E54984F08953FDCC6
:105A00008DDB8091680690E0089539DC87DB80911A
:105A1000670690E0089533DC81DB8091630690E0B7
:105A200008952DDC7BDB8091640690E0089527DCEF
:105A300075DB20916506222331F0822F90E02D3016
:105A400020F00C9708958CE090E0089518DC66DB58
:105A50008091650690E00895CF92DF92EF92FF92D9
:105A6000CF93DF93EC01D9DB6B017C018F850E9422
:105A70003F3721E0892B09F420E0298B88898111A7
:105A800003C081E08227898B29898A89281721F020
:105A9000CD8ADE8AEF8AF88E8D899E89AF89B88D8E
:105AA000B701A601481B590B6A0B7B0BDB01CA012E
:105AB000CB80DC80ED80FE80C416D506E606F706B6
:105AC00064F43A81231749F02A83222331F04B8969
:105AD0005C894F5F5F4F5C8B4B8B3A8131110CC0FF
