:100000000C945E020C948F020C948F020C948F025D
:100010000C948F020C948F020C948F020C948F021C
:100020000C948F020C948F020C948F020C948F020C
:100030000C948F020C945A380C948F020C948F02FB
:100040000C948F020C94AD380C948F020C948F0298
:100050000C948F020C940C390C948F020C949036F3
:100060000C948F020C9464370C943A370C948F02E2
:100070000C948F020C948F020C948F020C948F02BC
:100080000C948F020C948F020C948F020C948F02AC
:100090000C9404370C94DA360C948F020C946B3960
:1000A0000C948F020C948F020C948F3A0C948F0254
:1000B0000C948F020C948F020C948F020C949A373C
:1000C0000C948F020C948F020C948F020C948F026C
:1000D0000C948F020C948F020C948F020C948F025C
:1000E0000C948F020C946E0F0C946C0D0C94BE2F1C
:1000F0000C94D0290C948F0D0C94A10F0C94040433
:100100000C94F3030C94C7070C941C040C942A045D
:100110000C9418040C94D1080C9419080C94D2294E
:100120000C9478340C946A0F0C9427080C94C9072B
:100130000C9420040C94D4290C94F7030C94E5033C
:100140000C9444350C94CC290C94FA030C94E834A8
:100150000C9470440C9469080C94EF030C94000404
:100160000C947C0D0C9405080C94D6290C94A033A7
:100170000C94C30D0C948D2F0C94A4340C94670E26
:100180000C94B2290C94D8290C946D0D0C9426046F
:100190000C947C0F0C940A040C94A30F0C945E0F27
:1001A0000C94EB030C94960D0C9463350C94DA29A3
:1001B0000C940E040C94F6070C94B83C0C941204A6
:1001C0000C94B40F0C9425040C94C607557064610C
:1001D00074696E672074696D652066726F6D204763
:1001E00050532E2E2E00496E636F72726563742019
:1001F000536F6E6720466F726D61742100524742E3
:100200003D6F6666005247423D6F6E004D6F6E74E3
:10021000683A004461793A00446F776E206C6F6EE3
:10022000672E2E2E2E00446F776E2073686F7274C7
:10023000005570206C6F6E672E2E2E2E005570208C
:1002400073686F7274004D6F6465206C6F6E672EFB
:100250002E2E2E004D6F64652073686F72740041FE
:100260006C6C20617474656D707473207765726551
:1002700020756E7375636365737366756C2E0041CC
:100280007474656D707420746F2073796E63207759
:10029000697468204750532E0057616B6520757054
:1002A0002C204E656F210044617465206F722054CC
:1002B000696D65206E6F7420696E2072616E67656E
:1002C00000426C75653D00475245454E3D00524524
:1002D000443D005265616465642066726F6D20451F
:1002E0004550524F4D000201004661756C747920F3
:1002F000525443210053746F70205465737400543A
:10030000656D702E2073656E736F72206E6F742032
:10031000666F756E642E00475053204E4F54206414
:100320006574656374656421004750532064657487
:1003300065637465640053746172742054657374EA
:10034000004E43533331382F35363820666F7220D4
:10035000485720312E7820485635313232206F727E
:1003600020485635323232004669726D77617265C7
:100370002076657273696F6E3A20005761726E69FC
:100380006E67212052544320444F4E27542052453B
:1003900053504F4E44210000002100240027002A22
:1003A000002D003000330001010000040107010AA4
:1003B0000100000A0B02090C0D0E080703040100DE
:1003C000000000000000000000000000000000002D
:1003D00000000000000000000000000000121110EA
:1003E000000000000000000000000000000000000D
:1003F0000000000000000000002200250028002B63
:10040000002E003100340002010000050108010B3C
:1004100001000020002300260029002C002F0032BC
:10042000000001000003010601090105050505079B
:100430000508080808020202020A0A08080404045F
:10044000040101010101010101030303030303038B
:1004500003040707070C0C0C0C0C0C0C0C0202021A
:100460000206060606060606060B0B0B0B0B0B0B0D
:100470000B010210202008081020401020408002AC
:1004800001020108040201010204081020408080DA
:10049000402010080402018004020180402010085E
:1004A0000402010804020101020408102040800136
:1004B0000204081020408000B83C704411241FBE84
:1004C000CFEFD1E2DEBFCDBF00E00CBF29E0ACE949
:1004D000B4E001C01D92AF3AB207E1F714E0A0E02A
:1004E000B2E0E0E7F3E900E00BBF02C007900D9235
:1004F000AC39B107D9F712E0CDE5D2E000E006C093
:1005000021970109802FFE010E947947CC35D10740
:1005100080E00807A9F70E944F3E0C94A6490C946E
:1005200000008F929F92AF92BF92CF92DF92EF9294
:10053000FF92CF932091FF08309100098217930713
:10054000E8F54B01AA24BB24C82DC52ED62EE72ED4
:10055000FF24BC2DA42F20910509222361F0829E47
:1005600040011124C92D2C9D60011124BD2D249F13
:10057000F0011124AF2FE0910B09E0900609F090F3
:10058000070930910809E31323C09C01220F331F90
:10059000820F931F8E0D9F1DE0910809E80FF92F20
:1005A000F11DC083E0910909E80FF92FF11DB08317
:1005B00020910A09820F911DFC01A083CF91FF9029
:1005C000EF90DF90CF90BF90AF909F908F90089565
:1005D000880F991F880F991F8E0D9F1D472F552734
:1005E00066277727222349F030E0249F7001259F5A
:1005F000F00C349FF00C11244F2DE80FF92FF11D52
:100600004083CACF8CBD9DBD089580916409E0915F
:100610006509F0916609F8949181982B9183228164
:10062000382F309523232283A7E0B0E01197F1F70C
:10063000918193239183A3E2B0E01197F1F7908128
:100640007894EFECF0E03197F1F7982381E009F42A
:1006500080E0089590916409E0916509F091660940
:10066000292F209580FF14C0F894828182238283F1
:100670008181892B8183A3E2B0E01197F1F7828118
:10068000982B9283789487ED90E00197F1F7089585
:10069000F8948281822382838181892B8183AFEFC9
:1006A000B0E01197F1F78281982B928378948FE0D4
:1006B00090E0EBCF0F931F93CF93DF93082FC8E009
:1006C000D0E011E081E0902F912309F480E00E94B6
:1006D0002A03110F2197B1F7F894E0916509F09181
:1006E0006609918180916409809598239183E091B6
:1006F0006509F09166099281892382837894DF915C
:10070000CF911F910F91089580916409E09165093F
:10071000F0916609F8949181282F20959223918376
:1007200078943DE743E050E0315029F1DA01119728
:10073000F1F790819823C1F3F894928192239283E8
:100740009181982B91837894ABE7B7E01197F1F7FB
:10075000F894918192239183A3E1B1E01197F1F78D
:100760009081982381E009F080E07894E3E6F6E058
:100770003197F1F7089580E0089591E09093B306E2
:100780008093D5061092B4061092D6060895815033
:10079000823108F05AC0E82FF0E08827ED52FC4F74
:1007A0008F4F0C947947F303F703E503EB03EF0353
:1007B0002504FA03000404040A040E0412041804B5
:1007C0001C042504200426042A04809180008F77CD
:1007D000809380000895809180008F7DF9CF809173
:1007E0008000877FF5CF84B58F7784BD089584B569
:1007F0008F7DFBCF8091B0008F778093B0000895FC
:100800008091B0008F7DF9CF809190008F77809399
:1008100090000895809190008F7DF9CF8091900095
:10082000877FF5CF8091A0008F778093A0000895F7
:100830008091A0008F7DF9CF8091A000877FF5CFB8
:10084000809120018F77809320010895809120016D
:100850008F7DF9CF80912001877FF5CFCF93DF93F4
:10086000282F30E0F901EF54FC4F8491F901EF5843
:10087000FB4FD491F901E55DFB4FC491CC23A1F06E
:1008800081110E94C703EC2FF0E0EE0FFF1FEF5E17
:10089000FB4FA591B491EC91ED2381E090E009F438
:1008A00080E0DF91CF91089580E090E0FACF1F9330
:1008B000CF93DF93282F30E0F901EF54FC4F849160
:1008C000F901EF58FB4FD491F901E55DFB4FC4915D
:1008D000CC23A9F0162F81110E94C703EC2FF0E062
:1008E000EE0FFF1FE950FC4FA591B4918FB7F8941C
:1008F000EC91111108C0D095DE23DC938FBFDF91FE
:10090000CF911F910895DE2BF8CFCF93DF9390E026
:10091000FC01EF58FB4F2491855D9B4FFC018491B6
:100920008823C9F090E0880F991FFC01E956FC4F1D
:10093000A591B491FC01E950FC4FC591D49161118E
:100940000DC09FB7F8948C91209582238C93888159
:10095000282328839FBFDF91CF910895623051F4FF
:100960009FB7F8943C91822F809583238C93E881E4
:100970002E2BEFCF8FB7F894EC912E2B2C938FBFAB
:10098000EACF4F925F926F927F928F929F92AF9237
:10099000BF92CF92DF92EF92FF920F931F93CF936C
:1009A000DF9300D01F921F92CDB7DEB72091E406EF
:1009B00027FD2CC149835A836B837C838C0161E0C2
:1009C0008091E3060E9485048091E4068D834801AE
:1009D000B12CA12C8D7F09F031C160E072E18AE772
:1009E00090E0A50198010E945A4729013A017A0135
:1009F000690191E0C91AD108E108F108AFEFCA1600
:100A0000D104E104F10409F00CF4C7C060E472E41D
:100A10008FE090E0A50198010E945A4769017A0190
:100A2000B1E0CB1AD108E108F1088D81823009F0DC
:100A30006AC082E09FEFC916D104E104F10409F015
:100A40000CF45EC160E970ED83E090E0A5019801CF
:100A50000E945A4769017A01A1E0CA1AD108E10847
:100A6000F10883E0BFEFCB16D104E104F10409F0F3
:100A70000CF446C168E478EE81E090E0A5019801AD
:100A80000E945A4769017A0181E0C81AD108E10839
:100A9000F10884E09FEFC916D104E104F10409F0E4
:100AA0000CF42EC164E274EF80E090E0A5019401A3
:100AB0000E945A4769017A01B1E0CB1AD108E108D6
:100AC000F10885E09FEFC916D104E104F10409F0B3
:100AD00008F416C162E17AE780E090E0A501940194
:100AE0000E945A4769017A01B1E0CB1AD108E108A6
:100AF000F1088FEFC816D104E104F10411F008F0F9
:100B0000F0C086E0FDC08FEFC816D104E104F10407
:100B100009F00CF491C068E478EE81E090E0A50162
:100B200098010E945A4769017A0191E0C91AD108D7
:100B3000E108F108AD8184E0A111C4CF83E0AFEFFB
:100B4000CA16D104E104F10461F15CF162E17AE7D3
:100B500080E090E0A50194010E945A4769017A0162
:100B600081E0C81AD108E108F10884E09FEFC916B6
:100B7000D104E104F104A9F0A0F0730162019AE04C
:100B8000F594E794D794C7949A95D1F7A1E0CA1A3F
:100B9000D108E108F10885E004C081E0AD81A11130
:100BA000AFC095B5987F892B85BD89819A81AB812E
:100BB000BC812FEF3FEFA901892B8A2B8B2B79F07A
:100BC000D801AA0FBB1F29813A814B815C810E9409
:100BD000324628EE33E040E050E00E9438479D81E5
:100BE000913009F45CC0923009F46BC091110EC0D1
:100BF000C7BC2093DF063093E0064093E106509394
:100C0000E20680916E00826080936E000F900F90DC
:100C10000F900F900F90DF91CF911F910F91FF9048
:100C2000EF90DF90CF90BF90AF909F908F907F908C
:100C30006F905F904F90089582E0B0CF60E072E1D6
:100C40008AE790E0A50198010E945A4769017A015C
:100C5000B1E0CB1AD108E108F10891E0C114D10448
:100C600081E0E806F10484F068E478EE81E090E049
:100C7000A50198010E945A4769017A0191E0C91AB9
:100C8000D108E108F10893E0AD81A13009F08DCFE2
:100C900080918100887F892B8093810086CFD092BC
:100CA0008900C09288002093DB063093DC064093D5
:100CB000DD065093DE0680916F00826080936F00A6
:100CC000A5CFC092B3002093D7063093D8064093A7
:100CD000D9065093DA06809170008260809370008C
:100CE00095CF730162018AE0F594E794D794C79495
:100CF0008A95D1F7B1E0CB1AD108E108F10887E075
:100D00009091B100987F892B8093B1004ECF3FB76F
:100D1000F8948091610690916206A0916306B0916B
:100D2000640626B5A89B05C02F3F19F00196A11DAA
:100D3000B11D3FBFBA2FA92F982F8827BC01CD0125
:100D4000620F711D811D911D42E0660F771F881F84
:100D5000991F4A95D1F70895CF92DF92EF92FF92B3
:100D60000F931F93CF93DF9300D000D000D0CDB767
:100D7000DEB78091060990910709892B09F480C09C
:100D8000C0900C09D0900D09E0900E09F0900F0969
:100D90000E9487066C157D058E059F0550F40E9404
:100DA000870660930C0970930D0980930E09909348
:100DB0000F090E94870600910C0910910D092091DE
:100DC0000E0930910F09601B710B820B930B6C3273
:100DD000714081059105A0F2F894809101099091EC
:100DE00002099A838983E0910609F0910709DF01DE
:100DF0001196808189879091FD08E0911009F0910A
:100E0000110980911209992309F449C09081982B06
:100E100098879081809589238F838F818C8388E048
:100E20008B8358856F8149853B812C8189819A818B
:100E3000508347FD252F3A952083262F39F0441FF4
:100E400000C000006083000000C0F2CF38E04D9188
:100E500060830000019761F7F0931109E093100996
:100E600049873B832C839A83898378940E948706E1
:100E700060930C0970930D0980930E0990930F09EC
:100E800029960FB6F894DEBF0FBECDBFDF91CF918C
:100E90001F910F91FF90EF90DF90CF900895908178
:100EA000982B98879081809589238F838F818E835B
:100EB00088E08D8358856F8149853D812E818981A8
:100EC0009A81508347FD252F00C000C0208300C0B9
:100ED00000C000C000C000C060830000262F3A950B
:100EE00041F0441F000000C000C000C000C000C0AE
:100EF000E8CF38E04D9100C0608300C0019709F74A
:100F0000F0931109E093100949873D832E83ABCFFD
:100F10008F929F92AF92BF92CF92DF92EF92FF9209
:100F20004B015C010E9487066B017C010E948706D1
:100F30006C197D098E099F09683E734081059105F2
:100F4000A8F321E0821A9108A108B10888EEC80E22
:100F500083E0D81EE11CF11C81149104A104B104AA
:100F600029F7FF90EF90DF90CF90BF90AF909F90C8
:100F70008F9008952FB7F89460915D0670915E068A
:100F800080915F06909160062FBF0895089508959F
:100F90000895AF92BF92CF92DF92EF92FF920F939C
:100FA0001F93CF93DF936C017B018B01040F151FFF
:100FB000EB015E01AE18BF08C017D10759F0699167
:100FC000D601ED91FC910190F081E02DC6011995BB
:100FD000892B79F7C501DF91CF911F910F91FF9078
:100FE000EF90DF90CF90BF90AF900895FC01538DAC
:100FF000448D252F30E0842F90E0821B930B5417F3
:1010000010F0CF96089501970895FC01918D828D7F
:10101000981761F0A28DAE0FBF2FB11D5D968C9118
:10102000928D9F5F9F73928F90E008958FEF9FEF57
:101030000895FC01918D828D981731F0828DE80F13
:10104000F11D858D90E008958FEF9FEF0895FC01CD
:10105000918D228D892F90E0805C9F4F821B91099A
:101060008F739927089585EE96E00E94270821E066
:10107000892B09F420E0822F089582E897E00E94EE
:10108000270821E0892B09F420E0822F0895FC0134
:10109000A48DA80FB92FB11DA35ABF4F2C91848DD9
:1010A00090E001968F739927848FA689B7892C9336
:1010B000A089B1898C91837080648C93938D848D89
:1010C000981306C00288F389E02D80818F7D80838C
:1010D0000895EF92FF920F931F93CF93DF93EC014C
:1010E00081E0888F9B8D8C8D98131AC0E889F989CF
:1010F000808185FF15C09FB7F894EE89FF896083D2
:10110000E889F98980818370806480839FBF81E052
:1011100090E0DF91CF911F910F91FF90EF90089594
:10112000F62E0B8D10E00F5F1F4F0F731127E02E6F
:101130008C8D8E110CC00FB607FCFACFE889F989A7
:10114000808185FFF5CFCE010E944708F1CFEB8D5E
:10115000EC0FFD2FF11DE35AFF4FF0829FB7F8947B
:101160000B8FEA89FB8980818062CFCF0F931F9319
:10117000CF93DF938C01D0E0C0E0F801EC0FFD1FAE
:101180006491662341F082E897E00E946908892B08
:1011900011F02196F2CFCE01DF91CF911F910F91E7
:1011A0000895CF93DF93EC01888D8823B9F0AA8945
:1011B000BB89E889F9898C9185FD03C0808186FD12
:1011C0000DC00FB607FCF7CF8C9185FFF2CF808161
:1011D00085FFEDCFCE010E944708E9CFDF91CF9187
:1011E000089580E090E0892B29F00E943D0881114C
:1011F0000E94000080E090E0892B29F00E943308D3
:1012000081110E94000080E090E0892B49F080E08D
:1012100090E0892B29F00E94000081110E940000BB
:1012200080E090E0892B49F080E090E0892B29F064
:101230000E94000081110C9400000895609328061C
:101240007093290680932A0690932B06645D7E4F47
:101250008F4F9F4F60932406709325068093260638
:101260009093270682E090E09093230680932206D5
:101270000E94BA0760931E0670931F068093200693
:10128000909321060895CF92DF92EF92FF920F93F1
:101290001F930E94BA078B019C01C0901E06D0903C
:1012A0001F06E0902006F0902106609128067091BC
:1012B000290680912A0690912B060C191D092E09EA
:1012C0003F09083E134021053105E0F0DC01CB0168
:1012D0000196A11DB11D8093280690932906A09325
:1012E0002A06B0932B06B701A60148515C4F6F4FF9
:1012F0007F4F40931E0650931F0660932006709305
:101300002106C7CF1F910F91FF90EF90DF90CF90F4
:1013100008954F925F926F927F928F929F92AF92B9
:10132000BF92CF92DF92EF92FF920F931F93CF93D2
:10133000DF93FC011681A12FB0E020E833E341EEFA
:1013400051E00E9432464B015C01C2EBD7E09D01A7
:1013500004E610E080E9E82EFF24F394CE01825BDE
:101360009740821793079CF14580512C2E54384F9B
:10137000C90164E670E00E9424477C01C90160E96C
:1013800071E00E9424476C010CE613E0C1E0D0E05C
:10139000390183E068227724C415D5050CF040C0DC
:1013A000C230D10571F56114710459F5E114F104ED
:1013B00019F4C114D10429F5B0E88B0EBBE39B1ED0
:1013C000B6E2AB1EB11C21960F5F1F4FE5CFCE01D9
:1013D00083709927892B99F4CE01B8010E94244784
:1013E000892B31F4CE01B7010E942447892B39F4AF
:1013F000A0E88A0EA1E59A1EA1E0AA1EB11C2196C2
:10140000ADCFD8018C91A82FB0E020E831E541E0C4
:1014100050E00E943246860E971EA81EB91ED3CFFA
:10142000228130E0A0E1BEE00E943D466B017C01DC
:10143000218130E0ACE3B0E00E943D46C60ED71EED
:10144000E81EF91E8081C80ED11CE11CF11CA4818C
:10145000A150BB0B20E831E541E050E00E948847F5
:101460006C0D7D1D8E1D9F1D680D791D8A1D9B1D98
:10147000DF91CF911F910F91FF90EF90DF90CF9070
:10148000BF90AF909F908F907F906F905F904F90A4
:101490000895EF92FF920F9394E6E916F104CCF0D1
:1014A00092EBE91A97E0F90AE092320600933106CE
:1014B0002093300680932E0660932D0640932C06D1
:1014C0008CE296E00E9489090F91FF90EF900C94B6
:1014D0001E099EE1E90EF11CE7CF6F927F928F9279
:1014E0009F92AF92BF92CF92DF92EF92FF920F93B3
:1014F0001F93CF93DF936B017C01EA018CE3882E6D
:10150000912CA12CB12CC701A50194010E94384750
:101510006883CA01B901A50194010E943847698313
:10152000C701B60120E13EE040E050E00E943847AC
:10153000CA01B90128E130E040E050E00E9438479C
:101540006A83C701B60120E831E541E050E00E941E
:10155000384769017A01CA01B9016C5F7F4F8F4F2B
:101560009F4F27E030E040E050E00E9438476F5F37
:101570006B83812C912C540140E094E6692E712CF0
:1015800000E911E0242F30E02E54384FF901E370C8
:10159000FF273097F9F4C901B3010E942447892B32
:1015A00031F4C901B8010E942447892B99F48EE6D1
:1015B00091E0A0E0B0E0880E991EAA1EBB1ED501E6
:1015C000C401AA27BB27C816D906EA06FB0638F0CD
:1015D0004F5FD8CF8DE691E0A0E0B0E0ECCF4E8336
:1015E000C90164E670E00E9424478C01C90160E9EA
:1015F00071E00E942447309729F401151105E1F4A8
:101600000097D1F04DE651E060E070E0841A950A51
:10161000A60AB70AC818D908EA08FB08ACE6B3E07E
:1016200020E0213071F4309791F50115110511F486
:10163000009769F54DE106C04EE651E060E070E0CC
:10164000E5CF4C9150E070E060E031E0320FC4161D
:10165000D506E606F70640F0C41AD50AE60AF70AE8
:101660001196232F3C30E9F62F5F2D83C394CC8253
:10167000DF91CF911F910F91FF90EF90DF90CF906E
:10168000BF90AF909F908F907F906F9008954CE1A6
:10169000D9CFCF92DF92EF92FF92C0901A06D090EE
:1016A0001B06E0901C06F0901D06C616D706E8063D
:1016B000F90671F06B017C014CE256E00E946D0A64
:1016C000C0921A06D0921B06E0921C06F0921D06EC
:1016D000FF90EF90DF90CF9008950E9443090E9401
:1016E000490B8091320690E08E54984F08950E94E5
:1016F00043090E94490B8091310690E008950E94B1
:1017000043090E94490B8091300690E008950E94A1
:1017100043090E94490B80912C0690E008950E9495
:1017200043090E94490B80912D0690E008950E9484
:1017300043090E94490B20912E06222331F0822F6B
:1017400090E02D3020F00C9708958CE090E0089503
:101750000E9443090E94490B80912E0690E0089553
:10176000CF92DF92EF92FF92CF93DF93EC010E9432
:10177000BA076B017C018F850E942E049C0181E0D9
:101780002115310509F480E0898B8889811105C014
:1017900091E0232B09F090E0998B29898A892817F9
:1017A00021F0CD8ADE8AEF8AF88E8D899E89AF89F5
:1017B000B88DB701A601481B590B6A0B7B0BDB01E7
:1017C000CA01CB80DC80ED80FE80C816D906EA060F
:1017D000FB0664F43A81231749F02A83222349F057
:1017E0004B895C894F5F5F4F5C8B4B8B3A8131112A
:1017F00017C0CF80D884E984FA84C816D906EA06CF
:10180000FB0634F48B899C89998388831C8A1B8A04
:101810002A8BDF91CF91FF90EF90DF90CF900895CA
:10182000CB84DC84ED84FE84C816D906EA06FB0668
:101830007CF78B899C89919581959109E5CF2091C1
:10184000F705260F3327331F21323105ECF42091A1
:10185000AD06FC0190E080E0243069F082E008955C
:10186000A091F7052191AC0149525A4FA40FB52F11
:10187000B11D2C930196861798F38091F705680F98
:101880006093F70580E0089581E008951092AD0619
:1018900081E08093AC061092870661E084E10E94AB
:1018A000570461E085E10E945704E9EBF0E0808194
:1018B0008E7F808380818D7F808388E48093B800D1
:1018C00085E48093BC000895CF93DF9391E09093DB
:1018D000D6058823B9F0C091B800D091BA008091A4
:1018E000BC008A7B8093BC0060E084E10E945704C6
:1018F00060E085E10E9457040E94460CD093BA0034
:10190000C093B800DF91CF910895CF92DF92EF920C
:10191000FF920F931F93CF93DF93D091D60681E070
:10192000D13208F09CC0C091D5060E9487066B0199
:101930007C018091AD0681116CC082E08093AD0680
:1019400081E08093AC068FEF8093AB061092AA06DD
:10195000D093A906A5EBB6E0E9E8F6E080E0D8135D
:101960008DC01092880680918806CC0FC82BC0933A
:10197000880680918706813009F084C0109287061E
:101980000E9487066B017C01809188068093BB00D2
:101990008091AF069091B006A091B106B091B206C9
:1019A000892B8A2B8B2BA1F00E9487060091AF0612
:1019B0001091B0062091B1063091B2066C197D09E4
:1019C0008E099F09061717072807390708F442C030
:1019D0008091BC0083FDD8CF85EC8093BC000E9431
:1019E00087066B017C018091AD06823009F44CC002
:1019F0008091AB068F3F09F469C08091AB068032BD
:101A000009F466C08091AB06803309F463C084E0BA
:101A100026C08091AF069091B006A091B106B0911A
:101A2000B206892B8A2B8B2B09F483CF0E94870661
:101A30000091AF061091B0062091B1063091B20628
:101A40006C197D098E099F090617170728073907A2
:101A500008F06FCF8091AE060E94640C85E0109272
:101A6000B4061092D6061092B306DF91CF911F9163
:101A70000F91FF90EF90DF90CF9008959D919193FB
:101A80008F5F6DCF85EEA9CF8091AF069091B006A4
:101A9000A091B106B091B206892B8A2B8B2B09F449
:101AA000A2CF0E9487060091AF061091B006209148
:101AB000B1063091B2066C197D098E099F0906178F
:101AC00017072807390708F08ECFC4CF80E0C7CFAB
:101AD00082E0C5CF83E0C3CF0895E0916606809190
:101AE0006506E81730F4F0E0E959F94F808190E09D
:101AF00008958FEF9FEF0895909166068091650697
:101B00002FEF3FEF981748F4E92FF0E0E959F94F2C
:101B1000208130E09F5F90936606C901089580910F
:101B2000650690916606891B990B0895CF92DF9206
:101B3000EF92FF920F931F93CF93DF937C01CB0122
:101B40008A012091B306222389F0EB016B01C40EB8
:101B5000D51ECC15DD0569F06991D701ED91FC9199
:101B60000190F081E02DC7011995F3CF642F0E94F9
:101B70001F0CC801DF91CF911F910F91FF90EF9043
:101B8000DF90CF900895CF93DF931F92CDB7DEB74C
:101B900069832091B3062223F9F02091D6062032E2
:101BA00058F021E030E0FC013383228390E080E0B4
:101BB0000F90DF91CF9108958091B406E82FF0E067
:101BC000EB54F94F998190838F5F8093B406809393
:101BD000D60681E090E0ECCF61E0CE0101960E9454
:101BE0001F0CF7CF682F8FE198E00C94C30DDF92A4
:101BF000EF92FF920F931F93CF93DF93182FF62E40
:101C0000D42ED22F80914F020E94BD0360E08FE15D
:101C100098E00E94C30DCAE08D2D6C2F0E940447EE
:101C20008295807F682F690F8FE198E00E94C30D35
:101C30008F2D6C2F0E9404478295807F682F690F3B
:101C40008FE198E00E94C30D812F6C2F0E94044702
:101C50008295807F682F690F8FE198E00E94C30D05
:101C600061E08FE198E00E94C30D8D2F6C2F0E94E0
:101C700004478295807F682F690F8FE198E00E946A
:101C8000C30D802F6C2F0E9404478295807F682FA0
:101C9000690F8FE198E00E94C30D8E2D6C2F0E947A
:101CA00004478295807F682F690F8FE198E00E943A
:101CB000C30D60E08FE198E00E94C30DDF91CF91EA
:101CC0001F910F91FF90EF90DF900C94850C90E0A6
:101CD00080E00895CF93DF93D0E0C0E040E050E093
:101CE000BA01CE010E9491022196C830D105B1F708
:101CF000DF91CF910C94AC064091B6055091B70599
:101D00002091B4053091B50580E09CE3421753075C
:101D100011F48FEF9FEF4F5F5F4F4330510529F074
:101D20005093B7054093B60508951092B7051092E9
:101D3000B6052F5F3F4F2330310529F03093B505AD
:101D40002093B40508951092B5051092B405089536
:101D5000CF92DF92EF92FF920F931F93CF93DF9377
:101D60009091B30591110BC08FEF9FEFDF91CF9151
:101D70001F910F91FF90EF90DF90CF900895909179
:101D8000B205992389F3082FC091B105D0E0809165
:101D9000A90581110DC00E94BA076093A505709333
:101DA000A6058093A7059093A80581E08093A905D7
:101DB0000E94BA07C090A505D090A605E090A7059F
:101DC000F090A8056C197D098E099F096D3271404C
:101DD00081059105B0F01091A4050E94BA076093A7
:101DE000A5057093A6058093A7059093A80591E09B
:101DF00091279093A405992331F11092A305109295
:101E0000A2052091A2053091A305209530958091DF
:101E1000A105282326FF1CC081E08093A00527FF91
:101E20001AC081E080939F058091A405882309F45E
:101E30009BCF02C0D595C7950A95E2F7C0FF94CF16
:101E400080E09CE393CFD093A305C093A205D9CFA4
:101E50001092A005E4CF10929F05E6CFEF92FF927B
:101E60000F931F93CF93DF93182F809197058111C4
:101E70000DC00E94BA0760939305709394058093F8
:101E800095059093960581E080939705C091910503
:101E9000D0919205C930D10508F077C0FE0188279E
:101EA000EB5AF04F8F4F0C9479475E0F6A0F6E0F0D
:101EB0007C0F5E0F6A0FA10FA30FB40F0E94840363
:101EC0002196CA30D10509F097C010929205109260
:101ED000910528C08CEC0E945A03F2CF84E40E9442
:101EE0005A030E94BA0760939305709394058093F8
:101EF000950590939605E4CF0E94BA07009193054B
:101F0000109194052091950530919605601B710BF9
:101F1000820B930BC4E0D0E06E3E724081059105C8
:101F200008F06AC060918D0570918E0580918F05D3
:101F300090919005DF91CF911F910F91FF90EF90BD
:101F400008958EEBC8CF98E0E92EF12C10E001E067
:101F50000E9405038111102B000F81E0E81AF1089F
:101F6000B9F710938B05ACCF88E0E82EF12C10E088
:101F700001E00E9405038111102B000F21E0E21AFD
:101F8000F108B9F710938C059BCFC930D10509F042
:101F900097CF60918B0570918C056F3F760711F498
:101FA00070E060E0072E000C880B990B0E94FF4444
:101FB00020E030E040E85DE30E945E4511110FC073
:101FC00020E030E040E251E40E945E4560938D05E0
:101FD00070938E0580938F059093900571CF26E6C0
:101FE00036E646EE5FE30E945E4520E030E040E0EA
:101FF00052E40E944D46E4CFD0939205C0939105E0
:1020000091CFCF93DF93EC012196FC0120812A33FD
:10201000C9F42181243609F5229630E020E06AE0F7
:10202000899190ED980F9A3078F4629FA001639F98
:10203000500D1124082E000C990BC0979A01280FFF
:10204000391FEECFCE01DFCF3093590520935805CD
:102050002115310511F020931F0288818F3689F4F4
:102060008A81082E000C990B9C0120533109309372
:10207000590520935805C397059710F420931E0225
:10208000249688818236F1F4229630E020E06AE0DE
:10209000899190ED980F9A3068F4629FA001639F38
:1020A000500D1124082E000C990BC0979A01280F8F
:1020B000391FEECF309359052093580530931D02F8
:1020C00020931C0220911C0230911D02032E000C53
:1020D000440B550B60E67AEE80E090E00E945A4790
:1020E00082E0220F331F441F551F8A95D1F720939A
:1020F0005405309355054093560550935705CE012E
:10210000DF91CF910895CF92DF92EF92FF920F93DC
:102110001F93CF93DF93EC018B010E94BA07CE800F
:10212000DF80E884F984AB01BC014C195D096E09BC
:102130007F0988819981092E000CAA0BBB0B84179B
:102140009507A607B707A0F48A85882389F01A8621
:102150008D811C821D82823060F181E090E0DF91F0
:10216000CF911F910F91FF90EF90DF90CF90089546
:102170008B859C8580179107C9F481E08C838D81C4
:102180008F5F8D830E94BA076E837F8388879987CC
:1021900081E08A872D818A819B81281719064CF05E
:1021A0001C821D821A868FEF9FEFD9CF8C818111FF
:1021B00003C090E080E0D3CF0F3F1F4FD1F7DFCFB8
:1021C0008EBD00000DB407FEFDCF8EB508958F9231
:1021D0009F92AF92BF92CF92DF92EF92FF920F93B6
:1021E0001F93CF93DF937C01D62F0E9487064B016C
:1021F0005C018091AD06811167C0CD2F81E0809395
:10220000AD068093AC069FEF9093AB061092AA06A2
:102210009D0F9093A9068093880680918806EE0C06
:10222000FF1C8E298093880680918706813009F0F3
:1022300083C0109287060E9487066B017C01809103
:1022400088068093BB008091AF069091B006A09164
:10225000B106B091B206892B8A2B8B2BA1F00E947C
:1022600087068090AF069090B006A090B106B0901F
:10227000B2066C197D098E099F0986169706A80675
:10228000B90608F442C08091BC0083FDD8CF85EC2C
:102290008093BC000E9487066B017C018091AD0693
:1022A000813009F44BC08091AA068D1710F4C091BB
:1022B000AA06E9E8F6E0A7E6B6E080E08C1751F15F
:1022C00091919D938F5FFACF8091AF069091B00668
:1022D000A091B106B091B206892B8A2B8B2B09F401
:1022E00088CF0E9487060091AF061091B00620911A
:1022F000B1063091B206681979098A099B09061757
:1023000017072807390708F074CF8091AE060E949E
:10231000640CC0E010926606C09365068C2FDF91B6
:10232000CF911F910F91FF90EF90DF90CF90BF90D2
:10233000AF909F908F90089585EEAACF8091AF06C1
:102340009091B006A091B106B091B206892B8A2B6C
:102350008B2B09F4A3CF0E9487068090AF06909044
:10236000B006A090B106B090B2066C197D098E0936
:102370009F0986169706A806B90608F08FCFC5CF25
:10238000CF93C0914F028C2F0E94BD0360E08FE17C
:1023900098E00E94C30D0E94850C67E070E08C2FCE
:1023A00090E00E94E7108FE198E00E947C0D982F4A
:1023B00092959F70CAE08F709C9F800D112490E0D1
:1023C00090935A06809359068FE198E00E947C0D05
:1023D000982F92959F708F709C9F800D112490E094
:1023E00090935106809350068FE198E00E947C0DF7
:1023F000982F929593708F709C9F800D112490E080
:1024000090934F0680934E068FE198E00E947C0DDA
:102410008FE198E00E947C0D982F92959F708F70AD
:102420009C9F800D112490E0909353068093520658
:102430008FE198E00E947C0D982F92959F708F708D
:102440009C9F800D112490E0909355068093540634
:102450008FE198E00E947C0D982F92959F708F706D
:102460009C9F800D112490E0909357068093560610
:10247000CF910895CF93DF93EC01888199810097E4
:1024800011F00E942C48198218821D821C821B8226
:102490001A82DF91CF910895FC018081918100978C
:1024A00011F00C942C4808958F929F92AF92BF9296
:1024B0000F931F93CF93DF93CDB7DEB7A1970FB6DE
:1024C000F894DEBF0FBECDBF19A2423008F44AE037
:1024D0008E010F5D1F4F842E912CB12CA12CA501D4
:1024E00094010E943847E62FB901CA01EA3044F549
:1024F000E05DD801EE938D01232B242B252B79F75A
:1025000090E080E0109769F0FD0101900020E9F76C
:102510003197AF014A1B5B0BBD0182E897E00E9437
:10252000C907A1960FB6F894DEBF0FBECDBFDF91ED
:10253000CF911F910F91BF90AF909F908F90089572
:10254000E95CD7CF42E050E064EC73E082E897E0CA
:102550000C94C907CF93DF930E94B608EC010E9448
:10256000A2128C0F9D1FDF91CF9108950F931F939F
:102570008091470290914802892B09F44DC08091C7
:1025800063058823A9F00E94BA0700915F051091A6
:1025900060052091610530916205601B710B820B13
:1025A000930B693E734081059105B0F1109263056C
:1025B0000E94A80B2091410230914202821793079A
:1025C00059F50E948F0B20914302309144028217EB
:1025D000930711F50E94870B209145023091460226
:1025E00082179307C9F40E94BA0760935F0570933E
:1025F0006005809361059093620581E08093630597
:1026000089E992E00E94AA12809124029091250209
:1026100090934D0680934C061F910F910895CF9291
:10262000DF92EF92FF92CF93DF936C01990FEE0848
:10263000FF08F7FE1DC06DE282E897E00E9469087E
:10264000EC0166277727CB016C197D098E099F095C
:102650004AE00E945412C80FD91F0E94A2128C0F88
:102660009D1FDF91CF91FF90EF90DF90CF90089565
:102670004AE0C701B6010E945412EC01EECFCF939D
:10268000DF93682F70E090E080E04AE00E945412EF
:10269000EC010E94A2128C0F9D1FDF91CF91089533
:1026A000CF93DF93FC01448155816081718182E881
:1026B00097E00E94C907EC010E94A2128C0F9D1F97
:1026C000DF91CF910895FC0180819181009711F0F5
:1026D0000C94874460E070E0CB0108950F931F9342
:1026E000CF93DF938C01EB01FC01808191810097F6
:1026F000E1F06881798161157105A9F0428153810A
:102700002C813D814217530770F00E949F498C81B4
:102710009D81F801958384831D821C82DF91CF9176
:102720001F910F9108950E942C4888819981F8018A
:10273000918380838A819B81938382838C819D8115
:1027400095838483198218821B821A82E5CF0F93A6
:102750001F93CF93DF93EC0188819981009759F003
:102760002A813B812617370730F081E0DF91CF9136
:102770001F910F9108958B016F5F7F4F0E94B548A5
:10278000009759F0998388831B830A832C813D81AC
:10279000232B59F7FC011082E8CF80E0E7CFEF92BE
:1027A000FF920F931F93CF93DF936115710541F44F
:1027B00080E0DF91CF911F910F91FF90EF900895EE
:1027C00041155105B1F07B01EC010C811D81040F15
:1027D000151FB8010E94A713882351F3288139815E
:1027E0008C819D81B701820F931F0E949F491D8399
:1027F0000C8381E0DECFCF93DF93EC01FB010190EE
:102800000020E9F73197AF01461B570B0E94CF1309
:10281000811103C0CE010E943A12CE01DF91CF9107
:102820000895CF93DF93EC01FB01448155816081D2
:1028300071810E94CF13811103C0CE010E943A1210
:10284000CE01DF91CF910895EF92FF920F931F93E6
:10285000CF93DF93EC017B018A01BA010E94A71399
:1028600081110BC0CE010E943A12CE01DF91CF91AF
:102870001F910F91FF90EF9008951D830C83B70176
:10288000888199810E949F49F0CFFB01019000202F
:10289000E9F73197AF01461B570B0C9424140F93A3
:1028A0001F93CF93DF93CDB7DEB762970FB6F8943F
:1028B000DEBF0FBECDBF8C01CB01F80111821082AB
:1028C00013821282158214824AE0BE016F5F7F4F2D
:1028D0000E94AE44BE016F5F7F4FC8010E94451445
:1028E00062960FB6F894DEBF0FBECDBFDF91CF91D9
:1028F0001F910F910895CF93DF93EC01FB01861791
:10290000970749F0608171816115710541F044813B
:1029100055810E942414CE01DF91CF9108950E9429
:102920003A12F9CFFC0111821082138212821582B1
:1029300014820C947B14FC01118210821382128287
:1029400015821482FB0101900020E9F73197AF0155
:10295000461B570B0C942414AF92BF92CF92DF9278
:10296000EF92FF920F931F93CF93DF936C015B0164
:102970007A0189012417350720F48F2D7901042F5E
:10298000182F66EC73E0C6010E949B14D5011496C3
:10299000CD91DC91EC16FD06E0F40C171D0708F450
:1029A000E801D501ED91FC911197EC0FFD1F10810D
:1029B00010826D917C916E0D7F1DC60161157105B0
:1029C000A1F00E944514F50180819181C80FD91FA3
:1029D0001883C601DF91CF911F910F91FF90EF9067
:1029E000DF90CF90BF90AF9008950E943A12EBCF46
:1029F0004F925F926F927F928F929F92AF92BF920F
:102A0000CF92DF92EF92FF920F931F93CF93DF93BA
:102A100000D000D0CDB7DEB77C014B015A018091C8
:102A2000B80581113AC081E08093B8059BE6692E14
:102A300095E0792E25E6422E25E0522E10E000E0AA
:102A40000F5F1F4F680181E0C81AD1089801A601E5
:102A5000B401CE0101960E94AC14CE0101960E94F1
:102A60006313D3016D933D01CE0101960E944C1278
:102A70009801A601B501CE0101960E94AC14CE01C9
:102A800001960E946313F20161932F01CE0101961A
:102A90000E944C120630110599F6909164058BE660
:102AA000C82E85E0D82EE5E6F5E08601A801D8011C
:102AB0008C919A3008F04DC08F5F8C930F5F1F4F41
:102AC000DA018C918A3019F4D80111971C92319651
:102AD000B5E001371B0751F79F5F943109F43FC000
:102AE0009093640566EC73E0C7010E949B14FE019D
:102AF00031965F01D6018D916D014AE0B50190E0FC
:102B00000E94AE44F50101900020E9F73197AF0132
:102B10004A195B09B501C7010E94CF130C151D05A9
:102B200049F7C70126960FB6F894DEBF0FBECDBF9A
:102B3000DF91CF911F910F91FF90EF90DF90CF9099
:102B4000BF90AF909F908F907F906F905F904F90CD
:102B500008952081281709F4B1CF8F5FAECF10926E
:102B600064051092B805BECFCF92DF92EF92FF922C
:102B70001F93CF93DF93CDB7DEB72C970FB6F894A2
:102B8000DEBF0FBECDBF182F6AEE73E0CE010796F1
:102B90000E949B1422E030E050E040E0133071F0DE
:102BA00024E030E042E050E01C3041F01033B9F452
:102BB000209162093091630944E050E06EE579E0CC
:102BC000CE0101960E94AC14BE016F5F7F4FCE0113
:102BD00007960E946E13CE0101960E944C12CE0100
:102BE00007960E9463136B01CE0107960E944C1258
:102BF000C6012C960FB6F894DEBF0FBECDBFDF9195
:102C0000CF911F91FF90EF90DF90CF9008958F921A
:102C10009F92AF92BF92CF92DF92EF92FF920F936B
:102C20001F93CF93DF93CDB7DEB72C970FB6F894F1
:102C3000DEBF0FBECDBF8C016A017B018091830591
:102C4000811111C00E94BA07645B7B4F8F4F9F4F69
:102C500060937F0570938005809381059093820532
:102C600081E08093830580917705811109C067EC2D
:102C700073E081E795E00E949B1481E080937705E3
:102C80000E94BA0780907F0590908005A0908105F2
:102C9000B0908205681979098A099B09693E7340D9
:102CA0008105910508F4D0C00E94BA0760937F05A2
:102CB00070938005809381059093820520E030E039
:102CC000A901C701B6010E94EF4620E030E040E0D4
:102CD0005FE387FDD2C0C701B6010E944D460E9446
:102CE000B9467B0177FF04C0EE24FF24E61AF70AF9
:102CF0005B0139E1A31A3CEFB30A80914B0290913A
:102D00004C029B012D593F4F69012A553109490158
:102D1000B701892B09F0B6C0CE0107960E944F1467
:102D20006CEC73E0CE0101960E949B14BE01695FBA
:102D30007F4FCE0101960E9411146CEC73E00E944B
:102D4000FB13BC0181E795E00E947B14CE01019644
:102D50000E944C12CE0107960E944C123FECA31623
:102D600037E0B30618F5B701CE0107960E944F145D
:102D70006BEC73E0CE0101960E949B14BE01695F6B
:102D80007F4FCE0101960E9411146CEC73E00E94FB
:102D9000FB13BC0181E795E00E947B14CE010196F4
:102DA0000E944C12CE0107960E944C1287ECC81666
:102DB000D10418F5B701CE0107960E944F146AECB2
:102DC00073E0CE0101960E949B14BE01695F7F4FA4
:102DD000CE0101960E9411146CEC73E00E94FB136B
:102DE000BC0181E795E00E947B14CE0101960E9410
:102DF0004C12CE0107960E944C1223E182169104D8
:102E000018F5B701CE0107960E944F1469EC73E0E4
:102E1000CE0101960E949B14BE01695F7F4FCE01D7
:102E200001960E9411146CEC73E00E94FB13BC012C
:102E300081E795E00E947B14CE0101960E944C121E
:102E4000CE0107960E944C1261E775E0C8010E940E
:102E50009214C8012C960FB6F894DEBF0FBECDBFFA
:102E6000DF91CF911F910F91FF90EF90DF90CF9066
:102E7000BF90AF909F908F900895C701B6010E94B8
:102E80004C462DCFCE0107960E944F146CEC73E098
:102E9000CE0101960E949B14BE01695F7F4FCE0157
:102EA00001960E9411146CEC73E00E94FB13BC01AC
:102EB00081E795E00E947B14CE0101960E944C129E
:102EC000CE0107960E944C123FECA31637E0B306E2
:102ED00038F5C7016AE070E00E942447CE010796EA
:102EE0000E944F146BEC73E0CE0101960E949B147C
:102EF000BE01695F7F4FCE0101960E9411146BECF9
:102F000073E00E94FB13BC0181E795E00E947B14F3
:102F1000CE0101960E944C12CE0107960E944C12DF
:102F200087ECC816D10438F5C7016AE070E00E944A
:102F30002447CE0107960E944F146AEC73E0CE013D
:102F400001960E949B14BE01695F7F4FCE010196DE
:102F50000E9411146BEC73E00E94FB13BC0181E72B
:102F600095E00E947B14CE0101960E944C12CE0186
:102F700007960E944C1223E18216910408F064CF58
:102F8000C7016AE070E00E942447CE0107960E94C4
:102F90004F1469EC73E0CE0101960E949B14BE01B0
:102FA000695F7F4FCE0101960E9411146BEC73E0B4
:102FB0003CCF0F931F93CF93DF93CDB7DEB7A4978A
:102FC0000FB6F894DEBF0FBECDBF8B01833009F082
:102FD00069C0209162093091630942E050E06EE5DA
:102FE00079E0CE0149960E94AC14B80117FF04C0E5
:102FF00066277727601B710B075F1F4FCE010331D8
:10300000110508F04AC007960E944F146CEC73E05B
:10301000CE0101960E949B14BE01695F7F4FCE01D5
:1030200001960E941114BC01CE010D960E949214CB
:1030300011E0BE01635F7F4FCE0143960E94921460
:10304000BE01675E7F4FCE0143960E941114BC0102
:103050008EE599E00E947B14CE0143960E944C12AB
:10306000CE010D960E944C12112341F0CE01019623
:103070000E944C12CE0107960E944C12CE01499636
:103080000E944C12A4960FB6F894DEBF0FBECDBFBF
:10309000DF91CF911F910F9108950D960E944F14CB
:1030A00010E0C7CF8C3009F070C0209162093091D8
:1030B000630944E050E06EE579E0CE014F960E944E
:1030C000AC14B80117FF04C066277727601B710B8B
:1030D000075F1F4FCE010331110508F051C0439621
:1030E0000E944F146CEC73E0CE010D960E949B146D
:1030F000BE016D5E7F4FCE010D960E941114BC0182
:10310000CE0149960E94921411E022E030E050E096
:1031100040E06EE579E0CE0101960E94AC14BE015C
:103120006F5F7F4FCE0107960E949214BE01675ECB
:103130007F4FCE0107960E941114BE01615E7F4F42
:103140000E941114BC018EE599E00E947B14CE010F
:1031500007960E944C12CE0101960E944C12CE019D
:1031600049960E944C12112341F0CE010D960E9407
:103170004C12CE0143960E944C12CE014F9680CF46
:1031800049960E944F1410E0C0CF803309F07ACFE7
:1031900077FF04C066277727601B710B075F1F4FFF
:1031A000CE010331110508F049C043960E944F1427
:1031B0006CEC73E0CE010D960E949B14BE016D5E17
:1031C0007F4FCE010D960E941114BC01CE0149968D
:1031D0000E94921411E024E030E050E040E06EE5FF
:1031E00079E0CE0101960E94AC14BE016F5F7F4F63
:1031F000CE0107960E949214BE01675E7F4FCE01FA
:1032000007960E941114BC018EE599E00E947B1480
:10321000CE0107960E944C12CE0101960E944C12DC
:10322000CE0149960E944C12112309F42BCFCE01F6
:103230000D960E944C12CE01439622CF49960E94D1
:103240004F1410E0C8CF0E94BA0760935B057093DB
:103250005C0580935D0590935E0580915A058823F7
:1032600009F44FC02091BA053091BB05C901880F00
:10327000991F21313105A1F1FC01E95DFD4F40812C
:1032800051814150510951834083DC01A95DBD4FFB
:103290006D917C911197FC01E858FC4F4081518160
:1032A000641775073CF4FC01E05DFC4F40815181DF
:1032B0004D935C932031310509F5209147023091FF
:1032C000480221303105B9F420E82093A105895D39
:1032D0009D4FFC01608171818091B1050C94D917DB
:1032E0004091490250914A024C50510950934A0270
:1032F00040934902CACF1092A105E9CF2930310588
:1033000031F708950E94BA0760935B0570935C05DE
:1033100080935D0590935E0580915A05882309F49A
:1033200044C02091BA053091BB05C901880F991F8F
:103330002131310561F1FC01E95DFD4F4081518191
:103340004F5F5F4F51834083DC01A95DBD4F6D919D
:103350007C911197FC01E05DFC4F40815181461743
:1033600057073CF4FC01E858FC4F408151814D93D4
:103370005C9320313105B1F41092A105895D9D4F18
:10338000FC01608171818091B1050C94D917409145
:10339000490250914A02445F5F4F50934A02409362
:1033A0004902D2CF2930310549F70895CF92DF92F3
:1033B000FF920F931F93CF93DF93CDB7DEB7EC97B8
:1033C0000FB6F894DEBF0FBECDBF6C0180914902ED
:1033D00090914A02489709F032C10E94870B181653
:1033E0001906A4F40E94870B11E00A97ACF010E0D4
:1033F0000E94870B181619060CF04BC00E94870B11
:10340000BC01CE01C7960E944F1424C00E94870BB6
:1034100011E0873F9F4F5CF30E94870B1816190637
:1034200094F50E94870BBC01CE01C1960E944F14F7
:103430006CEC73E0CE018B960E949B14BE016F5C16
:103440007F4FCE018B960E941114BC01CE01C7960E
:103450000E9492140E948F0B1816190604F50E9400
:103460008F0B01E00A970CF100E00E948F0B1816F9
:1034700019060CF058C00E948F0BBC01CE01859636
:103480000E944F1430C00E94870B9195819591093D
:10349000CACF0E94870B919581959109B1CF0E9467
:1034A0008F0B01E0873F9F4FFCF20E948F0B181695
:1034B00019069CF50E948F0BBC01CE014F960E940D
:1034C0004F146CEC73E0CE0149960E949B14BE0130
:1034D000615E7F4FCE0149960E941114BC01CE015E
:1034E00085960E9492140E94A80B181619060CF5D6
:1034F0000E94A80BFF24F3940A9714F1F12C0E9468
:10350000A80B181619060CF094C00E94A80BBC0159
:10351000CE010D960E944F1432C00E948F0B9195E0
:1035200081959109C9CF0E948F0B91958195910941
:10353000A4CF0E94A80BFF24F394873F9F4FF4F27F
:103540000E94A80B181619060CF06DC00E94A80B5B
:10355000BC01CE0107960E944F146CEC73E0CE01C3
:1035600001960E949B14BE01695F7F4FCE010196B8
:103570000E941114BC01CE010D960E949214BE014E
:10358000635F7F4FCE0143960E949214BE016B5D34
:103590007F4FCE0143960E941114BE01695C7F4F9C
:1035A0000E941114BC01C6010E949214CE014396E0
:1035B0000E944C12CE010D960E944C12FF2041F049
:1035C000CE0101960E944C12CE0107960E944C1229
:1035D000CE0185960E944C12002341F0CE014996FF
:1035E0000E944C12CE014F960E944C12CE01C796FB
:1035F0000E944C12112341F0CE018B960E944C1276
:10360000CE01C1960E944C12C601EC960FB6F894FA
:10361000DEBF0FBECDBFDF91CF911F910F91FF9005
:10362000DF90CF9008950E94A80B91958195910904
:103630008FCF0E94A80B91958195910968CF0E9428
:10364000870B18161906A4F40E94870B11E00A973D
:10365000ACF010E00E94870B181619060CF04BC056
:103660000E94870BBC01CE01C7960E944F1424C054
:103670000E94870B11E0873F9F4F5CF30E94870BEE
:103680001816190694F50E94870BBC01CE01C1964D
:103690000E944F146CEC73E0CE018B960E949B1439
:1036A000BE016F5C7F4FCE018B960E941114BC014E
:1036B000CE01C7960E9492140E948F0B181619060D
:1036C00004F50E948F0B01E00A970CF100E00E94C4
:1036D0008F0B181619060CF052C00E948F0BBC01FC
:1036E000CE0185960E944F1430C00E94870B9195A1
:1036F00081959109CACF0E94870B91958195910977
:10370000B1CF0E948F0B01E0873F9F4FFCF20E94D8
:103710008F0B181619066CF50E948F0BBC01CE0199
:103720004F960E944F146CEC73E0CE0149960E94B4
:103730009B14BE01615E7F4FCE0149960E94111419
:10374000BC01CE0185960E9492140E94970B181618
:103750001906DCF40E94970BFF24F3940A97E4F017
:10376000F12C0E94970B181619060CF50E94970B66
:10377000CECE0E948F0B919581959109CFCF0E945B
:103780008F0B919581959109AACF0E94970BFF24E9
:10379000F394873F9F4F24F30E94970B1816190646
:1037A0001CF40E94970BD4CE0E94970B3ECF0E9430
:1037B000970B41CFEF92FF920F931F93CF93DF931D
:1037C000CDB7DEB7CE54D1090FB6F894DEBF0FBE29
:1037D000CDBF8091CE0581110DC00E94BA076093C4
:1037E000CA057093CB058093CC059093CD0581E0FD
:1037F0008093CE058091C20581110DC00E94BA0749
:103800006093BE057093BF058093C0059093C1057A
:1038100081E08093C2050E94BA070091CA05109109
:10382000CB052091CC053091CD05601B710B820B2F
:10383000930B0091200210912102209122023091DD
:103840002302061717072807390708F04DC00E9402
:10385000BA076093CA057093CB058093CC0590930B
:10386000CD058091BC059091BD05009709F0DEC0A3
:1038700081E090E09093BB058093BA0588E893E1DE
:10388000A0E0B0E08093200290932102A093220256
:10389000B09323028091BC059091BD0582309105C3
:1038A00081F41092BB051092BA0540E65AEE60E032
:1038B00070E04093200250932102609322027093A3
:1038C00023020196833091050CF0D0C09093BD0582
:1038D0008093BC058091B905882321F01092BB0527
:1038E0001092BA051092B9050E94BA070091CA0554
:1038F0001091CB052091CC053091CD05601B710B4B
:10390000820B930B603D77408105910508F070C6EE
:103910000E94BA070091BE051091BF052091C00515
:103920003091C105601B710B820B930B65367105DD
:103930008105910508F45AC30E94BA076093BE0539
:103940007093BF058093C0059093C1058091BA051F
:103950009091BB0520914306222309F461C3892B72
:1039600089F5CE0107960E94D61981E020914B027D
:1039700030914C02232B09F480E00E942E0FAB0102
:10398000BC01CE010D960E940716AE01495F5F4F44
:10399000BE01635F7F4FCE0101960E94F814BE0105
:1039A0006F5F7F4F8EE599E00E946E13CE01019606
:1039B0000E944C12CE010D960E944C12CE01079629
:1039C0000E944C128091BA059091BB05019709F0B5
:1039D0008BC10E946D0B08EE13E0B8010E942447D2
:1039E000181619060CF047C00E946D0BB8010E9412
:1039F000244711E00A970CF448C010E00E946D0BB8
:103A0000E8EEEE2EE3E0FE2EB7010E9424471816E2
:103A100019060CF084C00E946D0BB7010E94244768
:103A2000BC01CE010D960E944F1457C0019709F0BA
:103A300031CF84E090E09093BB058093BA0588E88D
:103A400093E1A0E0B0E08093200290932102A09344
:103A50002202B0932302809143068111CCC582E0FB
:103A600090E09093BD058093BC0514CF1092BD05E6
:103A70001092BC052FCF0E946D0BB8010E94244705
:103A800011E0873F9F4F0CF4B8CF0E946D0BF8EE0A
:103A9000EF2EF3E0FF2EB7010E94244718161906F7
:103AA000ACF50E946D0BB7010E942447BC01CE010A
:103AB00043960E944F146CEC73E0CE0149960E942D
:103AC0009B14BE016D5E7F4FCE0149960E9411147A
:103AD000BC01CE010D960E9492140E94770B18161D
:103AE000190634F50E94770B01E00A973CF100E0DB
:103AF0000E94770B181619060CF05EC00E94770B17
:103B0000BC01CE014F960E944F1436C00E946D0B2F
:103B1000B7010E942447919581959109C7CF0E94D2
:103B20006D0BB7010E94244791958195910978CF3B
:103B30000E94770B01E0873F9F4FCCF20E94770BEA
:103B4000181619069CF50E94770BBC01CE018596CC
:103B50000E944F146CEC73E0CE018B960E949B1474
:103B6000BE016B5D7F4FCE018B960E941114BC018C
:103B7000CE014F960E9492140E947F0B18161906D0
:103B80000CF50E947F0BFF24F3940A9714F1F12C9B
:103B90000E947F0B181619060CF0EEC00E947F0BD6
:103BA000BC01CE01C7960E944F1434C00E94770B0F
:103BB000919581959109C9CF0E94770B9195819537
:103BC00091099ECF0E947F0BFF24F394873F9F4F64
:103BD000F4F20E947F0B181619060CF0C7C00E9461
:103BE0007F0BBC01CE01CD960E944F146CEC73E0AC
:103BF000CE018D5B9F4F0E949B14BE01635C7F4F83
:103C0000CE018D5B9F4F0E941114BC01CE01C7965F
:103C10000E949214BE01695C7F4FCE01C1960E9442
:103C20009214BE01615E7F4FCE01C1960E941114B5
:103C3000BE01635F7F4F0E941114BC01CE01079645
:103C40000E949214CE01875B9F4F0E94D619AE014D
:103C5000495F5F4FBE01675B7F4FCE0101960E94B7
:103C6000F814BE016F5F7F4F8EE599E00E946E13DE
:103C7000CE0101960E944C12CE01875B9F4F0E949D
:103C80004C12CE0107960E944C12CE01C1960E94A2
:103C90004C12CE01C7960E944C12FF2049F0CE0173
:103CA0008D5B9F4F0E944C12CE01CD960E944C120C
:103CB000CE014F960E944C12002341F0CE018B960C
:103CC0000E944C12CE0185960E944C12CE010D9698
:103CD0000E944C12112341F0CE0149960E944C12D1
:103CE000CE0143960E944C128091BA059091BB057B
:103CF000049709F07BC181E020914B0230914C0286
:103D0000232B09F480E00E942E0FAB01BC01CE01F1
:103D100007960E9407160E946D0B08EE13E0B8018B
:103D20000E942447181619066CF50E946D0BB80105
:103D30000E94244711E00A9774F110E00E946D0B75
:103D400068EEE62E63E0F62EB7010E9424471816AF
:103D500019060CF06AC00E946D0BB7010E9424473F
:103D6000BC01CE0143960E944F143DC00E947F0BC0
:103D700091958195910935CF0E947F0B9195819501
:103D800091090ECF0E946D0BB8010E94244711E0EB
:103D9000873F9F4F94F20E946D0B78EEE72E73E001
:103DA000F72EB7010E94244718161906ACF50E9499
:103DB0006D0BB7010E942447BC01CE0149960E94B9
:103DC0004F146CEC73E0CE014F960E949B14BE0121
:103DD000675E7F4FCE014F960E941114BC01CE0149
:103DE00043960E9492140E94770B1816190634F518
:103DF0000E94770B01E00A973CF100E00E94770BEC
:103E0000181619060CF05EC00E94770BBC01CE019B
:103E100085960E944F1436C00E946D0BB7010E9418
:103E20002447919581959109C7CF0E946D0BB701E9
:103E30000E94244791958195910992CF0E94770B1A
:103E400001E0873F9F4FCCF20E94770B18161906AE
:103E50009CF50E94770BBC01CE018B960E944F14FB
:103E60006CEC73E0CE01C1960E949B14BE01655DAF
:103E70007F4FCE01C1960E941114BC01CE018596E0
:103E80000E9492140E947F0B181619060CF50E94CE
:103E90007F0BFF24F3940A9714F1F12C0E947F0BFF
:103EA000181619060CF0B6C00E947F0BBC01CE019B
:103EB000CD960E944F1435C00E94770B9195819545
:103EC0009109C9CF0E94770B9195819591099ECF59
:103ED0000E947F0BFF24F394873F9F4FF4F20E94D0
:103EE0007F0B181619060CF08FC00E947F0BBC01C7
:103EF000CE018D5B9F4F0E944F146CEC73E0CE019E
:103F0000875B9F4F0E949B14BE016D5B7F4FCE016C
:103F1000875B9F4F0E941114BC01CE01CD960E9479
:103F20009214BE01635C7F4FCE01C7960E9492142B
:103F3000BE016B5D7F4FCE01C7960E941114BE017A
:103F40006D5E7F4F0E941114BC01CE010D960E9440
:103F50009214AE01495F5F4FBE01635F7F4FCE0198
:103F600001960E94F814BE016F5F7F4F8EE599E0C5
:103F70000E946E13CE0101960E944C12CE010D9646
:103F80000E944C12CE01C7960E944C12CE01CD96D3
:103F90000E944C12FF2051F0CE01875B9F4F0E9480
:103FA0004C12CE018D5B9F4F0E944C12CE01859624
:103FB0000E944C12002341F0CE01C1960E944C1287
:103FC000CE018B960E944C12CE0143960E944C1259
:103FD000112341F0CE014F960E944C12CE0149961A
:103FE0000E944C12CE0107960E944C12C25BDF4F1A
:103FF0000FB6F894DEBF0FBECDBFDF91CF911F91FA
:104000000F91FF90EF9008950E947F0B91958195FD
:1040100091096DCF0E947F0B91958195910946CFB3
:10402000892B09F063C1CE0107960E94D6190E9420
:104030006D0B08EE13E0B8010E942447181619060C
:104040000CF50E946D0BB8010E94244711E00A97FD
:1040500014F110E00E946D0B48EEE42E43E0F42EC4
:10406000B7010E942447181619060CF05EC00E9482
:104070006D0BB7010E942447BC01CE0143960E94FC
:104080004F1431C00E946D0BB8010E94244711E00B
:10409000873F9F4FF4F20E946D0B58EEE52E53E0E0
:1040A000F52EB7010E94244718161906ACF50E9498
:1040B0006D0BB7010E942447BC01CE0149960E94B6
:1040C0004F146CEC73E0CE014F960E949B14BE011E
:1040D000675E7F4FCE014F960E941114BC01CE0146
:1040E00043960E9492140E94770B1816190634F515
:1040F0000E94770B01E00A973CF100E00E94770BE9
:10410000181619060CF05EC00E94770BBC01CE0198
:1041100085960E944F1436C00E946D0BB7010E9415
:104120002447919581959109C7CF0E946D0BB701E6
:104130000E9424479195819591099ECF0E94770B0B
:1041400001E0873F9F4FCCF20E94770B18161906AB
:104150009CF50E94770BBC01CE018B960E944F14F8
:104160006CEC73E0CE01C1960E949B14BE01655DAC
:104170007F4FCE01C1960E941114BC01CE018596DD
:104180000E9492140E947F0B181619060CF50E94CB
:104190007F0BFF24F3940A9714F1F12C0E947F0BFC
:1041A000181619060CF0DAC00E947F0BBC01CE0174
:1041B000CD960E944F1435C00E94770B9195819542
:1041C0009109C9CF0E94770B9195819591099ECF56
:1041D0000E947F0BFF24F394873F9F4FF4F20E94CD
:1041E0007F0B181619060CF0B3C00E947F0BBC01A0
:1041F000CE018D5B9F4F0E944F146CEC73E0CE019B
:10420000875B9F4F0E949B14BE016D5B7F4FCE0169
:10421000875B9F4F0E941114BC01CE01CD960E9476
:104220009214BE01635C7F4FCE01C7960E94921428
:10423000BE016B5D7F4FCE01C7960E941114BE0177
:104240006D5E7F4F0E941114BC01CE010D960E943D
:104250009214AE01495F5F4FBE01635F7F4FCE0195
:1042600001960E94F814BE016F5F7F4F8EE599E0C2
:104270000E946E13CE0101960E944C12CE010D9643
:104280000E944C12CE01C7960E944C12CE01CD96D0
:104290000E944C12FF2051F0CE01875B9F4F0E947D
:1042A0004C12CE018D5B9F4F0E944C12CE01859621
:1042B0000E944C12002341F0CE01C1960E944C1284
:1042C000CE018B960E944C12CE0143960E944C1256
:1042D000112341F0CE014F960E944C12CE01499617
:1042E0000E944C12CE0107960E944C128091BA0592
:1042F0009091BB05019709F079CE0E946D0B08EEF5
:1043000013E0B8010E942447181619066CF50E94A4
:104310006D0BB8010E94244711E00A9774F110E078
:104320000E946D0B28EEE22E23E0F22EB7010E94D0
:104330002447181619060CF06AC00E946D0BB701CD
:104340000E942447BC01CE010D960E944F143DC02F
:104350000E947F0B91958195910949CF0E947F0B17
:1043600091958195910922CF0E946D0BB8010E9411
:10437000244711E0873F9F4F94F20E946D0B38EE67
:10438000E32E33E0F32EB7010E94244718161906D6
:10439000ACF50E946D0BB7010E942447BC01CE0111
:1043A00043960E944F146CEC73E0CE0149960E9434
:1043B0009B14BE016D5E7F4FCE0149960E94111481
:1043C000BC01CE010D960E9492140E94770B181624
:1043D000190634F50E94770B01E00A973CF100E0E2
:1043E0000E94770B181619060CF05EC00E94770B1E
:1043F000BC01CE014F960E944F1436C00E946D0B37
:10440000B7010E942447919581959109C7CF0E94D9
:104410006D0BB7010E94244791958195910992CF28
:104420000E94770B01E0873F9F4FCCF20E94770BF1
:10443000181619069CF50E94770BBC01CE018596D3
:104440000E944F146CEC73E0CE018B960E949B147B
:10445000BE016B5D7F4FCE018B960E941114BC0193
:10446000CE014F960E9492140E947F0B18161906D7
:104470000CF50E947F0BFF24F3940A9714F1F12CA2
:104480000E947F0B181619060CF0ACC00E947F0B1F
:10449000BC01CE01C7960E944F1434C00E94770B16
:1044A000919581959109C9CF0E94770B919581953E
:1044B00091099ECF0E947F0BFF24F394873F9F4F6B
:1044C000F4F20E947F0B181619060CF085C00E94AA
:1044D0007F0BBC01CE01CD960E944F146CEC73E0B3
:1044E000CE018D5B9F4F0E949B14BE01635C7F4F8A
:1044F000CE018D5B9F4F0E941114BC01CE01C79667
:104500000E949214BE01695C7F4FCE01C1960E9449
:104510009214BE01615E7F4FCE01C1960E941114BC
:10452000BE01635F7F4F0E941114BC01CE0107964C
:104530000E949214CE01875B9F4F0E94D619AE0154
:10454000495F5F4FBE01675B7F4FCE0101960E94BE
:10455000F814BE016F5F7F4F8EE599E00E946E13E5
:10456000CE0101960E944C12CE01875B9F4F0E94A4
:104570004C12CE0107960E944C12CE01C1960E94A9
:104580004C12CE01C7960E944C12FF2049F0CE017A
:104590008D5B9F4F0E944C12CE01CD960E944C1213
:1045A000CE014F960E944C12002341F0CE018B9613
:1045B0000E944C12CE0185960E944C12CE010D969F
:1045C0000E944C12112309F411CDCE0149960E948C
:1045D0004C12CE01439608CD0E947F0B9195819598
:1045E000910977CF0E947F0B91958195910950CFCA
:1045F0001092B805FBCC81E090E063C985ED809313
:10460000BC008091AF069091B006A091B106B09128
:10461000B2060796A11DB11D23E0B695A795979503
:1046200087952A95D1F72091BC0024FD03C01092F4
:10463000AD0608954091AF065091B0066091B10665
:104640007091B206452B462B472B69F30097A105C5
:10465000B10541F02AE22A95F1F700C00197A109BE
:10466000B109E1CF8091AE060C94640C0C94244601
:104670000C941C468F929F92AF92BF92CF92DF9282
:10468000EF92FF920F931F93CF93DF9388E090E018
:104690000E943823C82FC82ED12C89E090E00E94B8
:1046A0003823882EE82EF12C8AE090E00E943823EF
:1046B000082F10E0912CB12CA12CBA2CA92C982CED
:1046C0008824AC2A882AD0E0C0E0B501A401CE013C
:1046D0000E9491022196C830D105B9F70E94AC061C
:1046E00083ED92E00E94AA128EEC92E00E94B6083E
:1046F000C6010E940F1387EC92E00E94B608C70122
:104700000E940F1381EC92E00E94B608C801DF916D
:10471000CF911F910F91FF90EF90DF90CF90BF90BE
:10472000AF909F908F900C940F132F923F924F92C7
:104730005F926F927F928F929F92AF92BF92CF9231
:10474000DF92EF92FF920F931F93CF93DF93CDB73A
:10475000DEB7C055D1090FB6F894DEBF0FBECDBF8E
:104760000E94BA0720E137E240E050E00E9438475B
:10477000672B682B692B01F5809158068823E1F09F
:104780000E94C011E0905606F09057060091540622
:1047900010915506209152063091530640915906CA
:1047A00050915A06609150067091510680914E06C4
:1047B00090914F060E94490A0E94BA0760935005E3
:1047C00070935105809352059093530500914C05C9
:1047D00010914D0520914E0530914F05601B710BD6
:1047E000820B930B009118021091190220911A026A
:1047F00030911B020617170728073907E0F580914B
:104800004B05811107C08FE792E00E94AA1281E058
:1048100080934B0585EE96E00E942708892B59F17D
:1048200085EE96E00E9405089091EF04E92FF0E0F4
:10483000E456FB4F80839F5F923509F444C1909307
:10484000EF048A30C1F4E091EF04F0E0E456FB4F4E
:1048500010821092EF04EDE9F4E021E030E040E056
:104860005191C90101965A3209F430C145279C0182
:1048700083359105A9F740915005509151056091FC
:1048800052057091530580914C0590914D05A09172
:104890004E05B0914F058A019B01081B190B2A0B8D
:1048A0003B0B8091180290911902A0911A02B091CD
:1048B0001B02805A9541AF4FBF4F80179107A20747
:1048C000B30770F440934C0550934D0560934E052B
:1048D00070934F058FE592E00E94AA1210924B054B
:1048E00010923F051092400510924105109242052A
:1048F00082E398E0909346058093450500912F0848
:1049000010E010934805009347058091FC0890E063
:1049100090934A058093490580912B088530A1F535
:1049200080912F088A3108F4C9C280913208909191
:104930003308843F914008F092C2109244051092CF
:1049400043058FEF9FEFDC0180933F059093400577
:10495000A0934105B09342058BE090E090933C0515
:1049600080933B0560913F05709140058091410522
:104970009091420540E10E9454120E94A21282E0EE
:1049800080932B0810922F0860913F05709140058D
:104990008CE899E00E94831090933A058093390542
:1049A000019721F484E592E00E94AA1280913905D2
:1049B00090913A05019621F486E492E00E94AA12B1
:1049C00060913F05709140058FE799E00E94831048
:1049D0009093380580933705019721F48DE392E099
:1049E0000E94AA128091370590913805019621F412
:1049F00081E392E00E94AA1260913F057091400508
:104A000082E799E00E9483109093360580933505E4
:104A1000019721F486E292E00E94AA128091350566
:104A200090913605019621F488E192E00E94AA1245
:104A300000914C0610914D06F8018081882309F4FD
:104A4000AFC30E94BA07C090F604D090F704E0907C
:104A5000F804F090F9046C197D098E099F09C09043
:104A6000F204D090F304E090F404F090F504C6163C
:104A7000D706E806F90608F093C30E94BA074B016F
:104A80005C018092F6049092F704A092F804B09230
:104A9000F904780130E020E04AE0F801D1908F017C
:104AA00080ED8D0D8A3008F0B1C2429FC001439F56
:104AB000900D11242D2DDD0C330B20533109280FBF
:104AC000391F7F01EACF1092EF04BBCE84569B4F73
:104AD000FC01808181340CF087538295807F2456BD
:104AE0003B4FF901928191340CF4B0C19753890F77
:104AF0004813C1CE80919C04843209F0BCCE8091D1
:104B00009F04823509F0B7CE8091A0048D3409F05E
:104B1000B2CE8091A104833409F0ADCEA090A3045D
:104B20009090A404B090A5046090A6047090A7048F
:104B30004090A804A8EAB4E090E080E0ECE0F0E067
:104B40002D912C3209F084C101968830910509F02D
:104B50007FC1EF5FF0E0E456FB4FC080D1808281DF
:104B6000082E000C990BC0971AE0189F7001199F2E
:104B7000F00C11248381E80EF11C87FDFA9420E3E8
:104B8000E21AF108048155804CE050E061E070E0E9
:104B9000C7010E946244882309F46DCE8C2DCC0C91
:104BA000990BC097189F9001199F300D1124A901EE
:104BB0004D0D511DD7FC5A956A0150E3C51AD10815
:104BC0004FE150E061E070E0C6010E94624488233A
:104BD00009F451CE8A2DAA0C990BC097189F900109
:104BE000199F300D1124B901690D711D97FC7A953B
:104BF0004B0170E3871A910847E150E070E060E0F4
:104C0000C4010E946244882309F435CE8B2DBB0C6D
:104C1000990BC097189F5001199FB00C1124A60C36
:104C2000B11C67FCBA9480E3A81AB1084BE350E0CA
:104C300070E060E0C5010E946244882309F41BCE45
:104C4000872D770C990BC097189F3001199F700C16
:104C50001124640C711C47FC7A9490E3691A710862
:104C60004BE350E070E060E0C3010E94624488239F
:104C700009F401CE202F000F330B20533109129F6E
:104C8000C001139F900D11248C010053184F050D86
:104C9000111D57FC1A9500531109063EE7E01E0747
:104CA000C4F46982AA828B82CD82EE82025B0F837A
:104CB000CE0101960E94890986519B4DAE014F5F3E
:104CC0005F4F0E946D0A0F8110E00E54184FEE8066
:104CD000CD8046EF57E062EE77E0C8010E94624463
:104CE000882309F4C8CD80929909A0929A0960920C
:104CF0009B09C0929C09E0929D0910939F09009323
:104D00009E090E94BA076B017C01C092A109D09252
:104D1000A209E092A309F092A4090E94BA076C19B3
:104D20007D098E099F09693B7B408105910508F04B
:104D3000A2CD8CEC91E00E94AA12809199090E9468
:104D40003F1380919A090E943F1380919B090E9412
:104D50003F1380919E0990919F0918EEC12E13E098
:104D6000D12EB6010E9424477C0100919D0910E0DC
:104D700020919C0930E040919B0950E060919A0994
:104D800070E08091990990E00E94490AA0914D023B
:104D9000B0914E0220E13EE00E948147009128063A
:104DA0001091290620912A0630912B06DC01CB01B7
:104DB000800F911FA21FB31F80932806909329068E
:104DC000A0932A06B0932B060E9443094CE256E0BA
:104DD0000E946D0A0E946D0B4C010E94770B082FF8
:104DE0000E947F0BB82E0E94870BF82E0E948F0B1B
:104DF000182F0E94A80B382FC401B6010E94244727
:104E0000E82E2B2D4F2D612F832F0E94F70D8091BF
:104E1000500590915105A0915205B0915305809392
:104E20004C0590934D05A0934E05B0934F0580E43B
:104E300097E7ABE1B0E08093180290931902A0933A
:104E40001A02B0931B0210924B0515CD90534FCE12
:104E50003196E335F10509F073CEE0E07BCE809129
:104E600034089091350885974B9740F5EBE2F8E0D0
:104E700082E090E040E050E0BA01DC011196209120
:104E80002F082A171B0609F00CF496C023853485D9
:104E9000275031092730310508F08DC0258536852A
:104EA000235131092F30310508F478C02585368526
:104EB0002A5031092930310508F478C0063011052F
:104EC0000CF45DCD4BE258E061965FAF4EAF619759
:104ED00073E0272E312CE5ECCE2EEDE9DE2EECE151
:104EE000EE2EE1E8FE2E201631060CF07EC0619613
:104EF000EEADFFAD619765857685A184B28490E0C3
:104F000080E00E94FD442B013C01B50190E080E06F
:104F10000E94FD444B015C012DEC3CEC4CE45FE352
:104F20000E945E459B01AC01C301B2010E94F8449E
:104F3000F0E0E0E087FD14C02DEC3CEC4CE45FE3D6
:104F4000C301B2010E945E459B01AC01C501B401E1
:104F50000E94F844E2E0F0E087FD02C0E1E0F0E00A
:104F6000A701960163E971E080E091E00E94F446B8
:104F70006F01FF0FEE08FF08C626D726E826F926A0
:104F8000FFEF2F1A3F0A61964EAD5FAD61974E5FFE
:104F90005F4F61965FAF4EAF6197A5CF440F551F2E
:104FA000661F771F41600296349667CF440F551FE6
:104FB000661F771FF8CFCD01019795958795909340
:104FC0004405809343050C972CF4109244051092ED
:104FD000430574CF40933F055093400560934105CE
:104FE0007093420584E090E0B9CCC0923F05D09226
:104FF0004005E0924105F092420580E290E09093F6
:105000004405809343058FEF9FEFA8CC309359055B
:10501000209358056091540570915505809156056F
:10502000909157052115310511F1032E000C440B09
:10503000550B0E945A472093F2043093F304409397
:10504000F4045093F504EFE9ED0DE730B0F40E2EC3
:10505000000CFF0B8827E05DF74D8F4F0C947947CC
:10506000D829DA29CC29D029D229D429D6292091A6
:105070001F0230E050E040E0DCCF1092F104F70175
:105080008181833241F48091F1048F5F8093F10438
:1050900087010E5F1F4FF80180818E32F1F4C090BE
:1050A000F204D090F304E090F404F090F504C7010A
:1050B000B60122E030E040E050E00E945A47C20EC4
:1050C000D31EE41EF51EC092F204D092F304E092C7
:1050D000F404F092F5040F5F1F4FF80180818053B4
:1050E0008A3008F069C18093F0040F5F1F4FF80108
:1050F00080818C3211F40F5F1F4FE091F104EE2399
:1051000009F44EC0C090F204D090F304E090F4048F
:10511000F090F5048091F0048450990B4CE0489F86
:105120009001499F300D1124E20FF32FF11DEE0F76
:10513000FF1FE259FD4FB701A601808191810E94B6
:10514000C1040E94BA07681979098A099B09C61621
:10515000D706E806F90620F50E94BA076093F60420
:105160007093F7048093F8049093F9048091E40617
:10517000813009F426C1823009F429C1811105C0AA
:1051800080916E008D7F80936E0060E08091E306D9
:105190000E94570486EE91E00E94AA1210E000E0FF
:1051A00010934D0600934C060E94BA0700913105FA
:1051B000109132052091330530913405601B710B3D
:1051C000820B930B6932710581059105F8F080918E
:1051D000E406813009F401C1823009F401C1811172
:1051E00005C080916E008695817031F48091260211
:1051F0008111F9C00E946A0E0E94BA0760933105BE
:105200007093320580933305909334058091BA05ED
:105210009091BB05892B21F08091B905811106C0C1
:1052200080915A05811102C00E94DA1B85E499E041
:105230000E94B00B8CE299E00E94B00B83E199E0F0
:105240000E94B00B80915A05811151C11092B10595
:105250008091450990914609181619063CF08091F5
:10526000390590913A05019709F03FC281E080939A
:10527000B90510924D0610924C0644E650E060E0ED
:1052800070E088EE93E00E94C1040E94BA07609328
:105290005B0570935C0580935D0590935E0580913E
:1052A000BA059091BB0501968630910509F448C175
:1052B0009093BB058093BA050091BA051091BB0588
:1052C000F801EC5FFD4F80818093B105A80141504A
:1052D0005109FA01E85FFC4F9081992309F4F3C169
:1052E000692F6150770B9B01FB01EC50FD4F6081F2
:1052F0006417150609F0E7C1923009F026C188E16C
:10530000E6E5F2E0DE01119601900D928A95E1F753
:1053100080913F029091400283709927892B21F45C
:105320008DE190E09C838B8380913D0290913E02C1
:105330000197880F991FE1E0F0E0EC0FFD1F8E0F41
:105340009F1F40913B0250913C02FC018081918162
:10535000841795070CF0F9C08AE090E09093BB05A4
:105360008093BA05C05BDF4F0FB6F894DEBF0FBE67
:10537000CDBFDF91CF911F910F91FF90EF90DF9004
:10538000CF90BF90AF909F908F907F906F905F90E5
:105390004F903F902F90089581E08093F1046FCE5D
:1053A00083E0FBCF85E0F9CF86E0F7CF88E0F5CF4B
:1053B0008AE0F3CF8CE0F1CF80911E028093F0045D
:1053C00096CE80916F008D7F80936F00DECE8091AE
:1053D00070008D7F80937000D8CE80916F0003CFD6
:1053E0008091700000CF80915B06811105CF009104
:1053F000FC041091FD04F801EE0FFF1FE00FF11FF8
:10540000DF01AA0FBB1FA053BD4F8D919C914AE0B5
:10541000489F9001499F300D112480910202909184
:105420000302280F391F3093030220930202DF0189
:10543000AA0FBB1FAE52BD4F8D919C91489FB001EA
:10544000499F700D11248091270590912805860FA2
:10545000971F9093280580932705EE0FFF1FEC52AE
:10546000FD4F60817181469F6001479FD00C1124E0
:105470004091250550912605C40ED51ED0922605D3
:10548000C0922505D12CF12CE22ED82AB12CA12CCA
:10549000B701A601C5010E949102FFEFAF1ABF0A32
:1054A00028E0A216B104A1F70E94AC068091FA048C
:1054B0009091FB0401969093FB048093FA04499722
:1054C00051F40F5F1F4F1093FD040093FC041092E2
:1054D000FB041092FA048091FC049091FD0406975D
:1054E0000CF48ACE1092FD041092FC0485CE0E942A
:1054F000BA0700915B0510915C0520915D05309124
:105500005E05601B710B820B930B61367A4E810531
:10551000910508F49DCE10925A05E091BA05F091DC
:10552000BB05E45EFC4F808190E09093BB058093C7
:10553000BA058C5F9D4FFC0180818093B10588CEB8
:105540001092BB051092BA05B7CE10925A0530934F
:10555000BB052093BA05232BB9F40E946D0B7C0187
:105560000E94770B8C010E947F0B40913702509173
:10557000380260913502709136029C0180913302AD
:10558000909134020E94490A8091BA059091BB051E
:105590000197B9F583E192E00E94B60880913B0241
:1055A00090913C020E940F138CE092E00E94B6089A
:1055B00080913D0290913E020E940F13E0903F02C5
:1055C000F0904002F0E3EF1AF8EFFF0A00913D027D
:1055D00010913E0280903B0290903C020E94870B0B
:1055E0005C010E948F0B6C010E94A80B9401A50125
:1055F000B6010E94490A609139028DE090E00E9454
:1056000036238091BA059091BB050297C1F4609151
:10561000410282E090E00E9436236091430283E0E1
:1056200090E00E9436236091450284E090E00E9461
:1056300036236091470286E090E00E9436238091F5
:10564000BA059091BB05039731F46091490281E05E
:1056500090E00E9436238091BA059091BB05049793
:1056600031F460914B028BE090E00E9436238091F0
:10567000BA059091BB05059739F460914D02645FBE
:105680008CE090E00E9436230E946D0B5C010E942A
:10569000770B082F0E947F0BD82E0E94870BF82EC5
:1056A0000E948F0B182F0E94A80B382FC50168EE9F
:1056B00073E00E942447E82E2D2D4F2D612F832F5C
:1056C0000E94F70D4FCE0331110579F09801295052
:1056D00031092230310548F00E94B415F801EE0F6F
:1056E000FF1FE95DFD4F9183808380914509909173
:1056F000460997FD07C08091390590913A050196BA
:1057000009F04CC244E650E060E070E088EE93E0BF
:105710000E94C10480915A0581112EC10091BA05E1
:105720001091BB050E94BA0760935B0570935C05FE
:1057300080935D0590935E05012B09F01DC10E94C9
:10574000870B18161906ACF40E94870B01E00A9724
:10575000B4F000E00E94870B181619060CF04FC039
:105760000E94870BBC01CE01875B9F4F0E944F14A4
:1057700026C00E94870B01E0873F9F4F54F30E9491
:10578000870B18161906ACF50E94870BBC01CE01D9
:105790008D5B9F4F0E944F146CEC73E0CE01CD9651
:1057A0000E949B14BE016D5B7F4FCE01CD960E947F
:1057B0001114BC01CE01875B9F4F0E9492140E947E
:1057C0008F0B181619060CF50E948F0BFF24F3940B
:1057D0000A9714F1F12C0E948F0B181619060CF081
:1057E00058C00E948F0BBC01CE01C7960E944F1477
:1057F00031C00E94870B919581959109C7CF0E9476
:10580000870B919581959109ADCF0E948F0BFF2455
:10581000F394873F9F4FF4F20E948F0B18161906DE
:1058200094F50E948F0BBC01CE01C1960E944F14CB
:105830006CEC73E0CE018B960E949B14BE016F5CF2
:105840007F4FCE018B960E941114BC01CE01C796EA
:105850000E9492140E94A80B1816190604F50E94C3
:10586000A80B11E00A970CF110E00E94A80B181683
:1058700019060CF0C7C20E94A80BBC01CE014F96BE
:105880000E944F1431C00E948F0B91958195910910
:10589000CACF0E948F0B919581959109A4CF0E9448
:1058A000A80B11E0873F9F4FFCF20E94A80B18162F
:1058B00019060CF0A1C20E94A80BBC01CE014996AA
:1058C0000E944F146CEC73E0CE0101960E949B1471
:1058D000BE01675E7F4FCE0101960E941114BC018C
:1058E000CE014F960E949214BE01615E7F4FCE01A1
:1058F00085960E949214BE01695C7F4FCE01859609
:105900000E941114BE01675B7F4F0E941114BC01FD
:105910008EE599E00E947B14CE0185960E944C1280
:10592000CE014F960E944C12112341F0CE010196F8
:105930000E944C12CE0149960E944C12CE01C7968D
:105940000E944C12FF2041F0CE018B960E944C1217
:10595000CE01C1960E944C12CE01875B9F4F0E94E0
:105960004C12002349F0CE01CD960E944C12CE017C
:105970008D5B9F4F0E944C128091BA059091BB05A0
:10598000019709F0D5C00E947F0B90933C02809351
:105990003B020E94770B90933E0280933D020E944F
:1059A0006D0B68EE73E00E942447BC0190934002A7
:1059B00080933F022091390230913A020996232BBD
:1059C00009F033C277FF03C0719561957109439760
:1059D00008F01EC2CE018D5B9F4F0E944F146CECED
:1059E00073E0CE01CD960E949B14BE016D5B7F4F8C
:1059F000CE01CD960E941114BC01CE01875B9F4F52
:105A00000E94921411E080913D0290913E02BC01EF
:105A100097FF04C066277727681B790B0996439781
:105A200008F0FDC1CE01C1960E944F146CEC73E0EA
:105A3000CE018B960E949B14BE016F5C7F4FCE01FE
:105A40008B960E941114BC01CE01C7960E9492143D
:105A500001E080913B0290913C02BC0197FF04C0A1
:105A600066277727681B790B0996439708F035C29C
:105A7000CE0149960E944F146CEC73E0CE01019662
:105A80000E949B14BE01675E7F4FCE0101960E946B
:105A90001114BC01CE014F960E949214FF24F3947E
:105AA000BE01615E7F4FCE0185960E949214BE01B9
:105AB000695C7F4FCE0185960E941114BE01675B21
:105AC0007F4F0E941114BC018EE599E00E947B1467
:105AD000CE0185960E944C12CE014F960E944C1228
