:100000000C94B0000C94D8000C94D8000C94D80038
:100010000C94D8000C94D8000C94D8000C94FC24B8
:100020000C94D8000C94D8000C94D8000C9457254C
:100030000C94D8000C94D8000C94BC250C94D800D7
:100040000C94B2240C94D8000C9459230C943323B0
:100050000C94D8000C94D8000C94D8000C94D800C0
:100060000C94F4160C94D800650267025B025D02E2
:100070005F0261026302D6094D0A480B960BC80B5A
:10008000120C060E060E060E470C6F0C6F0C6F0C52
:10009000060E060E060E060E060EC80B120C131BDD
:1000A000161B111B131B161B181B1C1B2D1B0201DF
:1000B0000000000000240027002A004661756C74CF
:1000C00079204453333233312100445333323331B6
:1000D0005F543D004669726D776172652076657286
:1000E00073696F6E3A200000000000250028002B85
:1000F000000000000023002600290004040404047A
:1001000004040402020202020203030303030301C4
:10011000020408102040800102040810200102049B
:10012000081020426C75653D00475245454E3D0024
:100130005245443D005265616465642066726F6D8E
:1001400020454550524F4D000000000800020100BC
:10015000000304070000000000000000852C7B2D38
:1001600011241FBECFEFD8E0DEBFCDBF27E0ACEF3C
:10017000B3E001C01D92AB30B207E1F713E0A0E09D
:10018000B1E0EAEBF5E602C005900D92AC3FB10795
:10019000D9F710E0CFEAD0E004C02197FE010E9419
:1001A000B630CE3AD107C9F70E9487270C94D032D7
:1001B0000C9400000F931F93CF93DF93CDB7DEB75E
:1001C00062970FB6F894DEBF0FBECDBF8C0177FFEC
:1001D00003C07195619571094AE06A3071054CF56B
:1001E000CE010D960E94E9226CE373E0CE010196E8
:1001F0000E941E23BE016F5F7F4FCE0107960E94B3
:100200001523BE01635F7F4FCE0107960E948222B5
:10021000BC01C8010E941523CE0107960E94E4226A
:10022000CE0101960E94E422CE010D960E94E422A6
:1002300003C0C8010E94E922C80162960FB6F89473
:10024000DEBF0FBECDBFDF91CF911F910F910895FB
:100250000F931F93CF93DF93CDB7DEB768970FB699
:10026000F894DEBF0FBECDBF8C01809153019091F9
:100270005401489791F40E942616BC01CE01439682
:100280000E94DA000E942E16BC01CE010D960E943B
:10029000DA000E943616BC011FC00E942616BC015F
:1002A000CE0143960E94DA000E942E16BC01CE01B8
:1002B0000D960E94DA000E94FD260E941915809179
:1002C000E906882339F0682F70E08D3028F06C50F3
:1002D000710902C06CE070E0CE0101960E94DA0064
:1002E000BE016F5F7F4FCE0107960E941523BE01AE
:1002F000635F7F4FCE0107960E948222BE016D5E32
:100300007F4F0E948222BC01C8010E941523CE01AA
:1003100007960E94E422CE0101960E94E422CE01BB
:100320000D960E94E422CE0143960E94E422C80169
:1003300068960FB6F894DEBF0FBECDBFDF91CF91A8
:100340001F910F9108958F929F92AF92BF92CF927B
:10035000DF92EF92FF920F931F93CF93DF93CDB76E
:10036000DEB7EC970FB6F894DEBF0FBECDBF0E948C
:100370007F2420E137E240E050E00E947530672B97
:10038000682B692B29F48091890481110C94C70C86
:1003900010927204109271041092700410926F0403
:1003A00010926E0410926D0400917D0410917E04F1
:1003B000F8018081882309F42EC10E947F24C09017
:1003C0000204D0900304E0900404F0900504DC01E2
:1003D000CB018C199D09AE09BF09C090FE03D090D6
:1003E000FF03E0900004F0900104C816D906EA0665
:1003F000FB0608F010C10E947F246B017C01609312
:1004000002047093030480930404909305041092F3
:10041000A6061092A506A8016AE08A01FA01B0803A
:100420004F5F5F4F80ED8B0D2091A5063091A606A2
:100430008A3080F4629FF001639FF00D11248B2DB0
:10044000BB0C990BC0978E0F9F1F9093A6068093AD
:10045000A506E3CF6091A1067091A2068091A30644
:100460009091A4062115310529F0032E000C440BB0
:10047000550B05C020915C0130E040E050E00E9447
:1004800097302093FE033093FF0340930004509372
:1004900001048B2DBB0C990BAA0BBB0BFC01E15685
:1004A000F109E730F10520F4EC5CFF4F0C94B63015
:1004B0001092FD030FC081E00BC083E009C085E00E
:1004C00007C086E005C088E003C08AE001C08CE078
:1004D0008093FD03F8018181833219F00F5F1F4F74
:1004E00007C08091FD038F5F8093FD030E5F1F4F58
:1004F000F80180818E3201F58090FE039090FF0319
:10050000A0900004B0900104C501B40122E030E0E5
:1005100040E050E00E949730D501C401820F931F44
:10052000A41FB51F8093FE039093FF03A0930004C4
:10053000B09301040F5F1F4FF801808180538A3010
:1005400028F48093FC030F5F1F4F04C080915B0170
:100550008093FC038091FC03F80190819C3211F49C
:100560000F5F1F4F2091FD03222309F454C0809098
:10057000FE039090FF03A0900004B090010490E06F
:1005800004973CE0389FF001399FF00D1124E20FF1
:10059000F11DEE0FFF1FE558FE4FB501A40180814C
:1005A00091810E94ED0E0E947F24DC01CB018C1909
:1005B0009D09AE09BF0988169906AA06BB0658F51B
:1005C0000E947F24609302047093030480930404C8
:1005D0009093050480911105813051F0823071F0C3
:1005E000811111C080916E008D7F80936E000BC0D1
:1005F00080916F008D7F80936F0005C080917000A7
:100600008D7F8093700060E0809110050E94B4237C
:1006100090E080E002C0902F812F90937D04809322
:100620007E040E947F240091690410916A04209145
:100630006B0430916C04DC01CB01801B910BA20B8D
:10064000B30B8997A105B10508F4A9C080911105E4
:10065000813039F0823041F081110CC080916E0000
:1006600005C080916F0002C08091700086958170F6
:1006700009F08BC080913001811103C00E9488185D
:1006800084C080918C04811180C000910804109175
:100690000904C801880F991F800F911FFC01EE0FFC
:1006A000FF1FE352FE4F208131816AE0629FA0016B
:1006B000639F500D11242091040130910501420FD8
:1006C000531F5093050140930401FC01EE0FFF1FDF
:1006D000E152FE4F20813181629FF001639FF00D56
:1006E000112420915E0430915F042E0F3F1F309340
:1006F0005F0420935E04880F991FFC01EF51FE4FA9
:1007000080819181689F6001699FD00C1124809144
:100710005C0490915D04C80ED91ED0925D04C09215
:100720005C04D12CE12CF12CE42AD22AA12CB12C8E
:10073000B701A601C5010E94C610FFEFAF1ABF0A9C
:1007400028E0A216B104A1F70E943111809106049D
:1007500090910704019690930704809306044997AB
:1007600051F40F5F1F4F1093090400930804109277
:1007700007041092060480910804909109040697DA
:1007800024F010920904109208040E947F246093C0
:10079000690470936A0480936B0490936C04809155
:1007A000A7069091A806892B21F0809168048111F9
:1007B000D3C28091A9068111CFC280911C048111FE
:1007C0000DC00E947F2460931804709319048093D5
:1007D0001A0490931B0481E080931C048091100400
:1007E00081110DC00E947F2460930C0470930D044E
:1007F00080930E0490930F0481E0809310040E9474
:100800007F24009118041091190420911A0430914A
:100810001B04DC01CB01801B910BA20BB30B0091DD
:10082000000110910101209102013091030108178C
:1008300019072A073B0708F06FC00E947F246093C6
:1008400018047093190480931A0490931B048091E8
:100850000A0490910B04009799F481E090E0909342
:10086000A8068093A70688E893E1A0E0B0E0809313
:10087000000190930101A0930201B09303011EC0F7
:100880000197E1F484E090E09093A8068093A70696
:1008900088E893E1A0E0B0E080930001909301012B
:1008A000A0930201B093030180917C04811106C0E2
:1008B00082E090E090930B0480930A0480910A04F4
:1008C00090910B048230910581F41092A806109249
:1008D000A70640E65AEE60E070E0409300015093B6
:1008E0000101609302017093030101968330910529
:1008F0002CF490930B0480930A0404C010920B0410
:1009000010920A0480916804882321F01092A806AE
:100910001092A706109268040E947F240091180488
:100920001091190420911A0430911B04DC01CB01B1
:10093000801B910BA20BB30B803D9740A105B10525
:1009400008F008C20E947F2400910C0410910D044D
:1009500020910E0430910F04DC01CB01801B910B20
:10096000A20BB30B85369105A105B10508F4F4C1BE
:100970000E947F2460930C0470930D0480930E04F6
:1009800090930F0420917C048091A7069091A80673
:10099000222309F410C1892B89F5CE0149960E94C2
:1009A000280181E02091550130915601232B09F453
:1009B00080E00E94FC1AAB01BC01CE0101960E94AE
:1009C000901BAE01475E5F4FBE016F5F7F4FCE0150
:1009D0004F960E94711DBE01615E7F4F8BE196E0D4
:1009E0000E943722CE014F960E94E422CE0101964A
:1009F0000E94E422CE0149960E94E4228091A7063B
:100A00009091A806019709F062C00E940C1668EE4A
:100A100073E00E946130BC01CE018B960E94DA0027
:100A20000E941616BC01CE0185960E94DA000E9433
:100A30001E16BC01CE0149960E94DA00BE01675E17
:100A40007F4FCE014F960E941523BE016B5D7F4FF5
:100A5000CE014F960E948222BE01655D7F4F0E94AB
:100A60008222BC01CE01C1960E941523CE010196BF
:100A70000E942801AE014F5C5F4FBE016F5F7F4F48
:100A8000CE01C7960E94711DBE01695C7F4F8BE14C
:100A900096E00E943722CE01C7960E94E422CE0142
:100AA00001960E94E422CE01C1960E94E422CE016A
:100AB0004F960E94E422CE0149960E94E422CE0184
:100AC00085960E94E422CE018B960E94E4228091BA
:100AD000A7069091A806049709F03EC181E02091F5
:100AE000550130915601232B09F480E00E94FC1A35
:100AF000AB01BC01CE01C1960E94901B0E940C1656
:100B000068EE73E00E946130BC01CE0185960E94C0
:100B1000DA000E941616BC01CE014F960E94DA0040
:100B20000E941E16BC01CE0101960E94DA00BE0191
:100B30006F5F7F4FCE0149960E941523BE01615E13
:100B40007F4FCE0149960E948222BE016B5D7F4F8E
:100B50000E948222BC01CE018B960E941523AE0119
:100B60004F5C5F4FBE01655D7F4FCE01C7960E940F
:100B7000711DBE01695C7F4F8BE196E00E943722B8
:100B8000CE01C7960E94E422CE018B960E94E422F9
:100B9000CE0149960E94E422CE0101960E94E422F1
:100BA000CE014F960E94E422CE0185960E94E42257
:100BB000CE01C196CCC0892B09F062C0CE01C1968E
:100BC0000E9428010E940C1668EE73E00E946130BA
:100BD000BC01CE0185960E94DA000E941616BC0167
:100BE000CE014F960E94DA000E941E16BC01CE0173
:100BF00001960E94DA00BE016F5F7F4FCE014996D9
:100C00000E941523BE01615E7F4FCE0149960E946E
:100C10008222BE016B5D7F4F0E948222BC01CE0109
:100C20008B960E941523AE014F5C5F4FBE01655D40
:100C30007F4FCE01C7960E94711DBE01695C7F4F38
:100C40008BE196E00E943722CE01C7960E94E422F3
:100C5000CE018B960E94E422CE0149960E94E422A6
:100C6000CE0101960E94E422CE014F960E94E4221A
:100C7000CE0185960E94E422CE01C1960E94E42214
:100C80008091A7069091A806019709F065C00E947F
:100C90000C1668EE73E00E946130BC01CE018B96A9
:100CA0000E94DA000E941616BC01CE0185960E94B1
:100CB000DA000E941E16BC01CE0149960E94DA009D
:100CC000BE01675E7F4FCE014F960E941523BE0185
:100CD0006B5D7F4FCE014F960E948222BE01655D03
:100CE0007F4F0E948222BC01CE01C1960E94152333
:100CF000CE0101960E942801AE014F5C5F4FBE01FC
:100D00006F5F7F4FCE01C7960E94711DBE01695C67
:100D10007F4F8BE196E00E943722CE01C7960E945A
:100D2000E422CE0101960E94E422CE01C1960E94E7
:100D3000E422CE014F960E94E422CE0149960E9401
:100D4000E422CE0185960E94E422CE018B960E9479
:100D5000E42202C01092B0060E949A1882E096E047
:100D60000E943E1689EE95E00E943E1680ED95E0C9
:100D70000E943E168091A906811103C0109236068A
:100D80002DC00E947F240091AA061091AB062091ED
:100D9000AC063091AD06DC01CB01801B910BA20BA0
:100DA000B30B81369A4EA105B105C0F01092A90689
:100DB000E091A706F091A806EE0FFF1FEF5AFD4F36
:100DC000808191819093A8068093A706880F991F30
:100DD000FC01EA5FFE4F8081809336068091020617
:100DE00090910306181619063CF0809171049091B9
:100DF0007204019709F0A5C081E080936804109205
:100E00007E0410927D0444E650E060E070E088EEDD
:100E100093E00E94ED0E0E947F246093AA067093D7
:100E2000AB068093AC069093AD068091A706909197
:100E3000A8069C012F5F3F4F2530310529F03093E4
:100E4000A8062093A70605C002969093A806809353
:100E5000A7068091A7069091A806069721F4109204
:100E6000A8061092A7062091A7063091A80689012E
:100E7000000F111FF801EA5FFE4F80818093360654
:100E8000D9011197FD01EE0FFF1FE75DFD4F608156
:100E900071816115710509F445C0AB0141505109DB
:100EA000FA01EE0FFF1FEF5FFD4F0190F081E02D83
:100EB000EA17FB07B9F56230710509F086C588E1CC
:100EC000E3E6F1E0DE01119601900D928A95E1F7DB
:100ED0008091490190914A0183709927892B21F4CF
:100EE0008DE190E09C838B832091450130914601F8
:100EF000E0914701F09148013197EE0FFF1F81E02B
:100F000090E08C0F9D1FE80FF91F8081918182175F
:100F100093070CF05AC58AE090E09093A80680935E
:100F2000A70674C62331310561F0295031092230FA
:100F3000310538F00E94CC1FF801EF5CFE4F918321
:100F40008083809102069091030697FD07C08091EF
:100F5000710490917204019609F003C144E650E0D7
:100F600060E070E088EE93E00E94ED0E8091A906AB
:100F700081114DC00E947F246093AA067093AB0636
:100F80008093AC069093AD068091A7069091A80639
:100F9000892BE9F50E942616BC01CE0185960E9498
:100FA000DA000E942E16BC01CE014F960E94DA0094
:100FB0000E943616BC01CE0101960E94DA00BE01E5
:100FC0006F5F7F4FCE0149960E941523BE01615E7F
:100FD0007F4FCE0149960E948222BE016B5D7F4FFA
:100FE0000E948222BC018BE196E00E94CD22CE01BC
:100FF00049960E94E422CE0101960E94E422CE018D
:101000004F960E94E422CE0185960E94E4228091B0
:10101000A7069091A806019709F06AC00E941E16C3
:1010200090934601809345010E94161690934801C3
:10103000809347010E940C1668EE73E00E946130B5
:10104000BC0190934A0180934901809143019091A2
:101050004401892B89F4CE0185960E94DA006091C3
:10106000470170914801CE014F960E94DA006091CD
:1010700045017091460110C0CE0185960E94DA00AC
:101080006091450170914601CE014F960E94DA00B1
:101090006091470170914801CE0101960E94DA00EB
:1010A000BE016F5F7F4FCE0149960E941523BE019E
:1010B000615E7F4FCE0149960E948222BE016B5D28
:1010C0007F4F0E948222BC018BE196E00E94CD22DC
:1010D000CE0149960E94E422CE0101960E94E422AC
:1010E000CE014F960E94E422CE0185960E94E42212
:1010F000E091A706F091A806EE0FFF1FEF5AFD4FF3
:10110000208131813093A8062093A7062D30310528
:1011100049F481E090E0909352018093510180E87E
:10112000809335069091A90681E089278093A906CE
:101130008901000F111FF801EA5FFE4F8081809343
:101140003606A901425151094230510550F029306B
:10115000310539F00E94CC1FF801EF5CFE4F9183FE
:1011600080838091E9059091EA05009739F4809198
:101170006F0490917004019721F507C09093670464
:10118000809366041816190694F781E0809368042A
:1011900010927E0410927D0444E650E060E070E01E
:1011A00088EE93E00E94ED0E0E94E61E8091A90653
:1011B000811107C010928C0460E087E090E00E94EB
:1011C00022188091660490916704019661F58091E0
:1011D000EB05882341F1109238068091A9068823F7
:1011E00029F10E947F2400916204109163042091F0
:1011F000640430916504DC01CB01801B910BA20BD0
:10120000B30B87399105A105B10580F00E947F24B9
:101210006093620470936304809364049093650404
:101220000E94E61E03C081E0809338068091D005BD
:101230009091D105009739F480916D0490916E04DE
:101240000197B1F507C0909361048093600418166C
:10125000190694F711E01093680410927E0410921E
:101260007D0444E650E060E070E088EE93E00E9488
:10127000ED0E0E94861E8091A906811119C010935F
:101280008C0461E087E090E00E94221860910401E4
:1012900088E090E00E94221860915E0489E090E06E
:1012A0000E94221860915C048AE090E00E9422185B
:1012B0008091600490916104019661F58091D2055E
:1012C000882341F1109237068091A906882329F1DD
:1012D0000E947F24009158041091590420915A04CF
:1012E00030915B04DC01CB01801B910BA20BB30B93
:1012F00087399105A105B10580F00E947F24609394
:1013000058047093590480935A0490935B040E948C
:10131000861E03C081E0809337068091A906811163
:1013200039C08091E9059091EA0597FD06C080914A
:101330006F0490917004019691F444E650E060E0EF
:1013400070E088EE93E00E94ED0E81E08093300122
:1013500061E080E090E00E9422180E9426188091AF
:10136000D0059091D10597FD06C080916D049091B4
:101370006E04019679F444E650E060E070E088EE97
:1013800093E00E94ED0E1092300160E080E090E06A
:101390000E942218E091A706F091A806E431F10519
:1013A00008F034C4E55CFF4F0C94B6308091B00671
:1013B000811135C00E947F240091240410912504DE
:1013C0002091260430912704DC01CB01801B910B76
:1013D000A20BB30B893E9340A105B10578F00E94A2
:1013E0007F246093240470932504809326049093B3
:1013F0002704CE0101960E94280106C06BE176E029
:10140000CE0101960E941523BE016F5F7F4F8BE1D5
:1014100096E00E943722CE0101960E94E42280913C
:101420002D0481110DC00E947F24609329047093C4
:101430002A0480932B0490932C0481E080932D0444
:101440000E947F240091290410912A0420912B04EA
:1014500030912C04DC01CB01801B910BA20BB30B50
:10146000893E9340A105B10508F40BC10E947F2479
:101470006093290470932A0480932B0490932C0486
:101480009091280481E0892780932804882311F013
:1014900080ECF5C010923506F4C08091B006811141
:1014A000EDC080915004811113C00E947F24DC01A3
:1014B000CB0187519C4FAF4FBF4F80934C0490930B
:1014C0004D04A0934E04B0934F0481E080935004E8
:1014D00080914404811144C00E940C1668EE73E0B0
:1014E0000E946130BC01CE0101960E94DA000E9488
:1014F0001616BC01CE0149960E94DA000E941E1603
:10150000BC01CE0185960E94DA00BE016B5D7F4F63
:10151000CE014F960E941523BE01675E7F4FCE011C
:101520004F960E948222BE016F5F7F4F0E948222EF
:10153000BC018EE394E00E94152381E08093440473
:10154000CE014F960E94E422CE0185960E94E422AD
:10155000CE0149960E94E422CE0101960E94E42227
:1015600080913604811107C0809143018093350436
:1015700081E0809336040E947F2400914C041091F6
:101580004D0420914E0430914F04DC01CB01801BAF
:10159000910BA20BB30B893E9340A105B10558F402
:1015A0008091350490E020914301309144018217ED
:1015B000930709F452C00E947F2460934C047093F7
:1015C0004D0480934E0490934F0480914301909179
:1015D0004401892B09F005C30E940C1668EE73E0E4
:1015E0000E946130BC01CE0101960E94DA000E9487
:1015F0001616BC01CE0149960E94DA000E941E1602
:10160000BC01CE0185960E94DA00BE016B5D7F4F62
:10161000CE014F960E941523BE01675E7F4FCE011B
:101620004F960E948222BE016F5F7F4F0E948222EE
:10163000BC018EE394E00E94CD22CE014F960E9421
:10164000E422CE0185960E94E422CE0149960E94B2
:10165000E422CE0101960E94E4226EE374E0CE0102
:1016600001960E941523BE016F5F7F4F8BE196E0CC
:101670000E943722CE0101960E94E42280E48093EA
:1016800035060E94291E1092AF061092AE06BEC209
:1016900060914F0170915001CE0185960E94DA0051
:1016A00060914D0170914E01CE014F960E94DA007B
:1016B00060914B0170914C01CE0101960E94DA00BD
:1016C000BE016F5F7F4FCE0149960E941523BE0178
:1016D000615E7F4FCE0149960E948222BE016B5D02
:1016E0007F4F0E948222BC018BE196E00E94CD22B6
:1016F000CE0149960E94E422CE0101960E94E42286
:10170000CE014F960E94E422CE0185960E94E422EB
:101710001092AF061092AE06809151019091520145
:10172000019789F580E8809335062FC060915301B9
:10173000709154014AE0CE0149960E94E9226BE380
:1017400073E0CE0101960E941E23BE01675E7F4FAB
:10175000CE0101960E9482226BE373E00E94D40EB8
:10176000BC018BE196E00E94CD22CE0101960E9441
:10177000E422CE0149960E94E42283E390E0909314
:10178000AF068093AE06109235060E94291E3EC217
:101790008091B006811142C081E0209155013091C5
:1017A0005601232B09F480E00E94FC1A6B017C0196
:1017B000AB01BC01CE0101960E94901BBE016F5F80
:1017C0007F4F8BE196E00E943722CE0101960E9466
:1017D000E4228091550190915601892B51F481E3C7
:1017E00090E09093AF068093AE0680E48093350638
:1017F00008C083E290E09093AF068093AE0610920B
:10180000350620E030E0A901C701B6010E940E2E86
:1018100087FF04C080913506806836C08091350608
:101820008F7732C06091570170915801CE010196B7
:101830000E94DA00BE016F5F7F4FCE0149960E9481
:10184000152369E373E0CE0149960E94D40EBC01D2
:101850008BE196E00E94CD22CE0149960E94E422BF
:10186000CE0101960E94E4228FE090E09093AF06B3
:101870008093AE06809157019091580197FD03C067
:1018800010923506C3C180E880933506BFC18091B0
:10189000430190914401892B79F46EE073E08BE170
:1018A00096E00E94B62283E090E090931B01809323
:1018B0001A018CE090E00EC065E173E08BE196E0E8
:1018C0000E94B6228CE090E090931B0180931A0155
:1018D00083E090E090931D0180931C0197C180915B
:1018E0004301909144016091490170914A01892B13
:1018F00089F4CE0185960E94DA00609147017091CB
:101900004801CE014F960E94DA0060914501709126
:10191000460110C0CE0185960E94DA006091450113
:1019200070914601CE014F960E94DA006091470106
:1019300070914801CE0101960E94DA00BE016F5FEE
:101940007F4FCE0149960E941523BE01615E7F4FF5
:10195000CE0149960E948222BE016B5D7F4F0E949C
:101960008222BC018BE196E00E94CD22CE014996F5
:101970000E94E422CE0101960E94E422CE014F96FD
:101980000E94E422CE0185960E94E4223FC10E947B
:101990002220E0908704F090880400918504109143
:1019A0008604209183043091840440918A045091EC
:1019B0008B04609181047091820480917F049091E6
:1019C00080040E9421260C94C8011092A90650930D
:1019D000A8064093A706452BB9F40E940C167C017B
:1019E0000E9416168C010E941E169C014091410116
:1019F0005091420160913F017091400180913D0101
:101A000090913E010E9421268091A7069091A80600
:101A1000019719F5E0904901F0904A0190E3E91A25
:101A200098EFF90A00914701109148018090450113
:101A3000909046010E9426165C010E942E166C01B1
:101A40000E9436169401A501B6010E9421266091DC
:101A500043018DE090E00E9422188091A7069091AA
:101A6000A8060297C1F460914B0182E090E00E94C9
:101A7000221860914D0183E090E00E94221860914D
:101A80004F0184E090E00E9422186091510186E0AD
:101A900090E00E9422188091A7069091A8060397D3
:101AA00031F46091530181E090E00E94221880910E
:101AB000A7069091A806049731F4609155018BE038
:101AC00090E00E9422188091A7069091A8060597A1
:101AD00039F460915701645F8CE090E00E94221815
:101AE0000E940C1668EE73E00E946130082F0E947D
:101AF0001616F82E0E941E16E82E0E942616B82EE4
:101B00000E942E16C82E0E943616D82E81E0809391
:101B1000970488E68093B904109298041092BA044E
:101B200060E08FEA95E00E9431141AE08B2D612F5E
:101B30000E944130692FE0E18E9F600D11248FEAF1
:101B400095E00E9431148C2D612F0E944130692F45
:101B5000F0E18F9F600D11248FEA95E00E9431140F
:101B60008D2D612F0E944130692F20E1829F600DF1
:101B700011248FEA95E00E94311461E08FEA95E02C
:101B80000E9431148E2D612F0E944130692FE0E1B7
:101B90008E9F600D11248FEA95E00E9431148F2DE5
:101BA000612F0E944130692FF0E18F9F600D112459
:101BB0008FEA95E00E943114802F612F0E944130FE
:101BC000692F20E1829F600D11248FEA95E00E9429
:101BD000311460E08FEA95E00E9431140E94EF1208
:101BE00015C00E940C1668EE73E00E946130BC01C3
:101BF000CE0101960E94DA000E941E16BC01CE01A1
:101C000049960E94DA000E941616FACCEC960FB69E
:101C1000F894DEBF0FBECDBFDF91CF911F910F9122
:101C2000FF90EF90DF90CF90BF90AF909F908F90FC
:101C300008958EBD00000DB407FEFDCF8EB508954A
:101C40000E94BB320F931F93CF93DF93082FC8E0FE
:101C5000D0E011E081E0912F902309F480E00E9410
:101C60007113110F2197B1F7F894E0912206F091CA
:101C70002306918180912106809598239183E0919C
:101C80002206F09123069281892382837894DF9142
:101C9000CF911F910F91089590912106E091220616
:101CA000F0912306F8948181292F20958223818346
:101CB00078948DE743E050E0815021F1DA011197EB
:101CC000F1F730813923C1F3F89482818223828332
:101CD0008181892B81837894ABE7B7E01197F1F785
:101CE000F894818128232183A3E1B1E01197F1F7D2
:101CF0008081982381E009F080E07894E3E6F6E0C3
:101D00003197F1F70895FC0180819181009711F0DE
:101D10000C94922D60E070E0CB010895BF92CF92B9
:101D2000DF92EF92FF920F931F93CF93DF937C018B
:101D30006B018A01E9012417350720F4812F8901FD
:101D4000C42FD82F60E273E0C7010E941E23D60182
:101D500014968D919C91159708171907D0F48C173C
:101D60009D0708F4EC01D601ED91FC911197EC0F61
:101D7000FD1FB08010824D915C91BA01600F711F00
:101D8000C7010E94B622D601ED91FC91EC0FFD1F18
:101D9000B082C701DF91CF911F910F91FF90EF901B
:101DA000DF90CF90BF900895CF93DF93EC01611542
:101DB000710561F0FB0101900020E9F73197AF0157
:101DC000461B570B0E940922811103C0CE010E94BD
:101DD0007022CE01DF91CF9108953F924F925F9292
:101DE0006F927F928F929F92AF92BF92CF92DF922B
:101DF000EF92FF920F931F93CF93DF9300D000D009
:101E0000CDB7DEB72091110527FDAAC149835A83BA
:101E10006B837C838C0161E0809110050E94E42338
:101E200030901105832D8D7F4801A12CB12C09F034
:101E3000B7C060E072E18AE790E0A50194010E94DA
:101E4000973029013A0169017A0121E0C21AD108CB
:101E5000E108F1088FEFC816D104E104F10409F09C
:101E600008F44CC060E472E48FE090E0A5019401B6
:101E70000E94973069017A0191E0C91AD108E108FE
:101E8000F108A2E03A1220C0BFEFCB16D104E10462
:101E9000F10409F008F462C160E970ED83E090E0BC
:101EA000A50194010E94973069017A01E1E0CE1A00
:101EB000D108E108F108FFEFCF16D104E104F104E5
:101EC00009F0C0F583E065C02FEFC216D104E1042C
:101ED000F104B1F0A8F068E478EE81E090E0A501AB
:101EE00094010E94973069017A0181E0C81AD108F3
:101EF000E108F108332009F4D9C027C181E001C00D
:101F000082E0332091F045C0D301C2012AE0B595AB
:101F1000A795979587952A95D1F76C017D01E1E00A
:101F2000CE1AD108E108F10885E095B5987F892B94
:101F300085BD66C068E478EE81E090E0A50194017B
:101F40000E94973069017A01B1E0CB1AD108E1080B
:101F5000F108EFEFCE16D104E104F10409F008F422
:101F6000A3C064E274EF80E090E0A50194010E94B8
:101F7000973069017A0191E0C91AD108E108F108A6
:101F8000AFEFCA16D104E104F10411F008F0B0C0BB
:101F900085E09091B100987F892B8093B10030C08B
:101FA00060E072E18AE790E0A50194010E94973019
:101FB00069017A01F1E0CF1AD108E108F108C114F2
:101FC000D10421E0E206F10488F068E478EE81E0D3
:101FD00090E0A50194010E94973069017A0181E0A7
:101FE000C81AD108E108F10893E001C091E0A1E02E
:101FF0003A1206C080918100887F892B80938100EE
:1020000089819A81AB81BC81892B8A2B8B2B81F0B2
:10201000D801AA0FBB1F29813A814B815C810E94A4
:10202000482F28EE33E040E050E00E94753003C0B6
:102030002FEF3FEFA90191E03916A1F0A2E03A1687
:1020400019F131108DC0C7BC20930C0530930D05DC
:1020500040930E0550930F0580916E00826080932F
:102060006E007EC0D0928900C0928800209308053F
:102070003093090540930A0550930B0580916F003A
:10208000826080936F006CC0C092B30020930405FF
:102090003093050540930605509307058091700025
:1020A0008260809370005CC084E073CF8FEFC816AD
:1020B000D104E104F104D1F0C8F062E17AE780E0F4
:1020C00090E0A50194010E94973069017A01F1E046
:1020D000CF1AD108E108F1082FEFC216D104E104AC
:1020E000F10411F008F010CF84E01FCF83E01DCF82
:1020F00062E17AE780E090E0A50194010E949730C8
:1021000069017A0191E0C91AD108E108F108AFEF3D
:10211000CA16D104E104F104B1F0A8F0D301C20160
:102120004AE0B595A795979587954A95D1F76C01A3
:102130007D01E1E0CE1AD108E108F108332009F46D
:10214000F3CE87E026CF86E0DCCEBFEFCB16D104FE
:10215000E104F10409F060F684E0D3CE82E019CF07
:102160000F900F900F900F90DF91CF911F910F91D3
:10217000FF90EF90DF90CF90BF90AF909F908F90A7
:102180007F906F905F904F903F9008958F929F92B5
:10219000AF92BF92CF92DF92EF92FF922091BD0556
:1021A0003091BE058217930708F052C04B01AA2454
:1021B000BB24E82DC52ED62EE72EFF24FC2D342F70
:1021C0002091C205222361F0829E40011124E92D55
:1021D000C29E60011124FD2D429FD00111243B2F8E
:1021E000F090C805E090C505A091C305B091C40565
:1021F000FE1008C0AC01440F551F840F951F8A0FB5
:102200009B1F14C0880F991F880F991F8A0F9B1F4F
:10221000472F552766277727DC01AF0DB11D2223F5
:1022200021F0429FA0011124452F4C932091C50518
:10223000DC01A20FB11DEC932091C605DC01A20FB9
:10224000B11DFC932091C705FC01E20FF11D308305
:10225000FF90EF90DF90CF90BF90AF909F908F90C6
:1022600008950F931F93CF93DF93CDB7DEB72997D0
:102270000FB6F894DEBF0FBECDBF8091C30590911D
:10228000C405892B09F4A2C00E9420240091C9052D
:102290001091CA052091CB053091CC05DC01CB0112
:1022A000801B910BA20BB30B8C329140A105B105A1
:1022B00058F3F8948091BF059091C0059A83898363
:1022C000E091C305F091C405DF01119680818987F3
:1022D0009091BB05E091CD05F091CE058091CF05A1
:1022E000992309F42EC09081982B9887908180952E
:1022F00089238F838F818C8388E08B8358856F81BE
:1023000049853B812C8189819A81508347FD252F06
:102310003A952083262F39F0441F00C000006083C7
:10232000000000C0F2CF38E04D91608300000197BB
:1023300061F7F093CE05E093CD0549873B832C836D
:1023400038C09081982B98879081809589238F83BE
:102350008F818E8388E08D8358856F8149853D818B
:102360002E8189819A81508347FD252F00C000C0AE
:10237000208300C000C000C000C000C06083000017
:10238000262F3A9541F0441F000000C000C000C055
:1023900000C000C0E8CF38E04D9100C0608300C0AD
:1023A000019709F7F093CE05E093CD0549873D836A
:1023B0002E839A83898378940E9420246093C90590
:1023C0007093CA058093CB059093CC0529960FB6E0
:1023D000F894DEBF0FBECDBFDF91CF911F910F915B
:1023E0000895009769F0FC0101900020E9F731970A
:1023F000AF01481B590BBC0182E195E00C94B3205E
:1024000080E090E008950F931F93CF93DF938C01AA
:10241000C0E0D0E0F801EC0FFD1F6491662371F07D
:10242000E0911205F09113050190F081E02D82E119
:1024300095E00995892B11F02196ECCFCE01DF9123
:10244000CF911F910F9108958F929F92AF92BF925B
:10245000CF92DF92EF92FF920F931F93CF93DF9370
:10246000CDB7DEB7A1970FB6F894DEBF0FBECDBFD4
:102470006C01990FEE08FF08F7FE31C0E0911205DC
:10248000F09113050190F081E02D6DE282E195E07D
:1024900009958C0122273327A9012C193D094E09E2
:1024A0005F0919A2CE0181967C019AE0892E912CB8
:1024B000A12CB12CCA01B901A50194010E9475306B
:1024C000605DF70162937F012115310541055105DA
:1024D00089F7CF010E94F111080F191F1EC0A70133
:1024E000960119A28E010F5D1F4F8AE0C82ED12CD4
:1024F000E12CF12CCA01B901A70196010E947530A7
:10250000605DF80162938F01211531054105510588
:1025100089F7CF010E94F1118C018EE193E00E94B6
:10252000F111800F911FA1960FB6F894DEBF0FBE78
:10253000CDBFDF91CF911F910F91FF90EF90DF9072
:10254000CF90BF90AF909F908F9008959091E104AD
:102550009111FCCF813208F080E291E09093E10488
:102560009093E0042FEF2093DF041092DE04280FF5
:102570002093DD049093DC049091DC04906D9093A3
:10258000DC049091DB04913061F41092DB049091B3
:10259000DC049093BB009091BC0093FDF8CF95ECC8
:1025A00001C095EE9093BC009091E1049130E1F36D
:1025B0009091DE04981710F48091DE04ABEBB4E048
:1025C00024EE34E0F9019E2F921B981718F49D9188
:1025D0009193F9CF1092E3048093E204089520913F
:1025E000BA049091B904213208F04AC08091E10404
:1025F0008111FCCF32E03093E10431E03093E0040C
:102600003FEF3093DF041092DE042093DD04A9E94C
:10261000B4E04BEB54E0FA013E2F341B321718F4B0
:102620003D913193F9CF1092DC042091DC04990F95
:10263000922B9093DC049091DB04913061F4109222
:10264000DB049091DC049093BB009091BC0093FD5F
:10265000F8CF95EC01C095EE9093BC009091E10409
:102660009230E1F39091DF049F3F79F08091DF0495
:10267000803241F08091DF04803331F084E005C086
:1026800081E003C082E001C083E0109298041092C0
:10269000BA0410929704089580912106E0912206D1
:1026A000F0912306F8949181982B91832281982FA1
:1026B000909529232283A7E0B0E01197F1F72181BB
:1026C00092239183A3E2B0E01197F1F7908178947F
:1026D000EFECF0E03197F1F7982381E009F480E026
:1026E000089590912106E0912206F0912306392F5A
:1026F000309580FF13C0F8942281832F8223828338
:102700008181892B8183A3E2B0E01197F1F7828167
:10271000982B9283789487ED90E012C0F8942281F0
:10272000832F822382838181892B8183AFEFB0E065
:102730001197F1F78281982B928378948FE090E043
:102740000197F1F7089585ED8093BC008091BC005E
:1027500084FDFCCF1092E104089540917806262F65
:1027600030E0240F311D21323105DCF42091E104E9
:102770002430C9F4FC0180E090E0861758F43091D1
:1027800078062191DC01AA5AB94FA30FB11D2C93F1
:102790000196F3CF80917806680F6093780680E009
:1027A000089581E0089582E008950895E091E3049A
:1027B0008091E204E81730F4F0E0EC51FB4F8081A7
:1027C00090E008958FEF9FEF08959091E30480913A
:1027D000E204981750F4E92FF0E0EC51FB4F208110
:1027E00030E09F5F9093E30402C02FEF3FEFC901F9
:1027F00008958091E20490E02091E304821B910906
:102800000895CF92DF92EF92FF920F931F93CF9391
:10281000DF937C01262F972F8A01809197048823CC
:1028200091F0C62FD72F6E01C40ED51ECC15DD0535
:1028300071F06991D701ED91FC910190F081E02D4B
:10284000C7010995F3CF642F822F0E94AD13C801F1
:10285000DF91CF911F910F91FF90EF90DF90CF907C
:102860000895CF93DF931F92CDB7DEB76983209190
:1028700097042223D1F02091BA04203240F021E0C5
:1028800030E0FC013383228380E090E015C080912A
:102890009804E82FF0E0E756FB4F998190838F5F13
:1028A000809398048093BA0405C061E0CE0101963C
:1028B0000E94AD1381E090E00F90DF91CF910895D9
:1028C000089580E090E00895409154065091550697
:1028D00020915206309153064217530719F080E0B9
:1028E0009CE302C08FEF9FEF4F5F5F4F4330510576
:1028F00029F05093550640935406089510925506BA
:10290000109254062F5F3F4F2330310529F030934A
:1029100053062093520608951092530610925206C1
:102920000895CF92DF92EF92FF921F93CF93DF93A0
:1029300090913806911103C08FEF9FEF72C0909174
:1029400037069923C9F3182FC0913606D0E080913D
:102950004A0681110DC00E947F2460934606709341
:102960004706809348069093490681E080934A0683
:102970000E947F24C0904606D0904706E09048060B
:10298000F0904906DC01CB018C199D09AE09BF0905
:102990008D329140A105B105D8F00E947F2460934B
:1029A00046067093470680934806909349068091A7
:1029B000450691E0982790934506992329F01092B7
:1029C00044061092430604C0D0934406C0934306C5
:1029D000209143063091440620953095409135066C
:1029E00050E02423352326FF04C081E08093420673
:1029F00002C01092420627FF04C081E08093410686
:102A000002C01092410680914506882309F494CFB4
:102A100002C0D595C7951A95E2F7C0FF8DCF80E02B
:102A20009CE3DF91CF911F91FF90EF90DF90CF90CB
:102A300008954F925F926F927F928F929F92AF9282
:102A4000BF92CF92DF92EF92FF920F931F93CF939B
:102A5000DF934B015C0180919D0690919E06A091B1
:102A60009F06B091A00688169906AA06BB0609F42F
:102A7000C2C08CE3C82ED12CE12CF12CC501B401CD
:102A8000A70196010E9475306093E706CA01B9015B
:102A9000A70196010E9475306093E806CA01B9014A
:102AA00028E130E040E050E00E94753069017A0191
:102AB0006093E906CA01B9016C5F7F4F8F4F9F4F4A
:102AC00027E030E040E050E00E9475306F5F609397
:102AD000EA06412C512C320140E004E610E0C0E946
:102AE000D1E0242F30E02E54384FF901E370FF2756
:102AF000309789F4C901B8010E946130892B31F403
:102B0000C901BE010E946130892B29F48EE691E053
:102B1000A0E0B0E004C08DE691E0A0E0B0E0480E97
:102B2000591E6A1E7B1ED301C201AA27BB27C816E5
:102B3000D906EA06FB0610F04F5FD3CF4093ED06AF
:102B4000309799F4C90164E670E00E946130892BE6
:102B500039F4C90160E971E00E946130892B29F4E0
:102B60008EE691E0A0E0B0E004C08DE691E0A0E048
:102B7000B0E0481A590A6A0A7B0AC418D508E60860
:102B8000F708C90164E670E00E946130EC01C901F8
:102B900060E971E00E946130A2E0B3E020E0213002
:102BA00039F4309749F4209729F4009729F402C0AA
:102BB0004C9103C04DE101C04CE150E060E070E099
:102BC000C416D506E606F70640F0C41AD50AE60A8A
:102BD000F70A2F5F11962C3011F72F5F2093EC0628
:102BE000C394C092EB0680929D0690929E06A0929E
:102BF0009F06B092A006DF91CF911F910F91FF9099
:102C0000EF90DF90CF90BF90AF909F908F907F908C
:102C10006F905F904F9008950E94FD260E941915B5
:102C20008091ED0690E08E54984F08950E94FD2605
:102C30000E9419158091EC0690E008950E94FD26EF
:102C40000E9419158091EB0690E008950E94FD26E0
:102C50000E9419158091E70690E008950E94FD26D4
:102C60000E9419158091E80690E008950E94FD26C3
:102C70000E9419158091E90690E00895CF92DF92A5
:102C8000EF92FF92CF93DF93EC010E947F246B01C0
:102C90007C018F850E948B2321E0892B09F420E0A1
:102CA000298B8889811103C081E08227898B29893A
:102CB0008A89281721F0CD8ADE8AEF8AF88E8D89DD
:102CC0009E89AF89B88DB701A601481B590B6A0BC5
:102CD0007B0BDB01CA01CB80DC80ED80FE80C4165B
:102CE000D506E606F70664F43A81231749F02A83ED
:102CF000222331F04B895C894F5F5F4F5C8B4B8B9C
:102D00003A8131110CC0CF80D884E984FA84C81686
:102D1000D906EA06FB06ACF48B899C890EC0CB84ED
:102D2000DC84ED84FE84C816D906EA06FB064CF462
:102D30008B899C89919581959109998388831C8AB7
:102D40001B8A2A8BDF91CF91FF90EF90DF90CF907D
:102D500008950F931F93CF93DF931F92CDB7DEB7E4
:102D60008C01862FF8016787408B91E04927418BC2
:102D7000428B148A138A118210821282158A168A53
:102D8000178A108E44E150E060E070E04383548382
:102D9000658376834AEF50E060E070E047835087B8
:102DA0006187728748EE53E060E070E043875487A4
:102DB0006587768760E029830E94E423F801808993
:102DC000298181110BC0222349F061E087850F9092
:102DD000DF91CF911F910F910C94B4230F90DF914D
:102DE000CF911F910F9108951F920F920FB60F92DE
:102DF00011242F933F934F935F936F937F938F9300
:102E00009F93AF93BF93EF93FF938091B900887F17
:102E1000803609F49CC068F5883209F45BC090F4F0
:102E2000803109F454C038F4882309F4F6C088309E
:102E300009F44DC0F6C0883109F44CC0803209F461
:102E40005DC0EFC0803409F468C048F4803309F4F1
:102E500055C0883309F0E5C08093DF04D8C08035C1
:102E600009F44FC0883509F45DC0883409F0D9C031
:102E7000D6C0883909F4C7C0A8F4883709F467C0F8
:102E800038F4883609F463C0803709F460C0C9C0DB
:102E9000883809F4B8C0803909F45FC0803809F077
:102EA000C0C05BC0803B09F486C038F4803A09F4A6
:102EB00066C0883A09F47FC0B4C0803C09F4A7C05A
:102EC000883C09F4A4C0883B09F48AC0AAC0809158
:102ED000DC0410C09091DE048091DD04981770F539
:102EE000E091DE0481E08E0F8093DE04F0E0E55493
:102EF000FB4F80818093BB0085EC86C08093DF040C
:102F00008EC0E091DE0481E08E0F8093DE0480911C
:102F1000BB00F0E0E554FB4F80839091DE0480918C
:102F2000DD046EC0E091DE0481E08E0F8093DE044C
:102F30008091BB00F0E0E554FB4F80838091E0047A
:102F400081116DC081E08093DB0484EA61C083E07D
:102F50008093E10410929C06CFCF80919C06803232
:102F600008F051C0E0919C0681E08E0F80939C0692
:102F70008091BB00F0E0E458F94F8083BDCF85EC31
:102F80008093BC001092E10480919C06803230F462
:102F9000E0919C06F0E0E458F94F108260919C06A5
:102FA00070E0E0917A06F0917B068CE796E0099557
:102FB00010929C0636C084E08093E104109279065A
:102FC00010927806E0917606F09177060995809147
:102FD0007806811105C081E080937806109256062C
:102FE000E091790681E08E0F80937906F0E0EA5A4D
:102FF000F94F80818093BB0090917906809178068B
:10300000981708F479CF85E88093BC000AC085EC56
:103010008093BC001092E10404C01092DF040E946F
:10302000A313FF91EF91BF91AF919F918F917F91EA
:103030006F915F914F913F912F910F900FBE0F9025
:103040001F9018950C943A2F0C94322F8F929F92C8
:10305000AF92BF92CF92DF92EF92FF920F931F93A6
:10306000CF93DF9388E090E00E942418982EA82E3A
:10307000B12C89E090E00E942418C82E082F10E09F
:103080008AE090E00E942418C82FD0E0D12CE12CD7
:10309000F12CFE2CED2CDC2CCC24E928C82A812C28
:1030A000912CB701A601C4010E94C6108FEF881AA7
:1030B000980A88E088169104A1F70E94311185E3EF
:1030C00091E00E9403128EE193E00E94F11180E3EF
:1030D00091E00E940312C5010E94241289E291E04E
:1030E0000E940312C8010E94241283E291E00E9410
:1030F0000312CE01DF91CF911F910F91FF90EF90BE
:10310000DF90CF90BF90AF909F908F900C9424123F
:10311000CF93DF93C0E0D0E040E050E0BA01CE01B1
:103120000E94C6102196C830D105B1F7DF91CF912A
:103130000C9431112F923F924F925F926F927F9237
:103140008F929F92AF92BF92CF92DF92EF92FF92B7
:103150000F931F93CF93DF93CDB7DEB728970FB6AA
:10316000F894DEBF0FBECDBF0E94202460933D06C1
:1031700070933E0680933F06909340060091390677
:1031800010913A0620913B0630913C066B017C0180
:10319000C01AD10AE20AF30A40EDC41647E0D40689
:1031A000E104F10408F46FC16093390670933A06A4
:1031B00080933B0690933C068BE196E00E94830E41
:1031C0006B017C0160E08AE00E94B4238AE0882ED3
:1031D000912CA12CB12CC701B601A50194010E942C
:1031E0009730660F771FFB01EB53FD4FC080D180F6
:1031F000DA82C98285E090E02B833C834D835E8335
:103200000E94911498878F830E9464147C012B8103
:103210003C814D815E81CA01B901A50194010E94E2
:103220009730660F771FFB01EB53FD4F6080718075
:1032300084E090E02B833C834D835E830E94911455
:103240008C010E9464146C012B813C814D815E8154
:10325000CA01B901A50194010E94973019012A0100
:10326000660F771FFB01EB53FD4F8080918083E059
:1032700090E00E9491145C010E9464140C211D21B5
:103280000621172120E030E0AAE0000F111F221FC5
:10329000331FAA95D1F78A219B21AC0148215921DE
:1032A00060E070E048015901842A952AA62AB72ACD
:1032B000CF80D884EC20FD20C980DA80EC20FD206E
:1032C000A70160E070E0B4E1440F551F661F771F4F
:1032D000BA95D1F7842A952AA62AB72A8091420660
:1032E000882319F06894B6F802C0E894B6F8809183
:1032F0004106882319F06894B7F802C0E894B7F83B
:103300008B2D0E94190E8A2D0E94190E892D0E9464
:10331000190E882D0E94190E8AE0C82ED12CE12C9E
:10332000F12CC201B101A70196010E949730660FEE
:10333000771FFB01EB53FD4F4080518082E090E00E
:103340002B833C834D835E830E9491145C010E9419
:1033500064148C012B813C814D815E81CA01B901CD
:10336000A70196010E949730660F771FFB01EB5370
:10337000FD4F6080718081E090E02B833C834D8322
:103380005E830E9491144C010E9464141501202256
:10339000312224203520412C512CF4E1220C331C05
:1033A000441C551CFA95D1F7882199218621972133
:1033B000A0E0B0E01AE0880F991FAA1FBB1F1A9562
:1033C000D1F752014101882A992AAA2ABB2A2B81C6
:1033D0003C814D815E81CA01B901A70196010E941D
:1033E0009730660F771FFB01EB53FD4FE080F180B4
:1033F00080E090E00E9491148C010E94641480236C
:1034000091238E219F21A0E0B0E0882A992AAA2A40
:10341000BB2A80914206882319F06894B6F802C04E
:10342000E894B6F880914106882319F06894B7F8BB
:1034300002C0E894B7F88B2D0E94190E8A2D0E94C5
:10344000190E892D0E94190E882D0E94190E61E017
:103450008AE028960FB6F894DEBF0FBECDBFDF918D
:10346000CF911F910F91FF90EF90DF90CF90BF9081
:10347000AF909F908F907F906F905F904F903F9014
:103480002F900C94B42328960FB6F894DEBF0FBE8D
:10349000CDBFDF91CF911F910F91FF90EF90DF9003
:1034A000CF90BF90AF909F908F907F906F905F90E4
:1034B0004F903F902F9008950F931F93CF93DF93DA
:1034C000CDB7DEB768970FB6F894DEBF0FBECDBF9D
:1034D0008B01833091F420911F063091200642E049
:1034E00050E06BE176E0CE010D960E948E0EB801A1
:1034F000CE0101960E94DA0055C08C3009F042C01E
:1035000020911F063091200644E050E06BE176E008
:10351000CE0143960E948E0EB801CE010D960E94F8
:10352000DA0022E030E040E050E06BE176E0CE01EE
:1035300001960E948E0EBE016F5F7F4FCE010796EF
:103540000E941523BE01635F7F4FCE0107960E9444
:103550008222BE016D5E7F4F0E948222BC018BE100
:1035600096E00E94CD22CE0107960E94E422CE0171
:1035700001960E94E422CE010D960E94E422CE0123
:1035800043962DC0803369F5CE010D960E94DA0076
:1035900024E030E040E050E06BE176E0CE010196BF
:1035A0000E948E0EBE016F5F7F4FCE0107960E9474
:1035B0001523BE01635F7F4FCE0107960E948222D2
:1035C000BC018BE196E00E94CD22CE0107960E94BD
:1035D000E422CE0101960E94E422CE010D960E94C3
:1035E000E42268960FB6F894DEBF0FBECDBFDF9120
:1035F000CF911F910F910895DF92EF92FF920F9359
:103600001F93CF93DF93C091E506D091E606C830B3
:10361000D10508F068C0082FFE01E15BFF4F0C9454
:10362000B63084E406C00E944C0E5DC08CEC01C034
:103630008EEB0E94220E57C028E0E22EF12C01E012
:1036400010E00E944C138111102B000F81E0E81A4A
:10365000F108B9F71093E30646C098E0E92EF12C83
:10366000DD24D39410E00E944C1381111D29DD0C40
:1036700081E0E81AF108B9F71093E406612F70E0D1
:10368000762F66278091E306682B6F3F8FEF7807D0
:1036900011F460E070E0072E000C880B990B0E947B
:1036A000152E20E030E040E85DE30E94742E0023F8
:1036B00061F026E636E646EE5FE30E94742E20E0D7
:1036C00030E040E052E40E949A2F20E030E040E2F7
:1036D00051E40E94742E6093DF067093E00680939D
:1036E000E1069093E2062196C830D10529F0D093E7
:1036F000E606C093E50604C01092E6061092E506C1
:103700006091DF067091E0068091E1069091E206FB
:10371000DF91CF911F910F91FF90EF90DF9008956F
:103720008F929F92AF92BF92CF92DF92EF92FF92D1
:103730000F931F93CF93DF93CDB7DEB72C970FB6C0
:10374000F894DEBF0FBECDBF8C016A017B01809172
:10375000D706811113C00E947F24DC01CB01845B5A
:103760009B4FAF4FBF4F8093D3069093D406A09347
:10377000D506B093D60681E08093D7068091CB061C
:10378000811109C067E373E085EC96E00E941E2377
:1037900081E08093CB060E947F248090D306909096
:1037A000D406A090D506B090D606DC01CB018819CE
:1037B0009909AA09BB09893E9340A105B10508F4FE
:1037C00077C10E947F246093D3067093D4068093C0
:1037D000D5069093D60620E030E0A901C701B601D6
:1037E0000E943C3020E030E040E05FE387FD05C010
:1037F000C701B6010E949A2F04C0C701B6010E94FA
:10380000992F0E94063080915501909156019B019D
:1038100029513C4F49012458334059012A55310957
:1038200069017B01892B09F095C077FF03C0F194F2
:10383000E194F1084AE0B701CE0107960E94E9221F
:103840006CE373E0CE0101960E941E23BE01695F06
:103850007F4FCE0101960E9482226CE373E00E94AA
:10386000D40EBC0185EC96E00E94CD22CE010196DB
:103870000E94E422CE0107960E94E4223FEC8316C8
:1038800037E0930620F54AE0B701CE0107960E9483
:10389000E9226BE373E0CE0101960E941E23BE0174
:1038A000695F7F4FCE0101960E9482226CE373E034
:1038B0000E94D40EBC0185EC96E00E94CD22CE0180
:1038C00001960E94E422CE0107960E94E42287EC32
:1038D000A816B10420F54AE0B701CE0107960E9470
:1038E000E9226AE373E0CE0101960E941E23BE0125
:1038F000695F7F4FCE0101960E9482226CE373E0E4
:103900000E94D40EBC0185EC96E00E94CD22CE012F
:1039100001960E94E422CE0107960E94E42223E150
:10392000C216D10408F0C4C04AE0B701CE01079620
:103930000E94E92269E373E0CE0101960E941E23F2
:10394000BE01695F7F4FCE0101960E9482226CE327
:1039500073E09FC077FF03C0F194E194F1084AE05F
:10396000B701CE0107960E94E9226CE373E0CE0115
:1039700001960E941E23BE01695F7F4FCE01019612
:103980000E9482226CE373E00E94D40EBC0185EC9D
:1039900096E00E94CD22CE0101960E94E422CE0143
:1039A00007960E94E4223FEC831637E0930640F529
:1039B000C7016AE070E00E9461304AE0CE010796DC
:1039C0000E94E9226BE373E0CE0101960E941E2360
:1039D000BE01695F7F4FCE0101960E9482226BE398
:1039E00073E00E94D40EBC0185EC96E00E94CD22CB
:1039F000CE0101960E94E422CE0107960E94E422A5
:103A000087ECA816B10440F5C7016AE070E00E9497
:103A100061304AE0CE0107960E94E9226AE373E032
:103A2000CE0101960E941E23BE01695F7F4FCE0129
:103A300001960E9482226BE373E00E94D40EBC01C7
:103A400085EC96E00E94CD22CE0101960E94E422F0
:103A5000CE0107960E94E42223E1C216D10440F56C
:103A6000C7016AE070E00E9461304AE0CE0107962B
:103A70000E94E92269E373E0CE0101960E941E23B1
:103A8000BE01695F7F4FCE0101960E9482226BE3E7
:103A900073E00E94D40EBC0185EC96E00E94CD221A
:103AA000CE0101960E94E422CE0107960E94E422F4
:103AB00065EC76E0C8010E941523C8012C960FB66C
:103AC000F894DEBF0FBECDBFDF91CF911F910F9154
:103AD000FF90EF90DF90CF90BF90AF909F908F902E
:103AE00008954F925F926F927F928F929F92AF92C2
:103AF000BF92CF92DF92EF92FF920F931F93CF93DB
:103B0000DF9300D000D000D0CDB7DEB77C014B01F1
:103B10005A018091B006882341F08091B8060FEBDE
:103B200016E0A9EBB6E0F8014CC081E08093B00646
:103B30001092AF061092AE068FEB682E86E0782EBC
:103B400099EB492E96E0592E00E010E00F5F1F4FD1
:103B5000680181E0C81AD1089801A601B401CE011C
:103B600001960E948E0ECE0101960E94830EF301F3
:103B700061933F01CE0101960E94E4229801A601C3
:103B8000B501CE0101960E948E0ECE0101960E94D3
:103B9000830EF20161932F01CE0101960E94E4226F
:103BA0000630110599F6B9CF2C9192130DC0908172
:103BB0009A3009F410823196119696E0E53CF907A7
:103BC00031F090818A3080F79F5F9083F0CF8F5FD4
:103BD000843119F08093B80604C01092B806109290
:103BE000B00660E273E0C7010E941E23FE01319619
:103BF0006F01F80181918F014AE0B60190E00E94C7
:103C0000C42DF60101900020E9F73197AF014C195E
:103C10005D09B601C7010E940922F6E0053C1F07B5
:103C200041F7C70126960FB6F894DEBF0FBECDBF91
:103C3000DF91CF911F910F91FF90EF90DF90CF9088
:103C4000BF90AF909F908F907F906F905F904F90BC
:103C500008950F931F938091510190915201892BE8
:103C600009F451C08091B7068823A9F00E947F24EF
:103C70000091B3061091B4062091B5063091B606B6
:103C8000DC01CB01801B910BA20BB30B893E93404F
:103C9000A105B105A8F58091B706811134C00E9435
:103CA000361620914B0130914C018217930759F53C
:103CB0000E942E1620914D0130914E0182179307DC
:103CC00011F50E94261620914F0130915001821764
:103CD0009307C9F40E947F246093B3067093B406DF
:103CE0008093B5069093B60681E08093B7068091E5
:103CF0002E0190912F0190937E0480937D0403C048
:103D00001092B706C8CF1F910F9108950E947F248B
:103D10006093AA067093AB068093AC069093AD06B1
:103D20008091A906882309F450C02091A7063091FC
:103D3000A806C901880F991F2131310551F0FC01F6
:103D4000EF5CFE4F408151814150510951834083C6
:103D50000AC040915301509154014C505109509365
:103D6000540140935301DC01AF5CBE4F6D917C91D7
:103D70001197FC01E758FD4F408151816417750789
:103D80003CF4FC01E652FD4F408151814D935C9320
:103D90002031310571F420915101309152012130CF
:103DA000310521F420E82093350606C0109235062F
:103DB00003C02930310549F0FC01EF5CFE4F608102
:103DC0007181809136060C945C1A08950E947F24BC
:103DD0006093AA067093AB068093AC069093AD06F1
:103DE0008091A906882309F445C02091A706309147
:103DF000A806C901880F991F2131310551F0FC0136
:103E0000EF5CFE4F408151814F5F5F4F5183408394
:103E10000AC04091530150915401445F5F4F509349
:103E2000540140935301DC01AF5CBE4F6D917C9116
:103E30001197FC01E652FD4F40815181461757070B
:103E40003CF4FC01E758FD4F408151814D935C9358
:103E50002031310519F41092350603C0293031059F
:103E600049F0FC01EF5CFE4F608171818091360664
:103E70000C945C1A0895CF93DF93EC01019628818E
:103E80002A33D9F78981843639F51092A606109223
:103E9000A50623964AE0FE018881219690ED980FB1
:103EA0002091A5063091A6069A3080F4429FB00179
:103EB000439F700D1124082E000C990BC097860F9C
:103EC000971F9093A6068093A506E5CF12161306BA
:103ED00014F420935C01EF01219688818F3689F4D8
:103EE0008A81082E000C990B9C01205331093093D4
:103EF000A6062093A506C397059710F420935B01AF
:103F000024968881823629F51092A6061092A5067D
:103F1000FE0132964AE0819190ED980F2091A5061E
:103F20003091A6069A3080F4429FB001439F700DF5
:103F30001124082E000C990BC097860F971F9093A1
:103F4000A6068093A506E7CF30935A012093590126
:103F5000EF012091590130915A01032E000C440BBE
:103F6000550B60E67AEE80E090E00E949730DA012F
:103F7000C90122E0880F991FAA1FBB1F2A95D1F7FC
:103F80008093A1069093A206A093A306B093A406E3
:103F9000CE01DF91CF910895CF92DF92EF92FF9201
:103FA0001F93CF93DF93CDB7DEB72C970FB6F8945E
:103FB000DEBF0FBECDBF182F63E473E0CE010196C4
:103FC0000E941E23133029F422E030E040E050E04C
:103FD0000FC01C3029F424E030E042E050E008C07B
:103FE0001033B9F420911F063091200644E050E0D0
:103FF0006BE176E0CE0107960E948E0EBE01695FEE
:104000007F4FCE0101960E943722CE0107960E9473
:10401000E422CE0101960E94830E6B017C01CE0149
:1040200001960E94E422C6012C960FB6F894DEBFDA
:104030000FBECDBFDF91CF911F91FF90EF90DF902A
:10404000CF90089581E08093970488E68093B90427
:10405000109298041092BA0460E08FEA95E00E94F2
:1040600031140E94EF1287E090E00E94A6128FEABE
:1040700095E00E94E513982F92959F708F702AE02B
:10408000929F800D112490E090938B0480938A047A
:104090008FEA95E00E94E513982F92959F708F709C
:1040A0002AE0929F800D112490E0909382048093E7
:1040B00081048FEA95E00E94E513982F96959695D6
:1040C00096959670292F220F220F920F8F70890FCD
:1040D00090E09093800480937F048FEA95E00E94A3
:1040E000E513982F92959F708F702AE0929F800D14
:1040F000112490E09093B2068093B1068FEA95E088
:104100000E94E513982F92959F708F702AE0929FDE
:10411000800D112490E090938404809383048FEAAF
:1041200095E00E94E513982F92959F708F702AE07A
:10413000929F800D112490E09093860480938504D3
:104140008FEA95E00E94E513982F92959F708F70EB
:104150002AE0929F800D112490E090938804809330
:10416000870408950895CF92DF92EF92FF920F9304
:104170001F93CF93DF936C017A018B01C0E0D0E0F5
:10418000CE15DF0589F0D8016D918D01D601ED9135
:10419000FC910190F081E02DC6010995892B11F465
:1041A0007E0102C02196ECCFC701DF91CF911F9114
:1041B0000F91FF90EF90DF90CF900895FC01538D09
:1041C000448D252F30E0842F90E0821B930B5417F1
:1041D00010F0CF96089501970895FC01918D828D7E
:1041E000981761F0828DDF01A80FB11D5D968C914B
:1041F000928D9F5F9F73928F90E008958FEF9FEF56
:104200000895FC01918D828D981731F0828DE80F11
:10421000F11D858D90E008958FEF9FEF0895FC01CB
:10422000918D228D892F90E0805C9F4F821B910998
:104230008F739927089582E195E00E940F2121E074
:10424000892B09F420E0822F0895FC01848DDF0181
:10425000A80FB11DA35ABF4F2C91848D90E00196F9
:104260008F739927848FA689B7892C93A089B189E8
:104270008C9180648C93938D848D981306C00288F2
:10428000F389E02D80818F7D80830895EF92FF92E6
:104290000F931F93CF93DF93EC0181E0888F9B8D69
:1042A0008C8D981305C0E889F989808185FD24C02B
:1042B000F62E0B8D10E00F5F1F4F0F731127E02EAE
:1042C0008C8DE8120CC00FB607FCFACFE889F9898B
:1042D000808185FFF5CFCE010E942521F1CF8B8D06
:1042E000FE01E80FF11DE35AFF4FF0820B8FEA89C0
:1042F000FB898081806207C0EE89FF896083E8893D
:10430000F98980818064808381E090E0DF91CF91A2
:104310001F910F91FF90EF900895CF93DF93EC01E1
:10432000888D8823C9F0EA89FB89808185FD05C0D5
:10433000A889B9898C9186FD0FC00FB607FCF5CF0F
:10434000808185FFF2CFA889B9898C9185FFEDCF57
:10435000CE010E942521E7CFDF91CF91089580E023
:1043600090E0892B29F00E941B2181110C94000000
:104370000895833081F028F4813099F08230A1F0E3
:1043800008958730A9F08830B9F08430D1F4809155
:1043900080008F7D03C0809180008F7780938000A4
:1043A000089584B58F7702C084B58F7D84BD08954C
:1043B0008091B0008F7703C08091B0008F7D809393
:1043C000B00008950F931F93CF93DF93EC01888182
:1043D0009981009729F02A813B812617370788F4B5
:1043E0008B016F5F7F4F0E94F131009761F09983DD
:1043F00088831B830A832C813D81232B11F4FC01CC
:10440000108281E001C080E0DF91CF911F910F9178
:104410000895EF92FF920F931F93CF93DF93FC01C8
:10442000248135816115710511F480E019C04115B1
:104430005105A9F07B01EC018A01020F131FB8019D
:104440000E94E221882389F3288139818C819D8112
:10445000B701820F931F0E94C9321D830C8381E034
:10446000DF91CF911F910F91FF90EF9008950F93DF
:104470001F93CF93DF938C01EB01FC01808191812D
:104480000097B1F0688179816115710579F04281F9
:1044900053812C813D814217530740F00E94C9325D
:1044A0008C819D81F8019583848313C00E945931CA
:1044B00088819981F801918380838A819B8193838C
:1044C00082838C819D8195838483198218821B82CB
:1044D0001A821D821C82DF91CF911F910F91089546
:1044E000CF93DF93EC0188819981009711F00E94AE
:1044F0005931198218821D821C821B821A82DF9117
:10450000CF910895CF93DF93EC01FB014481558156
:10451000608171810E940922811103C0CE010E9435
:104520007022CE01DF91CF910895EF92FF920F9309
:104530001F93CF93DF93EC017B018A01BA010E94A4
:10454000E221811104C0CE010E94702207C01D83A8
:104550000C83B701888199810E94C932CE01DF9115
:10456000CF911F910F91FF90EF900895CF93DF931C
:10457000EC016115710559F0FB0101900020E9F78C
:104580003197AF01461B570B0E94952202C00E9433
:104590007022CE01DF91CF910895CF93DF93EC018C
:1045A000FB018617970761F06081718161157105C4
:1045B00029F0448155810E94952202C00E947022F8
:1045C000CE01DF91CF910895FC01808191810C94FF
:1045D00059310F931F93CF93DF93CDB7DEB7629717
:1045E0000FB6F894DEBF0FBECDBF8C01CB01F80132
:1045F00011821082138212821582148250E0BE0151
:104600006F5F7F4F0E94B92DBE016F5F7F4FC80162
:104610000E94B62262960FB6F894DEBF0FBECDBFE1
:10462000DF91CF911F910F910895FC0111821082AB
:1046300013821282158214820C94CD22FC01118205
:10464000108213821282158214826115710551F055
:10465000FB0101900020E9F73197AF01461B570B92
:104660000C94952208951F920F920FB60F92112469
:104670002F933F934F935F936F937F938F939F936A
:10468000AF93BF93EF93FF9382E195E00E942521C2
:10469000FF91EF91BF91AF919F918F917F916F911A
:1046A0005F914F913F912F910F900FBE0F901F90F0
:1046B00018951F920F920FB60F9211242F938F937C
:1046C0009F93EF93FF93E0912205F0912305808162
:1046D000E0912805F091290582FD12C0908180911A
:1046E0002B058F5F8F7320912C05821751F0E0917D
:1046F0002B05F0E0EE5EFA4F958F80932B0501C0FD
:104700008081FF91EF919F918F912F910F900FBE1C
:104710000F901F901895CF93DF93282F30E0F90169
:10472000E85BFE4F8491F901E15FFE4FD491F901FE
:10473000E550FF4FC491CC2391F081110E94B92123
:10474000EC2FF0E0EE0FFF1FEF50FF4FA591B4915B
:10475000EC91ED2381E090E021F480E002C080E064
:1047600090E0DF91CF9108951F93CF93DF93282F8F
:1047700030E0F901E85BFE4F8491F901E15FFE4F03
:10478000D491F901E550FF4FC491CC23C9F0162F05
:1047900081110E94B921EC2FF0E0EE0FFF1FE951CB
:1047A000FF4FA591B4918FB7F894111105C09C915A
:1047B000ED2FE095E92302C0EC91ED2BEC938FBF38
:1047C000DF91CF911F910895CF93DF9390E0FC018B
:1047D000E15FFE4F2491FC01E550FF4F8491882357
:1047E00061F190E0880F991FFC01EF54FF4FC591D4
:1047F000D491FC01E951FF4FA591B491611109C019
:104800009FB7F8948881209582238883EC912E238A
:104810000BC0623061F49FB7F8943881822F809585
:1048200083238883EC912E2B2C939FBF06C08FB7D8
:10483000F894E8812E2B28838FBFDF91CF910895C4
:104840003FB7F8948091030790910407A091050762
:10485000B091060726B5A89B05C02F3F19F0019619
:10486000A11DB11D3FBFBA2FA92F982F8827820FF6
:10487000911DA11DB11DBC01CD0142E0660F771F46
:10488000881F991F4A95D1F708958F929F92AF92F2
:10489000BF92CF92DF92EF92FF926B017C010E9458
:1048A00020244B015C01C114D104E104F104F1F0B6
:1048B0000E942024DC01CB0188199909AA09BB09AF
:1048C000883E9340A105B10570F321E0C21AD108DA
:1048D000E108F10888EE880E83E0981EA11CB11C47
:1048E000C114D104E104F10419F7DDCFFF90EF907A
:1048F000DF90CF90BF90AF909F908F9008952FB78B
:10490000F8946091FF0670910007809101079091E3
:1049100002072FBF08956093FA067093FB068093F9
:10492000FC069093FD06DC01CB01845D9E4FAF4FEA
:10493000BF4F8093F6069093F706A093F806B093C6
:10494000F90682E090E09093F5068093F4060E94C9
:104950007F246093F0067093F1068093F2069093A3
:10496000F30608951F920F920FB60F9211242F9302
:104970003F938F939F93AF93BF938091FF06909146
:104980000007A0910107B09102073091FE0623E0D5
:10499000230F2D3720F40196A11DB11D05C026E877
:1049A000230F0296A11DB11D2093FE068093FF06E2
:1049B00090930007A0930107B0930207809103072B
:1049C00090910407A0910507B09106070196A11DDB
:1049D000B11D8093030790930407A0930507B0933C
:1049E0000607BF91AF919F918F913F912F910F90AB
:1049F0000FBE0F901F9018951F920F920FB60F9237
:104A000011242F933F934F935F936F937F938F93D3
:104A10009F93EF93FF93409104055091050560919A
:104A2000060570910705411551056105710599F05D
:104A300080917304E0917404F0917504908189274A
:104A400080831416150616061706D4F44150510932
:104A50006109710915C0809170008D7F809370008D
:104A600090917304E0917404F09175048081282F73
:104A700030E0892F90E08095909582239323808366
:104A80004093040550930505609306057093070550
:104A9000FF91EF919F918F917F916F915F914F91D6
:104AA0003F912F910F900FBE0F901F9018951F925E
:104AB0000F920FB60F9211242F933F938F939F93D2
:104AC000AF93BF93EF93FF938091080590910905F1
:104AD000A0910A05B0910B05892B8A2B8B2B51F1E4
:104AE00080917604E0917704F09178049081892791
:104AF00080838091080590910905A0910A05B091E5
:104B00000B05181619061A061B064CF580910805A8
:104B100090910905A0910A05B0910B050197A10993
:104B2000B1098093080590930905A0930A05B093F5
:104B30000B0515C080916F008D7F80936F00909161
:104B40007604E0917704F09178048081282F30E09A
:104B5000892F90E080959095822393238083FF9105
:104B6000EF91BF91AF919F918F913F912F910F90B6
:104B70000FBE0F901F9018951F920F920FB60F92B5
:104B800011242F933F938F939F93AF93BF93EF93F2
:104B9000FF9380910C0590910D05A0910E05B091A9
:104BA0000F05892B8A2B8B2B51F180917904E09191
:104BB0007A04F0917B0490818927808380910C0591
:104BC00090910D05A0910E05B0910F0518161906CC
:104BD0001A061B064CF580910C0590910D05A091CD
:104BE0000E05B0910F050197A109B10980930C053D
:104BF00090930D05A0930E05B0930F0515C08091FD
:104C00006E008D7F80936E0090917904E0917A041C
:104C1000F0917B048081282F30E0892F90E08095EF
:104C20009095822393238083FF91EF91BF91AF9161
:104C30009F918F913F912F910F900FBE0F901F90DA
:104C400018953F924F925F926F927F928F929F92B0
:104C5000AF92BF92CF92DF92EF92FF920F931F938A
:104C6000CF93DF93382E962E842EF90184E6E81632
:104C7000F1042CF082EBE81A87E0F80A03C08EE119
:104C8000E80EF11CE092ED060093EC06E093EB06D3
:104C90003092E9069092E8068092E706AE2DB0E0E9
:104CA00020E833E341EE51E00E94482F2B013C0104
:104CB00022EB37E0FF2484E6C82ED12CC0E9D1E0F6
:104CC000C901825B97408E159F05DCF4C901837092
:104CD0009927892B99F4C901B6010E946130892B6B
:104CE00031F4C901BE010E946130892B39F480E89A
:104CF000480E81E5581E81E0681E711C2F5F3F4FF2
:104D0000DFCF8EE4E81A88EFF80AC70164E670E0A6
:104D10000E9461306C01C70160E971E00E9461305E
:104D20005C01C1E0D0E0112783E0E822FF24C01736
:104D3000D1072CF5C230D10589F4E114F10471F4E6
:104D4000C114D10419F4A114B10441F480E8480E4F
:104D50008BE3581E86E2681E711C0FC0DE01AF5F38
:104D6000BC4FAC91B0E020E831E541E050E00E945A
:104D7000482F460E571E681E791E2196D8CF292D22
:104D800030E0ACE3B0E00E948A2F6B017C01C80CDC
:104D9000D11CE11CF11C232D30E0A0E1BEE00E94FB
:104DA0008A2FC60ED71EE81EF91EDF01BB271197FA
:104DB00020E831E541E050E00E94BC30DC01CB014D
:104DC0008C0D9D1DAE1DBF1DBC01CD01640D751D5B
:104DD000861D971DDF91CF911F910F91FF90EF904E
:104DE000DF90CF90BF90AF909F908F907F906F900B
:104DF0005F904F903F900C948B24CF92DF92EF9274
:104E0000FF920F931F930E947F24C090F006D090D2
:104E1000F106E090F206F090F3068B019C010C196C
:104E20001D092E093F098091FA069091FB06A09179
:104E3000FC06B091FD06083E134021053105D0F077
:104E40000196A11DB11D8093FA069093FB06A093D5
:104E5000FC06B093FD06B701A60148515C4F6F4FA9
:104E60007F4F4093F0065093F1066093F2067093E3
:104E7000F306C9CF4091F6065091F7066091F80607
:104E80007091F90684179507A607B70788F1E09196
:104E9000EE06F091EF06309759F10995611571050D
:104EA0008105910519F00E948B2422C08091FA0699
:104EB0009091FB06A091FC06B091FD06845D9E4F8B
:104EC000AF4FBF4F8093F6069093F706A093F80676
:104ED000B093F90681E090E02091F4063091F50658
:104EE000232B11F480E090E09093F5068093F40674
:104EF0006091FA067091FB068091FC069091FD0688
:104F00001F910F91FF90EF90DF90CF900895CF9376
:104F1000DF93CDB7DEB7CF54D1090FB6F894DEBF1B
:104F20000FBECDBF789484B5826084BD84B58160A6
:104F300084BD85B5826085BD85B5816085BD809164
:104F40006E00816080936E001092810080918100DC
:104F500082608093810080918100816080938100D4
:104F6000809180008160809380008091B100846096
:104F70008093B1008091B00081608093B0008091F7
:104F80007A00846080937A0080917A0082608093B6
:104F90007A0080917A00816080937A0080917A0013
:104FA000806880937A001092C1001092E3041092FE
:104FB000E204109298041092BA041092E10481E085
:104FC0008093E0041092DB0461E082E10E94B4234C
:104FD00061E083E10E94B4238091B9008E7F8093C9
:104FE000B9008091B9008D7F8093B90088E48093E7
:104FF000B80085E48093BC00E0912205F091230580
:1050000082E08083E0911E05F0911F051082E091FF
:105010002005F091210580E1808310922A05E0911E
:105020002605F091270586E08083E0912405F09124
:105030002505808180618083E0912405F09125051C
:10504000808188608083E0912405F091250580812E
:1050500080688083E0912405F091250580818F7D13
:10506000808381E090E00E9424188C3019F088E160
:1050700090E002C08CE090E0909354018093530143
:1050800080E090E00E942418882321F081E0809342
:10509000300102C01092300182E090E00E9424189A
:1050A0008F3F29F410924C0110924B0105C090E003
:1050B00090934C0180934B0183E090E00E94241870
:1050C0008F3F29F410924E0110924D0105C090E0DF
:1050D00090934E0180934D0184E090E00E9424184B
:1050E0008F3F29F41092500110924F0105C090E0BB
:1050F0009093500180934F0186E090E00E94241825
:105100008F3F29F4109252011092510105C090E096
:10511000909352018093510187E090E00E942418FF
:105120008F3F19F410928C0406C091E0811101C0E8
:1051300090E090938C048BE090E00E9424188F3FC5
:1051400029F4109256011092550105C090E09093F9
:105150005601809355018CE090E00E9424188F3F07
:1051600031F090E00C9790935801809357018DE0B7
:1051700090E00E9424188F3F29F090E09093440122
:105180008093430161E089E00E94E42361E086E0CE
:105190000E94E42361E083E00E94E42380918D0477
:1051A000833008F083C092E090931005E82FF0E080
:1051B000E255FF4FE491E09311058F5F80938D04DA
:1051C000E13031F1E23009F44AC0E11172C014BC9F
:1051D00015BC84B5826084BD85B5816085BD809134
:1051E000100590E0FC01E550FF4FE491F0E0EE0F78
:1051F000FF1FE951FF4F2591349130937B04209399
:105200007A04FC01E15FFE4FE491E093790451C020
:1052100010928000109281008091810088608093BC
:1052200081008091810081608093810080911005D0
:1052300090E0FC01E550FF4FE491F0E0EE0FFF1F1E
:10524000E951FF4F259134913093780420937704EE
:10525000FC01E15FFE4FE491E09376042AC01092D6
:10526000B0001092B1008091B00082608093B000D5
:105270008091B10081608093B1008091100590E031
:10528000FC01E550FF4FE491F0E0EE0FFF1FE95104
:10529000FF4F259134913093750420937404FC01E1
:1052A000E15FFE4FE491E093730403C08FEF8093BE
:1052B000110580912E0190912F010E943B1F909328
:1052C0002F0180932E0161E08AE00E94E4231FB742
:1052D000F89480918E04811127C0E5E0F1E084917B
:1052E000E9E1F1E09491E82FF0E0EE0FFF1FEF54B9
:1052F000FF4FA591B491EC91E92321F461E08AE09C
:105300000E94B42361E08AE00E94E4238CB58061AE
:105310008CBD8CB580648CBD61E08DE00E94E4237F
:1053200061E08BE00E94E42380918E048F5F809384
:105330008E041FBF8CB5837F88608CBD8CB58C7F3D
:1053400081608CBD8DB581608DBD8091C10587FD6B
:1053500008C061E00E94E42360E08091C1050E94E2
:10536000B42381E08093BC056091C205633321F1D1
:105370002091C3053091C405615031F070E08FEF8A
:1053800092E30E944D3002C060E070E0F90140916C
:10539000BF055091C005CF01821B930B8417950761
:1053A00040F44081469FC001479F900D1124919386
:1053B000EECF83E38093C20562E08EE00E94E42397
:1053C00062E080E10E94E42362E08FE00E94E42337
:1053D00061E082E00E94E42304E110E020E030E09C
:1053E00000930506109306062093070630930806DF
:1053F0004EE150E060E070E04093090650930A06E9
:1054000060930B0670930C0680ED97E0A0E0B0E08F
:1054100080930D0690930E06A0930F06B09310068E
:105420000093EC051093ED052093EE053093EF0506
:105430004093F0055093F1056093F2057093F305E6
:105440008093F4059093F505A093F605B093F705C6
:105450000093D3051093D4052093D5053093D6053A
:105460004093D7055093D8056093D9057093DA051A
:105470008093DB059093DC05A093DD05B093DE05FA
:1054800084ED90E00E94031225E030E042E050E01D
:105490006FE276E0CE0101967C010E948E0E22E042
:1054A00030E041E050E06FE276E0CE01875B9F4F55
:1054B0000E948E0EBE01675B7F4FCE018D5B9F4FBA
:1054C0000E9415236CE173E0CE018D5B9F4F0E941B
:1054D000D40EB7010E948222FC0144815581608173
:1054E000718182E195E00E94B3208EE193E00E94F9
:1054F000F111CE018D5B9F4F0E94E422CE01875BAC
:105500009F4F0E94E422C7010E94E42281E293E0BF
:105510000E94F1118EE193E00E94F11180912E0121
:1055200090912F0190937E0480937D040E943B1FF5
:1055300000E010E040E050E06FEF70E0C8010E9432
:10554000C6100F5F1F4F08301105A1F70E943111DF
:1055500068EE73E080E090E00E94452400E010E0F7
:1055600040E05FEF60E070E0C8010E94C6100F5F8E
:105570001F4F08301105A1F70E94311168EE73E04A
:1055800080E090E00E94452400E010E04FEF50E002
:1055900060E070E0C8010E94C6100F5F1F4F083026
:1055A0001105A1F70E94311168EE73E080E090E0F0
:1055B0000E9445240E94881867E373E0C7010E9497
:1055C0001E236EE373E0CE0107960E941E2365E45E
:1055D00073E0CE010D960E941E236CE473E0CE01B1
:1055E00043960E941E2363E573E0CE0149960E9414
:1055F0001E236AE573E0CE014F960E941E2361E6EA
:1056000073E0CE0185960E941E2368E673E0CE010A
:105610008B960E941E236FE673E0CE01C1960E9416
:105620001E2366E773E0CE01C7960E941E2360E248
:1056300073E0CE01CD960E941E236FE276E0CE018C
:10564000CD960E94CD220E947F244B015C01F8EE92
:105650008F0EF3E09F1EA11CB11C712C1FEF94EF65
:10566000C92EDD24D39426E0622E8FE00E948B2386
:10567000892B11F47724739480E10E948B23892B6A
:1056800009F4712C0E947F24DC01CB01881999094F
:10569000AA09BB0996010D2C000C440B550B2817C9
:1056A00039074A075B07E8F40E947F244B015C013D
:1056B000711001C01F5F1A3011F038F404C080ED82
:1056C000C82E87E0D82E01E002C01AE000E0B70142
:1056D000619E600D711D11248BE196E00E94CD2228
:1056E00001C001E00E949A180111BFCF80912E06DF
:1056F000811104C00E944C0E811107C010922C062B
:1057000010922E0610922D0667C080EF0E94220E86
:1057100001E0D12CB12C11E00E944C1360968FAFA8
:1057200060970E944C1360969FAD6097913019F47A
:105730008130C1F435C02D2D30E098131DC080910B
:105740002C06181738F4F901EF5DF94F8381802397
:1057500049F402C0181731F090E0193060F410934A
:105760002D0609C0ED2DF0E0EF5DF94F8381802B10
:10577000838391E009C0B12EF901EF5DF94F2381D8
:10578000802F809582238383892F0E9471131F5F4E
:10579000000F11F4D39401E027E02D1508F0BCCFE1
:1057A000113408F4ABCFB0922C06B11003C081E0E5
:1057B00080932E0680912406882309F49FCFA4E2CB
:1057C000B6E0EFE8F4E08D91819384E0E739F807E3
:1057D000D1F781E080937C0481E08093970488E690
:1057E0008093B904109298041092BA0461E18FEA90
:1057F00095E00E9431140E94EF1282E090E00E9436
:10580000A6128FEA95E00E94E513182F8AEC90E02B
:105810000E940312812F012E000C990B0E9424126A
:105820001550183320F48E010D5B1F4F1CC08BEBFD
:1058300090E00E9403128EE193E00E94F11105E0D6
:1058400010E048EE53E060E070E088EE93E00E94E4
:10585000ED0E60ED77E080E090E00E94452401507D
:10586000110979F7E0CF06501109C8010E94E4221E
:105870000E151F05C1F780918C0481110E94261816
:105880000E94222000918A0410918B040E947F24A0
:105890006B017C0181E080938904112780918A0447
:1058A00090918B040817190789F40E9422200E9406
:1058B0007F24DC01CB018C199D09AE09BF09893B0E
:1058C0009B40A105B10550F310928904E090870434
:1058D000F09088040091850410918604209183043F
:1058E0003091840440918A0450918B04609181042A
:1058F0007091820480917F04909180040E942126FF
:105900000E94A3010E94AF21FBCF109215051092B7
:10591000140588EE93E0A0E0B0E080931605909324
:105920001705A0931805B093190525EA32E03093C6
:1059300013052093120525EC30E030931F052093CA
:105940001E0524EC30E0309321052093200520EC47
:1059500030E0309323052093220521EC30E0309392
:1059600025052093240522EC30E030932705209371
:10597000260526EC30E03093290520932805109267
:105980002B0510922C0510922D0510922E051092C9
:10599000B2051092B1058093B3059093B405A0931E
:1059A000B505B093B60587EB92E09093B005809370
:1059B000AF0564EF73E08FE296E00E941E2360E083
:1059C00087E00E94E423E6E1F1E0E491E093210620
:1059D000E2E0F1E0E491F0E0EE0FFF1FEF50FF4F47
:1059E00085919491909323068093220610922C0621
:1059F00010922E0610922D06ECE2F6E0129286E04E
:105A0000E432F807D9F767E373E08BE196E00E9490
:105A10001E2321E040E06EE082E096E00E94A9169D
:105A200021E040E060E189EE95E00E94A91621E0C6
:105A300040E06FE080ED95E00E94A9161092BC0551
:105A40001092C2051092C9051092CA051092CB059A
:105A50001092CC0581E08093C8058093C505109213
:105A6000C60592E09093C7058093BB0588E190E05E
:105A70009093C0058093BF050E94C4309093C405E5
:105A80008093C305009761F028E1FC0111922A95EB
:105A9000E9F788E090E09093BE058093BD0508C0CB
:105AA0001092C0051092BF051092BE051092BD0560
:105AB00086E08093C1058091BC05882341F061E0B8
:105AC00086E00E94E42360E086E00E94B423E1E0E7
:105AD000F1E0E491F0E0EE0FFF1FE951FF4F8591F7
