:10000000F8C1000027C2000025C2000023C2000082
:1000100021C200001FC200001DC200001BC2000060
:1000200019C2000017C2000015C2000013C2000070
:1000300011C200000C944C330DC200000BC2000032
:1000400009C200000C94AB3305C2000003C20000DB
:1000500001C200000C941434FDC100000C9446321F
:10006000F9C100000C94AB300C948230F3C1000055
:10007000F1C10000EFC10000EDC10000EBC10000C4
:10008000E9C10000E7C10000E5C10000E3C10000D4
:100090000C9459300C943030DDC100000C946C3C51
:1000A000D9C10000D7C100000C940823D3C10000BF
:1000B000D1C10000CFC10000CDC100000C9490322E
:1000C000C9C10000C7C10000C5C10000C3C1000014
:1000D000C1C10000BFC10000BDC10000BBC1000024
:1000E000B9C100001F0721071507170719071B07CC
:1000F0001D07380EAF0E68115F129112DD12311814
:1001000031183118481370137013701331183118E7
:100110003118311831189112DD12AF24B224AD24F8
:10012000AF24B224B424B824C9245A2B6A2B712BCF
:10013000772B7E2B842B8B2B8F2B9A2B022F052F2B
:10014000F42EF82EFE2E3C2F092F0D2F132F172FD4
:100150001B2F212F252F292F3C2F2F2F332F372FC8
:100160005A44410056544700524D430047535600ED
:100170004753540047534100474C4C004747410008
:100180007C017801740170016C01680164016001F7
:100190005570646174696E672074696D652E2E2ECA
:1001A00000506172736564206461746120746F2013
:1001B0006F6C6400496E636F727265637420536F75
:1001C0006E6720466F726D617421005247423D6F29
:1001D0006666005247423D6F6E004D6F6E74683A1E
:1001E000004461793A00446F776E206C6F6E672E21
:1001F0002E2E2E00446F776E2073686F7274005538
:1002000070206C6F6E672E2E2E2E00557020736836
:100210006F7274004D6F6465206C6F6E672E2E2EAA
:100220002E004D6F64652073686F72740053796E91
:10023000632066726F6D2047505300426C75653DB8
:1002400000475245454E3D005245443D00526561D0
:100250006465642066726F6D20454550524F4D00B5
:1002600002010000002100240027002A002D003098
:1002700000330001010000040107010A0153746FFB
:100280007020546573740054656D702E2073656E14
:10029000736F72206E6F7420666F756E642E0053DC
:1002A000746172742054657374004669726D77616D
:1002B00072652076657273696F6E3A2000576172BD
:1002C0006E696E67212052544320444F4E275420BC
:1002D000524553504F4E44210057616B6520757055
:1002E0002C204E656F210000002200250028002BE5
:1002F000002E003100340002010000050108010B4E
:1003000001000020002300260029002C002F0032CD
:1003100000000100000301060109010505050507AC
:100320000508080808020202020A0A080804040470
:10033000040101010101010101030303030303039C
:1003400003040707070C0C0C0C0C0C0C0C0202022B
:100350000206060606060606060B0B0B0B0B0B0B1E
:100360000B010210202008081020401020408002BD
:1003700001020108040201010204081020408080EB
:10038000402010080402018004020180402010086F
:100390000402010804020101020408102040800147
:1003A0000204081020408000000A0B02090C0D0E08
:1003B0000807030401000000000000000000000026
:1003C000000000000000000000000000000000002D
:1003D00000000012111000000000000000000000EA
:1003E0000000000000000000000000000000744356
:1003F000183E11241FBECFEFD1E2DEBFCDBF00E01B
:100400000CBF29E0ACEFB4E001C01D92A73EB207DB
:10041000E1F714E0A0E0B2E0E8E9F4E900E00BBFA6
:1004200002C007900D92AC3FB107D9F711E0C8EFB9
:10043000D1E000E006C021970109802FFE010E9453
:100440000248C73FD10780E00807A9F70E942F3E66
:100450000C943B4AD5CD2F923F924F925F926F9270
:100460007F928F929F92AF92BF92CF92DF92EF9244
:10047000FF920F931F93CF93DF93CDB7DEB7C05793
:10048000D1400FB6F894DEBF0FBECDBF0E948C31B5
:1004900020E137E240E050E00E94DE46672B682B07
:1004A000692B29F48091A70581110C944415EE2441
:1004B000E39401E043E0D42EF2E0FF2EE0911D062C
:1004C000F0911E060084F185E02D8DE196E01995EE
:1004D000892B09F4A0C1E0911D06F0911E0602844B
:1004E000F385E02D8DE196E01995182F8091E408B1
:1004F0009091E508A091E608B091E7080196A11D4A
:10050000B11D8093E4089093E508A093E608B093AA
:10051000E7081432A9F48091F60884FF03C08F7EA7
:100520008093F6081092F2081092DB080093F70807
:100530001092F4088091F6088D7F8093F608BECF64
:100540002091F708223071F51A3219F4D092F70889
:1005500020C080EE810F8F3508F00FC18091F20826
:1005600081278093F2088091DB08863031F4812F57
:100570000E94402B882309F400C11C3269F4809149
:10058000F6088D7F8093F6088091F3088F5F809343
:10059000F3081092F40892CF8091F4088F5F809353
:1005A000F4088CCF213009F06EC08091F2088127C9
:1005B0008093F2081C32D9F48091DB08882311F46F
:1005C0000C942B1881EF98E0C059DE4F2883C05758
:1005D000D1400E94FF3DC059DE4F2881C057D14015
:1005E0002093F3081092F408F092F70867CF9091E7
:1005F000F408923010F40C9462153EEFC32EC90E2D
:100600008091DB08882319F08150883008F080E061
:10061000E82FF0E0EE0FFF1FE058FE4F25913491D8
:100620004C2D50E0F901E40FF51FE4911E1305C0B5
:100630008F5F8093DB080C9462151E1714F40C94E2
:100640002B188F5F883011F40C942B18E82FF0E0F2
:10065000EE0FFF1FE058FE4FA591B491B9015D0167
:10066000A21AB30AE62FE21BEC1510F09D01DACFB7
:10067000FB019490F501E60FF71FE4916F5F7F4F48
:100680009E1681F3F3CF233009F07DC010628FE90D
:10069000810F863010F4175501C010534091F408B3
:1006A0002091F208812F90E041110DC00093F408D1
:1006B00030E0A4E035952795AA95E1F7281739078A
:1006C00009F4FCCE47C02F7030E02817390709F035
:1006D00041C08091F60881FF0DC08D7F8093F608A0
:1006E0004F5F4093F4088091DB08863019F48CE268
:1006F0000E94402B8091DC089091DD08A091DE08DB
:10070000B091DF080196A11DB11D8093DC08909384
:10071000DD08A093DE08B093DF0891E08091DB084C
:10072000823009F090E08091F60890FB84F9809384
:10073000F6081092F70820910209222349F18860F7
:100740008093F608109203098091020981508093EA
:1007500002091EC08091E0089091E108A091E20892
:10076000B091E3080196A11DB11D8093E00890931C
:10077000E108A093E208B093E30881EF98E00E94BB
:10078000FF3D0C942B18211199CE1092DB0896CEC8
:100790008091F10880FF0CC0309101092091F00890
:1007A00030FF04C030910009321710F42093000983
:1007B00081FF0CC02091EC082093FC082091ED08EB
:1007C0002093FD082091EE082093FE0882FF10C0C0
:1007D0008091EA088093FA088091E9088093F908EB
:1007E0008091E8088093F8088091EF088093FF08D3
:1007F000209101098091F108822B809301099923AE
:1008000009F45CCE1092040980910209811156CE40
:10081000E092020951CE80910209882349F1CE016C
:1008200049960E94023E809102098823C1F08150BE
:1008300080930209809103092AE0289FC0011124B6
:10084000FC01E850F74FDE01599601900D922A9570
:10085000E1F78850974F0E94023E109203098AE008
:10086000FE017996A1EDB8E001900D928A95E1F72D
:100870008091DA0882FF10C081FF0EC08091D908F4
:10088000833050F00E948C31609300057093010515
:1008900080930205909303050E948C3121E137E299
:1008A00040E050E00E94DE46672B682B692B09F080
:1008B000BBC080910405811198C00E948C310091C9
:1008C0000005109101052091020530910305DC011E
:1008D000CB01801B910BA20BB30B89359240A10574
:1008E000B10528F081EA91E00E94342B99C080E99B
:1008F00091E00E94342B8091D3080E94503B80915C
:10090000D2080E94503B8091D1080E94503BE09059
:10091000D708F12C0091D60810E02091D50830E0DE
:100920004091D10850E06091D20870E08091D308E6
:1009300090E00E947D34A0915702B091580220E1CE
:100940003EE00E940A4800910B0910910C09209189
:100950000D0930910E09DC01CB01800F911FA21F00
:10096000B31F80930B0990930C09A0930D09B093CA
:100970000E090E9458357C010E946035082F0E94A4
:100980006635C059DE4F8883C057D1400E946C3510
:10099000C159DE4F8883CF56D1400E947235182F3F
:1009A0000E948735382FC70168EE73E00E94D34755
:1009B000E82EC059DE4F2881C057D140C159DE4FC3
:1009C0004881CF56D140612F832F0E94D53A81E0D4
:1009D000809304050E948C316093FC047093FD04A5
:1009E0008093FE049093FF041BC00E948C31009101
:1009F000FC041091FD042091FE043091FF04DC0101
:100A0000CB01801B910BA20BB30B81349747AB41F9
:100A1000B10518F01092040503C081E0809304052D
:100A20008DE292E00E94342B1092650510926605CB
:100A300010926705109268058AE697E090936C051E
:100A400080936B0580916707282E312C30926E05BC
:100A500020926D058091340890E09093700580930A
:100A60006F0580916307853009F002C180916707A7
:100A70008A3108F46BC080916A0790916B07843FBC
:100A8000914090F410926A05109269058FEF9FEFE4
:100A9000DC018093650590936605A0936705B0938C
:100AA00068058BE090E03EC080916C0790916D07E7
:100AB00085974B9708F04AC0E0E7F7E082E090E0C6
:100AC00040E050E0BA018C010F5F1F4F2091670793
:100AD00030E00217130774F49F0122503109D90145
:100AE0002D913C91275031092730310510F40C9499
:100AF0006715C80101979595879590936A0580932E
:100B000069050C972CF410926A05109269051EC0B5
:100B1000409365055093660560936705709368057B
:100B200084E090E090936205809361056091650593
:100B300070916605809167059091680540E10E947B
:100B4000003A8DE194E00E94022B8DC0B6E02B1696
:100B500031040CF488C000E717E0E3E0F0E0C3598B
:100B6000DE4FF983E883CD56D14065ECC62E6DE9A2
:100B7000D62E6CE1E62E61E8F62EC359DE4F888151
:100B80009981CD56D140821593050CF05BC0D801F8
:100B90006D917C91F8013497A080B18080E090E065
:100BA0000E94A4452B013C01B50180E090E00E9429
:100BB000A4454B015C012DEC3CEC4CE45FE30E944E
:100BC00005469B01AC01C301B2010E94A04587FD0F
:100BD00017C02DEC3CEC4CE45FE3C301B2010E9472
:100BE00005469B01AC01C501B4010E94A045E82F58
:100BF000880FFF0BEE27FF0FEE1FFF27319602C075
:100C0000E0E0F0E0A701960163E971E080E091E0A7
:100C10000E94CF466F01FF0FEE08FF08C626D726B9
:100C2000E826F926C359DE4FE881F981CD56D14037
:100C30003196C359DE4FF983E883CD56D1400E5F1C
:100C40001F4F9BCFC0926505D0926605E092670565
:100C5000F092680580E290E090936A0580936905C0
:100C60008FEF9FEF5FCF82E080936307109267075B
:100C7000609165057091660583EC98E00E949D3D4A
:100C80009093600580935F05019721F482E292E0E2
:100C90000E94342B80915F0590916005019621F4AC
:100CA00084E192E00E94342B6091650570916605A5
:100CB00086EB98E00E949D3D90935E0580935D05D4
:100CC000019721F48BE092E00E94342B80915D0526
:100CD00090915E05019621F48FEF91E00E94342BF4
:100CE000609165057091660589EA98E00E949D3DD6
:100CF00090935C0580935B05019721F484EF91E06C
:100D00000E94342B80915B0590915C05019621F443
:100D100086EE91E00E94342B00919B0510919C057A
:100D2000D8018C91882309F435C10E948C31C09080
:100D30000B05D0900C05E0900D05F0900E05DC0140
:100D4000CB018C199D09AE09BF09C0900705D09051
:100D50000805E0900905F0900A05C816D906EA06CC
:100D6000FB0608F017C10E948C316B017C01609377
:100D70000B0570930C0580930D0590930E05109252
:100D8000BA051092B905A8016AE08A01FA01B0809B
:100D90004F5F5F4F80ED8B0D2091B9053091BA0503
:100DA0008A3080F4629FF001639FF00D11248B2D37
:100DB000BB0C990BC0978E0F9F1F9093BA05809321
:100DC000B905E3CF6091B5057091B6058091B7057F
:100DD0009091B8052115310529F0032E000C440B24
:100DE000550B05C020915C0230E040E050E00E94CD
:100DF000E647209307053093080540930905509373
:100E00000A058B2DBB0C990BAA0BBB0BFC01E15601
:100E1000F109E730F10530F48827EE58FF4F8F4F86
:100E20000C940248109206050FC081E00BC083E0CD
:100E300009C085E007C086E005C088E003C08AE0FD
:100E400001C08CE080930605D80111968C91833205
:100E500019F00F5F1F4F07C0809106058F5F8093C9
:100E600006050E5F1F4FF80180818E3201F58090DC
:100E7000070590900805A0900905B0900A05C501E6
:100E8000B40122E030E040E050E00E94E647D501A6
:100E9000C401820F931FA41FB51F80930705909371
:100EA0000805A0930905B0930A050F5F1F4FD801ED
:100EB0008C9180538A3028F4809305050F5F1F4F73
:100EC00004C080915B028093050580910505F801BF
:100ED00090819C3211F40F5F1F4F20910605222351
:100EE00009F458C08090070590900805A090090566
:100EF000B0900A0590E004973CE0389FF001399FDC
:100F0000F00D1124E20FF11DEE0FFF1FE558FD4F0C
:100F1000B501A401808191810E942A290E948C310F
:100F2000DC01CB018C199D09AE09BF098816990611
:100F3000AA06BB0678F50E948C3160930B0570936E
:100F40000C0580930D0590930E0580911C06813051
:100F500051F0823071F0811111C080916E008D7F4F
:100F600080936E000BC080916F008D7F80936F0027
:100F700005C0809170008D7F8093700060E080914B
:100F80001B060E94FC3084EB91E00E94342B90E021
:100F900080E002C0902F812F90939B0580939C0549
:100FA0000E948C31009157051091580520915905E8
:100FB00030915A05DC01CB01801B910BA20BB30BC6
:100FC0008997A105B10508F4A9C080911C0681305C
:100FD00039F0823041F081110CC080916E0005C063
:100FE00080916F0002C0809170008695817009F039
:100FF0008BC080913002811103C00E94671F84C0A2
:101000008091AA05811180C00091110510911205EF
:10101000C801880F991F800F911FFC01EE0FFF1F61
:10102000E352FD4F208131816AE0629FA001639FFE
:10103000500D11242091000230910102420F531FE4
:101040005093010240930002FC01EE0FFF1FE1529A
:10105000FD4F20813181629FF001639FF00D1124CB
:1010600020914D0530914E052E0F3F1F30934E05B8
:1010700020934D05880F991FFC01EF51FD4F808192
:101080009181689F6001699FD00C112480914B056C
:1010900090914C05C80ED91ED0924C05C0924B05BC
:1010A000D12CE12CF12CE42AD22AA12CB12CB701AD
:1010B000A601C5010E94182CFFEFAF1ABF0A28E055
:1010C000A216B104A1F70E94832C80910F05909184
:1010D000100501969093100580930F05499751F4E0
:1010E0000F5F1F4F1093120500931105109210050A
:1010F00010920F058091110590911205069724F02A
:1011000010921205109211050E948C3160935705C0
:10111000709358058093590590935A0580917305F3
:1011200090917405892B21F080917205811106C080
:101130008091BB05811102C00E944B188CE798E09A
:101140000E948D3583E698E00E948D358AE498E010
:101150000E948D358091BB05811103C01092C3059B
:101160002DC00E948C310091BC051091BD052091CD
:10117000BE053091BF05DC01CB01801B910BA20B9A
:10118000B30B81369A4EA105B105C0F01092BB0594
:10119000E0917305F0917405EE0FFF1FEF5AFC4FBD
:1011A000808191819093740580937305880F991FB6
:1011B000FC01EE5FFD4F80818093C30580917C0828
:1011C00090917D08181619063CF080915F0590916A
:1011D0006005019709F095C081E080937205109237
:1011E0009C0510929B0544E650E060E070E088EEBC
:1011F00093E00E942A290E948C316093BC05709371
:10120000BD058093BE059093BF05809173059091B5
:10121000740501968630910529F0909374058093AA
:10122000730504C010927405109273052091730524
:10123000309174058901000F111FF801EE5FFD4F19
:1012400080818093C305D9011197FD01EE0FFF1F27
:10125000E75DFC4F608171816115710509F442C041
:10126000AB0141505109FA01EE0FFF1FEF5FFC4F38
:101270000190F081E02DEA17FB07A1F562307105BE
:1012800011F00C94851588E1E3E6F2E0DE01119699
:1012900001900D928A95E1F78091490290914A025E
:1012A00083709927892B21F48DE190E09C838B83B7
:1012B0002091450230914602E0914702F0914802A8
:1012C0003197EE0FFF1F81E090E08C0F9D1FE80F1C
:1012D000F91F808191818217930714F00C94851572
:1012E0000C9453162331310561F029503109223015
:1012F000310538F00E94F635F801EF5CFD4F91831F
:10130000808380917C0890917D0897FD07C0809133
:101310005F0590916005019609F07AC344E650E0BC
:1013200060E070E088EE93E00E942A298091BB057E
:10133000811145C10E948C316093BC057093BD053D
:101340008093BE059093BF058091730590917405BD
:10135000892B09F034C10E946C35181619061CF44B
:101360000E946C3505C00E946C359195819591095C
:1013700011E00A974CF010E00E946C35181619061F
:1013800064F50E946C352EC00E946C351816190643
:101390001CF40E946C3505C00E946C3591958195B6
:1013A00091094AE0BC01CE0189599E4F0E949B20C1
:1013B0006DE374E0CE018F599E4F0E94CE20BE0196
:1013C00069597E4FCE018F599E4F0E942220BC0149
:1013D000CE018F960E94C6200BC00E946C3591955D
:1013E000819591094AE0BC01CE018F960E949B2015
:1013F0000E947235181619061CF40E94723505C039
:101400000E94723591958195910901E00A974CF0FF
:1014100000E00E9472351816190664F50E947235B4
:101420002EC00E947235181619061CF40E947235DF
:1014300005C00E9472359195819591094AE0BC01E1
:10144000CE01855A9E4F0E949B206DE374E0CE0131
:101450008B5A9E4F0E94CE20BE01655A7E4FCE0110
:101460008B5A9E4F0E942220BC01CE0189960E9479
:10147000C6200BC00E9472359195819591094AE072
:10148000BC01CE0189960E949B200E9487351816C8
:1014900019061CF40E94873505C00E948735919576
:1014A00081959109FF24F3940A974CF0F12C0E9446
:1014B00087351816190664F50E9487352EC00E94DC
:1014C0008735181619061CF40E94873505C00E943E
:1014D00087359195819591094AE0BC01CE01815BE8
:1014E0009E4F0E949B206DE374E0CE01875B9E4F70
:1014F0000E94CE20BE01615B7E4FCE01875B9E4F76
:101500000E942220BC01CE0101960E94C6200BC081
:101510000E9487359195819591094AE0BC01CE01E1
:1015200001960E949B20BE016F5F7F4FCE01839684
:101530000E94C620BE01675D7F4FCE0183960E9448
:101540002220BE01615D7F4F0E942220BC0185E9FF
:1015500098E00E944820CE0183960E949620CE01FA
:1015600001960E949620FF2051F0CE01875B9E4F8E
:101570000E949620CE01815B9E4F0E949620CE0154
:1015800089960E949620002351F0CE018B5A9E4FDF
:101590000E949620CE01855A9E4F0E949620CE0131
:1015A0008F960E949620112351F0CE018F599E4FA5
:1015B0000E949620CE0189599E4F0E9496208091CC
:1015C000730590917405019709F0E9C10E94663591
:1015D00090934602809345020E94603590934802A2
:1015E000809347020E94583568EE73E00E94D3470B
:1015F00090934A02809349024091430250914402E1
:101600009C01275F3F4FBC01452B09F0E4C023310B
:10161000310508F597FF03C07195619571094AE09E
:10162000CE018D5B9E4F0E949B206DE374E0CE0146
:10163000835C9E4F0E94CE20BE016D5B7E4FCE012B
:10164000835C9E4F0E942220BC01CE018F960E9497
:10165000C62011E00BC097FF03C071956195710919
:101660004AE0CE018F960E949B2010E060914702D5
:1016700070914802CB010996439708F577FF03C0A4
:101680007195619571094AE0CE01895C9E4F0E9477
:101690009B206DE374E0CE018F5C9E4F0E94CE20B4
:1016A000BE01695C7E4FCE018F5C9E4F0E9422205E
:1016B000BC01CE0189960E94C62001E00BC077FFD5
:1016C00003C07195619571094AE0CE0189960E9427
:1016D0009B2000E06091450270914602CB01099683
:1016E000439710F577FF03C07195619571094AE042
:1016F000CE01855D9E4F0E949B206DE374E0CE017C
:101700008B5D9E4F0E94CE20BE01655D7E4FCE0157
:101710008B5D9E4F0E942220BC01CE0101960E944B
:10172000C620FF24F3940BC077FF03C07195619529
:1017300071094AE0CE0101960E949B20F12CBE0166
:101740006F5F7F4FCE0183960E94C620BE01675D0A
:101750007F4FCE0183960E942220BE01615D7F4FA4
:101760000E942220BC0185E998E00E944820CE0119
:1017700083960E949620CE0101960E949620FF201B
:1017800051F0CE018B5D9E4F0E949620CE01855D6B
:101790009E4F0E949620CE0189960E94962000239B
:1017A00051F0CE018F5C9E4F0E949620CE01895C45
:1017B0009E4F0E949620CE018F960E949620112364
:1017C00009F4EDC0CE01835C9E4F0E949620CE01AD
:1017D0008D5B9E4FE2C02331310508F597FF03C0B2
:1017E0007195619571094AE0CE01815E9E4F0E941C
:1017F0009B206DE374E0CE01875E9E4F0E94CE2059
:10180000BE01615E7E4FCE01875E9E4F0E94222008
:10181000BC01CE018F960E94C62011E00BC097FF3D
:1018200003C07195619571094AE0CE018F960E94BF
:101830009B2010E06091450270914602CB01099611
:10184000439708F577FF03C07195619571094AE0E8
:10185000CE018D5E9E4F0E949B206DE374E0CE0111
:10186000835F9E4F0E94CE20BE016D5E7E4FCE01F3
:10187000835F9E4F0E942220BC01CE0189960E9468
:10188000C62001E00BC077FF03C071956195710917
:101890004AE0CE0189960E949B2000E060914702B9
:1018A00070914802CB010996439710F577FF03C06A
:1018B0007195619571094AE0CE01895F9E4F0E9442
:1018C0009B206DE374E0CE018F5F9E4F0E94CE207F
:1018D000BE01695F7E4FCE018F5F9E4F0E94222026
:1018E000BC01CE0101960E94C620FF24F3940BC0D8
:1018F00077FF03C07195619571094AE0CE010196A9
:101900000E949B20F12CBE016F5F7F4FCE0183961A
:101910000E94C620BE01675D7F4FCE0183960E9464
:101920002220BE01615D7F4F0E942220BC0185E91B
:1019300098E00E944820CE0183960E949620CE0116
:1019400001960E949620FF2051F0CE018F5F9E4F9E
:101950000E949620CE01895F9E4F0E949620CE0164
:1019600089960E949620002351F0CE01835F9E4FFE
:101970000E949620CE018D5E9E4F0E949620CE0141
:101980008F960E949620112351F0CE01875E9E4FC4
:101990000E949620CE01815E9E4F0E949620E0918B
:1019A0007305F0917405EE0FFF1FEF5AFC4F208175
:1019B000318130937405209373052D30310549F43E
:1019C00081E090E0909352028093510280E88093EE
:1019D000C2059091BB0581E089278093BB058901F1
:1019E000000F111FF801EE5FFD4F80818093C3054A
:1019F000A901425151094230510550F029303105B9
:101A000039F00E94F635F801EF5CFD4F9183808339
:101A10008091630890916408009739F480915D0586
:101A200090915E05019721F507C09093560580932C
:101A300055051816190694F781E0809372051092E7
:101A40009C0510929B0544E650E060E070E088EE53
:101A500093E00E942A290E9445288091BB058111AC
:101A600007C01092AA0560E087E090E00E94081F7E
:101A70008091550590915605019661F58091650814
:101A8000882341F11092C5058091BB05882329F177
:101A90000E948C31009151051091520520915305FF
:101AA00030915405DC01CB01801B910BA20BB30BD1
:101AB00087399105A105B10580F00E948C316093B2
:101AC00051057093520580935305909354050E94DD
:101AD000452803C081E08093C50580914A08909114
:101AE0004B08009739F480915B0590915C05019754
:101AF000B1F507C09093500580934F05181619064D
:101B000094F711E01093720510929C0510929B05BA
:101B100044E650E060E070E088EE93E00E942A29FD
:101B20000E94E6278091BB05811119C01093AA0578
:101B300061E087E090E00E94081F6091000288E069
:101B400090E00E94081F60914D0589E090E00E949E
:101B5000081F60914B058AE090E00E94081F809169
:101B60004F0590915005019661F580914C088823AE
:101B700041F11092C4058091BB05882329F10E9490
:101B80008C3100914705109148052091490530910D
:101B90004A05DC01CB01801B910BA20BB30B8739EB
:101BA0009105A105B10580F00E948C316093470535
:101BB000709348058093490590934A050E94E62753
:101BC00003C081E08093C4058091BB05811141C0B1
:101BD000809163089091640897FD06C080915D052F
:101BE00090915E050196B1F444E650E060E070E04B
:101BF00088EE93E00E942A2981E08093300261E020
:101C000080E090E00E94081F83ED91E00E94342B59
:101C10000E940C1F80914A0890914B0897FD06C0C6
:101C200080915B0590915C05019699F444E650E043
:101C300060E070E088EE93E00E942A291092300262
:101C400060E080E090E00E94081F8BEC91E00E9431
:101C5000342BE0917305F0917405E431F10510F037
:101C60000C9431188827E758FF4F8F4F0C94024887
:101C700080917105811135C00E948C31009113054E
:101C8000109114052091150530911605DC01CB014A
:101C9000801B910BA20BB30B893E9340A105B105AC
:101CA00078F00E948C316093130570931405809333
:101CB000150590931605CE0101960E94163706C0B1
:101CC00065E978E0CE0101960E94C620BE016F5FF3
:101CD0007F4F85E998E00E945D20CE0101960E9429
:101CE000962080911C0581110DC00E948C3160935B
:101CF00018057093190580931A0590931B0581E0D0
:101D000080931C050E948C310091180510911905D3
:101D100020911A0530911B05DC01CB01801B910B32
:101D2000A20BB30B893E9340A105B10508F4C9C2CB
:101D30000E948C31609318057093190580931A05E1
:101D400090931B059091170581E0892780931705D3
:101D5000882311F080ECB3C21092C205B2C2809108
:101D600071058111ABC280913F05811113C00E94A2
:101D70008C31DC01CB0187519C4FAF4FBF4F80931B
:101D80003B0590933C05A0933D05B0933E0581E053
:101D900080933F0580913305811154C10E945835CD
:101DA00008EE13E0B8010E94D3471816190634F460
:101DB0000E945835B8010E94D34708C00E94583588
:101DC000B8010E94D347919581959109FF24F3941E
:101DD0000A978CF0F12C0E94583508EE13E0B801F8
:101DE0000E94D34718161906BCF50E945835B80151
:101DF0000E94D34739C00E94583508EE13E0B8015D
:101E00000E94D3471816190634F40E945835B801B9
:101E10000E94D34708C00E945835B8010E94D3479A
:101E20009195819591094AE0BC01CE0183960E946B
:101E30009B206DE374E0CE0189960E94CE20BE0106
:101E40006D5D7F4FCE0189960E942220BC01CE019C
:101E500001960E94C6200EC00E945835B8010E940B
:101E6000D3479195819591094AE0BC01CE01019635
:101E70000E949B200E946035181619061CF40E94CF
:101E8000603505C00E94603591958195910911E0FA
:101E90000A974CF010E00E946035181619064CF5B0
:101EA0000E9460352BC00E946035181619061CF47C
:101EB0000E94603505C00E94603591958195910919
:101EC0004AE0BC01CE01C5960E949B206DE374E000
:101ED000CE01CB960E94CE20BE016B5C7F4FCE011F
:101EE000CB960E942220BC01CE018F960E94C62074
:101EF0000BC00E9460359195819591094AE0BC0123
:101F0000CE018F960E949B200E94663518161906F6
:101F10001CF40E94663505C00E9466359195819536
:101F2000910901E00A974CF000E00E94663518160E
:101F300019066CF50E9466352FC00E94663518168A
:101F400019061CF40E94663505C00E9466359195FD
:101F5000819591094AE0BC01CE01835B9F4F0E94AD
:101F60009B206DE374E0CE018D5A9F4F0E94CE20DE
:101F7000BE01635B7F4FCE018D5A9F4F0E9422208E
:101F8000BC01CE01895B9F4F0E94C6200CC00E94FD
:101F900066359195819591094AE0BC01CE01895B36
:101FA0009F4F0E949B20BE01695B7F4FCE018F5BDC
:101FB0009F4F0E94C620BE01615D7F4FCE018F5BA7
:101FC0009F4F0E942220BE016F5F7F4F0E94222000
:101FD000BC018DE295E00E94C62081E0809333052C
:101FE000CE018F5B9F4F0E949620CE01895B9F4F51
:101FF0000E949620002351F0CE018D5A9F4F0E94DF
:102000009620CE01835B9F4F0E949620CE018F9633
:102010000E949620112341F0CE01CB960E9496207B
:10202000CE01C5960E949620CE0101960E94962070
:10203000FF2041F0CE0189960E949620CE01839622
:102040000E94962080912505811107C0809143024E
:102050008093240581E0809325050E948C310091B6
:102060003B0510913C0520913D0530913E05DC017A
:10207000CB01801B910BA20BB30B893E9340A105B2
:10208000B10558F48091240590E0209143023091ED
:1020900044028217930709F400C10E948C316093B7
:1020A0003B0570933C0580933D0590933E058091E0
:1020B000430290914402892B09F072C60E94583560
:1020C00008EE13E0B8010E94D347181619060CF069
:1020D000F1C50E945835B8010E94D347FF24F394FC
:1020E0000A970CF0F0C50E94583508EE13E0B801CD
:1020F0000E94D347181619060CF0F6C50E945835F1
:10210000B8010E94D3474AE0BC01CE018F960E94DD
:102110009B206DE374E0CE018F5B9F4F0E94CE2029
:10212000BE01615D7F4FCE018F5B9F4F0E942220D9
:10213000BC01CE0101960E94C6200E94603518168F
:1021400019060CF0E9C50E94603511E00A970CF001
:10215000E9C50E946035181619060CF0ECC50E94FE
:1021600060354AE0BC01CE01875A9F4F0E949B20F8
:102170006DE374E0CE01815A9F4F0E94CE20BE01D4
:10218000675A7F4FCE01815A9F4F0E942220BC0187
:10219000CE01895B9F4F0E94C6200E9466351816AB
:1021A00019060CF0DBC50E94663501E00A970CF0B9
:1021B000DBC50E946635181619060CF0DEC50E94B4
:1021C00066354AE0BC01CE018F589F4F0E949B208C
:1021D0006DE374E0CE0189589F4F0E94CE20BE016E
:1021E0006F587F4FCE0189589F4F0E942220BC011B
:1021F000CE0185599F4F0E94C620BE0165597F4F71
:10220000CE018B599F4F0E94C620BE01695B7F4F54
:10221000CE018B599F4F0E942220BE016F5F7F4FDE
:102220000E942220BC018DE295E00E944820CE0150
:102230008B599F4F0E949620CE0185599F4F0E9437
:102240009620002351F0CE0189589F4F0E9496207E
:10225000CE018F589F4F0E949620CE01895B9F4FE1
:102260000E949620112351F0CE01815A9F4F0E9467
:102270009620CE01875A9F4F0E949620CE0101964C
:102280000E949620FF2049F0CE018F5B9F4F0E9455
:102290009620CE018F960E9496206DE275E0CE01C9
:1022A00001960E94C620BE016F5F7F4F85E998E0CE
:1022B0000E945D20CE0101960E94962080E48093CA
:1022C000C2050E9486271092C1051092C005C9C69A
:1022D00060914F0270915002CB010996439708F527
:1022E00077FF03C07195619571094AE0CE01855071
:1022F0009F4F0E949B206DE374E0CE018B509F4F57
:102300000E94CE20BE0165507F4FCE018B509F4F63
:102310000E942220BC01CE018F960E94C62011E0AF
:102320000BC077FF03C07195619571094AE0CE013A
:102330008F960E949B2010E060914D0270914E029A
:10234000CB010996439708F577FF03C07195619516
:1023500071094AE0CE0181519F4F0E949B206DE39D
:1023600074E0CE0187519F4F0E94CE20BE01615183
:102370007F4FCE0187519F4F0E942220BC01CE018A
:1023800089960E94C62001E00BC077FF03C07195BB
:10239000619571094AE0CE0189960E949B2000E078
:1023A00060914B0270914C02CB010996439710F556
:1023B00077FF03C07195619571094AE0CE018D5197
:1023C0009F4F0E949B206DE374E0CE0183529F4F8C
:1023D0000E94CE20BE016D517F4FCE0183529F4F90
:1023E0000E942220BC01CE0101960E94C620FF243B
:1023F000F3940BC077FF03C07195619571094AE0B2
:10240000CE0101960E949B20F12CBE016F5F7F4F91
:10241000CE0183960E94C620BE01675D7F4FCE012C
:1024200083960E942220BE01615D7F4F0E94222080
:10243000BC0185E998E00E944820CE0183960E9465
:102440009620CE0101960E949620FF2051F0CE01E9
:1024500083529F4F0E949620CE018D519F4F0E9424
:102460009620CE0189960E949620002351F0CE013D
:1024700087519F4F0E949620CE0181519F4F0E940D
:102480009620CE018F960E949620112351F0CE0106
:102490008B509F4F0E949620CE0185509F4F0E94E7
:1024A00096201092C1051092C00580915102909122
:1024B0005202019789F580E88093C2052FC0609190
:1024C0005302709154024AE0CE0183960E949B20F1
:1024D0006CE374E0CE0101960E94CE20BE016D5DDA
:1024E0007F4FCE0101960E9422206CE374E00E948F
:1024F0000B20BC0185E998E00E944820CE0101969E
:102500000E949620CE0183960E94962083E390E05D
:102510009093C1058093C0051092C2050E94862742
:10252000A0C580917105811142C081E020915502C2
:1025300030915602232B09F480E00E9496246B010F
:102540007C01AB01BC01CE0101960E942C25BE018D
:102550006F5F7F4F85E998E00E945D20CE01019674
:102560000E9496208091550290915602892B51F439
:1025700081E390E09093C1058093C00580E480934F
:10258000C20508C083E290E09093C1058093C00526
:102590001092C20520E030E0A901C701B6010E94F7
:1025A000A04587FF04C08091C205806803C0809168
:1025B000C2058F778093C20554C560915702709110
:1025C0005802CB010996439708F577FF03C0719530
:1025D000619571094AE0CE0189529F4F0E949B206C
:1025E0006DE374E0CE018F529F4F0E94CE20BE015A
:1025F00069527F4FCE018F529F4F0E942220BC0113
:10260000CE0101960E94C62011E00BC077FF03C0E7
:102610007195619571094AE0CE0101960E949B2057
:1026200010E0BE016F5F7F4FCE0183960E94C620EF
:102630006AE374E0CE0183960E940B20BC0185E919
:1026400098E00E944820CE0183960E949620CE01F9
:1026500001960E949620112351F0CE018F529F4F78
:102660000E949620CE0189529F4F0E9496208FE0B3
:1026700090E09093C1058093C0058091570290919E
:10268000580297FD03C01092C205EBC480E892CFB8
:102690008091430290914402892B79F46FE074E0B9
:1026A00085E998E00E94332083E090E09093170240
:1026B000809316028CE090E00EC066E174E085E93C
:1026C00098E00E9433208CE090E090931702809372
:1026D000160283E090E09093190280931802C1C41F
:1026E00080914302909144026091490270914A02A4
:1026F000892B09F0E5C0CB010996439708F577FFD0
:1027000003C07195619571094AE0CE0185539F4FD1
:102710000E949B206DE374E0CE018B539F4F0E947B
:10272000CE20BE0165537F4FCE018B539F4F0E9439
:102730002220BC01CE018F960E94C62011E00BC062
:1027400077FF03C07195619571094AE0CE018F96BC
:102750000E949B2010E06091470270914802CB01DB
:102760000996439708F577FF03C071956195710944
:102770004AE0CE0181549F4F0E949B206DE374E09C
:10278000CE0187549F4F0E94CE20BE0161547F4FDF
:10279000CE0187549F4F0E942220BC01CE01899612
:1027A0000E94C62001E00BC077FF03C071956195C0
:1027B00071094AE0CE0189960E949B2000E0609159
:1027C000450270914602CB010996439710F577FFB9
:1027D00003C07195619571094AE0CE018D549F4FF8
:1027E0000E949B206DE374E0CE0183559F4F0E94B1
:1027F000CE20BE016D547F4FCE0183559F4F0E9466
:102800002220BC01CE0101960E94C620FF24F39431
:102810000BC077FF03C07195619571094AE0CE0145
:1028200001960E949B20F12CBE016F5F7F4FCE016D
:1028300083960E94C620BE01675D7F4FCE018396BE
:102840000E942220BE01615D7F4F0E942220BC01B8
:1028500085E998E00E944820CE0183960E94962048
:10286000CE0101960E949620FF2051F0CE018355A3
:102870009F4F0E949620CE018D549F4F0E9496201C
:10288000CE0189960E949620002351F0CE018754F4
:102890009F4F0E949620CE0181549F4F0E94962008
:1028A000CE018F960E949620112309F4DAC3CE013F
:1028B0008B539F4F0E949620CE0185539F4FE1C0BE
:1028C000CB010996439708F577FF03C07195619591
:1028D00071094AE0CE0189559F4F0E949B206DE30C
:1028E00074E0CE018F559F4F0E94CE20BE016955E6
:1028F0007F4FCE018F559F4F0E942220BC01CE01F9
:10290000C5960E94C62011E00BC077FF03C07195E9
:10291000619571094AE0CE01C5960E949B2010E0A6
:102920006091450270914602CB010996439708F5E4
:1029300077FF03C07195619571094AE0CE01855614
:102940009F4F0E949B206DE374E0CE018B569F4FFA
:102950000E94CE20BE0165567F4FCE018B569F4F01
:102960000E942220BC01CE018F960E94C62001E069
:102970000BC077FF03C07195619571094AE0CE01E4
:102980008F960E949B2000E0609147027091480260
:10299000CB010996439700F577FF03C071956195C8
:1029A00071094AE0CE0181579F4F0E949B206DE341
:1029B00074E0CE0101960E94CE20BE0161577F4F88
:1029C000CE0101960E942220BC01CE0183960E9476
:1029D000C620FF24F3940BC077FF03C07195619567
:1029E00071094AE0CE0183960E949B20F12CBE0122
:1029F0006D5D7F4FCE0189960E94C620BE01615D4C
:102A00007F4FCE0189960E942220BE016B5C7F4FD2
:102A10000E942220BC0185E998E00E944820CE0156
:102A200089960E949620CE0183960E949620FF20D0
:102A300049F0CE0101960E949620CE0181579F4F0A
:102A40000E949620CE018F960E949620002351F07E
:102A5000CE018B569F4F0E949620CE0185569F4FE8
:102A60000E949620CE01C5960E949620112309F45B
:102A7000F8C2CE018F559F4F0E949620CE018955F6
:102A80009F4F0E949620EDC20E944C36E090A50513
:102A9000F090A6050091A3051091A4052091A10531
:102AA0003091A2054091A8055091A90560919F051C
:102AB0007091A00580919D0590919E050E947D34A6
:102AC0000C9457029F5F9093F4080C945E0220814F
:102AD0003181235131092F30310588F02081318136
:102AE0002A5031092930310510F00C94A605440F05
:102AF000551F661F771F029634960C946305440F8A
:102B0000551F661F771F4160F6CF1092BB0550938B
:102B1000740540937305452BB9F40E9458357C0128
:102B20000E9460358C010E9466359C0140914102F3
:102B30005091420260913F027091400280913D02AB
:102B400090913E020E947D348091730590917405AE
:102B50000197B9F581EE91E00E94132B8091450217
:102B6000909146020E94413A8AED91E00E94132B17
:102B700080914702909148020E94413AE0904902B8
:102B8000F0904A0290E3E91A98EFF90A009147029F
:102B90001091480280904502909046020E946C3548
:102BA0005C010E9472356C010E9487359401A50179
:102BB000B6010E947D34609143028DE090E00E9456
:102BC000081F80917305909174050297C1F460917C
:102BD0004B0282E090E00E94081F60914D0283E06A
:102BE00090E00E94081F60914F0284E090E00E94F4
:102BF000081F6091510286E090E00E94081F8091BA
:102C0000730590917405039731F46091530281E04C
:102C100090E00E94081F80917305909174050497BD
:102C200031F4609155028BE090E00E94081F809182
:102C3000730590917405059739F460915702645FAC
:102C40008CE090E00E94081F0E9458357C010E9491
:102C50006035082F0E946635C059DE4F8883C05703
:102C6000D1400E946C35C159DE4F8883CF56D14088
:102C70000E947235182F0E948735382FC70168EEE1
:102C800073E00E94D347E82EC059DE4F2881C05719
:102C9000D140C159DE4F4881CF56D140612F832F9B
:102CA0000E94D53ADEC18AE090E09093740580934B
:102CB0007305D7C10E945835B8010E94D34791953A
:102CC000819591090BCAF12C0E94583508EE13E04A
:102CD000B8010E94D347181619067CF40E94583593
:102CE000B8010E94D34711C00E945835B8010E9414
:102CF000D34791958195910906CA0E945835B8012C
:102D00000E94D3479195819591094AE0BC01CE017B
:102D100001960E949B2011CA0E9460359195819571
:102D2000910913CA10E00E946035181619064CF478
:102D30000E9460350BC00E94603591958195910984
:102D400010CA0E9460359195819591094AE0BC01B5
:102D5000CE01895B9F4F0E949B201FCA0E9466354F
:102D600091958195910921CA00E00E946635181657
:102D700019064CF40E9466350BC00E946635919589
:102D8000819591091ECA0E94663591958195910998
:102D90004AE0BC01CE0185599F4F0E949B202DCA5D
:102DA0000E94583508EE13E0B8010E94D347181668
:102DB000190634F40E945835B8010E94D34708C060
:102DC0000E945835B8010E94D34791958195910989
:102DD000FF24F3940A978CF0F12C0E94583508EEEA
:102DE00013E0B8010E94D34718161906D4F50E94C3
:102DF0005835B8010E94D3473CC00E94583508EEB0
:102E000013E0B8010E94D3471816190634F40E9443
:102E10005835B8010E94D34708C00E945835B80100
:102E20000E94D3479195819591094AE0BC01CE015A
:102E3000895B9F4F0E949B206DE374E0CE018B590C
:102E40009F4F0E94CE20BE01695B7F4FCE018B5900
:102E50009F4F0E942220BC01CE0101960E94C620F5
:102E60000EC00E945835B8010E94D34791958195B4
:102E700091094AE0BC01CE0101960E949B200E946C
:102E80006635181619061CF40E94663505C00E94A6
:102E9000663591958195910911E00A974CF010E003
:102EA0000E9466351816190664F50E9466352EC014
:102EB0000E946635181619061CF40E94663505C076
:102EC0000E9466359195819591094AE0BC01CE0139
:102ED00085599F4F0E949B206DE374E0CE0183587B
:102EE0009F4F0E94CE20BE0165597F4FCE0183586F
:102EF0009F4F0E942220BC01CE018F960E94C620C7
:102F00000BC00E9466359195819591094AE0BC01FC
:102F1000CE018F960E949B200E94603518161906DC
:102F20001CF40E94603505C00E9460359195819522
:102F3000910901E00A974CF000E00E9460351816F4
:102F400019066CF50E9460352FC00E946035181676
:102F500019061CF40E94603505C00E9460359195E9
:102F6000819591094AE0BC01CE018D579F4F0E9487
:102F70009B206DE374E0CE0187579F4F0E94CE20C7
:102F8000BE016D577F4FCE0187579F4F0E94222071
:102F9000BC01CE01875A9F4F0E94C6200CC00E94E0
:102FA00060359195819591094AE0BC01CE01875A1F
:102FB0009F4F0E949B20BE01675A7F4FCE018F5BBF
:102FC0009F4F0E94C620BE01615D7F4FCE018F5B87
:102FD0009F4F0E942220BE016F5F7F4F0E942220E0
:102FE000BC018DE295E00E944820CE018F5B9F4F8F
:102FF0000E949620CE01875A9F4F0E949620002360
:1030000051F0CE0187579F4F0E949620CE018D57D9
:103010009F4F0E949620CE018F960E9496201123EA
:1030200051F0CE0183589F4F0E949620CE018559C2
:103030009F4F0E949620CE0101960E949620FF206D
:1030400009F42BC9CE018B599F4F0E949620CE01C7
:10305000895B9F4F20C91092DB081092F7080C94EF
:103060005E02C059DE4F0FB6F894DEBF0FBECDBF73
:10307000DF91CF911F910F91FF90EF90DF90CF9054
:10308000BF90AF909F908F907F906F905F904F9088
:103090003F902F900895EF92FF920F931F93CF933D
:1030A000DF93CDB7DEB7C25AD1090FB6F894DEBFB1
:1030B0000FBECDBF8091870581110DC00E948C315C
:1030C00060938305709384058093850590938605AE
:1030D00081E08093870580917B0581110DC00E945E
:1030E0008C31609377057093780580937905909380
:1030F0007A0581E080937B050E948C3100918305E5
:10310000109184052091850530918605DC01CB0165
:10311000801B910BA20BB30B00912A0210912B0282
:1031200020912C0230912D02081719072A073B071E
:1031300008F06FC00E948C31609383057093840502
:10314000809385059093860580917505909176050D
:10315000009799F481E090E0909374058093730553
:1031600088E893E1A0E0B0E080932A0290932B02DC
:10317000A0932C02B0932D021EC00197E1F484E0CD
:1031800090E0909374058093730588E893E1A0E044
:10319000B0E080932A0290932B02A0932C02B0936C
:1031A0002D0280919A05811106C082E090E09093F3
:1031B000760580937505809175059091760582302E
:1031C000910581F4109274051092730540E65AEE51
:1031D00060E070E040932A0250932B0260932C022F
:1031E00070932D020196833091052CF4909376050F
:1031F0008093750504C01092760510927505809134
:103200007205882321F010927405109273051092B4
:1032100072050E948C3100918305109184052091E4
:10322000850530918605DC01CB01801B910BA20B3B
:10323000B30B803D9740A105B10508F0D9C50E94A8
:103240008C310091770510917805209179053091A6
:103250007A05DC01CB01801B910BA20BB30B8536E9
:103260009105A105B10508F4C5C50E948C31609394
:103270007705709378058093790590937A0520916E
:103280009A058091730590917405222309F4F5C283
:10329000892B69F5CE0107960E94163781E02091AF
:1032A000550230915602232B09F480E00E949624A7
:1032B000AB01BC01CE010D960E942C25AE01495FE9
:1032C0005F4FBE01635F7F4FCE0101960E94D726FC
:1032D000BE016F5F7F4F85E998E0EFD6CE01019682
:1032E00025D7CE010D9622D7CE0107961FD7809104
:1032F000730590917405019709F04FC10E945835EC
:1033000008EE13E0B8010E94D3471816190634F4EA
:103310000E945835B8010E94D34708C00E94583512
:10332000B8010E94D34791958195910911E00A97C0
:103330009CF010E00E945835E8EEEE2EE3E0FE2E01
:10334000B7010E94D34718161906ACF50E945835EC
:10335000B7010E94D34737C00E945835F8EEEF2ED0
:10336000F3E0FF2EB7010E94D3471816190634F474
:103370000E945835B7010E94D34708C00E945835B3
:10338000B7010E94D3479195819591094AE0BC010C
:10339000CE014396D0D66DE374E0CE014996FED6B9
:1033A000BE016D5E7F4FCE0149964CD6BC01CE0169
:1033B0000D96ECD60DC00E945835B7010E94D34738
:1033C0009195819591094AE0BC01CE010D96B3D645
:1033D0000E946035181619061CF40E94603505C05D
:1033E0000E94603591958195910901E00A974CF012
:1033F00000E00E946035181619062CF50E94603511
:1034000027C00E946035181619061CF40E9460350A
:1034100005C00E9460359195819591094AE0BC01F3
:10342000CE01859688D66DE374E0CE018B96B6D634
:10343000BE016B5D7F4FCE018B9604D6BC01CE01E1
:103440004F96A4D60AC00E94603591958195910946
:103450004AE0BC01CE014F966ED60E946635181622
:1034600019061CF40E94663505C00E9466359195C8
:1034700081959109FF24F3940A974CF0F12C0E9456
:103480006635181619063CF50E94663529C00E945B
:103490006635181619061CF40E94663505C00E9490
:1034A00066359195819591094AE0BC01CE01CD9692
:1034B00042D66DE374E0CE018D5B9F4F6FD6BE01A7
:1034C000635C7F4FCE018D5B9F4FBCD5BC01CE01AD
:1034D000C7965CD60AC00E94663591958195910980
:1034E0004AE0BC01CE01C79626D6BE01695C7F4F7B
:1034F000CE01C1964BD6BE01615E7F4FCE01C19613
:10350000A1D5BE01635F7F4F9DD5BC01CE0107965B
:103510003DD6CE01875B9F4F0E941637AE01495FB3
:103520005F4FBE01675B7F4FCE0101960E94D72699
:10353000BE016F5F7F4F85E998E0BFD5CE01019650
:10354000F5D5CE01875B9F4FF1D5CE010796EED51D
:10355000CE01C196EBD5CE01C796E8D5FF2039F054
:10356000CE018D5B9F4FE2D5CE01CD96DFD5CE014A
:103570004F96DCD5002331F0CE018B96D7D5CE0106
:103580008596D4D5CE010D96D1D5112331F0CE013B
:103590004996CCD5CE014396C9D5809173059091BB
:1035A0007405049709F026C481E0209155023091FA
:1035B0005602232B09F480E00E949624AB01BC0143
:1035C000CE0107960E942C250E94583508EE13E084
:1035D000B8010E94D3471816190634F40E945835D2
:1035E000B8010E94D34708C00E945835B8010E9414
:1035F000D34791958195910911E00A979CF010E0CD
:103600000E94583568EEE62E63E0F62EB7010E9460
:10361000D34718161906ACF50E945835B7010E9419
:10362000D34737C00E94583578EEE72E73E0F72E67
:10363000B7010E94D3471816190634F40E94583572
:10364000B7010E94D34708C00E945835B7010E94B5
:10365000D3479195819591094AE0BC01CE01C1966D
:103660006AD56DE374E0CE01C79698D5BE016F5C54
:103670007F4FCE01C796E6D4BC01CE014F9686D5CA
:103680000DC00E945835B7010E94D347919581958E
:1036900091094AE0BC01CE014F964DD50E9460359C
:1036A000181619061CF40E94603505C00E9460358A
:1036B00091958195910901E00A974CF000E00E94F4
:1036C0006035181619064CF50E9460352BC00E9413
:1036D0006035181619061CF40E94603505C00E945A
:1036E00060359195819591094AE0BC01CE01815BDD
:1036F0009F4F21D56DE374E0CE018B5A9F4F4ED57D
:10370000BE01615B7F4FCE018B5A9F4F9BD4BC01A2
:10371000CE01875B9F4F3AD50BC00E9460359195D3
:10372000819591094AE0BC01CE01875B9F4F03D58B
:103730000E946635181619061CF40E94663505C0ED
:103740000E946635919581959109FF24F3940A971B
:103750004CF0F12C0E946635181619064CF50E94A3
:1037600066352BC00E946635181619061CF40E9497
:10377000663505C00E9466359195819591094AE0AC
:10378000BC01CE0189599F4FD6D46DE374E0CE01C0
:1037900083599F4F03D5BE0169597F4FCE0183598D
:1037A0009F4F50D4BC01CE018F599F4FEFD40BC017
:1037B0000E9466359195819591094AE0BC01CE0140
:1037C0008F599F4FB8D4BE016F597F4FCE01855A94
:1037D0009F4FDCD4BE01675B7F4FCE01855A9F4F60
:1037E00031D4BE01615E7F4F2DD4BC01CE010D9658
:1037F000CDD4AE01495F5F4FBE01635F7F4FCE0105
:1038000001960E94D726BE016F5F7F4F85E998E041
:1038100054D4CE0101968AD4CE010D9687D4CE0120
:10382000855A9F4F83D4CE018F599F4F7FD4FF205D
:1038300041F0CE0183599F4F79D4CE0189599F4FD2
:1038400075D4CE01875B9F4F71D4002341F0CE0128
:103850008B5A9F4F6BD4CE01815B9F4F67D4CE01B3
:103860004F9664D4112331F0CE01C7965FD4CE01B8
:10387000C1965CD4CE010796B9C2892B09F057C115
:10388000CE0107960E9416370E94583508EE13E0C5
:10389000B8010E94D3471816190634F40E9458350F
:1038A000B8010E94D34708C00E945835B8010E9451
:1038B000D34791958195910911E00A979CF010E00A
:1038C0000E94583548EEE42E43E0F42EB7010E94E2
:1038D000D34718161906BCF50E945835B7010E9447
:1038E000D34739C00E94583558EEE52E53E0F52EE7
:1038F000B7010E94D3471816190634F40E945835B0
:10390000B7010E94D34708C00E945835B7010E94F2
:10391000D3479195819591094AE0BC01CE014F961C
:103920000AD46DE374E0CE01875B9F4F37D4BE01AC
:10393000615E7F4FCE01875B9F4F84D3BC01CE0178
:10394000439624D40DC00E945835B7010E94D34736
:103950009195819591094AE0BC01CE014396EBD344
:103960000E946035181619061CF40E94603505C0C7
:103970000E94603591958195910901E00A974CF07C
:1039800000E00E9460351816190644F50E94603563
:103990002AC00E946035181619061CF40E94603572
:1039A00005C00E9460359195819591094AE0BC015E
:1039B000CE01855A9F4FBFD36DE374E0CE018F597E
:1039C0009F4FECD3BE01655A7F4FCE018F599F4F59
:1039D00039D3BC01CE014996D9D30AC00E946035C3
:1039E0009195819591094AE0BC01CE014996A3D3F6
:1039F0000E946635181619061CF40E94663505C02B
:103A00000E946635919581959109FF24F3940A9758
:103A10004CF0F12C0E9466351816190644F50E94E8
:103A200066352AC00E946635181619061CF40E94D5
:103A3000663505C00E9466359195819591094AE0E9
:103A4000BC01CE018D589F4F76D36DE374E0CE015B
:103A500087589F4FA3D3BE016D587F4FCE01875823
:103A60009F4FF0D2BC01CE018B9690D30AC00E942A
:103A700066359195819591094AE0BC01CE018B96FE
:103A80005AD3BE01655D7F4FCE0185967FD3BE01BF
:103A9000675E7F4FCE018596D5D2BE016D5E7F4FAA
:103AA000D1D2BC01CE010D9671D3AE01495F5F4FFB
:103AB000BE01635F7F4FCE0101960E94D726BE01F3
:103AC0006F5F7F4F85E998E0F8D2CE0101962ED343
:103AD000CE010D962BD3CE01859628D3CE018B96A1
:103AE00025D3FF2041F0CE0187589F4F1FD3CE0131
:103AF0008D589F4F1BD3CE01499618D3002341F018
:103B0000CE018F599F4F12D3CE01855A9F4F0ED3AE
:103B1000CE0143960BD3112339F0CE01875B9F4F23
:103B200005D3CE014F9602D3CE010796FFD28091E6
:103B3000730590917405019709F05CC10E94583596
:103B400008EE13E0B8010E94D3471816190634F4A2
:103B50000E945835B8010E94D34708C00E945835CA
:103B6000B8010E94D34791958195910911E00A9778
:103B70009CF010E00E94583528EEE22E23E0F22E51
:103B8000B7010E94D34718161906C4F50E9458358C
:103B9000B7010E94D3473AC00E94583538EEE32E51
:103BA00033E0F32EB7010E94D3471816190634F4F8
:103BB0000E945835B7010E94D34708C00E9458356B
:103BC000B7010E94D3479195819591094AE0BC01C4
:103BD000CE0181589F4FAFD26DE374E0CE018B5779
:103BE0009F4FDCD2BE0161587F4FCE018B579F4F54
:103BF00029D2BC01CE010D96C9D20DC00E94583504
:103C0000B7010E94D3479195819591094AE0BC0183
:103C1000CE010D9690D20E946035181619061CF43C
:103C20000E94603505C00E9460359195819591098B
:103C300001E00A974CF000E00E9460351816190662
:103C400044F50E9460352AC00E9460351816190696
:103C50001CF40E94603505C00E94603591958195E5
:103C600091094AE0BC01CE0185579F4F64D26DE3B4
:103C700074E0CE018F569F4F91D2BE0165577F4FA2
:103C8000CE018F569F4FDED1BC01CE0143967ED22E
:103C90000AC00E9460359195819591094AE0BC0166
:103CA000CE01439648D20E946635181619061CF4B8
:103CB0000E94663505C00E946635919581959109EF
:103CC000FF24F3940A974CF0F12C0E9466351816E5
:103CD000190644F50E9466352AC00E9466351816FA
:103CE00019061CF40E94663505C00E946635919540
:103CF000819591094AE0BC01CE0189569F4F1BD2A4
:103D00006DE374E0CE0183569F4F48D2BE016956E1
:103D10007F4FCE0183569F4F95D1BC01CE01859632
:103D200035D20AC00E9466359195819591094AE085
:103D3000BC01CE018596FFD1BE016B5D7F4FCE01E8
:103D4000499624D2BE016D5E7F4FCE0149967AD14D
:103D5000BE01635F7F4F76D1BC01CE01079616D2BC
:103D6000CE018B960E941637AE01495F5F4FBE01B0
:103D7000655D7F4FCE0101960E94D726BE016F5F21
:103D80007F4F85E998E099D1CE010196CFD1CE0140
:103D90008B96CCD1CE010796C9D1CE014996C6D11A
:103DA000CE018596C3D1FF2041F0CE0183569F4FAF
:103DB000BDD1CE0189569F4FB9D1CE014396B6D120
:103DC000002341F0CE018F569F4FB0D1CE018557D1
:103DD0009F4FACD1CE010D96A9D1112359F0CE0140
:103DE0008B579F4FA3D1CE0181589F4F9FD102C0C7
:103DF00010927105CE55DF4F0FB6F894DEBF0FBE9F
:103E0000CDBFDF91CF911F910F91FF90EF9008955B
:103E10000C94C1460C94B9468F929F92AF92BF9278
:103E2000CF92DF92EF92FF920F931F93CF93DF9386
:103E300088E090E0EFDF982EA82EB12C89E090E08A
:103E4000E9DFC82E082F10E08AE090E0E3DFC82FFA
:103E5000D0E0D12CE12CF12CFE2CED2CDC2CCC2450
:103E6000E928C82A812C912CB701A601C4010E941F
:103E7000182C8FEF881A980A88E088169104A1F709
:103E80000E94832C8DE492E00E94342B88E492E01F
:103E90000E94132BC5010E94413A81E492E00E94E6
:103EA000132BC8010E94413A8BE392E00E94132B2E
:103EB000CE01DF91CF911F910F91FF90EF90DF9096
:103EC000CF90BF90AF909F908F900C94413ACF933A
:103ED000DF93C0E0D0E040E050E0BA01CE010E94A4
:103EE000182C2196C830D105B1F7DF91CF910C94F1
:103EF000832C0E94274ACF93DF93EC01888199811C
:103F0000009711F00E94AB48198218821D821C8212
:103F10001B821A82DF91CF9108950F931F93CF9345
:103F2000DF93EC0188819981009729F02A813B81F8
:103F30002617370788F48B016F5F7F4F0E94434934
:103F4000009761F0998388831B830A832C813D81CC
:103F5000232B11F4FC01108281E001C080E0DF918D
:103F6000CF911F910F910895EF92FF920F931F939E
:103F7000CF93DF93EC017B018A01BA01CEDF81117F
:103F800003C0CE01B8DF07C01D830C83B701888151
:103F900099810E94344ACE01DF91CF911F910F91F8
:103FA000FF90EF900895FC0180819181009711F0BE
:103FB0000C94284560E070E0CB010895EF92FF92E9
:103FC0000F931F93CF93DF93FC01248135816115FB
:103FD000710511F480E018C041155105A1F07B0175
:103FE000EC018A01020F131FB80197DF882391F3B8
:103FF000288139818C819D81B701820F931F0E9496
:10400000344A1D830C8381E0DF91CF911F910F9182
:10401000FF90EF900895CF93DF93EC016115710548
:1040200059F0FB0101900020E9F73197AF01461BE1
:10403000570BC4DF811102C0CE015DDFCE01DF91DD
:10404000CF910895CF93DF93EC01FB01448155811B
:1040500060817181B3DF811102C0CE014CDFCE01DE
:10406000DF91CF910895CF93DF93EC016115710536
:1040700051F0FB0101900020E9F73197AF01461B99
:10408000570B72DF01C037DFCE01DF91CF9108956A
:10409000CF93DF93EC01FB018617970751F0608106
:1040A00071816115710521F0448155815DDF01C089
:1040B00022DFCE01DF91CF9108950F931F93CF930D
:1040C000DF938C01EB01FC01808191810097B1F0BD
:1040D000688179816115710579F0428153812C8164
:1040E0003D814217530740F00E94344A8C819D81E4
:1040F000F8019583848313C00E94AB48888199811D
:10410000F801918380838A819B81938382838C8150
:104110009D8195838483198218821B821A821D8255
:104120001C82DF91CF911F910F910895FC01808136
:1041300091810C94AB480F931F93CF93DF93CDB72E
:10414000DEB762970FB6F894DEBF0FBECDBF8C010D
:10415000CB01F8011182108213821282158214821F
:1041600050E0BE016F5F7F4F0E944E45BE016F5F02
:104170007F4FC80178DF62960FB6F894DEBF0FBE9E
:10418000CDBFDF91CF911F910F910895FC01118256
:10419000108213821282158214827ACFFC0111825E
:1041A000108213821282158214826115710549F002
:1041B000FB0101900020E9F73197AF01461B570B37
:1041C000D3CE0895BF92CF92DF92EF92FF920F93DA
:1041D0001F93CF93DF937C016B018A01E9012417C0
:1041E000350720F4812F8901C42FD82F6FE174E0A7
:1041F000C701D4DFD60114968D919C9115970817AD
:104200001907C8F48C179D0708F4EC01D601ED914D
:10421000FC911197EC0FFD1FB08010824D915C91C5
:10422000BA01600F711FC7011EDFD601ED91FC912D
:10423000EC0FFD1FB082C701DF91CF911F910F914D
:10424000FF90EF90DF90CF90BF90089540910D06C2
:1042500050910E0620910B0630910C064217530721
:1042600019F080E09CE302C08FEF9FEF4F5F5F4F3C
:104270004330510529F050930E0640930D060895E2
:1042800010920E0610920D062F5F3F4F233031051E
:1042900029F030930C0620930B06089510920C061B
:1042A00010920B060895CF92DF92EF92FF921F9328
:1042B000CF93DF939091C505911103C08FEF9FEFCE
:1042C00072C09091C4059923C9F3182FC091C305FA
:1042D000D0E08091030681110DC00E948C31609363
:1042E000FF0570930006809301069093020681E01B
:1042F000809303060E948C31C090FF05D090000689
:10430000E0900106F0900206DC01CB018C199D09BA
:10431000AE09BF098D329140A105B105D8F00E94C8
:104320008C316093FF057093000680930106909393
:1043300002068091FE0591E098279093FE0599234F
:1043400029F01092FD051092FC0504C0D093FD05E4
:10435000C093FC052091FC053091FD05209530951A
:104360004091C20550E02423352326FF04C081E09C
:104370008093FB0502C01092FB0527FF04C081E07B
:104380008093FA0502C01092FA058091FE058823F9
:1043900009F494CF02C0D595C7951A95E2F7C0FFEE
:1043A0008DCF80E09CE3DF91CF911F91FF90EF9044
:1043B000DF90CF9008950F931F93CF93DF93CDB7E6
:1043C000DEB7A4970FB6F894DEBF0FBECDBF8B014A
:1043D000833009F055C02091990830919A0842E045
:1043E00050E065E978E0CE014996ECDEC801099617
:1043F000B8014397D0F417FF03C071956195710917
:104400004AE0CE01079697DE6DE374E0CE01019697
:10441000C5DEBE01695F7F4FCE01019613DEBC0190
:10442000CE010D96B3DE11E00AC017FF03C07195EF
:10443000619571094AE0CE010D967DDE10E0BE0166
:10444000635F7F4FCE014396A1DEBE01675E7F4F63
:10445000CE014396F7DDBC0185E998E019DECE0177
:10446000439664DECE010D9661DE112331F0CE015C
:1044700001965CDECE01079659DECE014996BCC09E
:104480008C3009F065C02091990830919A0844E079
:1044900050E065E978E0CE01439694DEC8010996C4
:1044A000B8014397D0F417FF03C071956195710966
:1044B0004AE0CE014F963FDE6DE374E0CE014996AF
:1044C0006DDEBE01615E7F4FCE014996BBDDBC0152
:1044D000CE010D965BDE11E00AC017FF03C0719597
:1044E000619571094AE0CE010D9625DE10E022E0CB
:1044F00030E040E050E065E978E0CE01019662DE10
:10450000BE016F5F7F4FCE01079640DEBE01635F45
:104510007F4FCE01079696DDBE016D5E7F4F92DD27
:10452000BC0185E998E0B4DDCE010796FFDDCE0140
:104530000196FCDDCE010D96F9DD112331F0CE019F
:104540004996F4DDCE014F96F1DDCE01439654C07D
:10455000803309F052C0CB0109964397D0F477FF1E
:1045600003C07195619571094AE0CE014396E3DD80
:104570006DE374E0CE010D9611DEBE016D5E7F4FDE
:10458000CE010D965FDDBC01CE014996FFDD11E045
:104590000AC077FF03C07195619571094AE0CE01A9
:1045A0004996C9DD10E024E030E040E050E065E9E4
:1045B00078E0CE01019606DEBE016F5F7F4FCE012F
:1045C0000796E4DDBE01675E7F4FCE0107963ADDB8
:1045D000BC0185E998E05CDDCE010796A7DDCE0140
:1045E0000196A4DDCE014996A1DD112331F0CE0163
:1045F0000D969CDDCE01439699DDA4960FB6F894F6
:10460000DEBF0FBECDBFDF91CF911F910F910895F7
:104610001F920F920FB60F9211240BB60F922F928A
:104620003F924F925F926F927F928F929F92AF9242
:10463000BF92CF92DF92EF92FF920F931F932F932F
:104640003F934F935F936F937F938F939F93AF931A
:10465000BF93EF93FF93CF93DF93CDB7DEB7289748
:10466000DEBFCDBF789485E998E09DDC2C982AE0E8
:10467000822E912CA12CB12CA50194010E94E64719
:10468000660F771FFB01E753FC4F808191819A836E
:10469000898385E090E02B833C834D835E8303DE3A
:1046A00098878F83D3DD7C012B813C814D815E8196
:1046B000CA01B901A50194010E94E647660F771F60
:1046C000FB01E753FC4F6080718084E090E02B8316
:1046D0003C834D835E83E7DD8C01B8DD6C012B816B
:1046E0003C814D815E81CA01B901A50194010E94FE
:1046F000E64719012A01660F771FFB01E753FC4FBC
:104700008080918083E090E0CEDD5C019FDD0C2114
:104710001D210621172120E030E0BAE0000F111F13
:10472000221F331FBA95D1F78A219B21AC01482162
:10473000592160E070E048015901842A952AA62A8F
:10474000B72A8F819885E822F92289819A81E82207
:10475000F922A70160E070E014E1440F551F661FC5
:10476000771F1A95D1F7842A952AA62AB72A80910D
:10477000FB05882319F06894B6F802C0E894B6F8EF
:104780008091FA05882319F06894B7F802C0E8947C
:10479000B7F88B2D0E94113E8A2D0E94113E892D63
:1047A0000E94113E882D0E94113E8AE0C82ED12C15
:1047B000E12CF12CC201B101A70196010E94E6474C
:1047C000660F771FFB01E753FC4F4080518082E06A
:1047D00090E02B833C834D835E8365DD5C0136DD99
:1047E0008C012B813C814D815E81CA01B901A701F9
:1047F00096010E94E647660F771FFB01E753FC4FC7
:104800006080718081E090E02B833C834D835E83E8
:104810004ADD4C011BDD15012022312224203520E8
:10482000412C512CF4E1220C331C441C551CFA95EC
:10483000D1F78821992186219721A0E0B0E01AE0E4
:10484000880F991FAA1FBB1F1A95D1F7520141016A
:10485000882A992AAA2ABB2A2B813C814D815E8114
:10486000CA01B901A70196010E94E647660F771FAA
:10487000FB01E753FC4FE080F18080E090E013DD26
:104880008C01E4DC802391238E219F21A0E0B0E005
:10489000882A992AAA2ABB2A8091FB05882319F025
:1048A0006894B6F802C0E894B6F88091FA058823B7
:1048B00019F06894B7F802C0E894B7F88B2D0E94FD
:1048C000113E8A2D0E94113E892D0E94113E882D95
:1048D0000E94113E2C9A28960FB6F894DEBF0FBEA8
:1048E000CDBFDF91CF91FF91EF91BF91AF919F919C
:1048F0008F917F916F915F914F913F912F911F9178
:104900000F91FF90EF90DF90CF90BF90AF909F906E
:104910008F907F906F905F904F903F902F900F906F
:104920000BBE0F900FBE0F901F901895DF92EF9265
:10493000FF920F931F93CF93DF93C091F805D0910F
:10494000F905C830D10508F06AC0082FFE01882794
:10495000E357FF4F8F4F0C94024884E406C00E9437
:104960007C395DC08CEC01C08EEB0E94523957C07F
:1049700028E0E22EF12C01E010E00E94412D81118F
:10498000102B000F81E0E81AF108B9F71093F60533
:1049900046C098E0E92EF12CDD24D39410E00E946B
:1049A000412D81111D29DD0C81E0E81AF108B9F7CC
:1049B0001093F705612F70E0762F66278091F6053A
:1049C000682B6F3F8FEF780711F460E070E0072EDF
:1049D000000C880B990B0E94A64520E030E040E8CF
:1049E0005DE30E940546002361F026E636E646EECA
:1049F0005FE30E94054620E030E040E052E40E9480
:104A00001A4720E030E040E251E40E9405466093FE
:104A1000F2057093F3058093F4059093F5052196C4
:104A2000C830D10529F0D093F905C093F80504C02A
:104A30001092F9051092F8056091F2057091F30556
:104A40008091F4059091F505DF91CF911F910F9121
:104A5000FF90EF90DF9008958F929F92AF92BF9258
:104A6000CF92DF92EF92FF920F931F93CF93DF933A
:104A7000CDB7DEB72C970FB6F894DEBF0FBECDBF13
:104A80008C016A017B018091EA05811113C00E94AB
:104A90008C31DC01CB01845B9B4FAF4FBF4F8093C8
:104AA000E6059093E705A093E805B093E90581E05A
:104AB0008093EA058091DE05811108C068E374E007
:104AC00088ED95E06BDB81E08093DE050E948C3100
:104AD0008090E6059090E705A090E805B090E90584
:104AE000DC01CB0188199909AA09BB09893E9340C9
:104AF000A105B10508F443C10E948C316093E6051D
:104B00007093E7058093E8059093E90520E030E095
:104B1000A901C701B6010E94AF4720E030E040E0A4
:104B20005FE387FD05C0C701B6010E941A4704C0B4
:104B3000C701B6010E9419470E947E478091550225
:104B4000909156029B0129513C4F49012458334012
:104B500059012A55310969017B01892B09F07DC072
:104B600077FF03C0F194E194F1084AE0B701CE0168
:104B70000796E1DA6DE374E0CE0101960FDBBE012A
:104B8000695F7F4FCE0101965DDA6DE374E043DA31
:104B9000BC0188ED95E07CDACE010196C7DACE0142
:104BA0000796C4DA3FEC831637E09306E8F44AE050
:104BB000B701CE010796BFDA6CE374E0CE0101962F
:104BC000EDDABE01695F7F4FCE0101963BDA6DE3FE
:104BD00074E021DABC0188ED95E05ADACE01019645
:104BE000A5DACE010796A2DA87ECA816B104E8F49C
:104BF0004AE0B701CE0107969EDA6BE374E0CE017E
:104C00000196CCDABE01695F7F4FCE0101961ADAB8
:104C10006DE374E000DABC0188ED95E039DACE018D
:104C2000019684DACE01079681DA23E1C216D10417
:104C300008F0A5C04AE0B701CE0107967CDA6AE326
:104C400074E0CE010196AADABE01695F7F4FCE0102
:104C50000196F8D96DE374E087C077FF03C0F19443
:104C6000E194F1084AE0B701CE01079664DA6DE3FA
:104C700074E0CE01019692DABE01695F7F4FCE01EA
:104C80000196E0D96DE374E0C6D9BC0188ED95E0EA
:104C9000FFD9CE0101964ADACE01079647DA3FECFA
:104CA000831637E0930608F5C7016AE070E00E94BA
:104CB000D3474AE0CE0107963EDA6CE374E0CE01BA
:104CC00001966CDABE01695F7F4FCE010196BAD9B9
:104CD0006CE374E0A0D9BC0188ED95E0D9D9CE0190
:104CE000019624DACE01079621DA87ECA816B104E2
:104CF00008F5C7016AE070E00E94D3474AE0CE01A0
:104D0000079619DA6BE374E0CE01019647DABE012B
:104D1000695F7F4FCE01019695D96CE374E07BD932
:104D2000BC0188ED95E0B4D9CE010196FFD9CE0142
:104D30000796FCD923E1C216D10408F5C7016AE041
:104D400070E00E94D3474AE0CE010796F4D96AE3A7
:104D500074E0CE01019622DABE01695F7F4FCE0179
:104D6000019670D96CE374E056D9BC0188ED95E0EA
:104D70008FD9CE010196DAD9CE010796D7D968ED41
:104D800075E0C80103DAC8012C960FB6F894DEBFAF
:104D90000FBECDBFDF91CF911F910F91FF90EF908C
:104DA000DF90CF90BF90AF909F908F9008954F92DB
:104DB0005F926F927F928F929F92AF92BF92CF92AB
:104DC000DF92EF92FF920F931F93CF93DF9300D068
:104DD00000D0CDB7DEB77C014B015A01809171053F
:104DE000882341F08091CB0502ED15E0ACECB5E0F5
:104DF000F80146C081E0809371051092C1051092C0
:104E0000C00582ED682E85E0782E9CEC492E95E059
:104E1000592E00E010E00F5F1F4F680181E0C81AB3
:104E2000D1089801A601B401CE010196CBD9CE01DB
:104E30000196B9D8F30161933F01CE01019676D96D
:104E40009801A601B501CE010196BCD9CE0101960B
:104E5000AAD8F20161932F01CE01019667D90630DD
:104E60001105C9F6BFCF2C9192130DC090819A30D5
:104E700009F410823196119695E0E83DF90731F07A
:104E800090818A3080F79F5F9083F0CF8F5F84316D
:104E900019F08093CB0504C01092CB0510927105D8
:104EA0006FE174E0C7017AD9FE0131966F01F80114
:104EB00081918F014AE0B60190E00E945845F601C9
:104EC00001900020E9F73197AF014C195D09B60157
:104ED000C70174D8F5E0083D1F0749F7C7012696BA
:104EE0000FB6F894DEBF0FBECDBFDF91CF911F91FB
:104EF0000F91FF90EF90DF90CF90BF90AF909F9079
:104F00008F907F906F905F904F9008950F931F93B5
:104F10008091510290915202892B09F454C08091E2
:104F2000CA058823A9F00E948C310091C605109112
:104F3000C7052091C8053091C905DC01CB01801B54
:104F4000910BA20BB30B893E9340A105B105C0F5AF
:104F50008091CA05811137C00E94873520914B028C
:104F600030914C028217930771F50E94723520919F
:104F70004D0230914E028217930729F50E946C353D
:104F800020914F023091500282179307E1F40E9462
:104F90008C316093C6057093C7058093C8059093C4
:104FA000C90581E08093CA0589ED92E05DD38091C7
:104FB0002E0290912F0290939C0580939B0503C035
:104FC0001092CA05C5CF1F910F9108950E948C3190
:104FD0006093BC057093BD058093BE059093BF059B
:104FE0008091BB05882309F44FC02091730530914F
:104FF0007405C901880F991F2131310551F0FC0159
:10500000EF5CFD4F408151814150510951834083F4
:105010000AC040915302509154024C505109509390
:10502000540240935302DC01AF5CBD4F6D917C9103
:105030001197FC01E758FC4F4081518164177507B7
:105040003CF4FC01EF55FC4F408151814D935C9342
:105050002031310571F420915102309152022130FA
:10506000310521F420E82093C20506C01092C20544
:1050700003C02930310541F0FC01EF5CFD4F608138
:1050800071818091C30597C908950E948C31609306
:10509000BC057093BD058093BE059093BF058091BC
:1050A000BB05882309F444C0209173053091740531
:1050B000C901880F991F2131310551F0FC01EF5CC6
:1050C000FD4F408151814F5F5F4F518340830AC044
:1050D0004091530250915402445F5F4F50935402E9
:1050E00040935302DC01AF5CBD4F6D917C911197F1
:1050F000FC01EF55FC4F40815181461757073CF4A6
:10510000FC01E758FC4F408151814D935C93203165
:10511000310519F41092C20503C02930310541F060
:10512000FC01EF5CFD4F608171818091C30543C933
:105130000895CF93DF93EC01019628812A33D9F7A4
:105140008981843639F51092BA051092B9052396F3
:105150004AE0FE018881219690ED980F2091B905D3
:105160003091BA059A3080F4429FB001439F700D90
:105170001124082E000C990BC097860F971F90934F
:10518000BA058093B905E5CF1216130614F42093DF
:105190005C02EF01219688818F3689F48A81082E7E
:1051A000000C990B9C01205331093093BA052093D0
:1051B000B905C397059710F420935B022496888164
:1051C000823629F51092BA051092B905FE01329681
:1051D0004AE0819190ED980F2091B9053091BA0580
:1051E0009A3080F4429FB001439F700D1124082E25
:1051F000000C990BC097860F971F9093BA05809368
:10520000B905E7CF30935A0220935902EF0120915C
:10521000590230915A02032E000C440B550B60E6E4
:105220007AEE80E090E00E94E647DA01C90122E0D0
:10523000880F991FAA1FBB1F2A95D1F78093B50528
:105240009093B605A093B705B093B805CE01DF9152
:10525000CF9108953F924F925F926F927F928F927B
:105260009F92AF92BF92CF92DF92EF92FF920F93F5
:105270001F93CF93DF9300D01F92CDB7DEB720915D
:105280001C0627FDA9C149835A836B837C838C014B
:1052900061E080911B06DFD730901C06832D8D7F47
:1052A0004801A12CB12C09F0B7C060E072E18AE797
:1052B00090E0A50194010E94E64729013A016901A5
:1052C0007A0121E0C21AD108E108F1088FEFC8166F
:1052D000D104E104F10409F008F44CC060E472E484
:1052E0008FE090E0A50194010E94E64769017A01F0
:1052F00091E0C91AD108E108F108A2E03A1220C0F1
:10530000BFEFCB16D104E104F10409F008F462C147
:1053100060E970ED83E090E0A50194010E94E6470A
:1053200069017A01E1E0CE1AD108E108F108FFEF46
:10533000CF16D104E104F10409F0C0F583E065C0A3
:105340002FEFC216D104E104F104B1F0A8F068E433
:1053500078EE81E090E0A50194010E94E6476901A2
:105360007A0181E0C81AD108E108F108332009F474
:10537000D9C027C181E001C082E0332091F045C04F
:10538000D301C2012AE0B595A795979587952A95EF
:10539000D1F76C017D01E1E0CE1AD108E108F108F6
:1053A00085E095B5987F892B85BD66C068E478EE69
:1053B00081E090E0A50194010E94E64769017A012D
:1053C000B1E0CB1AD108E108F108EFEFCE16D10415
:1053D000E104F10409F008F4A3C064E274EF80E092
:1053E00090E0A50194010E94E64769017A0191E0ED
:1053F000C91AD108E108F108AFEFCA16D104E104D7
:10540000F10411F008F0B0C085E09091B100987FF0
:10541000892B8093B10030C060E072E18AE790E0B0
:10542000A50194010E94E64769017A01F1E0CF1AD3
:10543000D108E108F108C114D10421E0E206F10429
:1054400088F068E478EE81E090E0A50194010E9484
:10545000E64769017A0181E0C81AD108E108F1083C
:1054600093E001C091E0A1E03A1206C08091810072
:10547000887F892B8093810089819A81AB81BC814F
:10548000892B8A2B8B2B81F0D801AA0FBB1F298176
:105490003A814B815C810E94004728EE33E040E076
:1054A00050E00E94DE4603C02FEF3FEFA90191E0DC
:1054B0003916A1F0A2E03A1619F131108DC0C7BC1F
:1054C00020931706309318064093190650931A0636
:1054D00080916E00826080936E007EC0D0928900C1
:1054E000C09288002093130630931406409315064B
:1054F0005093160680916F00826080936F006CC09D
:10550000C092B30020930F0630931006409311060B
:1055100050931206809170008260809370005CC08E
:1055200084E073CF8FEFC816D104E104F104D1F009
:10553000C8F062E17AE780E090E0A50194010E9462
:10554000E64769017A01F1E0CF1AD108E108F108D4
:105550002FEFC216D104E104F10411F008F010CFCE
:1055600084E01FCF83E01DCF62E17AE780E090E026
:10557000A50194010E94E64769017A0191E0C91AE8
:10558000D108E108F108AFEFCA16D104E104F10433
:10559000B1F0A8F0D301C2014AE0B595A79597955F
:1055A00087954A95D1F76C017D01E1E0CE1AD108CB
:1055B000E108F108332009F4F3CE87E026CF86E036
:1055C000DCCEBFEFCB16D104E104F10409F060F6A4
:1055D00084E0D3CE82E019CF0F900F900F900F9000
:1055E000DF91CF911F910F91FF90EF90DF90CF90BF
:1055F000BF90AF909F908F907F906F905F904F90F3
:105600003F900895009761F0FC0101900020E9F7B8
:105610003197AF01481B590BBC018AEB96E089C258
:1056200080E090E008950F931F93CF93DF938C0158
:10563000C0E0D0E0F801EC0FFD1F6491662371F02B
:10564000E091BA06F091BB060190F081E02D8AEB63
:1056500096E01995892B11F02196ECCFCE01DF91C0
:10566000CF911F910F910895CF93DF93DCDFEC0171
:105670008DE194E0C7DF8C0F9D1FDF91CF910895DE
:10568000982F8091F308823009F460C0893009F4C2
:105690008BC0813009F0CAC04091F40850E0493015
:1056A000510508F0C3C0FA018827EB56FF4F8F4F12
:1056B0000C9402481092EF089C3209F4B7C0809114
:1056C000F60882608093F608990F9056892F880F0C
:1056D000880F03C08091EA088053980F9093EA08DE
:1056E000A5C0990F9056892F880F880F03C080910D
:1056F000E9088053980F9093E90898C0990F905645
:10570000892F880F880F03C08091E8088053980F75
:105710009093E8088BC09C3209F088C013C09C327B
:1057200089F0990F9056892F880F880F980F9093C2
:10573000EF087CC09C3231F08091EF088053980FC5
:105740009093EF088091F10884606EC08091F40816
:1057500081116CC0913311F0913411F483E021C0B8
:10576000903321F09E3411F0963519F41092F00820
:1057700058C0923311F0943411F484E012C0933382
:1057800011F487E00EC0943311F486E00AC095331B
:1057900011F485E006C0963319F0953409F046C03F
:1057A00081E08093F0083DC08091F408823019F1C7
:1057B00040F48823A9F08130C9F58091EC0880532A
:1057C00016C0843029F1E8F0853081F58091EE082B
:1057D0008053980F9093EE088091F108826024C066
:1057E0009C3221F1990F9056892F880F880F980FBE
:1057F0009093EC081BC0990F9056892F880F880F43
:1058000003C08091ED088053980F9093ED080EC06F
:10581000990F9056892F880F880F980F9093EE0854
:1058200005C08091F10881608093F10881E00895BE
:105830008F929F92AF92BF92CF92DF92EF92FF92A0
:1058400020913708309138088217930708F052C02A
:105850004B01AA24BB24E82DC52ED62EE72EFF240B
:10586000FC2D342F20913C08222361F0829E4001C0
:105870001124E92DC29E60011124FD2D429FD0010B
:1058800011243B2FF0904208E0903F08A0913D0882
:10589000B0913E08FE1008C0AC01440F551F840FA4
:1058A000951F8A0F9B1F14C0880F991F880F991F7F
:1058B0008A0F9B1F472F552766277727DC01AF0DDF
:1058C000B11D222321F0429FA0011124452F4C93AA
:1058D00020913F08DC01A20FB11DEC9320914008FC
:1058E000DC01A20FB11DFC9320914108FC01E20FE5
:1058F000F11D3083FF90EF90DF90CF90BF90AF907D
:105900009F908F9008950F931F93CF93DF93CDB700
:10591000DEB729970FB6F894DEBF0FBECDBF8091DA
:105920003D0890913E08892B09F4A0C0D0D4009185
:105930004308109144082091450830914608DC0145
:10594000CB01801B910BA20BB30B8C329140A105B4
:10595000B10560F3F8948091390890913A089A83E0
:105960008983E0913D08F0913E08DF011196808126
:10597000898790913508E0914708F0914808809117
:105980004908992309F42EC09081982B988790811B
:10599000809589238F838F818C8388E08B835885C2
:1059A0006F8149853B812C8189819A81508347FD94
:1059B000252F3A952083262F39F0441F00C0000080
:1059C0006083000000C0F2CF38E04D91608300009A
:1059D000019761F7F0934808E093470849873B83B4
:1059E0002C8338C09081982B98879081809589234B
:1059F0008F838F818E8388E08D8358856F81498561
:105A00003D812E8189819A81508347FD252F00C0D9
:105A100000C0208300C000C000C000C000C0608380
:105A20000000262F3A9541F0441F000000C000C03E
:105A300000C000C000C0E8CF38E04D9100C06083D6
:105A400000C0019709F7F0934808E0934708498799
:105A50003D832E839A838983789439D46093430855
:105A600070934408809345089093460829960FB692
:105A7000F894DEBF0FBECDBFDF91CF911F910F9184
:105A8000089580919B08E0919C08F0919D08F894FE
:105A90009181982B91832281982F9095292322839D
:105AA000A7E0B0E01197F1F7218192239183A3E25F
:105AB000B0E01197F1F790817894EFECF0E0319736
:105AC000F1F7982381E009F480E0089590919B0814
:105AD000E0919C08F0919D08392F309580FF13C00C
