:100000000C94A4000C94CC000C94CC000C94CC0068
:100010000C94CC000C94CC000C94CC000C94E521F6
:100020000C94CC000C94CC000C94CC000C9440228A
:100030000C94CC000C94CC000C94A5220C94CC0015
:100040000C949B210C94CC000C947C200C94562096
:100050000C94CC000C94CC000C94CC000C94CC00F0
:100060000C94AD1C0C94CC00900192018601880187
:100070008A018C018E0101097809730AC10AF30A09
:100080003D0B310D310D310D720B9A0B9A0B9A0B02
:10009000310D310D310D310D310DF30A3D0B631171
:1000A000661161116311661168116C117D110201F5
:1000B0000000000000240027002A004669726D77C6
:1000C0006172652076657273696F6E3A2000000078
:1000D0000000250028002B0000000000230026005F
:1000E00029000404040404040404020202020202BB
:1000F00003030303030301020408102040800102EC
:1001000004081020010204081020426C75653D00AF
:10011000475245454E3D005245443D00526561649D
:1001200065642066726F6D20454550524F4D00004A
:1001300000000800020100000304070000000000A6
:1001400000000000212C172D11241FBECFEFD8E096
:10015000DEBFCDBF27E0AAEFB3E001C01D92A930FA
:10016000B207E1F713E0A0E0B1E0E2EFF4E602C08D
:1001700005900D92AA3FB107D9F710E0C3EAD0E08D
:1001800004C02197FE010E945230C23AD107C9F73C
:100190000E9473270C946C320C9400008F929F92F3
:1001A000AF92BF92CF92DF92EF92FF920F931F9385
:1001B000CF93DF93CDB7DEB7EC970FB6F894DEBFE1
:1001C0000FBECDBF0E94682120E137E240E050E041
:1001D0000E941130672B682B692B29F480918904C8
:1001E00081110C94F20B1092700410926F04109213
:1001F0006E0410926D0410926C0410926B040091C6
:100200007D0410917E04F8018081882309F42EC1B9
:100210000E946821C0900004D0900104E090020484
:10022000F0900304DC01CB018C199D09AE09BF09D4
:10023000C090FC03D090FD03E090FE03F090FF031C
:10024000C816D906EA06FB0608F010C10E9468210C
:100250006B017C016093000470930104809302049D
:100260009093030410929C0410929B04A8016AE0EE
:100270008A01FA01B0804F5F5F4F80ED8B0D2091B6
:100280009B0430919C048A3080F4629FF001639F4C
:10029000F00D11248B2DBB0C990BC0978E0F9F1F57
:1002A00090939C0480939B04E3CF6091970470919A
:1002B00098048091990490919A042115310529F0B0
:1002C000032E000C440B550B05C020915C0130E05F
:1002D00040E050E00E9433302093FC033093FD0354
:1002E0004093FE035093FF038B2DBB0C990BAA0B7D
:1002F000BB0BFC01E156F109E730F10520F4EC5CA1
:10030000FF4F0C9452301092FB030FC081E00BC0E2
:1003100083E009C085E007C086E005C088E003C02F
:100320008AE001C08CE08093FB03F8018181833275
:1003300019F00F5F1F4F07C08091FB038F5F809301
:10034000FB030E5F1F4FF80180818E3201F5809014
:10035000FC039090FD03A090FE03B090FF03C50145
:10036000B40122E030E040E050E00E943330D5019B
:10037000C401820F931FA41FB51F8093FC039093A9
:10038000FD03A093FE03B093FF030F5F1F4FF8011F
:10039000808180538A3028F48093FA030F5F1F4FC7
:1003A00004C080915B018093FA038091FA03F80105
:1003B00090819C3211F40F5F1F4F2091FB03222389
:1003C00009F454C08090FC039090FD03A090FE03BC
:1003D000B090FF0390E004973CE0389FF001399F14
:1003E000F00D1124E20FF11DEE0FFF1FE558FE4F37
:1003F000B501A401808191810E941C160E94682190
:10040000DC01CB018C199D09AE09BF09881699063C
:10041000AA06BB0658F50E946821609300047093F9
:10042000010480930204909303048091F0048130CE
:1004300051F0823071F0811111C080916E008D7F7A
:1004400080936E000BC080916F008D7F80936F0052
:1004500005C0809170008D7F8093700060E0809176
:10046000EF040E94D72090E080E002C0902F812FFF
:1004700090937D0480937E040E946821009167041C
:10048000109168042091690430916A04DC01CB0169
:10049000801B910BA20BB30B8997A105B10508F442
:1004A000A9C08091F004813039F0823041F081118F
:1004B0000CC080916E0005C080916F0002C08091D9
:1004C00070008695817009F08BC080913001811198
:1004D00003C00E94411E84C080918C04811180C0A1
:1004E0000091060410910704C801880F991F800F1E
:1004F000911FFC01EE0FFF1FE352FE4F208131815F
:100500006AE0629FA001639F500D112420910401B5
:1005100030910501420F531F509305014093040190
:10052000FC01EE0FFF1FE152FE4F20813181629FDF
:10053000F001639FF00D112420915C0430915D0463
:100540002E0F3F1F30935D0420935C04880F991F8A
:10055000FC01EF51FE4F80819181689F6001699F8E
:10056000D00C112480915A0490915B04C80ED91EBE
:10057000D0925B04C0925A04D12CE12CF12CE42AD5
:10058000D22AA12CB12CB701A601C5010E94F517F2
:10059000FFEFAF1ABF0A28E0A216B104A1F70E942C
:1005A00060188091040490910504019690930504CD
:1005B00080930404499751F40F5F1F4F1093070471
:1005C000009306041092050410920404809106041E
:1005D00090910704069724F01092070410920604E5
:1005E0000E94682160936704709368048093690493
:1005F00090936A0480919D0490919E04892B21F030
:10060000809166048111D3C280919F048111CFC271
:1006100080911A0481110DC00E9468216093160414
:1006200070931704809318049093190481E08093C9
:100630001A0480910E0481110DC00E9468216093FC
:100640000A0470930B0480930C0490930D0481E0D2
:1006500080930E040E9468210091160410911704E3
:100660002091180430911904DC01CB01801B910BFF
:10067000A20BB30B00910001109101012091020126
:1006800030910301081719072A073B0708F06FC0CC
:100690000E946821609316047093170480931804D5
:1006A000909319048091080490910904009799F49B
:1006B00081E090E090939E0480939D0488E893E10C
:1006C000A0E0B0E08093000190930101A0930201AB
:1006D000B09303011EC00197E1F484E090E0909391
:1006E0009E0480939D0488E893E1A0E0B0E08093AD
:1006F000000190930101A0930201B0930301809146
:100700007C04811106C082E090E0909309048093FC
:10071000080480910804909109048230910581F4C5
:1007200010929E0410929D0440E65AEE60E070E044
:100730004093000150930101609302017093030103
:100740000196833091052CF490930904809308045A
:1007500004C0109209041092080480916604882352
:1007600021F010929E0410929D04109266040E9443
:1007700068210091160410911704209118043091FB
:100780001904DC01CB01801B910BA20BB30B803D44
:100790009740A105B10508F008C20E9468210091A8
:1007A0000A0410910B0420910C0430910D04DC011B
:1007B000CB01801B910BA20BB30B85369105A105D4
:1007C000B10508F4F4C10E94682160930A04709393
:1007D0000B0480930C0490930D0420917C04809171
:1007E0009D0490919E04222309F410C1892B89F560
:1007F000CE0149960E94192681E020915501309141
:100800005601232B09F480E00E944C11AB01BC017E
:10081000CE0101960E94E011AE01475E5F4FBE011E
:100820006F5F7F4FCE014F960E94C113BE01615E84
:100830007F4F8AEF95E00E94EB0DCE014F960E940C
:10084000B90ECE0101960E94B90ECE0149960E94C2
:10085000B90E80919D0490919E04019709F062C0A9
:100860000E94702468EE73E00E94FD2FBC01CE014F
:100870008B960E94CB250E947A24BC01CE018596DE
:100880000E94CB250E948224BC01CE0149960E9481
:10089000CB25BE01675E7F4FCE014F960E94382068
:1008A000BE016B5D7F4FCE014F960E94D80DBE01F9
:1008B000655D7F4F0E94D80DBC01CE01C1960E949C
:1008C0003820CE0101960E941926AE014F5C5F4F81
:1008D000BE016F5F7F4FCE01C7960E94C113BE015C
:1008E000695C7F4F8AEF95E00E94EB0DCE01C796C1
:1008F0000E94B90ECE0101960E94B90ECE01C1969A
:100900000E94B90ECE014F960E94B90ECE014996B3
:100910000E94B90ECE0185960E94B90ECE018B962B
:100920000E94B90E80919D0490919E04049709F055
:100930003EC181E02091550130915601232B09F4ED
:1009400080E00E944C11AB01BC01CE01C1960E9417
:10095000E0110E94702468EE73E00E94FD2FBC013C
:10096000CE0185960E94CB250E947A24BC01CE013F
:100970004F960E94CB250E948224BC01CE01019695
:100980000E94CB25BE016F5F7F4FCE0149960E942A
:100990003820BE01615E7F4FCE0149960E94D80D7E
:1009A000BE016B5D7F4F0E94D80DBC01CE018B96BE
:1009B0000E943820AE014F5C5F4FBE01655D7F4FE6
:1009C000CE01C7960E94C113BE01695C7F4F8AEFBA
:1009D00095E00E94EB0DCE01C7960E94B90ECE01A4
:1009E0008B960E94B90ECE0149960E94B90ECE0197
:1009F00001960E94B90ECE014F960E94B90ECE010B
:100A000085960E94B90ECE01C196CCC0892B09F003
:100A100062C0CE01C1960E9419260E94702468EE21
:100A200073E00E94FD2FBC01CE0185960E94CB256C
:100A30000E947A24BC01CE014F960E94CB250E94D1
:100A40008224BC01CE0101960E94CB25BE016F5FBE
:100A50007F4FCE0149960E943820BE01615E7F4FD4
:100A6000CE0149960E94D80DBE016B5D7F4F0E945A
:100A7000D80DBC01CE018B960E943820AE014F5C90
:100A80005F4FBE01655D7F4FCE01C7960E94C113C7
:100A9000BE01695C7F4F8AEF95E00E94EB0DCE01AD
:100AA000C7960E94B90ECE018B960E94B90ECE0158
:100AB00049960E94B90ECE0101960E94B90ECE0150
:100AC0004F960E94B90ECE0185960E94B90ECE01B6
:100AD000C1960E94B90E80919D0490919E04019749
:100AE00009F065C00E94702468EE73E00E94FD2F3B
:100AF000BC01CE018B960E94CB250E947A24BC01BA
:100B0000CE0185960E94CB250E948224BC01CE0195
:100B100049960E94CB25BE01675E7F4FCE014F965E
:100B20000E943820BE016B5D7F4FCE014F960E9420
:100B3000D80DBE01655D7F4F0E94D80DBC01CE016E
:100B4000C1960E943820CE0101960E941926AE015E
:100B50004F5C5F4FBE016F5F7F4FCE01C7960E9413
:100B6000C113BE01695C7F4F8AEF95E00E94EB0DD7
:100B7000CE01C7960E94B90ECE0101960E94B90E11
:100B8000CE01C1960E94B90ECE014F960E94B90EB9
:100B9000CE0149960E94B90ECE0185960E94B90EEB
:100BA000CE018B960E94B90E02C01092A6040E943C
:100BB0008A0F81EE95E00E94F71B88EC95E00E9479
:100BC000F71B8FEA95E00E94F71B80919F0481112B
:100BD00003C0109217062DC00E9468210091A00446
:100BE0001091A1042091A2043091A304DC01CB0157
:100BF000801B910BA20BB30B81369A4EA105B10558
:100C0000C0F010929F04E0919D04F0919E04EE0FBD
:100C1000FF1FEF5AFD4F8081918190939E04809336
:100C20009D04880F991FFC01EA5FFE4F808180932D
:100C300017068091E1059091E205181619063CF01F
:100C400080916F0490917004019709F0A5C081E034
:100C50008093660410927E0410927D0444E650E076
:100C600060E070E088EE93E00E941C160E9468210C
:100C70006093A0047093A1048093A2049093A304B2
:100C800080919D0490919E049C012F5F3F4F2530E1
:100C9000310529F030939E0420939D0405C00296EF
:100CA00090939E0480939D0480919D0490919E0456
:100CB000069721F410929E0410929D0420919D04A9
:100CC00030919E048901000F111FF801EA5FFE4F69
:100CD000808180931706D9011197FD01EE0FFF1F48
:100CE000E75DFD4F608171816115710509F445C0B3
:100CF000AB0141505109FA01EE0FFF1FEF5FFD4FAD
:100D00000190F081E02DEA17FB07B9F5623071051B
:100D100009F086C588E1E3E6F1E0DE011196019075
:100D20000D928A95E1F78091490190914A01837073
:100D30009927892B21F48DE190E09C838B8320916E
:100D4000450130914601E0914701F091480131970A
:100D5000EE0FFF1F81E090E08C0F9D1FE80FF91F41
:100D600080819181821793070CF05AC58AE090E048
:100D700090939E0480939D0474C62331310561F0E5
:100D8000295031092230310538F00E94A224F8019F
:100D9000EF5CFE4F918380838091E1059091E205A5
:100DA00097FD07C080916F0490917004019609F03F
:100DB00003C144E650E060E070E088EE93E00E94FA
:100DC0001C1680919F0481114DC00E946821609380
:100DD000A0047093A1048093A2049093A304809133
:100DE0009D0490919E04892BE9F50E948A24BC0100
:100DF000CE0185960E94CB250E949224BC01CE0193
:100E00004F960E94CB250E949A24BC01CE010196E8
:100E10000E94CB25BE016F5F7F4FCE0149960E9495
:100E20003820BE01615E7F4FCE0149960E94D80DE9
:100E3000BE016B5D7F4F0E94D80DBC018AEF95E02B
:100E40000E94A20ECE0149960E94B90ECE010196D3
:100E50000E94B90ECE014F960E94B90ECE01859622
:100E60000E94B90E80919D0490919E04019709F013
:100E70006AC00E94822490934601809345010E949B
:100E80007A2490934801809347010E94702468EE71
:100E900073E00E94FD2FBC0190934A0180934901A9
:100EA0008091430190914401892B89F4CE0185966C
:100EB0000E94CB256091470170914801CE014F9669
:100EC0000E94CB25609145017091460110C0CE0172
:100ED00085960E94CB256091450170914601CE0117
:100EE0004F960E94CB256091470170914801CE0139
:100EF00001960E94CB25BE016F5F7F4FCE014996C0
:100F00000E943820BE01615E7F4FCE0149960E944B
:100F1000D80DBE016B5D7F4F0E94D80DBC018AEFDA
:100F200095E00E94A20ECE0149960E94B90ECE0114
:100F300001960E94B90ECE014F960E94B90ECE01C5
:100F400085960E94B90EE0919D04F0919E04EE0FEB
:100F5000FF1FEF5AFD4F2081318130939E04209373
:100F60009D042D30310549F481E090E090935201C9
:100F70008093510180E88093160690919F0481E050
:100F8000892780939F048901000F111FF801EA5FF0
:100F9000FE4F808180931706A901425151094230CA
:100FA000510550F02930310539F00E94A224F80192
:100FB000EF5CFE4F918380838091C8059091C905B5
:100FC000009739F480916D0490916E04019721F59A
:100FD00007C090936504809364041816190694F76B
:100FE00081E08093660410927E0410927D0444E6B2
:100FF00050E060E070E088EE93E00E941C160E94D2
:10100000361580919F04811107C010928C0460E016
:1010100087E090E00E94DB1D80916404909165045C
:10102000019661F58091CA05882341F11092190655
:1010300080919F04882329F10E9468210091600417
:10104000109161042091620430916304DC01CB01B2
:10105000801B910BA20BB30B87399105A105B1053C
:1010600080F00E9468216093600470936104809313
:101070006204909363040E94361503C081E080935C
:1010800019068091AF059091B005009739F48091D1
:101090006B0490916C040197B1F507C090935F04C5
:1010A00080935E041816190694F711E010936604F5
:1010B00010927E0410927D0444E650E060E070E0FF
:1010C00088EE93E00E941C160E94D61480919F0423
:1010D000811119C010938C0461E087E090E00E94B8
:1010E000DB1D6091040188E090E00E94DB1D6091AF
:1010F0005C0489E090E00E94DB1D60915A048AE064
:1011000090E00E94DB1D80915E0490915F04019647
:1011100061F58091B105882341F110921806809104
:101120009F04882329F10E946821009156041091A0
:1011300057042091580430915904DC01CB01801BE5
:10114000910BA20BB30B87399105A105B10580F076
:101150000E9468216093560470935704809358044A
:10116000909359040E94D61403C081E0809318061E
:1011700080919F04811139C08091C8059091C90563
:1011800097FD06C080916D0490916E04019691F4D4
:1011900044E650E060E070E088EE93E00E941C16A8
:1011A00081E08093300161E080E090E00E94DB1DEF
:1011B0000E94DF1D8091AF059091B00597FD06C09C
:1011C00080916B0490916C04019679F444E650E0B0
:1011D00060E070E088EE93E00E941C1610923001EF
:1011E00060E080E090E00E94DB1DE0919D04F091C2
:1011F0009E04E431F10508F034C4E55CFF4F0C9423
:1012000052308091A604811135C00E94682100915E
:101210002204109123042091240430912504DC0140
:10122000CB01801B910BA20BB30B893E9340A10510
:10123000B10578F00E946821609322047093230422
:101240008093240490932504CE0101960E941926D0
:1012500006C06AEF75E0CE0101960E943820BE01FB
:101260006F5F7F4F8AEF95E00E94EB0DCE010196F4
:101270000E94B90E80912B0481110DC00E9468213B
:1012800060932704709328048093290490932A0480
:1012900081E080932B040E94682100912704109123
:1012A00028042091290430912A04DC01CB01801B01
:1012B000910BA20BB30B893E9340A105B10508F435
:1012C0000BC10E94682160932704709328048093C7
:1012D000290490932A049091260481E08927809321
:1012E0002604882311F080ECF5C010921606F4C095
:1012F0008091A6048111EDC080914E04811113C02C
:101300000E946821DC01CB0187519C4FAF4FBF4F3A
:1013100080934A0490934B04A0934C04B0934D04E3
:1013200081E080934E0480914204811144C00E9468
:10133000702468EE73E00E94FD2FBC01CE0101967F
:101340000E94CB250E947A24BC01CE0149960E94BE
:10135000CB250E948224BC01CE0185960E94CB251C
:10136000BE016B5D7F4FCE014F960E943820BE01BB
:10137000675E7F4FCE014F960E94D80DBE016F5F12
:101380007F4F0E94D80DBC018CE394E00E9438206E
:1013900081E080934204CE014F960E94B90ECE01A7
:1013A00085960E94B90ECE0149960E94B90ECE01D3
:1013B00001960E94B90E80913404811107C080917A
:1013C00043018093330481E0809334040E946821B8
:1013D00000914A0410914B0420914C0430914D042B
:1013E000DC01CB01801B910BA20BB30B893E934018
:1013F000A105B10558F48091330490E02091430198
:10140000309144018217930709F452C00E94682169
:1014100060934A0470934B0480934C0490934D0462
:101420008091430190914401892B09F005C30E94EA
:10143000702468EE73E00E94FD2FBC01CE0101967E
:101440000E94CB250E947A24BC01CE0149960E94BD
:10145000CB250E948224BC01CE0185960E94CB251B
:10146000BE016B5D7F4FCE014F960E943820BE01BA
:10147000675E7F4FCE014F960E94D80DBE016F5F11
:101480007F4F0E94D80DBC018CE394E00E94A20E15
:10149000CE014F960E94B90ECE0185960E94B90EDC
:1014A000CE0149960E94B90ECE0101960E94B90E56
:1014B0006CE374E0CE0101960E943820BE016F5F9C
:1014C0007F4F8AEF95E00E94EB0DCE0101960E94BE
:1014D000B90E80E4809316060E9479141092A50438
:1014E0001092A404BEC260914F0170915001CE01D0
:1014F00085960E94CB2560914D0170914E01CE01E1
:101500004F960E94CB2560914B0170914C01CE010A
:1015100001960E94CB25BE016F5F7F4FCE01499699
:101520000E943820BE01615E7F4FCE0149960E9425
:10153000D80DBE016B5D7F4F0E94D80DBC018AEFB4
:1015400095E00E94A20ECE0149960E94B90ECE01EE
:1015500001960E94B90ECE014F960E94B90ECE019F
:1015600085960E94B90E1092A5041092A404809151
:10157000510190915201019789F580E880931606F8
:101580002FC060915301709154014AE0CE014996F9
:101590000E94BE0E6AE373E0CE0101960E944120D4
:1015A000BE01675E7F4FCE0101960E94D80D6AE3AF
:1015B00073E00E94BF0DBC018AEF95E00E94A20E6D
:1015C000CE0101960E94B90ECE0149960E94B90E35
:1015D00083E390E09093A5048093A40410921606F0
:1015E0000E9479143EC28091A604811142C081E01C
:1015F0002091550130915601232B09F480E00E947F
:101600004C116B017C01AB01BC01CE0101960E9423
:10161000E011BE016F5F7F4F8AEF95E00E94EB0DF6
:10162000CE0101960E94B90E80915501909156010C
:10163000892B51F481E390E09093A5048093A40456
:1016400080E48093160608C083E290E09093A5049E
:101650008093A4041092160620E030E0A901C7018F
:10166000B6010E94AA2D87FF04C0809116068068EB
:1016700036C0809116068F7732C060915701709105
:101680005801CE0101960E94CB25BE016F5F7F4FAE
:10169000CE0149960E94382068E373E0CE01499656
:1016A0000E94BF0DBC018AEF95E00E94A20ECE0100
:1016B00049960E94B90ECE0101960E94B90E8FE0A4
:1016C00090E09093A5048093A40480915701909199
:1016D000580197FD03C010921606C3C180E880939D
:1016E0001606BFC18091430190914401892B79F482
:1016F0006DE073E08AEF95E00E94450E83E090E094
:1017000090931B0180931A018CE090E00EC064E17D
:1017100073E08AEF95E00E94450E8CE090E0909394
:101720001B0180931A0183E090E090931D01809348
:101730001C0197C18091430190914401609149013E
:1017400070914A01892B89F4CE0185960E94CB25A0
:101750006091470170914801CE014F960E94CB25C0
:10176000609145017091460110C0CE0185960E949E
:10177000CB256091450170914601CE014F960E94A4
:10178000CB256091470170914801CE0101960E94DE
:10179000CB25BE016F5F7F4FCE0149960E94382056
:1017A000BE01615E7F4FCE0149960E94D80DBE01F9
:1017B0006B5D7F4F0E94D80DBC018AEF95E00E94BF
:1017C000A20ECE0149960E94B90ECE0101960E944A
:1017D000B90ECE014F960E94B90ECE0185960E9499
:1017E000B90E3FC10E94F824E0908704F09088046D
:1017F0000091850410918604209183043091840423
:1018000040918A0450918B0460918104709182040C
:1018100080917F04909180040E940A230C94F3002D
:1018200010929F0450939E0440939D04452BB9F45D
:101830000E9470247C010E947A248C010E948224E0
:101840009C01409141015091420160913F01709192
:10185000400180913D0190913E010E940A238091B8
:101860009D0490919E04019719F5E0904901F09034
:101870004A0190E3E91A98EFF90A009147011091A3
:10188000480180904501909046010E948A245C01A5
:101890000E9492246C010E949A249401A501B60131
:1018A0000E940A23609143018DE090E00E94DB1DBD
:1018B00080919D0490919E040297C1F460914B0128
:1018C00082E090E00E94DB1D60914D0183E090E09A
:1018D0000E94DB1D60914F0184E090E00E94DB1DBF
:1018E0006091510186E090E00E94DB1D80919D0493
:1018F00090919E04039731F46091530181E090E050
:101900000E94DB1D80919D0490919E04049731F408
:10191000609155018BE090E00E94DB1D80919D0459
:1019200090919E04059739F460915701645F8CE0B3
:1019300090E00E94DB1D0E94702468EE73E00E941C
:10194000FD2F082F0E947A24F82E0E948224E82E70
:101950000E948A24B82E0E949224C82E0E949A24A3
:10196000D82E81E08093E10688E6809303071092E9
:10197000E2061092040760E08EE895E00E94D11A1A
:101980001AE08B2D612F0E94DD2F692FE0E18E9FE1
:10199000600D11248EE895E00E94D11A8C2D612FE4
:1019A0000E94DD2F692FF0E18F9F600D11248EE8DA
:1019B00095E00E94D11A8D2D612F0E94DD2F692F95
:1019C00020E1829F600D11248EE895E00E94D11ADB
:1019D00061E08EE895E00E94D11A8E2D612F0E9461
:1019E000DD2F692FE0E18E9F600D11248EE895E0D8
:1019F0000E94D11A8F2D612F0E94DD2F692FF0E1F7
:101A00008F9F600D11248EE895E00E94D11A802FDF
:101A1000612F0E94DD2F692F20E1829F600D11242C
:101A20008EE895E00E94D11A60E08EE895E00E9471
:101A3000D11A0E94162715C00E94702468EE73E028
:101A40000E94FD2FBC01CE0101960E94CB250E9471
:101A50008224BC01CE0149960E94CB250E947A24A3
:101A6000FACCEC960FB6F894DEBF0FBECDBFDF9177
:101A7000CF911F910F91FF90EF90DF90CF90BF908B
:101A8000AF909F908F9008958EBD00000DB407FE1B
:101A9000FDCF8EB508950E945732CF93DF93EC01AE
:101AA00088819981009711F00E94F530198218827F
:101AB0001D821C821B821A82DF91CF9108950F93A1
:101AC0001F93CF93DF93EC0188819981009729F0D0
:101AD0002A813B812617370788F48B016F5F7F4F80
:101AE0000E948D31009761F0998388831B830A835C
:101AF0002C813D81232B11F4FC01108281E001C077
:101B000080E0DF91CF911F910F910895FC018081BA
:101B10009181009711F00C942E2D60E070E0CB01C4
:101B20000895EF92FF920F931F93CF93DF93FC01E1
:101B3000248135816115710511F480E019C04115CA
:101B40005105A9F07B01EC018A01020F131FB801B6
:101B50000E945F0D882389F3288139818C819D81C2
:101B6000B701820F931F0E9465321D830C8381E0B1
:101B7000DF91CF911F910F91FF90EF900895CF9338
:101B8000DF93EC016115710561F0FB01019000200C
:101B9000E9F73197AF01461B570B0E94910D811158
:101BA00003C0CE010E944D0DCE01DF91CF9108956B
:101BB000CF93DF93EC01FB014481558160817181FA
:101BC0000E94910D811103C0CE010E944D0DCE01E6
:101BD000DF91CF9108950F931F93CF93DF938C01E3
:101BE000EB01FC01808191810097B1F068817981DE
:101BF0006115710579F0428153812C813D81421735
:101C0000530740F00E9465328C819D81F8019583D5
:101C1000848313C00E94F53088819981F8019183F3
:101C200080838A819B81938382838C819D8195832C
:101C30008483198218821B821A821D821C82DF9182
:101C4000CF911F910F910895EF92FF920F931F93E1
:101C5000CF93DF93EC017B018A01BA010E945F0DF3
:101C6000811104C0CE010E944D0D07C01D830C835D
:101C7000B701888199810E946532CE01DF91CF91B1
:101C80001F910F91FF90EF900895CF93DF93EC0198
:101C90006115710559F0FB0101900020E9F73197BA
:101CA000AF01461B570B0E94240E02C00E944D0D2F
:101CB000CE01DF91CF910895BF92CF92DF92EF9244
:101CC000FF920F931F93CF93DF937C016B018A01E7
:101CD000E9012417350720F4812F8901C42FD82F5B
:101CE0006FE173E0C7010E944120D60114968D91E7
:101CF0009C91159708171907D0F48C179D0708F4C5
:101D0000EC01D601ED91FC911197EC0FFD1FB08015
:101D100010824D915C91BA01600F711FC7010E9442
:101D2000450ED601ED91FC91EC0FFD1FB082C7016D
:101D3000DF91CF911F910F91FF90EF90DF90CF90A7
:101D4000BF900895CF93DF93EC01FB0186179707AF
:101D500061F0608171816115710529F044815581BF
:101D60000E94240E02C00E944D0DCE01DF91CF9142
:101D70000895FC01808191810C94F5300F931F939D
:101D8000CF93DF93CDB7DEB762970FB6F894DEBF7F
:101D90000FBECDBF8C01CB01F801118210821382DE
:101DA00012821582148250E0BE016F5F7F4F0E9445
:101DB000552DBE016F5F7F4FC8010E94450E629690
:101DC0000FB6F894DEBF0FBECDBFDF91CF911F914C
:101DD0000F9108950F931F93CF93DF93CDB7DEB785
:101DE00068970FB6F894DEBF0FBECDBF8B0183306E
:101DF00091F42091FE053091FF0542E050E06AEF3A
:101E000075E0CE010D960E945C0EB801CE010196E0
:101E10000E94CB2555C08C3009F042C02091FE05B0
:101E20003091FF0544E050E06AEF75E0CE01439643
:101E30000E945C0EB801CE010D960E94CB2522E0D7
:101E400030E040E050E06AEF75E0CE0101960E947C
:101E50005C0EBE016F5F7F4FCE0107960E94382057
:101E6000BE01635F7F4FCE0107960E94D80DBE0171
:101E70006D5E7F4F0E94D80DBC018AEF95E00E94F5
:101E8000A20ECE0107960E94B90ECE0101960E94C5
:101E9000B90ECE010D960E94B90ECE0143962DC00B
:101EA000803369F5CE010D960E94CB2524E030E009
:101EB00040E050E06AEF75E0CE0101960E945C0EB2
:101EC000BE016F5F7F4FCE0107960E943820BE0192
:101ED000635F7F4FCE0107960E94D80DBC018AEF49
:101EE00095E00E94A20ECE0107960E94B90ECE0187
:101EF00001960E94B90ECE010D960E94B90E689609
:101F00000FB6F894DEBF0FBECDBFDF91CF911F910A
:101F10000F9108952F923F924F925F926F927F920E
:101F20008F929F92AF92BF92CF92DF92EF92FF92E9
:101F30000F931F93CF93DF93CDB7DEB728970FB6DC
:101F4000F894DEBF0FBECDBF0E9443216093DF0433
:101F50007093E0048093E1049093E2040091DB0429
:101F60001091DC042091DD043091DE046B017C01D2
:101F7000C01AD10AE20AF30A40EDC41647E0D406BB
:101F8000E104F10408F46FC16093DB047093DC0496
:101F90008093DD049093DE048AEF95E00E94860D25
:101FA0006B017C0160E08AE00E94D7208AE0882EE5
:101FB000912CA12CB12CC701B601A50194010E945E
:101FC0003330660F771FFB01E753FD4FC080D18090
:101FD000DA82C98285E090E02B833C834D835E8367
:101FE0000E94801E98878F830E94531E7C012B8144
:101FF0003C814D815E81CA01B901A50194010E9415
:102000003330660F771FFB01E753FD4F608071800F
:1020100084E090E02B833C834D835E830E94801E8E
:102020008C010E94531E6C012B813C814D815E818D
:10203000CA01B901A50194010E94333019012A0196
:10204000660F771FFB01E753FD4F8080918083E08F
:1020500090E00E94801E5C010E94531E0C211D21F5
:102060000621172120E030E0AAE0000F111F221FF7
:10207000331FAA95D1F78A219B21AC014821592110
:1020800060E070E048015901842A952AA62AB72AFF
:10209000CF80D884EC20FD20C980DA80EC20FD20A0
:1020A000A70160E070E0B4E1440F551F661F771F81
:1020B000BA95D1F7842A952AA62AB72A80911506BF
:1020C000882319F06894B6F802C0E894B6F88091B5
:1020D0001406882319F06894B7F802C0E894B7F89A
:1020E0008B2D0E94440D8A2D0E94440D892D0E9443
:1020F000440D882D0E94440D8AE0C82ED12CE12C7D
:10210000F12CC201B101A70196010E943330660F84
:10211000771FFB01E753FD4F4080518082E090E044
:102120002B833C834D835E830E94801E5C010E9452
:10213000531E8C012B813C814D815E81CA01B90106
:10214000A70196010E943330660F771FFB01E7530A
:10215000FD4F6080718081E090E02B833C834D8354
:102160005E830E94801E4C010E94531E1501202296
:10217000312224203520412C512CF4E1220C331C37
:10218000441C551CFA95D1F7882199218621972165
:10219000A0E0B0E01AE0880F991FAA1FBB1F1A9594
:1021A000D1F752014101882A992AAA2ABB2A2B81F8
:1021B0003C814D815E81CA01B901A70196010E944F
:1021C0003330660F771FFB01E753FD4FE080F1804E
:1021D00080E090E00E94801E8C010E94531E8023AC
:1021E00091238E219F21A0E0B0E0882A992AAA2A73
:1021F000BB2A80911506882319F06894B6F802C0AE
:10220000E894B6F880911406882319F06894B7F81A
:1022100002C0E894B7F88B2D0E94440D8A2D0E94CD
:10222000440D892D0E94440D882D0E94440D61E0CB
:102230008AE028960FB6F894DEBF0FBECDBFDF91BF
:10224000CF911F910F91FF90EF90DF90CF90BF90B3
:10225000AF909F908F907F906F905F904F903F9046
:102260002F900C94D72028960FB6F894DEBF0FBE9F
:10227000CDBFDF91CF911F910F91FF90EF90DF9035
:10228000CF90BF90AF909F908F907F906F905F9016
:102290004F903F902F900895DF92EF92FF920F930F
:1022A0001F93CF93DF93C091D904D091DA04C83043
:1022B000D10508F068C0082FFE01E15BFF4F0C94C8
:1022C000523084E406C00E94A1195DC08CEC01C0AC
:1022D0008EEB0E94771957C028E0E22EF12C01E026
:1022E00010E00E9420198111102B000F81E0E81AE4
:1022F000F108B9F71093D70446C098E0E92EF12C05
:10230000DD24D39410E00E94201981111D29DD0CD9
:1023100081E0E81AF108B9F71093D804612F70E052
:10232000762F66278091D704682B6F3F8FEF780751
:1023300011F460E070E0072E000C880B990B0E94EE
:10234000B12D20E030E040E85DE30E94102E002334
:1023500061F026E636E646EE5FE30E94102E20E0AE
:1023600030E040E052E40E94362F20E030E040E2CE
:1023700051E40E94102E6093D3047093D404809390
:10238000D5049093D6042196C830D10529F0D09376
:10239000DA04C093D90404C01092DA041092D9046C
:1023A0006091D3047091D4048091D5049091D604A7
:1023B000DF91CF911F910F91FF90EF90DF900895E3
:1023C0008F929F92AF92BF92CF92DF92EF92FF9245
:1023D0000F931F93CF93DF93CDB7DEB72C970FB634
:1023E000F894DEBF0FBECDBF8C016A017B018091E6
:1023F000CB04811113C00E946821DC01CB01845BF6
:102400009B4FAF4FBF4F8093C7049093C804A093D6
:10241000C904B093CA0481E08093CB048091BF04C7
:10242000811109C066E373E089EB94E00E944120CA
:1024300081E08093BF040E9468218090C70490903F
:10244000C804A090C904B090CA04DC01CB0188196B
:102450009909AA09BB09893E9340A105B10508F471
:1024600077C10E9468216093C7047093C804809369
:10247000C9049093CA0420E030E0A901C701B60165
:102480000E94D82F20E030E040E05FE387FD05C0E8
:10249000C701B6010E94362F04C0C701B6010E94D1
:1024A000352F0E94A22F80915501909156019B01DA
:1024B00029513C4F49012458334059012A553109CB
:1024C00069017B01892B09F095C077FF03C0F19466
:1024D000E194F1084AE0B701CE0107960E94BE0ED2
:1024E0006BE373E0CE0101960E944120BE01695F5B
:1024F0007F4FCE0101960E94D80D6BE373E00E94DE
:10250000BF0DBC0189EB94E00E94A20ECE010196A2
:102510000E94B90ECE0107960E94B90E3FEC8316B9
:1025200037E0930620F54AE0B701CE0107960E94F6
:10253000BE0E6AE373E0CE0101960E944120BE0107
:10254000695F7F4FCE0101960E94D80D6BE373E067
:102550000E94BF0DBC0189EB94E00E94A20ECE0147
:1025600001960E94B90ECE0107960E94B90E87EC23
:10257000A816B10420F54AE0B701CE0107960E94E3
:10258000BE0E69E373E0CE0101960E944120BE01B8
:10259000695F7F4FCE0101960E94D80D6BE373E017
:1025A0000E94BF0DBC0189EB94E00E94A20ECE01F7
:1025B00001960E94B90ECE0107960E94B90E23E142
:1025C000C216D10408F0C4C04AE0B701CE01079694
:1025D0000E94BE0E68E373E0CE0101960E94412086
:1025E000BE01695F7F4FCE0101960E94D80D6BE35B
:1025F00073E09FC077FF03C0F194E194F1084AE0D3
:10260000B701CE0107960E94BE0E6BE373E0CE01C8
:1026100001960E944120BE01695F7F4FCE01019665
:102620000E94D80D6BE373E00E94BF0DBC0189EBE3
:1026300094E00E94A20ECE0101960E94B90ECE0136
:1026400007960E94B90E3FEC831637E0930640F5DB
:10265000C7016AE070E00E94FD2F4AE0CE010796B4
:102660000E94BE0E6AE373E0CE0101960E944120F3
:10267000BE01695F7F4FCE0101960E94D80D6AE3CB
:1026800073E00E94BF0DBC0189EB94E00E94A20E92
:10269000CE0101960E94B90ECE0107960E94B90E96
:1026A00087ECA816B10440F5C7016AE070E00E940B
:1026B000FD2F4AE0CE0107960E94BE0E69E373E04B
:1026C000CE0101960E944120BE01695F7F4FCE017D
:1026D00001960E94D80D6AE373E00E94BF0DBC0111
:1026E00089EB94E00E94A20ECE0101960E94B90EE1
:1026F000CE0107960E94B90E23E1C216D10440F51F
:10270000C7016AE070E00E94FD2F4AE0CE01079603
:102710000E94BE0E68E373E0CE0101960E94412044
:10272000BE01695F7F4FCE0101960E94D80D6AE31A
:1027300073E00E94BF0DBC0189EB94E00E94A20EE1
:10274000CE0101960E94B90ECE0107960E94B90EE5
:1027500069EB74E0C8010E943820C8012C960FB6BE
:10276000F894DEBF0FBECDBFDF91CF911F910F91C7
:10277000FF90EF90DF90CF90BF90AF909F908F90A1
:1027800008954F925F926F927F928F929F92AF9235
:10279000BF92CF92DF92EF92FF920F931F93CF934E
:1027A000DF9300D000D000D0CDB7DEB77C014B0165
:1027B0005A018091A604882341F08091AC0403EB78
:1027C00014E0ADEAB4E0F8014CC081E08093A604C7
:1027D0001092A5041092A40483EB682E84E0782E56
:1027E0009DEA492E94E0592E00E010E00F5F1F4F44
:1027F000680181E0C81AD1089801A601B401CE0190
:1028000001960E945C0ECE0101960E94860DF30196
:1028100061933F01CE0101960E94B90E9801A60175
:10282000B501CE0101960E945C0ECE0101960E9478
:10283000860DF20161932F01CE0101960E94B90E1F
:102840000630110599F6B9CF2C9192130DC09081E5
:102850009A3009F410823196119694E0E93BF90719
:1028600031F090818A3080F79F5F9083F0CF8F5F47
:10287000843119F08093AC0404C01092AC0410921F
:10288000A6046FE173E0C7010E944120FE0131966A
:102890006F01F80181918F014AE0B60190E00E943A
:1028A000602DF60101900020E9F73197AF014C1936
:1028B0005D09B601C7010E94910DF4E0093B1F07B5
:1028C00041F7C70126960FB6F894DEBF0FBECDBF05
:1028D000DF91CF911F910F91FF90EF90DF90CF90FC
:1028E000BF90AF909F908F907F906F905F904F9030
:1028F00008950F931F938091510190915201892B5C
:1029000009F451C08091AB048823A9F00E9468218A
:102910000091A7041091A8042091A9043091AA0461
:10292000DC01CB01801B910BA20BB30B893E9340C2
:10293000A105B105A8F58091AB04811134C00E94B6
:102940009A2420914B0130914C018217930759F53D
:102950000E94922420914D0130914E0182179307DD
:1029600011F50E948A2420914F0130915001821765
:102970009307C9F40E9468216093A7047093A80488
:102980008093A9049093AA0481E08093AB04809182
:102990002E0190912F0190937E0480937D0403C0BB
:1029A0001092AB04C8CF1F910F9108950E94682127
:1029B0006093A0047093A1048093A2049093A30455
:1029C00080919F04882309F450C020919D04309188
:1029D0009E04C901880F991F2131310551F0FC0176
:1029E000EF5CFE4F4081518141505109518340833A
:1029F0000AC040915301509154014C5051095093D9
:102A0000540140935301DC01AF5CBE4F6D917C914A
:102A10001197FC01E758FD4F4081518164177507FC
:102A20003CF4FC01EF55FD4F408151814D935C9387
:102A30002031310571F42091510130915201213042
:102A4000310521F420E82093160606C010921606E0
:102A500003C02930310549F0FC01EF5CFE4F608175
:102A60007181809117060C94EA0E08950E946821E6
:102A70006093A0047093A1048093A2049093A30494
:102A800080919F04882309F445C020919D043091D2
:102A90009E04C901880F991F2131310551F0FC01B5
:102AA000EF5CFE4F408151814F5F5F4F5183408308
:102AB0000AC04091530150915401445F5F4F5093BD
:102AC000540140935301DC01AF5CBE4F6D917C918A
:102AD0001197FC01EF55FD4F408151814617570773
:102AE0003CF4FC01E758FD4F408151814D935C93CC
:102AF0002031310519F41092160603C02930310532
:102B000049F0FC01EF5CFE4F6081718180911706F6
:102B10000C94EA0E0895CF93DF93EC01019628817F
:102B20002A33D9F78981843639F510929C041092A2
:102B30009B0423964AE0FE018881219690ED980F30
:102B400020919B0430919C049A3080F4429FB00104
:102B5000439F700D1124082E000C990BC097860F0F
:102B6000971F90939C0480939B04E5CF1216130645
:102B700014F420935C01EF01219688818F3689F44B
:102B80008A81082E000C990B9C0120533109309347
:102B90009C0420939B04C397059710F420935B013A
:102BA00024968881823629F510929C0410929B0409
:102BB000FE0132964AE0819190ED980F20919B049E
:102BC00030919C049A3080F4429FB001439F700D75
:102BD0001124082E000C990BC097860F971F909315
:102BE0009C0480939B04E7CF30935A0120935901B2
:102BF000EF012091590130915A01032E000C440B32
:102C0000550B60E67AEE80E090E00E943330DA0106
:102C1000C90122E0880F991FAA1FBB1F2A95D1F76F
:102C20008093970490939804A0939904B0939A0486
:102C3000CE01DF91CF9108953F924F925F926F92B4
:102C40007F928F929F92AF92BF92CF92DF92EF923C
:102C5000FF920F931F93CF93DF9300D000D0CDB797
:102C6000DEB72091F00427FDAAC149835A836B8304
:102C70007C838C0161E08091EF040E9407213090F9
:102C8000F004832D8D7F4801A12CB12C09F0B7C031
:102C900060E072E18AE790E0A50194010E94333080
:102CA00029013A0169017A0121E0C21AD108E1083B
:102CB000F1088FEFC816D104E104F10409F008F41B
:102CC0004CC060E472E48FE090E0A50194010E94A2
:102CD000333069017A0191E0C91AD108E108F1089D
:102CE000A2E03A1220C0BFEFCB16D104E104F104F8
:102CF00009F008F462C160E970ED83E090E0A5019D
:102D000094010E94333069017A01E1E0CE1AD108C2
:102D1000E108F108FFEFCF16D104E104F10409F056
:102D2000C0F583E065C02FEFC216D104E104F104C1
:102D3000B1F0A8F068E478EE81E090E0A50194019C
:102D40000E94333069017A0181E0C81AD108E10894
:102D5000F108332009F4D9C027C181E001C082E025
:102D6000332091F045C0D301C2012AE0B595A79563
:102D7000979587952A95D1F76C017D01E1E0CE1AF0
:102D8000D108E108F10885E095B5987F892B85BDCC
:102D900066C068E478EE81E090E0A50194010E94AD
:102DA000333069017A01B1E0CB1AD108E108F108AA
:102DB000EFEFCE16D104E104F10409F008F4A3C04A
:102DC00064E274EF80E090E0A50194010E9433304A
:102DD00069017A0191E0C91AD108E108F108AFEF61
:102DE000CA16D104E104F10411F008F0B0C085E086
:102DF0009091B100987F892B8093B10030C060E042
:102E000072E18AE790E0A50194010E9433306901E4
:102E10007A01F1E0CF1AD108E108F108C114D10418
:102E200021E0E206F10488F068E478EE81E090E0C9
:102E3000A50194010E94333069017A0181E0C81A2A
:102E4000D108E108F10893E001C091E0A1E03A1255
:102E500006C080918100887F892B809381008981C1
:102E60009A81AB81BC81892B8A2B8B2B81F0D80175
:102E7000AA0FBB1F29813A814B815C810E94E42EFD
:102E800028EE33E040E050E00E94113003C02FEF05
:102E90003FEFA90191E03916A1F0A2E03A1619F12D
:102EA00031108DC0C7BC2093EB043093EC044093E9
:102EB000ED045093EE0480916E00826080936E006A
:102EC0007EC0D0928900C09288002093E70430939E
:102ED000E8044093E9045093EA0480916F00826013
:102EE00080936F006CC0C092B3002093E3043093D2
:102EF000E4044093E5045093E604809170008260FE
:102F0000809370005CC084E073CF8FEFC816D1044B
:102F1000E104F104D1F0C8F062E17AE780E090E0EA
:102F2000A50194010E94333069017A01F1E0CF1AC2
:102F3000D108E108F1082FEFC216D104E104F10431
:102F400011F008F010CF84E01FCF83E01DCF62E1C5
:102F50007AE780E090E0A50194010E943330690196
:102F60007A0191E0C91AD108E108F108AFEFCA1659
:102F7000D104E104F104B1F0A8F0D301C2014AE0A8
:102F8000B595A795979587954A95D1F76C017D01E1
:102F9000E1E0CE1AD108E108F108332009F4F3CEBC
:102FA00087E026CF86E0DCCEBFEFCB16D104E1046C
:102FB000F10409F060F684E0D3CE82E019CF0F90DF
:102FC0000F900F900F90DF91CF911F910F91FF9075
:102FD000EF90DF90CF90BF90AF909F908F907F90B9
:102FE0006F905F904F903F9008958F929F92AF9215
:102FF000BF92CF92DF92EF92FF9220919C05309189
:103000009D058217930708F052C04B01AA24BB24E8
:10301000E82DC52ED62EE72EFF24FC2D342F20912F
:10302000A105222361F0829E40011124E92DC29E58
:1030300060011124FD2D429FD00111243B2FF090FF
:10304000A705E090A405A091A205B091A305FE10EC
:1030500008C0AC01440F551F840F951F8A0F9B1F9A
:1030600014C0880F991F880F991F8A0F9B1F472F25
:10307000552766277727DC01AF0DB11D222321F0EC
:10308000429FA0011124452F4C932091A405DC01FF
:10309000A20FB11DEC932091A505DC01A20FB11D7B
:1030A000FC932091A605FC01E20FF11D3083FF90F7
:1030B000EF90DF90CF90BF90AF909F908F9008954A
:1030C0000F931F93CF93DF93CDB7DEB729970FB63A
:1030D000F894DEBF0FBECDBF8091A2059091A305ED
:1030E000892B09F4A2C00E9443210091A8051091E8
:1030F000A9052091AA053091AB05DC01CB01801B0D
:10310000910BA20BB30B8C329140A105B10558F382
:10311000F89480919E0590919F059A838983E09110
:10312000A205F091A305DF01119680818987909116
:103130009A05E091AC05F091AD058091AE0599231B
:1031400009F42EC09081982B9887908180958923CF
:103150008F838F818C8388E08B8358856F8149852D
:103160003B812C8189819A81508347FD252F3A9597
:103170002083262F39F0441F00C000006083000028
:1031800000C0F2CF38E04D9160830000019761F7F5
:10319000F093AD05E093AC0549873B832C8338C0A1
:1031A0009081982B98879081809589238F838F8138
:1031B0008E8388E08D8358856F8149853D812E817E
:1031C00089819A81508347FD252F00C000C020834C
:1031D00000C000C000C000C000C060830000262FF7
:1031E0003A9541F0441F000000C000C000C000C07C
:1031F00000C0E8CF38E04D9100C0608300C0019767
:1032000009F7F093AD05E093AC0549873D832E8324
:103210009A83898378940E9443216093A8057093D0
:10322000A9058093AA059093AB0529960FB6F8944B
:10323000DEBF0FBECDBFDF91CF911F910F910895DB
:1032400080910006E0910106F0910206F8949181C8
:10325000982B91832281982F909529232283A7E090
:10326000B0E01197F1F7218192239183A3E2B0E0BE
:103270001197F1F790817894EFECF0E03197F1F746
:10328000982381E009F480E0089590910006E09190
:103290000106F0910206392F309580FF13C0F89493
:1032A0002281832F822382838181892B8183A3E2E0
:1032B000B0E01197F1F78281982B9283789487ED93
:1032C00090E012C0F8942281832F8223828381812F
:1032D000892B8183AFEFB0E01197F1F78281982BB2
:1032E000928378948FE090E00197F1F708950F931F
:1032F0001F93CF93DF93082FC8E0D0E011E081E067
:10330000912F902309F480E00E944519110F219715
:10331000B1F7F894E0910106F09102069181809155
:103320000006809598239183E0910106F0910206B2
:103330009281892382837894DF91CF911F910F919D
:10334000089590910006E0910106F0910206F8942C
:103350008181292F20958223818378948DE743E012
:1033600050E0815021F1DA011197F1F730813923D2
:10337000C1F3F8948281822382838181892B8183A6
:103380007894ABE7B7E01197F1F7F894818128239F
:103390002183A3E1B1E01197F1F78081982381E0C7
:1033A00009F080E07894E3E6F6E03197F1F70895CC
:1033B0008F929F92AF92BF92CF92DF92EF92FF9245
:1033C0000E9443214B015C0188EEC82E83E0D82E79
:1033D000E12CF12C0E944321DC01CB0188199909D1
:1033E000AA09BB09883E9340A105B10558F021E028
:1033F000C21AD108E108F10888EE880E83E0981E11
:10340000A11CB11CC114D104E104F10419F7FF900F
:10341000EF90DF90CF90BF90AF909F908F900895E6
:10342000009769F0FC0101900020E9F73197AF01A6
:10343000481B590BBC0181EF94E00C94091F80E0FC
:1034400090E008950F931F93CF93DF938C01C0E01A
:10345000D0E0F801EC0FFD1F6491662371F0E0915C
:10346000F104F091F2040190F081E02D81EF94E0FD
:103470000995892B11F02196ECCFCE01DF91CF91E8
:103480001F910F91089585ED8093BC008091BC0041
:1034900084FDFCCF1092E006089540916F06262F20
:1034A00030E0240F311D21323105DCF42091E0069B
:1034B0002430C9F4FC0180E090E0861758F4309184
:1034C0006F062191DC01A35BB94FA30FB11D2C93B3
:1034D0000196F3CF80916F06680F60936F0680E0CE
:1034E000089581E0089582E008950895E0917204BE
:1034F00080917104E81730F4F0E0E65EF94F8081C6
:1035000090E008958FEF9FEF08959091720480915D
:103510007104981750F4E92FF0E0E65EF94F20812E
:1035200030E09F5F9093720402C02FEF3FEFC9011C
:1035300008958091710490E020917204821B91099A
:103540000895CF92DF92EF92FF920F931F93CF9344
:10355000DF937C01262F972F8A018091E106882333
:1035600091F0C62FD72F6E01C40ED51ECC15DD05E8
:1035700071F06991D701ED91FC910190F081E02DFE
:10358000C7010995F3CF642F822F0E944D1AC801FD
:10359000DF91CF911F910F91FF90EF90DF90CF902F
:1035A0000895CF93DF931F92CDB7DEB76983209143
:1035B000E1062223D1F020910407203240F021E0DF
:1035C00030E0FC013383228380E090E015C08091DD
:1035D000E206E82FF0E0ED51F94F998190838F5F7B
:1035E0008093E2068093040705C061E0CE01019656
:1035F0000E944D1A81E090E00F90DF91CF910895E5
:10360000089580E090E008954F925F926F927F92CC
:103610008F929F92AF92BF92CF92DF92EF92FF92E2
:103620000F931F93CF93DF934B015C01809194061E
:1036300090919506A0919606B091970688169906E6
:10364000AA06BB0609F4C2C08CE3C82ED12CE12C1B
:10365000F12CC501B401A70196010E9411306093BD
:103660009806CA01B901A70196010E941130609322
:103670009906CA01B90128E130E040E050E00E941B
:10368000113069017A0160939A06CA01B9016C5F31
:103690007F4F8F4F9F4F27E030E040E050E00E9487
:1036A00011306F5F60939B06412C512C320140E03A
:1036B00004E610E0C0E9D1E0242F30E02E54384F6A
:1036C000F901E370FF27309789F4C901B8010E941E
:1036D000FD2F892B31F4C901BE010E94FD2F892BDA
:1036E00029F48EE691E0A0E0B0E004C08DE691E020
:1036F000A0E0B0E0480E591E6A1E7B1ED301C20135
:10370000AA27BB27C816D906EA06FB0610F04F5FAA
:10371000D3CF40939E06309799F4C90164E670E0D8
:103720000E94FD2F892B39F4C90160E971E00E94E4
:10373000FD2F892B29F48EE691E0A0E0B0E004C0D3
:103740008DE691E0A0E0B0E0481A590A6A0A7B0AC7
:10375000C418D508E608F708C90164E670E00E94BD
:10376000FD2FEC01C90160E971E00E94FD2FA1E08D
:10377000B3E020E0213039F4309749F4209729F460
:10378000009729F402C04C9103C04DE101C04CE107
:1037900050E060E070E0C416D506E606F70640F09B
:1037A000C41AD50AE60AF70A2F5F11962C3011F7D2
:1037B0002F5F20939D06C394C0929C06809294062E
:1037C00090929506A0929606B0929706DF91CF91BF
:1037D0001F910F91FF90EF90DF90CF90BF90AF902F
:1037E0009F908F907F906F905F904F900895CF92B1
:1037F000DF92EF92FF92CF93DF93EC010E9468215A
:103800006B017C018F850E94AE2021E0892B09F499
:1038100020E0298B8889811103C081E08227898B70
:1038200029898A89281721F0CD8ADE8AEF8AF88EC5
:103830008D899E89AF89B88DB701A601481B590BA8
:103840006A0B7B0BDB01CA01CB80DC80ED80FE8044
:10385000C416D506E606F70664F43A81231749F044
:103860002A83222331F04B895C894F5F5F4F5C8B49
:103870004B8B3A8131110CC0CF80D884E984FA8413
:10388000C816D906EA06FB06ACF48B899C890EC0E3
:10389000CB84DC84ED84FE84C816D906EA06FB06D8
:1038A0004CF48B899C8991958195910999838883A2
:1038B0001C8A1B8A2A8BDF91CF91FF90EF90DF90BB
:1038C000CF9008950F931F93CF93DF931F92CDB79F
:1038D000DEB78C01862FF8016787408B91E049277E
:1038E000418B428B148A138A118210821282158AAC
:1038F000168A178A108E44E150E060E070E043833E
:103900005483658376834AEF50E060E070E047833C
:1039100050876187728748EE53E060E070E043872C
:1039200054876587768760E029830E940721F80124
:103930008089298181110BC0222349F061E08785AC
:103940000F90DF91CF911F910F910C94D7200F9082
:10395000DF91CF911F910F9108951F920F920FB693
:103960000F9211242F933F934F935F936F937F9305
:103970008F939F93AF93BF93EF93FF938091B90081
:10398000887F803609F49CC068F5883209F45BC0F2
:1039900090F4803109F454C038F4882309F4F6C057
:1039A000883009F44DC0F6C0883109F44CC080322B
:1039B00009F45DC0EFC0803409F468C048F4803376
:1039C00009F455C0883309F0E5C08093DE06D8C0FD
:1039D000803509F44FC0883509F45DC0883409F09A
:1039E000D9C0D6C0883909F4C7C0A8F4883709F40B
:1039F00067C038F4883609F463C0803709F460C0C2
:103A0000C9C0883809F4B8C0803909F45FC080386B
:103A100009F0C0C05BC0803B09F486C038F4803A2E
:103A200009F466C0883A09F47FC0B4C0803C09F448
:103A3000A7C0883C09F4A4C0883B09F48AC0AAC086
:103A40008091BB0610C09091DD068091DC0698172E
:103A500070F5E091DD0681E08E0F8093DD06F0E0E9
:103A6000E454F94F80818093BB0085EC86C080933D
:103A7000DE068EC0E091DD0681E08E0F8093DD06CC
:103A80008091BB00F0E0E454F94F80839091DD0613
:103A90008091DC066EC0E091DD0681E08E0F8093A0
:103AA000DD068091BB00F0E0E454F94F8083809103
:103AB000DF0681116DC081E08093BA0684EA61C09F
:103AC00083E08093E00610929306CFCF8091930617
:103AD000803208F051C0E091930681E08E0F809310
:103AE00093068091BB00F0E0ED58F94F8083BDCF85
:103AF00085EC8093BC001092E006809193068032A2
:103B000030F4E0919306F0E0ED58F94F10826091A7
:103B1000930670E0E0917106F091720683E796E0FB
:103B200009951092930636C084E08093E0061092C7
:103B3000700610926F06E0916D06F0916E06099581
:103B400080916F06811105C081E080936F0610920D
:103B50004D06E091700681E08E0F80937006F0E0D4
:103B6000E35BF94F80818093BB0090917006809158
:103B70006F06981708F479CF85E88093BC000AC0D7
:103B800085EC8093BC001092E00604C01092DE0623
:103B90000E94431AFF91EF91BF91AF919F918F9136
:103BA0007F916F915F914F913F912F910F900FBE39
:103BB0000F901F9018950C94D62E0C94CE2E8F92A9
:103BC0009F92AF92BF92CF92DF92EF92FF920F93AC
:103BD0001F93CF93DF9388E090E00E94DD1D982E25
:103BE000A82EB12C89E090E00E94DD1DC82E082F80
:103BF00010E08AE090E00E94DD1DC82FD0E0D12CBB
:103C0000E12CF12CFE2CED2CDC2CCC24E928C82A4C
:103C1000812C912CB701A601C4010E94F5178FEFEA
:103C2000881A980A88E088169104A1F70E94601803
:103C30008CE191E00E94221A8DE193E00E94101A1B
:103C400087E191E00E94221AC5010E94942680E13A
:103C500091E00E94221AC8010E9494268AE091E015
:103C60000E94221ACE01DF91CF911F910F91FF90F8
:103C7000EF90DF90CF90BF90AF909F908F900C947B
:103C80009426CF93DF93C0E0D0E040E050E0BA014B
:103C9000CE010E94F5172196C830D105B1F7DF910A
:103CA000CF910C94601840914B0650914C06209196
:103CB000490630914A064217530719F080E09CE309
:103CC00002C08FEF9FEF4F5F5F4F4330510529F0E8
:103CD00050934C0640934B06089510924C06109258
:103CE0004B062F5F3F4F2330310529F030934A06B2
:103CF00020934906089510924A06109249060895A5
:103D0000CF92DF92EF92FF921F93CF93DF93909128
:103D10001906911103C08FEF9FEF72C090911806A2
:103D20009923C9F3182FC0911706D0E0809141065E
:103D300081110DC00E94682160933D0670933E067C
:103D400080933F069093400681E0809341060E9455
:103D50006821C0903D06D0903E06E0903F06F0906E
:103D60004006DC01CB018C199D09AE09BF098D32DB
:103D70009140A105B105D8F00E94682160933D06ED
:103D800070933E0680933F069093400680913C06D8
:103D900091E0982790933C06992329F010923B06D6
:103DA00010923A0604C0D0933B06C0933A06209185
:103DB0003A0630913B06209530954091160650E02A
:103DC0002423352326FF04C081E08093150602C01A
:103DD0001092150627FF04C081E08093140602C0EC
:103DE0001092140680913C06882309F494CF02C0F7
:103DF000D595C7951A95E2F7C0FF8DCF80E09CE37B
:103E0000DF91CF911F91FF90EF90DF90CF900895B9
:103E10000895CF92DF92EF92FF920F931F93CF936B
:103E2000DF936C017A018B01C0E0D0E0CE15DF0595
:103E300089F0D8016D918D01D601ED91FC91019031
:103E4000F081E02DC6010995892B11F47E0102C095
:103E50002196ECCFC701DF91CF911F910F91FF9079
:103E6000EF90DF90CF900895FC01538D448D252F66
:103E700030E0842F90E0821B930B541710F0CF9604
:103E8000089501970895FC01918D828D981761F036
:103E9000828DDF01A80FB11D5D968C91928D9F5F81
:103EA0009F73928F90E008958FEF9FEF0895FC012C
:103EB000918D828D981731F0828DE80FF11D858DDF
:103EC00090E008958FEF9FEF0895FC01918D228D72
:103ED000892F90E0805C9F4F821B91098F739927F7
:103EE000089581EF94E00E94651F21E0892B09F479
:103EF00020E0822F0895FC01848DDF01A80FB11D01
:103F0000A35ABF4F2C91848D90E001968F7399270F
:103F1000848FA689B7892C93A089B1898C918064FC
:103F20008C93938D848D981306C00288F389E02DBD
:103F300080818F7D80830895EF92FF920F931F936E
:103F4000CF93DF93EC0181E0888F9B8D8C8D98134C
:103F500005C0E889F989808185FD24C0F62E0B8D86
:103F600010E00F5F1F4F0F731127E02E8C8DE812AA
:103F70000CC00FB607FCFACFE889F989808185FF6C
:103F8000F5CFCE010E947B1FF1CF8B8DFE01E80F94
:103F9000F11DE35AFF4FF0820B8FEA89FB89808184
:103FA000806207C0EE89FF896083E889F989808192
:103FB0008064808381E090E0DF91CF911F910F9129
:103FC000FF90EF900895CF93DF93EC01888D8823C5
:103FD000C9F0EA89FB89808185FD05C0A889B98976
:103FE0008C9186FD0FC00FB607FCF5CF808185FF51
:103FF000F2CFA889B9898C9185FFEDCFCE010E94BF
:104000007B1FE7CFDF91CF91089580E090E0892B6F
:1040100029F00E94711F81110C94000008958330D3
:1040200081F028F4813099F08230A1F00895873032
:10403000A9F08830B9F08430D1F4809180008F7D70
:1040400003C0809180008F7780938000089584B5AD
:104050008F7702C084B58F7D84BD08958091B000B4
:104060008F7703C08091B0008F7D8093B00008955A
:10407000FC011182108213821282158214820C9428
:10408000A20EFC0111821082138212821582148208
:104090006115710551F0FB0101900020E9F731979E
:1040A000AF01461B570B0C94240E08951F920F92DC
:1040B0000FB60F9211242F933F934F935F936F93FB
:1040C0007F938F939F93AF93BF93EF93FF9381EF72
:1040D00094E00E947B1FFF91EF91BF91AF919F9160
:1040E0008F917F916F915F914F913F912F910F90A1
:1040F0000FBE0F901F9018951F920F920FB60F9240
:1041000011242F938F939F93EF93FF93E0910105D9
:10411000F09102058081E0910705F091080582FD8C
:1041200012C0908180910A058F5F8F7320910B05DB
:10413000821751F0E0910A05F0E0EF50FB4F958FA8
:1041400080930A0501C08081FF91EF919F918F912B
:104150002F910F900FBE0F901F901895CF93DF9364
:10416000282F30E0F901E15DFE4F8491F901EA501A
:10417000FF4FD491F901EE51FF4FC491CC2391F040
:1041800081110E940F20EC2FF0E0EE0FFF1FE8528C
:10419000FF4FA591B491EC91ED2381E090E021F4E3
:1041A00080E002C080E090E0DF91CF9108951F93FE
:1041B000CF93DF93282F30E0F901E15DFE4F84912A
:1041C000F901EA50FF4FD491F901EE51FF4FC4912C
:1041D000CC23C9F0162F81110E940F20EC2FF0E0A4
:1041E000EE0FFF1FE253FF4FA591B4918FB7F894E4
:1041F000111105C09C91ED2FE095E92302C0EC91CF
:10420000ED2BEC938FBFDF91CF911F910895CF934A
:10421000DF9390E0FC01EA50FF4F2491FC01EE5146
:10422000FF4F8491882361F190E0880F991FFC0172
:10423000EF54FF4FC591D491FC01E253FF4FA5917C
:10424000B491611109C09FB7F894888120958223A9
:104250008883EC912E230BC0623061F49FB7F894F1
:104260003881822F809583238883EC912E2B2C9389
:104270009FBF06C08FB7F894E8812E2B28838FBF8D
:10428000DF91CF9108953FB7F8948091B406909153
:10429000B506A091B606B091B70626B5A89B05C095
:1042A0002F3F19F00196A11DB11D3FBFBA2FA92FB5
:1042B000982F8827820F911DA11DB11DBC01CD0132
:1042C00042E0660F771F881F991F4A95D1F708951E
:1042D0002FB7F8946091B0067091B1068091B20644
:1042E0009091B3062FBF08956093AB067093AC0610
:1042F0008093AD069093AE06DC01CB01845D9E4FAA
:10430000AF4FBF4F8093A7069093A806A093A9062E
:10431000B093AA0682E090E09093A6068093A5064B
:104320000E9468216093A1067093A2068093A30661
:104330009093A40608951F920F920FB60F92112426
:104340002F933F938F939F93AF93BF938091B0062A
:104350009091B106A091B206B091B3063091AF062C
:1043600023E0230F2D3720F40196A11DB11D05C0B8
:1043700026E8230F0296A11DB11D2093AF0680935E
:10438000B0069093B106A093B206B093B3068091A5
:10439000B4069091B506A091B606B091B706019605
:1043A000A11DB11D8093B4069093B506A093B606E7
:1043B000B093B706BF91AF919F918F913F912F918D
:1043C0000F900FBE0F901F9018951F920F920FB66F
:1043D0000F9211242F933F934F935F936F937F938B
:1043E0008F939F93EF93FF934091E3045091E404E4
:1043F0006091E5047091E604411551056105710570
:1044000099F080917304E0917404F09175049081A7
:10441000892780831416150616061706D4F4415012
:1044200051096109710915C0809170008D7F8093D9
:10443000700090917304E0917404F0917504808190
:10444000282F30E0892F90E0809590958223932348
:1044500080834093E3045093E4046093E5047093F5
:10446000E604FF91EF919F918F917F916F915F9102
:104470004F913F912F910F900FBE0F901F90189565
:104480001F920F920FB60F9211242F933F938F9389
:104490009F93AF93BF93EF93FF938091E704909125
:1044A000E804A091E904B091EA04892B8A2B8B2BB4
:1044B00051F180917604E0917704F0917804908135
:1044C000892780838091E7049091E804A091E90412
:1044D000B091EA04181619061A061B064CF58091CD
:1044E000E7049091E804A091E904B091EA040197EF
:1044F000A109B1098093E7049093E804A093E9042B
:10450000B093EA0415C080916F008D7F80936F0097
:1045100090917604E0917704F09178048081282FBF
:1045200030E0892F90E080959095822393238083BB
:10453000FF91EF91BF91AF919F918F913F912F91FB
:104540000F900FBE0F901F9018951F920F920FB6ED
:104550000F9211242F933F938F939F93AF93BF9309
:10456000EF93FF938091EB049091EC04A091ED0404
:10457000B091EE04892B8A2B8B2B51F18091790419
:10458000E0917A04F0917B04908189278083809167
:10459000EB049091EC04A091ED04B091EE04181698
:1045A00019061A061B064CF58091EB049091EC0459
:1045B000A091ED04B091EE040197A109B109809397
:1045C000EB049093EC04A093ED04B093EE0415C0BB
:1045D00080916E008D7F80936E0090917904E091C0
:1045E0007A04F0917B048081282F30E0892F90E0BD
:1045F00080959095822393238083FF91EF91BF91C3
:10460000AF919F918F913F912F910F900FBE0F907F
:104610001F9018953F924F925F926F927F928F9268
:104620009F92AF92BF92CF92DF92EF92FF920F9341
:104630001F93CF93DF93382E962E842EF90184E6B4
:10464000E816F1042CF082EBE81A87E0F80A03C0C0
:104650008EE1E80EF11CE0929E0600939D06E09329
:104660009C0630929A069092990680929806AE2DFA
:10467000B0E020E833E341EE51E00E94E42E2B014C
:104680003C0122EB37E0FF2484E6C82ED12CC0E9A0
:10469000D1E0C901825B97408E159F05DCF4C9010A
:1046A00083709927892B99F4C901B6010E94FD2FC7
:1046B000892B31F4C901BE010E94FD2F892B39F4E9
:1046C00080E8480E81E5581E81E0681E711C2F5F4E
:1046D0003F4FDFCF8EE4E81A88EFF80AC70164E69F
:1046E00070E00E94FD2F6C01C70160E971E00E943B
:1046F000FD2F5C01C1E0D0E0112783E0E822FF2418
:10470000C017D1072CF5C230D10589F4E114F104AA
:1047100071F4C114D10419F4A114B10441F480E876
:10472000480E8BE3581E86E2681E711C0FC0DE0126
:10473000A050BD4FAC91B0E020E831E541E050E041
:104740000E94E42E460E571E681E791E2196D8CF71
:10475000292D30E0ACE3B0E00E94262F6B017C01F4
:10476000C80CD11CE11CF11C232D30E0A0E1BEE0FF
:104770000E94262FC60ED71EE81EF91EDF01BB279A
:10478000119720E831E541E050E00E945830DC010B
:10479000CB018C0D9D1DAE1DBF1DBC01CD01640D57
:1047A000751D861D971DDF91CF911F910F91FF9071
:1047B000EF90DF90CF90BF90AF909F908F907F90C1
:1047C0006F905F904F903F900C947421CF92DF9246
:1047D000EF92FF920F931F930E946821C090A10651
:1047E000D090A206E090A306F090A4068B019C0155
:1047F0000C191D092E093F098091AB069091AC065A
:10480000A091AD06B091AE06083E134021053105DA
:10481000D0F00196A11DB11D8093AB069093AC061C
:10482000A093AD06B093AE06B701A60148515C4F08
:104830006F4F7F4F4093A1065093A2066093A3064B
:104840007093A406C9CF4091A7065091A806609125
:10485000A9067091AA0684179507A607B70788F1DD
:10486000E0919F06F091A006309759F109956115E6
:1048700071058105910519F00E94742122C0809173
:10488000AB069091AC06A091AD06B091AE06845DEA
:104890009E4FAF4FBF4F8093A7069093A806A0935B
:1048A000A906B093AA0681E090E02091A506309178
:1048B000A606232B11F480E090E09093A606809347
:1048C000A5066091AB067091AC068091AD06909103
:1048D000AE061F910F91FF90EF90DF90CF9008955B
:1048E0000E94E6230E94041B80919E0690E08E5455
:1048F000984F08950E94E6230E94041B80919D0614
:1049000090E008950E94E6230E94041B80919C067B
:1049100090E008950E94E6230E94041B809198066F
:1049200090E008950E94E6230E94041B809199065E
:1049300090E008950E94E6230E94041B80919A064D
:1049400090E00895CF92DF92EF92FF921F93CF9362
:10495000DF93CDB7DEB72C970FB6F894DEBF0FBE4E
:10496000CDBF182F62E473E0CE0101960E94412072
:10497000133029F422E030E040E050E00FC01C305A
:1049800029F424E030E042E050E008C01033B9F4EC
:104990002091FE053091FF0544E050E06AEF75E09C
:1049A000CE0107960E945C0EBE01695F7F4FCE016B
:1049B00001960E94EB0DCE0107960E94B90ECE0122
:1049C00001960E94860D6B017C01CE0101960E942A
:1049D000B90EC6012C960FB6F894DEBF0FBECDBF40
:1049E000DF91CF911F91FF90EF90DF90CF900895CE
:1049F00081E08093E10688E6809303071092E20647
:104A00001092040760E08EE895E00E94D11A0E949F
:104A100016278091E0068111FCCF81E08093E006AB
:104A20008093DF069FEF9093DE061092DD0696E0FE
:104A30009093DC068093BB068091BB06806D8093CB
:104A4000BB068091BA06813061F41092BA0680915B
:104A5000BB068093BB008091BC0083FDF8CF85EC42
:104A600001C085EE8093BC008091E0068130E1F3C7
:104A70008091DD06873018F48091DD0601C087E063
:104A8000ACEBB6E02AE136E0F9019E2F921B9817B5
:104A900018F49D919193F9CF109272048093710450
:104AA0008EE895E00E94851A982F92959F708F70DE
:104AB0002AE0929F800D112490E090938B048093C4
:104AC0008A048EE895E00E94851A982F92959F702F
:104AD0008F702AE0929F800D112490E090938204C1
:104AE000809381048EE895E00E94851A982F969510
:104AF000969596959670292F220F220F920F8F7000
:104B0000890F90E09093800480937F048EE895E075
:104B10000E94851A982F92959F708F702AE0929F1D
:104B2000800D112490E09093B9068093B8068EE82A
:104B300095E00E94851A982F92959F708F702AE0B9
:104B4000929F800D112490E09093840480938304BD
:104B50008EE895E00E94851A982F92959F708F702D
:104B60002AE0929F800D112490E090938604809318
:104B700085048EE895E00E94851A982F92959F7083
:104B80008F702AE0929F800D112490E0909388040A
:104B90008093870408950F931F93CF93DF93CDB72E
:104BA000DEB762970FB6F894DEBF0FBECDBF8C01A3
:104BB00077FF03C07195619571094AE06A3071050C
:104BC0004CF5CE010D960E94BE0E6BE373E0CE0154
:104BD00001960E944120BE016F5F7F4FCE01079674
:104BE0000E943820BE01635F7F4FCE0107960E946E
:104BF000D80DBC01C8010E943820CE0107960E9442
:104C0000B90ECE0101960E94B90ECE010D960E94FA
:104C1000B90E03C0C8010E94BE0EC80162960FB64D
:104C2000F894DEBF0FBECDBFDF91CF911F910F91E2
:104C300008950F931F93CF93DF93CDB7DEB7689797
:104C40000FB6F894DEBF0FBECDBF8C01809153012B
:104C500090915401489791F40E948A24BC01CE019E
:104C600043960E94CB250E949224BC01CE010D9652
:104C70000E94CB250E949A24BC011FC00E948A2456
:104C8000BC01CE0143960E94CB250E949224BC0118
:104C9000CE010D960E94CB250E94E6230E94041BA4
:104CA00080919A06882339F0682F70E08D3028F0C3
:104CB0006C50710902C06CE070E0CE0101960E9458
:104CC000CB25BE016F5F7F4FCE0107960E94382033
:104CD000BE01635F7F4FCE0107960E94D80DBE01D3
:104CE0006D5E7F4F0E94D80DBC01C8010E94382024
:104CF000CE0107960E94B90ECE0101960E94B90E10
:104D0000CE010D960E94B90ECE0143960E94B90EB7
:104D1000C80168960FB6F894DEBF0FBECDBFDF9115
:104D2000CF911F910F9108958F929F92AF92BF9252
:104D3000CF92DF92EF92FF920F931F93CF93DF9367
:104D4000CDB7DEB7A1970FB6F894DEBF0FBECDBFCB
:104D50006C01990FEE08FF08F7FE31C0E091F104F5
:104D6000F091F2040190F081E02D6DE281EF94E08A
:104D700009958C0122273327A9012C193D094E09D9
:104D80005F0919A2CE0181967C019AE0892E912CAF
:104D9000A12CB12CCA01B901A50194010E941130C6
:104DA000605DF70162937F012115310541055105D1
:104DB00089F7CF010E94101A080F191F1EC0A70102
:104DC000960119A28E010F5D1F4F8AE0C82ED12CCB
:104DD000E12CF12CCA01B901A70196010E94113002
:104DE000605DF80162938F01211531054105510580
:104DF00089F7CF010E94101A8C018DE193E00E9487
:104E0000101A800F911FA1960FB6F894DEBF0FBE47
:104E1000CDBFDF91CF911F910F91FF90EF90DF9069
:104E2000CF90BF90AF909F908F90089520910407EE
:104E300090910307213208F04AC08091E006811169
:104E4000FCCF32E03093E00631E03093DF063FEFF5
:104E50003093DE061092DD062093DC06A3EEB6E06A
:104E60004CEB56E0FA013E2F341B321718F43D91FB
:104E70003193F9CF1092BB062091BB06990F922B6C
:104E80009093BB069091BA06913061F41092BA06E5
:104E90009091BB069093BB009091BC0093FDF8CF1E
:104EA00095EC01C095EE9093BC009091E006923095
:104EB000E1F39091DE069F3F79F08091DE0680322B
:104EC00041F08091DE06803331F084E005C081E05E
:104ED00003C082E001C083E01092E2061092040752
:104EE0001092E1060895CF93DF93CDB7DEB7CF548C
:104EF000D1090FB6F894DEBF0FBECDBF789484B54C
:104F0000826084BD84B5816084BD85B5826085BDC5
:104F100085B5816085BD80916E00816080936E0053
:104F20001092810080918100826080938100809145
:104F300081008160809381008091800081608093F6
:104F400080008091B10084608093B1008091B000B6
:104F500081608093B00080917A00846080937A00B1
:104F600080917A00826080937A0080917A008160DB
:104F700080937A0080917A00806880937A00109202
:104F8000C10010927204109271041092E206109205
:104F900004071092E00681E08093DF061092BA06C3
:104FA00061E082E10E94D72061E083E10E94D72086
:104FB0008091B9008E7F8093B9008091B9008D7F78
:104FC0008093B90088E48093B80085E48093BC00A6
:104FD000E0910105F091020582E08083E091FD04FB
:104FE000F091FE041082E091FF04F091000580E151
:104FF000808310920905E0910505F091060586E091
:105000008083E0910305F0910405808180618083B5
:10501000E0910305F0910405808188608083E09130
:105020000305F0910405808180688083E091030589
:10503000F091040580818F7D808381E090E00E9463
:10504000DD1D8C3019F088E190E002C08CE090E02A
:10505000909354018093530180E090E00E94DD1D05
:10506000882321F081E08093300102C0109230014A
:1050700082E090E00E94DD1D8F3F29F410924C01E8
:1050800010924B0105C090E090934C0180934B012E
:1050900083E090E00E94DD1D8F3F29F410924E01C5
:1050A00010924D0105C090E090934E0180934D0108
:1050B00084E090E00E94DD1D8F3F29F410925001A2
:1050C00010924F0105C090E09093500180934F01E2
:1050D00086E090E00E94DD1D8F3F29F4109252017E
:1050E0001092510105C090E09093520180935101BC
:1050F00087E090E00E94DD1D8F3F19F410928C0430
:1051000006C091E0811101C090E090938C048BE087
:1051100090E00E94DD1D8F3F29F4109256011092FD
:10512000550105C090E090935601809355018CE0A5
:1051300090E00E94DD1D8F3F31F090E00C9790933E
:105140005801809357018DE090E00E94DD1D8F3F54
:1051500029F090E0909344018093430161E089E05D
:105160000E94072161E086E00E94072161E083E060
:105170000E94072180918D04833008F083C092E063
:105180009093EF04E82FF0E0E255FF4FE491E093B5
:10519000F0048F5F80938D04E13031F1E23009F447
:1051A0004AC0E11172C014BC15BC84B5826084BDD4
:1051B00085B5816085BD8091EF0490E0FC01EE51E2
:1051C000FF4FE491F0E0EE0FFF1FE253FF4F2591F8
:1051D000349130937B0420937A04FC01EA50FF4F12
:1051E000E491E093790451C0109280001092810004
:1051F000809181008860809381008091810081602E
:10520000809381008091EF0490E0FC01EE51FF4F0C
:10521000E491F0E0EE0FFF1FE253FF4F2591349130
:105220003093780420937704FC01EA50FF4FE49117
:10523000E09376042AC01092B0001092B1008091E1
:10524000B00082608093B0008091B1008160809353
:10525000B1008091EF0490E0FC01EE51FF4FE4912A
:10526000F0E0EE0FFF1FE253FF4F25913491309392
:10527000750420937404FC01EA50FF4FE491E0931D
:10528000730403C08FEF8093F00480912E019091FE
:105290002F010E948B1590932F0180932E0161E0C6
:1052A0008AE00E9407211FB7F89480918E04811133
:1052B00027C0ECEEF0E08491E0E0F1E09491E82F7B
:1052C000F0E0EE0FFF1FEF54FF4FA591B491EC916A
:1052D000E92321F461E08AE00E94D72061E08AE0BE
:1052E0000E9407218CB580618CBD8CB580648CBD1B
:1052F00061E08DE00E94072161E08BE00E940721C0
:1053000080918E048F5F80938E041FBF8CB5837F46
:1053100088608CBD8CB58C7F81608CBD8DB58160C3
:105320008DBD8091A00587FD08C061E00E94072126
:1053300060E08091A0050E94D72081E080939B05CA
:105340006091A105633321F12091A2053091A3055D
:10535000615031F070E08FEF92E30E94E92F02C0BC
:1053600060E070E0F90140919E0550919F05CF01EA
:10537000821B930B8417950740F44081469FC00120
:10538000479F900D11249193EECF83E38093A10565
:1053900062E08EE00E94072162E080E10E94072126
:1053A00062E08FE00E94072161E082E00E94072115
:1053B00004E110E020E030E00093E4051093E505FF
:1053C0002093E6053093E7054EE150E060E070E0A1
:1053D0004093E8055093E9056093EA057093EB0567
:1053E00080ED97E0A0E0B0E08093EC059093ED05B0
:1053F000A093EE05B093EF050093CB051093CC0579
:105400002093CD053093CE054093CF055093D00522
:105410006093D1057093D2058093D3059093D40502
:10542000A093D505B093D6050093B2051093B305AC
:105430002093B4053093B5054093B6055093B70556
:105440006093B8057093B9058093BA059093BB0536
:10545000A093BC05B093BD058BEB90E00E94221A8F
:1054600025E030E042E050E06EE076E0CE010196CB
:105470007C010E945C0E22E030E041E050E06EE0F2
:1054800076E0CE01875B9F4F0E945C0EBE01675B9A
:105490007F4FCE018D5B9F4F0E9438206BE173E000
:1054A000CE018D5B9F4F0E94BF0DB7010E94D80DAA
:1054B000FC01448155816081718181EF94E00E94FB
:1054C000091F8DE193E00E94101ACE018D5B9F4F62
:1054D0000E94B90ECE01875B9F4F0E94B90EC70193
:1054E0000E94B90E80E293E00E94101A8DE193E0D1
:1054F0000E94101A80912E0190912F0190937E04AA
:1055000080937D040E948B1500E010E040E050E0A5
:105510006FEF70E0C8010E94F5170F5F1F4F083052
:105520001105A1F70E9460180E94D81900E010E050
:1055300040E05FEF60E070E0C8010E94F5170F5F88
:105540001F4F08301105A1F70E9460180E94D8195A
:1055500000E010E04FEF50E060E070E0C8010E9412
:10556000F5170F5F1F4F08301105A1F70E94601853
:105570000E94D8190E94411E66E373E0C7010E9491
:1055800041206DE373E0CE0107960E94412064E460
:1055900073E0CE010D960E9441206BE473E0CE01D2
:1055A00043960E94412062E573E0CE0149960E9435
:1055B000412069E573E0CE014F960E94412060E6EC
:1055C00073E0CE0185960E94412067E673E0CE012C
:1055D0008B960E9441206EE673E0CE01C1960E9438
:1055E000412065E773E0CE01C7960E9441206FE13C
:1055F00073E0CE01CD960E9441206EE076E0CE01B0
:10560000CD960E94A20E0E9468214B015C01F8EE2B
:105610008F0EF3E09F1EA11CB11C712C1FEF94EFA5
:10562000C92EDD24D39426E0622E8FE00E94AE20A6
:10563000892B11F47724739480E10E94AE20892B8A
:1056400009F4712C0E946821DC01CB0188199909A9
:10565000AA09BB0996010D2C000C440B550B281709
:1056600039074A075B07E8F40E9468214B015C0197
:10567000711001C01F5F1A3011F038F404C080EDC2
:10568000C82E87E0D82E01E002C01AE000E0B70182
:10569000619E600D711D11248AEF95E00E94A20E9B
:1056A00001C001E00E948A0F0111BFCF80910D0659
:1056B000811104C00E94A119811107C010920B062C
:1056C00010920D0610920C0667C080EF0E947719A9
:1056D00001E0D12CB12C11E00E94201960968FAF0F
:1056E00060970E94201960969FAD6097913019F4E1
:1056F0008130C1F435C02D2D30E098131DC080914C
:105700000B06181738F4F901E050FA4F8381802313
:1057100049F402C0181731F090E0193060F410938A
:105720000C0609C0ED2DF0E0E050FA4F8381802B8C
:10573000838391E009C0B12EF901E050FA4F238133
:10574000802F809582238383892F0E9445191F5FB4
:10575000000F11F4D39401E027E02D1508F0BCCF21
:10576000113408F4ABCFB0920B06B11003C081E046
:1057700080930D0680910306882309F49FCFA3E050
:10578000B6E0EFE8F4E08D91819384E0E739F80723
:10579000D1F781E080937C048E010D5B1F4F065092
:1057A0001109C8010E94B90E0E151F05C1F780919D
:1057B0008C0481110E94DF1D0E94F82400918A044C
:1057C00010918B040E9468216B017C0181E0809321
:1057D0008904112780918A0490918B040817190776
:1057E00089F40E94F8240E946821DC01CB018C1905
:1057F0009D09AE09BF09893B9B40A105B10550F346
:1058000010928904E0908704F09088040091850448
:1058100010918604209183043091840440918A047D
:1058200050918B04609181047091820480917F0477
:10583000909180040E940A230E94CE000E940520BD
:10584000FBCF1092F4041092F30488EE93E0A0E0F2
:10585000B0E08093F5049093F604A093F704B0931E
:10586000F80421EE32E03093F2042093F10425ECA9
:1058700030E03093FE042093FD0424EC30E03093BC
:1058800000052093FF0420EC30E0309302052093C4
:10589000010521EC30E0309304052093030522EC50
:1058A00030E0309306052093050526EC30E0309378
:1058B00008052093070510920A0510920B05109217
:1058C0000C0510920D051092910510929005809391
:1058D000920590939305A0939405B093950583EF5B
:1058E00092E090938F0580938E0563EF73E08EE0D6
:1058F00096E00E94412060E087E00E940721EDEFE2
:10590000F0E0E491E0930006E9EEF0E0E491F0E0ED
:10591000EE0FFF1FE852FF4F85919491909302067E
:105920008093010610920B0610920D0610920C0641
:10593000EBE0F6E0129286E0E330F807D9F766E391
:1059400073E08AEF95E00E94412021E040E06EE0A4
:1059500081EE95E00E94621C21E040E060E188EC6D
:1059600095E00E94621C21E040E06FE08FEA95E044
:105970000E94621C10929B051092A1051092A8052E
:105980001092A9051092AA051092AB0581E08093B0
:10599000A7058093A4051092A50592E09093A60513
:1059A00080939A0588E190E090939F0580939E05EF
:1059B0000E9460309093A3058093A205009761F048
:1059C00028E1FC0111922A95E9F788E090E0909394
:1059D0009D0580939C0508C010929F0510929E051E
:1059E00010929D0510929C0586E08093A005809101
:1059F0009B05882341F061E086E00E94072160E07A
:105A000086E00E94D720E8EEF0E0E491F0E0EE0FAF
:105A1000FF1FE253FF4F859194919093AD058093C2
:105A2000AC05ECEFF0E0E491E093AE0508958091D1
:105A3000A2059091A305009711F00E94F530809186
:105A4000A00587FD03C060E00E9407218AEF95E072
:105A50000E94B90E8EE096E00C94B90E1F93FC01E3
:105A600099278827BC01E89411911032E9F3193085
:105A700010F01E30C8F31B3251F01D3249F4689407
:105A800006C00E946B2D610F711D811D911D11912A
:105A900010531A30B0F33EF490958095709561954F
:105AA0007F4F8F4F9F4F1F9108954532510520F42E
:105AB000423010F00C94602DFB011082CB01089550
:105AC000BB274A3031F4992322F4BDE290958195A9
:105AD0009F4F0C94812D592F482F372F262F660F5B
