:020000040000FA
:100000000C9462020C9493020C9493020C9493024D
:100010000C9493020C9493020C9493020C9493020C
:100020000C9493020C9493020C9493020C949302FC
:100030000C9493020C943B380C9493020C9493020E
:100040000C9493020C948E380C9493020C949302AB
:100050000C9493020C94ED380C9493020C94313769
:100060000C9493020C94FB360C94D1360C949302AE
:100070000C9493020C9493020C9493020C949302AC
:100080000C9493020C9493020C9493020C9493029C
:100090000C949B360C9471360C9493020C944C394E
:1000A0000C9493020C9493020C94703A0C94930267
:1000B0000C9493020C9493020C9493020C947B374F
:1000C0000C9493020C9493020C9493020C9493025C
:1000D0000C9493020C9493020C9493020C9493024C
:1000E0000C9493020C94CC040C942B0E0C943106BB
:1000F0000C948A290C94832F0C941B350C94450680
:100100000C94FD040C942D060C949F040C94DB04B9
:100110000C94EF040C943A0E0C940B100C942A0ED1
:100120000C9470290C9412060C944D060C942D100E
:100130000C947B340C94260F0C9498290C948E29E3
:100140000C94522F0C94F3430C9449060C94902970
:100150000C943B060C9440100C9444350C943F06D0
:100160000C9453060C944F340C949D040C94BF349F
:100170000C9424060C942F100C949C040C9492293B
:100180000C9427100C9496290C943F050C94570658
:100190000C9427060C941C060C944D0E0C9420060F
:1001A0000C94810E0C94540E0C942B100C9452064B
:1001B0000C9494290C9477330C94A7050C94993CD7
:1001C0000C9418060C9437065570646174696E6758
:1001D0002074696D652066726F6D204750532E2E16
:1001E0002E00496E636F727265637420536F6E6781
:1001F00020466F726D617421005247423D6F666602
:10020000005247423D6F6E004D6F6E74683A004475
:1002100061793A00446F776E206C6F6E672E2E2ED8
:100220002E00446F776E2073686F727400557020D3
:100230006C6F6E672E2E2E2E0055702073686F72B5
:1002400074004D6F6465206C6F6E672E2E2E2E002D
:100250004D6F64652073686F727400416C6C20612F
:100260007474656D707473207765726520756E7334
:1002700075636365737366756C2E00417474656D88
:10028000707420746F2073796E63207769746820AE
:100290004750532E0057616B652075702C204E65BA
:1002A0006F210044617465206F722054696D652070
:1002B0006E6F7420696E2072616E676500426C75A6
:1002C000653D00475245454E3D005245443D005274
:1002D00065616465642066726F6D20454550524FBC
:1002E0004D0000000A0B02090C0D0E080703040163
:1002F00000000000000000000000000000000000FE
:1003000000000000000000000000000000001211CA
:1003100010000000000000000000000000000000CD
:100320000000000000000000020100000021002485
:100330000027002A002D00300033000101000004D6
:100340000107010A014661756C7479204453333208
:10035000333121004453333233315F543D00537401
:100360006F7020546573740054656D702E20736532
:100370006E736F72206E6F7420666F756E642E00E0
:10038000475053204E4F5420646574656374656410
:10039000210047505320646574656374656400539D
:1003A000746172742054657374004E435333313852
:1003B0002F35363820666F7220485720312E78202E
:1003C000485635313232206F72204856353232323B
:1003D000004669726D776172652076657273696F28
:1003E0006E3A20005761726E696E67212052544345
:1003F00020444F4E275420524553504F4E44210025
:1004000000002200250028002B002E0031003400BF
:1004100002010000050108010B010000200023007B
:10042000260029002C002F003200000100000301EB
:100430000601090105050505070508080808020267
:1004400002020A0A0808040404040101010101016E
:1004500001010303030303030303040707070C0C51
:100460000C0C0C0C0C0C0202020206060606060618
:1004700006060B0B0B0B0B0B0B0B010210202008BD
:1004800008102040102040800201020108040201EF
:10049000010204081020408080402010080402015E
:1004A00080040201804020100804020108040201B7
:1004B000010204081020408001020408102040803E
:1004C000993CF34311241FBECFEFD1E2DEBFCDBF75
:1004D00000E00CBF29E0AAEEB4E001C01D92A13FEC
:1004E000B207E1F714E0A0E0B2E0E6E7F2E900E0ED
:1004F0000BBF02C007900D92AA3EB107D9F712E0D8
:10050000C1E6D2E000E006C021970109802FFE017C
:100510000E94FC46C036D10780E00807A9F70E9478
:10052000303E0C9429490C9400008F929F92AF9218
:10053000BF92CF92DF92EF92FF92CF932091410929
:100540003091420982179307E8F54B01AA24BB2496
:10055000C82DC52ED62EE72EFF24BC2DA42F20910A
:100560004709222361F0829E40011124C92D2C9D50
:1005700060011124BD2D249FF0011124AF2FE091C3
:100580004D09E0904809F090490930914A09E31378
:1005900023C09C01220F331F820F931F8E0D9F1DBE
:1005A000E0914A09E80FF92FF11DC083E0914B0952
:1005B000E80FF92FF11DB08320914C09820F911D96
:1005C000FC01A083CF91FF90EF90DF90CF90BF9080
:1005D000AF909F908F900895880F991F880F991F53
:1005E0008E0D9F1D472F552766277727222349F019
:1005F00030E0249F7001259FF00C349FF00C1124F3
:100600004F2DE80FF92FF11D4083CACF8CBD9DBD42
:1006100008958F929F92AF92BF92CF92DF92EF9206
:10062000FF920F931F93CF93DF936B017C018CE3B9
:10063000882E912CA12CB12CC701A50194010E94F8
:10064000BB4660931207CA01B901A50194010E943B
:10065000BB4660931307C701B60120E13EE040E0CE
:1006600050E00E94BB46CA01B90128E130E040E0F9
:1006700050E00E94BB4660931407C701B60120E812
:1006800031E541E050E00E94BB4669017A01CA01B0
:10069000B9016C5F7F4F8F4F9F4F27E030E040E004
:1006A00050E00E94BB466F5F60931507812C912C30
:1006B000540140E0C4E6D0E000E911E0242F30E02E
:1006C0002E54384FF901E370FF273097F9F4C90130
:1006D000BE010E94A746892B31F4C901B8010E94CE
:1006E000A746892B99F48EE691E0A0E0B0E0880E51
:1006F000991EAA1EBB1ED501C401AA27BB27C81676
:10070000D906EA06FB0638F04F5FD8CF8DE691E0B8
:10071000A0E0B0E0ECCF40931807C90164E670E0B8
:100720000E94A746EC01C90160E971E00E94A7465A
:10073000309721F42097D9F40097C9F04DE651E0A5
:1007400060E070E0841A950AA60AB70AC818D908AA
:10075000EA08FB08A3EEB3E020E0213069F430970B
:1007600089F5209711F4009769F54DE106C04EE632
:1007700051E060E070E0E6CF4C9150E070E060E066
:1007800031E0320FC416D506E606F70640F0C41A6B
:10079000D50AE60AF70A1196232F3C30F1F62F5FAF
:1007A00020931707C394C0921607DF91CF911F9132
:1007B0000F91FF90EF90DF90CF90BF90AF909F9000
:1007C0008F9008954CE1D9CF8091A609E091A709B7
:1007D000F091A809F8949181982B91832281382F68
:1007E000309523232283A7E0B0E01197F1F79181A0
:1007F00093239183A3E2B0E01197F1F7908178946D
:10080000EFECF0E03197F1F7982381E009F480E014
:1008100008959091A609E091A709F091A809292FC0
:10082000209580FF14C0F894828182238283818185
:10083000892B8183A3E2B0E01197F1F78281982B95
:100840009283789487ED90E00197F1F70895F894FA
:100850008281822382838181892B8183AFEFB0E003
:100860001197F1F78281982B928378948FE090E032
:10087000EBCF0F931F93CF93DF93082FC8E0D0E007
:1008800011E081E0902F912309F480E00E94090497
:10089000110F2197B1F7F894E091A709F091A809F9
:1008A00091818091A609809598239183E091A70971
:1008B000F091A8099281892382837894DF91CF9166
:1008C0001F910F9108958091A609E091A709F091D9
:1008D000A809F8949181282F2095922391837894E8
:1008E0003DE743E050E0315029F1DA011197F1F78B
:1008F00090819823C1F3F8949281922392839181FD
:10090000982B91837894ABE7B7E01197F1F7F894BF
:10091000918192239183A3E1B1E01197F1F7908146
:10092000982381E009F080E07894E3E6F6E03197DF
:10093000F1F7089580E00895089508950895AF921D
:10094000BF92CF92DF92EF92FF920F931F93CF93BC
:10095000DF936C017B018B01040F151FEB015E011E
:10096000AE18BF08C017D10759F06991D601ED91B3
:10097000FC910190F081E02DC6011995892B79F742
:10098000C501DF91CF911F910F91FF90EF90DF9004
:10099000CF90BF90AF900895FC01538D448D252FCB
:1009A00030E0842F90E0821B930B541710F0CF9609
:1009B000089501970895FC01918D828D981761F03B
:1009C000A28DAE0FBF2FB11D5D968C91928D9F5F52
:1009D0009F73928F90E008958FEF9FEF0895FC0131
:1009E000918D828D981731F0828DE80FF11D858DE4
:1009F00090E008958FEF9FEF0895FC01918D228D77
:100A0000892F90E0805C9F4F821B91098F739927FB
:100A1000089587E297E00E94FD0421E0892B09F404
:100A200020E0822F089584EC97E00E94FD0421E0ED
:100A3000892B09F420E0822F0895FC01A48DA80FD2
:100A4000B92FB11DA35ABF4F2C91848D90E0019610
:100A50008F739927848FA689B7892C93A089B18930
:100A60008C91837080648C93938D848D981306C0D1
:100A70000288F389E02D80818F7D80830895EF9235
:100A8000FF920F931F93CF93DF93EC0181E0888F48
:100A90009B8D8C8D98131AC0E889F989808185FF18
:100AA00015C09FB7F894EE89FF896083E889F989BA
:100AB00080818370806480839FBF81E090E0DF91BC
:100AC000CF911F910F91FF90EF900895F62E0B8D0F
:100AD00010E00F5F1F4F0F731127E02E8C8D8E11CA
:100AE0000CC00FB607FCFACFE889F989808185FF31
:100AF000F5CFCE010E941D05F1CFEB8DEC0FFD2F40
:100B0000F11DE35AFF4FF0829FB7F8940B8FEA89EB
:100B1000FB8980818062CFCF0F931F93CF93DF93A8
:100B20008C01D0E0C0E0F801EC0FFD1F649166235A
:100B300041F084EC97E00E943F05892B11F021964B
:100B4000F2CFCE01DF91CF911F910F910895CF93F6
:100B5000DF93EC01888D8823B9F0AA89BB89E889E5
:100B6000F9898C9185FD03C0808186FD0DC00FB68B
:100B700007FCF7CF8C9185FFF2CF808185FFEDCF09
:100B8000CE010E941D05E9CFDF91CF91089580E04D
:100B900090E0892B29F00E94130581110E9400002A
:100BA00080E090E0892B29F00E94090581110E94C4
:100BB000000080E090E0892B49F080E090E0892BF4
:100BC00029F00E94000081110E94000080E090E066
:100BD000892B49F080E090E0892B29F00E940000E9
:100BE00081110C94000008958150823108F05AC0A0
:100BF000E82FF0E08827E050FA4F8F4F0C94FC4626
:100C000020062406120618061C06520627062D0684
:100C1000310637063B063F064506490652064D0695
:100C200053065706809180008F7780938000089547
:100C3000809180008F7DF9CF80918000877FF5CFF4
:100C400084B58F7784BD089584B58F7DFBCF809167
:100C5000B0008F778093B00008958091B0008F7DB1
:100C6000F9CF809190008F778093900008958091C4
:100C700090008F7DF9CF80919000877FF5CF809194
:100C8000A0008F778093A00008958091A0008F7DB1
:100C9000F9CF8091A000877FF5CF809120018F77D9
:100CA000809320010895809120018F7DF9CF80915C
:100CB0002001877FF5CFCF93DF93282F30E0F90114
:100CC000EE51FD4F8491F901E658FB4FD491F901A3
:100CD000EC5CFB4FC491CC23A1F081110E94F40580
:100CE000EC2FF0E0EE0FFF1FE65EFB4FA591B491F5
:100CF000EC91ED2381E090E009F480E0DF91CF9169
:100D0000089580E090E0FACF1F93CF93DF93282FD0
:100D100030E0F901EE51FD4F8491F901E658FB4FA7
:100D2000D491F901EC5CFB4FC491CC23A9F0162FB0
:100D300081110E94F405EC2FF0E0EE0FFF1FE05050
:100D4000FC4FA591B4918FB7F894EC91111108C0A4
:100D5000D095DE23DC938FBFDF91CF911F91089553
:100D6000DE2BF8CFCF93DF9390E0FC01E658FB4FEA
:100D700024918C5C9B4FFC0184918823C9F090E006
:100D8000880F991FFC01E55DFC4FA591B491FC0112
:100D9000E050FC4FC591D49161110DC09FB7F894FC
:100DA0008C91209582238C938881282328839FBF50
:100DB000DF91CF910895623051F49FB7F8943C9140
:100DC000822F809583238C93E8812E2BEFCF8FB7D2
:100DD000F894EC912E2B2C938FBFEACF4F925F9219
:100DE0006F927F928F929F92AF92BF92CF92DF923B
:100DF000EF92FF920F931F93CF93DF9300D01F9238
:100E00001F92CDB7DEB72091260727FD2CC149835D
:100E10005A836B837C838C0161E0809125070E945B
:100E2000B206809126078D834801B12CA12C8D7FBD
:100E300009F031C160E072E18AE790E0A501980114
:100E40000E94DD4629013A017A01690191E0C91A3F
:100E5000D108E108F108AFEFCA16D104E104F104AA
:100E600009F00CF4C7C060E472E48FE090E0A501E3
:100E700098010E94DD4669017A01B1E0CB1AD108E0
:100E8000E108F1088D81823009F06AC082E09FEFAD
:100E9000C916D104E104F10409F00CF45EC160E963
:100EA00070ED83E090E0A50198010E94DD466901A4
:100EB0007A01A1E0CA1AD108E108F10883E0BFEF86
:100EC000CB16D104E104F10409F00CF446C168E446
:100ED00078EE81E090E0A50198010E94DD4669016D
:100EE0007A0181E0C81AD108E108F10884E09FEF97
:100EF000C916D104E104F10409F00CF42EC164E236
:100F000074EF80E090E0A50194010E94DD46690144
:100F10007A01B1E0CB1AD108E108F10885E09FEF32
:100F2000C916D104E104F10409F008F416C162E124
:100F30007AE780E090E0A50194010E94DD46690116
:100F40007A01B1E0CB1AD108E108F1088FEFC81699
:100F5000D104E104F10411F008F0F0C086E0FDC016
:100F60008FEFC816D104E104F10409F00CF491C02C
:100F700068E478EE81E090E0A50198010E94DD46EA
:100F800069017A0191E0C91AD108E108F108AD813F
:100F900084E0A111C4CF83E0AFEFCA16D104E1040D
:100FA000F10461F15CF162E17AE780E090E0A50193
:100FB00094010E94DD4669017A0181E0C81AD108D6
:100FC000E108F10884E09FEFC916D104E104F104BF
:100FD000A9F0A0F0730162019AE0F594E794D79428
:100FE000C7949A95D1F7A1E0CA1AD108E108F1088F
:100FF00085E004C081E0AD81A111AFC095B5987FB7
:10100000892B85BD89819A81AB81BC812FEF3FEF10
:10101000A901892B8A2B8B2B79F0D801AA0FBB1F32
:1010200029813A814B815C810E94B54528EE33E0ED
:1010300040E050E00E94BB469D81913009F45CC0C5
:10104000923009F46BC091110EC0C7BC20932107E8
:1010500030932207409323075093240780916E001A
:10106000826080936E000F900F900F900F900F9002
:10107000DF91CF911F910F91FF90EF90DF90CF9074
:10108000BF90AF909F908F907F906F905F904F90A8
:10109000089582E0B0CF60E072E18AE790E0A501B8
:1010A00098010E94DD4669017A01B1E0CB1AD108AE
:1010B000E108F10891E0C114D10481E0E806F104EF
:1010C00084F068E478EE81E090E0A50198010E9448
:1010D000DD4669017A0191E0C91AD108E108F108F9
:1010E00093E0AD81A13009F08DCF80918100887FA0
:1010F000892B8093810086CFD0928900C09288008E
:1011000020931D0730931E0740931F07509320071D
:1011100080916F00826080936F00A5CFC092B30072
:101120002093190730931A0740931B0750931C070D
:101130008091700082608093700095CF730162018E
:101140008AE0F594E794D794C7948A95D1F7B1E0F3
:10115000CB1AD108E108F10887E09091B100987F9F
:10116000892B8093B1004ECF3FB7F89480917306DE
:1011700090917406A0917506B091760626B5A89B4D
:1011800005C02F3F19F00196A11DB11D3FBFBA2F19
:10119000A92F982F8827BC01CD01620F711D811DD9
:1011A000911D42E0660F771F881F991F4A95D1F75E
:1011B0000895CF92DF92EF92FF920F931F93CF93F8
:1011C000DF9300D000D000D0CDB7DEB780914809C2
:1011D00090914909892B09F480C0C0904E09D090A4
:1011E0004F09E0905009F09051090E94B4086C1525
:1011F0007D058E059F0550F40E94B40860934E094A
:1012000070934F0980935009909351090E94B4083C
:1012100000914E0910914F092091500930915109C8
:10122000601B710B820B930B6C3271408105910531
:10123000A0F2F89480914309909144099A8389839C
:10124000E0914809F0914909DF0111968081898771
:1012500090913F09E0915209F0915309809154090E
:10126000992309F449C09081982B988790818095A3
:1012700089238F838F818C8388E08B8358856F814E
:1012800049853B812C8189819A81508347FD252F97
:101290003A952083262F39F0441F00C00000608358
:1012A000000000C0F2CF38E04D916083000001974C
:1012B00061F7F0935309E093520949873B832C83EC
:1012C0009A83898378940E94B40860934E0970933E
:1012D0004F09809350099093510929960FB6F894BD
:1012E000DEBF0FBECDBFDF91CF911F910F91FF9059
:1012F000EF90DF90CF9008959081982B9887908100
:10130000809589238F838F818E8388E08D83588594
:101310006F8149853D812E8189819A81508347FD66
:10132000252F00C000C0208300C000C000C000C046
:1013300000C060830000262F3A9541F0441F000052
:1013400000C000C000C000C000C0E8CF38E04D9130
:1013500000C0608300C0019709F7F0935309E09340
:10136000520949873D832E83ABCF8F929F92AF92D4
:10137000BF92CF92DF92EF92FF924B015C010E94ED
:10138000B4086B017C010E94B4086C197D098E09B8
:101390009F09683E734081059105A8F321E0821AF8
:1013A0009108A108B10888EEC80E83E0D81EE11CA0
:1013B000F11C81149104A104B10429F7FF90EF906E
:1013C000DF90CF90BF90AF909F908F9008952FB7F0
:1013D000F89460916F0670917006809171069091FB
:1013E00072062FBF089560936A0670936B06809310
:1013F0006C0690936D06645D7E4F8F4F9F4F609398
:10140000660670936706809368069093690682E08B
:1014100090E090936506809364060E94E7096093CC
:101420006006709361068093620690936306089548
:101430002F923F924F925F926F927F928F929F92E4
:10144000AF92BF92CF92DF92EF92FF920F931F93D2
:10145000CF93DF93382E962E842E222E84E6E81624
:10146000F1040CF459C092EBE91A97E0F90AE09202
:1014700018070093170720921607309214079092CE
:10148000130780921207AE2DB0E020E833E341EE5F
:1014900051E00E94B5452B013C0122EB37E0FF24CF
:1014A000E4E6F0E0C0E9D1E0C901825B97408E1527
:1014B0009F05B4F19EE4E91A98EFF90AC70164E6C2
:1014C00070E00E94A7466C01C70160E971E00E94CC
:1014D000A7465C01C3EED3E0E1E0F0E0112783E032
:1014E000E822FF24E017F1070CF042C0E230F105DA
:1014F00091F5E114F10479F5C114D10419F4A114A2
:10150000B10449F580E8480E8BE3581E86E2681E58
:10151000711C31962196E6CF8EE1E80EF11CA7CF23
:10152000C90183709927892B99F4C901BF010E94D1
:10153000A746892B31F4C901BE010E94A746892B19
:1015400039F490E8490E91E5591E91E0691E711C2D
:101550002F5F3F4FA9CFA881B0E020E831E541E0FF
:1015600050E00E94B545460E571E681E791ED1CF29
:10157000292D30E0ACE3B0E00E94C0456B017C0156
:10158000C80CD11CE11CF11C232D30E0A0E1BEE011
:101590000E94C045C60ED71EE81EF91E822D81503E
:1015A000990BDC0120E831E541E050E00E940B4757
:1015B0006C0D7D1D8E1D9F1D640D751D861D971D57
:1015C000DF91CF911F910F91FF90EF90DF90CF901F
:1015D000BF90AF909F908F907F906F905F904F9053
:1015E0003F902F900C94F309CF92DF92EF92FF92ED
:1015F0000F931F930E94E7098B019C01C090600626
:10160000D0906106E0906206F090630660916A06F1
:1016100070916B0680916C0690916D060C191D09F6
:101620002E093F09083E134021053105E0F0DC0199
:10163000CB010196A11DB11D80936A0690936B06A4
:10164000A0936C06B0936D06B701A60148515C4F9C
:101650006F4F7F4F40936006509361066093620620
:1016600070936306C7CF1F910F91FF90EF90DF90AB
:10167000CF900895CF92DF92EF92FF92C0905C06D8
:10168000D0905D06E0905E06F0905F06C616D70625
:10169000E806F90661F06B017C010E940903C09223
:1016A0005C06D0925D06E0925E06F0925F06FF90C7
:1016B000EF90DF90CF9008950E94F40A0E943A0BB9
:1016C0008091180790E08E54984F08950E94F40A74
:1016D0000E943A0B8091170790E008950E94F40A47
:1016E0000E943A0B8091160790E008950E94F40A38
:1016F0000E943A0B8091120790E008950E94F40A2C
:101700000E943A0B8091130790E008950E94F40A1A
:101710000E943A0B20911407222331F0822F90E08F
:101720002D3020F00C9708958CE090E008950E94F1
:10173000F40A0E943A0B8091140790E00895CF922A
:10174000DF92EF92FF92CF93DF93EC010E94E709C3
:101750006B017C018F850E945B069C0181E0211555
:10176000310509F480E0898B8889811105C091E0F9
:10177000232B09F090E0998B29898A89281721F079
:10178000CD8ADE8AEF8AF88E8D899E89AF89B88DE1
:10179000B701A601481B590B6A0B7B0BDB01CA0181
:1017A000CB80DC80ED80FE80C816D906EA06FB06F9
:1017B00064F43A81231749F02A83222349F04B89A4
:1017C0005C894F5F5F4F5C8B4B8B3A81311117C047
:1017D000CF80D884E984FA84C816D906EA06FB06C5
:1017E00034F48B899C89998388831C8A1B8A2A8B71
:1017F000DF91CF91FF90EF90DF90CF900895CB8451
:10180000DC84ED84FE84C816D906EA06FB067CF764
:101810008B899C89919581959109E5CF2091390615
:10182000260F3327331F21323105ECF42091E806CF
:10183000FC0190E080E0243069F082E00895A091FE
:1018400039062191AC01475E594FA40FB52FB11D48
:101850002C930196861798F380913906680F609350
:10186000390680E0089581E008951092E80681E04D
:101870008093E7061092C20661E084E10E9484062C
:1018800061E085E10E948406E9EBF0E080818E7FD3
:10189000808380818D7F808388E48093B80085E495
:1018A0008093BC000895CF93DF9391E09093180646
:1018B0008823B9F0C091B800D091BA008091BC00E3
:1018C0008A7B8093BC0060E084E10E94840660E033
:1018D00085E10E9484060E94350CD093BA00C09323
:1018E000B800DF91CF910895CF92DF92EF92FF92EF
:1018F0000F931F93CF93DF93D091110781E0D132E3
:1019000008F09CC0C09110070E94B4086B017C01D4
:101910008091E80681116CC082E08093E80681E046
:101920008093E7068FEF8093E6061092E506D0934A
:10193000E406A0EFB6E0E4ECF6E080E0D8138DC05A
:101940001092C3068091C306CC0FC82BC093C30668
:101950008091C206813009F084C01092C2060E94B4
:10196000B4086B017C018091C3068093BB00809119
:10197000EA069091EB06A091EC06B091ED06892B5A
:101980008A2B8B2BA1F00E94B4080091EA061091DB
:10199000EB062091EC063091ED066C197D098E095D
:1019A0009F09061717072807390708F442C08091D6
:1019B000BC0083FDD8CF85EC8093BC000E94B408A6
:1019C0006B017C018091E806823009F44CC0809163
:1019D000E6068F3F09F469C08091E606803209F47B
:1019E00066C08091E606803309F463C084E026C0B7
:1019F0008091EA069091EB06A091EC06B091ED067D
:101A0000892B8A2B8B2B09F483CF0E94B408009179
:101A1000EA061091EB062091EC063091ED066C1968
:101A20007D098E099F09061717072807390708F04F
:101A30006FCF8091E9060E94530C85E01092EF066B
:101A4000109211071092EE06DF91CF911F910F9126
:101A5000FF90EF90DF90CF9008959D9191938F5FCD
:101A60006DCF85EEA9CF8091EA069091EB06A0910B
:101A7000EC06B091ED06892B8A2B8B2B09F4A2CFB3
:101A80000E94B4080091EA061091EB062091EC0642
:101A90003091ED066C197D098E099F09061717070D
:101AA0002807390708F08ECFC4CF80E0C7CF82E087
:101AB000C5CF83E0C3CFCF92DF92EF92FF920F9317
:101AC0001F93CF93DF93D82FC62F613208F098C0B1
:101AD0000E94B4086B017C018091E80681116BC003
:101AE00081E08093E8068093E7069FEF9093E606F7
:101AF0001092E5069C0F9093E4068093C3068091B4
:101B0000C306DD0FD82BD093C3068091C206813067
:101B100009F078C01092C2060E94B4086B017C01E3
:101B20008091C3068093BB008091EA069091EB06FA
:101B3000A091EC06B091ED06892B8A2B8B2BA1F09E
:101B40000E94B4080091EA061091EB062091EC0681
:101B50003091ED066C197D098E099F09061717074C
:101B60002807390708F448C08091BC0083FDD8CF0E
:101B700085EC8093BC000E94B4086B017C018091CD
:101B8000E806813009F440C08091E5068C1710F416
:101B9000C091E506E4ECF6E0A2EAB6E080E08C1342
:101BA00055C08C2FDF91CF911F910F91FF90EF9037
:101BB000DF90CF9008958091EA069091EB06A09176
:101BC000EC06B091ED06892B8A2B8B2B09F484CF80
:101BD0000E94B4080091EA061091EB062091EC06F1
:101BE0003091ED066C197D098E099F0906171707BC
:101BF0002807390708F070CF8091E9060E94530C3E
:101C0000C0E0CFCF85EEB5CF8091EA069091EB068C
:101C1000A091EC06B091ED06892B8A2B8B2B09F451
:101C2000AECF0E94B4080091EA061091EB06209115
:101C3000EC063091ED066C197D098E099F09061797
:101C400017072807390708F09ACFD6CF91919D93AF
:101C50008F5FA5CF0895E091880680918706E817E9
:101C600030F4F0E0EE55F94F808190E008958FEF69
:101C70009FEF089590918806809187062FEF3FEFA0
:101C8000981748F4E92FF0E0EE55F94F208130E045
:101C90009F5F90938806C90108958091870690916F
:101CA0008806891B990B0895CF92DF92EF92FF92DD
:101CB0000F931F93CF93DF937C01CB018A01209177
:101CC000EE06222389F0EB016B01C40ED51ECC1564
:101CD000DD0569F06991D701ED91FC910190F081EA
:101CE000E02DC7011995F3CF642F0E940E0CC80197
:101CF000DF91CF911F910F91FF90EF90DF90CF90E8
:101D00000895CF93DF931F92CDB7DEB769832091FB
:101D1000EE062223F9F020911107203258F021E03D
:101D200030E0FC013383228390E080E00F90DF916C
:101D3000CF9108958091EF06E82FF0E0E051F94F40
:101D4000998190838F5F8093EF068093110781E0E4
:101D500090E0ECCF61E0CE0101960E940E0CF7CF2F
:101D6000DF92EF92FF920F931F93CF93DF93182F81
:101D7000F62ED42ED22F81E08093EE0688E6809353
:101D800010071092EF061092110760E081E698E0CC
:101D90000E94810ECAE08D2D6C2F0E94874682958D
:101DA000807F682F690F81E698E00E94810E8F2D59
:101DB0006C2F0E9487468295807F682F690F81E68D
:101DC00098E00E94810E812F6C2F0E948746829599
:101DD000807F682F690F81E698E00E94810E61E0A4
:101DE00081E698E00E94810E8D2F6C2F0E9487461D
:101DF0008295807F682F690F81E698E00E94810EAE
:101E0000802F6C2F0E9487468295807F682F690FF4
:101E100081E698E00E94810E8E2D6C2F0E948746ED
:101E20008295807F682F690F81E698E00E94810E7D
:101E300060E081E698E00E94810EDF91CF911F91D2
:101E40000F91FF90EF90DF900C94740C90E080E085
:101E50000895CF93DF93D0E0C0E040E050E0BA01B6
:101E6000CE010E9495022196C830D105B1F7DF91CD
:101E7000CF910C94D9084091F8055091F905209123
:101E8000F6053091F70580E09CE34217530711F403
:101E90008FEF9FEF4F5F5F4F4330510529F0509315
:101EA000F9054093F80508951092F9051092F80588
:101EB0002F5F3F4F2330310529F03093F7052093F2
:101EC000F60508951092F7051092F6050895CF9241
:101ED000DF92EF92FF920F931F93CF93DF93909136
:101EE000F50591110BC08FEF9FEFDF91CF911F91FF
:101EF0000F91FF90EF90DF90CF9008959091F405AF
:101F0000992389F3082FC091F305D0E08091EB0568
:101F100081110DC00E94E7096093E7057093E80501
:101F20008093E9059093EA0581E08093EB050E9498
:101F3000E709C090E705D090E805E090E905F0904A
:101F4000EA056C197D098E099F096D327140810582
:101F50009105B0F01091E6050E94E7096093E7054E
:101F60007093E8058093E9059093EA0591E0912745
:101F70009093E605992331F11092E5051092E4055E
:101F80002091E4053091E505209530958091E30599
:101F9000282326FF1CC081E08093E20527FF1AC09A
:101FA00081E08093E1058091E605882309F49BCFC9
:101FB00002C0D595C7950A95E2F7C0FF94CF80E09F
:101FC0009CE393CFD093E505C093E405D9CF10925D
:101FD000E205E4CF1092E105E6CFDF92EF92FF92A7
:101FE0000F931F93CF93DF930091DF051091E005CE
:101FF0000830110590F4D82FF8018827ED5FFF4EC7
:102000008F4F0C94FC460B1027102B100B10271031
:102010002D102F1040100E9463040F5F1F4F0830D7
:10202000110509F470C01093E0050093DF0560917D
:10203000D9057091DA058091DB059091DC05DF917F
:10204000CF911F910F91FF90EF90DF9008958CEC4E
:102050000E943904E2CF84E4FBCF8EEBF9CF98E005
:10206000E92EF12CC0E0D1E00E94E4038111CD2BD8
:10207000DD0F81E0E81AF108B9F7C093DD05CDCF97
:1020800088E0E82EF12CC0E0DD24D3940E94E40324
:102090008111CD29DD0C81E0E81AF108B9F7C09370
:1020A000DE056091DD057C2F6F3F760711F470E04F
:1020B00060E0072E000C880B990B0E94824420E000
:1020C00030E040E85DE30E94E144D1110FC020E020
:1020D00030E040E251E40E94E1446093D9057093FE
:1020E000DA058093DB059093DC0597CF26E636E68C
:1020F00046EE5FE30E94E14420E030E040E052E43D
:102100000E94D045E4CF1092E0051092DF058FCFFA
:10211000CF93DF93EC012196FC0120812A33C9F48F
:102120002181243609F5229630E020E06AE0899189
:1021300090ED980F9A3078F4629FA001639F500D44
:102140001124082E000C990BC0979A01280F391FF3
:10215000EECFCE01DFCF3093A7052093A605211542
:10216000310511F02093330288818F3689F48A81FA
:10217000082E000C990B9C01205331093093A705C0
:102180002093A605C397059710F420933202249656
:1021900088818236F1F4229630E020E06AE089916D
:1021A00090ED980F9A3068F4629FA001639F500DE4
:1021B0001124082E000C990BC0979A01280F391F83
:1021C000EECF3093A7052093A605309331022093DC
:1021D00030022091300230913102032E000C440B6A
:1021E000550B60E67AEE80E090E00E94DD4682E0EA
:1021F000220F331F441F551F8A95D1F72093A20544
:102200003093A3054093A4055093A505CE01DF911B
:10221000CF910895CF92DF92EF92FF920F931F9389
:10222000CF93DF93EC018B010E94E709CE80DF8022
:10223000E884F984AB01BC014C195D096E097F0982
:1022400088819981092E000CAA0BBB0B8417950776
:10225000A607B707A0F48A85882389F01A868D819E
:102260001C821D82823060F181E090E0DF91CF918D
:102270001F910F91FF90EF90DF90CF9008958B8585
:102280009C8580179107C9F481E08C838D818F5FD5
:102290008D830E94E7096E837F838887998781E019
:1022A0008A872D818A819B81281719064CF01C8210
:1022B0001D821A868FEF9FEFD9CF8C81811103C0C9
:1022C00090E080E0D3CF0F3F1F4FD1F7DFCF8EBD1F
:1022D00000000DB407FEFDCF8EB50895CF9381E0C9
:1022E0008093EE0688E6809310071092EF06109216
:1022F000110760E081E698E00E94810E0E94740C54
:1023000067E088E60E945B0D10928806809387063E
:1023100081E698E00E943A0E982F92959F70CAE04D
:102320008F709C9F800D112490E09093A006809365
:102330009F0681E698E00E943A0E982F92959F7032
:102340008F709C9F800D112490E09093970680934E
:10235000960681E698E00E943A0E982F9295937027
:102360008F709C9F800D112490E090939506809330
:10237000940681E698E00E943A0E81E698E00E9479
:102380003A0E982F92959F708F709C9F800D11240C
:1023900090E0909399068093980681E698E00E94D9
:1023A0003A0E982F92959F708F709C9F800D1124EC
:1023B00090E090939B0680939A0681E698E00E94B5
:1023C0003A0E982F92959F708F709C9F800D1124CC
:1023D00090E090939D0680939C06CF910895CF93B3
:1023E000DF93EC0188819981009711F00E94AF473B
:1023F000198218821D821C821B821A82DF91CF9162
:102400000895FC0180819181009711F00C94AF47F1
:1024100008958F929F92AF92BF920F931F93CF9385
:10242000DF93CDB7DEB7A1970FB6F894DEBF0FBE2E
:10243000CDBF19A2423008F44AE08E010F5D1F4F54
:10244000842E912CB12CA12CA50194010E94BB4695
:10245000E62FB901CA01EA3044F5E05DD801EE93F8
:102460008D01232B242B252B79F790E080E010970A
:1024700069F0FD0101900020E9F73197AF014A1B97
:102480005B0BBD0184EC97E00E949F04A1960FB600
:10249000F894DEBF0FBECDBFDF91CF911F910F919A
:1024A000BF90AF909F908F900895E95CD7CF42E0A6
:1024B00050E063E174E084EC97E00C949F04CF93C8
:1024C000DF930E948C05EC010E9457128C0F9D1F18
:1024D000DF91CF9108950F931F9380915B029091AC
:1024E0005C02892B09F44DC08091B1058823A9F0C5
:1024F0000E94E7090091AD051091AE052091AF054E
:102500003091B005601B710B820B930B693E7340D9
:1025100081059105B0F11092B1050E94970B2091B1
:102520005502309156028217930759F50E947E0B8F
:1025300020915702309158028217930711F50E949B
:10254000760B2091590230915A0282179307C9F4F1
:102550000E94E7096093AD057093AE058093AF05C7
:102560009093B00581E08093B10585E992E00E94E7
:102570005F12809138029091390290939306809374
:1025800092061F910F910895CF92DF92EF92FF92E2
:10259000CF93DF936C01990FEE08FF08F7FE1DC083
:1025A0006DE284EC97E00E943F05EC0166277727F7
:1025B000CB016C197D098E099F094AE00E9409121E
:1025C000C80FD91F0E9457128C0F9D1FDF91CF910A
:1025D000FF90EF90DF90CF9008954AE0C701B601D9
:1025E0000E940912EC01EECFCF93DF93682F70E0C9
:1025F00090E080E04AE00E940912EC010E9457122C
:102600008C0F9D1FDF91CF910895CF93DF93FC0135
:10261000448155816081718184EC97E00E949F0420
:10262000EC010E9457128C0F9D1FDF91CF910895EE
:10263000FC0180819181009711F00C940A4460E0C4
:1026400070E0CB0108950F931F93CF93DF938C011C
:10265000EB01FC01808191810097E1F06881798133
:1026600061157105A9F0428153812C813D8142178A
:10267000530770F00E9422498C819D81F801958357
:1026800084831D821C82DF91CF911F910F91089549
:102690000E94AF4788819981F801918380838A8164
:1026A0009B81938382838C819D819583848319820E
:1026B00018821B821A82E5CF0F931F93CF93DF936B
:1026C000EC0188819981009759F02A813B81261776
:1026D000370730F081E0DF91CF911F910F9108957E
:1026E0008B016F5F7F4F0E943848009759F09983A4
:1026F00088831B830A832C813D81232B59F7FC019E
:102700001082E8CF80E0E7CFEF92FF920F931F9304
:10271000CF93DF936115710541F480E0DF91CF9194
:102720001F910F91FF90EF90089541155105B1F061
:102730007B01EC010C811D81040F151FB8010E9463
:102740005C13882351F3288139818C819D81B701E5
:10275000820F931F0E9422491D830C8381E0DECFEC
:10276000CF93DF93EC01FB0101900020E9F7319753
:10277000AF01461B570B0E948413811103C0CE0189
:102780000E94EF11CE01DF91CF910895CF93DF9397
:10279000EC01FB0144815581608171810E948413A9
:1027A000811103C0CE010E94EF11CE01DF91CF91C4
:1027B0000895EF92FF920F931F93CF93DF93EC0155
:1027C0007B018A01BA010E945C1381110BC0CE010A
:1027D0000E94EF11CE01DF91CF911F910F91FF90D9
:1027E000EF9008951D830C83B701888199810E9421
:1027F0002249F0CFFB0101900020E9F73197AF01AA
:10280000461B570B0C94D9130F931F93CF93DF9351
:10281000CDB7DEB762970FB6F894DEBF0FBECDBF5F
:102820008C01CB01F8011182108213821282158271
:1028300014824AE0BE016F5F7F4F0E943144BE01A7
:102840006F5F7F4FC8010E94FA1362960FB6F8942B
:10285000DEBF0FBECDBFDF91CF911F910F910895C5
:10286000CF93DF93EC01FB018617970749F0608156
:1028700071816115710541F0448155810E94D91320
:10288000CE01DF91CF9108950E94EF11F9CFFC01A5
:102890001182108213821282158214820C943014D9
:1028A000FC01118210821382128215821482FB01B4
:1028B00001900020E9F73197AF01461B570B0C94AC
:1028C000D913AF92BF92CF92DF92EF92FF920F9304
:1028D0001F93CF93DF936C015B017A018901241769
:1028E000350720F48F2D7901042F182F65E174E04E
:1028F000C6010E945014D5011496CD91DC91EC16BE
:10290000FD06E0F40C171D0708F4E801D501ED9170
:10291000FC911197EC0FFD1F108110826D917C913D
:102920006E0D7F1DC60161157105A1F00E94FA139D
:10293000F50180819181C80FD91F1883C601DF91ED
:10294000CF911F910F91FF90EF90DF90CF90BF90AC
:10295000AF9008950E94EF11EBCF4F925F926F926C
:102960007F928F929F92AF92BF92CF92DF92EF921F
:10297000FF920F931F93CF93DF9300D000D0CDB77A
:10298000DEB77C014B015A018091FA0581113AC0F2
:1029900081E08093FA0599EB692E95E0792E23EB7F
:1029A000422E25E0522E10E000E00F5F1F4F68011D
:1029B00081E0C81AD1089801A601B401CE010196A0
:1029C0000E946114CE0101960E941813D3016D93E9
:1029D0003D01CE0101960E9401129801A601B501A8
:1029E000CE0101960E946114CE0101960E94181337
:1029F000F20161932F01CE0101960E94011206306F
:102A0000110599F69091B20589EBC82E85E0D82E74
:102A1000E3EBF5E08601A801D8018C919A3008F02B
:102A20004DC08F5F8C930F5F1F4FDA018C918A30FE
:102A300019F4D80111971C923196B5E00F3B1B0792
:102A400051F79F5F943109F43FC09093B20565E15F
:102A500074E0C7010E945014FE0131965F01D60157
:102A60008D916D014AE0B50190E00E943144F5017D
:102A700001900020E9F73197AF014A195B09B501D0
:102A8000C7010E9484130C151D0549F7C70126963E
:102A90000FB6F894DEBF0FBECDBFDF91CF911F916F
:102AA0000F91FF90EF90DF90CF90BF90AF909F90ED
:102AB0008F907F906F905F904F900895208128179E
:102AC00009F4B1CF8F5FAECF1092B2051092FA0524
:102AD000BECFCF92DF92EF92FF921F93CF93DF93FF
:102AE000CDB7DEB72C970FB6F894DEBF0FBECDBFC3
:102AF000182F69E374E0CE0107960E94501422E07B
:102B000030E050E040E0133071F024E030E042E08B
:102B100050E01C3041F01033B9F42091A4093091F9
:102B2000A50944E050E060EA79E0CE0101960E94F8
:102B30006114BE016F5F7F4FCE0107960E94231381
:102B4000CE0101960E940112CE0107960E94181331
:102B50006B01CE0107960E940112C6012C960FB69A
:102B6000F894DEBF0FBECDBFDF91CF911F91FF90D4
:102B7000EF90DF90CF9008958F929F92AF92BF9287
:102B8000CF92DF92EF92FF920F931F93CF93DF9339
:102B9000CDB7DEB72C970FB6F894DEBF0FBECDBF12
:102BA0008C016A017B018091D105811111C00E94C5
:102BB000E709645B7B4F8F4F9F4F6093CD05709308
:102BC000CE058093CF059093D00581E08093D10509
:102BD0008091C505811109C066E174E08FEB95E035
:102BE0000E94501481E08093C5050E94E7098090FF
:102BF000CD059090CE05A090CF05B090D005681976
:102C000079098A099B09693E73408105910508F499
:102C1000D0C00E94E7096093CD057093CE058093E4
:102C2000CF059093D00520E030E0A901C701B6019F
:102C30000E94724620E030E040E05FE387FDD2C0B2
:102C4000C701B6010E94D0450E943C467B0177FF38
:102C500004C0EE24FF24E61AF70A5B0139E1A31A47
:102C60003CEFB30A80915F02909160029B012D5965
:102C70003F4F69012A5531094901B701892B09F0F4
:102C8000B6C0CE0107960E9404146BE174E0CE0139
:102C900001960E945014BE01695F7F4FCE010196DC
:102CA0000E94C6136BE174E00E94B013BC018FEB6D
:102CB00095E00E943014CE0101960E940112CE01CF
:102CC00007960E9401123FECA31637E0B30618F5F1
:102CD000B701CE0107960E9404146AE174E0CE01A8
:102CE00001960E945014BE01695F7F4FCE0101968C
:102CF0000E94C6136BE174E00E94B013BC018FEB1D
:102D000095E00E943014CE0101960E940112CE017E
:102D100007960E94011287ECC816D10418F5B70176
:102D2000CE0107960E94041469E174E0CE01019679
:102D30000E945014BE01695F7F4FCE0101960E9430
:102D4000C6136BE174E00E94B013BC018FEB95E0F9
:102D50000E943014CE0101960E940112CE01079606
:102D60000E94011223E18216910418F5B701CE01E9
:102D700007960E94041468E174E0CE0101960E9457
:102D80005014BE01695F7F4FCE0101960E94C613A9
:102D90006BE174E00E94B013BC018FEB95E00E94E0
:102DA0003014CE0101960E940112CE0107960E94B6
:102DB00001126FEB75E0C8010E944714C8012C9600
:102DC0000FB6F894DEBF0FBECDBFDF91CF911F913C
:102DD0000F91FF90EF90DF90CF90BF90AF909F90BA
:102DE0008F900895C701B6010E94CF452DCFCE0127
:102DF00007960E9404146BE174E0CE0101960E94D4
:102E00005014BE01695F7F4FCE0101960E94C61328
:102E10006BE174E00E94B013BC018FEB95E00E945F
:102E20003014CE0101960E940112CE0107960E9435
:102E300001123FECA31637E0B30638F5C7016AE08C
:102E400070E00E94A746CE0107960E9404146AE132
:102E500074E0CE0101960E945014BE01695F7F4F5D
:102E6000CE0101960E94C6136AE174E00E94B0137D
:102E7000BC018FEB95E00E943014CE0101960E94B8
:102E80000112CE0107960E94011287ECC816D104E8
:102E900038F5C7016AE070E00E94A746CE010796A8
:102EA0000E94041469E174E0CE0101960E9450145E
:102EB000BE01695F7F4FCE0101960E94C6136AE191
:102EC00074E00E94B013BC018FEB95E00E943014B7
:102ED000CE0101960E940112CE0107960E940112B6
:102EE00023E18216910408F064CFC7016AE070E024
:102EF0000E94A746CE0107960E94041468E174E080
:102F0000CE0101960E945014BE01695F7F4FCE0131
:102F100001960E94C6136AE174E03CCF0F931F93A1
:102F2000CF93DF93CDB7DEB7A4970FB6F894DEBF8B
:102F30000FBECDBF8B01833009F069C02091A40979
:102F40003091A50942E050E060EA79E0CE0149966F
:102F50000E946114B80117FF04C066277727601B21
:102F6000710B075F1F4FCE010331110508F04AC0F6
:102F700007960E9404146BE174E0CE0101960E9452
:102F80005014BE01695F7F4FCE0101960E94C613A7
:102F9000BC01CE010D960E94471411E0BE01635F93
:102FA0007F4FCE0143960E944714BE01675E7F4F5C
:102FB000CE0143960E94C613BC0180EA99E00E94AC
:102FC0003014CE0143960E940112CE010D960E944C
:102FD0000112112341F0CE0101960E940112CE018F
:102FE00007960E940112CE0149960E940112A496F2
:102FF0000FB6F894DEBF0FBECDBFDF91CF911F910A
:103000000F9108950D960E94041410E0C7CF8C30E4
:1030100009F070C02091A4093091A50944E050E066
:1030200060EA79E0CE014F960E946114B80117FF63
:1030300004C066277727601B710B075F1F4FCE0107
:103040000331110508F051C043960E9404146BE14E
:1030500074E0CE010D960E945014BE016D5E7F4F4C
:10306000CE010D960E94C613BC01CE0149960E9466
:10307000471411E022E030E050E040E060EA79E0FF
:10308000CE0101960E946114BE016F5F7F4FCE0199
:1030900007960E944714BE01675E7F4FCE010796D8
:1030A0000E94C613BE01615E7F4F0E94C613BC0121
:1030B00080EA99E00E943014CE0107960E94011226
:1030C000CE0101960E940112CE0149960E94011282
:1030D000112341F0CE010D960E940112CE014396BC
:1030E0000E940112CE014F9680CF49960E9404148F
:1030F00010E0C0CF803309F07ACF77FF04C0662795
:103100007727601B710B075F1F4FCE01033111053D
:1031100008F049C043960E9404146BE174E0CE01AC
:103120000D960E945014BE016D5E7F4FCE010D962C
:103130000E94C613BC01CE0149960E94471411E0BB
:1031400024E030E050E040E060EA79E0CE01019612
:103150000E946114BE016F5F7F4FCE0107960E94EF
:103160004714BE01675E7F4FCE0107960E94C613CB
:10317000BC0180EA99E00E943014CE0107960E94BB
:103180000112CE0101960E940112CE0149960E94C1
:103190000112112309F42BCFCE010D960E940112CA
:1031A000CE01439622CF49960E94041410E0C8CF66
:1031B0000E94E7096093A9057093AA058093AB0567
:1031C0009093AC058091A805882309F44FC0209105
:1031D000FC053091FD05C901880F991F213131058A
:1031E000A1F1FC01E55CFD4F408151814150510945
:1031F00051834083DC01A55CBD4F6D917C9111979B
:10320000FC01E554FC4F40815181641775073CF483
:10321000FC01E158FC4F408151814D935C9320317A
:10322000310509F520915B0230915C0221303105B6
:10323000B9F420E82093E305855C9D4FFC01608193
:1032400071818091F3050C948E1740915D0250912D
:103250005E024C50510950935E0240935D02CACF0A
:103260001092E305E9CF2930310531F708950E9426
:10327000E7096093A9057093AA058093AB05909325
:10328000AC058091A805882309F444C02091FC0571
:103290003091FD05C901880F991F2131310561F178
:1032A000FC01E55CFD4F408151814F5F5F4F5183D1
:1032B0004083DC01A55CBD4F6D917C911197FC01B1
:1032C000E158FC4F40815181461757073CF4FC01FF
:1032D000E554FC4F408151814D935C932031310581
:1032E000B1F41092E305855C9D4FFC016081718112
:1032F0008091F3050C948E1740915D0250915E020F
:10330000445F5F4F50935E0240935D02D2CF2930FD
:10331000310549F70895DF92EF92FF920F931F93C3
:10332000CF93DF93CDB7DEB7EC970FB6F894DEBF3F
:103330000FBECDBF8C0180915D0290915E024897D7
:1033400009F038C10E94760B181619060CF0D2C08D
:103350000E94760B0A970CF0D9C00E94760B1816C3
:1033600019060CF0CDC00E94760BBC01CE01C196AF
:103370000E9404146BE174E0CE018B960E945014FD
:10338000BE016F5C7F4FCE018B960E94C613BC01BD
:10339000CE01C7960E944714FF24F3940E947E0B2F
:1033A000181619060CF0C6C00E947E0B0A970CF086
:1033B000CDC00E947E0B181619060CF0C1C00E94E9
:1033C0007E0BBC01CE014F960E9404146BE174E0A9
:1033D000CE0149960E945014BE01615E7F4FCE011E
:1033E00049960E94C613BC01CE0185960E944714DF
:1033F000EE24E3940E94970B181619060CF0BAC03D
:103400000E94970B0A970CF0C1C00E94970B1816E8
:1034100019060CF0B5C00E94970BBC01CE010796AF
:103420000E9404146BE174E0CE0101960E945014D6
:10343000BE01695F7F4FCE0101960E94C613BC0199
:10344000CE010D960E944714DD24D394BE01635F24
:103450007F4FCE0143960E944714BE016B5D7F4FA4
:10346000CE0143960E94C613BE01695C7F4F0E9445
:10347000C613BC01C8010E944714CE0143960E94A6
:103480000112CE010D960E940112DD2041F0CE0105
:1034900001960E940112CE0107960E940112CE01F0
:1034A00085960E940112EE2041F0CE0149960E94BD
:1034B0000112CE014F960E940112CE01C7960E94C2
:1034C0000112FF2041F0CE018B960E940112CE0125
:1034D000C1960E940112C801EC960FB6F894DEBFA7
:1034E0000FBECDBFDF91CF911F910F91FF90EF9055
:1034F000DF9008950E94760B9195819591092ACFCE
:103500000E94760B9195819591092FCF0E94760BA1
:10351000181619064CF40E94760BBC01CE01C79612
:103520000E940414F12C3ACF0E94760B919581955C
:103530009109F3CF0E947E0B91958195910936CF29
:103540000E947E0B9195819591093BCF0E947E0B45
:10355000181619064CF40E947E0BBC01CE0185960C
:103560000E940414E12C46CF0E947E0B9195819518
:103570009109F3CF0E94970B91958195910942CFC4
:103580000E94970B91958195910947CF0E94970BC7
:10359000181619064CF40E94970BBC01CE010D962B
:1035A0000E940414D12C52CF0E94970B91958195C3
:1035B0009109F3CF0E94760B181619060CF066C01D
:1035C0000E94760B0A970CF06DC00E94760B1816BD
:1035D00019060CF061C00E94760BBC01CE01C196A9
:1035E0000E9404146BE174E0CE018B960E9450148B
:1035F000BE016F5C7F4FCE018B960E94C613BC014B
:10360000CE01C7960E944714FF24F3940E947E0BBC
:10361000181619060CF05AC00E947E0B0A970CF07F
:1036200061C00E947E0B181619060CF055C00E944E
:103630007E0BBC01CE014F960E9404146BE174E036
:10364000CE0149960E945014BE01615E7F4FCE01AB
:1036500049960E94C613BC01CE0185960E9447146C
:10366000EE24E3940E94860B181619060CF04EC047
:103670000E94860B0A970CF052C00E94860B181607
:1036800019060CF049C00E94860BC7CE0E94760B2B
:1036900091958195910996CF0E94760B9195819590
:1036A00091099BCF0E94760B181619064CF40E94C4
:1036B000760BBC01CE01C7960E940414F12CA6CF54
:1036C0000E94760B919581959109F3CF0E947E0B14
:1036D000919581959109A2CF0E947E0B919581953C
:1036E0009109A7CF0E947E0B181619064CF40E9470
:1036F0007E0BBC01CE0185960E940414E12CB2CF52
:103700000E947E0B919581959109F3CF0E94860BC3
:10371000919581959109AECF0E94860B33CF0E947F
:10372000860B181619061CF40E94860B36CF0E94D1
:10373000860B3CCFEF92FF920F931F93CF93DF93B3
:10374000CDB7DEB7CE54D1090FB6F894DEBF0FBEA9
:10375000CDBF8091100681110DC00E94E7096093D2
:103760000C0670930D0680930E0690930F0681E071
:10377000809310068091040681110DC00E94E70914
:1037800060930006709301068093020690930306EF
:1037900081E0809304060E94E70900910C061091D5
:1037A0000D0620910E0630910F06601B710B820BE7
:1037B000930B009134021091350220913602309122
:1037C0003702061717072807390708F04DC00E946F
:1037D000E70960930C0670930D0680930E06909394
:1037E0000F068091FE059091FF05009709F0D3C266
:1037F00081E090E09093FD058093FC0588E893E1DB
:10380000A0E0B0E08093340290933502A09336029A
:10381000B09337028091FE059091FF0582309105AB
:1038200081F41092FD051092FC0540E65AEE60E02E
:1038300070E04093340250933502609336027093E7
:1038400037020196833091050CF0C5C29093FF05B5
:103850008093FE058091FB05882321F01092FD05E1
:103860001092FC051092FB050E94E70900910C06DE
:1038700010910D0620910E0630910F06601B710B02
:10388000820B930B603D77408105910508F082C65D
:103890000E94E7090091000610910106209102069E
:1038A00030910306601B710B820B930B653671051B
:1038B0008105910508F461C20E94E7096093000642
:1038C0007093010680930206909303061091890677
:1038D0008091FC059091FD05112309F467C3892BA4
:1038E00089F5CE0107960E948B1981E020915F0235
:1038F00030916002232B09F480E00E94ED0FAB01B0
:10390000BC01CE010D960E94BC15AE01495F5F4F10
:10391000BE01635F7F4FCE0101960E94AD14BE01D0
:103920006F5F7F4F80EA99E00E942313CE010196DA
:103930000E940112CE010D960E940112CE0107963F
:103940000E9401128091FC059091FD05019709F0FC
:1039500001C10E945C0B28EEE22E23E0F22EB7019B
:103960000E94A746181619060CF03AC20E945C0B7A
:10397000B7010E94A7460A970CF044C20E945C0B54
:1039800008EEE02E03E0F02EB7010E94A7461816BD
:1039900019060CF02EC20E945C0BB7010E94A746CC
:1039A000BC01CE0143960E9404146BE174E0CE0189
:1039B00049960E945014BE016D5E7F4FCE0149961C
:1039C0000E94C613BC01CE010D960E944714012F20
:1039D0000E94660B181619060CF035C20E94660B81
:1039E0000A970CF03CC20E94660B181619060CF0E0
:1039F00030C20E94660BBC01CE0185960E94041461
:103A00006BE174E0CE018B960E945014BE016B5D99
:103A10007F4FCE018B960E94C613BC01CE014F96FC
:103A20000E944714F12E0E946E0B181619060CF016
:103A30002AC20E946E0B0A970CF031C20E946E0BD4
:103A4000181619060CF025C20E946E0BBC01CE019F
:103A5000CD960E9404146BE174E0CE018D5B9F4F04
:103A60000E945014BE01635C7F4FCE018D5B9F4F5F
:103A70000E94C613BC01CE01C7960E944714E12ED6
:103A8000BE01695C7F4FCE01C1960E944714BE0102
:103A9000615E7F4FCE01C1960E94C613BE01635F77
:103AA0007F4F0E94C613BC01CE0107960E944714A7
:103AB000CE01875B9F4F0E948B19AE01495F5F4F1C
:103AC000BE01675B7F4FCE0101960E94AD14BE011F
:103AD0006F5F7F4F80EA99E00E942313CE01019629
:103AE0000E940112CE01875B9F4F0E940112CE01FE
:103AF00007960E940112CE01C1960E940112CE01CA
:103B0000C7960E940112EE2049F0CE018D5B9F4FB7
:103B10000E940112CE01CD960E940112CE014F9655
:103B20000E940112FF2041F0CE018B960E940112EB
:103B3000CE0185960E940112CE010D960E940112BF
:103B4000002341F0CE0149960E940112CE01439616
:103B50000E9401128091FC059091FD05049709F0E7
:103B60000CC181E020915F0230916002232B09F4A7
:103B700080E00E94ED0FAB01BC01CE0107960E94D0
:103B8000BC150E945C0BA8EEEA2EA3E0FA2EB7014A
:103B90000E94A746181619060CF095C10E945C0BEE
:103BA000B7010E94A7460A970CF09FC10E945C0BC8
:103BB000F8EEEF2EF3E0FF2EB7010E94A74618168D
:103BC00019060CF089C10E945C0BB7010E94A74640
:103BD000BC01CE0149960E9404146BE174E0CE0151
:103BE0004F960E945014BE01675E7F4FCE014F96E4
:103BF0000E94C613BC01CE0143960E944714012FB8
:103C00000E94660B181619060CF090C10E94660BF4
:103C10000A970CF097C10E94660B181619060CF053
:103C20008BC10E94660BBC01CE018B960E940414CE
:103C30006BE174E0CE01C1960E945014BE01655D37
:103C40007F4FCE01C1960E94C613BC01CE0185965E
:103C50000E944714F12E0E946E0B181619060CF0E4
:103C600085C10E946E0B0A970CF08CC10E946E0BEE
:103C7000181619060CF080C10E946E0BBC01CE0113
:103C80008D5B9F4F0E9404146BE174E0CE01875B53
:103C90009F4F0E945014BE016D5B7F4FCE01875B2A
:103CA0009F4F0E94C613BC01CE01CD960E944714BF
:103CB000BE01635C7F4FCE01C7960E944714BE01D0
:103CC0006B5D7F4FCE01C7960E94C613BE016D5E2D
:103CD0007F4F0E94C613BC01CE010D960E9447146F
:103CE000AE01495F5F4FBE01635F7F4FCE0101961A
:103CF0000E94AD14BE016F5F7F4F80EA99E00E9481
:103D00002313CE0101960E940112CE010D960E944E
:103D10000112CE01C7960E940112CE01CD960E94DB
:103D20000112112351F0CE01875B9F4F0E940112B7
:103D3000CE018D5B9F4F0E940112CE0185960E949D
:103D40000112FF2041F0CE01C1960E940112CE0166
:103D50008B960E940112CE0143960E94011200230D
:103D600041F0CE014F960E940112CE0149960E9469
:103D70000112CE0107960E940112C25BDF4F0FB6FF
:103D8000F894DEBF0FBECDBFDF91CF911F910F9191
:103D9000FF90EF900895019709F03CCD84E090E00A
:103DA0009093FD058093FC0588E893E1A0E0B0E0E6
:103DB0008093340290933502A0933602B093370279
:103DC000809189068111E9C382E090E09093FF051C
:103DD0008093FE051FCD1092FF051092FE053ACD8F
:103DE0000E945C0BB7010E94A746919581959109AD
:103DF000C2CD0E945C0BB7010E94A74691958195A8
:103E00009109CECD0E945C0BB8EEEB2EB3E0FB2EF9
:103E1000B7010E94A7461816190664F40E945C0BAD
:103E2000B7010E94A746BC01CE010D960E94041462
:103E300000E0CECD0E945C0BB7010E94A746919591
:103E400081959109F0CF0E94660B9195819591091A
:103E5000C7CD0E94660B919581959109CCCD0E94AA
:103E6000660B181619064CF40E94660BBC01CE01B5
:103E70004F960E940414F12CD6CD0E94660B9195AA
:103E800081959109F3CF0E946E0B919581959109CF
:103E9000D2CD0E946E0B919581959109D7CD0E944C
:103EA0006E0B181619064CF40E946E0BBC01CE0165
:103EB000C7960E940414E12CE3CD0E946E0B9195ED
:103EC00081959109F3CF0E945C0BB7010E94A74630
:103ED00091958195910967CE0E945C0BB7010E9474
:103EE000A74691958195910973CE0E945C0BE8EEEF
:103EF000EE2EE3E0FE2EB7010E94A7461816190623
:103F000064F40E945C0BB7010E94A746BC01CE017D
:103F100043960E94041400E073CE0E945C0BB7012C
:103F20000E94A746919581959109F0CF0E94660B5A
:103F30009195819591096CCE0E94660B9195819522
:103F4000910971CE0E94660B181619064CF40E9456
:103F5000660BBC01CE0185960E940414F12C7BCE29
:103F60000E94660B919581959109F3CF0E946E0B8B
:103F700091958195910977CE0E946E0B91958195CF
:103F800091097CCE0E946E0B181619064CF40E9403
:103F90006E0BBC01CE01CD960E94041410E088CEB9
:103FA0000E946E0B919581959109F3CF892B09F0B1
:103FB00003C1CE0107960E948B190E945C0B78EE1C
:103FC000E72E73E0F72EB7010E94A74618161906D0
:103FD0000CF0FBC10E945C0BB7010E94A7460A9738
:103FE0000CF005C20E945C0B68EEE62E63E0F62E34
:103FF000B7010E94A746181619060CF0EFC10E94DF
:104000005C0BB7010E94A746BC01CE0149960E94F5
:1040100004146BE174E0CE014F960E945014BE016F
:10402000675E7F4FCE014F960E94C613BC01CE0142
:1040300043960E94471401E00E94660B1816190669
:104040000CF0F6C10E94660B0A970CF0FDC10E94AD
:10405000660B181619060CF0F1C10E94660BBC0124
:10406000CE018B960E9404146BE174E0CE01C196E0
:104070000E945014BE01655D7F4FCE01C1960E9423
:10408000C613BC01CE0185960E944714FF24F39409
:104090000E946E0B181619060CF0EAC10E946E0BF6
:1040A0000A970CF0F1C10E946E0B181619060CF05D
:1040B000E5C10E946E0BBC01CE018D5B9F4F0E943B
:1040C00004146BE174E0CE01875B9F4F0E94501493
:1040D000BE016D5B7F4FCE01875B9F4F0E94C61371
:1040E000BC01CE01CD960E944714EE24E394BE019C
:1040F000635C7F4FCE01C7960E944714BE016B5D83
:104100007F4FCE01C7960E94C613BE016D5E7F4FE2
:104110000E94C613BC01CE010D960E944714AE0149
:10412000495F5F4FBE01635F7F4FCE0101960E94E2
:10413000AD14BE016F5F7F4F80EA99E00E942313A8
:10414000CE0101960E940112CE010D960E9401122D
:10415000CE01C7960E940112CE01CD960E94011297
:10416000EE2051F0CE01875B9F4F0E940112CE01DD
:104170008D5B9F4F0E940112CE0185960E94011215
:10418000FF2041F0CE01C1960E940112CE018B9614
:104190000E940112CE0143960E940112002341F0B9
:1041A000CE014F960E940112CE0149960E94011243
:1041B000CE0107960E9401128091FC059091FD05A9
:1041C000019709F0DACD0E945C0B48EEE42E43E043
:1041D000F42EB7010E94A746181619060CF068C104
:1041E0000E945C0BB7010E94A7460A970CF072C1AF
:1041F0000E945C0B38EEE32E33E0F32EB7010E94F1
:10420000A746181619060CF05CC10E945C0BB7019A
:104210000E94A746BC01CE0143960E9404146BE1A4
:1042200074E0CE0149960E945014BE016D5E7F4F2E
:10423000CE0149960E94C613BC01CE010D960E9484
:10424000471401E00E94660B181619060CF063C1B2
:104250000E94660B0A970CF06AC10E94660B181642
:1042600019060CF05EC10E94660BBC01CE0185965A
:104270000E9404146BE174E0CE018B960E945014EE
:10428000BE016B5D7F4FCE018B960E94C613BC01B1
:10429000CE014F960E944714FF24F3940E946E0BA8
:1042A000181619060CF057C10E946E0B0A970CF0F5
:1042B0005EC10E946E0B181619060CF052C10E94C6
:1042C0006E0BBC01CE01CD960E9404146BE174E02C
:1042D000CE018D5B9F4F0E945014BE01635C7F4FE7
:1042E000CE018D5B9F4F0E94C613BC01CE01C796C5
:1042F0000E94471411E0BE01695C7F4FCE01C19658
:104300000E944714BE01615E7F4FCE01C1960E949C
:10431000C613BE01635F7F4F0E94C613BC01CE016E
:1043200007960E944714CE01875B9F4F0E948B190E
:10433000AE01495F5F4FBE01675B7F4FCE010196C3
:104340000E94AD14BE016F5F7F4F80EA99E00E942A
:104350002313CE0101960E940112CE01875B9F4F6D
:104360000E940112CE0107960E940112CE01C19651
:104370000E940112CE01C7960E940112112349F03A
:10438000CE018D5B9F4F0E940112CE01CD960E94FF
:104390000112CE014F960E940112FF2041F0CE0182
:1043A0008B960E940112CE0185960E940112CE01C9
:1043B0000D960E940112002309F4DFCCCE0149962C
:1043C0000E940112CE014396D6CC0E945C0BB7012D
:1043D0000E94A74691958195910901CE0E945C0BA0
:1043E000B7010E94A7469195819591090DCE0E9433
:1043F0005C0B58EEE52E53E0F52EB7010E94A74660
:104400001816190664F40E945C0BB7010E94A746B7
:10441000BC01CE0143960E94041400E00DCE0E9420
:104420005C0BB7010E94A746919581959109F0CF49
:104430000E94660B91958195910906CE0E94660BAC
:104440009195819591090BCE0E94660B181619065D
:104450004CF40E94660BBC01CE0185960E940414A8
:10446000F12C16CE0E94660B919581959109F3CFA0
:104470000E946E0B91958195910912CE0E946E0B50
:1044800091958195910917CE0E946E0B1816190609
:104490004CF40E946E0BBC01CE01CD960E94041418
:1044A000E12C25CE0E946E0B919581959109F3CF59
:1044B0000E945C0BB7010E94A746919581959109D6
:1044C00094CE0E945C0BB7010E94A74691958195FE
:1044D0009109A0CE0E945C0B28EEE22E23E0F22E82
:1044E000B7010E94A7461816190664F40E945C0BD7
:1044F000B7010E94A746BC01CE010D960E9404148C
:1045000000E0A0CE0E945C0BB7010E94A7469195E7
:1045100081959109F0CF0E94660B91958195910943
:1045200099CE0E94660B9195819591099ECE0E942D
:10453000660B181619064CF40E94660BBC01CE01DE
:104540004F960E940414F12CA9CE0E94660B9195FF
:1045500081959109F3CF0E946E0B919581959109F8
:10456000A5CE0E946E0B919581959109AACE0E94CD
:104570006E0B1816190644F40E946E0BBC01CE0196
:10458000C7960E940414B7CE0E946E0B9195819538
:104590009109F4CF1092FA05F0CB81E090E051C977
:1045A00085ED8093BC008091EA069091EB06A09186
:1045B000EC06B091ED060796A11DB11D23E0B6955E
:1045C000A795979587952A95D1F72091BC0024FD52
:1045D00003C01092E80608954091EA065091EB0658
:1045E0006091EC067091ED06452B462B472B69F345
:1045F0000097A105B10541F025E32A95F1F70000E8
:104600000197A109B109E1CF8091E9060C94530CFF
:104610000C94A7450C949F458F929F92AF92BF92A6
:10462000CF92DF92EF92FF920F931F93CF93DF937E
:1046300088E090E00E940A23C82FC82ED12C89E080
:1046400090E00E940A23882EE82EF12C8AE090E068
:104650000E940A23082F10E0912CB12CA12CBA2C17
:10466000A92C982C8824AC2A882AD0E0C0E0B50177
:10467000A401CE010E9495022196C830D105B9F758
:104680000E94D9088FEC92E00E945F128AEC92E0BF
:104690000E948C05C6010E94C41283EC92E00E9425
:1046A0008C05C7010E94C4128DEB92E00E948C051C
:1046B000C801DF91CF911F910F91FF90EF90DF9094
:1046C000CF90BF90AF909F908F900C94C4122F9278
:1046D0003F924F925F926F927F928F929F92AF9292
:1046E000BF92CF92DF92EF92FF920F931F93CF93DF
:1046F000DF93CDB7DEB7C055D1090FB6F894DEBF52
:104700000FBECDBF0E94E70920E137E240E050E054
:104710000E94BB46672B682B692B01F580919E0692
:104720008823E1F00E946E11E0909C06F0909D06B7
:1047300000919A0610919B06209198063091990657
:1047400040919F065091A006609196067091970641
:1047500080919406909195060E94180A0E94E7099C
:1047600060939E0570939F058093A0059093A1058B
:1047700000919A0510919B0520919C0530919D0513
:10478000601B710B820B930B00912C0210912D0278
:1047900020912E0230912F0206171707280739079C
:1047A000E0F580919905811107C08BE792E00E94A6
:1047B0005F1281E08093990587E297E00E94FD04F3
:1047C000892B59F187E297E00E94DB0490913D0527
:1047D000E92FF0E0E651FB4F80839F5F923509F4AB
:1047E00044C190933D058A30C1F4E0913D05F0E06D
:1047F000E651FB4F108210923D05EBEEF4E021E014
:1048000030E040E05191C90101965A3209F430C1BB
:1048100045279C0183359105A9F740919E0550914C
:104820009F056091A0057091A10580919A059091D6
:104830009B05A0919C05B0919D058A019B01081BD9
:10484000190B2A0B3B0B80912C0290912D02A09109
:104850002E02B0912F02805A9541AF4FBF4F801763
:104860009107A207B30770F440939A0550939B05F4
:1048700060939C0570939D058BE592E00E945F120A
:104880001092990510928D0510928E0510928F0549
:104890001092900584E798E0909394058093930597
:1048A0000091710810E01093960500939505809192
:1048B0003E0990E0909398058093970580916D084C
:1048C0008530A1F5809171088A3108F4ABC28091DE
:1048D000740890917508843F914008F074C210925A
:1048E0009205109291058FEF9FEFDC0180938D056B
:1048F00090938E05A0938F05B09390058BE090E088
:1049000090938A058093890560918D0570918E053D
:1049100080918F059091900540E10E9409120E94BC
:10492000571282E080936D081092710860918D0596
:1049300070918E058EEC99E00E940A119093880583
:1049400080938705019721F480E592E00E945F1231
:104950008091870590918805019621F482E492E088
:104960000E945F1260918D0570918E0581EC99E037
:104970000E940A119093860580938505019721F482
:1049800089E392E00E945F128091850590918605EF
:10499000019621F48DE292E00E945F1260918D05F4
:1049A00070918E0584EB99E00E940A119093840522
:1049B00080938305019721F482E292E00E945F12C6
:1049C0008091830590918405019621F484E192E021
:1049D0000E945F120091920610919306F801808167
:1049E000882309F491C30E94E709C0904405D09040
:1049F0004505E0904605F09047056C197D098E0944
:104A00009F09C0904005D0904105E0904205F0908C
:104A10004305C616D706E806F90608F075C30E94D6
:104A2000E7094B015C018092440590924505A092F4
:104A30004605B0924705780130E020E04AE0F801F1
:104A4000D1908F0180ED8D0D8A3008F093C2429F86
:104A5000C001439F900D11242D2DDD0C330B2053ED
:104A60003109280F391F7F01EACF10923D05BBCED7
:104A700086519B4FFC01808181340CF087538295D5
:104A8000807F26513B4FF901928191340CF492C101
:104A90009753890F4813C1CE8091EA04843209F0FC
:104AA000BCCE8091ED04823509F0B7CE8091EE0442
:104AB0008D3409F0B2CE8091EF04833409F0ADCE8D
:104AC000A090F1049090F204B090F3044090F404AC
:104AD000C090F5045090F604A6EFB4E090E080E0BA
:104AE000ECE0F0E02D912C3209F066C1019688309F
:104AF000910509F061C1EF5FF0E0E651FB4FE08006
:104B0000F180728083808481082E000C990BC097FD
:104B10000AE0D02ED89E8001D99E100D112400539A
:104B2000184F8581080F111D87FD1A950053110933
:104B300046EF57E062EE77E0C8010E94E543882324
:104B400009F46BCE872D770C990BC097D89E300156
:104B5000D99E700C1124680C711C87FC7A94F0E3C8
:104B60006F1A71084CE050E061E070E0C3010E94F0
:104B7000E543882309F451CE8E2DEE0C990BC09796
:104B8000D89E9001D99E300D1124C9018F0D911D21
:104B9000F7FC9A957C0190E3E91AF1084FE150E0A7
:104BA00061E070E0C7010E94E543882309F435CE37
:104BB0008A2DAA0C990BC097D89E9001D99E300DD2
:104BC0001124F901E90DF11D97FCFA954F01F0E36D
:104BD0008F1A910847E150E070E060E0C4010E9444
:104BE000E543882309F419CE8B2DBB0C990BC09794
:104BF000D89E5001D99EB00C1124A40CB11C47FCC6
:104C0000BA9420E3A21AB1084BE350E070E060E0F0
:104C1000C5010E94E543882309F4FFCD8C2DCC0CFF
:104C2000990BC097D89E9001D99E300D112469012F
:104C3000C50CD11C57FCDA9430E3C31AD1084BE3FE
:104C400050E070E060E0C6010E94E543882309F46B
:104C5000E4CD8092DB09A092DC09C092DD09E092EC
:104C6000DE096092DF091093E1090093E0090E94D8
:104C7000E7096B017C01C092E309D092E409E0925C
:104C8000E509F092E6090E94E7096C197D098E0991
:104C90009F09693B7B408105910508F0BECD88ECFA
:104CA00091E00E945F128091DB090E94F4128091D2
:104CB000DC090E94F4128091DD090E94F4128091B7
:104CC000E0099091E10918EEC12E13E0D12EB60152
:104CD0000E94A7467C010091DF0910E02091DE09C7
:104CE00030E04091DD0950E06091DC0970E0809196
:104CF000DB0990E00E94180AA0916102B091620263
:104D000020E13EE00E94044700916A0610916B0684
:104D100020916C0630916D06DC01CB01800F911F54
:104D2000A21FB31F80936A0690936B06A0936C0634
:104D3000B0936D060E94F40A0E9409030E945C0B66
:104D40004C010E94660B082F0E946E0BB82E0E9429
:104D5000760BF82E0E947E0B182F0E94970B382F8F
:104D6000C401B6010E94A746E82E2B2D4F2D612FBE
:104D7000832F0E94B00E80919E0590919F05A09177
:104D8000A005B091A10580939A0590939B05A093EF
:104D90009C05B0939D0580E497E7ABE1B0E080937C
:104DA0002C0290932D02A0932E02B0932F0210920A
:104DB000990533CD90536DCE3196E335F10509F069
:104DC00091CEE0E099CE8091760890917708859712
:104DD0004B9740F5EDE6F8E082E090E040E050E0EF
:104DE000BA01DC011196209171082A171B0609F0FF
:104DF0000CF496C0238534852750310927303105BE
:104E000008F08DC025853685235131092F303105B5
:104E100008F478C0258536852A50310929303105B6
:104E200008F478C0063011050CF47BCD2DE638E08F
:104E300061963FAF2EAF619753E0252E312C65EC84
:104E4000C62E6DE9D62E6CE1E62E61E8F62E201610
:104E500031060CF07EC06196EEADFFAD61976585C1
:104E60007685A184B28490E080E00E9480442B018A
:104E70003C01B50190E080E00E9480444B015C0160
:104E80002DEC3CEC4CE45FE30E94E1449B01AC015F
:104E9000C301B2010E947B44F0E0E0E087FD14C052
:104EA0002DEC3CEC4CE45FE3C301B2010E94E14411
:104EB0009B01AC01C501B4010E947B44E2E0F0E03B
:104EC00087FD02C0E1E0F0E0A701960163E971E02F
:104ED00080E091E00E9477466F01FF0FEE08FF0827
:104EE000C626D726E826F926FFEF2F1A3F0A619635
:104EF0002EAD3FAD61972E5F3F4F61963FAF2EAF16
:104F00006197A5CF440F551F661F771F416002961A
:104F1000349667CF440F551F661F771FF8CFCD011A
:104F200001979595879590939205809391050C979D
:104F30002CF4109292051092910574CF40938D0538
:104F400050938E0560938F057093900584E090E0F8
:104F5000D7CCC0928D05D0928E05E0928F05F0924D
:104F6000900580E290E090939205809391058FEFF9
:104F70009FEFC6CC3093A7052093A6056091A205AC
:104F80007091A3058091A4059091A5052115310587
:104F900011F1032E000C440B550B0E94DD462093AB
:104FA0004005309341054093420550934305EFE996
:104FB000ED0DE730B0F40E2E000CFF0B8827EC51FE
:104FC000F84D8F4F0C94FC46962998298A298E29F2
:104FD0009029922994292091330230E050E040E05A
:104FE000DCCF10923F05F7018181833241F480913B
:104FF0003F058F5F80933F0587010E5F1F4FF801CC
:1050000080818E32F1F4C0904005D0904105E0904F
:105010004205F0904305C701B60122E030E040E0D0
:1050200050E00E94DD46C20ED31EE41EF51EC09263
:105030004005D0924105E0924205F09243050F5F92
:105040001F4FF801808180538A3008F073C180932C
:105050003E050F5F1F4FF80180818C3211F40F5F06
:105060001F4FE0913F05EE2309F44EC0C09040056C
:10507000D0904105E0904205F090430580913E05B7
:105080008450990B4CE0489F9001499F300D1124AA
:10509000E20FF32FF11DEE0FFF1FEF57FD4FB7018A
:1050A000A601808191810E94EE060E94E70968199D
:1050B00079098A099B09C616D706E806F90620F57C
:1050C0000E94E70960934405709345058093460567
:1050D0009093470580912607813009F430C18230D2
:1050E00009F433C1811105C080916E008D7F8093DA
:1050F0006E0060E0809125070E94840682EE91E0B8
:105100000E945F1210E000E0109393060093920655
:105110000E94E70900917F0510918005209181058B
:1051200030918205601B710B820B930B6932710504
:1051300081059105F8F080912607813009F40BC1B3
:10514000823009F40BC1811105C080916E008695F3
:10515000817031F480913A02811103C10E94290FBC
:105160000E94E70960937F05709380058093810515
:10517000909382058091FC059091FD05892B21F08B
:105180008091FB05811106C08091A805811102C0A4
:105190000E949A1B87E899E00E949F0B8EE699E097
:1051A0000E949F0B85E599E00E949F0B8091A805C6
:1051B00081115BC11092F305809187099091880954
:1051C000181619063CF08091870590918805019783
:1051D00009F04AC281E08093FB0510929306109279
:1051E000920644E650E060E070E088EE93E00E94B2
:1051F000EE060E94E7096093A9057093AA058093C3
:10520000AB059093AC058091FC059091FD0501964E
:105210008630910509F456C19093FD058093FC05F5
:105220002091FC053091FD058901000F111FF80147
:10523000EC5FFD4F80818093F305D9011197FD014B
:10524000EE0FFF1FE15DFC4F6081718161157105FB
:1052500009F4FBC1AB0141505109FA01EE0FFF1FE8
:10526000E95FFC4F0190F081E02DAE17BF0709F018
:10527000ECC16230710509F02AC188E1E9E6F2E08B
:10528000DE01119601900D928A95E1F7809153020B
:105290009091540283709927892B21F48DE190E03D
:1052A0009C838B8380915102909152020197880FC9
:1052B000991FE1E0F0E0EC0FFD1F8E0F9F1F209182
:1052C0004F0230915002FC01808191818217930737
:1052D0000CF0FDC08AE090E09093FD058093FC0502
:1052E000C05BDF4F0FB6F894DEBF0FBECDBFDF91BE
:1052F000CF911F910F91FF90EF90DF90CF90BF90D3
:10530000AF909F908F907F906F905F904F903F9065
:105310002F90089581E080933F0565CE83E0FBCF19
:1053200085E0F9CF86E0F7CF88E0F5CF8AE0F3CFCC
:105330008CE0F1CF8091320280933E058CCE80913B
:105340006F008D7F80936F00D4CE809170008D7F31
:1053500080937000CECE80916F00F9CE8091700066
:10536000F6CE8091A1068111FBCE00914A051091E5
:105370004B05F801EE0FFF1FE00FF11FDF01AA0F31
:10538000BB1FAD51BD4F8D919C914AE0489F90014C
:10539000499F300D11248091020290910302280F41
:1053A000391F3093030220930202DF01AA0FBB1FB3
:1053B000AB51BD4F8D919C91489FB001499F700D9D
:1053C00011248091750590917605860F971F909313
:1053D000760580937505EE0FFF1FE951FD4F608143
:1053E0007181469F6001479FD00C11244091730545
:1053F00050917405C40ED51ED0927405C0927305E9
:10540000D12CF12CE22ED82AB12CA12CB701A60167
:10541000C5010E949502FFEFAF1ABF0A28E0A2164D
:10542000B104A1F70E94D9088091480590914905DF
:1054300001969093490580934805499751F40F5F71
:105440001F4F10934B0500934A0510924905109287
:10545000480580914A0590914B0506970CF480CE43
:1054600010924B0510924A057BCE0E94E7090091ED
:10547000A9051091AA052091AB053091AC05601BE0
:10548000710B820B930B61367A4E8105910508F4FE
:1054900093CE1092A805E091FC05F091FD05EE0F6A
:1054A000FF1FE95AFC4F808191819093FD05809305
:1054B000FC05880F991FFC01EC5FFD4F80818093F4
:1054C000F3057ACE1092FD051092FC05A9CE10923C
:1054D000A8055093FD054093FC05452BB9F40E94A7
:1054E0005C0B7C010E94660B8C010E946E0B40914C
:1054F0004B0250914C026091490270914A029C010A
:1055000080914702909148020E94180A8091FC0500
:105510009091FD050197B9F58FE092E00E948C050E
:1055200080914F02909150020E94C41288E092E054
:105530000E948C0580915102909152020E94C412E7
:10554000E0905302F0905402F0E3EF1AF8EFFF0AF4
:10555000009151021091520280904F02909050029F
:105560000E94760B5C010E947E0B6C010E94970BDF
:105570009401A501B6010E94180A60914D028DE0C8
:1055800090E00E9408238091FC059091FD05029710
:10559000C1F46091550282E090E00E94082360917E
:1055A000570283E090E00E9408236091590284E052
:1055B00090E00E94082360915B0286E090E00E94E8
:1055C00008238091FC059091FD05039731F46091CB
:1055D0005D0281E090E00E9408238091FC0590919B
:1055E000FD05049731F460915F028BE090E00E942A
:1055F00008238091FC059091FD05059739F4609191
:105600006102645F8CE090E00E9408230E945C0BC2
:105610005C010E94660B082F0E946E0BD82E0E9420
:10562000760BF82E0E947E0B182F0E94970B382FB6
:10563000C50168EE73E00E94A746E82E2D2D4F2D80
:10564000612F832F0E94B00E4BCE2331310561F0C4
:10565000295031092230310538F00E946915F801CE
:10566000E55CFD4F91838083809187099091880943
:1056700097FD07C08091870590918805019609F0F4
:10568000FEC144E650E060E070E088EE93E00E94E6
:10569000EE061091A8051111DDC0E090FC05F09018
:1056A000FD050E94E7096093A9057093AA05809300
:1056B000AB059093AC05EF2809F0CCC00E94760BA7
:1056C000181619060CF009C30E94760B0A970CF005
:1056D00010C30E94760B181619060CF004C30E9422
:1056E000760BBC01CE018D5B9F4F0E9404146BE1D1
:1056F00074E0CE01CD960E945014BE016D5B7F4FC9
:10570000CE01CD960E94C613BC01CE01875B9F4F90
:105710000E94471401E00E947E0B181619060CF037
:10572000FDC20E947E0B0A970CF004C30E947E0B00
:10573000181619060CF0F8C20E947E0BBC01CE01AF
:10574000C1960E9404146BE174E0CE018B960E9416
:105750005014BE016F5C7F4FCE018B960E94C61322
:10576000BC01CE01C7960E944714FF24F3940E9407
:10577000970B181619060CF0F1C20E94970B0A97A6
:105780000CF0F8C20E94970B181619060CF0ECC228
:105790000E94970BBC01CE0149960E9404146BE154
:1057A00074E0CE0101960E945014BE01675E7F4FE7
:1057B000CE0101960E94C613BC01CE014F960E94F5
:1057C000471411E0BE01615E7F4FCE0185960E94B5
:1057D0004714BE01695C7F4FCE0185960E94C613B7
:1057E000BE01675B7F4F0E94C613BC0180EA99E04F
:1057F0000E943014CE0185960E940112CE014F9670
:105800000E940112112341F0CE0101960E94011263
:10581000CE0149960E940112CE01C7960E94011244
:10582000FF2041F0CE018B960E940112CE01C1965D
:105830000E940112CE01875B9F4F0E94011200233C
:1058400049F0CE01CD960E940112CE018D5B9F4F93
:105850000E9401128091FC059091FD05019709F0CD
:10586000D5C00E946E0B9093500280934F020E940D
:10587000660B90935202809351020E945C0B68EE7B
:1058800073E00E94A746BC01909354028093530298
:1058900020914D0230914E020996232B09F08AC2C5
:1058A00077FF03C0719561957109439708F075C240
:1058B000CE018D5B9F4F0E9404146BE174E0CE011A
:1058C000CD960E945014BE016D5B7F4FCE01CD96E8
:1058D0000E94C613BC01CE01875B9F4F0E944714F4
:1058E00011E08091510290915202BC0197FF04C0D7
:1058F00066277727681B790B0996439708F054C2EF
:10590000CE01C1960E9404146BE174E0CE018B9627
:105910000E945014BE016F5C7F4FCE018B960E9497
:10592000C613BC01CE01C7960E94471401E08091C6
:105930004F0290915002BC0197FF04C06627772761
:10594000681B790B0996439708F08CC2CE014996E3
:105950000E9404146BE174E0CE0101960E94501481
:10596000BE01675E7F4FCE0101960E94C613BC0147
:10597000CE014F960E944714FF24F394BE01615E4E
:105980007F4FCE0185960E944714BE01695C7F4F10
:10599000CE0185960E94C613BE01675B7F4F0E94B1
:1059A000C613BC0180EA99E00E943014CE018596AE
:1059B0000E940112CE014F960E940112FF2041F079
:1059C000CE0101960E940112CE0149960E94011259
:1059D000CE01C7960E940112002341F0CE018B96A2
:1059E0000E940112CE01C1960E940112CE01875B76
:1059F0009F4F0E940112112349F0CE01CD960E94C3
:105A00000112CE018D5B9F4F0E940112E091FC05B7
:105A1000F091FD05EE0FFF1FE95AFC4F2081318107
:105A20003093FD052093FC052D30310549F481E0CC
:105A300090E090935C0280935B0280E88093E305A2
:105A40008091A80591E089278093A8058901000F1E
:105A5000111FF801EC5FFD4F80818093F305A901D0
:105A6000425151094230510550F02930310539F089
:105A70000E946915F801E55CFD4F91838083809158
:105A80006E0990916F09009709F0F2C18091850528
:105A9000909186050197E1F481E08093FB051092D7
:105AA00093061092920644E650E060E070E088EEC3
:105AB00093E00E94EE060E9437198091A80581119B
:105AC00007C01092A10660E087E090E00E940823E2
:105AD00080917D0590917E05019609F0D2C180915B
