:100000000C9460020C9491020C9491020C94910255
:100010000C9491020C9491020C9491020C94910214
:100020000C9491020C9491020C9491020C94910204
:100030000C9491020C9476390C9491020C949102D8
:100040000C9491020C94C9390C9491020C94910275
:100050000C9491020C94283A0C9491020C94AC37B5
:100060000C9491020C9480380C9456380C949102A4
:100070000C9491020C9491020C9491020C949102B4
:100080000C9491020C9491020C9491020C949102A4
:100090000C9420380C94F6370C9491020C94873A07
:1000A0000C9491020C9491020C94AB3B0C94910231
:1000B0000C9491020C9491020C9491020C94B63819
:1000C0000C9491020C9491020C9491020C94910264
:1000D0000C9491020C9491020C9491020C94910254
:1000E0000C9491020C940E300C9421340C94690EF3
:1000F0000C946C0F0C94C5450C94F73D0C943F3058
:100100000C94BE290C947E0F0C94F1030C94D3082C
:100110000C941B370C94F5030C947E0D0C942C045A
:100120000C94C4290C9469350C94F9340C94020491
:100130000C94EE350C94C5350C94BA290C94FC0340
:100140000C94ED030C94C9070C94BC290C94CB07B8
:100150000C94910D0C94700F0C9410040C946E0D73
:100160000C94C0290C9406040C9429080C94C22900
:100170000C9427040C9422040C94A30F0C946F0D80
:100180000C94A50F0C9414040C9407080C94600FA5
:100190000C94E7030C941E040C94B6290C94980D4F
:1001A0000C949C290C94F9030C94B60F0C94F8074A
:1001B0000C94C8070C9428040C940C040C9425355A
:1001C0000C94C50D0C941B080C946B080C941A0429
:1001D0005570646174696E672074696D652066721C
:1001E0006F6D204750532E2E2E00496E636F727232
:1001F00065637420536F6E6720466F726D61742162
:10020000005247423D6F6666005247423D6F6E00A6
:100210004D6F6E74683A004461793A00446F776EAE
:10022000206C6F6E672E2E2E2E00446F776E20731B
:10023000686F7274005570206C6F6E672E2E2E2EB4
:100240000055702073686F7274004D6F6465206C88
:100250006F6E672E2E2E2E004D6F64652073686FB3
:10026000727400416C6C20617474656D70747320DD
:100270007765726520756E737563636573736675F4
:100280006C2E00417474656D707420746F207379E6
:100290006E632077697468204750532E0057616B56
:1002A000652075702C204E656F21004461746520B7
:1002B0006F722054696D65206E6F7420696E2072B4
:1002C000616E676500426C75653D00475245454E5D
:1002D0003D005245443D005265616465642066728C
:1002E0006F6D20454550524F4D000201004661752B
:1002F0006C747920525443210053746F70205465FC
:1003000073740054656D702E2073656E736F722068
:100310006E6F7420666F756E642E00475053204ECA
:100320004F542064657465637465642100475053BD
:10033000206465746563746564005374617274202D
:1003400054657374004E43533331382F353638209B
:10035000666F7220485720312E782048563531324A
:1003600032206F7220485635323232004669726D43
:10037000776172652076657273696F6E3A200057F7
:1003800061726E696E67212052544320444F4E279C
:100390005420524553504F4E442100000021002468
:1003A0000027002A002D0030003300010100000466
:1003B0000107010A0100000A0B02090C0D0E0807D3
:1003C0000304010000000000000000000000000025
:1003D000000000000000000000000000000000001D
:1003E00000121110000000000000000000000000DA
:1003F00000000000000000000000000000220025B6
:100400000028002B002E00310034000201000005FE
:100410000108010B01000020002300260029002C08
:10042000002F003200000100000301060109010550
:10043000050505070508080808020202020A0A085D
:100440000804040404010101010101010103030383
:100450000303030303040707070C0C0C0C0C0C0C20
:100460000C0202020206060606060606060B0B0B27
:100470000B0B0B0B0B010210202008081020401062
:100480002040800201020108040201010204081058
:100490002040808040201008040201800402018076
:1004A000402010080402010804020101020408109F
:1004B000204080010204081020408000F73DC5451F
:1004C00011241FBECFEFD1E2DEBFCDBF00E00CBFD5
:1004D0002AE0A8E1B5E001C01D92A633B207E1F71A
:1004E00015E0A0E0B2E0EAE1F6E900E00BBF02C0EF
:1004F00007900D92A831B107D9F712E0CFE5D2E00D
:1005000000E006C021970109802FFE010E94CE481D
:10051000CE35D10780E00807A9F70E948E3F0C94E2
:10052000FB4A0C9400008F929F92AF92BF92CF92A1
:10053000DF92EF92FF92CF93209186093091870945
:1005400082179307E8F54B01AA24BB24C82DC52EBA
:10055000D62EE72EFF24BC2DA42F20918C09222318
:1005600061F0829E40011124C92D2C9D600111244F
:10057000BD2D249FF0011124AF2FE0919209E0904E
:100580008D09F0908E0930918F09E31323C09C01EF
:10059000220F331F820F931F8E0D9F1DE0918F0935
:1005A000E80FF92FF11DC083E0919009E80FF92FB2
:1005B000F11DB08320919109820F911DFC01A08350
:1005C000CF91FF90EF90DF90CF90BF90AF909F9032
:1005D0008F900895880F991F880F991F8E0D9F1D6A
:1005E000472F552766277727222349F030E0249F9D
:1005F0007001259FF00C349FF00C11244F2DE80F53
:10060000F92FF11D4083CACF8CBD9DBD0895809107
:10061000EB09E091EC09F091ED09F8949181982BA8
:1006200091832281382F309523232283A7E0B0E0E5
:100630001197F1F7918193239183A3E2B0E0119791
:10064000F1F790817894EFECF0E03197F1F798238F
:1006500081E009F480E008959091EB09E091EC09C4
:10066000F091ED09292F209580FF14C0F894828124
:10067000822382838181892B8183A3E2B0E0119759
:10068000F1F78281982B9283789487ED90E001971F
:10069000F1F70895F8948281822382838181892BE6
:1006A0008183AFEFB0E01197F1F78281982B9283AD
:1006B00078948FE090E0EBCF0F931F93CF93DF936D
:1006C000082FC8E0D0E011E081E0902F912309F4D9
:1006D00080E00E942C03110F2197B1F7F894E0916C
:1006E000EC09F091ED0991818091EB0980959823B7
:1006F0009183E091EC09F091ED0992818923828345
:100700007894DF91CF911F910F9108958091EB091B
:10071000E091EC09F091ED09F8949181282F209552
:100720009223918378943DE743E050E0315029F1E2
:10073000DA011197F1F790819823C1F3F89492812F
:10074000922392839181982B91837894ABE7B7E0C1
:100750001197F1F7F894918192239183A3E1B1E08D
:100760001197F1F79081982381E009F080E0789467
:10077000E3E6F6E03197F1F7089580E0089591E01F
:1007800090933A0780935C0710923B0710925D07A5
:1007900008958150823108F05AC0E82FF0E0882790
:1007A000EB52FC4F8F4F0C94CE48F503F903E7034F
:1007B000ED03F1032704FC03020406040C041004F7
:1007C00014041A041E042704220428042C04809113
:1007D00080008F77809380000895809180008F7DC6
:1007E000F9CF80918000877FF5CF84B58F7784BD66
:1007F000089584B58F7DFBCF8091B0008F77809373
:10080000B00008958091B0008F7DF9CF8091900065
:100810008F77809390000895809190008F7DF9CF1D
:1008200080919000877FF5CF8091A0008F77809393
:10083000A00008958091A0008F7DF9CF8091A00045
:10084000877FF5CF809120018F77809320010895D5
:10085000809120018F7DF9CF80912001877FF5CF96
:10086000CF93DF93282F30E0F901EB54FC4F8491B4
:10087000F901EB58FB4FD491F901E15DFB4FC491B5
:10088000CC23A1F081110E94C903EC2FF0E0EE0F00
:10089000FF1FEB5EFB4FA591B491EC91ED2381E03E
:1008A00090E009F480E0DF91CF91089580E090E03E
:1008B000FACF1F93CF93DF93282F30E0F901EB5449
:1008C000FC4F8491F901EB58FB4FD491F901E15DA4
:1008D000FB4FC491CC23A9F0162F81110E94C903AC
:1008E000EC2FF0E0EE0FFF1FE550FC4FA591B49107
:1008F0008FB7F894EC91111108C0D095DE23DC93EA
:100900008FBFDF91CF911F910895DE2BF8CFCF934A
:10091000DF9390E0FC01EB58FB4F2491815D9B4FEE
:10092000FC0184918823C9F090E0880F991FFC0195
:10093000E556FC4FA591B491FC01E550FC4FC591E3
:10094000D49161110DC09FB7F8948C9120958223AA
:100950008C938881282328839FBFDF91CF910895AE
:10096000623051F49FB7F8943C91822F8095832395
:100970008C93E8812E2BEFCF8FB7F894EC912E2B30
:100980002C938FBFEACF4F925F926F927F928F929C
:100990009F92AF92BF92CF92DF92EF92FF920F930E
:1009A0001F93CF93DF9300D01F921F92CDB7DEB776
:1009B00020916B0727FD2CC149835A836B837C836D
:1009C0008C0161E080916A070E94870480916B0727
:1009D0008D834801B12CA12C8D7F09F031C160E0DD
:1009E00072E18AE790E0A50198010E94AF482901D1
:1009F0003A017A01690191E0C91AD108E108F108C8
:100A0000AFEFCA16D104E104F10409F00CF4C7C039
:100A100060E472E48FE090E0A50198010E94AF4885
:100A200069017A01B1E0CB1AD108E108F1088D81A2
:100A3000823009F06AC082E09FEFC916D104E10458
:100A4000F10409F00CF45EC160E970ED83E090E020
:100A5000A50198010E94AF4869017A01A1E0CA1A74
:100A6000D108E108F10883E0BFEFCB16D104E1041F
:100A7000F10409F00CF446C168E478EE81E090E0FE
:100A8000A50198010E94AF4869017A0181E0C81A66
:100A9000D108E108F10884E09FEFC916D104E10410
:100AA000F10409F00CF42EC164E274EF80E090E0F0
:100AB000A50194010E94AF4869017A01B1E0CB1A07
:100AC000D108E108F10885E09FEFC916D104E104DF
:100AD000F10409F008F416C162E17AE780E090E0E1
:100AE000A50194010E94AF4869017A01B1E0CB1AD7
:100AF000D108E108F1088FEFC816D104E104F10430
:100B000011F008F0F0C086E0FDC08FEFC816D104E8
:100B1000E104F10409F00CF491C068E478EE81E09E
:100B200090E0A50198010E94AF4869017A0191E027
:100B3000C91AD108E108F108AD8184E0A111C4CF40
:100B400083E0AFEFCA16D104E104F10461F15CF176
:100B500062E17AE780E090E0A50194010E94AF484D
:100B600069017A0181E0C81AD108E108F10884E03E
:100B70009FEFC916D104E104F104A9F0A0F07301BC
:100B800062019AE0F594E794D794C7949A95D1F7C7
:100B9000A1E0CA1AD108E108F10885E004C081E0AB
:100BA000AD81A111AFC095B5987F892B85BD898195
:100BB0009A81AB81BC812FEF3FEFA901892B8A2B52
:100BC0008B2B79F0D801AA0FBB1F29813A814B8169
:100BD0005C810E94874728EE33E040E050E00E94AD
:100BE0008D489D81913009F45CC0923009F46BC04E
:100BF00091110EC0C7BC20936607309367074093DE
:100C000068075093690780916E00826080936E0040
:100C10000F900F900F900F900F90DF91CF911F9139
:100C20000F91FF90EF90DF90CF90BF90AF909F908B
:100C30008F907F906F905F904F90089582E0B0CF3B
:100C400060E072E18AE790E0A50198010E94AF4858
:100C500069017A01B1E0CB1AD108E108F10891E00D
:100C6000C114D10481E0E806F10484F068E478EE70
:100C700081E090E0A50198010E94AF4869017A01E6
:100C800091E0C91AD108E108F10893E0AD81A130E3
:100C900009F08DCF80918100887F892B809381001E
:100CA00086CFD0928900C09288002093620730934B
:100CB0006307409364075093650780916F008260DB
:100CC00080936F00A5CFC092B30020935E0730934E
:100CD0005F074093600750936107809170008260C6
:100CE0008093700095CF730162018AE0F594E794D8
:100CF000D794C7948A95D1F7B1E0CB1AD108E1080F
:100D0000F10887E09091B100987F892B8093B10022
:100D10004ECF3FB7F8948091E8069091E906A091F4
:100D2000EA06B091EB0626B5A89B05C02F3F19F047
:100D30000196A11DB11D3FBFBA2FA92F982F88275B
:100D4000BC01CD01620F711D811D911D42E0660F36
:100D5000771F881F991F4A95D1F70895CF92DF9288
:100D6000EF92FF920F931F93CF93DF9300D000D0A9
:100D700000D0CDB7DEB780918D0990918E09892B77
:100D800009F480C0C0909309D0909409E09095092F
:100D9000F09096090E9489066C157D058E059F05C9
:100DA00050F40E948906609393097093940980938C
:100DB0009509909396090E948906009193091091D4
:100DC00094092091950930919609601B710B820B53
:100DD000930B6C32714081059105A0F2F8948091DB
:100DE0008809909189099A838983E0918D09F0910E
:100DF0008E09DF0111968081898790918409E091A5
:100E00009709F091980980919909992309F449C0AB
:100E10009081982B98879081809589238F838F81EB
:100E20008C8388E08B8358856F8149853B812C8139
:100E300089819A81508347FD252F3A952083262F5B
:100E400039F0441F00C000006083000000C0F2CFF2
:100E500038E04D9160830000019761F7F0939809A5
:100E6000E093970949873B832C839A8389837894FD
:100E70000E94890660939309709394098093950961
:100E80009093960929960FB6F894DEBF0FBECDBF9A
:100E9000DF91CF911F910F91FF90EF90DF90CF9056
:100EA00008959081982B98879081809589238F83CE
:100EB0008F818E8388E08D8358856F8149853D8140
:100EC0002E8189819A81508347FD252F00C000C063
:100ED000208300C000C000C000C000C060830000CC
:100EE000262F3A9541F0441F000000C000C000C00A
:100EF00000C000C0E8CF38E04D9100C0608300C062
:100F0000019709F7F0939809E093970949873D8382
:100F10002E83ABCF8F929F92AF92BF92CF92DF92F0
:100F2000EF92FF924B015C010E9489066B017C01EC
:100F30000E9489066C197D098E099F09683E7340DD
:100F400081059105A8F321E0821A9108A108B10852
:100F500088EEC80E83E0D81EE11CF11C81149104B8
:100F6000A104B10429F7FF90EF90DF90CF90BF90DC
:100F7000AF909F908F9008952FB7F8946091E406FA
:100F80007091E5068091E6069091E7062FBF0895DF
:100F9000089508950895AF92BF92CF92DF92EF9295
:100FA000FF920F931F93CF93DF936C017B018B0113
:100FB000040F151FEB015E01AE18BF08C017D10763
:100FC00059F06991D601ED91FC910190F081E02DED
:100FD000C6011995892B79F7C501DF91CF911F9132
:100FE0000F91FF90EF90DF90CF90BF90AF9008955A
:100FF000FC01538D448D252F30E0842F90E0821B1F
:10100000930B541710F0CF96089501970895FC01A3
:10101000918D828D981761F0A28DAE0FBF2FB11DFB
:101020005D968C91928D9F5F9F73928F90E0089553
:101030008FEF9FEF0895FC01918D828D981731F00D
:10104000828DE80FF11D858D90E008958FEF9FEF61
:101050000895FC01918D228D892F90E0805C9F4F37
:10106000821B91098F73992708958CE697E00E945F
:10107000290821E0892B09F420E0822F089589E0D6
:1010800098E00E94290821E0892B09F420E0822FB2
:101090000895FC01A48DA80FB92FB11DA35ABF4F0D
:1010A0002C91848D90E001968F739927848FA68967
:1010B000B7892C93A089B1898C91837080648C93BB
:1010C000938D848D981306C00288F389E02D80816A
:1010D0008F7D80830895EF92FF920F931F93CF939C
:1010E000DF93EC0181E0888F9B8D8C8D98131AC063
:1010F000E889F989808185FF15C09FB7F894EE894A
:10110000FF896083E889F9898081837080648083A6
:101110009FBF81E090E0DF91CF911F910F91FF90F1
:10112000EF900895F62E0B8D10E00F5F1F4F0F7399
:101130001127E02E8C8D8E110CC00FB607FCFACF54
:10114000E889F989808185FFF5CFCE010E944908A1
:10115000F1CFEB8DEC0FFD2FF11DE35AFF4FF08225
:101160009FB7F8940B8FEA89FB8980818062CFCF8B
:101170000F931F93CF93DF938C01D0E0C0E0F80171
:10118000EC0FFD1F6491662341F089E098E00E9416
:101190006B08892B11F02196F2CFCE01DF91CF9110
:1011A0001F910F910895CF93DF93EC01888D8823D1
:1011B000B9F0AA89BB89E889F9898C9185FD03C0BA
:1011C000808186FD0DC00FB607FCF7CF8C9185FF9F
:1011D000F2CF808185FFEDCFCE010E944908E9CF93
:1011E000DF91CF91089580E090E0892B29F00E9453
:1011F0003F0881110E94000080E090E0892B29F0D7
:101200000E94350881110E94000080E090E0892B47
:1012100049F080E090E0892B29F00E9400008111C4
:101220000E94000080E090E0892B49F080E090E08F
:10123000892B29F00E94000081110C940000089570
:101240006093AF067093B0068093B1069093B20698
:10125000645D7E4F8F4F9F4F6093AB067093AC06DB
:101260008093AD069093AE0682E090E09093AA063C
:101270008093A9060E94BC076093A5067093A606FA
:101280008093A7069093A8060895CF92DF92EF92DD
:10129000FF920F931F930E94BC078B019C01C0908B
:1012A000A506D090A606E090A706F090A80660914B
:1012B000AF067091B0068091B1069091B2060C19FC
:1012C0001D092E093F09083E134021053105E0F0B4
:1012D000DC01CB010196A11DB11D8093AF06909357
:1012E000B006A093B106B093B206B701A60148516B
:1012F0005C4F6F4F7F4F4093A5065093A6066093B7
:10130000A7067093A806C7CF1F910F91FF90EF908B
:10131000DF90CF9008954F925F926F927F928F925D
:101320009F92AF92BF92CF92DF92EF92FF920F9374
:101330001F93CF93DF93FC011681A12FB0E020E82B
:1013400033E341EE51E00E9487474B015C01C2EB61
:10135000D7E09D0104E610E080E9E82EFF24F39435
:10136000CE01825B9740821793079CF14580512CF8
:101370002E54384FC90164E670E00E9479487C0120
:10138000C90160E971E00E9479486C0100EE13E048
:10139000C1E0D0E0390183E068227724C415D50587
:1013A0000CF040C0C230D10571F56114710459F5DB
:1013B000E114F10419F4C114D10429F5B0E88B0E3D
:1013C000BBE39B1EB6E2AB1EB11C21960F5F1F4F05
:1013D000E5CFCE0183709927892B99F4CE01B8010E
:1013E0000E947948892B31F4CE01B7010E947948D7
:1013F000892B39F4A0E88A0EA1E59A1EA1E0AA1E65
:10140000B11C2196ADCFD8018C91A82FB0E020E877
:1014100031E541E050E00E948747860E971EA81EE6
:10142000B91ED3CF228130E0A0E1BEE00E949247F6
:101430006B017C01218130E0ACE3B0E00E94924777
:10144000C60ED71EE81EF91E8081C80ED11CE11CF5
:10145000F11CA481A150BB0B20E831E541E050E034
:101460000E94DD486C0D7D1D8E1D9F1D680D791D30
:101470008A1D9B1DDF91CF911F910F91FF90EF90DF
:10148000DF90CF90BF90AF909F908F907F906F90A4
:101490005F904F900895EF92FF920F9394E6E916B4
:1014A000F104CCF092EBE91A97E0F90AE092B90660
:1014B0000093B8062093B7068093B5066093B406F0
:1014C0004093B30683EB96E00E948B090F91FF9047
:1014D000EF900C9420099EE1E90EF11CE7CF6F928A
:1014E0007F928F929F92AF92BF92CF92DF92EF92B4
:1014F000FF920F931F93CF93DF936B017C01EA015F
:101500008CE3882E912CA12CB12CC701A50194014C
:101510000E948D486883CA01B901A50194010E9407
:101520008D486983C701B60120E13EE040E050E00C
:101530000E948D48CA01B90128E130E040E050E046
:101540000E948D486A83C701B60120E831E541E079
:1015500050E00E948D4869017A01CA01B9016C5FAF
:101560007F4F8F4F9F4F27E030E040E050E00E94D8
:101570008D486F5F6B83812C912C540140E094E681
:10158000692E712C00E911E0242F30E02E54384FE1
:10159000F901E370FF273097F9F4C901B3010E9404
:1015A0007948892B31F4C901B8010E947948892B07
:1015B00099F48EE691E0A0E0B0E0880E991EAA1E94
:1015C000BB1ED501C401AA27BB27C816D906EA0647
:1015D000FB0638F04F5FD8CF8DE691E0A0E0B0E099
:1015E000ECCF4E83C90164E670E00E9479488C011B
:1015F000C90160E971E00E947948309729F401152A
:101600001105E1F40097D1F04DE651E060E070E0A3
:10161000841A950AA60AB70AC818D908EA08FB0866
:10162000A0EEB3E020E0213071F4309791F5011580
:10163000110511F4009769F54DE106C04EE651E041
:1016400060E070E0E5CF4C9150E070E060E031E0A8
:10165000320FC416D506E606F70640F0C41AD50ABE
:10166000E60AF70A1196232F3C30E9F62F5F2D8307
:10167000C394CC82DF91CF911F910F91FF90EF9097
:10168000DF90CF90BF90AF909F908F907F906F90A2
:1016900008954CE1D9CFCF92DF92EF92FF92C090A4
:1016A000A106D090A206E090A306F090A406C6166C
:1016B000D706E806F90671F06B017C0143EB56E0B2
:1016C0000E946F0AC092A106D092A206E092A306E1
:1016D000F092A406FF90EF90DF90CF9008950E94C3
:1016E00045090E944B0B8091B90690E08E54984FAB
:1016F00008950E9445090E944B0B8091B80690E026
:1017000008950E9445090E944B0B8091B70690E016
:1017100008950E9445090E944B0B8091B30690E00A
:1017200008950E9445090E944B0B8091B40690E0F9
:1017300008950E9445090E944B0B2091B506222373
:1017400031F0822F90E02D3020F00C9708958CE03E
:1017500090E008950E9445090E944B0B8091B506C8
:1017600090E00895CF92DF92EF92FF92CF93DF93B4
:10177000EC010E94BC076B017C018F850E94300444
:101780009C0181E02115310509F480E0898B88896D
:10179000811105C091E0232B09F090E0998B2989F4
:1017A0008A89281721F0CD8ADE8AEF8AF88E8D8902
:1017B0009E89AF89B88DB701A601481B590B6A0BEA
:1017C0007B0BDB01CA01CB80DC80ED80FE80C8167C
:1017D000D906EA06FB0664F43A81231749F02A8306
:1017E000222349F04B895C894F5F5F4F5C8B4B8BA9
:1017F0003A81311117C0CF80D884E984FA84C816A1
:10180000D906EA06FB0634F48B899C899983888380
:101810001C8A1B8A2A8BDF91CF91FF90EF90DF907B
:10182000CF900895CB84DC84ED84FE84C816D9065D
:10183000EA06FB067CF78B899C8991958195910935
:10184000E5CF20917E06260F3327331F2132310545
:10185000ECF420913407FC0190E080E0243069F042
:1018600082E00895A0917E062191AC01425A594F21
:10187000A40FB52FB11D2C930196861798F3809174
:101880007E06680F60937E0680E0089581E00895EB
:101890001092340781E08093330710920E0761E0C5
:1018A00084E10E94590461E085E10E945904E9EB5A
:1018B000F0E080818E7F808380818D7F808388E4CB
:1018C0008093B80085E48093BC000895CF93DF93A4
:1018D00091E090935D068823B9F0C091B800D09153
:1018E000BA008091BC008A7B8093BC0060E084E1F8
:1018F0000E94590460E085E10E9459040E94480C4E
:10190000D093BA00C093B800DF91CF910895CF92E1
:10191000DF92EF92FF920F931F93CF93DF93D091BB
:101920005D0781E0D13208F09CC0C0915C070E9445
:1019300089066B017C018091340781116CC082E0C3
:101940008093340781E0809333078FEF80933207D1
:1019500010923107D0933007ACE3B7E0E0E1F7E055
:1019600080E0D8138DC010920F0780910F07CC0F25
:10197000C82BC0930F0780910E07813009F084C0F7
:1019800010920E070E9489066B017C0180910F075F
:101990008093BB008091360790913707A09138075C
:1019A000B0913907892B8A2B8B2BA1F00E948906D5
:1019B0000091360710913707209138073091390789
:1019C0006C197D098E099F09061717072807390723
:1019D00008F442C08091BC0083FDD8CF85EC809391
:1019E000BC000E9489066B017C0180913407823023
:1019F00009F44CC0809132078F3F09F469C080918F
:101A00003207803209F466C080913207803309F4CE
:101A100063C084E026C08091360790913707A0917B
:101A20003807B0913907892B8A2B8B2B09F483CF88
:101A30000E948906009136071091370720913807D8
:101A4000309139076C197D098E099F090617170710
:101A50002807390708F06FCF809135070E94660C80
:101A600085E010923B0710925D0710923A07DF91D4
:101A7000CF911F910F91FF90EF90DF90CF9008953D
:101A80009D9191938F5F6DCF85EEA9CF80913607A1
:101A900090913707A0913807B0913907892B8A2B8D
:101AA0008B2B09F4A2CF0E94890600913607109172
:101AB000370720913807309139076C197D098E0955
:101AC0009F09061717072807390708F08ECFC4CFDC
:101AD00080E0C7CF82E0C5CF83E0C3CF0895E09117
:101AE000ED068091EC06E81730F4F0E0E251F94F92
:101AF000808190E008958FEF9FEF08959091ED061B
:101B00008091EC062FEF3FEF981748F4E92FF0E0B3
:101B1000E251F94F208130E09F5F9093ED06C901BB
:101B200008958091EC069091ED06891B990B08951C
:101B3000CF92DF92EF92FF920F931F93CF93DF9399
:101B40007C01CB018A0120913A07222389F0EB0125
:101B50006B01C40ED51ECC15DD0569F06991D70166
:101B6000ED91FC910190F081E02DC7011995F3CF23
:101B7000642F0E94210CC801DF91CF911F910F911A
:101B8000FF90EF90DF90CF900895CF93DF931F9257
:101B9000CDB7DEB7698320913A072223F9F020916F
:101BA0005D07203258F021E030E0FC0133832283CE
:101BB00090E080E00F90DF91CF91089580913B07F6
:101BC000E82FF0E0E45CF84F998190838F5F809379
:101BD0003B0780935D0781E090E0ECCF61E0CE01B0
:101BE00001960E94210CF7CF682F86EA98E00C94AA
:101BF000C50DDF92EF92FF920F931F93CF93DF9368
:101C0000182FF62ED42ED22F80916F020E94BF0380
:101C100060E086EA98E00E94C50DCAE08D2D6C2F29
:101C20000E9459488295807F682F690F86EA98E064
:101C30000E94C50D8F2D6C2F0E9459488295807F80
:101C4000682F690F86EA98E00E94C50D812F6C2FDE
:101C50000E9459488295807F682F690F86EA98E034
:101C60000E94C50D61E086EA98E00E94C50D8D2FA7
:101C70006C2F0E9459488295807F682F690F86EAF1
:101C800098E00E94C50D802F6C2F0E9459488295C4
:101C9000807F682F690F86EA98E00E94C50D8E2D1F
:101CA0006C2F0E9459488295807F682F690F86EAC1
:101CB00098E00E94C50D60E086EA98E00E94C50D9C
:101CC000DF91CF911F910F91FF90EF90DF900C94D7
:101CD000870C90E080E00895CF93DF93D0E0C0E0E0
:101CE00040E050E0BA01CE010E9493022196C83034
:101CF000D105B1F7DF91CF910C94AE0640913D062E
:101D000050913E0620913B0630913C0680E09CE3DA
:101D10004217530711F48FEF9FEF4F5F5F4F433030
:101D2000510529F050933E0640933D0608951092C8
:101D30003E0610923D062F5F3F4F2330310529F0BC
:101D400030933C0620933B06089510923C06109277
:101D50003B060895CF92DF92EF92FF920F931F936D
:101D6000CF93DF9390913A0691110BC08FEF9FEFC5
:101D7000DF91CF911F910F91FF90EF90DF90CF9067
:101D8000089590913906992389F3082FC091380658
:101D9000D0E08091300681110DC00E94BC07609395
:101DA0002C0670932D0680932E0690932F0681E0CB
:101DB000809330060E94BC07C0902C06D0902D0660
:101DC000E0902E06F0902F066C197D098E099F0970
:101DD0006D32714081059105B0F010912B060E9483
:101DE000BC0760932C0670932D0680932E0690936B
:101DF0002F0691E0912790932B06992331F11092B1
:101E00002A06109229062091290630912A0620954B
:101E1000309580912806282326FF1CC081E08093FE
:101E2000270627FF1AC081E08093260680912B06A3
:101E3000882309F49BCF02C0D595C7950A95E2F790
:101E4000C0FF94CF80E09CE393CFD0932A06C09349
:101E50002906D9CF10922706E4CF10922606E6CFA6
:101E6000EF92FF920F931F93CF93DF93182F8091E0
:101E70001C0681110DC00E94BC0760931806709368
:101E8000190680931A0690931B0681E080931C0626
:101E9000C0911606D0911706C930D10508F077C059
:101EA000FE018827E95AF04F8F4F0C94CE48600FFF
:101EB0006C0F700F7E0F600F6C0FA30FA50FB60F86
:101EC0000E9486032196CA30D10509F097C010926E
:101ED00017061092160628C08CEC0E945C03F2CF05
:101EE00084E40E945C030E94BC0760931806709310
:101EF000190680931A0690931B06E4CF0E94BC0734
:101F0000009118061091190620911A0630911B06AF
:101F1000601B710B820B930BC4E0D0E06E3E7240ED
:101F20008105910508F06AC0609112067091130650
:101F30008091140690911506DF91CF911F910F911A
:101F4000FF90EF9008958EEBC8CF98E0E92EF12C2A
:101F500010E001E00E9407038111102B000F81E0C7
:101F6000E81AF108B9F710931006ACCF88E0E82E14
:101F7000F12C10E001E00E9407038111102B000FEB
:101F800021E0E21AF108B9F7109311069BCFC9308E
:101F9000D10509F097CF60911006709111066F3F3F
:101FA000760711F470E060E0072E000C880B990BA7
:101FB0000E94544620E030E040E85DE30E94B346D2
:101FC00011110FC020E030E040E251E40E94B3461E
:101FD000609312067093130680931406909315066F
:101FE00071CF26E636E646EE5FE30E94B34620E078
:101FF00030E040E052E40E94A247E4CFD0931706BD
:10200000C093160691CFCF93DF93EC012196FC018C
:1020100020812A33C9F42181243609F5229630E043
:1020200020E06AE0899190ED980F9A3078F4629FF1
:10203000A001639F500D1124082E000C990BC0972E
:102040009A01280F391FEECFCE01DFCF3093DE0586
:102050002093DD052115310511F020933902888187
:102060008F3689F48A81082E000C990B9C0120532D
:1020700031093093DE052093DD05C397059710F4F1
:1020800020933802249688818236F1F4229630E03B
:1020900020E06AE0899190ED980F9A3068F4629F91
:1020A000A001639F500D1124082E000C990BC097BE
:1020B0009A01280F391FEECF3093DE052093DD05FE
:1020C0003093370220933602209136023091370246
:1020D000032E000C440B550B60E67AEE80E090E096
:1020E0000E94AF4882E0220F331F441F551F8A957C
:1020F000D1F72093D9053093DA054093DB0550934F
:10210000DC05CE01DF91CF910895CF92DF92EF925F
:10211000FF920F931F93CF93DF93EC018B010E94EB
:10212000BC07CE80DF80E884F984AB01BC014C1988
:102130005D096E097F0988819981092E000CAA0B1F
:10214000BB0B84179507A607B707A0F48A858823D9
:1021500089F01A868D811C821D82823060F181E0B7
:1021600090E0DF91CF911F910F91FF90EF90DF9062
:10217000CF9008958B859C8580179107C9F481E0E5
:102180008C838D818F5F8D830E94BC076E837F83DC
:102190008887998781E08A872D818A819B8128178A
:1021A00019064CF01C821D821A868FEF9FEFD9CF43
:1021B0008C81811103C090E080E0D3CF0F3F1F4F8F
:1021C000D1F7DFCF8EBD00000DB407FEFDCF8EB579
:1021D00008958F929F92AF92BF92CF92DF92EF922B
:1021E000FF920F931F93CF93DF937C01D62F0E9412
:1021F00089064B015C0180913407811167C0CD2FA6
:1022000081E080933407809333079FEF90933207E8
:10221000109231079D0F9093300780930F078091A4
:102220000F07EE0CFF1C8E2980930F0780910E077D
:10223000813009F083C010920E070E9489066B015D
:102240007C0180910F078093BB00809136079091AD
:102250003707A0913807B0913907892B8A2B8B2B30
:10226000A1F00E9489068090360790903707A090D1
:102270003807B09039076C197D098E099F098616B9
:102280009706A806B90608F442C08091BC0083FDF9
:10229000D8CF85EC8093BC000E9489066B017C013D
:1022A00080913407813009F44BC0809131078D173C
:1022B00010F4C0913107E0E1F7E0AEEEB6E080E067
:1022C0008C1751F191919D938F5FFACF80913607D2
:1022D00090913707A0913807B0913907892B8A2B45
:1022E0008B2B09F488CF0E94890600913607109144
:1022F00037072091380730913907681979098A0919
:102300009B09061717072807390708F074CF809133
:1023100035070E94660CC0E01092ED06C093EC06F3
:102320008C2FDF91CF911F910F91FF90EF90DF9055
:10233000CF90BF90AF909F908F90089585EEAACFD9
:102340008091360790913707A0913807B0913907EF
:10235000892B8A2B8B2B09F4A3CF0E9489068090AE
:10236000360790903707A0903807B09039076C195E
:102370007D098E099F0986169706A806B90608F0FA
:102380008FCFC5CFCF93C0916F028C2F0E94BF0318
:1023900060E086EA98E00E94C50D0E94870C67E025
:1023A00070E08C2F90E00E94E91086EA98E00E948D
:1023B0007E0D982F92959F70CAE08F709C9F800D24
:1023C000112490E09093E1068093E00686EA98E07D
:1023D0000E947E0D982F92959F708F709C9F800D0C
:1023E000112490E09093D8068093D70686EA98E06F
:1023F0000E947E0D982F929593708F709C9F800DF8
:10240000112490E09093D6068093D50686EA98E052
:102410000E947E0D86EA98E00E947E0D982F92958C
:102420009F708F709C9F800D112490E09093DA062E
:102430008093D90686EA98E00E947E0D982F9295A7
:102440009F708F709C9F800D112490E09093DC060C
:102450008093DB0686EA98E00E947E0D982F929585
:102460009F708F709C9F800D112490E09093DE06EA
:102470008093DD06CF910895CF93DF93EC0188819F
:102480009981009711F00E948149198218821D825A
:102490001C821B821A82DF91CF910895FC018081FA
:1024A0009181009711F00C94814908958F929F9229
:1024B000AF92BF920F931F93CF93DF93CDB7DEB749
:1024C000A1970FB6F894DEBF0FBECDBF19A2423060
:1024D00008F44AE08E010F5D1F4F842E912CB12C21
:1024E000A12CA50194010E948D48E62FB901CA01D3
:1024F000EA3044F5E05DD801EE938D01232B242BC7
:10250000252B79F790E080E0109769F0FD010190AC
:102510000020E9F73197AF014A1B5B0BBD0189E051
:1025200098E00E94CB07A1960FB6F894DEBF0FBECD
:10253000CDBFDF91CF911F910F91BF90AF909F9032
:102540008F900895E95CD7CF42E050E06EE374E0ED
:1025500089E098E00C94CB07CF93DF930E94B808F2
:10256000EC010E94A4128C0F9D1FDF91CF91089562
:10257000CF92DF92EF92FF92CF93DF936C01990F8E
:10258000EE08FF08F7FE1DC06DE289E098E00E94AA
:102590006B08EC0166277727CB016C197D098E0942
:1025A0009F094AE00E945612C80FD91F0E94A41228
:1025B0008C0F9D1FDF91CF91FF90EF90DF90CF9018
:1025C00008954AE0C701B6010E945612EC01EECF11
:1025D000CF93DF93682F70E090E080E04AE00E94A4
:1025E0005612EC010E94A4128C0F9D1FDF91CF9117
:1025F0000895CF93DF93FC014481558160817181FF
:1026000089E098E00E94CB07EC010E94A4128C0F95
:102610009D1FDF91CF910895FC01808191810097EA
:1026200011F00C94DC4560E070E0CB0108950F934D
:102630001F93CF93DF938C01EB01FC01808191818B
:102640000097E1F06881798161157105A9F04281F7
:1026500053812C813D814217530770F00E94F44A48
:102660008C819D81F801958384831D821C82DF917A
:10267000CF911F910F9108950E948149888199817E
:10268000F801918380838A819B81938382838C81EB
:102690009D8195838483198218821B821A82E5CFDB
:1026A0000F931F93CF93DF93EC018881998100975B
:1026B00059F02A813B812617370730F081E0DF91FE
:1026C000CF911F910F9108958B016F5F7F4F0E94F3
:1026D0000A4A009759F0998388831B830A832C81C7
:1026E0003D81232B59F7FC011082E8CF80E0E7CF32
:1026F000EF92FF920F931F93CF93DF9361157105B4
:1027000041F480E0DF91CF911F910F91FF90EF9006
:10271000089541155105B1F07B01EC010C811D813B
:10272000040F151FB8010E945013882351F328810C
:1027300039818C819D81B701820F931F0E94F44AD9
:102740001D830C8381E0DECFCF93DF93EC01FB018F
:1027500001900020E9F73197AF01461B570B0E940B
:102760007813811103C0CE010E943C12CE01DF918B
:10277000CF910895CF93DF93EC01FB014481558104
:10278000608171810E947813811103C0CE010E9483
:102790003C12CE01DF91CF910895EF92FF920F93FB
:1027A0001F93CF93DF93EC017B018A01BA010E9452
:1027B000501381110BC0CE010E943C12CE01DF915B
:1027C000CF911F910F91FF90EF9008951D830C837F
:1027D000B701888199810E94F44AF0CFFB010190F2
:1027E0000020E9F73197AF01461B570B0C94CD132E
:1027F0000F931F93CF93DF93CDB7DEB762970FB6DA
:10280000F894DEBF0FBECDBF8C01CB01F801118261
:10281000108213821282158214824AE0BE016F5F19
:102820007F4F0E940346BE016F5F7F4FC8010E9429
:10283000EE1362960FB6F894DEBF0FBECDBFDF91E8
:10284000CF911F910F910895CF93DF93EC01FB017E
:102850008617970749F0608171816115710541F014
:10286000448155810E94CD13CE01DF91CF9108950F
:102870000E943C12F9CFFC01118210821382128255
:10288000158214820C942414FC011182108213828C
:10289000128215821482FB0101900020E9F7319722
:1028A000AF01461B570B0C94CD13AF92BF92CF9242
:1028B000DF92EF92FF920F931F93CF93DF936C0100
:1028C0005B017A0189012417350720F48F2D7901E6
:1028D000042F182F60E474E0C6010E944414D5014F
:1028E0001496CD91DC91EC16FD06E0F40C171D0753
:1028F00008F4E801D501ED91FC911197EC0FFD1F53
:10290000108110826D917C916E0D7F1DC601611545
:102910007105A1F00E94EE13F50180819181C80F2D
:10292000D91F1883C601DF91CF911F910F91FF909E
:10293000EF90DF90CF90BF90AF9008950E943C122F
:10294000EBCF4F925F926F927F928F929F92AF9256
:10295000BF92CF92DF92EF92FF920F931F93CF938C
:10296000DF9300D000D0CDB7DEB77C014B015A0118
:1029700080913F0681113AC081E080933F0690EF3D
:10298000692E95E0792E2AEE422E25E0522E10E097
:1029900000E00F5F1F4F680181E0C81AD10898015D
:1029A000A601B401CE0101960E945514CE010196F4
:1029B0000E940C13D3016D933D01CE0101960E943C
:1029C0004E129801A601B501CE0101960E94551440
:1029D000CE0101960E940C13F20161932F01CE01EA
:1029E00001960E944E120630110599F69091E90564
:1029F00080EFC82E85E0D82EEAEEF5E08601A8012A
:102A0000D8018C919A3008F04DC08F5F8C930F5F86
:102A10001F4FDA018C918A3019F4D80111971C925A
:102A20003196B5E0063F1B0751F79F5F943109F4DB
:102A30003FC09093E90560E474E0C7010E9444142C
:102A4000FE0131965F01D6018D916D014AE0B5011D
:102A500090E00E940346F50101900020E9F73197CC
:102A6000AF014A195B09B501C7010E9478130C1523
:102A70001D0549F7C70126960FB6F894DEBF0FBEB5
:102A8000CDBFDF91CF911F910F91FF90EF90DF901D
:102A9000CF90BF90AF909F908F907F906F905F90FE
:102AA0004F9008952081281709F4B1CF8F5FAECFE2
:102AB0001092E90510923F06BECFCF92DF92EF92BF
:102AC000FF921F93CF93DF93CDB7DEB72C970FB64E
:102AD000F894DEBF0FBECDBF182F67E574E0CE01BE
:102AE00007960E94441422E030E050E040E01330AA
:102AF00071F024E030E042E050E01C3041F010334F
:102B0000B9F42091E9093091EA0944E050E065EE1A
:102B100079E0CE0101960E945514BE016F5F7F4F90
:102B2000CE0107960E941713CE0101960E944E1205
:102B3000CE0107960E940C136B01CE0107960E94EE
:102B40004E12C6012C960FB6F894DEBF0FBECDBF55
:102B5000DF91CF911F91FF90EF90DF90CF9008957C
:102B60008F929F92AF92BF92CF92DF92EF92FF929D
:102B70000F931F93CF93DF93CDB7DEB72C970FB68C
:102B8000F894DEBF0FBECDBF8C016A017B0180913E
:102B90000806811111C00E94BC07645B7B4F8F4FF8
:102BA0009F4F6093040670930506809306069093EA
:102BB000070681E0809308068091FC05811109C019
:102BC00061E474E086EF95E00E94441481E0809314
:102BD000FC050E94BC078090040690900506A0901A
:102BE0000606B0900706681979098A099B09693EAB
:102BF00073408105910508F4D0C00E94BC07609322
:102C0000040670930506809306069093070620E05D
:102C100030E0A901C701B6010E94444820E030E03D
:102C200040E05FE387FDD2C0C701B6010E94A24722
:102C30000E940E487B0177FF04C0EE24FF24E61AB1
:102C4000F70A5B0139E1A31A3CEFB30A80916702EE
:102C5000909168029B012D593F4F69012A55310916
:102C60004901B701892B09F0B6C0CE0107960E9431
:102C7000F81366E474E0CE0101960E944414BE018C
:102C8000695F7F4FCE0101960E94BA1366E474E03B
:102C90000E94A413BC0186EF95E00E942414CE018B
:102CA00001960E944E12CE0107960E944E123FECF2
:102CB000A31637E0B30618F5B701CE0107960E94B8
:102CC000F81365E474E0CE0101960E944414BE013D
:102CD000695F7F4FCE0101960E94BA1366E474E0EB
:102CE0000E94A413BC0186EF95E00E942414CE013B
:102CF00001960E944E12CE0107960E944E1287EC5A
:102D0000C816D10418F5B701CE0107960E94F81332
:102D100064E474E0CE0101960E944414BE01695F30
:102D20007F4FCE0101960E94BA1366E474E00E94C0
:102D3000A413BC0186EF95E00E942414CE010196F5
:102D40000E944E12CE0107960E944E1223E1821677
:102D5000910418F5B701CE0107960E94F81363E4B9
:102D600074E0CE0101960E944414BE01695F7F4F5A
:102D7000CE0101960E94BA1366E474E00E94A41387
:102D8000BC0186EF95E00E942414CE0101960E94BA
:102D90004E12CE0107960E944E1266EF75E0C801F2
:102DA0000E943B14C8012C960FB6F894DEBF0FBEEC
:102DB000CDBFDF91CF911F910F91FF90EF90DF90EA
:102DC000CF90BF90AF909F908F900895C701B601AC
:102DD0000E94A1472DCFCE0107960E94F81366E40A
:102DE00074E0CE0101960E944414BE01695F7F4FDA
:102DF000CE0101960E94BA1366E474E00E94A41307
:102E0000BC0186EF95E00E942414CE0101960E9439
:102E10004E12CE0107960E944E123FECA31637E0E9
:102E2000B30638F5C7016AE070E00E947948CE0128
:102E300007960E94F81365E474E0CE0101960E94A3
:102E40004414BE01695F7F4FCE0101960E94BA1300
:102E500065E474E00E94A413BC0186EF95E00E9433
:102E60002414CE0101960E944E12CE0107960E94B4
:102E70004E1287ECC816D10438F5C7016AE070E03D
:102E80000E947948CE0107960E94F81364E474E02A
:102E9000CE0101960E944414BE01695F7F4FCE01AE
:102EA00001960E94BA1365E474E00E94A413BC0169
:102EB00086EF95E00E942414CE0101960E944E12E6
:102EC000CE0107960E944E1223E18216910408F06B
:102ED00064CFC7016AE070E00E947948CE0107968E
:102EE0000E94F81363E474E0CE0101960E9444143A
:102EF000BE01695F7F4FCE0101960E94BA1365E45F
:102F000074E03CCF0F931F93CF93DF93CDB7DEB721
:102F1000A4970FB6F894DEBF0FBECDBF8B018330F0
:102F200009F069C02091E9093091EA0942E050E0D6
:102F300065EE79E0CE0149960E945514B80117FF5D
:102F400004C066277727601B710B075F1F4FCE01F8
:102F50000331110508F04AC007960E94F81366E491
:102F600074E0CE0101960E944414BE01695F7F4F58
:102F7000CE0101960E94BA13BC01CE010D960E94AB
:102F80003B1411E0BE01635F7F4FCE0143960E9468
:102F90003B14BE01675E7F4FCE0143960E94BA1379
:102FA000BC0185EE99E00E942414CE0143960E9454
:102FB0004E12CE010D960E944E12112341F0CE0109
:102FC00001960E944E12CE0107960E944E12CE012B
:102FD00049960E944E12A4960FB6F894DEBF0FBE1B
:102FE000CDBFDF91CF911F910F9108950D960E9453
:102FF000F81310E0C7CF8C3009F070C02091E909B8
:103000003091EA0944E050E065EE79E0CE014F9658
:103010000E945514B80117FF04C066277727601B6C
:10302000710B075F1F4FCE010331110508F051C02E
:1030300043960E94F81366E474E0CE010D960E9458
:103040004414BE016D5E7F4FCE010D960E94BA13EF
:10305000BC01CE0149960E943B1411E022E030E011
:1030600050E040E065EE79E0CE0101960E945514F3
:10307000BE016F5F7F4FCE0107960E943B14BE01D9
:10308000675E7F4FCE0107960E94BA13BE01615E54
:103090007F4F0E94BA13BC0185EE99E00E94241470
:1030A000CE0107960E944E12CE0101960E944E124A
:1030B000CE0149960E944E12112341F0CE010D9689
:1030C0000E944E12CE0143960E944E12CE014F96A0
:1030D00080CF49960E94F81310E0C0CF803309F0EA
:1030E0007ACF77FF04C066277727601B710B075FD5
:1030F0001F4FCE010331110508F049C043960E94CD
:10310000F81366E474E0CE010D960E944414BE01EB
:103110006D5E7F4FCE010D960E94BA13BC01CE01A9
:1031200049960E943B1411E024E030E050E040E07A
:1031300065EE79E0CE0101960E945514BE016F5FE5
:103140007F4FCE0107960E943B14BE01675E7F4F02
:10315000CE0107960E94BA13BC0185EE99E00E9449
:103160002414CE0107960E944E12CE0101960E94B1
:103170004E12CE0149960E944E12112309F42BCF14
:10318000CE010D960E944E12CE01439622CF499653
:103190000E94F81310E0C8CF0E94BC076093E005BE
:1031A0007093E1058093E2059093E3058091DF053C
:1031B000882309F44FC02091410630914206C9018D
:1031C000880F991F22313105A1F1FC01EF5BFD4F02
:1031D000408151814150510951834083DC01AF5BF3
:1031E000BD4F6D917C911197FC01E451FC4F4081E2
:1031F0005181641775073CF4FC01E256FC4F408195
:1032000051814D935C932131310509F52091630281
:103210003091640221303105B9F420E8209328066A
:103220008F5B9D4FFC0160817181809138060C9409
:10323000821740916502509166024C50510950939B
:10324000660240936502CACF10922806E9CF2A3061
:10325000310531F708950E94BC076093E005709333
:10326000E1058093E2059093E3058091DF058823D3
:1032700009F444C02091410630914206C901880FEB
:10328000991F2231310561F1FC01EF5BFD4F408157
:1032900051814F5F5F4F51834083DC01AF5BBD4F76
:1032A0006D917C911197FC01E256FC4F4081518158
:1032B000461757073CF4FC01E451FC4F4081518113
:1032C0004D935C9321313105B1F4109228068F5B48
:1032D0009D4FFC0160817181809138060C948217AA
:1032E0004091650250916602445F5F4F50936602C1
:1032F00040936502D2CF2A30310549F70895CF9225
:10330000DF92FF920F931F93CF93DF93CDB7DEB77A
:10331000EC970FB6F894DEBF0FBECDBF6C01809165
:10332000650290916602489709F032C10E94890BAC
:1033300018161906A4F40E94890B11E00A97ACF044
:1033400010E00E94890B181619060CF04BC00E9461
:10335000890BBC01CE01C7960E94F81324C00E94BD
:10336000890B11E0873F9F4F5CF30E94890B181671
:10337000190694F50E94890BBC01CE01C1960E94EA
:10338000F81366E474E0CE018B960E944414BE01EB
:103390006F5C7F4FCE018B960E94BA13BC01CE01A9
:1033A000C7960E943B140E94910B1816190604F54B
:1033B0000E94910B01E00A970CF100E00E94910B32
:1033C000181619060CF058C00E94910BBC01CE01D2
:1033D00085960E94F81330C00E94890B91958195C3
:1033E0009109CACF0E94890B919581959109B1CF1E
:1033F0000E94910B01E0873F9F4FFCF20E94910BCE
:10340000181619069CF50E94910BBC01CE014F962F
:103410000E94F81366E474E0CE0149960E944414B9
:10342000BE01615E7F4FCE0149960E94BA13BC0176
:10343000CE0185960E943B140E94AA0B181619060D
:103440000CF50E94AA0BFF24F3940A9714F1F12CB7
:103450000E94AA0B181619060CF094C00E94AA0B21
:10346000BC01CE010D960E94F81332C00E94910B50
:10347000919581959109C9CF0E94910B9195819564
:103480009109A4CF0E94AA0BFF24F394873F9F4F7A
:10349000F4F20E94AA0B181619060CF06DC00E94D7
:1034A000AA0BBC01CE0107960E94F81366E474E0F3
:1034B000CE0101960E944414BE01695F7F4FCE0188
:1034C00001960E94BA13BC01CE010D960E943B14D6
:1034D000BE01635F7F4FCE0143960E943B14BE0145
:1034E0006B5D7F4FCE0143960E94BA13BE01695CAB
:1034F0007F4F0E94BA13BC01C6010E943B14CE014B
:1035000043960E944E12CE010D960E944E12FF204D
:1035100041F0CE0101960E944E12CE0107960E9404
:103520004E12CE0185960E944E12002341F0CE012C
:1035300049960E944E12CE014F960E944E12CE0125
:10354000C7960E944E12112341F0CE018B960E9425
:103550004E12CE01C1960E944E12C601EC960FB6D5
:10356000F894DEBF0FBECDBFDF91CF911F910F91B9
:10357000FF90DF90CF9008950E94AA0B91958195BE
:1035800091098FCF0E94AA0B91958195910968CFDF
:103590000E94890B18161906A4F40E94890B11E0E9
:1035A0000A97ACF010E00E94890B181619060CF06F
:1035B0004BC00E94890BBC01CE01C7960E94F81334
:1035C00024C00E94890B11E0873F9F4F5CF30E944B
:1035D000890B1816190694F50E94890BBC01CE01BF
:1035E000C1960E94F81366E474E0CE018B960E94A7
:1035F0004414BE016F5C7F4FCE018B960E94BA13BC
:10360000BC01CE01C7960E943B140E94910B181674
:10361000190604F50E94910B01E00A970CF100E0F5
:103620000E94910B181619060CF052C00E94910BC3
:10363000BC01CE0185960E94F81330C00E94890B10
:10364000919581959109CACF0E94890B9195819599
:103650009109B1CF0E94910B01E0873F9F4FFCF28F
:103660000E94910B181619066CF50E94910BBC0173
:10367000CE014F960E94F81366E474E0CE0149969D
:103680000E944414BE01615E7F4FCE0149960E94A4
:10369000BA13BC01CE0185960E943B140E94990B7F
:1036A00018161906DCF40E94990BFF24F3940A976C
:1036B000E4F0F12C0E94990B181619060CF50E94E3
:1036C000990BCECE0E94910B919581959109CFCF08
:1036D0000E94910B919581959109AACF0E94990B17
:1036E000FF24F394873F9F4F24F30E94990B1816F1
:1036F00019061CF40E94990BD4CE0E94990B3ECF60
:103700000E94990B41CFEF92FF920F931F93CF939B
:10371000DF93CDB7DEB7CE54D1090FB6F894DEBF34
:103720000FBECDBF8091550681110DC00E94BC0710
:1037300060935106709352068093530690935406FB
:1037400081E0809355068091490681110DC00E9449
:10375000BC07609345067093460680934706909396
:10376000480681E0809349060E94BC0700915106FB
:10377000109152062091530630915406601B710B34
:10378000820B930B00913A0210913B0220913C0274
:1037900030913D02061717072807390708F04DC07A
:1037A0000E94BC07609351067093520680935306A3
:1037B000909354068091430690914406009709F037
:1037C000DEC081E090E0909342068093410688E855
:1037D00093E1A0E0B0E080933A0290933B02A09383
:1037E0003C02B0933D0280914306909144068230A2
:1037F000910581F4109242061092410640E65AEE7D
:1038000060E070E040933A0250933B0260933C02C8
:1038100070933D020196833091050CF0D0C09093D7
:1038200044068093430680914006882321F010923D
:10383000420610924106109240060E94BC07009179
:103840005106109152062091530630915406601B88
:10385000710B820B930B603D77408105910508F059
:1038600070C60E94BC070091450610914606209143
:10387000470630914806601B710B820B930B65362F
:1038800071058105910508F45AC30E94BC07609335
:1038900045067093460680934706909348068091AC
:1038A0004106909142062091CA06222309F461C381
:1038B000892B89F5CE0107960E947F1981E020911E
:1038C000670230916802232B09F480E00E94300FD8
:1038D000AB01BC01CE010D960E94B015AE01495F4F
:1038E0005F4FBE01635F7F4FCE0101960E94A1141E
:1038F000BE016F5F7F4F85EE99E00E941713CE01E6
:1039000001960E944E12CE010D960E944E12CE01DB
:1039100007960E944E1280914106909142060197AF
:1039200009F08BC10E946F0B08EE13E0B8010E94F2
:103930007948181619060CF047C00E946F0BB801A1
:103940000E94794811E00A970CF448C010E00E94E8
:103950006F0BE8EEEE2EE3E0FE2EB7010E947948F1
:10396000181619060CF084C00E946F0BB7010E9454
:103970007948BC01CE010D960E94F81357C00197FB
:1039800009F031CF84E090E09093420680934106A5
:1039900088E893E1A0E0B0E080933A0290933B0284
:1039A000A0933C02B0933D028091CA068111CCC520
:1039B00082E090E0909344068093430614CF1092E7
:1039C0004406109243062FCF0E946F0BB8010E944D
:1039D000794811E0873F9F4F0CF4B8CF0E946F0BDE
:1039E000F8EEEF2EF3E0FF2EB7010E94794818168B
:1039F0001906ACF50E946F0BB7010E947948BC0113
:103A0000CE0143960E94F81366E474E0CE01499615
:103A10000E944414BE016D5E7F4FCE0149960E9404
:103A2000BA13BC01CE010D960E943B140E94790B83
:103A30001816190634F50E94790B01E00A973CF13B
:103A400000E00E94790B181619060CF05EC00E9467
:103A5000790BBC01CE014F960E94F81336C00E942C
:103A60006F0BB7010E947948919581959109C7CF55
:103A70000E946F0BB7010E94794891958195910939
:103A800078CF0E94790B01E0873F9F4FCCF20E94D4
:103A9000790B181619069CF50E94790BBC01CE0112
:103AA00085960E94F81366E474E0CE018B960E941E
:103AB0004414BE016B5D7F4FCE018B960E94BA13FA
:103AC000BC01CE014F960E943B140E94810B181638
:103AD00019060CF50E94810BFF24F3940A9714F148
:103AE000F12C0E94810B181619060CF0EEC00E94F2
:103AF000810BBC01CE01C7960E94F81334C00E940E
:103B0000790B919581959109C9CF0E94790B919577
:103B1000819591099ECF0E94810BFF24F394873FEA
:103B20009F4FF4F20E94810B181619060CF0C7C0C3
:103B30000E94810BBC01CE01CD960E94F81366E471
:103B400074E0CE018D5B9F4F0E944414BE01635C04
:103B50007F4FCE018D5B9F4F0E94BA13BC01CE01F7
:103B6000C7960E943B14BE01695C7F4FCE01C1968F
:103B70000E943B14BE01615E7F4FCE01C1960E9440
:103B8000BA13BE01635F7F4F0E94BA13BC01CE011E
:103B900007960E943B14CE01875B9F4F0E947F19BE
:103BA000AE01495F5F4FBE01675B7F4FCE0101965B
:103BB0000E94A114BE016F5F7F4F85EE99E00E94C5
:103BC0001713CE0101960E944E12CE01875B9F4FC4
:103BD0000E944E12CE0107960E944E12CE01C1964F
:103BE0000E944E12CE01C7960E944E12FF2049F04D
:103BF000CE018D5B9F4F0E944E12CE01CD960E944A
:103C00004E12CE014F960E944E12002341F0CE017B
:103C10008B960E944E12CE0185960E944E12CE01C6
:103C20000D960E944E12112341F0CE0149960E943A
:103C30004E12CE0143960E944E1280914106909101
:103C40004206049709F07BC181E020916702309120
:103C50006802232B09F480E00E94300FAB01BC0105
:103C6000CE0107960E94B0150E946F0B08EE13E07C
:103C7000B8010E947948181619066CF50E946F0B5E
:103C8000B8010E94794811E00A9774F110E00E948F
:103C90006F0B68EEE62E63E0F62EB7010E947948BE
:103CA000181619060CF06AC00E946F0BB7010E942B
:103CB0007948BC01CE0143960E94F8133DC00E9492
:103CC000810B91958195910935CF0E94810B91953A
:103CD000819591090ECF0E946F0BB8010E9479481F
:103CE00011E0873F9F4F94F20E946F0B78EEE72E12
:103CF00073E0F72EB7010E94794818161906ACF543
:103D00000E946F0BB7010E947948BC01CE01499611
:103D10000E94F81366E474E0CE014F960E944414AA
:103D2000BE01675E7F4FCE014F960E94BA13BC0161
:103D3000CE0143960E943B140E94790B1816190677
:103D400034F50E94790B01E00A973CF100E00E94F3
:103D5000790B181619060CF05EC00E94790BBC0195
:103D6000CE0185960E94F81336C00E946F0BB701F2
:103D70000E947948919581959109C7CF0E946F0B58
:103D8000B7010E94794891958195910992CF0E943F
:103D9000790B01E0873F9F4FCCF20E94790B1816F8
:103DA00019069CF50E94790BBC01CE018B960E94EE
:103DB000F81366E474E0CE01C1960E944414BE017B
:103DC000655D7F4FCE01C1960E94BA13BC01CE0142
:103DD00085960E943B140E94810B181619060CF55B
:103DE0000E94810BFF24F3940A9714F1F12C0E9496
:103DF000810B181619060CF0B6C00E94810BBC018D
:103E0000CE01CD960E94F81335C00E94790B919592
:103E100081959109C9CF0E94790B9195819591095E
:103E20009ECF0E94810BFF24F394873F9F4FF4F2B3
:103E30000E94810B181619060CF08FC00E94810B8E
:103E4000BC01CE018D5B9F4F0E94F81366E474E0C5
:103E5000CE01875B9F4F0E944414BE016D5B7F4F74
:103E6000CE01875B9F4F0E94BA13BC01CE01CD9655
:103E70000E943B14BE01635C7F4FCE01C7960E9437
:103E80003B14BE016B5D7F4FCE01C7960E94BA13F3
:103E9000BE016D5E7F4F0E94BA13BC01CE010D962C
:103EA0000E943B14AE01495F5F4FBE01635F7F4FCD
:103EB000CE0101960E94A114BE016F5F7F4F85EE77
:103EC00099E00E941713CE0101960E944E12CE0176
:103ED0000D960E944E12CE01C7960E944E12CE0140
:103EE000CD960E944E12FF2051F0CE01875B9F4F6E
:103EF0000E944E12CE018D5B9F4F0E944E12CE014A
:103F000085960E944E12002341F0CE01C1960E9478
:103F10004E12CE018B960E944E12CE0143960E9405
:103F20004E12112341F0CE014F960E944E12CE0147
:103F300049960E944E12CE0107960E944E12C25B15
:103F4000DF4F0FB6F894DEBF0FBECDBFDF91CF912C
:103F50001F910F91FF90EF9008950E94810B919512
:103F6000819591096DCF0E94810B91958195910961
:103F700046CF892B09F063C1CE0107960E947F19B5
:103F80000E946F0B08EE13E0B8010E9479481816E2
:103F900019060CF50E946F0BB8010E94794811E0D8
:103FA0000A9714F110E00E946F0B48EEE42E43E0F4
:103FB000F42EB7010E947948181619060CF05EC05D
:103FC0000E946F0BB7010E947948BC01CE01439655
:103FD0000E94F81331C00E946F0BB8010E9479480B
:103FE00011E0873F9F4FF4F20E946F0B58EEE52ED1
:103FF00053E0F52EB7010E94794818161906ACF562
:104000000E946F0BB7010E947948BC01CE0149960E
:104010000E94F81366E474E0CE014F960E944414A7
:10402000BE01675E7F4FCE014F960E94BA13BC015E
:10403000CE0143960E943B140E94790B1816190674
:1040400034F50E94790B01E00A973CF100E00E94F0
:10405000790B181619060CF05EC00E94790BBC0192
:10406000CE0185960E94F81336C00E946F0BB701EF
:104070000E947948919581959109C7CF0E946F0B55
:10408000B7010E9479489195819591099ECF0E9430
:10409000790B01E0873F9F4FCCF20E94790B1816F5
:1040A00019069CF50E94790BBC01CE018B960E94EB
:1040B000F81366E474E0CE01C1960E944414BE0178
:1040C000655D7F4FCE01C1960E94BA13BC01CE013F
:1040D00085960E943B140E94810B181619060CF558
:1040E0000E94810BFF24F3940A9714F1F12C0E9493
:1040F000810B181619060CF0DAC00E94810BBC0166
:10410000CE01CD960E94F81335C00E94790B91958F
:1041100081959109C9CF0E94790B9195819591095B
:104120009ECF0E94810BFF24F394873F9F4FF4F2B0
:104130000E94810B181619060CF0B3C00E94810B67
:10414000BC01CE018D5B9F4F0E94F81366E474E0C2
:10415000CE01875B9F4F0E944414BE016D5B7F4F71
:10416000CE01875B9F4F0E94BA13BC01CE01CD9652
:104170000E943B14BE01635C7F4FCE01C7960E9434
:104180003B14BE016B5D7F4FCE01C7960E94BA13F0
:10419000BE016D5E7F4F0E94BA13BC01CE010D9629
:1041A0000E943B14AE01495F5F4FBE01635F7F4FCA
:1041B000CE0101960E94A114BE016F5F7F4F85EE74
:1041C00099E00E941713CE0101960E944E12CE0173
:1041D0000D960E944E12CE01C7960E944E12CE013D
:1041E000CD960E944E12FF2051F0CE01875B9F4F6B
:1041F0000E944E12CE018D5B9F4F0E944E12CE0147
:1042000085960E944E12002341F0CE01C1960E9475
:104210004E12CE018B960E944E12CE0143960E9402
:104220004E12112341F0CE014F960E944E12CE0144
:1042300049960E944E12CE0107960E944E1280911E
:10424000410690914206019709F079CE0E946F0BCA
:1042500008EE13E0B8010E947948181619066CF5AB
:104260000E946F0BB8010E94794811E00A9774F11F
:1042700010E00E946F0B28EEE22E23E0F22EB70131
:104280000E947948181619060CF06AC00E946F0B3C
:10429000B7010E947948BC01CE010D960E94F81327
:1042A0003DC00E94810B91958195910949CF0E9453
:1042B000810B91958195910922CF0E946F0BB801D6
:1042C0000E94794811E0873F9F4F94F20E946F0B44
:1042D00038EEE32E33E0F32EB7010E94794818162A
:1042E0001906ACF50E946F0BB7010E947948BC011A
:1042F000CE0143960E94F81366E474E0CE0149961D
:104300000E944414BE016D5E7F4FCE0149960E940B
:10431000BA13BC01CE010D960E943B140E94790B8A
:104320001816190634F50E94790B01E00A973CF142
:1043300000E00E94790B181619060CF05EC00E946E
:10434000790BBC01CE014F960E94F81336C00E9433
:104350006F0BB7010E947948919581959109C7CF5C
:104360000E946F0BB7010E94794891958195910940
:1043700092CF0E94790B01E0873F9F4FCCF20E94C1
:10438000790B181619069CF50E94790BBC01CE0119
:1043900085960E94F81366E474E0CE018B960E9425
:1043A0004414BE016B5D7F4FCE018B960E94BA1301
:1043B000BC01CE014F960E943B140E94810B18163F
:1043C00019060CF50E94810BFF24F3940A9714F14F
:1043D000F12C0E94810B181619060CF0ACC00E943B
:1043E000810BBC01CE01C7960E94F81334C00E9415
:1043F000790B919581959109C9CF0E94790B91957F
:10440000819591099ECF0E94810BFF24F394873FF1
:104410009F4FF4F20E94810B181619060CF085C00C
:104420000E94810BBC01CE01CD960E94F81366E478
:1044300074E0CE018D5B9F4F0E944414BE01635C0B
:104440007F4FCE018D5B9F4F0E94BA13BC01CE01FE
:10445000C7960E943B14BE01695C7F4FCE01C19696
:104460000E943B14BE01615E7F4FCE01C1960E9447
:10447000BA13BE01635F7F4F0E94BA13BC01CE0125
:1044800007960E943B14CE01875B9F4F0E947F19C5
:10449000AE01495F5F4FBE01675B7F4FCE01019662
:1044A0000E94A114BE016F5F7F4F85EE99E00E94CC
:1044B0001713CE0101960E944E12CE01875B9F4FCB
:1044C0000E944E12CE0107960E944E12CE01C19656
:1044D0000E944E12CE01C7960E944E12FF2049F054
:1044E000CE018D5B9F4F0E944E12CE01CD960E9451
:1044F0004E12CE014F960E944E12002341F0CE0183
:104500008B960E944E12CE0185960E944E12CE01CD
:104510000D960E944E12112309F411CDCE01499639
:104520000E944E12CE01439608CD0E94810B9195B8
:104530008195910977CF0E94810B91958195910981
:1045400050CF10923F06FBCC81E090E063C985ED2F
:104550008093BC008091360790913707A09138076F
:10456000B09139070796A11DB11D23E0B695A79517
:10457000979587952A95D1F72091BC0024FD03C01B
:104580001092340708954091360750913707609193
:10459000380770913907452B462B472B69F3009755
:1045A000A105B10541F02AE22A95F1F700C0019773
:1045B000A109B109E1CF809135070C94660C0C94E8
:1045C00079470C9471478F929F92AF92BF92CF928E
:1045D000DF92EF92FF920F931F93CF93DF9388E0C8
:1045E00090E00E94E122C82FC82ED12C89E090E0F3
:1045F0000E94E122882EE82EF12C8AE090E00E94B1
:10460000E122082F10E0912CB12CA12CBA2CA92C5E
:10461000982C8824AC2A882AD0E0C0E080914002FF
:10462000B501A401811103C040E050E0BA01CE0100
:104630000E9493022196C830D10581F70E94AE06F0
:1046400087ED92E00E94AC1282ED92E00E94B808E1
:10465000C6010E94B8128BEC92E00E94B808C70114
:104660000E94B81285EC92E00E94B808C801DF9160
:10467000CF911F910F91FF90EF90DF90CF90BF905F
:10468000AF909F908F900C94B8128091250688234C
:1046900041F01092250680912406809340020C94EC
:1046A000E32208950F931F93809163029091640217
:1046B000892B09F44FC08091E8058823A9F00E9456
:1046C000BC070091E4051091E5052091E6053091C5
:1046D000E705601B710B820B930B693E73408105EC
:1046E0009105C0F11092E8050E94AA0B20915D028D
:1046F00030915E028217930769F50E94910B209119
:104700005F02309160028217930721F50E94890BA6
:10471000209161023091620282179307D9F40E94BE
:1047200045230E94BC076093E4057093E5058093E0
:10473000E6059093E70581E08093E8058DE992E036
:104740000E94AC1280913E0290913F029093D40659
:104750008093D3061F910F9108952F923F924F920D
:104760005F926F927F928F929F92AF92BF92CF9201
:10477000DF92EF92FF920F931F93CF93DF93CDB70A
:10478000DEB7C055D1090FB6F894DEBF0FBECDBF5E
:1047900080911905811107C00E94AA0B809318050A
:1047A00081E0809319058091DF05811129C0009176
:1047B000180510E00E94AA0B0817190709F10E94BA
:1047C000AA0B809318050E94AA0B20916B023091CE
:1047D0006C028217930749F481E08093250680914B
:1047E000400280932406109240020E94AA0B20915E
:1047F0006D0230916E028217930711F40E944523D7
:104800000E94BC0720E137E240E050E00E948D4862
:10481000672B682B692B01F58091DF068823E1F077
:104820000E94C211E090DD06F090DE060091DB06EA
:104830001091DC062091D9063091DA064091E0060D
:104840005091E1066091D7067091D8068091D50607
:104850009091D6060E944B0A0E94BC076093D50532
:104860007093D6058093D7059093D8050091D10514
:104870001091D2052091D3053091D405601B710BA6
:10488000820B930B0091320210913302209134027B
:10489000309135020617170728073907E0F5809190
:1048A000D005811107C083E892E00E94AC1281E03C
:1048B0008093D0058CE697E00E942908892B59F156
:1048C0008CE697E00E94070890917405E92FF0E0CC
:1048D000EF5DFA4F80839F5F923509F444C1909356
:1048E00074058A30C1F4E0917405F0E0EF5DFA4F91
:1048F000108210927405E2E2F5E021E030E040E041
:104900005191C90101965A3209F430C145279C01E1
:1049100083359105A9F74091D5055091D605609151
:10492000D7057091D8058091D1059091D205A091BD
:10493000D305B091D4058A019B01081B190B2A0BE2
:104940003B0B8091320290913302A0913402B091DE
:104950003502805A9541AF4FBF4F80179107A2078C
:10496000B30770F44093D1055093D2056093D305FB
:104970007093D40583E692E00E94AC121092D005A9
:104980001092C4051092C5051092C6051092C70575
:1049900089EB98E09093CB058093CA050091B60807
:1049A00010E01093CD050093CC058091830990E031
:1049B0009093CF058093CE058091B2088530A1F504
:1049C0008091B6088A3108F4C9C28091B9089091E3
:1049D000BA08843F914008F092C21092C905109223
:1049E000C8058FEF9FEFDC018093C4059093C50548
:1049F000A093C605B093C7058BE090E09093C105E6
:104A00008093C0056091C4057091C5058091C6056D
:104A10009091C70540E10E9456120E94A41282E0C4
:104A20008093B2081092B6086091C4057091C505D4
:104A300083E19AE00E9485109093BF058093BE05A4
:104A4000019721F488E592E00E94AC128091BE05A6
:104A50009091BF05019621F48AE492E00E94AC1285
:104A60006091C4057091C50586E09AE00E948510AA
:104A70009093BD058093BC05019721F481E492E0F9
:104A80000E94AC128091BC059091BD05019621F465
:104A900085E392E00E94AC126091C4057091C50557
:104AA00089EF99E00E9485109093BB058093BA0529
:104AB000019721F48AE292E00E94AC128091BA053B
:104AC0009091BB05019621F48CE192E00E94AC121A
:104AD0000091D3061091D406F8018081882309F44F
:104AE000AFC30E94BC07C0907B05D0907C05E090CE
:104AF0007D05F0907E056C197D098E099F09C09097
:104B00007705D0907805E0907905F0907A05C61683
:104B1000D706E806F90608F093C30E94BC074B01CC
:104B20005C0180927B0590927C05A0927D05B092FD
:104B30007E05780130E020E04AE0F801D1908F0155
:104B400080ED8D0D8A3008F0B1C2429FC001439FB5
:104B5000900D11242D2DDD0C330B20533109280F1E
:104B6000391F7F01EACF10927405BBCE8F5D9A4F3B
:104B7000FC01808181340CF087538295807F2F5D0A
:104B80003A4FF901928191340CF4B0C19753890FD7
:104B90004813C1CE80912105843209F0BCCE8091AA
:104BA0002405823509F0B7CE809125058D3409F0B2
:104BB000B2CE80912605833409F0ADCEA0902805B1
:104BC00090902905B0902A0560902B0570902C05D7
:104BD00040902D05ADE2B5E090E080E0ECE0F0E043
:104BE0002D912C3209F084C101968830910509F08D
:104BF0007FC1EF5FF0E0EF5DFA4FC080D18082812E
:104C0000082E000C990BC0971AE0189F7001199F8D
:104C1000F00C11248381E80EF11C87FDFA9420E347
:104C2000E21AF108048155804CE050E061E070E048
:104C3000C7010E94B745882309F46DCE8C2DCC0C9A
:104C4000990BC097189F9001199F300D1124C9012D
:104C50008D0D911DD7FC9A956C0190E3C91AD1086E
:104C60004FE150E061E070E0C6010E94B745882343
:104C700009F451CE8A2DAA0C990BC097189F900168
:104C8000199F300D1124F901E90DF11D97FCFA95DA
:104C90004F01F0E38F1A910847E150E070E060E0C7
:104CA000C4010E94B745882309F435CE8B2DBB0C77
:104CB000990BC097189F5001199FB00C1124A60C96
:104CC000B11C67FCBA9420E3A21AB1084BE350E090
:104CD00070E060E0C5010E94B745882309F41BCE4F
:104CE000872D770C990BC097189F3001199F700C76
:104CF0001124640C711C47FC7A9430E3631A710828
:104D00004BE350E070E060E0C3010E94B7458823A8
:104D100009F401CE202F000F330B20533109129FCD
:104D2000C001139F900D11248C010053184F050DE5
:104D3000111D57FC1A9500531109063E87E018070C
:104D4000C4F46982AA828B82CD82EE82025B0F83D9
:104D5000CE0101960E948B0986519B4DAE014F5F9B
:104D60005F4F0E946F0A0F8110E00E54184FEE80C3
:104D7000CD8046EF57E062EE77E0C8010E94B7456C
:104D8000882309F4C8CD8092200AA092210A60925B
:104D9000220AC092230AE092240A1093260A009362
:104DA000250A0E94BC076B017C01C092280AD092A0
:104DB000290AE0922A0AF0922B0A0E94BC076C1979
:104DC0007D098E099F09693B7B408105910508F0AB
:104DD000A2CD80ED91E00E94AC128091200A0E9449
:104DE000E8128091210A0E94E8128091220A0E9412
:104DF000E8128091250A9091260A18EEC12E13E040
:104E0000D12EB6010E9479487C010091240A10E05D
:104E10002091230A30E04091220A50E06091210A5B
:104E200070E08091200A90E00E944B0AA0916902F4
:104E3000B0916A0220E13EE00E94D6480091AF06A0
:104E40001091B0062091B1063091B206DC01CB0181
:104E5000800F911FA21FB31F8093AF069093B006DF
:104E6000A093B106B093B2060E94450943EB56E009
:104E70000E946F0A0E946F0B4C010E94790B082F51
:104E80000E94810BB82E0E94890BF82E0E94910B74
:104E9000182F0E94AA0B382FC401B6010E9479482E
:104EA000E82E2B2D4F2D612F832F0E94F90D80911D
:104EB000D5059091D605A091D705B091D8058093DE
:104EC000D1059093D205A093D305B093D40580E487
:104ED00097E7ABE1B0E08093320290933302A09366
:104EE0003402B09335021092D00515CD90534FCEB9
:104EF0003196E335F10509F073CEE0E07BCE809189
:104F0000BB089091BC0885974B9740F5E2EBF8E021
:104F100082E090E040E050E0BA01DC01119620917F
:104F2000B6082A171B0609F00CF496C023853485B1
:104F3000275031092730310508F08DC02585368589
:104F4000235131092F30310508F478C02585368585
:104F50002A5031092930310508F478C0063011058E
:104F60000CF45DCD22EB38E061963FAF2EAF619738
:104F700053E0252E312C65ECC62E6DE9D62E6CE162
:104F8000E62E61E8F62E201631060CF07EC0619602
:104F9000EEADFFAD619765857685A184B28490E022
:104FA00080E00E9452462B013C01B50190E080E078
:104FB0000E9452464B015C012DEC3CEC4CE45FE35B
:104FC0000E94B3469B01AC01C301B2010E944D4651
:104FD000F0E0E0E087FD14C02DEC3CEC4CE45FE336
:104FE000C301B2010E94B3469B01AC01C501B401EB
:104FF0000E944D46E2E0F0E087FD02C0E1E0F0E013
:10500000A701960163E971E080E091E00E944948C0
:105010006F01FF0FEE08FF08C626D726E826F926FF
:10502000FFEF2F1A3F0A61962EAD3FAD61972E5FBD
:105030003F4F61963FAF2EAF6197A5CF440F551FED
:10504000661F771F41600296349667CF440F551F45
:10505000661F771FF8CFCD0101979595879590939F
:10506000C9058093C8050C972CF41092C9051092BD
:10507000C80574CF4093C4055093C5056093C60519
:105080007093C70584E090E0B9CCC092C405D0927B
:10509000C505E092C605F092C70580E290E09093C6
:1050A000C9058093C8058FEF9FEFA8CC3093DE052C
:1050B0002093DD056091D9057091DA058091DB05BB
:1050C0009091DC052115310511F1032E000C440BE4
:1050D000550B0E94AF482093770530937805409395
:1050E000790550937A05EFE9ED0DE730B0F40E2E17
:1050F000000CFF0B8827E058F74D8F4F0C94CE48DB
:10510000C229C429B629BA29BC29BE29C02920919F
:10511000390230E050E040E0DCCF10927605F70134
:105120008181833241F4809176058F5F809376058B
:1051300087010E5F1F4FF80180818E32F1F4C0901D
:105140007705D0907805E0907905F0907A05C70151
:10515000B60122E030E040E050E00E94AF48C20ECD
:10516000D31EE41EF51EC0927705D0927805E0921A
:105170007905F0927A050F5F1F4FF8018081805307
:105180008A3008F003C1809375050F5F1F4FF80147
:1051900080818C3211F40F5F1F4FE0917605EE2372
:1051A00009F44EC0C0907705D0907805E09079055D
:1051B000F0907A05809175058450990B4CE0489FDA
:1051C0009001499F300D1124E20FF32FF11DEE0FD6
:1051D000FF1FE257FD4FB701A601808191810E9418
:1051E000C3040E94BC07681979098A099B09C6167D
:1051F000D706E806F90620F50E94BC0760937B05F8
:1052000070937C0580937D0590937E0580916B075C
:10521000813009F4C0C0823009F4C3C0811105C0D7
:1052200080916E008D7F80936E0060E080916A07B0
:105230000E9459048AEE91E00E94AC1210E000E056
:105240001093D4060093D3060E94BC070091B605C4
:105250001091B7052091B8053091B905601B710B0D
:10526000820B930B6135710581059105F8F08091F2
:105270006B07813009F49BC0823009F49BC0811117
:1052800005C080916E008695817031F48091400256
:10529000811193C00E946C0E0E94BC076093B605FA
:1052A0007093B7058093B8059093B9058091410636
:1052B00090914206892B21F080914006811106C011
:1052C0008091DF05811102C00E94831B8CEC99E064
:1052D0000E94B20B83EB99E00E94B20B8AE999E03D
:1052E0000E94B20B8091DF058111EBC0109238064D
:1052F0008091CC099091CD09181619063CF0809147
:10530000BE059091BF05019709F062C281E08093CC
:1053100040061092D4061092D30644E650E060E0B6
:1053200070E088EE93E00E94C304809125068823F4
:1053300009F4F4C00E944523C05BDF4F0FB6F89418
:10534000DEBF0FBECDBFDF91CF911F910F91FF90B8
:10535000EF90DF90CF90BF90AF909F908F907F9015
:105360006F905F904F903F902F90089581E08093D1
:105370007605D5CE83E0FBCF85E0F9CF86E0F7CF89
:1053800088E0F5CF8AE0F3CF8CE0F1CF809138024E
:1053900080937505FCCE80916F008D7F80936F00A8
:1053A00044CF809170008D7F809370003ECF8091BC
:1053B0006F0069CF8091700066CF8091E206811105
:1053C0006BCF0091810510918205F801EE0FFF1F50
:1053D000E00FF11FDF01AA0FBB1FA051BD4F8D9140
:1053E0009C914AE0489F9001499F300D1124809183
:1053F000020290910302280F391F30930302209379
:105400000202DF01AA0FBB1FAE50BD4F8D919C91D0
:10541000489FB001499F700D11248091AC05909177
:10542000AD05860F971F9093AD058093AC05EE0FE9
:10543000FF1FEC50FD4F60817181469F6001479FC7
:10544000D00C11244091AA055091AB05C40ED51E75
:10545000D092AB05C092AA05D12CF12CE22ED82A0D
:10546000B12CA12CB701A601C5010E949302FFEF48
:10547000AF1ABF0A28E0A216B104A1F70E94AE0637
:1054800080917F059091800501969093800580938F
:105490007F05499751F40F5F1F4F109382050093CA
:1054A00081051092800510927F0580918105909171
:1054B000820506970CF4F0CE1092820510928105B9
:1054C000EBCE0E94BC070091E0051091E105209110
:1054D000E2053091E305601B710B820B930B613683
:1054E0007A4E8105910508F403CF1092DF05E09113
:1054F0004106F0914206EE0FFF1FE059FC4F8081FC
:1055000091819093420680934106880F991FFC0178
:10551000EC5FFD4F808180933806EACE0E94BC0785
:105520006093E0057093E1058093E2059093E305B5
:10553000809141069091420601968730910509F4C9
:1055400063C09093420680934106209141063091BA
:1055500042068901000F111FF801EC5FFD4F8081A9
:1055600080933806D9011197FD01EE0FFF1FEE5B06
:10557000FC4F608171816115710509F41AC1AB019D
:1055800041505109FA01EE0FFF1FEC5EFC4F0190F4
:10559000F081E02DAE17BF0709F00BC16230710535
:1055A000C1F588E1E6E7F2E0DE01119601900D9287
:1055B0008A95E1F780915B0290915C028370992754
:1055C000892B21F48DE190E09C838B83809159029B
:1055D00090915A020197880F991FE1E0F0E0EC0FDB
:1055E000FD1F8E0F9F1F2091570230915802FC0122
:1055F000808191818217930764F48BE090E090930F
:1056000042068093410698CE1092420610924106BF
:105610009CCF1092DF055093420640934106452BE4
:10562000B9F40E946F0B7C010E94790B8C010E94DF
:10563000810B40915302509154026091510270913C
:1056400052029C0180914F02909150020E944B0A9D
:1056500080914106909142060197B9F587E192E069
:105660000E94B80880915702909158020E94B81287
:1056700080E192E00E94B8088091590290915A020C
:105680000E94B812E0905B02F0905C02F0E3EF1A27
:10569000F8EFFF0A0091590210915A0280905702C8
:1056A000909058020E94890B5C010E94910B6C0142
:1056B0000E94AA0B9401A501B6010E944B0A6091B9
:1056C00055028DE090E00E94DF228091410690918A
:1056D00042060297C1F460915D0282E090E00E9470
:1056E000DF2260915F0283E090E00E94DF22609100
:1056F000610284E090E00E94DF226091630286E014
:1057000090E00E94DF22809141069091420603972B
:1057100031F46091650281E090E00E94DF22809187
:10572000410690914206049731F4609167028BE044
:1057300090E00E94DF2280914106909142060597F9
:1057400039F460916902645F8CE090E00E94DF228E
:105750008091410690914206069761F460916B0238
:105760008EE090E00E94DF2260916D028FE090E079
:105770000E94DF220E946F0B5C010E94790B082FB0
:105780000E94810BD82E0E94890BF82E0E94910B4B
:10579000182F0E94AA0B382FC50168EE73E00E94F3
:1057A0007948E82E2D2D4F2D612F832F0E94F90D62
:1057B000C3CD2431310561F02A5031092230310541
:1057C00038F00E945D15F801EF5BFD4F91838083F7
:1057D0008091CC099091CD0997FD07C08091BE05BD
:1057E0009091BF05019609F04FC244E650E060E099
:1057F00070E088EE93E00E94C3048091DF05811180
:105800002EC100914106109142060E94BC07609390
:10581000E0057093E1058093E2059093E305012B89
:1058200009F01DC10E94890B18161906ACF40E94DC
:10583000890B01E00A97B4F000E00E94890B18166A
:1058400019060CF04FC00E94890BBC01CE01875B8A
:105850009F4F0E94F81326C00E94890B01E0873FEA
:105860009F4F54F30E94890B18161906ACF50E943D
:10587000890BBC01CE018D5B9F4F0E94F81366E43B
:1058800074E0CE01CD960E944414BE016D5B7F4F43
:10589000CE01CD960E94BA13BC01CE01875B9F4F0B
:1058A0000E943B140E94910B181619060CF50E94D9
:1058B000910BFF24F3940A9714F1F12C0E94910BA1
:1058C000181619060CF058C00E94910BBC01CE01AD
:1058D000C7960E94F81331C00E94890B919581955B
:1058E0009109C7CF0E94890B919581959109ADCF00
:1058F0000E94910BFF24F394873F9F4FF4F20E9484
:10590000910B1816190694F50E94910BBC01CE015B
:10591000C1960E94F81366E474E0CE018B960E9453
:105920004414BE016F5C7F4FCE018B960E94BA1368
:10593000BC01CE01C7960E943B140E94AA0B181608
:10594000190604F50E94AA0B11E00A970CF110E069
:105950000E94AA0B181619060CF0D5C20E94AA0BB9
:10596000BC01CE014F960E94F81331C00E94910BEA
:10597000919581959109CACF0E94910B919581953E
:105980009109A4CF0E94AA0B11E0873F9F4FFCF220
:105990000E94AA0B181619060CF0AFC20E94AA0B9F
:1059A000BC01CE0149960E94F81366E474E0CE0172
:1059B00001960E944414BE01675E7F4FCE0101969E
:1059C0000E94BA13BC01CE014F960E943B14BE0147
:1059D000615E7F4FCE0185960E943B14BE01695CDB
:1059E0007F4FCE0185960E94BA13BE01675B7F4F41
:1059F0000E94BA13BC0185EE99E00E942414CE01E6
:105A000085960E944E12CE014F960E944E1211238F
:105A100041F0CE0101960E944E12CE0149960E949D
:105A20004E12CE01C7960E944E12FF2041F0CE01C9
:105A30008B960E944E12CE01C1960E944E12CE014C
:105A4000875B9F4F0E944E12002349F0CE01CD96F6
:105A50000E944E12CE018D5B9F4F0E944E1280918C
:105A6000410690914206019709F0D5C00E94810B32
:105A700090935802809357020E94790B90935A0298
:105A8000809359020E946F0B68EE73E00E94794880
:105A9000BC0190935C0280935B022091550230918F
:105AA00056020996232B09F041C277FF03C0719576
:105AB00061957109439708F02CC2CE018D5B9F4F11
:105AC0000E94F81366E474E0CE01CD960E9444145F
:105AD000BE016D5B7F4FCE01CD960E94BA13BC0113
