:10000000F4C1000023C2000021C200001FC2000092
:100010001DC200001BC2000019C2000017C2000070
:1000200015C2000013C2000011C200000FC2000080
:100030000DC200000C946B2709C2000007C200002B
:1000400005C200000C94CA2701C20000FFC10000D5
:10005000FDC100000C943328F9C100000C94652602
:10006000F5C100000C9492240C946924EFC10000A7
:10007000EDC10000EBC10000E9C10000E7C10000D4
:10008000E5C10000E3C10000E1C10000DFC10000E4
:100090000C9440240C941724D9C100000C94873C84
:1000A000D5C10000D3C100000C94021BCFC10000D9
:1000B000CDC10000CBC10000C9C100000C94AF2627
:1000C000C5C10000C3C10000C1C10000BFC1000024
:1000D000BDC10000BBC10000B9C10000B7C1000034
:1000E000B5C100005B075D07510753075507570768
:1000F00059077A0EF10EAA11A112D3121F136C1810
:100100006C186C188A13B213B213B2136C186C18F3
:100110006C186C186C18D3121F13AA1CAD1CA81CE9
:10012000AA1CAD1CAF1CB31CC41C97229A228922A6
:100130008D229322D1229E22A222A822AC22B0227A
:10014000B622BA22BE22D122C422C822CC225C35D9
:100150006C3573357935803586358D3591359C35DF
:100160005A44410056544700524D430047535600ED
:100170004753540047534100474C4C004747410008
:100180007C017801740170016C01680164016001F7
:100190005570646174696E672074696D652E2E2ECA
:1001A00000496E636F727265637420536F6E6720CF
:1001B000466F726D617421005247423D6F66660062
:1001C0005247423D6F6E004D6F6E74683A00446155
:1001D000793A00446F776E206C6F6E672E2E2E2E4C
:1001E00000446F776E2073686F7274005570206CD6
:1001F0006F6E672E2E2E2E0055702073686F7274EE
:10020000004D6F6465206C6F6E672E2E2E2E004D94
:100210006F64652073686F72740057616B65207539
:10022000702C204E656F2100426C75653D00475271
:1002300045454E3D005245443D005265616465644C
:100240002066726F6D20454550524F4D0000000AE8
:100250000B02090C0D0E080703040100000000004A
:10026000000000000000000000000000000000008E
:10027000000000000000000000121110000000004B
:10028000000000000000000000000000000000006E
:1002900000000002010000002100240027002A00C5
:1002A0002D003000330001010000040107010A01A4
:1002B0004661756C747920445333323331210044E4
:1002C00053333233315F543D0053746F70205465A3
:1002D00073740054656D702E2073656E736F722099
:1002E0006E6F7420666F756E642E00537461727445
:1002F0002054657374004669726D7761726520766B
:10030000657273696F6E3A20005761726E696E672D
:10031000212052544320444F4E27542052455350DD
:100320004F4E44210000002200250028002B002E03
:10033000003100340002010000050108010B01003A
:100340000020002300260029002C002F003200008E
:10035000010000030106010901050505050705085F
:10036000080808020202020A0A0808040404040138
:10037000010101010101010303030303030303045A
:100380000707070C0C0C0C0C0C0C0C0202020206EA
:10039000060606060606060B0B0B0B0B0B0B0B01DA
:1003A0000210202008081020401020408002010286
:1003B000010804020101020408102040808040204E
:1003C0001008040201800402018040201008040289
:1003D0000108040201010204081020408001020407
:1003E0000810204080007E44D73E11241FBECFEF6E
:1003F000D1E2DEBFCDBF00E00CBF29E0ACEFB4E03E
:1004000001C01D92AB3EB207E1F714E0A0E0B2E0FC
:10041000ECEAF6E900E00BBF02C007900D92AC3F9A
:10042000B107D9F711E0C4EFD1E000E006C0219791
:100430000109802FFE010E940C49C33FD10780E0D3
:100440000807A9F70E94EE3E0C94454BD9CD2F9298
:100450003F924F925F926F927F928F929F92AF9254
:10046000BF92CF92DF92EF92FF920F931F93CF93A1
:10047000DF93CDB7DEB7C057D1400FB6F894DEBFDB
:100480000FBECDBF0E94AB2520E137E240E050E037
:100490000E94E847672B682B692B29F48091FD05A2
:1004A00081110C948615DD24D39401E053E0C52E10
:1004B000F2E0FF2EAAE0EA2EE0913706F09138062E
:1004C0000084F185E02D87E396E01995892B09F4E6
:1004D000D0C1E0913706F09138060284F385E02D13
:1004E00087E396E01995182F8091FE089091FF08F8
:1004F000A0910009B09101090196A11DB11D809341
:10050000FE089093FF08A0930009B09301091432EC
:1005100009F58091180984FF0FC00E944E25609351
:10052000060970930709809308099093090980913F
:1005300018098F7E80931809109214091092F508FB
:100540000093190910921609809118098D7F8093E4
:100550001809B2CF20911909223071F51A3219F415
:10056000C092190920C080EE810F8F3508F012C1AA
:10057000809114098127809314098091F5088630B1
:1005800031F4812F0E944235882309F403C11C32C3
:1005900069F4809118098D7F80931809809115095D
:1005A0008F5F809315091092160986CF80911609E6
:1005B0008F5F8093160980CF213009F071C0809140
:1005C00014098127809314091C32D9F48091F5080D
:1005D000882311F40C94661883E199E0C059DE4F2A
:1005E0002883C057D1400E94BE3EC059DE4F2881AB
:1005F000C057D1402093150910921609F09219099D
:100600005BCFA090160921E02A1510F00C94A415D8
:100610004EEF942E9A0CB090F508BB2021F0BA94BE
:1006200087E08B1508F4B12CEB2DF0E0EE0FFF1FE7
:10063000E058FE4F85919491692D70E0FC01E60F22
:10064000F71FE4911E1305C0B394B092F5080C9403
:10065000A4151E1714F40C946618B394A8E0BA16E7
:1006600011F40C946618EB2DF0E0EE0FFF1FE0582C
:10067000FE4F459154919C01DA01A81BB90BE22F62
:10068000E81BE91510F0CA01D9CFF9018490FD01EA
:10069000E20FF31FE4912F5F3F4F8E1681F3F3CFEC
:1006A000233009F07DC010628FE9810F863010F48D
:1006B000175501C010534091160920911409812F3C
:1006C00090E041110DC00093160930E0B4E035957B
:1006D0002795BA95E1F72817390709F4EDCE47C0F9
:1006E0002F7030E02817390709F041C080911809B0
:1006F00081FF0DC08D7F809318094F5F40931609CD
:100700008091F508863019F48CE20E944235809180
:10071000F6089091F708A091F808B091F9080196B1
:10072000A11DB11D8093F6089093F708A093F808D7
:10073000B093F90891E08091F508823009F090E0DB
:100740008091180990FB84F9809318091092190977
:1007500020912409222349F188608093180910927E
:100760002509809124098150809324091EC080911D
:10077000FA089091FB08A091FC08B091FD08019641
:10078000A11DB11D8093FA089093FB08A093FC086B
:10079000B093FD0883E199E00E94BE3E0C94661878
:1007A00021118ACE1092F50887CE8091130980FF1F
:1007B0000CC0309123092091120930FF04C0309100
:1007C0002209321710F42093220981FF0CC02091D6
:1007D0000E0920931E0920910F0920931F092091D3
:1007E00010092093200982FF10C080910C0980938A
:1007F0001C0980910B0980931B0980910A09809341
:100800001A0980911109809321092091230980916F
:100810001309822B80932309992309F44DCE8091EB
:100820002609E89EC0011124FC01ED5DF64F2081F0
:1008300022FF16C0FC01EB50F74F84A5811110C0B8
:100840008091060990910709A0910809B0910909C2
:100850008093020990930309A0930409B0930509BA
:100860001092260980912409811126CED092240964
:100870001FCE80912409882351F1CE0149960E9410
:10088000C13E809124098823C1F0815080932409BE
:10089000809125092AE0289FC0011124FC01E65E11
:1008A000F64FDE01599601900D922A95E1F7865E8A
:1008B000964F0E94C13E109225098AE0FE0179966A
:1008C000ABEEB8E001900D928A95E1F705C08091FA
:1008D000F4088B7F8093F4080E94AB250091690592
:1008E00010916A0520916B0530916C05DC01CB01FC
:1008F000801B910BA20BB30B81349747AB41B10521
:1009000010F010926805809168058111C9C00E949D
:100910004E2500910209109103092091040930919C
:100920000509DC01CB01801B910BA20BB30B8838AE
:100930009F4BAD40B10508F0B3C08091F40882FF31
:10094000AFC081FFADC09091F308933008F4A8C008
:100950008B7F8093F40880E991E00E94EF328091D0
:10096000ED080E94343E8091EC080E94343E809154
:10097000EB080E94343EE090F108F12C0091F00861
:1009800010E02091EF0830E04091EB0850E06091DA
:10099000EC0870E08091ED0890E00E949C280E9495
:1009A0004E2500910209109103092091040930910C
:1009B0000509DC01CB01801B910BA20BB30B80322C
:1009C000914AA740B10598F08091C7059091C8055C
:1009D000A091C905B091CA050196A11DB11D8093D2
:1009E000C7059093C805A093C905B093CA05A09107
:1009F0005702B091580220E13EE00E941449009154
:100A0000C7051091C8052091C9053091CA05DC01C0
:100A1000CB01800F911FA21FB31F8093C705909336
:100A2000C805A093C905B093CA050E9477297C0127
:100A30000E948029082F0E948729C059DE4F888391
:100A4000C057D1400E948E29C159DE4F8883CF56AE
:100A5000D1400E949529182F0E94AC29382FC70138
:100A600068EE73E00E94DD48E82EC059DE4F288111
:100A7000C057D140C159DE4F4881CF56D140612F78
:100A8000832F0E94B83D81E0809368050E94AB25CA
:100A90006093690570936A0580936B0590936C056C
:100AA00010925C0510925D0510925E0510925F0534
:100AB00084E897E0909363058093620580918107B5
:100AC000282E312C309265052092640580914E08C5
:100AD00090E0909367058093660580917D0785304F
:100AE00009F002C1809181078A3108F46BC08091BE
:100AF000840790918507843F914090F4109261059E
:100B0000109260058FEF9FEFDC0180935C0590935E
:100B10005D05A0935E05B0935F058BE090E03EC05D
:100B2000809186079091870785974B9708F04AC078
:100B3000EAE8F7E082E090E040E050E0BA018C01A2
:100B40000F5F1F4F2091810730E00217130774F4E5
:100B50009F0122503109D9012D913C912750310933
:100B60002730310510F40C94A915C801019795950B
:100B7000879590936105809360050C972CF41092F3
:100B80006105109260051EC040935C0550935D05A1
:100B900060935E0570935F0584E090E09093590543
:100BA0008093580560915C0570915D0580915E05AC
:100BB00090915F0540E10E9426348DE194E00E940F
:100BC000BC328DC0B6E02B1631040CF488C00AE8A4
:100BD00017E0E3E0F0E0C359DE4FF983E883CD5638
:100BE000D14065ECC62E6DE9D62E6CE1E62E61E8AB
:100BF000F62EC359DE4F88819981CD56D14082159A
:100C000093050CF05BC0D8016D917C91F80134978D
:100C1000A080B18080E090E00E94AE462B013C01B4
:100C2000B50180E090E00E94AE464B015C012DECE6
:100C30003CEC4CE45FE30E940F479B01AC01C30115
:100C4000B2010E94AA4687FD17C02DEC3CEC4CE493
:100C50005FE3C301B2010E940F479B01AC01C501D4
:100C6000B4010E94AA46E82F880FFF0BEE27FF0F62
:100C7000EE1FFF27319602C0E0E0F0E0A7019601E9
:100C800063E971E080E091E00E94D9476F01FF0FB6
:100C9000EE08FF08C626D726E826F926C359DE4FF8
:100CA000E881F981CD56D1403196C359DE4FF983A1
:100CB000E883CD56D1400E5F1F4F9BCFC0925C059D
:100CC000D0925D05E0925E05F0925F0580E290E0D3
:100CD00090936105809360058FEF9FEF5FCF82E077
:100CE00080937D071092810760915C0570915D058E
:100CF0008DED98E00E945C3E9093570580935605D9
:100D0000019721F48FE092E00E94EF328091560526
:100D100090915705019621F481E092E00E94EF3214
:100D200060915C0570915D0580ED98E00E945C3EED
:100D30009093550580935405019721F488EF91E035
:100D40000E94EF328091540590915505019621F44F
:100D50008CEE91E00E94EF3260915C0570915D0530
:100D600083EC98E00E945C3E90935305809352057B
:100D7000019721F481EE91E00E94EF3280915205BB
:100D800090915305019621F483ED91E00E94EF329A
:100D90000091F1051091F205D8018C91882309F496
:100DA00035C10E94AB25C0900205D0900305E090AC
:100DB0000405F0900505DC01CB018C199D09AE09F5
:100DC000BF09C090FE04D090FF04E0900005F090B1
:100DD0000105C816D906EA06FB0608F017C10E94ED
:100DE000AB256B017C016093020570930305809332
:100DF0000405909305051092720510927105A801E3
:100E00006AE08A01FA01B0804F5F5F4F80ED8B0D81
:100E100020917105309172058A3080F4629FF00153
:100E2000639FF00D11248B2DBB0C990BC0978E0F77
:100E30009F1F9093720580937105E3CF60916D05BC
:100E400070916E0580916F059091700521153105A7
:100E500029F0032E000C440B550B05C020912D02E8
:100E600030E040E050E00E94F0482093FE043093D0
:100E7000FF0440930005509301058B2DBB0C990B8B
:100E8000AA0BBB0BFC01E156F109E730F10530F488
:100E90008827EE58FF4F8F4F0C940C491092FD0499
:100EA0000FC081E00BC083E009C085E007C086E089
:100EB00005C088E003C08AE001C08CE08093FD0497
:100EC000D80111968C91833219F00F5F1F4F07C024
:100ED0008091FD048F5F8093FD040E5F1F4FF8012A
:100EE00080818E3201F58090FE049090FF04A090E6
:100EF0000005B0900105C501B40122E030E040E0FA
:100F000050E00E94F048D501C401820F931FA41F36
:100F1000B51F8093FE049093FF04A0930005B09347
:100F200001050F5F1F4FD8018C9180538A3028F440
:100F30008093FC040F5F1F4F04C080912C028093AC
:100F4000FC048091FC04F80190819C3211F40F5F45
:100F50001F4F2091FD04222309F458C08090FE0405
:100F60009090FF04A0900005B090010590E00497D8
:100F70003CE0389FF001399FF00D1124E20FF11D84
:100F8000EE0FFF1FE558FD4FB501A401808191814F
:100F90000E94E3300E94AB25DC01CB018C199D0936
:100FA000AE09BF0988169906AA06BB0678F50E9405
:100FB000AB2560930205709303058093040590931D
:100FC000050580913606813051F0823071F0811133
:100FD00011C080916E008D7F80936E000BC0809158
:100FE0006F008D7F80936F0005C0809170008D7FB2
:100FF0008093700060E0809135060E94E32481EACE
:1010000091E00E94EF3290E080E002C0902F812FAB
:101010009093F1058093F2050E94AB2500914E0557
:1010200010914F052091500530915105DC01CB0105
:10103000801B910BA20BB30B8997A105B10508F496
:10104000A9C080913606813039F0823041F081119B
:101050000CC080916E0005C080916F0002C080912D
:1010600070008695817009F08BC0809130028111EB
:1010700003C00E94F01A84C080910006811180C0D4
:101080000091080510910905C801880F991F800F6C
:10109000911FFC01EE0FFF1FE352FD4F20813181B4
:1010A0006AE0629FA001639F500D1124209100020D
:1010B00030910102420F531F5093010240930002EE
:1010C000FC01EE0FFF1FE152FD4F20813181629F35
:1010D000F001639FF00D11242091440530914505E6
:1010E0002E0F3F1F3093450520934405880F991F0D
:1010F000FC01EF51FD4F80819181689F6001699FE4
:10110000D00C11248091420590914305C80ED91E40
:10111000D0924305C0924205D12CE12CF12CE42A57
:10112000D22AA12CB12CB701A601C5010E94FB3225
:10113000FFEFAF1ABF0A28E0A216B104A1F70E9480
:1011400066338091060590910705019690930705F7
:1011500080930605499751F40F5F1F4F10930905BF
:101160000093080510920705109206058091080566
:1011700090910905069724F0109209051092080530
:101180000E94AB2560934E0570934F0580935005E8
:101190009093510580910D0690910E06892B21F0B8
:1011A00080910C06811106C080917305811102C0E7
:1011B0000E941B2A86E998E00E94D13B8DE798E0C7
:1011C0000E94D13B84E698E00E94D13B8091730558
:1011D000811103C010927B052DC00E94AB250091A8
:1011E0007405109175052091760530917705DC0125
:1011F000CB01801B910BA20BB30B81369A4EA1053C
:10120000B105C0F010927305E0910D06F0910E0645
:10121000EE0FFF1FEF5AFC4F8081918190930E06D5
:1012200080930D06880F991FFC01EE5FFD4F8081B2
:1012300080937B058091960890919708181619065F
:101240003CF08091560590915705019709F09BC09D
:1012500081E080930C061092F2051092F10544E6AD
:1012600050E060E070E088EE93E00E94E3300E947E
:10127000AB25609374057093750580937605909304
:10128000770580910D0690910E06019686309105A6
:1012900029F090930E0680930D0604C010920E065E
:1012A00010920D0620910D0630910E068901000F57
:1012B000111FF801EE5FFD4F808180937B05D901FE
:1012C0001197FD01EE0FFF1FE75DFC4F60817181FB
:1012D0006115710509F448C0AB0141505109FA018B
:1012E000EE0FFF1FEF5FFC4F0190F081E02DEA173A
:1012F000FB07D1F56230710511F00C94C71588E138
:10130000E3E6F2E0DE01119601900D928A95E1F795
:101310008091490290914A0283709927892B21F488
:101320008DE190E09C838B832091450230914602B1
:10133000E0914702F09148023197EE0FFF1F81E0E4
:1013400090E08C0F9D1FE80FF91F8081918182171B
:10135000930714F00C94C7158AE090E090930E0662
:1013600080930D060C946C182331310561F02950DF
:1013700031092230310538F00E94D136F801EF5C96
:10138000FD4F91838083809196089091970897FDF7
:1013900007C08091560590915705019609F07AC3D0
:1013A00044E650E060E070E088EE93E00E94E330B5
:1013B00080917305811145C10E94AB25609374052E
:1013C00070937505809376059093770580910D064F
:1013D00090910E06892B09F034C10E948E291816AF
:1013E00019061CF40E948E2905C00E948E29919531
:1013F0008195910911E00A974CF010E00E948E2926
:101400001816190664F50E948E292EC00E948E2996
:10141000181619061CF40E948E2905C00E948E29F8
:101420009195819591094AE0BC01CE0189599E4F61
:101430000E94D02365E274E0CE018F599E4F0E9436
:101440000324BE0169597E4FCE018F599E4F0E94E1
:101450007123BC01CE018F960E94FB230BC00E941A
:101460008E299195819591094AE0BC01CE018F9614
:101470000E94D0230E949529181619061CF40E9478
:10148000952905C00E94952991958195910901E0C2
:101490000A974CF000E00E9495291816190664F589
:1014A0000E9495292EC00E949529181619061CF431
:1014B0000E94952905C00E949529919581959109D1
:1014C0004AE0BC01CE01855A9E4F0E94D02365E2BE
:1014D00074E0CE018B5A9E4F0E940324BE01655AD0
:1014E0007E4FCE018B5A9E4F0E947123BC01CE01CC
:1014F00089960E94FB230BC00E94952991958195A6
:1015000091094AE0BC01CE0189960E94D0230E9435
:10151000AC29181619061CF40E94AC2905C00E94BB
:10152000AC29919581959109FF24F3940A974CF089
:10153000F12C0E94AC291816190664F50E94AC29FA
:101540002EC00E94AC29181619061CF40E94AC2962
:1015500005C00E94AC299195819591094AE0BC0192
:10156000CE01815B9E4F0E94D02365E274E0CE01E4
:10157000875B9E4F0E940324BE01615B7E4FCE01BC
:10158000875B9E4F0E947123BC01CE0101960E9491
:10159000FB230BC00E94AC299195819591094AE0EB
:1015A000BC01CE0101960E94D023BE016F5F7F4F28
:1015B000CE0183960E94FB23BE01675D7F4FCE0163
:1015C00083960E947123BE01615D7F4F0E9471234B
:1015D000BC018FEA98E00E94B623CE0183960E9458
:1015E000CB23CE0101960E94CB23FF2051F0CE01E8
:1015F000875B9E4F0E94CB23CE01815B9E4F0E9452
:10160000CB23CE0189960E94CB23002351F0CE013B
:101610008B5A9E4F0E94CB23CE01855A9E4F0E942B
:10162000CB23CE018F960E94CB23112351F0CE0104
:101630008F599E4F0E94CB23CE0189599E4F0E9405
:10164000CB2380910D0690910E06019709F0E9C118
:101650000E94872990934602809345020E94802928
:1016600090934802809347020E94772968EE73E0C6
:101670000E94DD4890934A028093490240914302C0
:10168000509144029C01275F3F4FBC01452B09F05C
:10169000E4C02331310508F597FF03C071956195CA
:1016A00071094AE0CE018D5B9E4F0E94D02365E216
:1016B00074E0CE01835C9E4F0E940324BE016D5BEB
:1016C0007E4FCE01835C9E4F0E947123BC01CE01F0
:1016D0008F960E94FB2311E00BC097FF03C071950A
:1016E000619571094AE0CE018F960E94D02310E0E7
:1016F0006091470270914802CB010996439708F523
:1017000077FF03C07195619571094AE0CE01895C4C
:101710009E4F0E94D02365E274E0CE018F5C9E4F05
:101720000E940324BE01695C7E4FCE018F5C9E4FF8
:101730000E947123BC01CE0189960E94FB2301E027
:101740000BC077FF03C07195619571094AE0CE0126
:1017500089960E94D02300E0609145027091460274
:10176000CB010996439710F577FF03C071956195FA
:1017700071094AE0CE01855D9E4F0E94D02365E24B
:1017800074E0CE018B5D9E4F0E940324BE01655D17
:101790007E4FCE018B5D9E4F0E947123BC01CE0116
:1017A00001960E94FB23FF24F3940BC077FF03C034
:1017B0007195619571094AE0CE0101960E94D0238E
:1017C000F12CBE016F5F7F4FCE0183960E94FB23F9
:1017D000BE01675D7F4FCE0183960E947123BE01DB
:1017E000615D7F4F0E947123BC018FEA98E00E94E7
:1017F000B623CE0183960E94CB23CE0101960E9490
:10180000CB23FF2051F0CE018B5D9E4F0E94CB2356
:10181000CE01855D9E4F0E94CB23CE0189960E940A
:10182000CB23002351F0CE018F5C9E4F0E94CB232F
:10183000CE01895C9E4F0E94CB23CE018F960E94E1
:10184000CB23112309F4EDC0CE01835C9E4F0E948F
:10185000CB23CE018D5B9E4FE2C02331310508F5CD
:1018600097FF03C07195619571094AE0CE01815ED1
:101870009E4F0E94D02365E274E0CE01875E9E4FAA
:101880000E940324BE01615E7E4FCE01875E9E4FA3
:101890000E947123BC01CE018F960E94FB2311E0B0
:1018A0000BC097FF03C07195619571094AE0CE01A5
:1018B0008F960E94D02310E06091450270914602FD
:1018C000CB010996439708F577FF03C071956195A1
:1018D00071094AE0CE018D5E9E4F0E94D02365E2E1
:1018E00074E0CE01835F9E4F0E940324BE016D5EB3
:1018F0007E4FCE01835F9E4F0E947123BC01CE01BB
:1019000089960E94FB2301E00BC077FF03C071950D
:10191000619571094AE0CE0189960E94D02300E0CA
:101920006091470270914802CB010996439710F5E8
:1019300077FF03C07195619571094AE0CE01895F17
:101940009E4F0E94D02365E274E0CE018F5F9E4FD0
:101950000E940324BE01695F7E4FCE018F5F9E4FC0
:101960000E947123BC01CE0101960E94FB23FF243B
:10197000F3940BC077FF03C07195619571094AE03C
:10198000CE0101960E94D023F12CBE016F5F7F4FE4
:10199000CE0183960E94FB23BE01675D7F4FCE017F
:1019A00083960E947123BE01615D7F4F0E94712367
:1019B000BC018FEA98E00E94B623CE0183960E9474
:1019C000CB23CE0101960E94CB23FF2051F0CE0104
:1019D0008F5F9E4F0E94CB23CE01895F9E4F0E9456
:1019E000CB23CE0189960E94CB23002351F0CE0158
:1019F000835F9E4F0E94CB23CE018D5E9E4F0E943F
:101A0000CB23CE018F960E94CB23112351F0CE0120
:101A1000875E9E4F0E94CB23CE01815E9E4F0E9427
:101A2000CB23E0910D06F0910E06EE0FFF1FEF5A4B
:101A3000FC4F2081318130930E0620930D062D300E
:101A4000310549F481E090E0909352028093510275
:101A500080E880937A059091730581E089278093CF
:101A600073058901000F111FF801EE5FFD4F8081A2
:101A700080937B05A901425151094230510550F034
:101A80002930310539F00E94D136F801EF5CFD4F65
:101A90009183808380917D0890917E08009739F42E
:101AA0008091540590915505019721F507C09093B9
:101AB0004D0580934C051816190694F781E0809324
:101AC0000C061092F2051092F10544E650E060E039
:101AD00070E088EE93E00E94E3300E9449208091FC
:101AE0007305811107C01092000660E087E090E066
:101AF0000E94E13080914C0590914D05019661F571
:101B000080917F08882341F110927D0580917305B3
:101B1000882329F10E94AB250091480510914905C1
:101B200020914A0530914B05DC01CB01801B910BC4
:101B3000A20BB30B87399105A105B10580F00E9476
:101B4000AB25609348057093490580934A059093AF
:101B50004B050E94492003C081E080937D05809160
:101B6000640890916508009739F48091520590912E
:101B700053050197B1F507C090934705809346053B
:101B80001816190694F711E010930C061092F2053E
:101B90001092F10544E650E060E070E088EE93E0DA
:101BA0000E94E3300E94EB1F80917305811119C0E0
:101BB0001093000661E087E090E00E94E1306091C0
:101BC000000288E090E00E94E1306091440589E0E5
:101BD00090E00E94E130609142058AE090E00E942E
:101BE000E1308091460590914705019661F580911D
:101BF0006608882341F110927C0580917305882343
:101C000029F10E94AB2500913E0510913F052091DE
:101C1000400530914105DC01CB01801B910BA20BEB
:101C2000B30B87399105A105B10580F00E94AB2562
:101C300060933E0570933F05809340059093410566
:101C40000E94EB1F03C081E080937C0580917305A7
:101C5000811141C080917D0890917E0897FD06C05A
:101C600080915405909155050196B1F444E650E0F9
:101C700060E070E088EE93E00E94E33081E08093C2
:101C8000300261E080E090E00E94E13080EC91E081
:101C90000E94EF320E94951A809164089091650825
:101CA00097FD06C08091520590915305019699F4D5
:101CB00044E650E060E070E088EE93E00E94E3309C
:101CC0001092300260E080E090E00E94E13088EB0A
:101CD00091E00E94EF32E0910D06F0910E06E431A2
:101CE000F10510F00C946C188827E758FF4F8F4FC0
:101CF0000C940C4980910B06811135C00E94AB25D4
:101D000000910A0510910B0520910C0530910D05ED
:101D1000DC01CB01801B910BA20BB30B893E9340DE
:101D2000A105B10578F00E94AB2560930A05709378
:101D30000B0580930C0590930D05CE0101960E9432
:101D4000AD3706C06FEA78E0CE0101960E94FB2312
:101D5000BE016F5F7F4F8FEA98E00E942623CE017D
:101D600001960E94CB238091130581110DC00E9422
:101D7000AB2560930F057093100580931105909328
:101D8000120581E0809313050E94AB2500910F0599
:101D9000109110052091110530911205DC01CB0145
:101DA000801B910BA20BB30B893E9340A105B1059B
:101DB00008F4C9C20E94AB2560930F05709310050B
:101DC000809311059093120590910E0581E089276B
:101DD00080930E05882311F080ECB3C210927A052F
:101DE000B2C280910B068111ABC280913605811180
:101DF00013C00E94AB25DC01CB0187519C4FAF4F34
:101E0000BF4F8093320590933305A0933405B09370
:101E1000350581E08093360580912A05811154C1F2
:101E20000E94772908EE13E0B8010E94DD481816D9
:101E3000190634F40E947729B8010E94DD4808C0D1
:101E40000E947729B8010E94DD48919581959109FA
:101E5000FF24F3940A978CF0F12C0E94772908EE66
:101E600013E0B8010E94DD4818161906BCF50E945F
:101E70007729B8010E94DD4839C00E94772908EE11
:101E800013E0B8010E94DD481816190634F40E94C8
:101E90007729B8010E94DD4808C00E947729B8015F
:101EA0000E94DD489195819591094AE0BC01CE01DF
:101EB00083960E94D02365E274E0CE0189960E9449
:101EC0000324BE016D5D7F4FCE0189960E94712370
:101ED000BC01CE0101960E94FB230EC00E9477290F
:101EE000B8010E94DD489195819591094AE0BC01B5
:101EF000CE0101960E94D0230E948029181619064F
:101F00001CF40E94802905C00E948029919581952A
:101F1000910911E00A974CF010E00E9480291816F0
:101F200019064CF50E9480292BC00E9480291816A2
:101F300019061CF40E94802905C00E9480299195F1
:101F4000819591094AE0BC01CE01C5960E94D0233B
:101F500065E274E0CE01CB960E940324BE016B5C67
:101F60007F4FCE01CB960E947123BC01CE018F968C
:101F70000E94FB230BC00E948029919581959109B5
:101F80004AE0BC01CE018F960E94D0230E9487298F
:101F9000181619061CF40E94872905C00E9487297B
:101FA00091958195910901E00A974CF000E00E941B
:101FB0008729181619066CF50E9487292FC00E94E0
:101FC0008729181619061CF40E94872905C00E944B
:101FD00087299195819591094AE0BC01CE01835BE7
:101FE0009F4F0E94D02365E274E0CE018D5A9F4F2F
:101FF0000E940324BE01635B7F4FCE018D5A9F4F29
:102000000E947123BC01CE01895B9F4F0E94FB237C
:102010000CC00E9487299195819591094AE0BC01E5
:10202000CE01895B9F4F0E94D023BE01695B7F4F29
:10203000CE018F5B9F4F0E94FB23BE01615D7F4FEE
:10204000CE018F5B9F4F0E947123BE016F5F7F4F58
:102050000E947123BC0184E295E00E94FB2381E091
:1020600080932A05CE018F5B9F4F0E94CB23CE0128
:10207000895B9F4F0E94CB23002351F0CE018D5AE4
:102080009F4F0E94CB23CE01835B9F4F0E94CB23A7
:10209000CE018F960E94CB23112341F0CE01CB9627
:1020A0000E94CB23CE01C5960E94CB23CE01019680
:1020B0000E94CB23FF2041F0CE0189960E94CB23C2
:1020C000CE0183960E94CB2380911C05811107C00D
:1020D0008091430280931B0581E080931C050E9440
:1020E000AB250091320510913305209134053091D4
:1020F0003505DC01CB01801B910BA20BB30B893E94
:102100009340A105B10558F480911B0590E0209102
:102110004302309144028217930709F400C10E94E0
:10212000AB2560933205709333058093340590930B
:1021300035058091430290914402892B09F06BC6CA
:102140000E94772908EE13E0B8010E94DD481816B6
:1021500019060CF0EAC50E947729B8010E94DD48F3
:10216000FF24F3940A970CF0E9C50E94772908EE42
:1021700013E0B8010E94DD48181619060CF0EFC5EF
:102180000E947729B8010E94DD484AE0BC01CE01D7
:102190008F960E94D02365E274E0CE018F5B9F4F43
:1021A0000E940324BE01615D7F4FCE018F5B9F4F74
:1021B0000E947123BC01CE0101960E94FB230E9464
:1021C0008029181619060CF0E2C50E94802911E03A
:1021D0000A970CF0E2C50E948029181619060CF027
:1021E000E5C50E9480294AE0BC01CE01875A9F4F75
:1021F0000E94D02365E274E0CE01815A9F4F0E9475
:102200000324BE01675A7F4FCE01815A9F4F0E941F
:102210007123BC01CE01895B9F4F0E94FB230E946A
:102220008729181619060CF0D4C50E94872901E0E9
:102230000A970CF0D4C50E948729181619060CF0CD
:10224000D7C50E9487294AE0BC01CE018F589F4F15
:102250000E94D02365E274E0CE0189589F4F0E940E
:102260000324BE016F587F4FCE0189589F4F0E94B3
:102270007123BC01CE0185599F4F0E94FB23BE01F3
:1022800065597F4FCE018B599F4F0E94FB23BE01A2
:10229000695B7F4FCE018B599F4F0E947123BE0116
:1022A0006F5F7F4F0E947123BC0184E295E00E9422
:1022B000B623CE018B599F4F0E94CB23CE01855967
:1022C0009F4F0E94CB23002351F0CE0189589F4F8E
:1022D0000E94CB23CE018F589F4F0E94CB23CE016B
:1022E000895B9F4F0E94CB23112351F0CE01815A6D
:1022F0009F4F0E94CB23CE01875A9F4F0E94CB2332
:10230000CE0101960E94CB23FF2049F0CE018F5BC6
:102310009F4F0E94CB23CE018F960E94CB2364E275
:1023200075E0CE0101960E94FB23BE016F5F7F4FD7
:102330008FEA98E00E942623CE0101960E94CB23CB
:1023400080E480937A050E948C1F10927905109288
:102350007805C2C660914F0270915002CB01099678
:10236000439708F577FF03C07195619571094AE0BD
:10237000CE0185509F4F0E94D02365E274E0CE01CC
:102380008B509F4F0E940324BE0165507F4FCE01AA
:102390008B509F4F0E947123BC01CE018F960E94EB
:1023A000FB2311E00BC077FF03C0719561957109A4
:1023B0004AE0CE018F960E94D02310E060914D023A
:1023C00070914E02CB010996439708F577FF03C041
:1023D0007195619571094AE0CE0181519F4F0E942C
:1023E000D02365E274E0CE0187519F4F0E94032401
:1023F000BE0161517F4FCE0187519F4F0E947123D3
:10240000BC01CE0189960E94FB2301E00BC077FF3F
:1024100003C07195619571094AE0CE0189960E94C9
:10242000D02300E060914B0270914C02CB010996E1
:10243000439710F577FF03C07195619571094AE0E4
:10244000CE018D519F4F0E94D02365E274E0CE01F2
:1024500083529F4F0E940324BE016D517F4FCE01D6
:1024600083529F4F0E947123BC01CE0101960E94AE
:10247000FB23FF24F3940BC077FF03C07195619594
:1024800071094AE0CE0101960E94D023F12CBE01D1
:102490006F5F7F4FCE0183960E94FB23BE01675D75
:1024A0007F4FCE0183960E947123BE01615D7F4FF5
:1024B0000E947123BC018FEA98E00E94B623CE01EE
:1024C00083960E94CB23CE0101960E94CB23FF204E
:1024D00051F0CE0183529F4F0E94CB23CE018D51EC
:1024E0009F4F0E94CB23CE0189960E94CB230023CD
:1024F00051F0CE0187519F4F0E94CB23CE018151D5
:102500009F4F0E94CB23CE018F960E94CB23112395
:1025100051F0CE018B509F4F0E94CB23CE018550AE
:102520009F4F0E94CB2310927905109278058091DD
:10253000510290915202019789F580E880937A05C3
:102540002FC060915302709154024AE0CE018396ED
:102550000E94D02364E274E0CE0101960E9403241D
:10256000BE016D5D7F4FCE0101960E94712364E232
:1025700074E00E94042ABC018FEA98E00E94B6230E
:10258000CE0101960E94CB23CE0183960E94CB23DD
:1025900083E390E0909379058093780510927A0513
:1025A0000E948C1F99C580910B06811142C081E069
:1025B0002091550230915602232B09F480E00E94AD
:1025C000911C6B017C01AB01BC01CE0101960E9404
:1025D000271DBE016F5F7F4F8FEA98E00E94262380
:1025E000CE0101960E94CB23809155029091560214
:1025F000892B51F481E390E09093790580937805DD
:1026000080E480937A0508C083E290E09093790596
:102610008093780510927A0520E030E0A901C70187
:10262000B6010E94AA4687FF04C080917A0580689F
:1026300003C080917A058F7780937A054DC56091AC
:10264000570270915802CB010996439708F577FF1E
:1026500003C07195619571094AE0CE0189529F4F7F
:102660000E94D02365E274E0CE018F529F4F0E94FA
:102670000324BE0169527F4FCE018F529F4F0E94AB
:102680007123BC01CE0101960E94FB2311E00BC017
:1026900077FF03C07195619571094AE0CE010196FB
:1026A0000E94D02310E0BE016F5F7F4FCE01839662
:1026B0000E94FB2362E274E0CE0183960E94042A0A
:1026C000BC018FEA98E00E94B623CE0183960E9457
:1026D000CB23CE0101960E94CB23112351F0CE01D2
:1026E0008F529F4F0E94CB23CE0189529F4F0E9451
:1026F000CB238FE090E090937905809378058091CB
:1027000057029091580297FD03C010927A05E4C4D5
:1027100080E892CF8091430290914402892B79F412
:102720006FE074E08FEA98E00E94A12383E090E0DC
:1027300090931702809316028CE090E00EC066E141
:1027400074E08FEA98E00E94A1238CE090E09093DF
:1027500017028093160283E090E090931902809311
:102760001802BAC4809143029091440260914902D8
:1027700070914A02892B09F0E5C0CB010996439775
:1027800008F577FF03C07195619571094AE0CE01A4
:1027900085539F4F0E94D02365E274E0CE018B5396
:1027A0009F4F0E940324BE0165537F4FCE018B5380
:1027B0009F4F0E947123BC01CE018F960E94FB2384
:1027C00011E00BC077FF03C07195619571094AE074
:1027D000CE018F960E94D02310E060914702709145
:1027E0004802CB010996439708F577FF03C071951E
:1027F000619571094AE0CE0181549F4F0E94D02318
:1028000065E274E0CE0187549F4F0E940324BE010D
:1028100061547F4FCE0187549F4F0E947123BC01AA
:10282000CE0189960E94FB2301E00BC077FF03C015
:102830007195619571094AE0CE0189960E94D02375
:1028400000E06091450270914602CB0109964397E2
:1028500010F577FF03C07195619571094AE0CE01CB
:102860008D549F4F0E94D02365E274E0CE018355C2
:102870009F4F0E940324BE016D547F4FCE018355AC
:102880009F4F0E947123BC01CE0101960E94FB2341
:10289000FF24F3940BC077FF03C071956195710914
:1028A0004AE0CE0101960E94D023F12CBE016F5F59
:1028B0007F4FCE0183960E94FB23BE01675D7F4F51
:1028C000CE0183960E947123BE01615D7F4F0E94FD
:1028D0007123BC018FEA98E00E94B623CE01839653
:1028E0000E94CB23CE0101960E94CB23FF2051F002
:1028F000CE0183559F4F0E94CB23CE018D549F4F15
:102900000E94CB23CE0189960E94CB23002351F055
:10291000CE0187549F4F0E94CB23CE0181549F4FFD
:102920000E94CB23CE018F960E94CB23112309F462
:10293000D3C3CE018B539F4F0E94CB23CE0185532F
:102940009F4FE1C0CB010996439708F577FF03C07D
:102950007195619571094AE0CE0189559F4F0E949A
:10296000D02365E274E0CE018F559F4F0E9403246F
:10297000BE0169557F4FCE018F559F4F0E94712335
:10298000BC01CE01C5960E94FB2311E00BC077FF6E
:1029900003C07195619571094AE0CE01C5960E9408
:1029A000D02310E06091450270914602CB01099658
:1029B000439708F577FF03C07195619571094AE067
:1029C000CE0185569F4F0E94D02365E274E0CE0170
:1029D0008B569F4F0E940324BE0165567F4FCE0148
:1029E0008B569F4F0E947123BC01CE018F960E948F
:1029F000FB2301E00BC077FF03C07195619571095E
:102A00004AE0CE018F960E94D02300E060914702F9
:102A100070914802CB010996439700F577FF03C0F8
:102A20007195619571094AE0CE0181579F4F0E94CF
:102A3000D02365E274E0CE0101960E940324BE011A
:102A400061577F4FCE0101960E947123BC01CE01D8
:102A500083960E94FB23FF24F3940BC077FF03C0EF
:102A60007195619571094AE0CE0183960E94D02349
:102A7000F12CBE016D5D7F4FCE0189960E94FB2334
:102A8000BE01615D7F4FCE0189960E947123BE0118
:102A90006B5C7F4F0E947123BC018FEA98E00E941B
:102AA000B623CE0189960E94CB23CE0183960E9445
:102AB000CB23FF2049F0CE0101960E94CB23CE010B
:102AC00081579F4F0E94CB23CE018F960E94CB232C
:102AD000002351F0CE018B569F4F0E94CB23CE0195
:102AE00085569F4F0E94CB23CE01C5960E94CB23D3
:102AF000112309F4F1C2CE018F559F4F0E94CB23C1
:102B0000CE0189559F4F0E94CB23E6C20E942737F2
:102B1000E090FB05F090FC050091F9051091FA0595
:102B20002091F7053091F8054091FE055091FF0581
:102B30006091F5057091F6058091F3059091F4058B
:102B40000E949C280C945302A394A09216090C9402
:102B50005C0220813181235131092F30310548F445
:102B6000440F551F661F771F4160029634960C94E0
:102B70009F05208131812A5031092930310510F01B
:102B80000C94E205440F551F661F771FEECF10927D
:102B9000730550930E0640930D06452BB9F40E9421
:102BA00077297C010E9480298C010E9487299C0141
:102BB000409141025091420260913F027091400267
:102BC00080913D0290913E020E949C2880910D06CA
:102BD00090910E060197B9F58EEC91E00E94CE32ED
:102BE00080914502909146020E94663487EC91E004
:102BF0000E94CE3280914702909148020E94663432
:102C0000E0904902F0904A0290E3E91A98EFF90A3D
:102C10000091470210914802809045029090460230
:102C20000E948E295C010E9495296C010E94AC29AA
:102C30009401A501B6010E949C28609143028DE099
:102C400090E00E94E13080910D0690910E0602976F
:102C5000C1F460914B0282E090E00E94E13060910B
:102C60004D0283E090E00E94E13060914F0284E0E9
:102C700090E00E94E1306091510286E090E00E9475
:102C8000E13080910D0690910E06039731F460912A
:102C9000530281E090E00E94E13080910D06909116
:102CA0000E06049731F4609155028BE090E00E948B
:102CB000E13080910D0690910E06059739F46091F0
:102CC0005702645F8CE090E00E94E1300E94772917
:102CD0007C010E948029082F0E948729C059DE4F5D
:102CE0008883C057D1400E948E29C159DE4F888306
:102CF000CF56D1400E949529182F0E94AC29382F19
:102D0000C70168EE73E00E94DD48E82EC059DE4F2F
:102D10002881C057D140C159DE4F4881CF56D1409C
:102D2000612F832F0E94B83DD7C10E947729B80137
:102D30000E94DD4891958195910912CAF12C0E945B
:102D4000772908EE13E0B8010E94DD48181619062D
:102D50007CF40E947729B8010E94DD4811C00E94CE
:102D60007729B8010E94DD489195819591090DCA96
:102D70000E947729B8010E94DD48919581959109BB
:102D80004AE0BC01CE0101960E94D02318CA0E94DD
:102D900080299195819591091ACA10E00E94802995
:102DA000181619064CF40E9480290BC00E94802935
:102DB00091958195910917CA0E94802991958195D5
:102DC00091094AE0BC01CE01895B9F4F0E94D0234C
:102DD00026CA0E94872991958195910928CA00E009
:102DE0000E948729181619064CF40E9487290BC0E7
:102DF0000E94872991958195910925CA0E9487296A
:102E00009195819591094AE0BC01CE0185599F4F6A
:102E10000E94D02334CA0E94772908EE13E0B8013B
:102E20000E94DD481816190634F40E947729B8016B
:102E30000E94DD4808C00E947729B8010E94DD4841
:102E4000919581959109FF24F3940A978CF0F12CC8
:102E50000E94772908EE13E0B8010E94DD48181699
:102E60001906D4F50E947729B8010E94DD483CC0BC
:102E70000E94772908EE13E0B8010E94DD48181679
:102E8000190634F40E947729B8010E94DD4808C071
:102E90000E947729B8010E94DD489195819591099A
:102EA0004AE0BC01CE01895B9F4F0E94D02365E2BE
:102EB00074E0CE018B599F4F0E940324BE01695BD1
:102EC0007F4FCE018B599F4F0E947123BC01CE01D1
:102ED00001960E94FB230EC00E947729B8010E9430
:102EE000DD489195819591094AE0BC01CE0101969A
:102EF0000E94D0230E948729181619061CF40E94EC
:102F0000872905C00E94872991958195910911E033
:102F10000A974CF010E00E9487291816190664F5EC
:102F20000E9487292EC00E948729181619061CF4B2
:102F30000E94872905C00E94872991958195910952
:102F40004AE0BC01CE0185599F4F0E94D02365E223
:102F500074E0CE0183589F4F0E940324BE0165593F
:102F60007F4FCE0183589F4F0E947123BC01CE0139
:102F70008F960E94FB230BC00E9487299195819513
:102F800091094AE0BC01CE018F960E94D0230E9495
:102F90008029181619061CF40E94802905C00E9479
:102FA000802991958195910901E00A974CF000E004
:102FB0000E948029181619066CF50E9480292FC0DE
:102FC0000E948029181619061CF40E94802905C049
:102FD0000E9480299195819591094AE0BC01CE011A
:102FE0008D579F4F0E94D02365E274E0CE01875732
:102FF0009F4F0E940324BE016D577F4FCE0187571C
:103000009F4F0E947123BC01CE01875A9F4F0E949F
:10301000FB230CC00E9480299195819591094AE07B
:10302000BC01CE01875A9F4F0E94D023BE01675A30
:103030007F4FCE018F5B9F4F0E94FB23BE01615DDE
:103040007F4FCE018F5B9F4F0E947123BE016F5F48
:103050007F4F0E947123BC0184E295E00E94B62359
:10306000CE018F5B9F4F0E94CB23CE01875A9F4F8B
:103070000E94CB23002351F0CE0187579F4F0E941F
:10308000CB23CE018D579F4F0E94CB23CE018F962D
:103090000E94CB23112351F0CE0183589F4F0E94F1
:1030A000CB23CE0185599F4F0E94CB23CE010196A1
:1030B0000E94CB23FF2009F432C9CE018B599F4FC8
:1030C0000E94CB23CE01895B9F4F27C91092F50840
:1030D000109219090C945C02C059DE4F0FB6F89497
:1030E000DEBF0FBECDBFDF91CF911F910F91FF903B
:1030F000EF90DF90CF90BF90AF909F908F907F9098
:103100006F905F904F903F902F9008954091C5052C
:103110005091C6052091C3053091C405421753074D
:1031200019F080E09CE302C08FEF9FEF4F5F5F4F8D
:103130004330510529F05093C6054093C5050895C5
:103140001092C6051092C5052F5F3F4F2330310501
:1031500029F03093C4052093C30508951092C40547
:103160001092C3050895CF92DF92EF92FF921F93C2
:10317000CF93DF9390917D05911103C08FEF9FEF67
:1031800072C090917C059923C9F3182FC0917B05DB
:10319000D0E08091BB0581110DC00E94AB256093EA
:1031A000B7057093B8058093B9059093BA0581E08F
:1031B0008093BB050E94AB25C090B705D090B805A1
:1031C000E090B905F090BA05DC01CB018C199D099E
:1031D000AE09BF098D329140A105B105D8F00E941A
:1031E000AB256093B7057093B8058093B9059093AC
:1031F000BA058091B60591E098279093B60599237A
:1032000029F01092B5051092B40504C0D093B5050D
:10321000C093B4052091B4053091B5052095309543
:1032200040917A0550E02423352326FF04C081E035
:103230008093B30502C01092B30527FF04C081E05C
:103240008093B20502C01092B2058091B605882322
:1032500009F494CF02C0D595C7951A95E2F7C0FF3F
:103260008DCF80E09CE3DF91CF911F91FF90EF9095
:10327000DF90CF9008950F931F93CF93DF93CDB737
:10328000DEB7A4970FB6F894DEBF0FBECDBF8B019B
:10329000833009F062C02091B3083091B40842E055
:1032A00050E06FEA78E0CE0149960E94C029C8013B
:1032B0000996B8014397F0F417FF03C07195619523
:1032C00071094AE0CE0107960E94D02365E274E0BE
:1032D000CE0101960E940324BE01695F7F4FCE019B
:1032E00001960E947123BC01CE010D960E94FB2322
:1032F00011E00BC017FF03C07195619571094AE099
:10330000CE010D960E94D02310E0BE01635F7F4F77
:10331000CE0143960E94FB23BE01675E7F4FCE0124
:1033200043960E947123BC018FEA98E00E94B62365
:10333000CE0143960E94CB23CE010D960E94CB2353
:10334000112341F0CE0101960E94CB23CE010796B6
:103350000E94CB23CE014996D9C08C3009F075C0AC
:103360002091B3083091B40844E050E06FEA78E06F
:10337000CE0143960E94C029C8010996B80143971F
:10338000F0F417FF03C07195619571094AE0CE0111
:103390004F960E94D02365E274E0CE0149960E94C8
:1033A0000324BE01615E7F4FCE0149960E947123C6
:1033B000BC01CE010D960E94FB2311E00BC017FF4C
:1033C00003C07195619571094AE0CE010D960E9486
:1033D000D02310E022E030E040E050E06FEA78E0F7
:1033E000CE0101960E94C029BE016F5F7F4FCE01C2
:1033F00007960E94FB23BE01635F7F4FCE010796B5
:103400000E947123BE016D5E7F4F0E947123BC013B
:103410008FEA98E00E94B623CE0107960E94CB2344
:10342000CE0101960E94CB23CE010D960E94CB23A4
:10343000112341F0CE0149960E94CB23CE014F9635
:103440000E94CB23CE01439661C0803309F060C057
:10345000CB0109964397F0F477FF03C0719561950E
:1034600071094AE0CE0143960E94D02365E274E0E0
:10347000CE010D960E940324BE016D5E7F4FCE01EA
:103480000D960E947123BC01CE0149960E94FB2338
:1034900011E00BC077FF03C07195619571094AE097
:1034A000CE0149960E94D02310E024E030E040E0B5
:1034B00050E06FEA78E0CE0101960E94C029BE017B
:1034C0006F5F7F4FCE0107960E94FB23BE01675EB0
:1034D0007F4FCE0107960E947123BC018FEA98E0CE
:1034E0000E94B623CE0107960E94CB23CE010196FF
:1034F0000E94CB23CE0149960E94CB23112341F099
:10350000CE010D960E94CB23CE0143960E94CB2381
:10351000A4960FB6F894DEBF0FBECDBFDF91CF915A
:103520001F910F9108950C94C3478F929F92AF9271
:10353000BF92CF92DF92EF92FF920F931F93CF93A0
:10354000DF9388E090E0EFDF982EA82EB12C89E081
:1035500090E0E9DFC82E082F10E08AE090E0E3DF7A
:10356000C82FD0E0D12CE12CF12CFE2CED2CDC2C42
:10357000CC24E928C82A812C912CB701A601C401CA
:103580000E94FB328FEF881A980A88E0881691040F
:10359000A1F70E9466338AE392E00E94EF3285E34E
:1035A00092E00E94CE32C5010E9466348EE292E023
:1035B0000E94CE32C8010E94663488E292E00E94E6
:1035C000CE32CE01DF91CF911F910F91FF90EF90FE
:1035D000DF90CF90BF90AF909F908F900C94663407
:1035E000CF93DF93C0E0D0E040E050E0BA01CE01DD
:1035F0000E94FB322196C830D105B1F7DF91CF91FF
:103600000C9466331F920F920FB60F9211240BB6D3
:103610000F922F923F924F925F926F927F928F9272
:103620009F92AF92BF92CF92DF92EF92FF920F9351
:103630001F932F933F934F935F936F937F938F933A
:103640009F93AF93BF93EF93FF93CF93DF93CDB748
:10365000DEB72897DEBFCDBF78948FEA98E00E944E
:10366000B5292C982AE0822E912CA12CB12CA501F1
:1036700094010E94F048660F771FFB01EF55FC4F45
:10368000808191819A83898385E090E02B833C83BC
:103690004D835E8368DD98878F8338DD7C012B81C5
:1036A0003C814D815E81CA01B901A50194010E944E
:1036B000F048660F771FFB01EF55FC4F608071806B
:1036C00084E090E02B833C834D835E834CDD8C0152
:1036D0001DDD6C012B813C814D815E81CA01B901E8
:1036E000A50194010E94F04819012A01660F771F75
:1036F000FB01EF55FC4F8080918083E090E033DD4B
:103700005C0104DD0C211D210621172120E030E0A1
:10371000BAE0000F111F221F331FBA95D1F78A217B
:103720009B21AC014821592160E070E0480159011A
:10373000842A952AA62AB72A8F819885E822F92219
:1037400089819A81E822F922A70160E070E014E102
:10375000440F551F661F771F1A95D1F7842A952AA3
:10376000A62AB72A8091B305882319F06894B6F881
:1037700002C0E894B6F88091B205882319F06894E5
:10378000B7F802C0E894B7F88B2D0E94D03E8A2D7E
:103790000E94D03E892D0E94D03E882D0E94D03EAE
:1037A0008AE0C82ED12CE12CF12CC201B101A70175
:1037B00096010E94F048660F771FFB01EF55FC4F02
:1037C0004080518082E090E02B833C834D835E8378
:1037D000CADC5C019BDC8C012B813C814D815E81CC
:1037E000CA01B901A70196010E94F048660F771F30
:1037F000FB01EF55FC4F6080718081E090E02B83EE
:103800003C834D835E83AFDC4C0180DC15012022BC
:10381000312224203520412C512CF4E1220C331C80
:10382000441C551CFA95D1F78821992186219721AE
:10383000A0E0B0E01AE0880F991FAA1FBB1F1A95DD
:10384000D1F752014101882A992AAA2ABB2A2B8141
:103850003C814D815E81CA01B901A70196010E9498
:10386000F048660F771FFB01EF55FC4FE080F180B9
:1038700080E090E078DC8C0149DC802391238E216C
:103880009F21A0E0B0E0882A992AAA2ABB2A809129
:10389000B305882319F06894B6F802C0E894B6F826
:1038A0008091B205882319F06894B7F802C0E894B3
:1038B000B7F88B2D0E94D03E8A2D0E94D03E892DD4
:1038C0000E94D03E882D0E94D03E2C9A28960FB69A
:1038D000F894DEBF0FBECDBFDF91CF91FF91EF9186
:1038E000BF91AF919F918F917F916F915F914F9118
:1038F0003F912F911F910F91FF90EF90DF90CF900C
:10390000BF90AF909F908F907F906F905F904F90FF
:103910003F902F900F900BBE0F900FBE0F901F90F7
:103920001895DF92EF92FF920F931F93CF93DF933F
:10393000C091B005D091B105C830D10508F06AC07A
:10394000082FFE018827E357FF4F8F4F0C940C4937
:1039500084E406C00E949A365DC08CEC01C08EEBF8
:103960000E94713657C028E0E22EF12C01E010E0F1
:103970000E941A368111102B000F81E0E81AF1081D
:10398000B9F71093AE0546C098E0E92EF12CDD247E
:10399000D39410E00E941A3681111D29DD0C81E0BC
:1039A000E81AF108B9F71093AF05612F70E0762F90
:1039B00066278091AE05682B6F3F8FEF780711F473
:1039C00060E070E0072E000C880B990B0E94B04657
:1039D00020E030E040E85DE30E940F47002361F003
:1039E00026E636E646EE5FE30E940F4720E030E031
:1039F00040E052E40E94244820E030E040E251E4FC
:103A00000E940F476093AA057093AB058093AC05A5
:103A10009093AD052196C830D10529F0D093B1051A
:103A2000C093B00504C01092B1051092B00560912A
:103A3000AA057091AB058091AC059091AD05DF9121
:103A4000CF911F910F91FF90EF90DF9008958F928B
:103A50009F92AF92BF92CF92DF92EF92FF920F931D
:103A60001F93CF93DF93CDB7DEB72C970FB6F894A3
:103A7000DEBF0FBECDBF8C016A017B018091A20524
:103A8000811113C00E94AB25DC01CB01845B9B4FED
:103A9000AF4FBF4F80939E0590939F05A093A005C5
:103AA000B093A10581E08093A205809196058111D4
:103AB00008C060E274E080E995E0A5D681E08093DB
:103AC00096050E94AB2580909E0590909F05A09042
:103AD000A005B090A105DC01CB0188199909AA09BC
:103AE000BB09893E9340A105B10508F44AC10E9473
:103AF000AB2560939E0570939F058093A0059093DE
:103B0000A10520E030E0A901C701B6010E94B94833
:103B100020E030E040E05FE387FD05C0C701B6016B
:103B20000E94244804C0C701B6010E9423480E9495
:103B3000884880915502909156029B0129513C4F33
:103B400049012458334059012A55310969017B0143
:103B5000892B09F080C077FF03C0F194E194F1084C
:103B60004AE0B701CE0107961BD665E274E0CE01AC
:103B7000019649D6BE01695F7F4FCE010196B1D54E
:103B800065E274E00E94042ABC0180E995E0EED56C
:103B9000CE01019600D6CE010796FDD53FEC8316E7
:103BA00037E09306F0F44AE0B701CE010796F8D566
:103BB00064E274E0CE01019626D6BE01695F7F4FB4
:103BC000CE0101968ED565E274E00E94042ABC0104
:103BD00080E995E0CBD5CE010196DDD5CE010796E3
:103BE000DAD587ECA816B104F0F44AE0B701CE01AB
:103BF0000796D6D563E274E0CE01019604D6BE01E5
:103C0000695F7F4FCE0101966CD565E274E00E943A
:103C1000042ABC0180E995E0A9D5CE010196BBD567
:103C2000CE010796B8D523E1C216D10408F0A9C089
:103C30004AE0B701CE010796B3D562E274E0CE0147
:103C40000196E1D5BE01695F7F4FCE01019649D54E
:103C500065E274E08AC077FF03C0F194E194F10853
:103C60004AE0B701CE0107969BD565E274E0CE012C
:103C70000196C9D5BE01695F7F4FCE01019631D54E
:103C800065E274E00E94042ABC0180E995E06ED5EB
:103C9000CE01019680D5CE0107967DD53FEC8316E7
:103CA00037E0930610F5C7016AE070E00E94DD4836
:103CB0004AE0CE01079674D564E274E0CE01019625
:103CC000A2D5BE01695F7F4FCE0101960AD564E29D
:103CD00074E00E94042ABC0180E995E047D5CE013A
:103CE000019659D5CE01079656D587ECA816B10492
:103CF00010F5C7016AE070E00E94DD484AE0CE019D
:103D000007964ED563E274E0CE0101967CD5BE01E4
:103D1000695F7F4FCE010196E4D464E274E00E94B3
:103D2000042ABC0180E995E021D5CE01019633D566
:103D3000CE01079630D523E1C216D10410F5C70194
:103D40006AE070E00E94DD484AE0CE01079628D57F
:103D500062E274E0CE01019656D5BE01695F7F4FE5
:103D6000CE010196BED464E274E00E94042ABC0134
:103D700080E995E0FBD4CE0101960DD5CE010796E2
:103D80000AD560E975E0C80136D5C8012C960FB692
:103D9000F894DEBF0FBECDBFDF91CF911F910F9181
:103DA000FF90EF90DF90CF90BF90AF909F908F905B
:103DB00008954F925F926F927F928F929F92AF92EF
:103DC000BF92CF92DF92EF92FF920F931F93CF9308
:103DD000DF9300D000D0CDB7DEB77C014B015A0194
:103DE00080910B06882341F0809183050AE815E055
:103DF000A4E8B5E0F8014AC081E080930B06109278
:103E00007905109278058AE8682E85E0782E94E886
:103E1000492E95E0592E00E010E00F5F1F4F68011A
:103E200081E0C81AD1089801A601B401CE0101961B
:103E30000E94C029CE0101960E94B529F301619329
:103E40003F01CE010196A7D49801A601B501CE018C
:103E500001960E94C029CE0101960E94B529F20167
:103E600061932F01CE01019696D406301105A9F673
:103E7000BBCF2C9192130DC090819A3009F410821F
:103E80003196119695E0E039F90731F090818A304A
:103E900080F79F5F9083F0CF8F5F843119F080931C
:103EA000830504C01092830510920B066FE174E045
:103EB000C701A9D4FE0131966F01F80181918F01EC
:103EC0004AE0B60190E00E946246F60101900020AF
:103ED000E9F73197AF014C195D09B601C70189D3E4
:103EE000F5E000391F0749F7C70126960FB6F89489
:103EF000DEBF0FBECDBFDF91CF911F910F91FF901D
:103F0000EF90DF90CF90BF90AF909F908F907F9079
:103F10006F905F904F9008950F931F93809151027F
:103F200090915202892B09F453C080918205882315
:103F3000A1F011D600917E0510917F05209180059A
:103F400030918105DC01CB01801B910BA20BB30BDF
:103F5000893E9340A105B105C0F58091820581118C
:103F600037C00E94AC2920914B0230914C0282173D
:103F7000930771F50E94952920914D0230914E02D0
:103F80008217930729F50E948E2920914F023091C4
:103F9000500282179307E1F4DED560937E0570939B
:103FA0007F05809380059093810581E08093820551
:103FB0008AE192E00E94EF3280912E0290912F02CE
:103FC0009093F2058093F10503C010928205C5CF4E
:103FD0001F910F910895BFD5609374057093750577
:103FE000809376059093770580917305882309F473
:103FF0004FC020910D0630910E06C901880F991F00
:104000002131310551F0FC01EF5CFD4F40815181C0
:1040100041505109518340830AC04091530250914D
:1040200054024C5051095093540240935302DC0106
:10403000AF5CBD4F6D917C911197FC01EF53FC4F2C
:1040400040815181641775073CF4FC01E758FC4F2F
:10405000408151814D935C932031310571F4209161
:104060005102309152022130310521F420E8209391
:104070007A0506C010927A0503C02930310541F057
:10408000FC01EF5CFD4F6081718180917B05F3C87D
:10409000089561D5609374057093750580937605D6
:1040A0009093770580917305882309F444C020918B
:1040B0000D0630910E06C901880F991F2131310577
:1040C00051F0FC01EF5CFD4F408151814F5F5F4F2C
:1040D000518340830AC04091530250915402445F7F
:1040E0005F4F5093540240935302DC01AF5CBD4FCD
:1040F0006D917C911197FC01E758FC4F40815181F3
:10410000461757073CF4FC01EF53FC4F40815181A7
:104110004D935C932031310519F410927A0503C058
:104120002930310541F0FC01EF5CFD4F6081718168
:1041300080917B05A0C80895CF93DF93EC01019691
:1041400028812A33D9F78981843639F5109272058E
:104150001092710523964AE0FE018881219690ED28
:10416000980F20917105309172059A3080F4429F2A
:10417000B001439F700D1124082E000C990BC097BD
:10418000860F971F9093720580937105E5CF1216E5
:10419000130614F420932D02EF01219688818F36A7
:1041A00089F48A81082E000C990B9C012053310957
:1041B0003093720520937105C397059710F42093EF
:1041C0002C0224968881823629F51092720510926D
:1041D0007105FE0132964AE0819190ED980F209191
:1041E0007105309172059A3080F4429FB001439F6F
:1041F000700D1124082E000C990BC097860F971F85
:104200009093720580937105E7CF30932B02209332
:104210002A02EF0120912A0230912B02032E000C7A
:10422000440B550B60E67AEE80E090E00E94F04887
:10423000DA01C90122E0880F991FAA1FBB1F2A9526
:10424000D1F780936D0590936E05A0936F05B093A1
:104250007005CE01DF91CF9108950895CF92DF923E
:10426000EF92FF920F931F93CF93DF936C017A012C
:104270008B01C0E0D0E0CE15DF0589F0D8016D914B
:104280008D01D601ED91FC910190F081E02DC601E8
:104290001995892B11F47E0102C02196ECCFC7013C
:1042A000DF91CF911F910F91FF90EF90DF90CF9012
:1042B0000895FC01A089B1898C91A689B78982FDF6
:1042C0000FC09C91818D8F5F8F73228D821749F073
:1042D000218DDF01A20FB11D5D969C93818F089502
:1042E0008C910895FC01538D448D252F30E0842F4F
:1042F00090E0821B930B541710F0CF96089501970E
:104300000895FC01918D828D981761F0828DDF01F7
:10431000A80FB11D5D968C91928D9F5F9F73928FB8
:1043200090E008958FEF9FEF0895FC01918D828DAD
:10433000981731F0828DE80FF11D858D90E008957A
:104340008FEF9FEF0895FC01918D228D892F90E0D2
:10435000805C9F4F821B91098F739927089587E393
:1043600096E0F1DF21E0892B09F420E0822F089507
:1043700084ED96E0E8DF21E0892B09F420E0822F2C
:104380000895FC01848DDF01A80FB11DA35ABF4F12
:104390002C91848D90E001968F739927848FA68944
:1043A000B7892C93A089B1898C9180648C93938D6B
:1043B000848D981306C00288F389E02D80818F7D5B
:1043C00080830895EF92FF920F931F93CF93DF9313
:1043D000EC0181E0888F9B8D8C8D981305C0E88956
:1043E000F989808185FD23C0F62E0B8D10E00F5FCB
:1043F0001F4F0F731127E02E8C8DE8120BC00FB6E4
:1044000007FCFACFE889F989808185FFF5CFCE01D5
:10441000B8DFF2CF8B8DFE01E80FF11DE35AFF4F9D
:10442000F0820B8FEA89FB898081806207C0EE8968
:10443000FF896083E889F98980818064808381E0D5
:1044400090E0DF91CF911F910F91FF90EF90089531
:10445000CF93DF93EC01888D8823C1F0EA89FB8933
:10446000808185FD05C0A889B9898C9186FD0EC023
:104470000FB607FCF5CF808185FFF2CFA889B989F7
:104480008C9185FFEDCFCE017CDFE8CFDF91CF911E
:10449000089580E090E0892B19F06ADF811120C037
:1044A00080E090E0892B19F05ADF81111CC080E078
:1044B00090E0892B41F080E090E0892B21F00E9470
:1044C0000000811113C080E090E0892BA1F080E012
:1044D00090E0892B81F00E94000081110AC00895AC
:1044E0000E940000DDCF0E940000E1CF0E9400008A
:1044F000EACF0C940000089590E0FC013197E2317E
:10450000F10508F04EC08827EB56FF4F8F4F0C94F3
:104510000C49809180008F7703C0809180008F7D4F
:1045200080938000089580918000877FF9CF84B5C3
:104530008F7702C084B58F7D84BD08958091B000CF
:104540008F7703C08091B0008F7D8093B000089575
:10455000809190008F7707C0809190008F7D03C07D
:1045600080919000877F8093900008958091A000B3
:104570008F7707C08091A0008F7D03C08091A0003D
:10458000877F8093A0000895809120018F7707C0D6
:10459000809120018F7D03C080912001877F8093CF
:1045A000200108950F931F93CF93DF93EC0188812F
:1045B0009981009729F02A813B812617370788F4D3
:1045C0008B016F5F7F4F0E944D4A009761F0998386
:1045D00088831B830A832C813D81232B11F4FC01EA
:1045E000108281E001C080E0DF91CF911F910F9197
:1045F0000895EF92FF920F931F93CF93DF93FC01E7
:10460000248135816115710511F480E018C04115D0
:104610005105A1F07B01EC018A01020F131FB801C3
:10462000C1DF882391F3288139818C819D81B70175
:10463000820F931F0E943E4B1D830C8381E0DF910C
:10464000CF911F910F91FF90EF9008950F931F93BB
:10465000CF93DF938C01EB01FC0180819181009766
:10466000B1F0688179816115710579F042815381DA
:104670002C813D814217530740F00E943E4B8C81B4
:104680009D81F8019583848313C00E94B549888178
:104690009981F801918380838A819B8193838283AE
:1046A0008C819D8195838483198218821B821A8252
:1046B0001D821C82DF91CF911F910F910895CF939E
:1046C000DF93EC0188819981009711F00E94B54930
:1046D000198218821D821C821B821A82DF91CF915F
:1046E0000895CF93DF93EC01FB01448155816081F4
:1046F00071817FDF811102C0CE01E1DFCE01DF9148
:10470000CF910895EF92FF920F931F93CF93DF9372
:10471000EC017B018A01BA0145DF811103C0CE01A2
:10472000CEDF07C01D830C83B701888199810E9469
:104730003E4BCE01DF91CF911F910F91FF90EF90F3
:104740000895CF93DF93EC016115710551F0FB01E2
:1047500001900020E9F73197AF01461B570BD2DFDC
:1047600001C0ADDFCE01DF91CF910895CF93DF93EC
:10477000EC01FB018617970751F06081718161158B
:10478000710521F044815581BDDF01C098DFCE0164
:10479000DF91CF910895FC01808191810C94B549FE
:1047A0000F931F93CF93DF93CDB7DEB762970FB60A
:1047B000F894DEBF0FBECDBF8C01CB01F801118292
:1047C0001082138212821582148250E0BE016F5F44
:1047D0007F4F0E945846BE016F5F7F4FC801B1DF17
:1047E00062960FB6F894DEBF0FBECDBFDF91CF91BA
:1047F0001F910F910895FC01118210821382128281
:1048000015821482B3CFFC011182108213821282AE
:10481000158214826115710549F0FB010190002099
:10482000E9F73197AF01461B570B6CCF08951F92E4
:104830000F920FB60F9211240BB60F922F933F9346
:104840004F935F936F937F938F939F93AF93BF9398
:10485000EF93FF9387E396E094DDFF91EF91BF9193
:10486000AF919F918F917F916F915F914F913F9108
:104870002F910F900BBE0F900FBE0F901F901895A9
:104880001F920F920FB60F9211240BB60F922F9317
:104890003F934F935F936F937F938F939F93AF93C8
:1048A000BF93EF93FF9387E396E003DDFF91EF91D2
:1048B000BF91AF919F918F917F916F915F914F9138
:1048C0003F912F910F900BBE0F900FBE0F901F9036
:1048D00018951F920F920FB60F9211240BB60F92DC
:1048E0002F933F934F935F936F937F938F939F93F8
:1048F000AF93BF93EF93FF9384ED96E042DDFF917A
:10490000EF91BF91AF919F918F917F916F915F9147
:104910004F913F912F910F900BBE0F900FBE0F90B4
:104920001F9018951F920F920FB60F9211240BB67D
:104930000F922F933F934F935F936F937F938F9338
:104940009F93AF93BF93EF93FF9384ED96E0B1DC19
:10495000FF91EF91BF91AF919F918F917F916F9157
:104960005F914F913F912F910F900BBE0F900FBE13
:104970000F901F901895CF93DF93282F30E0F90107
:10498000E35BFD4F8491F901E156FC4FD491F901AD
:10499000E75AFC4FC491CC2389F08111ADDDEC2F97
:1049A000F0E0EE0FFF1FE15CFC4FA591B491EC919C
:1049B000ED2381E090E021F480E002C080E090E00F
:1049C000DF91CF9108951F93CF93DF93282F30E08D
:1049D000F901E35BFD4F8491F901E156FC4FD4915D
:1049E000F901E75AFC4FC491CC23C1F0162F811175
:1049F00083DDEC2FF0E0EE0FFF1FEB5DFC4FA59188
:104A0000B4918FB7F894111105C09C91ED2FE095EA
:104A1000E92302C0EC91ED2BEC938FBFDF91CF9196
:104A20001F910895CF93DF9390E0FC01E156FC4F76
:104A30002491FC01E75AFC4F8491882361F190E0B6
:104A4000880F991FFC01EA56FD4FC591D491FC01D6
:104A5000EB5DFC4FA591B491611109C09FB7F8942B
:104A60008881209582238883EC912E230BC06230AD
:104A700061F49FB7F8943881822F809583238883CF
:104A8000EC912E2B2C939FBF06C08FB7F894E88132
:104A90002E2B28838FBFDF91CF9108953FB7F894D5
:104AA0008091E3059091E405A091E505B091E605BC
:104AB00026B5A89B05C02F3F19F00196A11DB11D79
:104AC0003FBFBA2FA92F982F8827820F911DA11DB4
:104AD000B11DBC01CD0142E0660F771F881F991FF1
:104AE0004A95D1F708958F929F92AF92BF92CF923D
:104AF000DF92EF92FF926B017C01D0DF4B015C01F2
:104B0000C114D104E104F104E9F0C8DFDC01CB01F8
:104B100088199909AA09BB09883E9340A105B105E6
:104B200078F321E0C21AD108E108F10888EE880E76
:104B300083E0981EA11CB11CC114D104E104F1044E
:104B400021F7DECFFF90EF90DF90CF90BF90AF9036
:104B50009F908F9008952FB7F8946091DF05709122
:104B6000E0058091E1059091E2052FBF08956093E3
:104B7000C7057093C8058093C9059093CA05DC01E9
:104B8000CB01845D9E4FAF4FBF4F8093DA0590936A
:104B9000DB05A093DC05B093DD0582E090E0909307
:104BA000D9058093D805D7DF6093D4057093D505D8
:104BB0008093D6059093D7050895CF92DF92EF9218
:104BC000FF920F931F93C7DFC090D405D090D505F7
:104BD000E090D605F090D7058B019C010C191D09BA
:104BE0002E093F098091C7059091C805A091C9057C
:104BF000B091CA05083E134021053105D0F0019659
:104C0000A11DB11D8093C7059093C805A093C90548
:104C1000B093CA05B701A60148515C4F6F4F7F4F53
:104C20004093D4055093D5056093D6057093D7056E
:104C3000CACF4091DA055091DB056091DC05709197
:104C4000DD0584179507A607B70780F1E091D20527
:104C5000F091D305309751F11995611571058105D2
:104C6000910511F084DF22C08091C7059091C8059D
:104C7000A091C905B091CA05845D9E4FAF4FBF4F4B
:104C80008093DA059093DB05A093DC05B093DD05F6
:104C900081E090E02091D8053091D905232B11F4C3
:104CA00080E090E09093D9058093D8056091C70586
:104CB0007091C8058091C9059091CA051F910F9107
:104CC000FF90EF90DF90CF9008951F920F920FB654
:104CD0000F9211242F933F938F939F93AF93BF9382
:104CE0008091DF059091E005A091E105B091E2058A
:104CF0003091DE0523E0230F2D3720F40196A11D0E
:104D0000B11D05C026E8230F0296A11DB11D2093F9
:104D1000DE058093DF059093E005A093E105B09355
:104D2000E2058091E3059091E405A091E505B0913D
:104D3000E6050196A11DB11D8093E3059093E4055E
:104D4000A093E505B093E605BF91AF919F918F9138
:104D50003F912F910F900FBE0F901F9018951F92AB
:104D60000F920FB60F9211240BB60F922F933F9311
:104D70004F935F936F937F938F939F93AF93BF9363
:104D8000EF93FF9380917E07F6DD209182073091AB
:104D900083072F5F3F4F30938307209382079091C3
:104DA0008107953618F096E090937D0790917D07E6
:104DB0009430C9F128F4923069F09330D1F05EC09C
:104DC000953009F451C0963009F058C091E09093A5
:104DD0004E0851C0811152C0209182073091830743
:104DE0002436310508F442C010924E081092810713
:104DF0001CC0813009F042C0E091810791E09E0F14
:104E000090938107F0E02091820730918307EE0FA5
:104E1000FF1FE358F84F30872783109283071092C3
:104E2000820794E029C0811117C0E091810791E0C9
:104E30009E0F90938107F0E02091820730918307C5
:104E4000EE0FFF1FE358F84F308727831092830738
:104E50001092820793E010C020918207309183075F
:104E60002536310558F007C0811108C0109283071C
:104E70001092820703C095E090937D079091800780
:104E80009923B1F081110AC080917F07882321F016
:104E900080917F0761E009C02F9A0AC080917F0747
:104EA000882329F080917F0760E08DDD01C02F9875
:104EB000FF91EF91BF91AF919F918F917F916F91F2
:104EC0005F914F913F912F910F900BBE0F900FBEAE
:104ED0000F901F9018951F920F920FB60F921124EA
:104EE0000BB60F922F933F934F935F936F937F93E4
:104EF0008F939F93EF93FF934091290650912A0639
:104F000060912B0670912C064115510561057105C4
:104F100099F08091E705E091E805F091E90590812D
:104F2000892780831416150616061706D4F44150F7
:104F300051096109710915C0809170008D7F8093BE
:104F400070009091E705E091E805F091E905808116
:104F5000282F30E0892F90E080959095822393232D
:104F600080834093290650932A0660932B06709302
:104F70002C06FF91EF919F918F917F916F915F919F
:104F80004F913F912F910F900BBE0F900FBE0F903E
:104F90001F9018951F920F920FB60F9211240BB607
:104FA0000F922F933F938F939F93AF93BF93EF9362
:104FB000FF9380912D0690912E06A0912F06B0911F
:104FC0003006892B8A2B8B2B51F18091EA05E091D9
:104FD000EB05F091EC0590818927808380912D0667
:104FE00090912E06A0912F06B09130061816190642
:104FF0001A061B064CF580912D0690912E06A09165
:105000002F06B09130060197A109B10980932D06B2
:1050100090932E06A0932F06B093300615C0809172
:105020006F008D7F80936F009091EA05E091EB0512
:10503000F091EC058081282F30E0892F90E0809559
:105040009095822393238083FF91EF91BF91AF913D
:105050009F918F913F912F910F900BBE0F900FBE9C
:105060000F901F9018951F920F920FB60F92112458
:105070000BB60F922F933F938F939F93AF93BF9352
:10508000EF93FF938091310690913206A091330601
:10509000B0913406892B8A2B8B2B51F18091ED0531
:1050A000E091EE05F091EF05908189278083809152
:1050B000310690913206A0913306B091340618164D
:1050C00019061A061B064CF580913106909132069E
:1050D000A0913306B09134060197A109B1098093DC
:1050E000310690933206A0933306B093340615C070
:1050F00080916E008D7F80936E009091ED05E09120
:10510000EE05F091EF058081282F30E0892F90E0A7
:1051100080959095822393238083FF91EF91BF9197
:10512000AF919F918F913F912F910F900BBE0F9058
:105130000FBE0F901F9018953F924F925F926F9203
:105140007F928F929F92AF92BF92CF92DF92EF9217
:10515000FF920F931F93CF93DF93382E962E842EBA
:10516000F90184E6E816F1042CF082EBE81A87E0F6
:10517000F80A03C08EE1E80EF11CE092D10500931D
:10518000D005E093CF053092CD059092CC0580926A
:10519000CB05AE2DB0E020E833E341EE51E00E94B4
:1051A0000A482B013C0122EB37E0FF2484E6C82E9D
:1051B000D12CC0E9D1E0C901825B97408E159F05D3
:1051C000DCF4C90183709927892B99F4C901B601D0
:1051D0000E94DD48892B31F4C901BE010E94DD48DF
:1051E000892B39F480E8480E81E5581E81E0681E5D
:1051F000711C2F5F3F4FDFCF8EE4E81A88EFF80A6B
:10520000C70164E670E00E94DD486C01C70160E9F7
:1052100071E00E94DD485C01C1E0D0E0112783E02D
:10522000E822FF24C017D1072CF5C230D10589F43C
:10523000E114F10471F4C114D10419F4A114B104FE
:1052400041F480E8480E8BE3581E86E2681E711C0C
:105250000FC0DE01AC54BC4FAC91B0E020E831E5AA
:1052600041E050E00E940A48460E571E681E791E13
:105270002196D8CF292D30E0ACE3B0E00E9414484D
:105280006B017C01C80CD11CE11CF11C232D30E00A
:10529000A0E1BEE00E941448C60ED71EE81EF91E0B
:1052A000DF01BB27119720E831E541E050E00E9483
:1052B0001A49DC01CB018C0D9D1DAE1DBF1DBC012B
:1052C000CD01640D751D861D971DDF91CF911F9136
:1052D0000F91FF90EF90DF90CF90BF90AF909F9095
:1052E0008F907F906F905F904F903F9040CC65DCA7
:1052F0000E94DE3A8091D10590E08E54984F089537
:105300005CDC0E94DE3A8091D00590E0089555DC87
:105310000E94DE3A8091CF0590E008954EDC0E9415
:10532000DE3A8091CB0590E0089547DC0E94DE3A9A
:105330008091CC0590E0089540DC0E94DE3A2091F7
:10534000CD05222331F0822F90E02D3020F00C97F4
:1053500008958CE090E0089530DC0E94DE3A809160
:10536000CD0590E008950E94314BFC018081918130
:10537000009711F00C94324660E070E0CB01089584
:10538000BF92CF92DF92EF92FF920F931F93CF9332
:10539000DF937C016B018A01E9012417350720F4B2
:1053A000812F8901C42FD82F6FE174E0C7012BDA58
:1053B000D60114968D919C91159708171907C8F47A
:1053C0008C179D0708F4EC01D601ED91FC91119723
:1053D000EC0FFD1FB08010824D915C91BA01600FFF
:1053E000711FC701AED9D601ED91FC91EC0FFD1FE5
:1053F000B082C701DF91CF911F910F91FF90EF9085
:10540000DF90CF90BF900895CF93DF93EC016115AB
:10541000710559F0FB0101900020E9F73197AF01C8
:10542000461B570BE6D8811102C0CE0148D9CE01E8
:10543000DF91CF910895EF92FF920F931F93CF9337
:10544000DF93CDB7DEB7C25AD1090FB6F894DEBFED
:105450000FBECDBF8091210681110CC07CDB609313
:105460001D0670931E0680931F069093200681E010
:10547000809321068091150681110CC06CDB60932E
:10548000110670931206809313069093140681E020
:105490008093150660DB00911D0610911E06209179
:1054A0001F0630912006DC01CB01801B910BA20B63
:1054B000B30B0091590210915A0220915B02309176
:1054C0005C02081719072A073B0708F06EC043DB88
:1054D00060931D0670931E0680931F06909320060E
:1054E00080910F0690911006009799F481E090E06A
:1054F00090930E0680930D0688E893E1A0E0B0E05B
:105500008093590290935A02A0935B02B0935C027D
:105510001EC00197E1F484E090E090930E06809322
:105520000D0688E893E1A0E0B0E0809359029093E3
:105530005A02A0935B02B0935C028091F005811146
:1055400006C082E090E09093100680930F06809151
:105550000F06909110068230910581F410920E068C
:1055600010920D0640E65AEE60E070E0409359025A
:1055700050935A0260935B0270935C0201968330F1
:1055800091052CF49093100680930F0604C010929E
:10559000100610920F0680910C06882321F01092BD
:1055A0000E0610920D0610920C06D5DA00911D061B
:1055B00010911E0620911F0630912006DC01CB01C0
:1055C000801B910BA20BB30B803D9740A105B10549
:1055D00008F0E7C5C0DA009111061091120620917B
:1055E000130630911406DC01CB01801B910BA20B3A
:1055F000B30B85369105A105B10508F4D4C5ABDA26
:10560000609311067093120680931306909314060C
:105610002091F00580910D0690910E06222309F449
:10562000FAC2892B71F5CE0107960E94AD3781E051
:105630002091550230915602232B09F480E00E94FC
:10564000911CAB01BC01CE010D960E94271DAE013D
:10565000495F5F4FBE01635F7F4FCE0101960E949D
:10566000D91EBE016F5F7F4F8FEA98E00E9426230C
:10567000CE01019690D8CE010D968DD8CE01079619
:105680008AD880910D0690910E06019709F04EC1BF
:105690002EDE08EE13E0B8010E94DD481816190648
:1056A0002CF425DEB8010E94DD4807C020DEB801D9
:1056B0000E94DD4891958195910911E00A978CF03F
:1056C00010E015DEE8EEEE2EE3E0FE2EB7010E94BC
:1056D000DD481816190694F50ADEB7010E94DD4868
:1056E00034C005DEF8EEEF2EF3E0FF2EB7010E9486
:1056F000DD48181619062CF4FADDB7010E94DD48C2
:1057000007C0F5DDB7010E94DD48919581959109AB
:105710004AE0BC01CE01439643D865E274E0CE0175
:10572000499671D8BE016D5E7F4FCE0149960E94A9
:105730007123BC01CE010D965ED80CC0D8DDB70137
:105740000E94DD489195819591094AE0BC01CE0106
:105750000D9626D8D5DD1816190614F4D1DD04C02F
:10576000CFDD91958195910901E00A973CF000E029
:10577000C7DD1816190614F5C3DD24C0C1DD1816DF
:10578000190614F4BDDD04C0BBDD91958195910926
:105790004AE0BC01CE01859603D865E274E0CE01F3
:1057A0008B9631D8BE016B5D7F4FCE018B960E94E8
:1057B0007123BC01CE014F961ED80AC0A1DD919580
:1057C000819591094AE0BC01CE014F960E94D023F9
:1057D0009EDD1816190614F49ADD04C098DD919523
:1057E00081959109FF24F3940A973CF0F12C8FDD09
:1057F000181619063CF58BDD29C089DD1816190627
:1058000014F485DD04C083DD9195819591094AE00A
:10581000BC01CE01CD960E94D02365E274E0CE019A
:105820008D5B9F4F0E940324BE01635C7F4FCE01BE
:105830008D5B9F4F0E947123BC01CE01C7960E94D1
:10584000FB230AC064DD9195819591094AE0BC0172
:10585000CE01C7960E94D023BE01695C7F4FCE0166
:10586000C1960E94FB23BE01615E7F4FCE01C196AF
:105870000E947123BE01635F7F4F0E947123BC01B0
:10588000CE0107960E94FB23CE01875B9F4F0E94AB
:10589000AD37AE01495F5F4FBE01675B7F4FCE0101
:1058A00001960E94D91EBE016F5F7F4F8FEA98E07C
:1058B0000E942623CE0101960E94CB23CE01875B56
:1058C0009F4F0E94CB23CE0107960E94CB23CE018F
:1058D000C1960E94CB23CE01C7960E94CB23FF2006
:1058E00049F0CE018D5B9F4F0E94CB23CE01CD9618
:1058F0000E94CB23CE014F960E94CB23002341F080
:10590000CE018B960E94CB23CE0185960E94CB239D
:10591000CE010D960E94CB23112341F0CE01499672
:105920000E94CB23CE0143960E94CB2380910D068B
:1059300090910E06049709F036C481E0209155023B
:1059400030915602232B09F480E00E94911CAB0198
:10595000BC01CE0107960E94271DC9DC08EE13E0AA
:10596000B8010E94DD48181619062CF4C0DCB801F5
:105970000E94DD4807C0BBDCB8010E94DD4891955C
:105980008195910911E00A978CF010E0B0DC68EE87
:10599000E62E63E0F62EB7010E94DD4818161906C0
:1059A000ACF5A5DCB7010E94DD4837C0A0DC78EE7D
:1059B000E72E73E0F72EB7010E94DD48181619068E
:1059C0002CF495DCB7010E94DD4807C090DCB701DC
:1059D0000E94DD489195819591094AE0BC01CE0174
:1059E000C1960E94D02365E274E0CE01C7960E9462
:1059F0000324BE016F5C7F4FCE01C7960E947123C6
:105A0000BC01CE014F960E94FB230DC070DCB70194
:105A10000E94DD489195819591094AE0BC01CE0133
:105A20004F960E94D0236CDC1816190614F468DC1B
:105A300004C066DC91958195910901E00A973CF0DC
:105A400000E05EDC181619064CF55ADC2BC058DC59
:105A50001816190614F454DC04C052DC9195819593
:105A600091094AE0BC01CE01815B9F4F0E94D02387
:105A700065E274E0CE018B5A9F4F0E940324BE0161
:105A8000615B7F4FCE018B5A9F4F0E947123BC01F7
:105A9000CE01875B9F4F0E94FB230BC031DC9195A9
:105AA000819591094AE0BC01CE01875B9F4F0E941E
:105AB000D0232DDC1816190614F429DC04C027DCC9
:105AC000919581959109FF24F3940A973CF0F12C6C
:105AD0001EDC181619064CF51ADC2BC018DC18163B
