:100000000C94B0000C94D8000C94D8000C94D80038
:100010000C94D8000C94D8000C94D8000C94B724FD
:100020000C94D8000C94D8000C94D8000C94122591
:100030000C94D8000C94D8000C9477250C94D8001C
:100040000C946D240C94D8000C9414230C94EE2280
:100050000C94D8000C94D8000C94D8000C94D800C0
:100060000C94AF160C94D800650267025B025D0227
:100070005F0261026302D609080A030B510B830B6E
:10008000CD0BC10DC10DC10D020C2A0C2A0C2A0C7E
:10009000C10DC10DC10DC10DC10D830BCD0BCE1A0C
:1000A000D11ACC1ACE1AD11AD31AD71AE81A0201C9
:1000B0000000000000240027002A004661756C74CF
:1000C00079204453333233312100445333323331B6
:1000D0005F543D004669726D776172652076657286
:1000E00073696F6E3A200000000000250028002B85
:1000F000000000000023002600290004040404047A
:1001000004040402020202020203030303030301C4
:10011000020408102040800102040810200102049B
:10012000081020426C75653D00475245454E3D0024
:100130005245443D005265616465642066726F6D8E
:1001400020454550524F4D000000000800020100BC
:10015000000304070000000000000000402C362DC2
:1001600011241FBECFEFD8E0DEBFCDBF26E0AEEF3B
:10017000B3E001C01D92AC3FB207E1F713E0A0E08D
:10018000B1E0E0E3F5E602C005900D92AE3FB107A5
:10019000D9F710E0CFEAD0E004C02197FE010E9419
:1001A0007130CE3AD107C9F70E9442270C948B32A6
:1001B0000C9400000F931F93CF93DF93CDB7DEB75E
:1001C00062970FB6F894DEBF0FBECDBF8C0177FFEC
:1001D00003C07195619571094AE06A3071054CF56B
:1001E000CE010D960E94A4226EE373E0CE0101962B
:1001F0000E94D922BE016F5F7F4FCE0107960E94F9
:10020000D022BE01635F7F4FCE0107960E943D2240
:10021000BC01C8010E94D022CE0107960E949F22F5
:10022000CE0101960E949F22CE010D960E949F2230
:1002300003C0C8010E94A422C80162960FB6F894B8
:10024000DEBF0FBECDBFDF91CF911F910F910895FB
:100250000F931F93CF93DF93CDB7DEB768970FB699
:10026000F894DEBF0FBECDBF8C01809155019091F7
:100270005601489791F40E94E115BC01CE014396C6
:100280000E94DA000E94E915BC01CE010D960E9481
:10029000DA000E94F115BC011FC00E94E115BC01EB
:1002A000CE0143960E94DA000E94E915BC01CE01FE
:1002B0000D960E94DA000E94B8260E94D414809104
:1002C000DA06882339F0682F70E08D3028F06C5002
:1002D000710902C06CE070E0CE0101960E94DA0064
:1002E000BE016F5F7F4FCE0107960E94D022BE01F4
:1002F000635F7F4FCE0107960E943D22BE016D5E77
:100300007F4F0E943D22BC01C8010E94D022CE0135
:1003100007960E949F22CE0101960E949F22CE0145
:100320000D960E949F22CE0143960E949F22C801F3
:1003300068960FB6F894DEBF0FBECDBFDF91CF91A8
:100340001F910F9108958F929F92AF92BF92CF927B
:10035000DF92EF92FF920F931F93CF93DF93CDB76E
:10036000DEB7EC970FB6F894DEBF0FBECDBF0E948C
:100370003A2420E137E240E050E00E943030672B21
:10038000682B692B29F480917A0481110C94820CDA
:10039000109263041092620410926104109260043F
:1003A00010925F0410925E0400916E0410916F042D
:1003B000F8018081882309F42EC10E943A24C0905C
:1003C0000404D0900504E0900604F0900704DC01DA
:1003D000CB018C199D09AE09BF09C0900004D090D3
:1003E0000104E0900204F0900304C816D906EA065E
:1003F000FB0608F010C10E943A246B017C01609357
:1004000004047093050480930604909307041092EB
:10041000970610929606A8016AE08A01FA01B08058
:100420004F5F5F4F80ED8B0D2091960630919706C0
:100430008A3080F4629FF001639FF00D11248B2DB0
:10044000BB0C990BC0978E0F9F1F909397068093BC
:100450009606E3CF60919206709193068091940680
:10046000909195062115310529F0032E000C440BBF
:10047000550B05C020915E0130E040E050E00E9445
:1004800052302093000430930104409302045093AF
:1004900003048B2DBB0C990BAA0BBB0BFC01E15683
:1004A000F109E730F10520F4EC5CFF4F0C9471305A
:1004B0001092FF030FC081E00BC083E009C085E00C
:1004C00007C086E005C088E003C08AE001C08CE078
:1004D0008093FF03F8018181833219F00F5F1F4F72
:1004E00007C08091FF038F5F8093FF030E5F1F4F54
:1004F000F80180818E3201F5809000049090010413
:10050000A0900204B0900304C501B40122E030E0E1
:1005100040E050E00E945230D501C401820F931F89
:10052000A41FB51F8093000490930104A0930204BC
:10053000B09303040F5F1F4FF801808180538A300E
:1005400028F48093FE030F5F1F4F04C080915D016C
:100550008093FE038091FE03F80190819C3211F498
:100560000F5F1F4F2091FF03222309F454C0809096
:10057000000490900104A0900204B090030490E065
:1005800004973CE0389FF001399FF00D1124E20FF1
:10059000F11DEE0FFF1FE358FE4FB501A40180814E
:1005A00091810E94A80E0E943A24DC01CB018C1993
:1005B0009D09AE09BF0988169906AA06BB0658F51B
:1005C0000E943A2460930404709305048093060407
:1005D0009093070480910205813051F0823071F0D0
:1005E000811111C080916E008D7F80936E000BC0D1
:1005F00080916F008D7F80936F0005C080917000A7
:100600008D7F8093700060E0809101050E946F23D0
:1006100090E080E002C0902F812F90936E04809331
:100620006F040E943A2400915A0410915B042091B7
:100630005C0430915D04DC01CB01801B910BA20BAB
:10064000B30B8997A105B10508F4A9C080910205F3
:10065000813039F0823041F081110CC080916E0000
:1006600005C080916F0002C08091700086958170F6
:1006700009F08BC080913201811103C00E944318A0
:1006800084C080917D04811180C000910A04109182
:100690000B04C801880F991F800F911FFC01EE0FFA
:1006A000FF1FE152FE4F208131816AE0629FA0016D
:1006B000639F500D11242091060130910701420FD4
:1006C000531F5093070140930601FC01EE0FFF1FDB
:1006D000EF51FE4F20813181629FF001639FF00D49
:1006E000112420914F04309150042E0F3F1F30935E
:1006F000500420934F04880F991FFC01ED51FE4FC9
:1007000080819181689F6001699FD00C1124809144
:100710004D0490914E04C80ED91ED0924E04C09242
:100720004D04D12CE12CF12CE42AD22AA12CB12C9D
:10073000B701A601C5010E948110FFEFAF1ABF0AE1
:1007400028E0A216B104A1F70E94EC1080910804E1
:1007500090910904019690930904809308044997A5
:1007600051F40F5F1F4F10930B0400930A04109273
:1007700009041092080480910A0490910B040697D2
:1007800024F010920B0410920A040E943A24609301
:100790005A0470935B0480935C0490935D04809191
:1007A000980690919906892B21F080915904811126
:1007B000D3C280919A068111CFC280911E0481110B
:1007C0000DC00E943A2460931A0470931B04809316
:1007D0001C0490931D0481E080931E0480911204F8
:1007E00081110DC00E943A2460930E0470930F048F
:1007F000809310049093110481E0809312040E946E
:100800003A2400911A0410911B0420911C04309189
:100810001D04DC01CB01801B910BA20BB30B0091DB
:10082000000110910101209102013091030108178C
:1008300019072A073B0708F06FC00E943A2460930B
:100840001A0470931B0480931C0490931D048091E0
:100850000C0490910D04009799F481E090E090933E
:1008600099068093980688E893E1A0E0B0E0809331
:10087000000190930101A0930201B09303011EC0F7
:100880000197E1F484E090E09093990680939806B4
:1008900088E893E1A0E0B0E080930001909301012B
:1008A000A0930201B093030180916D04811106C0F1
:1008B00082E090E090930D0480930C0480910C04EE
:1008C00090910D048230910581F410929906109256
:1008D000980640E65AEE60E070E0409300015093C5
:1008E0000101609302017093030101968330910529
:1008F0002CF490930D0480930C0404C010920D040A
:1009000010920C0480915904882321F010929906CA
:1009100010929806109259040E943A2400911A04E9
:1009200010911B0420911C0430911D04DC01CB01AB
:10093000801B910BA20BB30B803D9740A105B10525
:1009400008F008C20E943A2400910E0410910F048E
:100950002091100430911104DC01CB01801B910B1C
:10096000A20BB30B85369105A105B10508F4F4C1BE
:100970000E943A2460930E0470930F048093100435
:100980009093110420916D0480919806909199069E
:10099000222309F410C1892B89F5CE0149960E94C2
:1009A000280181E02091570130915801232B09F44F
:1009B00080E00E94B71AAB01BC01CE0101960E94F3
:1009C0004B1BAE01475E5F4FBE016F5F7F4FCE0195
:1009D0004F960E942C1DBE01615E7F4F8CE096E019
:1009E0000E94F221CE014F960E949F22CE010196D5
:1009F0000E949F22CE0149960E949F2280919806D4
:100A000090919906019709F062C00E94C71568EE9F
:100A100073E00E941C30BC01CE018B960E94DA006C
:100A20000E94D115BC01CE0185960E94DA000E9479
:100A3000D915BC01CE0149960E94DA00BE01675E5D
:100A40007F4FCE014F960E94D022BE016B5D7F4F3B
:100A5000CE014F960E943D22BE01655D7F4F0E94F0
:100A60003D22BC01CE01C1960E94D022CE0101964A
:100A70000E942801AE014F5C5F4FBE016F5F7F4F48
:100A8000CE01C7960E942C1DBE01695C7F4F8CE091
:100A900096E00E94F221CE01C7960E949F22CE01CD
:100AA00001960E949F22CE01C1960E949F22CE01F4
:100AB0004F960E949F22CE0149960E949F22CE010E
:100AC00085960E949F22CE018B960E949F22809144
:100AD000980690919906049709F03EC181E0209113
:100AE000570130915801232B09F480E00E94B71A76
:100AF000AB01BC01CE01C1960E944B1B0E94C715E1
:100B000068EE73E00E941C30BC01CE0185960E9405
:100B1000DA000E94D115BC01CE014F960E94DA0086
:100B20000E94D915BC01CE0101960E94DA00BE01D7
:100B30006F5F7F4FCE0149960E94D022BE01615E59
:100B40007F4FCE0149960E943D22BE016B5D7F4FD3
:100B50000E943D22BC01CE018B960E94D022AE01A4
:100B60004F5C5F4FBE01655D7F4FCE01C7960E940F
:100B70002C1DBE01695C7F4F8CE096E00E94F22143
:100B8000CE01C7960E949F22CE018B960E949F2283
:100B9000CE0149960E949F22CE0101960E949F227B
:100BA000CE014F960E949F22CE0185960E949F22E1
:100BB000CE01C196CCC0892B09F062C0CE01C1968E
:100BC0000E9428010E94C71568EE73E00E941C3045
:100BD000BC01CE0185960E94DA000E94D115BC01AD
:100BE000CE014F960E94DA000E94D915BC01CE01B9
:100BF00001960E94DA00BE016F5F7F4FCE014996D9
:100C00000E94D022BE01615E7F4FCE0149960E94B4
:100C10003D22BE016B5D7F4F0E943D22BC01CE0193
:100C20008B960E94D022AE014F5C5F4FBE01655D86
:100C30007F4FCE01C7960E942C1DBE01695C7F4F7D
:100C40008CE096E00E94F221CE01C7960E949F227E
:100C5000CE018B960E949F22CE0149960E949F2230
:100C6000CE0101960E949F22CE014F960E949F22A4
:100C7000CE0185960E949F22CE01C1960E949F229E
:100C80008091980690919906019709F065C00E949D
:100C9000C71568EE73E00E941C30BC01CE018B9634
:100CA0000E94DA000E94D115BC01CE0185960E94F7
:100CB000DA000E94D915BC01CE0149960E94DA00E3
:100CC000BE01675E7F4FCE014F960E94D022BE01CB
:100CD0006B5D7F4FCE014F960E943D22BE01655D48
:100CE0007F4F0E943D22BC01CE01C1960E94D022BE
:100CF000CE0101960E942801AE014F5C5F4FBE01FC
:100D00006F5F7F4FCE01C7960E942C1DBE01695CAC
:100D10007F4F8CE096E00E94F221CE01C7960E94A0
:100D20009F22CE0101960E949F22CE01C1960E9471
:100D30009F22CE014F960E949F22CE0149960E948B
:100D40009F22CE0185960E949F22CE018B960E9403
:100D50009F2202C01092A1060E94551883EF95E0D1
:100D60000E94F9158AED95E00E94F91581EC95E055
:100D70000E94F91580919A06811103C010922706EE
:100D80002DC00E943A2400919B0610919C06209150
:100D90009D0630919E06DC01CB01801B910BA20BBE
:100DA000B30B81369A4EA105B105C0F010929A0698
:100DB000E0919806F0919906EE0FFF1FED5AFD4F56
:100DC000808191819093990680939806880F991F4E
:100DD000FC01E85FFE4F8081809327068091F30538
:100DE0009091F405181619063CF0809162049091D8
:100DF0006304019709F0A5C081E080935904109223
:100E00006F0410926E0444E650E060E070E088EEFB
:100E100093E00E94A80E0E943A2460939B06709370
:100E20009C0680939D0690939E06809198069091D3
:100E300099069C012F5F3F4F2530310529F03093F3
:100E400099062093980605C0029690939906809380
:100E500098068091980690919906069721F4109231
:100E6000990610929806209198063091990689016A
:100E7000000F111FF801E85FFE4F80818093270665
:100E8000D9011197FD01EE0FFF1FE55DFD4F608158
:100E900071816115710509F445C0AB0141505109DB
:100EA000FA01EE0FFF1FED5FFD4F0190F081E02D85
:100EB000EA17FB07B9F56230710509F041C588E111
:100EC000E5E6F1E0DE01119601900D928A95E1F7D9
:100ED00080914B0190914C0183709927892B21F4CB
:100EE0008DE190E09C838B832091470130914801F4
:100EF000E0914901F0914A013197EE0FFF1F81E027
:100F000090E08C0F9D1FE80FF91F8081918182175F
:100F100093070CF015C58AE090E0909399068093B2
:100F200098062FC62331310561F02950310922304E
:100F3000310538F00E94871FF801ED5CFE4F918368
:100F400080838091F3059091F40597FD07C080910F
:100F5000620490916304019609F003C144E650E0F5
:100F600060E070E088EE93E00E94A80E80919A06FF
:100F700081114DC00E943A2460939B0670939C0699
:100F800080939D0690939E06809198069091990675
:100F9000892BE9F50E94E115BC01CE0185960E94DE
:100FA000DA000E94E915BC01CE014F960E94DA00DA
:100FB0000E94F115BC01CE0101960E94DA00BE012B
:100FC0006F5F7F4FCE0149960E94D022BE01615EC5
:100FD0007F4FCE0149960E943D22BE016B5D7F4F3F
:100FE0000E943D22BC018CE096E00E948822CE0146
:100FF00049960E949F22CE0101960E949F22CE0117
:101000004F960E949F22CE0185960E949F2280913A
:10101000980690919906019709F06AC00E94D91527
:1010200090934801809347010E94D11590934A0103
:10103000809349010E94C71568EE73E00E941C303E
:10104000BC0190934C0180934B018091450190919C
:101050004601892B89F4CE0185960E94DA006091C1
:10106000490170914A01CE014F960E94DA006091C9
:1010700047017091480110C0CE0185960E94DA00A8
:101080006091470170914801CE014F960E94DA00AD
:101090006091490170914A01CE0101960E94DA00E7
:1010A000BE016F5F7F4FCE0149960E94D022BE01E4
:1010B000615E7F4FCE0149960E943D22BE016B5D6D
:1010C0007F4F0E943D22BC018CE096E00E94882266
:1010D000CE0149960E949F22CE0101960E949F2236
:1010E000CE014F960E949F22CE0185960E949F229C
:1010F000E0919806F0919906EE0FFF1FED5AFD4F13
:101100002081318130939906209398062D30310546
:1011100049F481E090E0909354018093530180E87A
:101120008093260690919A0681E0892780939A06FB
:101130008901000F111FF801E85FFE4F8081809345
:101140002706A901425151094230510550F029307A
:10115000310539F00E94871FF801ED5CFE4F918345
:1011600080838091DA059091DB05009739F48091B6
:10117000600490916104019721F507C09093580491
:10118000809357041816190694F781E08093590448
:1011900010926F0410926E0444E650E060E070E03C
:1011A00088EE93E00E94A80E0E94A11E80919A06EC
:1011B000811107C010927D0460E087E090E00E94FA
:1011C000DD178091570490915804019661F5809144
:1011D000DC05882341F11092290680919A06882324
:1011E00029F10E943A240091530410915404209153
:1011F000550430915604DC01CB01801B910BA20BEE
:10120000B30B87399105A105B10580F00E943A24FE
:101210006093530470935404809355049093560440
:101220000E94A11E03C081E0809329068091C10520
:101230009091C205009739F480915E0490915F040B
:101240000197B1F507C0909352048093510418168A
:10125000190694F711E01093590410926F0410923C
:101260006E0444E650E060E070E088EE93E00E9497
:10127000A80E0E94411E80919A06811119C01093F8
:101280007D0461E087E090E00E94DD176091060137
:1012900088E090E00E94DD1760914F0489E090E0C3
:1012A0000E94DD1760914D048AE090E00E94DD17F6
:1012B0008091510490915204019661F58091C3058B
:1012C000882341F11092280680919A06882329F1FB
:1012D0000E943A240091490410914A0420914B0441
:1012E00030914C04DC01CB01801B910BA20BB30BA2
:1012F00087399105A105B10580F00E943A246093D9
:10130000490470934A0480934B0490934C040E94C8
:10131000411E03C081E08093280680919A068111C6
:1013200039C08091DA059091DB0597FD06C0809168
:10133000600490916104019691F444E650E060E00D
:1013400070E088EE93E00E94A80E81E08093320165
:1013500061E080E090E00E94DD170E94E11780913B
:10136000C1059091C20597FD06C080915E049091E1
:101370005F04019679F444E650E060E070E088EEA6
:1013800093E00E94A80E1092320160E080E090E0AD
:101390000E94DD17E0919806F0919906E431F1057D
:1013A00008F0EFC3E55CFF4F0C9471308091A1060B
:1013B000811125C00E94E1152091040130910501A1
:1013C0008217930759F00E94E115909305018093CD
:1013D0000401CE0101960E94280106C06CE076E06F
:1013E000CE0101960E94D022BE016F5F7F4F8CE03C
:1013F00096E00E94F221CE0101960E949F220E9457
:10140000E11580FD02C080ECF5C010922606F4C004
:101410008091A1068111EDC080914104811113C01A
:101420000E943A24DC01CB0187519C4FAF4FBF4F44
:1014300080933D0490933E04A0933F04B0934004F6
:1014400081E08093410480913504811144C00E9461
:10145000C71568EE73E00E941C30BC01CE010196F6
:101460000E94DA000E94D115BC01CE0149960E946B
:10147000DA000E94D915BC01CE0185960E94DA00DF
:10148000BE016B5D7F4FCE014F960E94D022BE0100
:10149000675E7F4FCE014F960E943D22BE016F5F77
:1014A0007F4F0E943D22BC018FE294E00E94D02237
:1014B00081E080933504CE014F960E949F22CE0199
:1014C00085960E949F22CE0149960E949F22CE01BE
:1014D00001960E949F2280912704811107C080916C
:1014E00045018093260481E0809327040E943A24DA
:1014F00000913D0410913E0420913F04309140043E
:10150000DC01CB01801B910BA20BB30B893E9340F6
:10151000A105B10558F48091260490E02091450181
:10152000309146018217930709F452C00E943A2471
:1015300060933D0470933E0480933F049093400475
:101540008091450190914601892B09F005C30E94C5
:10155000C71568EE73E00E941C30BC01CE010196F5
:101560000E94DA000E94D115BC01CE0149960E946A
:10157000DA000E94D915BC01CE0185960E94DA00DE
:10158000BE016B5D7F4FCE014F960E94D022BE01FF
:10159000675E7F4FCE014F960E943D22BE016F5F76
:1015A0007F4F0E943D22BC018FE294E00E9488227E
:1015B000CE014F960E949F22CE0185960E949F22C7
:1015C000CE0149960E949F22CE0101960E949F2241
:1015D0006FE274E0CE0101960E94D022BE016F5FDF
:1015E0007F4F8CE096E00E94F221CE0101960E948E
:1015F0009F2280E4809326060E94E41D1092A0069C
:1016000010929F06BEC26091510170915201CE01AD
:1016100085960E94DA0060914F0170915001CE01D1
:101620004F960E94DA0060914D0170914E01CE01FB
:1016300001960E94DA00BE016F5F7F4FCE0149968E
:101640000E94D022BE01615E7F4FCE0149960E946A
:101650003D22BE016B5D7F4F0E943D22BC018CE0AC
:1016600096E00E948822CE0149960E949F22CE01D8
:1016700001960E949F22CE014F960E949F22CE018A
:1016800085960E949F221092A00610929F0680913C
:10169000530190915401019789F580E880932606C3
:1016A0002FC060915501709156014AE0CE014996D4
:1016B0000E94A4226DE373E0CE0101960E94D9221C
:1016C000BE01675E7F4FCE0101960E943D226DE311
:1016D00073E00E948F0EBC018CE096E00E9488228D
:1016E000CE0101960E949F22CE0149960E949F2220
:1016F00083E390E09093A00680939F0610922606C5
:101700000E94E41D3EC28091A106811142C081E089
:101710002091570130915801232B09F480E00E9459
:10172000B71A6B017C01AB01BC01CE0101960E948E
:101730004B1BBE016F5F7F4F8CE096E00E94F22151
:10174000CE0101960E949F228091570190915801ED
:10175000892B51F481E390E09093A00680939F063B
:1017600080E48093260608C083E290E09093A00670
:1017700080939F061092260620E030E0A901C70161
:10178000B6010E94C92D87FF04C08091260680689B
:1017900036C0809126068F7732C0609159017091D2
:1017A0005A01CE0101960E94DA00BE016F5F7F4FA1
:1017B000CE0149960E94D0226BE373E0CE01499698
:1017C0000E948F0EBC018CE096E00E948822CE0120
:1017D00049960E949F22CE0101960E949F228FE08F
:1017E00090E09093A00680939F068091590190917C
:1017F0005A0197FD03C010922606C3C180E880936A
:101800002606BFC18091450190914601892B79F44C
:1018100060E173E08CE096E00E94712283E090E04A
:1018200090931D0180931C018CE090E00EC067E155
:1018300073E08CE096E00E9471228CE090E090933F
:101840001D0180931C0183E090E090931F01809321
:101850001E0197C1809145019091460160914B0115
:1018600070914C01892B89F4CE0185960E94DA0093
:101870006091490170914A01CE014F960E94DA00B1
:10188000609147017091480110C0CE0185960E9479
:10189000DA006091470170914801CE014F960E9495
:1018A000DA006091490170914A01CE0101960E94CF
:1018B000DA00BE016F5F7F4FCE0149960E94D022B1
:1018C000BE01615E7F4FCE0149960E943D22BE015E
:1018D0006B5D7F4F0E943D22BC018CE096E00E9430
:1018E0008822CE0149960E949F22CE0101960E9435
:1018F0009F22CE014F960E949F22CE0185960E9484
:101900009F223FC10E94DD1FE0907804F09079048F
:10191000009176041091770420917404309175043D
:1019200040917B0450917C04609172047091730427
:1019300080917004909171040E94DC250C94C80180
:1019400010929A065093990640939806452BB9F445
:101950000E94C7157C010E94D1158C010E94D915E7
:101960009C0140914301509144016091410170916B
:10197000420180913F01909140010E94DC258091BD
:10198000980690919906019719F5E0904B01F09017
:101990004C0190E3E91A98EFF90A0091490110917E
:1019A0004A0180904701909048010E94E1155C0136
:1019B0000E94E9156C010E94F1159401A501B60180
:1019C0000E94DC25609145018DE090E00E94DD17CA
:1019D00080919806909199060297C1F460914D010B
:1019E00082E090E00E94DD1760914F0183E090E07B
:1019F0000E94DD176091510184E090E00E94DD17A4
:101A00006091530186E090E00E94DD178091980676
:101A100090919906039731F46091550181E090E02F
:101A20000E94DD178091980690919906049731F4F1
:101A3000609157018BE090E00E94DD17809198063D
:101A400090919906059739F460915901645F8CE093
:101A500090E00E94DD170E94C71568EE73E00E94B7
:101A60001C30082F0E94D115F82E0E94D915E82E9F
:101A70000E94E115B82E0E94E915C82E0E94F115AA
:101A8000D82E81E08093880488E68093AA0410927F
:101A900089041092AB0460E080EA95E00E94EC13A8
:101AA0001AE08B2D612F0E94FC2F692FE0E18E9FA1
:101AB000600D112480EA95E00E94EC138C2D612FBB
:101AC0000E94FC2F692FF0E18F9F600D112480EAA6
:101AD00095E00E94EC138D2D612F0E94FC2F692F41
:101AE00020E1829F600D112480EA95E00E94EC13B2
:101AF00061E080EA95E00E94EC138E2D612F0E9438
:101B0000FC2F692FE0E18E9F600D112480EA95E0A3
:101B10000E94EC138F2D612F0E94FC2F692FF0E1A2
:101B20008F9F600D112480EA95E00E94EC13802FB6
:101B3000612F0E94FC2F692F20E1829F600D1124EC
:101B400080EA95E00E94EC1360E080EA95E00E9454
:101B5000EC130E94AA1215C00E94C71568EE73E02C
:101B60000E941C30BC01CE0101960E94DA000E9446
:101B7000D915BC01CE0149960E94DA000E94D11508
:101B8000FACCEC960FB6F894DEBF0FBECDBFDF9156
:101B9000CF911F910F91FF90EF90DF90CF90BF906A
:101BA000AF909F908F9008958EBD00000DB407FEFA
:101BB000FDCF8EB508950E9476320F931F93CF9379
:101BC000DF93082FC8E0D0E011E081E0912F90234F
:101BD00009F480E00E942C13110F2197B1F7F894BB
:101BE000E0911306F0911406918180911206809580
:101BF00098239183E0911306F09114069281892332
:101C000082837894DF91CF911F910F9108959091E5
:101C10001206E0911306F0911406F8948181292FA1
:101C200020958223818378948DE743E050E08150B2
:101C300021F1DA011197F1F730813923C1F3F894DA
:101C40008281822382838181892B81837894ABE78F
:101C5000B7E01197F1F7F894818128232183A3E15C
:101C6000B1E01197F1F78081982381E009F080E0DD
:101C70007894E3E6F6E03197F1F70895FC0180816E
:101C80009181009711F00C944D2D60E070E0CB0134
:101C90000895BF92CF92DF92EF92FF920F931F931E
:101CA000CF93DF937C016B018A01E901241735078B
:101CB00020F4812F8901C42FD82F62E273E0C7017D
:101CC0000E94D922D60114968D919C9115970817E0
:101CD0001907D0F48C179D0708F4EC01D601ED919B
:101CE000FC911197EC0FFD1FB08010824D915C911B
:101CF000BA01600F711FC7010E947122D601ED91D8
:101D0000FC91EC0FFD1FB082C701DF91CF911F91B5
:101D10000F91FF90EF90DF90CF90BF900895CF93F9
:101D2000DF93EC016115710561F0FB01019000206A
:101D3000E9F73197AF01461B570B0E94C42181116F
:101D400003C0CE010E942B22CE01DF91CF910895D6
:101D50003F924F925F926F927F928F929F92AF923B
:101D6000BF92CF92DF92EF92FF920F931F93CF9388
:101D7000DF9300D000D0CDB7DEB72091020527FD5C
:101D8000AAC149835A836B837C838C0161E0809173
:101D900001050E949F2330900205832D8D7F48010D
:101DA000A12CB12C09F0B7C060E072E18AE790E0A5
:101DB000A50194010E94523029013A0169017A017A
:101DC00021E0C21AD108E108F1088FEFC816D1044A
:101DD000E104F10409F008F44CC060E472E48FE01F
:101DE00090E0A50194010E94523069017A0191E0CE
:101DF000C91AD108E108F108A2E03A1220C0BFEFE9
:101E0000CB16D104E104F10409F008F462C160E9E1
:101E100070ED83E090E0A50194010E9452306901C9
:101E20007A01E1E0CE1AD108E108F108FFEFCF1600
:101E3000D104E104F10409F0C0F583E065C02FEF9F
:101E4000C216D104E104F104B1F0A8F068E478EE20
:101E500081E090E0A50194010E94523069017A016D
:101E600081E0C81AD108E108F108332009F4D9C08B
:101E700027C181E001C082E0332091F045C0D30149
:101E8000C2012AE0B595A795979587952A95D1F730
:101E90006C017D01E1E0CE1AD108E108F10885E08E
:101EA00095B5987F892B85BD66C068E478EE81E0A2
:101EB00090E0A50194010E94523069017A01B1E0DD
:101EC000CB1AD108E108F108EFEFCE16D104E104F6
:101ED000F10409F008F4A3C064E274EF80E090E03C
:101EE000A50194010E94523069017A0191E0C91A5A
:101EF000D108E108F108AFEFCA16D104E104F104FA
:101F000011F008F0B0C085E09091B100987F892B66
:101F10008093B10030C060E072E18AE790E0A501F3
:101F200094010E94523069017A01F1E0CF1AD10880
:101F3000E108F108C114D10421E0E206F10488F0BF
:101F400068E478EE81E090E0A50194010E945230AF
:101F500069017A0181E0C81AD108E108F10893E02B
:101F600001C091E0A1E03A1206C080918100887F13
:101F7000892B8093810089819A81AB81BC81892BD7
:101F80008A2B8B2B81F0D801AA0FBB1F29813A81A4
:101F90004B815C810E94032F28EE33E040E050E04B
:101FA0000E94303003C02FEF3FEFA90191E03916B6
:101FB000A1F0A2E03A1619F131108DC0C7BC2093F0
:101FC000FD043093FE044093FF045093000580917C
:101FD0006E00826080936E007EC0D0928900C092B5
:101FE00088002093F9043093FA044093FB04509343
:101FF000FC0480916F00826080936F006CC0C0927F
:10200000B3002093F5043093F6044093F704509303
:10201000F804809170008260809370005CC084E05E
:1020200073CF8FEFC816D104E104F104D1F0C8F0EA
:1020300062E17AE780E090E0A50194010E945230CD
:1020400069017A01F1E0CF1AD108E108F1082FEF18
:10205000C216D104E104F10411F008F010CF84E0BD
:102060001FCF83E01DCF62E17AE780E090E0A50119
:1020700094010E94523069017A0191E0C91AD10895
:10208000E108F108AFEFCA16D104E104F104B1F0A0
:10209000A8F0D301C2014AE0B595A7959795879519
:1020A0004A95D1F76C017D01E1E0CE1AD108E10833
:1020B000F108332009F4F3CE87E026CF86E0DCCEAA
:1020C000BFEFCB16D104E104F10409F060F684E01F
:1020D000D3CE82E019CF0F900F900F900F90DF9129
:1020E000CF911F910F91FF90EF90DF90CF90BF9015
:1020F000AF909F908F907F906F905F904F903F90A8
:1021000008958F929F92AF92BF92CF92DF92EF92FB
:10211000FF922091AE053091AF058217930708F02A
:1021200052C04B01AA24BB24E82DC52ED62EE72E83
:10213000FF24FC2D342F2091B305222361F0829ED1
:1021400040011124E92DC29E60011124FD2D429F02
:10215000D00111243B2FF090B905E090B605A09175
:10216000B405B091B505FE1008C0AC01440F551F71
:10217000840F951F8A0F9B1F14C0880F991F880F0B
:10218000991F8A0F9B1F472F552766277727DC014A
:10219000AF0DB11D222321F0429FA0011124452F34
:1021A0004C932091B605DC01A20FB11DEC93209158
:1021B000B705DC01A20FB11DFC932091B805FC010D
:1021C000E20FF11D3083FF90EF90DF90CF90BF9032
:1021D000AF909F908F9008950F931F93CF93DF93AD
:1021E000CDB7DEB729970FB6F894DEBF0FBECDBFCF
:1021F0008091B4059091B505892B09F4A2C00E9485
:10220000DB230091BA051091BB052091BC053091EC
:10221000BD05DC01CB01801B910BA20BB30B8C32F3
:102220009140A105B10558F3F8948091B0059091C3
:10223000B1059A838983E091B405F091B505DF017A
:102240001196808189879091AC05E091BE05F0914F
:10225000BF058091C005992309F42EC09081982B69
:1022600098879081809589238F838F818C8388E0E4
:102270008B8358856F8149853B812C8189819A8127
:10228000508347FD252F3A952083262F39F0441F90
:1022900000C000006083000000C0F2CF38E04D9124
:1022A00060830000019761F7F093BF05E093BE05DE
:1022B00049873B832C8338C09081982B98879081E5
:1022C000809589238F838F818E8388E08D835885C5
:1022D0006F8149853D812E8189819A81508347FD97
:1022E000252F00C000C0208300C000C000C000C077
:1022F00000C060830000262F3A9541F0441F000083
:1023000000C000C000C000C000C0E8CF38E04D9160
:1023100000C0608300C0019709F7F093BF05E09308
:10232000BE0549873D832E839A83898378940E94D2
:10233000DB236093BA057093BB058093BC05909333
:10234000BD0529960FB6F894DEBF0FBECDBFDF9155
:10235000CF911F910F910895009769F0FC010190B2
:102360000020E9F73197AF01481B590BBC0183E00E
:1023700095E00C946E2080E090E008950F931F93F9
:10238000CF93DF938C01C0E0D0E0F801EC0FFD1F8C
:102390006491662371F0E0910305F09104050190CA
:1023A000F081E02D83E095E00995892B11F02196CD
:1023B000ECCFCE01DF91CF911F910F9108958F92B5
:1023C0009F92AF92BF92CF92DF92EF92FF920F93C4
:1023D0001F93CF93DF93CDB7DEB7A1970FB6F894D5
:1023E000DEBF0FBECDBF6C01990FEE08FF08F7FEF0
:1023F00031C0E0910305F09104050190F081E02DDA
:102400006DE283E095E009958C0122273327A9012D
:102410002C193D094E095F0919A2CE0181967C0154
:102420009AE0892E912CA12CB12CCA01B901A501E9
:1024300094010E943030605DF70162937F012115A5
:1024400031054105510589F7CF010E94AC11080FF4
:10245000191F1EC0A701960119A28E010F5D1F4F03
:102460008AE0C82ED12CE12CF12CCA01B901A701B8
:1024700096010E943030605DF80162938F01211552
:1024800031054105510589F7CF010E94AC118C013E
:1024900080E293E00E94AC11800F911FA1960FB6CD
:1024A000F894DEBF0FBECDBFDF91CF911F910F918A
:1024B000FF90EF90DF90CF90BF90AF909F908F9064
:1024C00008959091D2049111FCCF813208F080E2FE
:1024D00091E09093D2049093D1042FEF2093D004F5
:1024E0001092CF04280F2093CE049093CD049091A6
:1024F000CD04906D9093CD049091CC04913061F413
:102500001092CC049091CD049093BB009091BC00AC
:1025100093FDF8CF95EC01C095EE9093BC0090919F
:10252000D2049130E1F39091CF04981710F4809188
:10253000CF04ACEAB4E025ED34E0F9019E2F921B04
:10254000981718F49D919193F9CF1092D404809329
:10255000D30408952091AB049091AA04213208F08D
:102560004AC08091D2048111FCCF32E03093D20472
:1025700031E03093D1043FEF3093D0041092CF0478
:102580002093CE04AAE8B4E04CEA54E0FA013E2FCE
:10259000341B321718F43D913193F9CF1092CD04CA
:1025A0002091CD04990F922B9093CD049091CC045F
:1025B000913061F41092CC049091CD049093BB00C3
:1025C0009091BC0093FDF8CF95EC01C095EE9093EF
:1025D000BC009091D2049230E1F39091D0049F3FDF
:1025E00079F08091D004803241F08091D004803322
:1025F00031F084E005C081E003C082E001C083E0E7
:10260000109289041092AB0410928804089580916E
:102610001206E0911306F0911406F8949181982B1C
:1026200091832281982F909529232283A7E0B0E0FF
:102630001197F1F7218192239183A3E2B0E01197E2
:10264000F1F790817894EFECF0E03197F1F798236F
:1026500081E009F480E0089590911206E09113065C
:10266000F0911406392F309580FF13C0F894228121
:10267000832F822382838181892B8183A3E2B0E02F
:102680001197F1F78281982B9283789487ED90E0EF
:1026900012C0F8942281832F822382838181892B27
:1026A0008183AFEFB0E01197F1F78281982B92838D
:1026B00078948FE090E00197F1F7089585ED80938D
:1026C000BC008091BC0084FDFCCF1092D204089520
:1026D00040916906262F30E0240F311D213231054B
:1026E000DCF42091D2042430C9F4FC0180E090E0B5
:1026F000861758F4309169062191DC01A95BB94F26
:10270000A30FB11D2C930196F3CF80916906680F3A
:102710006093690680E0089581E0089582E008955D
:102720000895E091D4048091D304E81730F4F0E0E8
:10273000EB52FB4F808190E008958FEF9FEF08955B
:102740009091D4048091D304981750F4E92FF0E0CD
:10275000EB52FB4F208130E09F5F9093D40402C086
:102760002FEF3FEFC90108958091D30490E02091AD
:10277000D404821B91090895CF92DF92EF92FF92C9
:102780000F931F93CF93DF937C01262F972F8A01FE
:1027900080918804882391F0C62FD72F6E01C40E34
:1027A000D51ECC15DD0571F06991D701ED91FC9135
:1027B0000190F081E02DC7010995F3CF642F822F9E
:1027C0000E946813C801DF91CF911F910F91FF9074
:1027D000EF90DF90CF900895CF93DF931F92CDB706
:1027E000DEB76983209188042223D1F02091AB04C5
:1027F000203240F021E030E0FC013383228380E08E
:1028000090E015C080918904E82FF0E0E657FB4F77
:10281000998190838F5F809389048093AB0405C076
:1028200061E0CE0101960E94681381E090E00F9074
:10283000DF91CF910895089580E090E00895409150
:1028400045065091460620914306309144064217B2
:10285000530719F080E09CE302C08FEF9FEF4F5FBA
:102860005F4F4330510529F050934606409345068B
:10287000089510924606109245062F5F3F4F233071
:10288000310529F0309344062093430608951092B1
:102890004406109243060895CF92DF92EF92FF9282
:1028A0001F93CF93DF9390912906911103C08FEF6F
:1028B0009FEF72C0909128069923C9F3182FC091F9
:1028C0002706D0E080913B0681110DC00E943A247A
:1028D00060933706709338068093390690933A06D2
:1028E00081E080933B060E943A24C0903706D09046
:1028F0003806E0903906F0903A06DC01CB018C19DD
:102900009D09AE09BF098D329140A105B105D8F0EE
:102910000E943A24609337067093380680933906F4
:1029200090933A068091360691E098279093360668
:10293000992329F0109235061092340604C0D093E2
:102940003506C09334062091340630913506209523
:1029500030954091260650E02423352326FF04C0FD
:1029600081E08093330602C01092330627FF04C033
:1029700081E08093320602C01092320680913606C2
:10298000882309F494CF02C0D595C7951A95E2F72C
:10299000C0FF8DCF80E09CE3DF91CF911F91FF902E
:1029A000EF90DF90CF9008954F925F926F927F9259
:1029B0008F929F92AF92BF92CF92DF92EF92FF924F
:1029C0000F931F93CF93DF934B015C0180918E0691
:1029D00090918F06A0919006B09191068816990665
:1029E000AA06BB0609F4C2C08CE3C82ED12CE12C88
:1029F000F12CC501B401A70196010E94303060930B
:102A0000D806CA01B901A70196010E94303060932F
:102A1000D906CA01B90128E130E040E050E00E9447
:102A2000303069017A016093DA06CA01B9016C5F3E
:102A30007F4F8F4F9F4F27E030E040E050E00E94F3
:102A400030306F5F6093DB06412C512C320140E047
:102A500004E610E0C0E9D1E0242F30E02E54384FD6
:102A6000F901E370FF27309789F4C901B8010E948A
:102A70001C30892B31F4C901BE010E941C30892B06
:102A800029F48EE691E0A0E0B0E004C08DE691E08C
:102A9000A0E0B0E0480E591E6A1E7B1ED301C201A1
:102AA000AA27BB27C816D906EA06FB0610F04F5F17
:102AB000D3CF4093DE06309799F4C90164E670E005
:102AC0000E941C30892B39F4C90160E971E00E9431
:102AD0001C30892B29F48EE691E0A0E0B0E004C020
:102AE0008DE691E0A0E0B0E0481A590A6A0A7B0A34
:102AF000C418D508E608F708C90164E670E00E942A
:102B00001C30EC01C90160E971E00E941C30A4E0B6
:102B1000B3E020E0213039F4309749F4209729F4CC
:102B2000009729F402C04C9103C04DE101C04CE173
:102B300050E060E070E0C416D506E606F70640F007
:102B4000C41AD50AE60AF70A2F5F11962C3011F73E
:102B50002F5F2093DD06C394C092DC0680928E0620
:102B600090928F06A0929006B0929106DF91CF913D
:102B70001F910F91FF90EF90DF90CF90BF90AF909B
:102B80009F908F907F906F905F904F9008950E94DC
:102B9000B8260E94D4148091DE0690E08E54984F9F
:102BA00008950E94B8260E94D4148091DD0690E01A
:102BB00008950E94B8260E94D4148091DC0690E00B
:102BC00008950E94B8260E94D4148091D80690E0FF
:102BD00008950E94B8260E94D4148091D90690E0EE
:102BE00008950E94B8260E94D4148091DA0690E0DD
:102BF0000895CF92DF92EF92FF92CF93DF93EC0193
:102C00000E943A246B017C018F850E94462321E0BB
:102C1000892B09F420E0298B8889811103C081E088
:102C20008227898B29898A89281721F0CD8ADE8A13
:102C3000EF8AF88E8D899E89AF89B88DB701A6017C
:102C4000481B590B6A0B7B0BDB01CA01CB80DC8074
:102C5000ED80FE80C416D506E606F70664F43A81D8
:102C6000231749F02A83222331F04B895C894F5F77
:102C70005F4F5C8B4B8B3A8131110CC0CF80D88475
:102C8000E984FA84C816D906EA06FB06ACF48B89F7
:102C90009C890EC0CB84DC84ED84FE84C816D906E2
:102CA000EA06FB064CF48B899C89919581959109E4
:102CB000998388831C8A1B8A2A8BDF91CF91FF908E
:102CC000EF90DF90CF9008950F931F93CF93DF93F2
:102CD0001F92CDB7DEB78C01862FF8016787408B36
:102CE00091E04927418B428B148A138A118210820A
:102CF0001282158A168A178A108E44E150E060E02D
:102D000070E043835483658376834AEF50E060E04C
:102D100070E0478350876187728748EE53E060E038
:102D200070E0438754876587768760E029830E9437
:102D30009F23F8018089298181110BC0222349F04A
:102D400061E087850F90DF91CF911F910F910C94D7
:102D50006F230F90DF91CF911F910F9108951F92D4
:102D60000F920FB60F9211242F933F934F935F93BF
:102D70006F937F938F939F93AF93BF93EF93FF9343
:102D80008091B900887F803609F49CC068F588324C
:102D900009F45BC090F4803109F454C038F48823FE
:102DA00009F4F6C0883009F44DC0F6C0883109F442
:102DB0004CC0803209F45DC0EFC0803409F468C0B3
:102DC00048F4803309F455C0883309F0E5C0809396
:102DD000D004D8C0803509F44FC0883509F45DC0EF
:102DE000883409F0D9C0D6C0883909F4C7C0A8F41E
:102DF000883709F467C038F4883609F463C080372F
:102E000009F460C0C9C0883809F4B8C0803909F431
:102E10005FC0803809F0C0C05BC0803B09F486C049
:102E200038F4803A09F466C0883A09F47FC0B4C027
:102E3000803C09F4A7C0883C09F4A4C0883B09F48D
:102E40008AC0AAC08091CD0410C09091CF04809117
:102E5000CE04981770F5E091CF0481E08E0F809337
:102E6000CF04F0E0E455FB4F80818093BB0085ECFC
:102E700086C08093D0048EC0E091CF0481E08E0F95
:102E80008093CF048091BB00F0E0E455FB4F80833A
:102E90009091CF048091CE046EC0E091CF0481E088
:102EA0008E0F8093CF048091BB00F0E0E455FB4F80
:102EB00080838091D10481116DC081E08093CC0426
:102EC00084EA61C083E08093D20410928D06CFCF54
:102ED00080918D06803208F051C0E0918D0681E02E
:102EE0008E0F80938D068091BB00F0E0E359F94F7F
:102EF0008083BDCF85EC8093BC001092D20480917A
:102F00008D06803230F4E0918D06F0E0E359F94F00
:102F1000108260918D0670E0E0916B06F0916C0676
:102F20008DE696E0099510928D0636C084E0809378
:102F3000D20410926A0610926906E0916706F09139
:102F40006806099580916906811105C081E080932A
:102F5000690610924706E0916A0681E08E0F809321
:102F60006A06F0E0E95BF94F80818093BB009091A5
:102F70006A0680916906981708F479CF85E88093EE
:102F8000BC000AC085EC8093BC001092D20404C03F
:102F90001092D0040E945E13FF91EF91BF91AF9108
:102FA0009F918F917F916F915F914F913F912F9161
:102FB0000F900FBE0F901F9018950C94F52E0C9447
:102FC000ED2E8F929F92AF92BF92CF92DF92EF92AF
:102FD000FF920F931F93CF93DF9388E090E00E94BE
:102FE000DF17982EA82EB12C89E090E00E94DF1701
:102FF000C82E082F10E08AE090E00E94DF17C82F4B
:10300000D0E0D12CE12CF12CFE2CED2CDC2CCC24AE
:10301000E928C82A812C912CB701A601C4010E947D
:1030200081108FEF881A980A88E088169104A1F71A
:103030000E94EC1085E391E00E94BE1180E293E0D3
:103040000E94AC1180E391E00E94BE11C5010E9474
:10305000DF1189E291E00E94BE11C8010E94DF11D8
:1030600083E291E00E94BE11CE01DF91CF911F91CA
:103070000F91FF90EF90DF90CF90BF90AF909F9017
:103080008F900C94DF11CF93DF93C0E0D0E040E04D
:1030900050E0BA01CE010E9481102196C830D105BE
:1030A000B1F7DF91CF910C94EC102F923F924F9299
:1030B0005F926F927F928F929F92AF92BF92CF92C8
:1030C000DF92EF92FF920F931F93CF93DF93CDB7D1
:1030D000DEB728970FB6F894DEBF0FBECDBF0E94B3
:1030E000DB2360932E0670932F0680933006909317
:1030F000310600912A0610912B0620912C06309162
:103100002D066B017C01C01AD10AE20AF30A40EDD8
:10311000C41647E0D406E104F10408F46FC16093DB
:103120002A0670932B0680932C0690932D068CE034
:1031300096E00E943E0E6B017C0160E08AE00E94F6
:103140006F238AE0882E912CA12CB12CC701B601E7
:10315000A50194010E945230660F771FFB01E953CD
:10316000FD4FC080D180DA82C98285E090E02B8358
:103170003C834D835E830E944C1498878F830E940A
:103180001F147C012B813C814D815E81CA01B901F4
:10319000A50194010E945230660F771FFB01E9538D
:1031A000FD4F6080718084E090E02B833C834D83F1
:1031B0005E830E944C148C010E941F146C012B81B1
:1031C0003C814D815E81CA01B901A50194010E9433
:1031D000523019012A01660F771FFB01E953FD4F99
:1031E0008080918083E090E00E944C145C010E94FA
:1031F0001F140C211D210621172120E030E0AAE038
:10320000000F111F221F331FAA95D1F78A219B217E
:10321000AC014821592160E070E048015901842A3D
:10322000952AA62AB72ACF80D884EC20FD20C98011
:10323000DA80EC20FD20A70160E070E0B4E1440FEB
:10324000551F661F771FBA95D1F7842A952AA62A9B
:10325000B72A80913306882319F06894B6F802C023
:10326000E894B6F880913206882319F06894B7F88C
:1032700002C0E894B7F88B2D0E94D40D8A2D0E94CD
:10328000D40D892D0E94D40D882D0E94D40D8AE082
:10329000C82ED12CE12CF12CC201B101A70196015D
:1032A0000E945230660F771FFB01E953FD4F4080AB
:1032B000518082E090E02B833C834D835E830E94AB
:1032C0004C145C010E941F148C012B813C814D81A8
:1032D0005E81CA01B901A70196010E945230660FB2
:1032E000771FFB01E953FD4F6080718081E090E022
:1032F0002B833C834D835E830E944C144C010E94BF
:103300001F1415012022312224203520412C512C5C
:10331000F4E1220C331C441C551CFA95D1F788218A
:10332000992186219721A0E0B0E01AE0880F991F2B
:10333000AA1FBB1F1A95D1F752014101882A992A69
:10334000AA2ABB2A2B813C814D815E81CA01B90129
:10335000A70196010E945230660F771FFB01E953C7
:10336000FD4FE080F18080E090E00E944C148C01E1
:103370000E941F14802391238E219F21A0E0B0E0A2
:10338000882A992AAA2ABB2A80913306882319F011
:103390006894B6F802C0E894B6F8809132068823A3
:1033A00019F06894B7F802C0E894B7F88B2D0E9422
:1033B000D40D8A2D0E94D40D892D0E94D40D882D04
:1033C0000E94D40D61E08AE028960FB6F894DEBF23
:1033D0000FBECDBFDF91CF911F910F91FF90EF9066
:1033E000DF90CF90BF90AF909F908F907F906F9025
:1033F0005F904F903F902F900C946F2328960FB6BC
:10340000F894DEBF0FBECDBFDF91CF911F910F911A
:10341000FF90EF90DF90CF90BF90AF909F908F90F4
:103420007F906F905F904F903F902F9008950F93F3
:103430001F93CF93DF93CDB7DEB768970FB6F8949D
:10344000DEBF0FBECDBF8B01833091F420911006FB
:103450003091110642E050E06CE076E0CE010D962E
:103460000E94490EB801CE0101960E94DA0055C0B3
:103470008C3009F042C0209110063091110644E0D2
:1034800050E06CE076E0CE0143960E94490EB80110
:10349000CE010D960E94DA0022E030E040E050E0DC
:1034A0006CE076E0CE0101960E94490EBE016F5F8E
:1034B0007F4FCE0107960E94D022BE01635F7F4FEF
:1034C000CE0107960E943D22BE016D5E7F4F0E9495
:1034D0003D22BC018CE096E00E948822CE01079636
:1034E0000E949F22CE0101960E949F22CE010D963E
:1034F0000E949F22CE0143962DC0803369F5CE01F4
:103500000D960E94DA0024E030E040E050E06CE0EC
:1035100076E0CE0101960E94490EBE016F5F7F4F9B
:10352000CE0107960E94D022BE01635F7F4FCE017D
:1035300007960E943D22BC018CE096E00E94882202
:10354000CE0107960E949F22CE0101960E949F22E3
:10355000CE010D960E949F2268960FB6F894DEBFAA
:103560000FBECDBFDF91CF911F910F910895DF92D4
:10357000EF92FF920F931F93CF93DF93C091D606E4
:10358000D091D706C830D10508F068C0082FFE01D9
:10359000E15BFF4F0C94713084E406C00E94070E7B
:1035A0005DC08CEC01C08EEB0E94DD0D57C028E0A1
:1035B000E22EF12C01E010E00E9407138111102B84
:1035C000000F81E0E81AF108B9F71093D40646C05D
:1035D00098E0E92EF12CDD24D39410E00E9407132B
:1035E00081111D29DD0C81E0E81AF108B9F710936B
:1035F000D506612F70E0762F66278091D406682B60
:103600006F3F8FEF780711F460E070E0072E000C39
:10361000880B990B0E94D02D20E030E040E85DE35C
:103620000E942F2E002361F026E636E646EE5FE389
:103630000E942F2E20E030E040E052E40E94552FFF
:1036400020E030E040E251E40E942F2E6093D0064B
:103650007093D1068093D2069093D3062196C830FA
:10366000D10529F0D093D706C093D60604C0109296
:10367000D7061092D6066091D0067091D10680913F
:10368000D2069091D306DF91CF911F910F91FF90B9
:10369000EF90DF9008958F929F92AF92BF92CF925A
:1036A000DF92EF92FF920F931F93CF93DF93CDB7EB
:1036B000DEB72C970FB6F894DEBF0FBECDBF8C01DE
:1036C0006A017B018091C806811113C00E943A24CF
:1036D000DC01CB01845B9B4FAF4FBF4F8093C4068F
:1036E0009093C506A093C606B093C70681E0809369
:1036F000C8068091BC06811109C069E373E086EBBE
:1037000096E00E94D92281E08093BC060E943A2470
:103710008090C4069090C506A090C606B090C706DB
:10372000DC01CB0188199909AA09BB09893E93409C
:10373000A105B10508F477C10E943A246093C4063C
:103740007093C5068093C6069093C70620E030E0CC
:10375000A901C701B6010E94F72F20E030E040E048
:103760005FE387FD05C0C701B6010E94552F04C065
:10377000C701B6010E94542F0E94C12F80915701AA
:10378000909158019B0129513C4F490124583340E5
:1037900059012A55310969017B01892B09F095C02E
:1037A00077FF03C0F194E194F1084AE0B701CE013C
:1037B00007960E94A4226EE373E0CE0101960E9458
:1037C000D922BE01695F7F4FCE0101960E943D2242
:1037D0006EE373E00E948F0EBC0186EB96E00E94C0
:1037E0008822CE0101960E949F22CE0107960E9458
:1037F0009F223FEC831637E0930620F54AE0B7019D
:10380000CE0107960E94A4226DE373E0CE010196DB
:103810000E94D922BE01695F7F4FCE0101960E94AE
:103820003D226EE373E00E948F0EBC0186EB96E0B2
:103830000E948822CE0101960E949F22CE01079607
:103840000E949F2287ECA816B10420F54AE0B70138
:10385000CE0107960E94A4226CE373E0CE0101968C
:103860000E94D922BE01695F7F4FCE0101960E945E
:103870003D226EE373E00E948F0EBC0186EB96E062
:103880000E948822CE0101960E949F22CE010796B7
:103890000E949F2223E1C216D10408F0C4C04AE06E
:1038A000B701CE0107960E94A4226BE373E0CE011C
:1038B00001960E94D922BE01695F7F4FCE01019619
:1038C0000E943D226EE373E09FC077FF03C0F19436
:1038D000E194F1084AE0B701CE0107960E94A422C4
:1038E0006EE373E0CE0101960E94D922BE01695FAA
:1038F0007F4FCE0101960E943D226EE373E00E944D
:103900008F0EBC0186EB96E00E948822CE010196C4
:103910000E949F22CE0107960E949F223FEC8316B1
:1039200037E0930640F5C7016AE070E00E941C3062
:103930004AE0CE0107960E94A4226DE373E0CE0117
:1039400001960E94D922BE01695F7F4FCE01019688
:103950000E943D226DE373E00E948F0EBC0186EB56
:1039600096E00E948822CE0101960E949F22CE01FD
:1039700007960E949F2287ECA816B10440F5C70164
:103980006AE070E00E941C304AE0CE0107960E9477
:10399000A4226CE373E0CE0101960E94D922BE01FD
:1039A000695F7F4FCE0101960E943D226DE373E077
:1039B0000E948F0EBC0186EB96E00E948822CE0109
:1039C00001960E949F22CE0107960E949F2223E12A
:1039D000C216D10440F5C7016AE070E00E941C30B5
:1039E0004AE0CE0107960E94A4226BE373E0CE0169
:1039F00001960E94D922BE01695F7F4FCE010196D8
:103A00000E943D226DE373E00E948F0EBC0186EBA5
:103A100096E00E948822CE0101960E949F22CE014C
:103A200007960E949F2266EB76E0C8010E94D02292
:103A3000C8012C960FB6F894DEBF0FBECDBFDF9144
:103A4000CF911F910F91FF90EF90DF90CF90BF909B
:103A5000AF909F908F9008954F925F926F927F9258
:103A60008F929F92AF92BF92CF92DF92EF92FF928E
:103A70000F931F93CF93DF9300D000D000D0CDB72A
:103A8000DEB77C014B015A018091A106882341F0E9
:103A90008091A90600EB16E0AAEAB6E0F8014CC056
:103AA00081E08093A1061092A00610929F0680EB01
:103AB000682E86E0782E9AEA492E96E0592E00E08C
:103AC00010E00F5F1F4F680181E0C81AD10898010C
:103AD000A601B401CE0101960E94490ECE010196C5
:103AE0000E943E0EF30161933F01CE0101960E94B8
:103AF0009F229801A601B501CE0101960E94490EB0
:103B0000CE0101960E943E0EF20161932F01CE017B
:103B100001960E949F220630110599F6B9CF2C918B
:103B200092130DC090819A3009F41082319611964B
:103B300096E0E63BF90731F090818A3080F79F5F8D
:103B40009083F0CF8F5F843119F08093A90604C071
:103B50001092A9061092A10662E273E0C7010E94CA
:103B6000D922FE0131966F01F80181918F014AE05F
:103B7000B60190E00E947F2DF60101900020E9F748
:103B80003197AF014C195D09B601C7010E94C421EC
:103B9000F6E0063B1F0741F7C70126960FB6F894DB
:103BA000DEBF0FBECDBFDF91CF911F910F91FF9070
:103BB000EF90DF90CF90BF90AF909F908F907F90CD
:103BC0006F905F904F9008950F931F9380915301D2
:103BD00090915401892B09F451C08091A806882343
:103BE000A9F00E943A240091A4061091A506209104
:103BF000A6063091A706DC01CB01801B910BA20B1E
:103C0000B30B893E9340A105B105A8F58091A806A4
:103C1000811134C00E94F11520914D0130914E0167
:103C20008217930759F50E94E91520914F013091B1
:103C300050018217930711F50E94E115209151015F
:103C40003091520182179307C9F40E943A2460937D
:103C5000A4067093A5068093A6069093A70681E01C
:103C60008093A806809130019091310190936F0468
:103C700080936E0403C01092A806C8CF1F910F91C5
:103C800008950E943A2460939B0670939C0680934B
:103C90009D0690939E0680919A06882309F450C051
:103CA0002091980630919906C901880F991F2131FA
:103CB000310551F0FC01ED5CFE4F408151814150D6
:103CC0005109518340830AC04091550150915601DA
:103CD0004C5051095093560140935501DC01AD5CA5
:103CE000BE4F6D917C911197FC01E558FD4F4081CD
:103CF0005181641775073CF4FC01E452FD4F40818B
:103D000051814D935C932031310571F42091530121
:103D1000309154012130310521F420E8209326060A
:103D200006C01092260603C02930310549F0FC0177
:103D3000ED5CFE4F60817181809127060C94171A0B
:103D400008950E943A2460939B0670939C0680938A
:103D50009D0690939E0680919A06882309F445C09B
:103D60002091980630919906C901880F991F213139
:103D7000310551F0FC01ED5CFE4F408151814F5FF8
:103D80005F4F518340830AC04091550150915601C5
:103D9000445F5F4F5093560140935501DC01AD5C89
:103DA000BE4F6D917C911197FC01E452FD4F408113
:103DB0005181461757073CF4FC01E558FD4F4081FF
:103DC00051814D935C932031310519F410922606F0
:103DD00003C02930310549F0FC01ED5CFE4F6081E4
:103DE0007181809127060C94171A0895CF93DF9361
:103DF000EC01019628812A33D9F78981843639F577
:103E0000109297061092960623964AE0FE0188814A
:103E1000219690ED980F20919606309197069A3052
:103E200080F4429FB001439F700D1124082E000CB6
:103E3000990BC097860F971F9093970680939606CD
:103E4000E5CF1216130614F420935E01EF012196BC
:103E500088818F3689F48A81082E000C990B9C0189
:103E6000205331093093970620939606C397059700
:103E700010F420935D0124968881823629F51092F2
:103E8000970610929606FE0132964AE0819190EDD7
:103E9000980F20919606309197069A3080F4429FB1
:103EA000B001439F700D1124082E000C990BC09790
:103EB000860F971F9093970680939606E7CF3093CF
:103EC0005C0120935B01EF0120915B0130915C016B
:103ED000032E000C440B550B60E67AEE80E090E078
:103EE0000E945230DA01C90122E0880F991FAA1FEF
:103EF000BB1F2A95D1F78093920690939306A093C7
:103F00009406B0939506CE01DF91CF910895CF929C
:103F1000DF92EF92FF921F93CF93DF93CDB7DEB77F
:103F20002C970FB6F894DEBF0FBECDBF182F65E4F7
:103F300073E0CE0101960E94D922133029F422E0C9
:103F400030E040E050E00FC01C3029F424E030E0C5
:103F500042E050E008C01033B9F4209110063091CF
:103F6000110644E050E06CE076E0CE0107960E9436
:103F7000490EBE01695F7F4FCE0101960E94F2217A
:103F8000CE0107960E949F22CE0101960E943E0E0E
:103F90006B017C01CE0101960E949F22C6012C96E6
:103FA0000FB6F894DEBF0FBECDBFDF91CF911F914A
:103FB000FF90EF90DF90CF90089581E08093880488
:103FC00088E68093AA04109289041092AB0460E002
:103FD00080EA95E00E94EC130E94AA1287E090E02C
:103FE0000E94611280EA95E00E94A013982F92959A
:103FF0009F708F702AE0929F800D112490E0909323
:104000007C0480937B0480EA95E00E94A013982FA3
:1040100092959F708F702AE0929F800D112490E0FE
:10402000909373048093720480EA95E00E94A01339
:10403000982F9695969596959670292F220F220F78
:10404000920F8F70890F90E09093710480937004A9
:1040500080EA95E00E94A013982F92959F708F7030
:104060002AE0929F800D112490E09093A306809304
:10407000A20680EA95E00E94A013982F92959F7067
:104080008F702AE0929F800D112490E09093750428
:104090008093740480EA95E00E94A013982F929573
:1040A0009F708F702AE0929F800D112490E0909372
:1040B00077048093760480EA95E00E94A013982FFD
:1040C00092959F708F702AE0929F800D112490E04E
:1040D000909379048093780408950895CF92DF92A5
:1040E000EF92FF920F931F93CF93DF936C017A01AE
:1040F0008B01C0E0D0E0CE15DF0589F0D8016D91CD
:104100008D01D601ED91FC910190F081E02DC60169
:104110000995892B11F47E0102C02196ECCFC701CD
:10412000DF91CF911F910F91FF90EF90DF90CF9093
:104130000895FC01538D448D252F30E0842F90E0AD
:10414000821B930B541710F0CF9608950197089592
:10415000FC01918D828D981761F0828DDF01A80F8F
:10416000B11D5D968C91928D9F5F9F73928F90E0B1
:1041700008958FEF9FEF0895FC01918D828D981720
:1041800031F0828DE80FF11D858D90E008958FEF5D
:104190009FEF0895FC01918D228D892F90E0805C26
:1041A0009F4F821B91098F739927089583E095E0B3
:1041B0000E94CA2021E0892B09F420E0822F089573
:1041C000FC01848DDF01A80FB11DA35ABF4F2C91B4
:1041D000848D90E001968F739927848FA689B78983
:1041E0002C93A089B1898C9180648C93938D848D5C
:1041F000981306C00288F389E02D80818F7D80832B
:104200000895EF92FF920F931F93CF93DF93EC01EA
:1042100081E0888F9B8D8C8D981305C0E889F98982
:10422000808185FD24C0F62E0B8D10E00F5F1F4F9F
:104230000F731127E02E8C8DE8120CC00FB607FC0F
:10424000FACFE889F989808185FFF5CFCE010E94F8
:10425000E020F1CF8B8DFE01E80FF11DE35AFF4FF7
:10426000F0820B8FEA89FB898081806207C0EE892A
:10427000FF896083E889F98980818064808381E097
:1042800090E0DF91CF911F910F91FF90EF900895F3
:10429000CF93DF93EC01888D8823C9F0EA89FB89ED
:1042A000808185FD05C0A889B9898C9186FD0FC0E4
:1042B0000FB607FCF5CF808185FFF2CFA889B989B9
:1042C0008C9185FFEDCFCE010E94E020E7CFDF91FA
:1042D000CF91089580E090E0892B29F00E94D620AC
:1042E00081110C9400000895833081F028F481300E
:1042F00099F08230A1F008958730A9F08830B9F0A4
:104300008430D1F4809180008F7D03C08091800043
:104310008F7780938000089584B58F7702C084B52D
:104320008F7D84BD08958091B0008F7703C0809108
:10433000B0008F7D8093B00008950F931F93CF93AB
:10434000DF93EC0188819981009729F02A813B81D4
:104350002617370788F48B016F5F7F4F0E94AC31BF
:10436000009761F0998388831B830A832C813D81A8
:10437000232B11F4FC01108281E001C080E0DF9169
:10438000CF911F910F910895EF92FF920F931F937A
:10439000CF93DF93FC01248135816115710511F400
:1043A00080E019C041155105A9F07B01EC018A019B
:1043B000020F131FB8010E949D21882389F32881D1
:1043C00039818C819D81B701820F931F0E948432B5
:1043D0001D830C8381E0DF91CF911F910F91FF909E
:1043E000EF9008950F931F93CF93DF938C01EB0110
:1043F000FC01808191810097B1F06881798161151C
:10440000710579F0428153812C813D814217530718
:1044100040F00E9484328C819D81F80195838483D1
:1044200013C00E94143188819981F801918380839F
:104430008A819B81938382838C819D8195838483F0
:10444000198218821B821A821D821C82DF91CF91F1
:104450001F910F910895CF93DF93EC01888199818B
:10446000009711F00E941431198218821D821C825B
:104470001B821A82DF91CF910895CF93DF93EC01D5
:10448000FB0144815581608171810E94C4218111A9
:1044900003C0CE010E942B22CE01DF91CF9108955F
:1044A000EF92FF920F931F93CF93DF93EC017B0169
:1044B0008A01BA010E949D21811104C0CE010E948F
:1044C0002B2207C01D830C83B701888199810E942C
:1044D0008432CE01DF91CF911F910F91FF90EF9029
:1044E0000895CF93DF93EC016115710559F0FB013D
:1044F00001900020E9F73197AF01461B570B0E944E
:10450000502202C00E942B22CE01DF91CF9108954C
:10451000CF93DF93EC01FB018617970761F0608171
:1045200071816115710529F0448155810E945022E5
:1045300002C00E942B22CE01DF91CF910895FC0191
:10454000808191810C9414310F931F93CF93DF934B
:10455000CDB7DEB762970FB6F894DEBF0FBECDBF02
:104560008C01CB01F8011182108213821282158214
:10457000148250E0BE016F5F7F4F0E94742DBE0118
:104580006F5F7F4FC8010E94712262960FB6F89448
:10459000DEBF0FBECDBFDF91CF911F910F91089568
:1045A000FC011182108213821282158214820C94F3
:1045B0008822FC01118210821382128215821482D9
:1045C0006115710551F0FB0101900020E9F7319769
:1045D000AF01461B570B0C94502208951F920F9267
:1045E0000FB60F9211242F933F934F935F936F93C6
:1045F0007F938F939F93AF93BF93EF93FF9383E04A
:1046000095E00E94E020FF91EF91BF91AF919F91C3
:104610008F917F916F915F914F913F912F910F906B
:104620000FBE0F901F9018951F920F920FB60F920A
:1046300011242F938F939F93EF93FF93E091130592
:10464000F09114058081E0911905F0911A0582FD21
:1046500012C0908180911C058F5F8F7320911D0582
:10466000821751F0E0911C05F0E0ED5FFA4F958F55
:1046700080931C0501C08081FF91EF919F918F91E4
:104680002F910F900FBE0F901F901895CF93DF932F
:10469000282F30E0F901E85BFE4F8491F901E15FDA
:1046A000FE4FD491F901E550FF4FC491CC2391F016
:1046B00081110E947421EC2FF0E0EE0FFF1FEF50EC
:1046C000FF4FA591B491EC91ED2381E090E021F4AE
:1046D00080E002C080E090E0DF91CF9108951F93C9
:1046E000CF93DF93282F30E0F901E85BFE4F8491F0
:1046F000F901E15FFE4FD491F901E550FF4FC491FC
:10470000CC23C9F0162F81110E947421EC2FF0E008
:10471000EE0FFF1FE951FF4FA591B4918FB7F894A9
:10472000111105C09C91ED2FE095E92302C0EC9199
:10473000ED2BEC938FBFDF91CF911F910895CF9315
:10474000DF9390E0FC01E15FFE4F2491FC01E55016
:10475000FF4F8491882361F190E0880F991FFC013D
:10476000EF54FF4FC591D491FC01E951FF4FA59142
:10477000B491611109C09FB7F89488812095822374
:104780008883EC912E230BC0623061F49FB7F894BC
:104790003881822F809583238883EC912E2B2C9354
:1047A0009FBF06C08FB7F894E8812E2B28838FBF58
:1047B000DF91CF9108953FB7F8948091F4069091DE
:1047C000F506A091F606B091F70626B5A89B05C0A0
:1047D0002F3F19F00196A11DB11D3FBFBA2FA92F80
:1047E000982F8827820F911DA11DB11DBC01CD01FD
:1047F00042E0660F771F881F991F4A95D1F70895E9
:104800008F929F92AF92BF92CF92DF92EF92FF92E0
:104810006B017C010E94DB234B015C01C114D104BC
:10482000E104F104F1F00E94DB23DC01CB018819E3
:104830009909AA09BB09883E9340A105B10570F307
:1048400021E0C21AD108E108F10888EE880E83E061
:10485000981EA11CB11CC114D104E104F10419F784
:10486000DDCFFF90EF90DF90CF90BF90AF909F9003
:104870008F9008952FB7F8946091F0067091F1062B
:104880008091F2069091F3062FBF08956093EB0696
:104890007093EC068093ED069093EE06DC01CB015D
:1048A000845D9E4FAF4FBF4F8093E7069093E8061D
:1048B000A093E906B093EA0682E090E09093E606C2
:1048C0008093E5060E943A246093E1067093E20625
:1048D0008093E3069093E40608951F920F920FB61B
:1048E0000F9211242F933F938F939F93AF93BF9376
:1048F0008091F0069091F106A091F206B091F30636
:104900003091EF0623E0230F2D3720F40196A11DEF
:10491000B11D05C026E8230F0296A11DB11D2093ED
:10492000EF068093F0069093F106A093F206B09301
:10493000F3068091F4069091F506A091F606B091E9
:10494000F7060196A11DB11D8093F4069093F5061C
:10495000A093F606B093F706BF91AF919F918F9108
:104960003F912F910F900FBE0F901F9018951F929F
:104970000F920FB60F9211242F933F934F935F9393
:104980006F937F938F939F93EF93FF934091F504E1
:104990005091F6046091F7047091F80441155105A7
:1049A0006105710599F080916404E0916504F091CE
:1049B000660490818927808314161506160617064B
:1049C000D4F4415051096109710915C080917000FA
:1049D0008D7F8093700090916404E0916504F09164
:1049E00066048081282F30E0892F90E08095909593
:1049F0008223932380834093F5045093F6046093BD
:104A0000F7047093F804FF91EF919F918F917F913C
:104A10006F915F914F913F912F910F900FBE0F902B
:104A20001F9018951F920F920FB60F9211242F937B
:104A30003F938F939F93AF93BF93EF93FF93809197
:104A4000F9049091FA04A091FB04B091FC04892B25
:104A50008A2B8B2B51F180916704E0916804F091CF
:104A600069049081892780838091F9049091FA04E8
:104A7000A091FB04B091FC04181619061A061B0637
:104A80004CF58091F9049091FA04A091FB04B09147
:104A9000FC040197A109B1098093F9049093FA04E9
:104AA000A093FB04B093FC0415C080916F008D7F30
:104AB00080936F0090916704E0916804F09169041D
:104AC0008081282F30E0892F90E080959095822377
:104AD00093238083FF91EF91BF91AF919F918F912D
:104AE0003F912F910F900FBE0F901F9018951F921E
:104AF0000F920FB60F9211242F933F938F939F9392
:104B0000AF93BF93EF93FF938091FD049091FE04C8
:104B1000A091FF04B0910005892B8A2B8B2B51F1BA
:104B200080916A04E0916B04F0916C049081892774
:104B300080838091FD049091FE04A091FF04B091C8
:104B40000005181619061A061B064CF58091FD047F
:104B50009091FE04A091FF04B09100050197A10976
:104B6000B1098093FD049093FE04A093FF04B093D9
:104B7000000515C080916E008D7F80936E0090912E
:104B80006A04E0916B04F0916C048081282F30E07E
:104B9000892F90E080959095822393238083FF91C5
:104BA000EF91BF91AF919F918F913F912F910F9076
:104BB0000FBE0F901F9018953F924F925F926F9289
:104BC0007F928F929F92AF92BF92CF92DF92EF929D
:104BD000FF920F931F93CF93DF93382E962E842E40
:104BE000F90184E6E816F1042CF082EBE81A87E07C
:104BF000F80A03C08EE1E80EF11CE092DE06009395
:104C0000DD06E093DC063092DA069092D9068092B7
:104C1000D806AE2DB0E020E833E341EE51E00E942B
:104C2000032F2B013C0122EB37E0FF2484E6C82E42
:104C3000D12CC0E9D1E0C901825B97408E159F0558
:104C4000DCF4C90183709927892B99F4C901B60155
:104C50000E941C30892B31F4C901BE010E941C3016
:104C6000892B39F480E8480E81E5581E81E0681EE2
:104C7000711C2F5F3F4FDFCF8EE4E81A88EFF80AF0
:104C8000C70164E670E00E941C306C01C70160E956
:104C900071E00E941C305C01C1E0D0E0112783E08C
:104CA000E822FF24C017D1072CF5C230D10589F4C2
:104CB000E114F10471F4C114D10419F4A114B10484
:104CC00041F480E8480E8BE3581E86E2681E711C92
:104CD0000FC0DE01AD5FBC4FAC91B0E020E831E524
:104CE00041E050E00E94032F460E571E681E791EB9
:104CF0002196D8CF292D30E0ACE3B0E00E94452FBB
:104D00006B017C01C80CD11CE11CF11C232D30E08F
:104D1000A0E1BEE00E94452FC60ED71EE81EF91E78
:104D2000DF01BB27119720E831E541E050E00E9408
:104D30007730DC01CB018C0D9D1DAE1DBF1DBC016C
:104D4000CD01640D751D861D971DDF91CF911F91BB
:104D50000F91FF90EF90DF90CF90BF90AF909F901A
:104D60008F907F906F905F904F903F900C9446246F
:104D7000CF92DF92EF92FF920F931F930E943A24FB
:104D8000C090E106D090E206E090E306F090E406E1
:104D90008B019C010C191D092E093F098091EB061E
:104DA0009091EC06A091ED06B091EE06083E1340FE
:104DB00021053105D0F00196A11DB11D8093EB06B0
:104DC0009093EC06A093ED06B093EE06B701A60112
:104DD00048515C4F6F4F7F4F4093E1065093E2067E
:104DE0006093E3067093E406C9CF4091E7065091C3
:104DF000E8066091E9067091EA0684179507A60710
:104E0000B70788F1E091DF06F091E006309759F19D
:104E10000995611571058105910519F00E944624D7
:104E200022C08091EB069091EC06A091ED06B09126
:104E3000EE06845D9E4FAF4FBF4F8093E706909381
:104E4000E806A093E906B093EA0681E090E020919D
:104E5000E5063091E606232B11F480E090E0909374
:104E6000E6068093E5066091EB067091EC06809172
:104E7000ED069091EE061F910F91FF90EF90DF905D
:104E8000CF900895CF93DF93CDB7DEB7CF54D1093C
:104E90000FB6F894DEBF0FBECDBF789484B58260A4
:104EA00084BD84B5816084BD85B5826085BD85B5CE
:104EB000816085BD80916E00816080936E0010924C
:104EC00081008091810082608093810080918100C7
:104ED0008160809381008091800081608093800058
:104EE0008091B10084608093B1008091B0008160B6
:104EF0008093B00080917A00846080937A008091E2
:104F00007A00826080937A0080917A008160809339
:104F10007A0080917A00806880937A001092C100B4
:104F20001092D4041092D304109289041092AB040E
:104F30001092D20481E08093D1041092CC0461E0FD
:104F400082E10E946F2361E083E10E946F238091E0
:104F5000B9008E7F8093B9008091B9008D7F8093D6
:104F6000B90088E48093B80085E48093BC00E091A8
:104F70001305F091140582E08083E0910F05F09114
:104F800010051082E0911105F091120580E18083F7
:104F900010921B05E0911705F091180586E08083BB
:104FA000E0911505F0911605808180618083E09184
:104FB0001505F0911605808188608083E0911505C4
:104FC000F0911605808180688083E0911505F0914D
:104FD000160580818F7D808381E090E00E94DF173D
:104FE0008C3019F088E190E002C08CE090E0909362
:104FF00056018093550180E090E00E94DF178823DE
:1050000021F081E08093320102C01092320182E0EF
:1050100090E00E94DF178F3F29F410924E0110920A
:105020004D0105C090E090934E0180934D0183E0C7
:1050300090E00E94DF178F3F29F4109250011092E8
:105040004F0105C090E09093500180934F0184E0A0
:1050500090E00E94DF178F3F29F4109252011092C6
:10506000510105C090E0909352018093510186E078
:1050700090E00E94DF178F3F29F4109254011092A4
:10508000530105C090E0909354018093530187E051
:1050900090E00E94DF178F3F19F410927D0406C044
:1050A00091E0811101C090E090937D048BE090E04D
:1050B0000E94DF178F3F29F4109258011092570178
:1050C00005C090E090935801809357018CE090E0E8
:1050D0000E94DF178F3F31F090E00C9790935A01B8
:1050E000809359018DE090E00E94DF178F3F29F0F7
:1050F00090E0909346018093450161E089E00E9431
:105100009F2361E086E00E949F2361E083E00E948C
:105110009F2380917E04833008F083C092E09093B7
:105120000105E82FF0E0E255FF4FE491E09302051E
:105130008F5F80937E04E13031F1E23009F44AC0A0
:10514000E11172C014BC15BC84B5826084BD85B504
:10515000816085BD8091010590E0FC01E550FF4F25
:10516000E491F0E0EE0FFF1FE951FF4F25913491DC
:1051700030936C0420936B04FC01E15FFE4FE491DB
:10518000E0936A0451C010928000109281008091D7
:10519000810088608093810080918100816080938C
:1051A00081008091010590E0FC01E550FF4FE49102
:1051B000F0E0EE0FFF1FE951FF4F2591349130933E
:1051C000690420936804FC01E15FFE4FE491E093E1
:1051D00067042AC01092B0001092B1008091B00014
:1051E00082608093B0008091B10081608093B100B3
:1051F0008091010590E0FC01E550FF4FE491F0E063
:10520000EE0FFF1FE951FF4F259134913093660453
:1052100020936504FC01E15FFE4FE491E093640498
:1052200003C08FEF8093020580913001909131018E
:105230000E94F61E909331018093300161E08AE074
:105240000E949F231FB7F89480917F04811127C08B
:10525000E5E0F1E08491E9E1F1E09491E82FF0E0FC
:10526000EE0FFF1FEF54FF4FA591B491EC91E9238E
:1052700021F461E08AE00E946F2361E08AE00E94ED
:105280009F238CB580618CBD8CB580648CBD61E042
:105290008DE00E949F2361E08BE00E949F2380911C
:1052A0007F048F5F80937F041FBF8CB5837F8860EE
:1052B0008CBD8CB58C7F81608CBD8DB581608DBDC2
:1052C0008091B20587FD08C061E00E949F2360E0E5
:1052D0008091B2050E946F2381E08093AD056091BB
:1052E000B305633321F12091B4053091B5056150C8
:1052F00031F070E08FEF92E30E94083002C060E06E
:1053000070E0F9014091B0055091B105CF01821BC9
:10531000930B8417950740F44081469FC001479F37
:10532000900D11249193EECF83E38093B30562E057
:105330008EE00E949F2362E080E10E949F2362E052
:105340008FE00E949F2361E082E00E949F2304E19E
:1053500010E020E030E00093F6051093F70520936D
:10536000F8053093F9054EE150E060E070E04093BD
:10537000FA055093FB056093FC057093FD0580EDE5
:1053800097E0A0E0B0E08093FE059093FF05A09326
:105390000006B09301060093DD051093DE0520930F
:1053A000DF053093E0054093E1055093E2056093FB
:1053B000E3057093E4058093E5059093E605A093DB
:1053C000E705B093E8050093C4051093C505209345
:1053D000C6053093C7054093C8055093C90560932F
:1053E000CA057093CB058093CC059093CD05A0930F
:1053F000CE05B093CF0584ED90E00E94BE1125E06C
:1054000030E042E050E060E276E0CE0101967C01BF
:105410000E94490E22E030E041E050E060E276E098
:10542000CE01875B9F4F0E94490EBE01675B7F4F95
:10543000CE018D5B9F4F0E94D0226EE173E0CE01C2
:105440008D5B9F4F0E948F0EB7010E943D22FC0191
:10545000448155816081718183E095E00E946E20D6
:1054600080E293E00E94AC11CE018D5B9F4F0E94C1
:105470009F22CE01875B9F4F0E949F22C7010E94FF
:105480009F2283E293E00E94AC1180E293E00E94AD
:10549000AC11809130019091310190936F04809311
:1054A0006E040E94F61E00E010E040E050E06FEF56
:1054B00070E0C8010E9481100F5F1F4F0830110576
:1054C000A1F70E94EC1068EE73E080E090E00E948B
:1054D000002400E010E040E05FEF60E070E0C80111
:1054E0000E9481100F5F1F4F08301105A1F70E9425
:1054F000EC1068EE73E080E090E00E94002400E091
:1055000010E04FEF50E060E070E0C8010E948110B1
:105510000F5F1F4F08301105A1F70E94EC1068EED5
:1055200073E080E090E00E9400240E94431869E349
:1055300073E0C7010E94D92260E473E0CE010796B0
:105540000E94D92267E473E0CE010D960E94D92211
:105550006EE473E0CE0143960E94D92265E573E0C4
:10556000CE0149960E94D9226CE573E0CE014F9698
:105570000E94D92263E673E0CE0185960E94D9226B
:105580006AE673E0CE018B960E94D92261E773E050
:10559000CE01C1960E94D92268E773E0CE01C7967A
:1055A0000E94D92262E273E0CE01CD960E94D922F8
:1055B00060E276E0CE01CD960E9488220E943A24D5
:1055C0004B015C01F8EE8F0EF3E09F1EA11CB11C95
:1055D000712C1FEF94EFC92EDD24D39426E0622EA8
:1055E0008FE00E944623892B11F47724739480E185
:1055F0000E944623892B09F4712C0E943A24DC0175
:10560000CB0188199909AA09BB0996010D2C000C38
:10561000440B550B281739074A075B07E8F40E942B
:105620003A244B015C01711001C01F5F1A3011F068
:1056300038F404C080EDC82E87E0D82E01E002C007
:105640001AE000E0B701619E600D711D11248CE02D
:1056500096E00E94882201C001E00E9455180111C5
:10566000BFCF80911F06811104C00E94070E8111D7
:1056700007C010921D0610921F0610921E0667C0EA
:1056800080EF0E94DD0D01E0D12CB12C11E00E94D1
:10569000071360968FAF60970E94071360969FADC7
:1056A0006097913019F48130C1F435C02D2D30E070
:1056B00098131DC080911D06181738F4F901EE5E8D
:1056C000F94F8381802349F402C0181731F090E02C
:1056D000193060F410931E0609C0ED2DF0E0EE5E67
:1056E000F94F8381802B838391E009C0B12EF901AA
:1056F000EE5EF94F2381802F809582238383892F4B
:105700000E942C131F5F000F11F4D39401E027E0D7
:105710002D1508F0BCCF113408F4ABCFB0921D06A4
:10572000B11003C081E080931F0680911506882385
:1057300009F49FCFA5E1B6E0E0E8F4E08D91819314
:1057400084E0E838F807D1F781E080936D0481E0C8
:105750008093880488E68093AA04109289041092AA
:10576000AB0461E180EA95E00E94EC130E94AA126A
:1057700082E090E00E94611280EA95E00E94A0130E
:10578000182F8AEC90E00E94BE11812F012E000C90
:10579000990B0E94DF111550183320F48E010D5B18
:1057A0001F4F1CC08BEB90E00E94BE1180E293E083
:1057B0000E94AC1105E010E048EE53E060E070E0BC
:1057C00088EE93E00E94A80E60ED77E080E090E024
:1057D0000E9400240150110979F7E0CF0650110909
:1057E000C8010E949F220E151F05C1F780917D04FC
:1057F00081110E94E1170E94DD1F00917B0410912E
:105800007C040E943A246B017C0181E080937A043D
:10581000112780917B0490917C040817190789F463
:105820000E94DD1F0E943A24DC01CB018C199D09E6
:10583000AE09BF09893B9B40A105B10550F3109209
:105840007A04E0907804F090790400917604109145
:105850007704209174043091750440917B04509139
:105860007C04609172047091730480917004909133
:1058700071040E94DC250E94A3010E946A21FBCFD3
:10588000109206051092050588EE93E0A0E0B0E0C6
:105890008093070590930805A0930905B0930A0526
:1058A00027EA32E0309304052093030525EC30E02D
:1058B0003093100520930F0524EC30E0309312054F
:1058C0002093110520EC30E030931405209313054C
:1058D00021EC30E0309316052093150522EC30E0E2
:1058E000309318052093170526EC30E030931A0505
:1058F0002093190510921C0510921D0510921E058B
:1059000010921F051092A3051092A2058093A40582
:105910009093A505A093A605B093A70589EB92E007
:105920009093A1058093A00566EF73E080E296E076
:105930000E94D92260E087E00E949F23E6E1F1E027
:10594000E491E0931206E2E0F1E0E491F0E0EE0F82
:10595000FF1FEF50FF4F8591949190931406809311
:10596000130610921D0610921F0610921E06EDE1FE
:10597000F6E0129286E0E531F807D9F769E373E0C3
:105980008CE096E00E94D92221E040E06EE083EFB7
:1059900095E00E94641621E040E060E18AED95E028
:1059A0000E94641621E040E06FE081EC95E00E94E7
:1059B00064161092AD051092B3051092BA051092BC
:1059C000BB051092BC051092BD0581E08093B9051E
:1059D0008093B6051092B70592E09093B805809336
:1059E000AC0588E190E09093B1058093B0050E94EA
:1059F0007F309093B5058093B405009761F028E15E
:105A0000FC0111922A95E9F788E090E09093AF05A8
:105A10008093AE0508C01092B1051092B0051092A7
:105A2000AF051092AE0586E08093B2058091AD057A
:105A3000882341F061E086E00E949F2360E086E0D9
:105A40000E946F23E1E0F1E0E491F0E0EE0FFF1F30
:105A5000E951FF4F859194919093BF058093BE05C6
:105A6000E5E1F1E0E491E093C00508958091B4058B
:105A70009091B505009711F00E9414318091B20504
:105A800087FD03C060E00E949F238CE096E00E94A7
:105A90009F2280E296E00C949F221F93FC0199279D
:105AA0008827BC01E89411911032E9F3193010F005
:105AB0001E30C8F31B3251F01D3249F4689406C001
:105AC0000E948A2D610F711D811D911D119110532E
:105AD0001A30B0F33EF490958095709561957F4FA4
