:020000040000FA
:100000000C94A1000C94C9000C94C9000C94C90074
:100010000C94C9000C94C9000C94C9000C94A5253B
:100020000C94C9000C94C9000C94C9000C94F425DC
:100030000C94C9000C94C9000C944F260C94C90070
:100040000C945B250C94C9000C9429250C94032571
:100050000C94C9000C94C9000C94C9000C94C900FC
:100060000C94AA260C94C900426C75653D00475259
:1000700045454E3D005245443D005265616465640E
:100080002066726F6D20454550524F4D00000000B4
:100090000800020100000304070000000000000047
:1000A0000002010000000000240027002A00466131
:1000B000756C747920445333323331210044533307
:1000C0003233315F543D004E43533331382F353690
:1000D0003820666F7220485720312E7820485635D8
:1000E000313232206F722048563532323200466942
:1000F000726D776172652076657273696F6E3A20F2
:100100000000000000250028002B00000000002354
:10011000002600290004040404040404040202026A
:100120000202020303030303030102040810204038
:100130008001020408102001020408102000022897
:10014000102E11241FBECFEFD8E0DEBFCDBF26E0BA
:10015000A6EEB3E001C01D92A23EB207E1F713E0A4
:10016000A0E0B1E0EAE9F6E602C005900D92A63EF5
:10017000B107D9F710E0C0EAD0E004C02197FE0132
:100180000E944031CF39D107C9F70E94FE280C9454
:1001900040330C9400008F929F92AF92BF92CF9207
:1001A000DF92EF92FF92CF93209165063091660621
:1001B00082179307E8F54B01AA24BB24C82DC52E4E
:1001C000D62EE72EFF24BC2DA42F20916B062223D0
:1001D00061F0829E40011124C92D2C9D60011124E3
:1001E000BD2D249FF0011124AF2FE0917106E09006
:1001F0006C06F0906D0630916E06E31323C09C01EF
:10020000220F331F820F931F8E0D9F1DE0916E06EC
:10021000E80FF92FF11DC083E0916F06E80FF92F69
:10022000F11DB08320917006820F911DFC01A08307
:10023000CF91FF90EF90DF90CF90BF90AF909F90C5
:100240008F900895880F991F880F991F8E0D9F1DFD
:10025000472F552766277727222349F030E0249F30
:100260007001259FF00C349FF00C11244F2DE80FE6
:10027000F92FF11D4083CACF8CBD9DBD089580919B
:10028000CA06E091CB06F091CC06F8949181982BA8
:1002900091832281382F309523232283A7E0B0E079
:1002A0001197F1F7918193239183A3E2B0E0119725
:1002B000F1F790817894EFECF0E03197F1F7982323
:1002C00081E009F480E008959091CA06E091CB06A0
:1002D000F091CC06292F209580FF14C0F8948281DC
:1002E000822382838181892B8183A3E2B0E01197ED
:1002F000F1F78281982B9283789487ED90E00197B3
:10030000F1F70895F8948281822382838181892B79
:100310008183AFEFB0E01197F1F78281982B928340
:1003200078948FE090E0EBCF0F931F93CF93DF9300
:10033000082FC8E0D0E011E081E0902F912309F46C
:1003400080E00E946401110F2197B1F7F894E091C9
:10035000CB06F091CC0691818091CA0680959823B6
:100360009183E091CB06F091CC0692818923828320
:100370007894DF91CF911F910F9108958091CA06D3
:10038000E091CB06F091CC06F8949181282F20952E
:100390009223918378943DE743E050E0315029F176
:1003A000DA011197F1F790819823C1F3F8949281C3
:1003B000922392839181982B91837894ABE7B7E055
:1003C0001197F1F7F894918192239183A3E1B1E021
:1003D0001197F1F79081982381E009F080E07894FB
:1003E000E3E6F6E03197F1F7089580E00895089587
:1003F00008950895AF92BF92CF92DF92EF92FF924D
:100400000F931F93CF93DF936C017B018B01040F3C
:10041000151FEB015E01AE18BF08C017D10759F0D8
:100420006991D601ED91FC910190F081E02DC6011A
:100430000995892B79F7C501DF91CF911F910F9114
:10044000FF90EF90DF90CF90BF90AF900895FC01A8
:10045000538D448D252F30E0842F90E0821B930B29
:10046000541710F0CF96089501970895FC01918DCF
:10047000828D981761F0A28DAE0FBF2FB11D5D96D2
:100480008C91928D9F5F9F73928F90E008958FEF74
:100490009FEF0895FC01918D828D981731F0828D28
:1004A000E80FF11D858D90E008958FEF9FEF08957F
:1004B000FC01918D228D892F90E0805C9F4F821BE3
:1004C00091098F73992708958AEB95E00E9458024D
:1004D00021E0892B09F420E0822F089580E090E04C
:1004E000892B29F00E94640281110C940000089568
:1004F000FC01A48DA80FB92FB11DA35ABF4F2C9199
:10050000848D90E001968F739927848FA689B7898F
:100510002C93A089B1898C91837080648C93938D86
:10052000848D981306C00288F389E02D80818F7D29
:1005300080830895EF92FF920F931F93CF93DF93E1
:10054000EC0181E0888F9B8D8C8D98131AC0E8890F
:10055000F989808185FF15C09FB7F894EE89FF89DE
:100560006083E889F98980818370806480839FBF7C
:1005700081E090E0DF91CF911F910F91FF90EF907C
:100580000895F62E0B8D10E00F5F1F4F0F7311278C
:10059000E02E8C8D8E110CC00FB607FCFACFE889C7
:1005A000F989808185FFF5CFCE010E947802F1CFD5
:1005B000EB8DEC0FFD2FF11DE35AFF4FF0829FB73B
:1005C000F8940B8FEA89FB8980818062CFCF0F93EB
:1005D0001F93CF93DF938C01D0E0C0E0F801EC0FC4
:1005E000FD1F6491662341F08AEB95E00E949A0218
:1005F000892B11F02196F2CFCE01DF91CF911F917F
:100600000F910895CF93DF93EC01888D8823B9F083
:10061000AA89BB89E889F9898C9185FD03C080810D
:1006200086FD0DC00FB607FCF7CF8C9185FFF2CF8A
:10063000808185FFEDCFCE010E947802E9CFDF9166
:10064000CF910895833081F028F4813099F0823081
:10065000A9F008958730A9F08830C9F08430B1F44A
:10066000809180008F7D03C0809180008F77809380
:100670008000089584B58F7784BD089584B58F7DFB
:10068000FBCF8091B0008F778093B0000895809168
:10069000B0008F7DF9CFCF93DF93282F30E0F901A1
:1006A000E357FF4F8491F901E75DFE4FD491F901C3
:1006B000EB5EFE4FC491CC23A1F081110E94220376
:1006C000EC2FF0E0EE0FFF1FE55FFE4FA591B49118
:1006D000EC91ED2381E090E009F480E0DF91CF918F
:1006E000089580E090E0FACF1F93CF93DF93282FF7
:1006F00030E0F901E357FF4F8491F901E75DFE4FC8
:10070000D491F901EB5EFE4FC491CC23A9F0162FD2
:1007100081110E942203EC2FF0E0EE0FFF1FEF5F2C
:10072000FE4FA591B4918FB7F894EC91111108C0C8
:10073000D095DE23DC938FBFDF91CF911F91089579
:10074000DE2BF8CFCF93DF9390E0FC01E75DFE4F07
:1007500024918B5E9E4FFC0184918823C9F090E028
:10076000880F991FFC01EC55FF4FA591B491FC0136
:10077000EF5FFE4FC591D49161110DC09FB7F89402
:100780008C91209582238C938881282328839FBF76
:10079000DF91CF910895623051F49FB7F8943C9166
:1007A000822F809583238C93E8812E2BEFCF8FB7F8
:1007B000F894EC912E2B2C938FBFEACF4F925F923F
:1007C0006F927F928F929F92AF92BF92CF92DF9261
:1007D000EF92FF920F931F93CF93DF9300D000D03F
:1007E0001F92CDB7DEB72091B90527FD2CC14983F3
:1007F0005A836B837C838C0161E08091B8050E94F1
:10080000A2038091B9058D834801B12CA12C8D7F65
:1008100009F031C160E072E18AE790E0A50198013A
:100820000E94213129013A017A01690191E0C91A36
:10083000D108E108F108AFEFCA16D104E104F104D0
:1008400009F00CF4C7C060E472E48FE090E0A50109
:1008500098010E94213169017A01B1E0CB1AD108D7
:10086000E108F1088D81823009F06AC082E09FEFD3
:10087000C916D104E104F10409F00CF45EC160E989
:1008800070ED83E090E0A50198010E94213169019B
:100890007A01A1E0CA1AD108E108F10883E0BFEFAC
:1008A000CB16D104E104F10409F00CF446C168E46C
:1008B00078EE81E090E0A50198010E942131690164
:1008C0007A0181E0C81AD108E108F10884E09FEFBD
:1008D000C916D104E104F10409F00CF42EC164E25C
:1008E00074EF80E090E0A50194010E94213169013C
:1008F0007A01B1E0CB1AD108E108F10885E09FEF59
:10090000C916D104E104F10409F008F416C162E14A
:100910007AE780E090E0A50194010E94213169010D
:100920007A01B1E0CB1AD108E108F1088FEFC816BF
:10093000D104E104F10411F008F0F0C086E0FDC03C
:100940008FEFC816D104E104F10409F00CF491C052
:1009500068E478EE81E090E0A50198010E942131E1
:1009600069017A0191E0C91AD108E108F108AD8165
:1009700084E0A111C4CF83E0AFEFCA16D104E10433
:10098000F10461F15CF162E17AE780E090E0A501B9
:1009900094010E94213169017A0181E0C81AD108CD
:1009A000E108F10884E09FEFC916D104E104F104E5
:1009B000A9F0A0F0730162019AE0F594E794D7944E
:1009C000C7949A95D1F7A1E0CA1AD108E108F108B5
:1009D00085E004C081E0AD81A111AFC095B5987FDD
:1009E000892B85BD89819A81AB81BC812FEF3FEF37
:1009F000A901892B8A2B8B2B79F0D801AA0FBB1F59
:100A000029813A814B815C810E94D22F28EE33E00C
:100A100040E050E00E94FF309D81913009F45CC0BD
:100A2000923009F46BC091110EC0C7BC2093B4057D
:100A30003093B5054093B6055093B70580916E008D
:100A4000826080936E000F900F900F900F900F9028
:100A5000DF91CF911F910F91FF90EF90DF90CF909A
:100A6000BF90AF909F908F907F906F905F904F90CE
:100A7000089582E0B0CF60E072E18AE790E0A501DE
:100A800098010E94213169017A01B1E0CB1AD108A5
:100A9000E108F10891E0C114D10481E0E806F10415
:100AA00084F068E478EE81E090E0A50198010E946E
:100AB000213169017A0191E0C91AD108E108F108F0
:100AC00093E0AD81A13009F08DCF80918100887FC6
:100AD000892B8093810086CFD0928900C0928800B4
:100AE0002093B0053093B1054093B2055093B30500
:100AF00080916F00826080936F00A5CFC092B30099
:100B00002093AC053093AD054093AE055093AF05EF
:100B10008091700082608093700095CF73016201B4
:100B20008AE0F594E794D794C7948A95D1F7B1E019
:100B3000CB1AD108E108F10887E09091B100987FC5
:100B4000892B8093B1004ECF3FB7F89480910D056B
:100B500090910E05A0910F05B091100526B5A89BA8
:100B600005C02F3F19F00196A11DB11D3FBFBA2F3F
:100B7000A92F982F8827BC01CD01620F711D811DFF
:100B8000911D42E0660F771F881F991F4A95D1F784
:100B90000895CF92DF92EF92FF920F931F93CF931E
:100BA000DF93CDB7DEB729970FB6F894DEBF0FBE3F
:100BB000CDBF80916C0690916D06892B09F480C0A1
:100BC000C0907206D0907306E0907406F09075069F
:100BD0000E94A4056C157D058E059F0550F40E94AA
:100BE000A4056093720670937306809374069093C5
:100BF00075060E94A405009172061091730620915B
:100C0000740630917506601B710B820B930B6C326E
:100C1000714081059105A0F2F8948091670690914A
:100C200068069A838983E0916C06F0916D06DF0176
:100C300011968081898790916306E0917606F09104
:100C4000770680917806992309F449C09081982B02
:100C500098879081809589238F838F818C8388E00A
:100C60008B8358856F8149853B812C8189819A814D
:100C7000508347FD252F3A952083262F39F0441FB6
:100C800000C000006083000000C0F2CF38E04D914A
:100C900060830000019761F7F0937706E093760692
:100CA00049873B832C839A83898378940E94A40587
:100CB0006093720670937306809374069093750622
:100CC00029960FB6F894DEBF0FBECDBFDF91CF914E
:100CD0001F910F91FF90EF90DF90CF90089590813A
:100CE000982B98879081809589238F838F818E831D
:100CF00088E08D8358856F8149853D812E8189816A
:100D00009A81508347FD252F00C000C0208300C07A
:100D100000C000C000C000C060830000262F3A95CC
:100D200041F0441F000000C000C000C000C000C06F
:100D3000E8CF38E04D9100C0608300C0019709F70B
:100D4000F0937706E093760649873D832E83ABCFF9
:100D50008F929F92AF92BF92CF92DF92EF92FF92CB
:100D60004B015C010E94A4056B017C010E94A4055B
:100D70006C197D098E099F09683E734081059105B4
:100D8000A8F321E0821A9108A108B10888EEC80EE4
:100D900083E0D81EE11CF11C81149104A104B1046C
:100DA00029F7FF90EF90DF90CF90BF90AF909F908A
:100DB0008F9008952FB7F8946091090570910A05F6
:100DC00080910B0590910C052FBF08956093FD0451
:100DD0007093FE048093FF0490930005645D7E4F42
:100DE0008F4F9F4F6093F9047093FA048093FB0434
:100DF0009093FC0482E090E09093F8048093F704D1
:100E00000E94DA066093F3047093F4048093F5046F
:100E10009093F60408952F923F924F925F926F92B3
:100E20007F928F929F92AF92BF92CF92DF92EF927A
:100E3000FF920F931F93CF93DF93382E962E842E1D
:100E4000222E84E6E816F1040CF459C092EBE91A5C
:100E500097E0F90AE0920705009306052092050540
:100E6000309203059092020580920105AE2DB0E00C
:100E700020E833E341EE51E00E94D22F2B013C01E8
:100E800022EB37E0FF24E4E6F0E0C0E9D1E0C9015D
:100E9000825B97408E159F05B4F19EE4E91A98EFA6
:100EA000F90AC70164E670E00E94EB306C01C701EB
:100EB00060E971E00E94EB305C01C7EBD2E0E1E059
:100EC000F0E0112783E0E822FF24E017F1070CF09F
:100ED00042C0E230F10591F5E114F10479F5C11455
:100EE000D10419F4A114B10449F580E8480E8BE34C
:100EF000581E86E2681E711C31962196E6CF8EE15F
:100F0000E80EF11CA7CFC90183709927892B99F4AA
:100F1000C901BF010E94EB30892B31F4C901BE0128
:100F20000E94EB30892B39F490E8490E91E5591E67
:100F300091E0691E711C2F5F3F4FA9CFA881B0E0DF
:100F400020E831E541E050E00E94D22F460E571EC6
:100F5000681E791ED1CF292D30E0ACE3B0E00E94AD
:100F600014306B017C01C80CD11CE11CF11C232D39
:100F700030E0A0E1BEE00E941430C60ED71EE81E8D
:100F8000F91E822D8150990BDC0120E831E541E00A
:100F900050E00E9446316C0D7D1D8E1D9F1D640D1D
:100FA000751D861D971DDF91CF911F910F91FF90A9
:100FB000EF90DF90CF90BF90AF909F908F907F90F9
:100FC0006F905F904F903F902F900C94E606CF92D9
:100FD000DF92EF92FF920F931F930E94DA068B012C
:100FE0009C01C090F304D090F404E090F504F090DC
:100FF000F6046091FD047091FE048091FF049091CD
:1010000000050C191D092E093F09083E1340210552
:101010003105E0F0DC01CB010196A11DB11D8093EB
:10102000FD049093FE04A093FF04B0930005B70164
:10103000A60148515C4F6F4F7F4F4093F30450938C
:10104000F4046093F5047093F604C7CF1F910F91D9
:10105000FF90EF90DF90CF9008954F925F926F9244
:101060007F928F929F92AF92BF92CF92DF92EF9238
:10107000FF920F931F93CF93DF934B015C018091FD
:10108000EF049091F004A091F104B091F20488155E
:101090009905AA05BB0509F4C6C08CE3C82ED12C5E
:1010A000E12CF12CC501A70196010E94FF3060934D
:1010B0000105CA01B901A70196010E94FF306093A2
:1010C0000205C501B40120E13EE040E050E00E948D
:1010D000FF30CA01B90128E130E040E050E00E9451
:1010E000FF3060930305C501B40120E831E541E01C
:1010F00050E00E94FF3069017A01CA01B9016C5FBA
:101100007F4F8F4F9F4F27E030E040E050E00E943C
:10111000FF306F5F60930405412C512C320140E099
:1011200004E610E0C0E9D1E0242F30E02E54384F1F
:10113000F901E370FF273097F9F4C901B8010E9463
:10114000EB30892B31F4C901BE010E94EB30892BB1
:1011500099F48EE691E0A0E0B0E0480E591E6A1EB8
:101160007B1ED301C201AA27BB27C816D906EA06EF
:10117000FB0638F04F5FD8CF8DE691E0A0E0B0E0FD
:10118000ECCF40930705C90164E670E00E94EB30A4
:10119000EC01C90160E971E00E94EB30309721F465
:1011A0002097D9F40097C9F04DE651E060E070E077
:1011B000441A550A660A770AC418D508E608F708DB
:1011C000A7EBB2E020E0213069F43097E9F52097F1
:1011D00011F40097C9F54DE106C04EE651E060E01C
:1011E00070E0E6CF4C9150E070E060E031E0320F0B
:1011F000C416D506E606F70640F0C41AD50AE60A74
:10120000F70A1196232F3C30F1F62F5F2093060545
:10121000C394C09205058092EF049092F004A092CE
:10122000F104B092F204DF91CF911F910F91FF90E2
:10123000EF90DF90CF90BF90AF909F908F907F9076
:101240006F905F904F9008954CE1CDCF0E94E707DB
:101250000E942D088091070590E08E54984F0895C4
:101260000E94E7070E942D088091060590E00895EE
:101270000E94E7070E942D088091050590E00895DF
:101280000E94E7070E942D088091010590E00895D3
:101290000E94E7070E942D088091020590E00895C2
:1012A0000E94E7070E942D088091030590E00895B1
:1012B000CF92DF92EF92FF92CF93DF93EC010E94E7
:1012C000DA066B017C018F850E944B039C0181E053
:1012D0002115310509F480E0898B8889811105C0C9
:1012E00091E0232B09F090E0998B29898A892817AE
:1012F00021F0CD8ADE8AEF8AF88E8D899E89AF89AA
:10130000B88DB701A601481B590B6A0B7B0BDB019B
:10131000CA01CB80DC80ED80FE80C816D906EA06C3
:10132000FB0664F43A81231749F02A83222349F00B
:101330004B895C894F5F5F4F5C8B4B8B3A813111DE
:1013400017C0CF80D884E984FA84C816D906EA0683
:10135000FB0634F48B899C89998388831C8A1B8AB9
:101360002A8BDF91CF91FF90EF90DF90CF9008957F
:10137000CB84DC84ED84FE84C816D906EA06FB061D
:101380007CF78B899C89919581959109E5CF209176
:10139000CC04260F3327331F21323105ECF4209182
:1013A0008205FC0190E080E0243069F082E008953D
:1013B000A091CC042191AC0144555B4FA40FB52FF3
:1013C000B11D2C930196861798F38091CC04680F79
:1013D0006093CC0480E0089581E008951092820526
:1013E00081E08093810510925C0561E082E10E94BA
:1013F000740361E083E10E947403E9EBF0E0808113
:101400008E7F808380818D7F808388E48093B80085
:1014100085E48093BC000895CF93DF9391E090938F
:10142000AB048823B9F0C091B800D091BA00809184
:10143000BC008A7B8093BC0060E082E10E94740360
:1014400060E083E10E9474030E94EE09D093BA0029
:10145000C093B800DF91CF910895CF92DF92EF92C1
:10146000FF920F931F93CF93DF93D091AB0581E051
:10147000D13208F09CC0C091AA050E94A4056B015E
:101480007C018091820581116CC082E0809382058D
:1014900081E0809381058FEF8093800510927F0516
:1014A000D0937E05AAE8B5E0EEE5F5E080E0D8133C
:1014B0008DC010925D0580915D05CC0FC82BC09347
:1014C0005D0580915C05813009F084C010925C0557
:1014D0000E94A4056B017C0180915D058093BB0097
:1014E0008091840590918505A0918605B09187052E
:1014F000892B8A2B8B2BA1F00E94A40500918405D7
:101500001091850520918605309187056C197D091C
:101510008E099F09061717072807390708F442C0E4
:101520008091BC0083FDD8CF85EC8093BC000E94E5
:10153000A4056B017C0180918205823009F44CC0C6
:10154000809180058F3F09F469C0809180058032C9
:1015500009F466C080918005803309F463C084E09B
:1015600026C08091840590918505A0918605B09153
:101570008705892B8A2B8B2B09F483CF0E94A40526
:10158000009184051091850520918605309187058D
:101590006C197D098E099F09061717072807390757
:1015A00008F06FCF809183050E940C0A85E01092AD
:1015B00089051092AB0510928805DF91CF911F919C
:1015C0000F91FF90EF90DF90CF9008959D919193B0
:1015D0008F5F6DCF85EEA9CF8091840590918505B1
:1015E000A0918605B0918705892B8A2B8B2B09F456
:1015F000A2CF0E94A4050091840510918505209139
:101600008605309187056C197D098E099F0906179B
:1016100017072807390708F08ECFC4CF80E0C7CF5F
:1016200082E0C5CF83E0C3CFCF92DF92EF92FF92EB
:101630000F931F93CF93DF93D82FC62F613208F0FB
:1016400098C00E94A4056B017C01809182058111E4
:101650006BC081E080938205809381059FEF90931A
:10166000800510927F059C0F90937E0580935D0509
:1016700080915D05DD0FD82BD0935D0580915C05D1
:10168000813009F078C010925C050E94A4056B01BE
:101690007C0180915D058093BB00809184059091D1
:1016A0008505A0918605B0918705892B8A2B8B2B08
:1016B000A1F00E94A4050091840510918505209158
:1016C0008605309187056C197D098E099F090617DB
:1016D00017072807390708F448C08091BC0083FD2C
:1016E000D8CF85EC8093BC000E94A4056B017C01DF
:1016F00080918205813009F440C080917F058C176C
:1017000010F4C0917F05EEE5F5E0ACE3B5E080E0D4
:101710008C1355C08C2FDF91CF911F910F91FF90AB
:10172000EF90DF90CF90089580918405909185058A
:10173000A0918605B0918705892B8A2B8B2B09F404
:1017400084CF0E94A4050091840510918505209105
:101750008605309187056C197D098E099F0906174A
:1017600017072807390708F070CF809183050E947A
:101770000C0AC0E0CFCF85EEB5CF80918405909163
:101780008505A0918605B0918705892B8A2B8B2B27
:1017900009F4AECF0E94A40500918405109185053F
:1017A00020918605309187056C197D098E099F0966
:1017B000061717072807390708F09ACFD6CF919157
:1017C0009D938F5FA5CF0895E0912205809121051B
:1017D000E81730F4F0E0E45CFA4F808190E008957F
:1017E0008FEF9FEF089590912205809121052FEFB3
:1017F0003FEF981748F4E92FF0E0E45CFA4F2081BE
:1018000030E09F5F90932205C901089580912105E2
:1018100090912205891B990B0895CF92DF92EF9248
:10182000FF920F931F93CF93DF937C01CB018A012B
:1018300020918805222389F0EB016B01C40ED51E8F
:10184000CC15DD0569F06991D701ED91FC9101900E
:10185000F081E02DC7010995F3CF642F0E94C709DD
:10186000C801DF91CF911F910F91FF90EF90DF9012
:10187000CF900895CF93DF931F92CDB7DEB76983E2
:10188000209188052223F9F02091AB05203258F0F1
:1018900021E030E0FC013383228390E080E00F9070
:1018A000DF91CF91089580918905E82FF0E0E65708
:1018B000FA4F998190838F5F809389058093AB0560
:1018C00081E090E0ECCF61E0CE0101960E94C70973
:1018D000F7CF90E080E00895CF93DF93D0E0C0E0B1
:1018E00040E050E0BA01CE010E94CB002196C83002
:1018F000D105B1F7DF91CF910C94C9054091A904AE
:101900005091AA042091A7043091A80480E09CE3A0
:101910004217530711F48FEF9FEF4F5F5F4F433034
:10192000510529F05093AA044093A90408951092F8
:10193000AA041092A9042F5F3F4F2330310529F0EC
:101940003093A8042093A70408951092A80410923D
:10195000A7040895CF92DF92EF92FF920F931F9307
:10196000CF93DF939091A60491110BC08FEF9FEF5F
:10197000DF91CF911F910F91FF90EF90DF90CF906B
:1019800008959091A504992389F3082FC091A40488
:10199000D0E080919C0481110DC00E94DA06609312
:1019A00098047093990480939A0490939B0481E027
:1019B00080939C040E94DA06C0909804D090990409
:1019C000E0909A04F0909B046C197D098E099F09A0
:1019D0006D32714081059105B0F0109197040E941D
:1019E000DA06609398047093990480939A04909314
:1019F0009B0491E0912790939704992331F11092E1
:101A000096041092950420919504309196042095A7
:101A1000309580919404282326FF1CC081E0809398
:101A2000930427FF1AC081E0809392048091970469
:101A3000882309F49BCF02C0D595C7950A95E2F794
:101A4000C0FF94CF80E09CE393CFD0939604C093E3
:101A50009504D9CF10929304E4CF10929204E6CF6C
:101A6000DF92EF92FF920F931F93CF93DF9300913A
:101A70008C0410918D040830110580F4D82FF801E2
:101A8000EC5BF24F0C9440314C0D680D6C0D4C0D1D
:101A9000680D6E0D700D810D0E94BE010F5F1F4F0E
:101AA0000830110509F470C010938D0400938C0464
:101AB00060918604709187048091880490918904D4
:101AC000DF91CF911F910F91FF90EF90DF900895DC
:101AD0008CEC0E949401E2CF84E4FBCF8EEBF9CF33
:101AE00098E0E92EF12CC0E0D1E00E943F01811185
:101AF000CD2BDD0F81E0E81AF108B9F7C0938A0415
:101B0000CDCF88E0E82EF12CC0E0DD24D3940E94F4
:101B10003F018111CD29DD0C81E0E81AF108B9F708
:101B2000C0938B0460918A047C2F6F3F760711F479
:101B300070E060E0072E000C880B990B0E949F2E2E
:101B400020E030E040E85DE30E94FE2ED1110FC09E
:101B500020E030E040E251E40E94FE2E60938604D3
:101B600070938704809388049093890497CF26E626
:101B700036E646EE5FE30E94FE2E20E030E040E0D5
:101B800052E40E942430E4CF10928D0410928C0411
:101B90008FCF0F931F938091570190915801892BFC
:101BA00009F449C080915D048823A9F00E94DA06F7
:101BB0000091590410915A0420915B0430915C0407
:101BC000601B710B820B930B693E7340810591057D
:101BD00090F110925D040E945009209151013091C2
:101BE00052018217930739F50E9448092091530149
:101BF0003091540182179307F1F40E94400920911B
:101C000055013091560182179307A9F40E94DA0614
:101C10006093590470935A0480935B0490935C041E
:101C200081E080935D04809134019091350190931F
:101C30002D0580932C051F910F910895CF93DF936D
:101C4000EC012196FC0120812A33C9F4218124363C
:101C500009F5229630E020E06AE0899190ED980F36
:101C60009A3078F4629FA001639F500D1124082ED2
:101C7000000C990BC0979A01280F391FEECFCE01A7
:101C8000DFCF30935104209350042115310511F01A
:101C90002093330188818F3689F48A81082E000CC5
:101CA000990B9C0120533109309351042093500427
:101CB000C397059710F420933201249688818236C9
:101CC000F1F4229630E020E06AE0899190ED980FDF
:101CD0009A3068F4629FA001639F500D1124082E72
:101CE000000C990BC0979A01280F391FEECF309343
:101CF00051042093500430933101209330012091FE
:101D0000300130913101032E000C440B550B60E67D
:101D10007AEE80E090E00E94213182E0220F331FB2
:101D2000441F551F8A95D1F720934C0430934D04DE
:101D300040934E0450934F04CE01DF91CF9108950C
:101D40008EBD00000DB407FEFDCF8EB50895CF9374
:101D500081E08093880588E68093AA051092890522
:101D60001092AB0560E087E596E00E943A0C0E9475
:101D70002D0A67E088E60E94140B109222058093DA
:101D8000210587E596E00E94F30B982F92959F70AE
:101D9000CAE08F709C9F800D112490E090933A05CB
:101DA0008093390587E596E00E94F30B982F929572
:101DB0009F708F709C9F800D112490E0909331054F
:101DC0008093300587E596E00E94F30B982F92955B
:101DD00093708F709C9F800D112490E090932F053D
:101DE00080932E0587E596E00E94F30B87E596E049
:101DF0000E94F30B982F92959F708F709C9F800D7F
:101E0000112490E0909333058093320587E596E0A6
:101E10000E94F30B982F92959F708F709C9F800D5E
:101E2000112490E0909335058093340587E596E082
:101E30000E94F30B982F92959F708F709C9F800D3E
:101E4000112490E09093370580933605CF91089543
:101E5000CF93DF93EC0188819981009711F00E9464
:101E6000EA31198218821D821C821B821A82DF913C
:101E7000CF910895FC0180819181009711F00C941D
:101E8000EA3108958F929F92AF92BF920F931F9362
:101E9000CF93DF93CDB7DEB7A1970FB6F894DEBF2F
:101EA0000FBECDBF19A2423008F44AE08E010F5D8B
:101EB0001F4F842E912CB12CA12CA50194010E94BE
:101EC000FF30E62FB901CA01EA3044F5E05DD801E0
:101ED000EE938D01232B242B252B79F790E080E0C6
:101EE000109769F0FD0101900020E9F73197AF01EB
:101EF0004A1B5B0BBD018AEB95E00E94FA01A1969B
:101F00000FB6F894DEBF0FBECDBFDF91CF911F910A
:101F10000F91BF90AF909F908F900895E95CD7CFBD
:101F200042E050E06FE073E08AEB95E00C94FA0138
:101F3000CF92DF92EF92FF92CF93DF936C01092E45
:101F4000000CEE08FF0897FF1DC06DE28AEB95E0DC
:101F50000E949A02EC0166277727CB016C197D0954
:101F60008E099F094AE00E94420FC80FD91F0E94A4
:101F7000900F8C0F9D1FDF91CF91FF90EF90DF901E
:101F8000CF9008954AE0C701B6010E94420FEC01CC
:101F9000EECFFC0180819181009711F00C94272EE7
:101FA00060E070E0CB0108952F923F924F925F92D4
:101FB0006F927F928F929F92AF92BF92CF92DF9259
:101FC000EF92FF920F931F93CF93DF93CDB7DEB7BE
:101FD0002C970FB6F894DEBF0FBECDBF0E94A405AC
:101FE00000918E0410918F042091900430919104FF
:101FF0006B017C01C01AD10AE20AF30A970186013B
:10200000003D17402105310508F4C0C160938E04DE
:1020100070938F04809390049093910484EC96E0E5
:102020000E94C90F69837A838B839C8360E08AE076
:102030000E9474031AE0812E912CA12CB12C69818D
:102040007A818B819C81A50194010E9421316901D3
:102050007A01660F771F6D557D4FDB012D903C9007
:1020600085E090E00E94AA0C9E838D830E947E0CE6
:102070003C01C701B601A50194010E942131660F00
:10208000771F6D557D4FFB01C080D18084E090E0CB
:102090000E94AA0C2C010E947E0C8C0169817A811D
:1020A0008B819C8124E630E040E050E00E942131A9
:1020B000CA01B901A50194010E942131660F771F61
:1020C0006D557D4FDB01AD90BC9083E090E00E94A8
:1020D000AA0C7C010E947E0C4D815E814621572115
:1020E0004221532170E060E024E1440F551F661F38
:1020F000771F2A95D1F78E219F218A219B21B0E05D
:10210000A0E0842B952BA62BB72B40225122C42074
:10211000D520F12CE12C3AE0CC0CDD1CEE1CFF1C90
:102120003A95D1F7C82AD92AEA2AFB2A69817A8105
:102130008B819C8128EE33E040E050E00E94213109
:1021400029013A0180919304882309F4FDC0689421
:10215000F6F880919204882309F4F9C06894F7F89E
:10216000109120058F2D9927AA27BB278D839E8349
:10217000AF83B8874701AA24BB24BB27AF2D9E2D70
:102180008D2D89879A87AB87BC87112309F4E2C01C
:102190008C2D0E94A00E89850E94A00E882D0E9481
:1021A000A00E8D810E94A00E3AE0832E912CA12CCE
:1021B000B12CC301B201A50194010E942131660F27
:1021C000771F6D557D4FDB014D905C9082E090E074
:1021D0000E94AA0C7C010E947E0C6C0169817A81AC
:1021E0008B819C8120E137E240E050E00E94213168
:1021F000CA01B901A50194010E942131660F771F20
:102200006D557D4FFB010190F081E02DFE83ED8344
:1022100081E090E00E94AA0C3C010E947E0CCE203E
:10222000DF20C420D520F12CE12C64E1CC0CDD1C96
:10223000EE1CFF1C6A95D1F7862197212D813E81E6
:1022400082239323B0E0A0E07AE0880F991FAA1FB1
:10225000BB1F7A95D1F7C82AD92AEA2AFB2A6981B5
:102260007A818B819C8120EA36E841E050E00E942F
:102270002131CA01B901A50194010E942131660FE3
:10228000771F6D557D4FDB01AD90BC9090E080E0F5
:102290000E94AA0C9A8389830E947E0CE981FA81AC
:1022A0008E239F238A219B21B0E0A0E08C299D29C9
:1022B000AE29BF29209193046C017D01222309F4EA
:1022C00054C06894F6F880919204882309F450C0B1
:1022D0006894F7F84F2C5524662477244701AA24E4
:1022E000BB24BB27AF2D9E2D8D2D89839A83AB8375
:1022F000BC83112309F43FC08C2D0E94A00E89815C
:102300000E94A00E882D0E94A00E842D0E94A00E77
:1023100061E08AE02C960FB6F894DEBF0FBECDBF09
:10232000DF91CF911F910F91FF90EF90DF90CF90B1
:10233000BF90AF909F908F907F906F905F904F90E5
:102340003F902F900C947403E894F6F802CFE89431
:10235000F7F806CF8D810E94A00E882D0E94A00E56
:1023600089850E94A00E8C2D1DCFE894F6F8ABCF86
:10237000E894F7F8AFCF842D0E94A00E882D0E941C
:10238000A00E89810E94A00E8C2DC0CF2C960FB676
:10239000F894DEBF0FBECDBFDF91CF911F910F919B
:1023A000FF90EF90DF90CF90BF90AF909F908F9075
:1023B0007F906F905F904F903F902F9008950F9374
:1023C0001F93CF93DF938C01EB01FC0180819181FE
:1023D0000097E1F06881798161157105A9F042816A
:1023E00053812C813D814217530770F00E9439338D
:1023F0008C819D81F801958384831D821C82DF91ED
:10240000CF911F910F9108950E94EA31888199819F
:10241000F801918380838A819B81938382838C815D
:102420009D8195838483198218821B821A82E5CF4D
:102430000F931F93CF93DF93EC01888199810097CD
:1024400059F02A813B812617370730F081E0DF9170
:10245000CF911F910F9108958B016F5F7F4F0E9465
:102460007332009759F0998388831B830A832C81E8
:102470003D81232B59F7FC011082E8CF80E0E7CFA4
:10248000EF92FF920F931F93CF93DF936115710526
:1024900041F480E0DF91CF911F910F91FF90EF9079
:1024A000089541155105B1F07B01EC010C811D81AE
:1024B000040F151FB8010E941812882351F32881B8
:1024C00039818C819D81B701820F931F0E9439331E
:1024D0001D830C8381E0DECFCF93DF93EC01FB0102
:1024E00001900020E9F73197AF01461B570B0E947E
:1024F0004012811103C0CE010E94280FCE01DF914E
:10250000CF910895CF93DF93EC01FB014481558176
:10251000608171810E944012811103C0CE010E942E
:10252000280FCE01DF91CF910895EF92FF920F9384
:102530001F93CF93DF93EC017B018A01BA010E94C4
:10254000181281110BC0CE010E94280FCE01DF911D
:10255000CF911F910F91FF90EF9008951D830C83F1
:10256000B701888199810E943933F0CFFB01019036
:102570000020E9F73197AF01461B570B0C949512D9
:102580000F931F93CF93DF93CDB7DEB762970FB64C
:10259000F894DEBF0FBECDBF8C01CB01F8011182D4
:1025A000108213821282158214824AE0BE016F5F8C
:1025B0007F4F0E944E2EBE016F5F7F4FC8010E9469
:1025C000B61262960FB6F894DEBF0FBECDBFDF9194
:1025D000CF911F910F910895CF93DF93EC01FB01F1
:1025E0008617970749F0608171816115710541F087
:1025F000448155810E949512CE01DF91CF910895BB
:102600000E94280FF9CFFC011182108213821282DE
:10261000158214820C94EC12FC0111821082138238
:10262000128215821482FB0101900020E9F7319794
:10263000AF01461B570B0C949512AF92BF92CF92ED
:10264000DF92EF92FF920F931F93CF93DF936C0172
:102650005B017A0189012417350720F48F2D790158
:10266000042F182F61E173E0C6010E940C13D501FD
:102670001496CD91DC91EC16FD06E0F40C171D07C5
:1026800008F4E801D501ED91FC911197EC0FFD1FC5
:10269000108110826D917C916E0D7F1DC6016115B8
:1026A0007105A1F00E94B612F50180819181C80FD9
:1026B000D91F1883C601DF91CF911F910F91FF9011
:1026C000EF90DF90CF90BF90AF9008950E94280FB9
:1026D000EBCF4F925F926F927F928F929F92AF92C9
:1026E000BF92CF92DF92EF92FF920F931F93CF93FF
:1026F000DF9300D000D000D0CDB7DEB77C014B0116
:102700005A0180916B0481113AC081E080936B047F
:1027100095E6692E94E0792E2FE5422E24E0522E84
:1027200010E000E00F5F1F4F680181E0C81AD10878
:102730009801A601B401CE0101960E941D13CE019D
:1027400001960E94C90FD3016D933D01CE01019600
:102750000E943A0F9801A601B501CE0101960E9490
:102760001D13CE0101960E94C90FF20161932F0142
:10277000CE0101960E943A0F0630110599F690910C
:102780005E0485E6C82E84E0D82EEFE5F4E08601ED
:10279000A801D8018C919A3008F04DC08F5F8C93BE
:1027A0000F5F1F4FDA018C918A3019F4D80111970D
:1027B0001C923196B4E00B361B0751F79F5F9431A2
:1027C00009F43FC090935E0461E173E0C7010E9489
:1027D0000C13FE0131965F01D6018D916D014AE027
:1027E000B50190E00E944E2EF50101900020E9F71E
:1027F0003197AF014A195B09B501C7010E94401228
:102800000C151D0549F7C70126960FB6F894DEBFD3
:102810000FBECDBFDF91CF911F910F91FF90EF9031
:10282000DF90CF90BF90AF909F908F907F906F90F0
:102830005F904F9008952081281709F4B1CF8F5FE2
:10284000AECF10925E0410926B04BECFCF92DF9297
:10285000EF92FF921F93CF93DF93CDB7DEB72C9704
:102860000FB6F894DEBF0FBECDBF182F65E373E03F
:10287000CE0107960E940C1322E030E050E040E0C9
:10288000133071F024E030E042E050E01C3041F0C1
:102890001033B9F42091C8063091C90644E050E0E5
:1028A00064EC76E0CE0101960E941D13BE016F5FBD
:1028B0007F4FCE0107960E94DF11CE0101960E9444
:1028C0003A0FCE0107960E94C90F6B01CE01079601
:1028D0000E943A0FC6012C960FB6F894DEBF0FBEC9
:1028E000CDBFDF91CF911F91FF90EF90DF90CF9000
:1028F00008950F931F93CF93DF93CDB7DEB7629701
:102900000FB6F894DEBF0FBECDBF8C0177FF03C0BA
:102910007195619571096A307105A4F5CE010D9626
:102920000E94C01267E173E0CE0101960E940C1371
:10293000BE016F5F7F4FCE0107960E940313BE0159
:10294000635F7F4FCE0107960E948212BC01C801CF
:102950000E940313CE0107960E943A0FCE01019602
:102960000E943A0FCE010D960E943A0FC80162965E
:102970000FB6F894DEBF0FBECDBFDF91CF911F9190
:102980000F910895C8010E94C012F0CF0F931F93BA
:10299000CF93DF93CDB7DEB768970FB6F894DEBF5D
:1029A0000FBECDBF8B01833079F52091C8063091E1
:1029B000C90642E050E064EC76E0CE010D960E943C
:1029C0001D13B801CE0101960E947914BE016F5FFC
:1029D0007F4FCE0107960E940313BE01635F7F4FB6
:1029E000CE0107960E948212BC0184EC96E00E9400
:1029F000EC12CE0107960E943A0FCE0101960E947A
:102A00003A0FCE010D9644C08C3009F04EC0209193
:102A1000C8063091C90644E050E064EC76E0CE018F
:102A200043960E941D13B801CE010D960E947914A1
:102A300022E030E050E040E064EC76E0CE01019628
:102A40000E941D13BE016F5F7F4FCE0107960E944B
:102A50000313BE01635F7F4FCE0107960E9482126F
:102A6000BE016D5E7F4F0E948212BC0184EC96E035
:102A70000E94EC12CE0107960E943A0FCE010196F9
:102A80000E943A0FCE010D960E943A0FCE01439656
:102A90000E943A0F68960FB6F894DEBF0FBECDBF06
:102AA000DF91CF911F910F910895803399F7CE0157
:102AB0000D960E94791424E030E050E040E064EC90
:102AC00076E0CE0101960E941D1380CF0E94DA06A7
:102AD0006093550470935604809357049093580460
:102AE00080915404882309F44FC0209152043091FE
:102AF0005304C901880F991F21313105A1F1FC014F
:102B0000E95CFE4F4081518141505109518340831E
:102B1000DC01A95CBE4F6D917C911197FC01ED53D6
:102B2000FD4F40815181641775073CF4FC01E55865
:102B3000FD4F408151814D935C932031310509F562
:102B4000209157013091580121303105B9F420E826
:102B500020939404895C9E4FFC0160817181809177
:102B6000A4040C94C6144091590150915A014C5040
:102B7000510950935A0140935901CACF10929404BD
:102B8000E9CF2930310531F708950E94DA066093C4
:102B90005504709356048093570490935804809181
:102BA0005404882309F444C0209152043091530402
:102BB000C901880F991F2131310561F1FC01E95CE0
:102BC000FE4F408151814F5F5F4F51834083DC0155
:102BD000A95CBE4F6D917C911197FC01E558FD4FAA
:102BE00040815181461757073CF4FC01ED53FD4FDE
:102BF000408151814D935C9320313105B1F41092A5
:102C00009404895C9E4FFC01608171818091A404D1
:102C10000C94C6144091590150915A01445F5F4F82
:102C200050935A0140935901D2CF2930310549F7C9
:102C300008950F931F93CF93DF93CDB7DEB76897B7
:102C40000FB6F894DEBF0FBECDBF8C018091590145
:102C500090915A01489709F048C00E944009BC0170
:102C6000CE0143960E9479140E944809BC01CE010E
:102C70000D960E9479140E945009BC01CE01019664
:102C80000E947914BE016F5F7F4FCE0107960E94AC
:102C90000313BE01635F7F4FCE0107960E9482122D
:102CA000BE016D5E7F4F0E948212BC01C8010E946E
:102CB0000313CE0107960E943A0FCE0101960E949F
:102CC0003A0FCE010D960E943A0FCE0143960E9414
:102CD0003A0FC80168960FB6F894DEBF0FBECDBF9D
:102CE000DF91CF911F910F9108950E944009BC017F
:102CF000CE0143960E9479140E944809BC01CE017E
:102D00000D960E9479140E94E7070E942D08809179
:102D100003056CE070E0882309F4B0CF682F70E001
:102D20008D3008F4ABCF6C507109A8CF8F929F9271
:102D3000AF92BF92CF92DF92EF92FF920F931F93C9
:102D4000CF93DF93CDB7DEB72C970FB6F894DEBFE5
:102D50000FBECDBF8C016A017B0180917E04811181
:102D600011C00E94DA06645B7B4F8F4F9F4F6093C8
:102D70007A0470937B0480937C0490937D0481E0BB
:102D800080937E0480917204811109C062E173E036
:102D90008CE694E00E940C1381E0809372040E9400
:102DA000DA0680907A0490907B04A0907C04B09026
:102DB0007D04681979098A099B09693E7340810578
:102DC000910508F4D0C00E94DA0660937A047093EB
:102DD0007B0480937C0490937D0420E030E0A90183
:102DE000C701B6010E94C63020E030E040E05FE35A
:102DF00087FDD2C0C701B6010E9424300E949030E6
:102E00007B0177FF04C0EE24FF24E61AF70A5B017A
:102E100039E1A31A3CEFB30A80915B0190915C0108
:102E20009B012D593F4F69012A5531094901B701CD
:102E3000892B09F0B6C0CE0107960E94C01267E147
:102E400073E0CE0101960E940C13BE01695F7F4FB3
:102E5000CE0101960E94821267E173E00E946C121B
:102E6000BC018CE694E00E94EC12CE0101960E9417
:102E70003A0FCE0107960E943A0F3FECA31637E0B7
:102E8000B30618F5B701CE0107960E94C01266E19D
:102E900073E0CE0101960E940C13BE01695F7F4F63
:102EA000CE0101960E94821267E173E00E946C12CB
:102EB000BC018CE694E00E94EC12CE0101960E94C7
:102EC0003A0FCE0107960E943A0F87ECC816D1043C
:102ED00018F5B701CE0107960E94C01265E173E0B4
:102EE000CE0101960E940C13BE01695F7F4FCE0197
:102EF00001960E94821267E173E00E946C12BC018D
:102F00008CE694E00E94EC12CE0101960E943A0FEA
:102F1000CE0107960E943A0F23E18216910418F51C
:102F2000B701CE0107960E94C01264E173E0CE01A2
:102F300001960E940C13BE01695F7F4FCE0101967E
:102F40000E94821267E173E00E946C12BC018CE661
:102F500094E00E94EC12CE0101960E943A0FCE013D
:102F600007960E943A0F6CE674E0C8010E940313B2
:102F7000C8012C960FB6F894DEBF0FBECDBFDF910F
:102F8000CF911F910F91FF90EF90DF90CF90BF9066
:102F9000AF909F908F900895C701B6010E94233093
:102FA0002DCFCE0107960E94C01267E173E0CE01DB
:102FB00001960E940C13BE01695F7F4FCE010196FE
:102FC0000E94821267E173E00E946C12BC018CE6E1
:102FD00094E00E94EC12CE0101960E943A0FCE01BD
:102FE00007960E943A0F3FECA31637E0B30638F578
:102FF000C7016AE070E00E94EB30CE0107960E94A4
:10300000C01266E173E0CE0101960E940C13BE016E
:10301000695F7F4FCE0101960E94821266E173E0E4
:103020000E946C12BC018CE694E00E94EC12CE016E
:1030300001960E943A0FCE0107960E943A0F87EC44
:10304000C816D10438F5C7016AE070E00E94EB3081
:10305000CE0107960E94C01265E173E0CE01019691
:103060000E940C13BE01695F7F4FCE0101960E9442
:10307000821266E173E00E946C12BC018CE694E05F
:103080000E94EC12CE0101960E943A0FCE010796E3
:103090000E943A0F23E18216910408F064CFC70121
:1030A0006AE070E00E94EB30CE0107960E94C012E9
:1030B00064E173E0CE0101960E940C13BE01695FCA
:1030C0007F4FCE0101960E94821266E173E03CCFF1
:1030D00085ED8093BC008091840590918505A09139
:1030E0008605B09187050796A11DB11D23E0B69511
:1030F000A795979587952A95D1F72091BC0024FD37
:1031000003C0109282050895409184055091850571
:103110006091860570918705452B462B472B69F3F7
:103120000097A105B10541F025E32A95F1F70000CC
:103130000197A109B109E1CF809183050C940C0A94
:103140000C94C42F0C94BC2F8F929F92AF92BF927D
:10315000CF92DF92EF92FF920F931F93CF93DF9363
:1031600088E090E00E94A218C82FC82ED12C89E0D8
:1031700090E00E94A218882EE82EF12C8AE090E0C0
:103180000E94A218082F10E0912CB12CA12CBA2C6F
:10319000A92C982C8824AC2A882AD0E0C0E0B5015C
:1031A000A401CE010E94CB002196C830D105B9F709
:1031B0000E94C9058AE790E00E94E7020E94900FF2
:1031C00085E790E00E94E702C6010E94980F8EE614
:1031D00090E00E94E702C7010E94980F88E690E005
:1031E0000E94E702C801DF91CF911F910F91FF90DC
:1031F000EF90DF90CF90BF90AF909F908F900C9406
:10320000980F8F929F92AF92BF92CF92DF92EF92E0
:10321000FF920F931F93CF93DF93CDB7DEB7EC9759
:103220000FB6F894DEBF0FBECDBF0E94DA0620E1D4
:1032300037E240E050E00E94FF30672B682B692B9B
:1032400001F5809138058823E1F00E94A70EE090F7
:103250003605F09037050091340510913505209121
:103260003205309133054091390550913A0560910E
:1032700030057091310580912E0590912F050E94A7
:103280000B0710924B0410924A04109249041092BA
:103290004804109247041092460400912C051091A6
:1032A0002D05F8018081882309F405C10E94DA0602
:1032B000C090EC03D090ED03E090EE03F090EF03AC
:1032C0006C197D098E099F09C090E803D090E9032D
:1032D000E090EA03F090EB03C616D706E806F9067D
:1032E00008F0E9C00E94DA064B015C018092EC0311
:1032F0009092ED03A092EE03B092EF03680130E0EC
:1033000020E04AE0F801F1908F0180ED8F0D8A30C6
:1033100070F4429FC001439F900D11242F2DFF0C8C
:10332000330B20533109280F391F6F01EBCF309336
:1033300051042093500460914C0470914D0480918D
:103340004E0490914F042115310501F1032E000C1C
:10335000440B550B0E9421312093E8033093E9037D
:103360004093EA035093EB03EFE9EF0DE730A0F44D
:103370000E2E000CFF0BE154F64E0C944031471D0D
:10338000491D3B1D3F1D411D431D451D209133011E
:1033900030E050E040E0DECF1092E703F60181819B
:1033A000833241F48091E7038F5F8093E7038601C6
:1033B0000E5F1F4FF80180818E32F1F4C090E80358
:1033C000D090E903E090EA03F090EB03C701B60167
:1033D00022E030E040E050E00E942131C20ED31ED6
:1033E000E41EF51EC092E803D092E903E092EA03DE
:1033F000F092EB030F5F1F4FF801808180538A30FA
:1034000008F049C38093E6030F5F1F4FF8018081E6
:103410008C3211F40F5F1F4FE091E703EE2309F4A4
:103420004AC0C090E803D090E903E090EA03F0902E
:10343000EB038091E6038450990B4CE0489F900188
:10344000499F300D1124E20FF32FF11DEE0FFF1FE6
:10345000E358FE4FB701A601808191810E94DE03EF
:103460000E94DA06681979098A099B09C616D706E7
:10347000E806F90600F50E94DA066093EC03709303
:10348000ED038093EE039093EF038091B9058130B3
:1034900009F406C3823009F409C3811105C0809183
:1034A0006E008D7F80936E0060E08091B8050E9471
:1034B000740310E000E010932D0500932C050E948A
:1034C000DA060091420410914304209144043091A3
:1034D0004504601B710B820B930B693271058105EA
:1034E0009105F8F08091B905813009F4E5C2823088
:1034F00009F4E5C2811105C080916E008695817046
:1035000031F4809136018111DDC20E946C0C0E9461
:10351000DA066093420470934304809344049093CA
:1035200045048091520490915304892B21F080919D
:1035300041048111DBC1809154048111D7C1809174
:10354000060481110DC00E94DA0660930204709394
:103550000304809304049093050481E0809306049F
:103560008091FA0381110DC00E94DA066093F60380
:103570007093F7038093F8039093F90381E08093AD
:10358000FA030E94DA0600910204109103042091CC
:10359000040430910504601B710B820B930B0091A6
:1035A00000011091010120910201309103010617E1
:1035B00017072807390708F04DC00E94DA06609304
:1035C0000204709303048093040490930504809193
:1035D000F4039091F503009709F0F8C281E090E0C0
:1035E000909353048093520488E893E1A0E0B0E004
:1035F0008093000190930101A0930201B093030115
:103600008091F4039091F5038230910581F410923A
:1036100053041092520440E65AEE60E070E040938A
:103620000001509301016093020170930301019620
:10363000833091050CF0EAC29093F5038093F40374
:1036400080914104882321F0109253041092520477
:10365000109241040E94DA060091020410910304C2
:103660002091040430910504601B710B820B930BB5
:10367000603D77408105910508F09AC30E94DA0603
:103680000091F6031091F7032091F8033091F903AC
:10369000601B710B820B930B6536710581059105DB
:1036A00008F424C10E94DA066093F6037093F703CE
:1036B0008093F8039093F9038091520490915304FE
:1036C00020912305222309F4A6C2892B89F5CE0176
:1036D00049960E94191681E020915B0130915C01AE
:1036E000232B09F480E00E94300DAB01BC01CE0118
:1036F00001960E949616AE01475E5F4FBE016F5F56
:103700007F4FCE014F960E946913BE01615E7F4FCD
:1037100084EC96E00E94DF11CE014F960E943A0F92
:10372000CE0101960E943A0FCE0149960E943A0FAF
:103730008091520490915304019709F062C00E9455
:10374000260968EE73E00E94EB30BC01CE018B9637
:103750000E9479140E943009BC01CE0185960E9416
:1037600079140E943809BC01CE0149960E9479144F
:10377000BE01675E7F4FCE014F960E940313BE01CC
:103780006B5D7F4FCE014F960E948212BE01655D38
:103790007F4F0E948212BC01CE01C1960E9403138A
:1037A000CE0101960E941916AE014F5C5F4FBE011B
:1037B0006F5F7F4FCE01C7960E946913BE01695C9F
:1037C0007F4F84EC96E00E94DF11CE01C7960E94E5
:1037D0003A0FCE0101960E943A0FCE01C1960E9487
:1037E0003A0FCE014F960E943A0FCE0149960E94A1
:1037F0003A0FCE0185960E943A0FCE018B960E9419
:103800003A0F8091520490915304049709F06EC0CE
:1038100081E020915B0130915C01232B09F480E071
:103820000E94300DAB01BC01CE01C1960E949616DC
:103830000E94260968EE73E00E94EB30BC01CE01C5
:1038400085960E9479140E943009BC01CE014F96E2
:103850000E9479140E943809BC01CE0101960E9491
:103860007914BE016F5F7F4FCE0149960E9403130A
:10387000BE01615E7F4FCE0149960E948212BE0159
:103880006B5D7F4F0E948212BC01CE018B960E941D
:103890000313AE014F5C5F4FBE01655D7F4FCE01EC
:1038A000C7960E946913BE01695C7F4F84EC96E065
:1038B0000E94DF11CE01C7960E943A0FCE018B966F
:1038C0000E943A0FCE0149960E943A0FCE0101960E
:1038D0000E943A0FCE014F960E943A0FCE01859674
:1038E0000E943A0FCE01C1960E943A0F0E94D40F57
:1038F0008BEA96E00E94580982E996E00E945809F6
:1039000089E796E00E94580980915404811153C2BE
:103910001092A4048091AB069091AC06181619067B
:103920003CF080914A0490914B04019709F088C3C0
:1039300081E08093410410922D0510922C0544E6FD
:1039400050E060E070E088EE93E00E94DE030E94A9
:10395000DA0660935504709356048093570490934D
:10396000580480915204909153040196853091053A
:1039700009F44EC2909353048093520480915204F0
:1039800090915304069721F410925304109252041C
:1039900020915204309153048901000F111FF80146
:1039A000E85FFE4F80818093A404D9011197FD0147
:1039B000EE0FFF1FE55DFD4F60817181611571059F
:1039C00009F42FC3AB0141505109FA01EE0FFF1F5B
:1039D000ED5FFD4F0190F081E02DAE17BF0709F0BC
:1039E00020C36230710509F016C288E1E5E6F1E016
:1039F000DE01119601900D928A95E1F780914F01B9
:103A00009091500183709927892B21F48DE190E0EA
:103A10009C838B8380914D0190914E010197880F7B
:103A2000991F21E030E02C0F3D1F820F931F209142
:103A30004B0130914C01FC018081918182179307E9
:103A40000CF0E9C18AE090E0909353048093520413
:103A5000EC960FB6F894DEBF0FBECDBFDF91CF91CD
:103A60001F910F91FF90EF90DF90CF90BF90AF909C
:103A70009F908F90089581E08093E7038FCC83E03F
:103A8000FBCF85E0F9CF86E0F7CF88E0F5CF8AE07D
:103A9000F3CF8CE0F1CF809132018093E603B6CC76
:103AA00080916F008D7F80936F00FECC80917000BD
:103AB0008D7F80937000F8CC80916F001FCD809136
:103AC00070001CCD80913B05811121CD0091F20346
:103AD0001091F303F801EE0FFF1FE00FF11FDF015C
:103AE000AA0FBB1FA152BE4F8D919C914AE0489FE7
:103AF0009001499F300D112480910601909107019A
:103B0000280F391F3093070120930601DF01AA0F08
:103B1000BB1FAF51BE4F8D919C91489FB001499FF3
:103B2000700D11248091370490913804860F971FEF
:103B30009093380480933704EE0FFF1FED51FE4F32
:103B400060817181469F6001479FD00C1124409194
:103B5000350450913604C40ED51ED0923604C0925E
:103B60003504D12CF12CE22ED82AB12CA12CB7018E
:103B7000A601C5010E94CB00FFEFAF1ABF0A28E0E3
:103B8000A216B104A1F70E94C9058091F00390919B
:103B9000F10301969093F1038093F003499751F458
:103BA0000F5F1F4F1093F3030093F2031092F10382
:103BB0001092F0038091F2039091F30306970CF4B6
:103BC000A6CC1092F3031092F203A1CC019709F056
:103BD00017CD84E090E0909353048093520488E8DA
:103BE00093E1A0E0B0E08093000190930101A093E5
:103BF0000201B093030180912305811100C782E087
:103C000090E09093F5038093F403FACC1092F503BF
:103C10001092F40315CD892B09F062C0CE01C19634
:103C20000E9419160E94260968EE73E00E94EB308C
:103C3000BC01CE0185960E9479140E943009BC0116
:103C4000CE014F960E9479140E943809BC01CE0122
:103C500001960E947914BE016F5F7F4FCE01499695
:103C60000E940313BE01615E7F4FCE0149960E9400
:103C70008212BE016B5D7F4F0E948212BC01CE0199
:103C80008B960E940313AE014F5C5F4FBE01655DD2
:103C90007F4FCE01C7960E946913BE01695C7F4FBA
:103CA00084EC96E00E94DF11CE01C7960E943A0F85
:103CB000CE018B960E943A0FCE0149960E943A0F90
:103CC000CE0101960E943A0FCE014F960E943A0F04
:103CD000CE0185960E943A0FCE01C1960E943A0FFE
:103CE0008091520490915304019709F0FFCD0E94F6
:103CF000260968EE73E00E94EB30BC01CE018B9682
:103D00000E9479140E943009BC01CE0185960E9460
:103D100079140E943809BC01CE0149960E94791499
:103D2000BE01675E7F4FCE014F960E940313BE0116
:103D30006B5D7F4FCE014F960E948212BE01655D82
:103D40007F4F0E948212BC01CE01C1960E940313D4
:103D5000CE0101960E941916AE014F5C5F4FBE0165
:103D60006F5F7F4FCE01C7960E946913BE01695CE9
:103D70007F4F84EC96E00E94DF11CE01C7960E942F
:103D80003A0FCE0101960E943A0FCE01C1960E94D1
:103D90003A0FCE014F960E943A0FCE0149960E94EB
:103DA0003A0FCE0185960E943A0FCE018B969CCD9C
:103DB00010926B049BCD0E94DA060091550410917D
:103DC00056042091570430915804601B710B820BEC
:103DD000930B61367A4E8105910508F49BCD1092C4
:103DE0005404E0915204F0915304EE0FFF1FED5A7A
:103DF000FD4F808191819093530480935204880FEA
:103E0000991FFC01E85FFE4F80818093A40482CD5E
:103E100086E090E0AFCD1092540450935304409349
:103E20005204452BB9F40E9426097C010E943009F6
:103E30008C010E94380940914701509148016091DE
:103E40004501709146019C0180914301909144018C
:103E50000E940B078091520490915304019719F529
:103E6000E0904F01F0905001F0E3EF1AF8EFFF0AF5
:103E700000914D0110914E0180904B0190904C01AA
:103E80000E9440095C010E9448096C010E9450098F
:103E90009401A501B6010E940B07609149018DE0D4
:103EA00090E00E94A01880915204909153040297D0
:103EB000C1F46091510182E090E00E94A0186091ED
:103EC000530183E090E00E94A0186091550184E0C6
:103ED00090E00E94A0186091570186E090E00E9457
:103EE000A0188091520490915304039731F460918B
:103EF000590181E090E00E94A018809152049091B5
:103F00005304049731F460915B018BE090E00E94D0
:103F1000A0188091520490915304059739F4609150
:103F20005D01645F8CE090E00E94A0180E94260969
:103F300068EE73E00E94EB30082F0E943009F82EE3
:103F40000E943809E82E0E944009B82E0E944809B4
:103F5000C82E0E945009D82E81E08093880588E6FB
:103F60008093AA05109289051092AB0560E087E561
:103F700096E00E943A0C1AE08B2D612F0E94CB3004
:103F80008295807F682F690F87E596E00E943A0C42
:103F90008C2D612F0E94CB308295807F682F690F16
:103FA00087E596E00E943A0C8D2D612F0E94CB3060
:103FB0008295807F682F690F87E596E00E943A0C12
:103FC00061E087E596E00E943A0C8E2D612F0E94F9
:103FD000CB308295807F682F690F87E596E00E943D
:103FE0003A0C8F2D612F0E94CB308295807F682FF5
:103FF000690F87E596E00E943A0C802F612F0E949E
:10400000CB308295807F682F690F87E596E00E940C
:104010003A0C60E087E596E00E943A0C0E942D0A77
:1040200017CD2331310561F0295031092230310596
:1040300038F00E942614F801E95CFE4F91838083DA
:104040008091AB069091AC0697FD07C080914A0421
:1040500090914B04019609F0F3C044E650E060E013
:1040600070E088EE93E00E94DE0380915404811199
:104070004DC000915204109153040E94DA066093DF
:104080005504709356048093570490935804012B61
:10409000E9F50E944009BC01CE0185960E94791481
:1040A0000E944809BC01CE014F960E9479140E94DB
:1040B0005009BC01CE0101960E947914BE016F5FC8
:1040C0007F4FCE0149960E940313BE01615E7F4F70
:1040D000CE0149960E948212BE016B5D7F4F0E9405
:1040E0008212BC0184EC96E00E94EC12CE0149964B
:1040F0000E943A0FCE0101960E943A0FCE014F96D0
:104100000E943A0FCE0185960E943A0F8091520488
:1041100090915304019709F05AC00E943809909376
:104120004C0180934B010E94300990934E01809383
:104130004D010E94260968EE73E00E94EB30BC013D
:104140009093500180934F018091490190914A01D1
:10415000892B09F099C1CE0185960E94791460914E
:104160004D0170914E01CE014F960E9479146091DD
:104170004B0170914C01CE0101960E947914BE0151
:104180006F5F7F4FCE0149960E940313BE01615EAF
:104190007F4FCE0149960E948212BE016B5D7F4F18
:1041A0000E948212BC0184EC96E00E94EC12CE01C7
:1041B00049960E943A0FCE0101960E943A0FCE0115
:1041C0004F960E943A0FCE0185960E943A0FE091D9
:1041D0005204F0915304EE0FFF1FED5AFD4F208162
:1041E000318130935304209352042D30310549F42A
:1041F00081E090E0909358018093570180E880938C
:1042000094048091540491E0892780935404890197
:10421000000F111FF801E85FFE4F80818093A40416
:10422000A901425151094230510550F02930310560
:1042300039F00E942614F801E95CFE4F91838083D7
:104240008091920690919306009709F02EC180917B
:104250004804909149040197E1F481E0809341047E
:1042600010922D0510922C0544E650E060E070E0BD
:1042700088EE93E00E94DE030E94C51580915404ED
:10428000811107C010923B0560E087E090E00E943A
:10429000A01880913F0490914004019609F00EC14E
:1042A00080919406882309F409C11092A604809194
:1042B00054048823F9F00E94DA0600913B0410911F
:1042C0003C0420913D0430913E04601B710B820B35
:1042D000930B673971058105910560F00E94DA063C
:1042E00060933B0470933C0480933D0490933E04A0
:1042F0000E94C5158091790690917A06009709F081
:10430000E1C08091460490914704019771F511E056
:104310001093410410922D0510922C0544E650E0B4
:1043200060E070E088EE93E00E94DE030E94661574
:1043300080915404811119C010933B0561E087E01E
:1043400090E00E94A0186091060188E090E00E9431
:10435000A0186091370489E090E00E94A018609155
:1043600035048AE090E00E94A01880913904909171
:104370003A04019609F0AFC080917B06882309F4C6
:10438000AAC0809154041092A504882321F10E94B0
:10439000DA060091310410913204209133043091F7
:1043A0003404601B710B820B930B67397105810517
:1043B000910508F449C00E94DA06609331047093B5
:1043C000320480933304909334040E9466158091E4
:1043D0005404811139C0809192069091930697FD03
:1043E00006C08091480490914904019691F444E6F6
:1043F00050E060E070E088EE93E00E94DE0381E030
:104400008093360161E090E080E00E94A0180E9455
:10441000A4188091790690917A0697FD06C0809144
:10442000460490914704019679F444E650E060E038
:1044300070E088EE93E00E94DE031092360160E0A7
:1044400090E080E00E94A018E0915204F0915304A3
:10445000E431F10508F0FCCAE05DFD4D0C944031FB
:104460006F22A0229D23E52310245224281D281DFD
:10447000281D7F24A724A724A724281D281D281D24
:10448000281D281D10245224CE0185960E947914DF
:1044900060914B0170914C01CE014F960E947914AE
:1044A00060914D0170914E0166CE909340048093CF
:1044B0003F04181619060CF4D0CEC9CE81E08093C3
:1044C000A60418CF90933A0480933904181619065D
:1044D0000CF41DCF16CF81E08093A50478CF809196
:1044E0006B0481111EC00E9440092091040130918B
:1044F000050182179307E9F00E9440099093050196
:1045000080930401CE0101960E941916BE016F5FCF
:104510007F4F84EC96E00E94DF11CE0101960E944D
:104520003A0F0E94400980FD76C180EC809394048C
:1045300074C164EC76E0CE0101960E940313E6CFCD
:1045400080916B048111E2C080912904811111C016
:104550000E94DA0667517C4F8F4F9F4F609325046E
:1045600070932604809327049093280481E080931D
:10457000290480911D04811144C00E94260968EE1F
:1045800073E00E94EB30BC01CE0101960E947914C9
:104590000E943009BC01CE0149960E9479140E9404
:1045A0003809BC01CE0185960E947914BE016B5D6D
:1045B0007F4FCE014F960E940313BE01675E7F4F6F
:1045C000CE014F960E948212BE016F5F7F4F0E9404
:1045D0008212BC0187E194E00E94031381E0809382
:1045E0001D04CE014F960E943A0FCE0185960E947F
:1045F0003A0FCE0149960E943A0FCE0101960E94D1
:104600003A0F0091490110914A0180910F048111E4
:1046100005C000930E0481E080930F040E94DA0627
:10462000C0902504D0902604E0902704F090280440
:104630006C197D098E099F09693E734081059105BA
:1046400030F480910E048017110609F44EC00E94C8
:10465000DA066093250470932604809327049093D0
:104660002804012B09F054C00E94260968EE73E06B
:104670000E94EB30BC01CE0101960E9479140E9489
:104680003009BC01CE0149960E9479140E94380974
:10469000BC01CE0185960E947914BE016B5D7F4FEF
:1046A000CE014F960E940313BE01675E7F4FCE017D
:1046B0004F960E948212BE016F5F7F4F0E9482124E
:1046C000BC0187E194E00E94EC12CE014F960E945B
:1046D0003A0FCE0185960E943A0FCE0149960E946C
:1046E0003A0FCE0101960E943A0F67E174E0CE01C5
:1046F00001960E940313BE016F5F7F4F84EC96E02A
:104700000E94DF11CE0101960E943A0F80E40ECF85
:104710000E94260968EE73E00E94EB30BC01CE01D6
:1047200001960E9479140E943809BC01CE01499675
:104730000E9479140E943009ABCF609155017091AD
:104740005601CE0185960E947914609153017091B3
:104750005401CE014F960E947914609151017091DD
:104760005201CE0101960E947914BE016F5F7F4F06
:10477000CE0149960E940313BE01615E7F4FCE01B8
:1047800049960E948212BE016B5D7F4F0E94821289
:10479000BC0184EC96E00E94EC12CE0149960E9486
:1047A0003A0FCE0101960E943A0FCE014F960E9419
:1047B0003A0FCE0185960E943A0F80915701909151
:1047C0005801019741F580E8B1CE6091590170918F
:1047D0005A01CE0149960E94C01266E173E0CE01F3
:1047E00001960E940C13BE01675E7F4FCE010196B9
:1047F0000E94821266E173E00E946C12BC0184EC9C
:1048000096E00E94EC12CE0101960E943A0FCE0172
:1048100049960E943A0F109294040E94C90D18C93B
:1048200080916B04811138C081E020915B0130914F
:104830005C01232B09F480E00E94300D6B017C01A8
:10484000BC01A601CE0101960E949616BE016F5FC3
:104850007F4F84EC96E00E94DF11CE0101960E940A
:104860003A0F80915B0190915C01892B91F480E477
:10487000809394041091940420E030E0A901C701D2
:10488000B6010E94982E87FF07C010681093940409
:10489000DFC810929404EECF809194048F778093B8
:1048A0009404D6C860915D0170915E01CE010196BD
:1048B0000E947914BE016F5F7F4FCE0149960E941E
:1048C000031364E173E0CE0149960E946C12BC01AF
:1048D00084EC96E00E94EC12CE0149960E943A0FB9
:1048E000CE0101960E943A0F80915D0190915E0188
:1048F00097FD03C010929404ABC880E8D0CF80919C
:10490000490190914A01892B99F469E173E084ECA3
:1049100096E00E94B61283E090E090931D01809390
:104920001C018CE090E090931F0180931E0190C8C1
:1049300060E273E084EC96E00E94B6128CE090E0B6
:1049400090931D0180931C0183E090E0ECCF609177
:104950004F01709150018091490190914A01892B3A
:10496000E9F5CE0185960E94791460914D01709110
:104970004E01CE014F960E94791460914B017091C7
:104980004C01CE0101960E947914BE016F5F7F4FEA
:10499000CE0149960E940313BE01615E7F4FCE0196
:1049A00049960E948212BE016B5D7F4F0E94821267
:1049B000BC0184EC96E00E94EC12CE0149960E9464
:1049C0003A0FCE0101960E943A0FCE014F960E94F7
:1049D0003A0FCE0185960E943A0F3AC8CE018596CD
:1049E0000E94791460914B0170914C01CE014F9659
:1049F0000E94791460914D0170914E01C2CF81E007
:104A000090E00C94171B1F920F920FB60F92112477
:104A10002F933F934F935F936F937F938F939F93C6
:104A2000AF93BF93EF93FF938AEB95E00E947802D8
:104A3000FF91EF91BF91AF919F918F917F916F9176
:104A40005F914F913F912F910F900FBE0F901F904C
:104A500018951F920F920FB60F9211242F938F93D8
:104A60009F93EF93FF93E091CA05F091CB0580816E
:104A7000E091D005F091D10582FD1BC0908180911D
:104A8000D3058F5F8F732091D405821741F0E09199
:104A9000D305F0E0E654FA4F958F8093D305FF914C
:104AA000EF919F918F912F910F900FBE0F901F90BC
:104AB00018958081F4CF1F920F920FB60F92112498
:104AC0002F933F938F939F93AF93BF93809109054B
:104AD00090910A05A0910B05B0910C053091080545
:104AE00023E0230F2D3758F50196A11DB11D20930A
:104AF00008058093090590930A05A0930B05B093D0
:104B00000C0580910D0590910E05A0910F05B091B7
:104B100010050196A11DB11D80930D0590930E0502
:104B2000A0930F05B0931005BF91AF919F918F9106
:104B30003F912F910F900FBE0F901F90189526E870
:104B4000230F0296A11DB11DD2CF1F920F920FB657
:104B50000F9211242F933F938F939F93AF93BF9303
:104B6000EF93FF938091AC059091AD05A091AE05B8
:104B7000B091AF050097A105B10531F13091150550
:104B8000E0911605F0911705208123272083181640
:104B900019061A061B061CF40197A109B109809396
:104BA000AC059093AD05A093AE05B093AF05FF9112
:104BB000EF91BF91AF919F918F913F912F910F9066
:104BC0000FBE0F901F901895209170002D7F20939D
:104BD000700020911505E0911605F09117053081C0
:104BE000209523232083DBCF1F920F920FB60F92C5
:104BF00011248F939F93AF93BF93EF93FF93809173
:104C0000B0059091B105A091B205B091B305892B83
:104C10008A2B8B2BA1F190911805E0911905F09149
:104C20001A058081892780838091B0059091B10514
:104C3000A091B205B091B305181619061A061B0605
:104C40009CF48091B0059091B105A091B205B0910E
:104C5000B3050197A109B1098093B0059093B105FF
:104C6000A093B205B093B305FF91EF91BF91AF91BF
:104C70009F918F910F900FBE0F901F90189580916C
:104C80006F008D7F80936F0080911805E09119056A
:104C9000F0911A059081809589238083E5CF1F923A
:104CA0000F920FB60F9211248F939F93AF93BF93E0
:104CB000EF93FF938091B4059091B505A091B6054F
:104CC000B091B705892B8A2B8B2BA1F190911B05F5
:104CD000E0911C05F0911D058081892780838091DA
:104CE000B4059091B505A091B605B091B705181619
:104CF00019061A061B069CF48091B4059091B5051F
:104D0000A091B605B091B7050197A109B1098093AB
:104D1000B4059093B505A093B605B093B705FF9180
:104D2000EF91BF91AF919F918F910F900FBE0F9018
:104D30001F90189580916E008D7F80936E008091FA
:104D40001B05E0911C05F0911D059081809589233C
:104D50008083E5CF1F920F920FB60F9211242F93ED
:104D60003F934F935F936F937F938F939F93AF93F3
:104D7000BF93EF93FF938091B900887F803609F449
:104D80004AC0F0F5883209F4A7C018F5803109F45B
:104D90009BC0B8F4882309F4F9C0883009F494C0A2
:104DA000FF91EF91BF91AF919F918F917F916F9103
:104DB0005F914F913F912F910F900FBE0F901F90D9
:104DC0001895883109F488C0803251F780938005A6
:104DD00014C0803409F49DC040F48033B9F38833A3
:104DE000F9F68093800585ECB0C0803509F485C064
:104DF000883509F496C0883499F60E946818D0CF97
:104E0000883909F48CC038F5883729F050F4883691
:104E100011F0803729F683E0809382051092EE042A
:104E200057C0883809F47BC0803919F0803809F000
:104E3000B7CF8091EE04803208F071C0E091EE04AB
:104E400081E08E0F8093EE048091BB00F0E0E2538E
:104E5000FB4F80833DC0803B39F0E0F4803A09F499
:104E600079C0883A09F09CCF84E080938205109243
:104E7000CD041092CC04E0911305F091140509952E
:104E80008091CC0481110FC081E08093CC041092FA
:104E9000AC0409C0803C09F4A6CF883C09F4A3CF38
:104EA000883B09F07DCFE091CD0481E08E0F8093A7
:104EB000CD04F0E0E455FB4F80818093BB009091DE
:104EC000CD048091CC0429C080915D058093BB0006
:104ED00085EC8093BC0064CF90917F0580917E0526
:104EE000981758F5E0917F0581E08E0F80937F053C
:104EF000F0E0E25AFA4F8081E9CFE0917F0581E04E
:104F00008E0F80937F058091BB00F0E0E25AFA4F4C
:104F1000808390917F0580917E059817C8F285E87F
:104F2000D8CFE0917F0581E08E0F80937F0580913F
:104F3000BB00F0E0E25AFA4F808380918105811135
:104F40005CCF81E080935C0584EA8093BC00109282
:104F5000820526CF85EC8093BC001092820580915B
:104F6000EE04803230F4E091EE04F0E0E253FB4FC7
:104F700010826091EE0470E0E0911105F09112054D
:104F80008EEC94E009951092EE040ACF1092800501
:104F900034CFCF93DF93EC01862F6F87188A91E08F
:104FA000998B9A8B1C8A1B8A198218821A821D8AF5
:104FB0001E8A1F8A188E44E150E060E070E04B8347
:104FC0005C836D837E834AEF50E060E070E04F8346
:104FD000588769877A8748EE53E060E070E04B8736
:104FE0005C876D877E8760E00E94A20388898111BB
:104FF00006C061E08F85DF91CF910C947403DF913F
:10500000CF9108951092BD051092BC0588EE93E0F3
:10501000A0E0B0E08093BE059093BF05A093C005CB
:10502000B093C1052FEE32E03093BB052093BA0553
:1050300025EC30E03093C7052093C60524EC30E022
:105040003093C9052093C80520EC30E03093CB05A0
:105050002093CA0521EC30E03093CD052093CC0598
:1050600022EC30E03093CF052093CE0526EC30E0E3
:105070003093D1052093D0051092D3051092D4051A
:105080001092D5051092D60510925A061092590624
:1050900080935B0690935C06A0935D06B0935E06DA
:1050A00081E093E0909358068093570667E273E09F
:1050B00088ED96E00E940C1360E087E00E94A20356
:1050C000E0E3F1E0E491E093CA06ECE1F1E0E49181
:1050D000F0E0EE0FFF1FE55FFE4F859194919093F6
:1050E000CC068093CB061092D5061092D70610926C
:1050F000D6061092D4061092D3061092D2061092C1
:10510000D1061092D0061092CF061092CE061092C1
:10511000CD0662E173E084EC96E00E940C136EE031
:105120008BEA96E00E94C92760E182E996E00E943E
:10513000C9276FE089E796E00E94C92710926406AC
:1051400010926B06109272061092730610927406FB
:105150001092750681E08093710680936E0610921E
:105160006F0692E0909370068093630688E190E06A
:1051700090936806809367060E944E3190936D0667
:1051800080936C06009789F128E1FC0111922A9521
:10519000E9F788E090E0909366068093650686E0E4
:1051A00090E090936A068093690680916406882354
:1051B00041F061E086E00E94A20360E086E00E9488
:1051C0007403EBE1F1E0E491F0E0EE0FFF1FEF5F1D
:1051D000FE4F859194919093770680937606EFE247
:1051E000F1E0E491E0937806089510926806109239
:1051F00067061092660610926506D1CFCF93DF93B3
:10520000CDB7DEB7CE54D1090FB6F894DEBF0FBECE
:10521000CDBF789484B5826084BD84B5816084BD3F
:1052200085B5826085BD85B5816085BD80916E0044
:10523000816080936E001092810080918100826075
:1052400080938100809181008160809381008091B2
:1052500080008160809380008091B10084608093A1
:10526000B1008091B00081608093B00080917A009D
:10527000846080937A0080917A00826080937A00C3
:1052800080917A00816080937A0080917A008068B2
:1052900080937A001092C10010922205109221058D
:1052A000109289051092AB050E94EE0987EF91E0FC
:1052B000909314058093130588EF91E09093120565
:1052C00080931105E091CA05F091CB0582E08083BF
:1052D000E091C605F091C7051082E091C805F091F4
:1052E000C90580E180831092D205E091CE05F0914E
:1052F000CF0586E08083E091CC05F091CD058081DB
:1053000080618083E091CC05F091CD05808188603B
:105310008083E091CC05F091CD0580818068808309
:10532000E091CC05F091CD0580818F7D808381E077
:1053300090E00E94A2188C3009F41BC188E190E033
:1053400090935A018093590190E080E00E94A21846
:10535000882309F411C181E08093360182E090E056
:105360000E94A2188F3F09F00AC1109252011092B8
:10537000510183E090E00E94A2188F3F09F005C11F
:10538000109254011092530184E090E00E94A21800
:105390008F3F09F000C1109256011092550186E02E
:1053A00090E00E94A2188F3F09F0FBC010925801B4
:1053B0001092570187E090E00E94A2188F3F09F0F9
:1053C000F6C010923B058BE090E00E94A2188F3F40
:1053D00009F0F4C010925C0110925B018CE090E047
:1053E0000E94A2188F3F31F08C50990B90935E0170
:1053F00080935D018DE090E00E94A2188F3F29F01C
:1054000090E090934A018093490161E089E00E9415
:10541000A20361E086E00E94A20361E083E00E94B3
:10542000A20380911E05833008F03DC192E0909365
:10543000B805E82FF0E0EF55FF4FE491E093B90590
:105440008F5F80931E05E13009F4DFC008F4BCC013
:10545000E23009F401C180913401909135010E943C
:105460001E0E909335018093340161E08AE00E9422
:10547000A20362E088E00E94A20388E00E944B033E
:1054800021E0892B09F020E0209320051FB7F89434
:1054900080911F05811127C0EFE1F1E08491E3E3E2
:1054A000F1E09491E82FF0E0EE0FFF1FEC55FF4F75
:1054B000A591B491EC91E92321F461E08AE00E9486
:1054C000740361E08AE00E94A2038CB580618CBD08
:1054D0008CB580648CBD61E08DE00E94A20361E028
:1054E0008BE00E94A20380911F058F5F80931F05B0
:1054F0001FBF80912005882309F4D9C089E791E076
:105500000E943C018091690690916A0697FD08C04F
:1055100061E00E94A20360E0809169060E9474032A
:1055200081E08093640660916B06633309F4C7C021
:1055300020916C0630916D06615009F4BAC070E09C
:105540008FEF92E30E94D730F901409167065091A6
:105550006806CF01821B930B8417950708F0ACC037
:105560004081469FC001479F900D11249083319642
:10557000ECCF8CE090E0E4CE10923601EFCE90E0DC
:105580009093520180935101F4CE90E09093540196
:1055900080935301F9CE90E090935601809355018A
:1055A000FECE90E0909358018093570103CF91E095
:1055B000811101C090E090933B0505CF90E090935E
:1055C0005C0180935B010ACF14BC15BC84B582607A
:1055D00084BD85B5816085BD8091B80590E0FC01F2
:1055E000EB5EFE4FE491F0E0EE0FFF1FEF5FFE4F2A
:1055F0002591349130931D0520931C05FC01E75D36
:10560000FE4FE491E0931B0526CF1092800010928C
:105610008100809181008860809381008091810069
:105620008160809381008091B80590E0FC01EB5E81
:10563000FE4FE491F0E0EE0FFF1FEF5FFE4F25916C
:10564000349130931A0520931905FC01E75DFE4F54
:10565000E491E0931805FFCE1092B0001092B100D3
:105660008091B00082608093B0008091B100816031
:105670008093B1008091B80590E0FC01EB5EFE4F95
:10568000E491F0E0EE0FFF1FEF5FFE4F25913491A4
:105690003093170520931605FC01E75DFE4FE4915A
:1056A000E0931505D8CE8FEF8093B905D4CE89E568
:1056B00026CF70E060E048CF83E380936B0662E022
:1056C0008EE00E94A20362E080E10E94A20362E0F9
:1056D0008FE00E94A20361E082E00E94A20304E145
:1056E00010E020E030E00093AE061093AF06209368
:1056F000B0063093B1064EE150E060E070E04093B8
:10570000B2065093B3066093B4067093B50680ED6D
:1057100097E0A0E0B0E08093B6069093B706A09320
:10572000B806B093B9060093950610939606209399
:105730009706309398064093990650939A06609383
:105740009B0670939C0680939D0690939E06A09363
:105750009F06B093A00600937C0610937D062093CD
:105760007E0630937F0640938006509381066093B7
:105770008206709383068093840690938506A09397
:105780008606B09387068EEE90E00E94E70225E041
:1057900030E042E050E068ED76E0CE0101967C0119
:1057A0000E941D1322E030E041E050E068ED76E019
:1057B000CE01875B9F4F0E941D13BE01675B7F4F29
:1057C000CE018D5B9F4F0E9403136EE273E0CE010A
:1057D0008D5B9F4F0E946C12B7010E948212FC01E8
:1057E00044815581608171818AEB95E00E94FA01C4
:1057F0000E94900FCE018D5B9F4F0E943A0FCE0109
:10580000875B9F4F0E943A0FC7010E943A0F07EC37
:1058100010E037E2D32EDA94DD2049F0F8016491EC
:105820008AEB95E00E949A020F5F1F4FF4CF0E940F
:10583000900F809134019091350190932D058093C4
:105840002C050E941E0E10E000E040E050E06FEFDB
:1058500070E0C8010E94CB000F5F1F4F0830110598
:10586000A1F70E94C90568EE73E080E090E00E9415
:10587000A80610E000E040E05FEF60E070E0C801E3
:105880000E94CB000F5F1F4F08301105A1F70E9447
:10589000C90568EE73E080E090E00E94A80610E081
:1058A00000E04FEF50E060E070E0C8010E94CB00E4
:1058B0000F5F1F4F08301105A1F70E94C90568EE60
:1058C00073E080E090E00E94A8060E946C0C62E108
:1058D00073E0C7010E940C1360E373E0CE010796EA
:1058E0000E940C1367E373E0CE010D960E940C1327
:1058F0006EE373E0CE0143960E940C1365E473E0FF
:10590000CE0149960E940C136CE473E0CE014F96D1
:105910000E940C1363E573E0CE0185960E940C1380
:105920006AE573E0CE018B960E940C1361E673E08A
:10593000CE01C1960E940C1368E673E0CE01C796B3
:105940000E940C1361E173E0CE01CD960E940C130E
:1059500068ED76E0CE01CD960E94EC120E94DA0648
:105960004B015C01F8EE8F0EF3E09F1EA11CB11CF1
:10597000712C1FEF94EFC92EDD24D39426E0622E04
:105980008FE00E944B03892B11F47724739480E1FC
:105990000E944B03892B09F4712C0E94DA066819C6
:1059A00079098A099B0996010D2C000C440B550BB3
:1059B00001E02617370748075907B0F40E94DA06B6
:1059C0004B015C01711001C01F5F1A3009F4BEC0A9
:1059D00008F0C1C001E0B701169D600D711D1124D2
:1059E00084EC96E00E94EC120E94D40F0111C8CF03
:1059F000C090D706C11004C00E94BE018111AEC084
:105A00001092D5061092D7061092D60681E08093A8
:105A1000880588E68093AA05109289051092AB0547
:105A200061E187E596E00E943A0C0E942D0A62E04F
:105A300088E60E94140B109222058093210587E5C9
:105A400096E00E94F30B182F8DEB90E00E94E70286
:105A5000812F012E000C990B0E94980F15501833BE
:105A6000C8F08EEA90E00E94E7020E94900F05E0E5
:105A700010E048EE53E060E070E088EE93E00E94B2
:105A8000DE0360ED77E080E090E00E94A806015020
:105A9000110979F78E010D5B1F4F06501109C801DE
:105AA0000E943A0FE016F106C1F780913B05811183
:105AB0000E94A4180E94A70E0091390510913A0582
:105AC0000E94DA066B017C0181E080933805112782
:105AD0008091390590913A050817190779F40E94C9
