:100000000C949A000C94C2000C94C2000C94C20090
:100010000C94C2000C94C2000C94C2000C9489266B
:100020000C94C2000C94C2000C94C2000C94D8260C
:100030000C94C2000C94C2000C9433270C94C200A0
:100040000C94E7250C94C2000C9457260C9431268E
:100050000C94C2000C94C2000C94C2000C94C20018
:100060000C948E270C94C200426C75653D0047527B
:1000700045454E3D005245443D005265616465640E
:100080002066726F6D20454550524F4D00020100B1
:100090004661756C74792052544321004E435333AA
:1000A00031382F35363820666F7220485720312E70
:1000B0007820485635313232206F7220485635321A
:1000C0003232004669726D776172652076657273AF
:1000D000696F6E3A200000000000240027002A000B
:1000E00000000008000201000003040700000000F7
:1000F0000000000000000000250028002B00000088
:10010000000023002600290004040404040404045D
:1001100002020202020203030303030301020408B2
:100120001020408001020408102001020408102061
:10013000E628682F11241FBECFEFD8E0DEBFCDBF69
:1001400027E0A4E1B4E001C01D92A732B207E1F7B5
:1001500014E0A0E0B1E0EAE4F9E602C005900D92F7
:10016000A431B107D9F710E0C9E9D0E004C0219764
:10017000FE010E949832C839D107C9F70E94E229CE
:100180000C9498340C9400008F929F92AF92BF927F
:10019000CF92DF92EF92FF92CF932091AA063091F7
:1001A000AB0682179307E8F54B01AA24BB24C82DA0
:1001B000C52ED62EE72EFF24BC2DA42F2091B006ED
:1001C000222361F0829E40011124C92D2C9D6001E3
:1001D0001124BD2D249FF0011124AF2FE091B6060C
:1001E000E090B106F090B2063091B306E31323C05D
:1001F0009C01220F331F820F931F8E0D9F1DE091D4
:10020000B306E80FF92FF11DC083E091B406E80FA3
:10021000F92FF11DB0832091B506820F911DFC01CD
:10022000A083CF91FF90EF90DF90CF90BF90AF90E1
:100230009F908F900895880F991F880F991F8E0D9A
:100240009F1D472F552766277727222349F030E047
:10025000249F7001259FF00C349FF00C11244F2D2A
:10026000E80FF92FF11D4083CACF8CBD9DBD0895C5
:1002700080910F07E0911007F0911107F894918198
:10028000982B91832281382F309523232283A7E056
:10029000B0E01197F1F7918193239183A3E2B0E04D
:1002A0001197F1F790817894EFECF0E03197F1F746
:1002B000982381E009F480E0089590910F07E09180
:1002C0001007F0911107292F209580FF14C0F89492
:1002D0008281822382838181892B8183A3E2B0E0A2
:1002E0001197F1F78281982B9283789487ED90E0B3
:1002F0000197F1F70895F8948281822382838181A6
:10030000892B8183AFEFB0E01197F1F78281982BB1
:10031000928378948FE090E0EBCF0F931F93CF936D
:10032000DF93082FC8E0D0E011E081E0902F912307
:1003300009F480E00E945D01110F2197B1F7F89454
:10034000E0911007F0911107918180910F0780953E
:1003500098239183E0911007F091110792818923EE
:1003600082837894DF91CF911F910F9108958091AE
:100370000F07E0911007F0911107F8949181282F51
:1003800020959223918378943DE743E050E03150EB
:1003900029F1DA011197F1F790819823C1F3F894CC
:1003A0009281922392839181982B91837894ABE7E9
:1003B000B7E01197F1F7F894918192239183A3E12B
:1003C000B1E01197F1F79081982381E009F080E086
:1003D0007894E3E6F6E03197F1F7089580E0089528
:1003E00091E09093CD058093EF051092CE05109289
:1003F000F0050895833081F028F4813099F082303F
:10040000A9F008958730A9F08830C9F08430B1F49C
:10041000809180008F7D03C0809180008F778093D2
:100420008000089584B58F7784BD089584B58F7D4D
:10043000FBCF8091B0008F778093B00008958091BA
:10044000B0008F7DF9CFCF93DF93282F30E0F901F3
:10045000E052FF4F8491F901E45EFE4FD491F9011F
:10046000E85FFE4FC491CC23A1F081110E94FA01F4
:10047000EC2FF0E0EE0FFF1FE250FF4FA591B4917B
:10048000EC91ED2381E090E009F480E0DF91CF91E1
:10049000089580E090E0FACF1F93CF93DF93282F49
:1004A00030E0F901E052FF4F8491F901E45EFE4F24
:1004B000D491F901E85FFE4FC491CC23A9F0162F27
:1004C00081110E94FA01EC2FF0E0EE0FFF1FEC50BB
:1004D000FF4FA591B4918FB7F894EC91111108C01A
:1004E000D095DE23DC938FBFDF91CF911F910895CC
:1004F000DE2BF8CFCF93DF9390E0FC01E45EFE4F5C
:100500002491885F9E4FFC0184918823C9F090E07C
:10051000880F991FFC01EA52FF4FA591B491FC018D
:10052000EC50FF4FC591D49161110DC09FB7F89465
:100530008C91209582238C938881282328839FBFC8
:10054000DF91CF910895623051F49FB7F8943C91B8
:10055000822F809583238C93E8812E2BEFCF8FB74A
:10056000F894EC912E2B2C938FBFEACF4F925F9291
:100570006F927F928F929F92AF92BF92CF92DF92B3
:10058000EF92FF920F931F93CF93DF9300D000D091
:100590001F92CDB7DEB72091FE0527FD2CC1498300
:1005A0005A836B837C838C0161E08091FD050E94FE
:1005B0007A028091FE058D834801B12CA12C8D7F9C
:1005C00009F031C160E072E18AE790E0A50198018D
:1005D0000E94793229013A017A01690191E0C91A30
:1005E000D108E108F108AFEFCA16D104E104F10423
:1005F00009F00CF4C7C060E472E48FE090E0A5015C
:1006000098010E94793269017A01B1E0CB1AD108D0
:10061000E108F1088D81823009F06AC082E09FEF25
:10062000C916D104E104F10409F00CF45EC160E9DB
:1006300070ED83E090E0A50198010E947932690194
:100640007A01A1E0CA1AD108E108F10883E0BFEFFE
:10065000CB16D104E104F10409F00CF446C168E4BE
:1006600078EE81E090E0A50198010E94793269015D
:100670007A0181E0C81AD108E108F10884E09FEF0F
:10068000C916D104E104F10409F00CF42EC164E2AE
:1006900074EF80E090E0A50194010E947932690135
:1006A0007A01B1E0CB1AD108E108F10885E09FEFAB
:1006B000C916D104E104F10409F008F416C162E19D
:1006C0007AE780E090E0A50194010E947932690107
:1006D0007A01B1E0CB1AD108E108F1088FEFC81612
:1006E000D104E104F10411F008F0F0C086E0FDC08F
:1006F0008FEFC816D104E104F10409F00CF491C0A5
:1007000068E478EE81E090E0A50198010E947932DA
:1007100069017A0191E0C91AD108E108F108AD81B7
:1007200084E0A111C4CF83E0AFEFCA16D104E10485
:10073000F10461F15CF162E17AE780E090E0A5010B
:1007400094010E94793269017A0181E0C81AD108C6
:10075000E108F10884E09FEFC916D104E104F10437
:10076000A9F0A0F0730162019AE0F594E794D794A0
:10077000C7949A95D1F7A1E0CA1AD108E108F10807
:1007800085E004C081E0AD81A111AFC095B5987F2F
:10079000892B85BD89819A81AB81BC812FEF3FEF89
:1007A000A901892B8A2B8B2B79F0D801AA0FBB1FAB
:1007B00029813A814B815C810E942A3128EE33E005
:1007C00040E050E00E9457329D81913009F45CC0B6
:1007D000923009F46BC091110EC0C7BC2093F9058B
:1007E0003093FA054093FB055093FC0580916E0011
:1007F000826080936E000F900F900F900F900F907B
:10080000DF91CF911F910F91FF90EF90DF90CF90EC
:10081000BF90AF909F908F907F906F905F904F9020
:10082000089582E0B0CF60E072E18AE790E0A50130
:1008300098010E94793269017A01B1E0CB1AD1089E
:10084000E108F10891E0C114D10481E0E806F10467
:1008500084F068E478EE81E090E0A50198010E94C0
:10086000793269017A0191E0C91AD108E108F108E9
:1008700093E0AD81A13009F08DCF80918100887F18
:10088000892B8093810086CFD0928900C092880006
:100890002093F5053093F6054093F7055093F8053E
:1008A00080916F00826080936F00A5CFC092B300EB
:1008B0002093F1053093F2054093F3055093F4052E
:1008C0008091700082608093700095CF7301620107
:1008D0008AE0F594E794D794C7948A95D1F7B1E06C
:1008E000CB1AD108E108F10887E09091B100987F18
:1008F000892B8093B1004ECF3FB7F89480917B0550
:1009000090917C05A0917D05B0917E0526B5A89BB0
:1009100005C02F3F19F00196A11DB11D3FBFBA2F91
:10092000A92F982F8827BC01CD01620F711D811D51
:10093000911D42E0660F771F881F991F4A95D1F7D6
:100940000895CF92DF92EF92FF920F931F93CF9370
:10095000DF93CDB7DEB729970FB6F894DEBF0FBE91
:10096000CDBF8091B1069091B206892B09F480C069
:10097000C090B706D090B806E090B906F090BA06DD
:100980000E947C046C157D058E059F0550F40E9425
:100990007C046093B7067093B8068093B906909371
:1009A000BA060E947C040091B7061091B806209107
:1009B000B9063091BA06601B710B820B930B6C3237
:1009C000714081059105A0F2F8948091AC06909158
:1009D000AD069A838983E091B106F091B206DF01FA
:1009E0001196808189879091A806E091BB06F091CD
:1009F000BC068091BD06992309F449C09081982BCB
:100A000098879081809589238F838F818C8388E05C
:100A10008B8358856F8149853B812C8189819A819F
:100A2000508347FD252F3A952083262F39F0441F08
:100A300000C000006083000000C0F2CF38E04D919C
:100A400060830000019761F7F093BC06E093BB065A
:100A500049873B832C839A83898378940E947C0402
:100A60006093B7067093B8068093B9069093BA0660
:100A700029960FB6F894DEBF0FBECDBFDF91CF91A0
:100A80001F910F91FF90EF90DF90CF90089590818C
:100A9000982B98879081809589238F838F818E836F
:100AA00088E08D8358856F8149853D812E818981BC
:100AB0009A81508347FD252F00C000C0208300C0CD
:100AC00000C000C000C000C060830000262F3A951F
:100AD00041F0441F000000C000C000C000C000C0C2
:100AE000E8CF38E04D9100C0608300C0019709F75E
:100AF000F093BC06E093BB0649873D832E83ABCFC2
:100B00008F929F92AF92BF92CF92DF92EF92FF921D
:100B10004B015C010E947C046B017C010E947C04FF
:100B20006C197D098E099F09683E73408105910506
:100B3000A8F321E0821A9108A108B10888EEC80E36
:100B400083E0D81EE11CF11C81149104A104B104BE
:100B500029F7FF90EF90DF90CF90BF90AF909F90DC
:100B60008F9008952FB7F89460917705709178056C
:100B70008091790590917A052FBF08950895089581
:100B80000895AF92BF92CF92DF92EF92FF920F93B0
:100B90001F93CF93DF936C017B018B01040F151F13
:100BA000EB015E01AE18BF08C017D10759F069917B
:100BB000D601ED91FC910190F081E02DC6010995DF
:100BC000892B79F7C501DF91CF911F910F91FF908C
:100BD000EF90DF90CF90BF90AF900895FC01538DC0
:100BE000448D252F30E0842F90E0821B930B541707
:100BF00010F0CF96089501970895FC01918D828D94
:100C0000981761F0A28DAE0FBF2FB11D5D968C912C
:100C1000928D9F5F9F73928F90E008958FEF9FEF6B
:100C20000895FC01918D828D981731F0828DE80F27
:100C3000F11D858D90E008958FEF9FEF0895FC01E1
:100C4000918D228D892F90E0805C9F4F821B9109AE
:100C50008F73992708958FEF95E00E941F0621E07A
:100C6000892B09F420E0822F089580E090E0892B01
:100C700029F00E942B0681110C9400000895FC01BC
:100C8000A48DA80FB92FB11DA35ABF4F2C91848DED
:100C900090E001968F739927848FA689B7892C934A
:100CA000A089B1898C91837080648C93938D848D9D
:100CB000981306C00288F389E02D80818F7D8083A0
:100CC0000895EF92FF920F931F93CF93DF93EC0160
:100CD00081E0888F9B8D8C8D98131AC0E889F989E3
:100CE000808185FF15C09FB7F894EE89FF896083E6
:100CF000E889F98980818370806480839FBF81E067
:100D000090E0DF91CF911F910F91FF90EF900895A8
:100D1000F62E0B8D10E00F5F1F4F0F731127E02E83
:100D20008C8D8E110CC00FB607FCFACFE889F989BB
:100D3000808185FFF5CFCE010E943F06F1CFEB8D7C
:100D4000EC0FFD2FF11DE35AFF4FF0829FB7F8948F
:100D50000B8FEA89FB8980818062CFCF0F931F932D
:100D6000CF93DF938C01D0E0C0E0F801EC0FFD1FC2
:100D70006491662341F08FEF95E00E946106892B14
:100D800011F02196F2CFCE01DF91CF911F910F91FB
:100D90000895CF93DF93EC01888D8823B9F0AA8959
:100DA000BB89E889F9898C9185FD03C0808186FD26
:100DB0000DC00FB607FCF7CF8C9185FFF2CF808175
:100DC00085FFEDCFCE010E943F06E9CFDF91CF91A5
:100DD0000895609342057093430580934405909372
:100DE0004505645D7E4F8F4F9F4F60933E05709326
:100DF0003F05809340059093410582E090E09093F9
:100E00003D0580933C050E94B205609338057093C0
:100E1000390580933A0590933B0508952F923F92B0
:100E20004F925F926F927F928F929F92AF92BF92FA
:100E3000CF92DF92EF92FF920F931F93CF93DF93A6
:100E4000382E962E842E222E84E6E816F1040CF419
:100E500059C092EBE91A97E0F90AE0924C05009329
:100E60004B0520924A0530924805909247058092A2
:100E70004605AE2DB0E020E833E341EE51E00E949C
:100E80002A312B013C0122EB37E0FF24E4E6F0E0BD
:100E9000C0E9D1E0C901825B97408E159F05B4F18E
:100EA0009EE4E91A98EFF90AC70164E670E00E942F
:100EB00043326C01C70160E971E00E9443325C017A
:100EC000CCEDD2E0E1E0F0E0112783E0E822FF245E
:100ED000E017F1070CF042C0E230F10591F5E114A2
:100EE000F10479F5C114D10419F4A114B10449F540
:100EF00080E8480E8BE3581E86E2681E711C31960E
:100F00002196E6CF8EE1E80EF11CA7CFC9018370D0
:100F10009927892B99F4C901BF010E944332892B7B
:100F200031F4C901BE010E944332892B39F490E8A3
:100F3000490E91E5591E91E0691E711C2F5F3F4FCC
:100F4000A9CFA881B0E020E831E541E050E00E945F
:100F50002A31460E571E681E791ED1CF292D30E04A
:100F6000ACE3B0E00E946C316B017C01C80CD11C79
:100F7000E11CF11C232D30E0A0E1BEE00E946C31A9
:100F8000C60ED71EE81EF91E822D8150990BDC017A
:100F900020E831E541E050E00E949E326C0D7D1D5D
:100FA0008E1D9F1D640D751D861D971DDF91CF91B0
:100FB0001F910F91FF90EF90DF90CF90BF90AF9077
:100FC0009F908F907F906F905F904F903F902F9069
:100FD0000C94E906CF92DF92EF92FF920F931F934A
:100FE0000E94B2058B019C01C0903805D090390554
:100FF000E0903A05F0903B05609142057091430501
:1010000080914405909145050C191D092E093F0951
:10101000083E134021053105E0F0DC01CB010196CB
:10102000A11DB11D8093420590934305A0934405F3
:10103000B0934505B701A60148515C4F6F4F7F4FF4
:10104000409338055093390560933A0570933B05FA
:10105000C7CF1F910F91FF90EF90DF90CF90089531
:101060004F925F926F927F928F929F92AF92BF92B8
:10107000CF92DF92EF92FF920F931F93CF93DF9364
:101080004B015C018091340590913505A0913605A6
:10109000B091370588159905AA05BB0509F4C6C0A6
:1010A0008CE3C82ED12CE12CF12CC501A7019601AF
:1010B0000E94573260934605CA01B901A701960103
:1010C0000E94573260934705C501B40120E13EE01C
:1010D00040E050E00E945732CA01B90128E130E0F7
:1010E00040E050E00E94573260934805C501B401CA
:1010F00020E831E541E050E00E94573269017A0171
:10110000CA01B9016C5F7F4F8F4F9F4F27E030E0DE
:1011100040E050E00E9457326F5F60934905412CD8
:10112000512C320140E004E610E0C0E9D1E0242F68
:1011300030E02E54384FF901E370FF273097F9F46F
:10114000C901B8010E944332892B31F4C901BE01A3
:101150000E944332892B99F48EE691E0A0E0B0E042
:10116000480E591E6A1E7B1ED301C201AA27BB2747
:10117000C816D906EA06FB0638F04F5FD8CF8DE6D1
:1011800091E0A0E0B0E0ECCF40934C05C90164E6EB
:1011900070E00E944332EC01C90160E971E00E94F5
:1011A0004332309721F42097D9F40097C9F04DE6E7
:1011B00051E060E070E0441A550A660A770AC418E4
:1011C000D508E608F708ACEDB2E020E0213069F47C
:1011D0003097E9F5209711F40097C9F54DE106C065
:1011E0004EE651E060E070E0E6CF4C9150E070E0F8
:1011F00060E031E0320FC416D506E606F70640F08F
:10120000C41AD50AE60AF70A1196232F3C30F1F6E4
:101210002F5F20934B05C394C0924A0580923405FA
:1012200090923505A0923605B0923705DF91CF91A7
:101230001F910F91FF90EF90DF90CF90BF90AF90F4
:101240009F908F907F906F905F904F9008954CE1AA
:10125000CDCF0E94EA070E94300880914C0590E0B3
:101260008E54984F08950E94EA070E94300880919A
:101270004B0590E008950E94EA070E943008809193
:101280004A0590E008950E94EA070E943008809184
:10129000460590E008950E94EA070E943008809178
:1012A000470590E008950E94EA070E943008809167
:1012B000480590E00895CF92DF92EF92FF92CF938E
:1012C000DF93EC010E94B2056B017C018F850E94C7
:1012D00023029C0181E02115310509F480E0898B0E
:1012E0008889811105C091E0232B09F090E0998B4A
:1012F00029898A89281721F0CD8ADE8AEF8AF88E1B
:101300008D899E89AF89B88DB701A601481B590BFD
:101310006A0B7B0BDB01CA01CB80DC80ED80FE8099
:10132000C816D906EA06FB0664F43A81231749F089
:101330002A83222349F04B895C894F5F5F4F5C8B86
:101340004B8B3A81311117C0CF80D884E984FA845D
:10135000C816D906EA06FB0634F48B899C89998362
:1013600088831C8A1B8A2A8BDF91CF91FF90EF9094
:10137000DF90CF900895CB84DC84ED84FE84C81682
:10138000D906EA06FB067CF78B899C8991958195A5
:101390009109E5CF20911105260F3327331F213204
:1013A0003105ECF42091C705FC0190E080E0243089
:1013B00069F082E00895A09111052191AC014F5090
:1013C0005B4FA40FB52FB11D2C930196861798F390
:1013D00080911105680F6093110580E0089581E008
:1013E00008951092C70581E08093C6051092A1056B
:1013F00061E082E10E944C0261E083E10E944C02C4
:10140000E9EBF0E080818E7F808380818D7F808317
:1014100088E48093B80085E48093BC000895CF935E
:10142000DF9391E09093F0048823B9F0C091B80065
:10143000D091BA008091BC008A7B8093BC0060E0B0
:1014400082E10E944C0260E083E10E944C020E9413
:10145000F109D093BA00C093B800DF91CF910895FD
:10146000CF92DF92EF92FF920F931F93CF93DF9370
:10147000D091F00581E0D13208F09CC0C091EF0519
:101480000E947C046B017C018091C70581116CC0B6
:1014900082E08093C70581E08093C6058FEF80933B
:1014A000C5051092C405D093C305AFECB5E0E3EADF
:1014B000F5E080E0D8138DC01092A2058091A205BE
:1014C000CC0FC82BC093A2058091A105813009F0F3
:1014D00084C01092A1050E947C046B017C01809164
:1014E000A2058093BB008091C9059091CA05A09187
:1014F000CB05B091CC05892B8A2B8B2BA1F00E94B8
:101500007C040091C9051091CA052091CB0530914A
:10151000CC056C197D098E099F0906171707280746
:10152000390708F442C08091BC0083FDD8CF85EC18
:101530008093BC000E947C046B017C018091C705F4
:10154000823009F44CC08091C5058F3F09F469C011
:101550008091C505803209F466C08091C50580334D
:1015600009F463C084E026C08091C9059091CA0542
:10157000A091CB05B091CC05892B8A2B8B2B09F43C
:1015800083CF0E947C040091C9051091CA05209167
:10159000CB053091CC056C197D098E099F09061782
:1015A00017072807390708F06FCF8091C8050E94F8
:1015B0000F0A85E01092CE051092F0051092CD052D
:1015C000DF91CF911F910F91FF90EF90DF90CF901F
:1015D00008959D9191938F5F6DCF85EEA9CF8091F6
:1015E000C9059091CA05A091CB05B091CC05892B76
:1015F0008A2B8B2B09F4A2CF0E947C040091C90591
:101600001091CA052091CB053091CC056C197D094C
:101610008E099F09061717072807390708F08ECF8C
:10162000C4CF80E0C7CF82E0C5CF83E0C3CF0895A9
:10163000E091800580917F05E81730F4F0E0EF57E6
:10164000FA4F808190E008958FEF9FEF0895909179
:10165000800580917F052FEF3FEF981748F4E92F21
:10166000F0E0EF57FA4F208130E09F5F90938005C4
:10167000C901089580917F0590918005891B990B80
:101680000895CF92DF92EF92FF920F931F93CF9323
:10169000DF937C01CB018A012091CD05222389F0C3
:1016A000EB016B01C40ED51ECC15DD0569F0699107
:1016B000D701ED91FC910190F081E02DC7010995D2
:1016C000F3CF642F0E94CA09C801DF91CF911F9107
:1016D0000F91FF90EF90DF90CF900895CF93DF931D
:1016E0001F92CDB7DEB769832091CD052223F9F093
:1016F0002091F005203258F021E030E0FC013383E6
:10170000228390E080E00F90DF91CF910895809147
:10171000CE05E82FF0E0E153FA4F998190838F5F77
:101720008093CE058093F00581E090E0ECCF61E0FE
:10173000CE0101960E94CA09F7CF682F8CE996E086
:101740000C946E0B90E080E00895CF93DF93D0E08F
:10175000C0E040E050E0BA01CE010E94C4002196F2
:10176000C830D105B1F7DF91CF910C94A10440911D
:10177000EE045091EF042091EC043091ED0480E0F0
:101780009CE34217530711F48FEF9FEF4F5F5F4FBA
:101790004330510529F05093EF044093EE0408952F
:1017A0001092EF041092EE042F5F3F4F233031056B
:1017B00029F03093ED042093EC0408951092ED0489
:1017C0001092EC040895CF92DF92EF92FF920F9364
:1017D0001F93CF93DF939091EB0491110BC08FEF88
:1017E0009FEFDF91CF911F910F91FF90EF90DF90CE
:1017F000CF9008959091EA04992389F3082FC0911E
:10180000E904D0E08091E10481110DC00E94B2058D
:101810006093DD047093DE048093DF049093E00412
:1018200081E08093E1040E94B205C090DD04D09075
:10183000DE04E090DF04F090E0046C197D098E096D
:101840009F096D32714081059105B0F01091DC0463
:101850000E94B2056093DD047093DE048093DF0480
:101860009093E00491E091279093DC04992331F167
:101870001092DB041092DA042091DA043091DB0438
:10188000209530958091D904282326FF1CC081E043
:101890008093D80427FF1AC081E08093D7048091F9
:1018A000DC04882309F49BCF02C0D595C7950A951F
:1018B000E2F7C0FF94CF80E09CE393CFD093DB04AA
:1018C000C093DA04D9CF1092D804E4CF1092D70491
:1018D000E6CFEF92FF920F931F93CF93DF93182FD2
:1018E0008091C90481110DC00E94B2056093C504A6
:1018F0007093C6048093C7049093C80481E08093DA
:10190000C904C091C304D091C404C930D10508F002
:1019100075C0FE01E257F34F0C949832970CA30C5C
:10192000A70CB50C970CA30CDA0CDC0CED0C0E9488
:10193000B7012196CA30D10509F097C01092C404AE
:101940001092C30428C08CEC0E948D01F2CF84E475
:101950000E948D010E94B2056093C5047093C60475
:101960008093C7049093C804E4CF0E94B20500910D
:10197000C5041091C6042091C7043091C804601BAF
:10198000710B820B930BC4E0D0E06E3E7240810578
:10199000910508F06AC06091BF047091C004809105
:1019A000C1049091C204DF91CF911F910F91FF90DC
:1019B000EF9008958EEBC8CF98E0E92EF12C10E05F
:1019C00001E00E9438018111102B000F81E0E81A1C
:1019D000F108B9F71093BD04ACCF88E0E82EF12CE4
:1019E00010E001E00E9438018111102B000F21E06E
:1019F000E21AF108B9F71093BE049BCFC930D105A4
:101A000009F097CF6091BD047091BE046F3F7607D7
:101A100011F470E060E0072E000C880B990B0E9417
:101A2000F72F20E030E040E85DE30E9456301111CE
:101A30000FC020E030E040E251E40E945630609355
:101A4000BF047093C0048093C1049093C20471CF0B
:101A500026E636E646EE5FE30E94563020E030E0B0
:101A600040E052E40E947C31E4CFD093C404C093A0
:101A7000C30491CFCF93DF93EC012196FC01208129
:101A80002A33C9F42181243609F5229630E020E07A
:101A90006AE0899190ED980F9A3078F4629FA001E6
:101AA000639F500D1124082E000C990BC0979A01CA
:101AB000280F391FEECFCE01DFCF3093880420935B
:101AC00087042115310511F02093390188818F3663
:101AD00089F48A81082E000C990B9C01205331094E
:101AE0003093880420938704C397059710F42093BC
:101AF0003801249688818236F1F4229630E020E085
:101B00006AE0899190ED980F9A3068F4629FA00185
:101B1000639F500D1124082E000C990BC0979A0159
:101B2000280F391FEECF3093880420938704309319
:101B30003701209336012091360130913701032E71
:101B4000000C440B550B60E67AEE80E090E00E94BA
:101B5000793282E0220F331F441F551F8A95D1F737
:101B60002093830430938404409385045093860427
:101B7000CE01DF91CF9108958EBD00000DB407FE18
:101B8000FDCF8EB508958F929F92AF92BF92CF9264
:101B9000DF92EF92FF920F931F93CF93DF937C011D
:101BA000D62F0E947C044B015C018091C7058111F6
:101BB00067C0CD2F81E08093C7058093C6059FEF56
:101BC0009093C5051092C4059D0F9093C305809313
:101BD000A2058091A205EE0CFF1C8E298093A20520
:101BE0008091A105813009F083C01092A1050E9467
:101BF0007C046B017C018091A2058093BB008091E5
:101C0000C9059091CA05A091CB05B091CC05892B4F
:101C10008A2B8B2BA1F00E947C048090C9059090A8
:101C2000CA05A090CB05B090CC056C197D098E0932
:101C30009F0986169706A806B90608F442C0809147
:101C4000BC0083FDD8CF85EC8093BC000E947C044F
:101C50006B017C018091C705813009F44BC08091F4
:101C6000C4058D1710F4C091C405E3EAF5E0A1E8BE
:101C7000B5E080E08C1751F191919D938F5FFACF81
:101C80008091C9059091CA05A091CB05B091CC0572
:101C9000892B8A2B8B2B09F488CF0E947C0400911E
:101CA000C9051091CA052091CB053091CC05681962
:101CB00079098A099B09061717072807390708F0C9
:101CC00074CF8091C8050E940F0AC0E01092800571
:101CD000C0937F058C2FDF91CF911F910F91FF90C3
:101CE000EF90DF90CF90BF90AF909F908F9008952E
:101CF00085EEAACF8091C9059091CA05A091CB0528
:101D0000B091CC05892B8A2B8B2B09F4A3CF0E9491
:101D10007C048090C9059090CA05A090CB05B09036
:101D2000CC056C197D098E099F0986169706A806B1
:101D3000B90608F08FCFC5CFCF93C0913A018C2F51
:101D40000E94F00160E08CE996E00E946E0B0E9418
:101D5000300A67E070E08C2F90E00E94C30D8CE9A0
:101D600096E00E94270B982F92959F70CAE08F7083
:101D70009C9F800D112490E09093740580937305CF
:101D80008CE996E00E94270B982F92959F708F7098
:101D90009C9F800D112490E090936B0580936A05C1
:101DA0008CE996E00E94270B982F929593708F7084
:101DB0009C9F800D112490E09093690580936805A5
:101DC0008CE996E00E94270B8CE996E00E94270B95
:101DD000982F92959F708F709C9F800D112490E09A
:101DE00090936D0580936C058CE996E00E94270B1B
:101DF000982F92959F708F709C9F800D112490E07A
:101E000090936F0580936E058CE996E00E94270BF6
:101E1000982F92959F708F709C9F800D112490E059
:101E20009093710580937005CF910895CF93DF93C0
:101E3000EC0188819981009711F00E944233198248
:101E400018821D821C821B821A82DF91CF91089515
:101E5000FC0180819181009711F00C944233089528
:101E60008F929F92AF92BF920F931F93CF93DF9366
:101E7000CDB7DEB7A1970FB6F894DEBF0FBECDBFCA
:101E800019A2423008F44AE08E010F5D1F4F842EE4
:101E9000912CB12CA12CA50194010E945732E62F60
:101EA000B901CA01EA3044F5E05DD801EE938D0135
:101EB000232B242B252B79F790E080E0109769F0F5
:101EC000FD0101900020E9F73197AF014A1B5B0B40
:101ED000BD018FEF95E00E94C105A1960FB6F89461
:101EE000DEBF0FBECDBFDF91CF911F910F91BF908D
:101EF000AF909F908F900895E95CD7CF42E050E07B
:101F00006AE373E08FEF95E00C94C105CF93DF9304
:101F1000BC01990F880B990B4AE00E94300FEC012D
:101F20000E947E0F8C0F9D1FDF91CF910895FC01C1
:101F300080819181009711F00C947F2F60E070E018
:101F4000CB0108952F923F924F925F926F927F92B2
:101F50008F929F92AF92BF92CF92DF92EF92FF92B9
:101F60000F931F93CF93DF93CDB7DEB72C970FB6A8
:101F7000F894DEBF0FBECDBF0E947C040091D30455
:101F80001091D4042091D5043091D6046B017C01CA
:101F9000C01AD10AE20AF30A97018601003D1740F0
:101FA0002105310508F4DFC16093D3047093D40494
:101FB0008093D5049093D6048091D2048823C1F1F4
:101FC00080E00E94BC0D80E00E94BC0D80E00E9479
:101FD000BC0D80E00E94BC0D80E00E94BC0D80E042
:101FE0000E94BC0D80E00E94BC0D80E00E94BC0DF0
:101FF00061E08AE00E944C0260E08AE02C960FB615
:10200000F894DEBF0FBECDBFDF91CF911F910F912E
:10201000FF90EF90DF90CF90BF90AF909F908F9008
:102020007F906F905F904F903F902F900C944C0258
:1020300089E097E00E94970F69837A838B839C8362
:1020400060E08AE00E944C021AE0812E912CA12CC3
:10205000B12C69817A818B819C81A50194010E94B8
:10206000793269017A01660F771F68537D4FDB0172
:102070002D903C9085E090E00E94E30B9E838D8341
:102080000E94B70B3C01C701B601A50194010E9453
:102090007932660F771F68537D4FFB01C080D18076
:1020A00084E090E00E94E30B2C010E94B70B8C01AE
:1020B00069817A818B819C8124E630E040E050E0A8
:1020C0000E947932CA01B901A50194010E947932B6
:1020D000660F771F68537D4FDB01AD90BC9083E0A6
:1020E00090E00E94E30B7C010E94B70B4D815E8162
:1020F000462157214221532170E060E024E1440F42
:10210000551F661F771F2A95D1F78E219F218A219F
:102110009B21B0E0A0E0842B952BA62BB72B40226F
:102120005122C420D520F12CE12C3AE0CC0CDD1C4E
:10213000EE1CFF1C3A95D1F7C82AD92AEA2AFB2AB5
:1021400069817A818B819C8128EE33E040E050E008
:102150000E94793229013A018091D804882309F438
:10216000E0C06894F6F88091D704882309F4DCC0B5
:102170006894F7F810915C058F2D9927AA27BB2743
:102180008D839E83AF83B8874701AA24BB24BB27D6
:10219000AF2D9E2D8D2D89879A87AB87BC87112304
:1021A00009F4C5C08C2D0E94BC0D89850E94BC0D10
:1021B000882D0E94BC0D8D810E94BC0D3AE0832EBB
:1021C000912CA12CB12CC301B201A50194010E9454
:1021D0007932660F771F68537D4FDB014D905C901D
:1021E00082E090E00E94E30B7C010E94B70B6C013F
:1021F00069817A818B819C8120E137E240E050E067
:102200000E947932CA01B901A50194010E94793274
:10221000660F771F68537D4FFB010190F081E02D21
:10222000FE83ED8381E090E00E94E30B3C010E947D
:10223000B70BCE20DF20C420D520F12CE12C64E1A7
:10224000CC0CDD1CEE1CFF1C6A95D1F78621972172
:102250002D813E8182239323B0E0A0E07AE0880FB5
:10226000991FAA1FBB1F7A95D1F7C82AD92AEA2A33
:10227000FB2A69817A818B819C8120EA36E841E0E2
:1022800050E00E947932CA01B901A50194010E946F
:102290007932660F771F68537D4FDB01AD90BC909C
:1022A00090E080E00E94E30B9A8389830E94B70B41
:1022B000E981FA818E239F238A219B21B0E0A0E04F
:1022C0008C299D29AE29BF292091D8046C017D015C
:1022D0002223C1F16894F6F88091D7048823A9F1EC
:1022E0006894F7F84F2C5524662477244701AA24D4
:1022F000BB24BB27AF2D9E2D8D2D89839A83AB8365
:10230000BC83112329F18C2D0E94BC0D89810E9470
:10231000BC0D882D0E94BC0D842D0E94BC0D61E077
:102320006CCEE894F6F81FCFE894F7F823CF8D81B0
:102330000E94BC0D882D0E94BC0D89850E94BC0D99
:102340008C2D3ACFE894F6F8C7CFE894F7F8CACFC7
:10235000842D0E94BC0D882D0E94BC0D89810E9495
:10236000BC0D8C2DDACF2C960FB6F894DEBF0FBEC5
:10237000CDBFDF91CF911F910F91FF90EF90DF9034
:10238000CF90BF90AF909F908F907F906F905F9015
:102390004F903F902F9008950F931F93CF93DF930B
:1023A0008C01EB01FC01808191810097E1F0688153
:1023B000798161157105A9F0428153812C813D819C
:1023C0004217530770F00E9491348C819D81F8016F
:1023D000958384831D821C82DF91CF911F910F9181
:1023E00008950E94423388819981F8019183808306
:1023F0008A819B81938382838C819D819583848351
:10240000198218821B821A82E5CF0F931F93CF93F4
:10241000DF93EC0188819981009759F02A813B81F3
:102420002617370730F081E0DF91CF911F910F9190
:1024300008958B016F5F7F4F0E94CB33009759F057
:10244000998388831B830A832C813D81232B59F731
:10245000FC011082E8CF80E0E7CFEF92FF920F936C
:102460001F93CF93DF936115710541F480E0DF91F5
:10247000CF911F910F91FF90EF9008954115510555
:10248000B1F07B01EC010C811D81040F151FB80117
:102490000E940512882351F3288139818C819D8106
:1024A000B701820F931F0E9491341D830C8381E03A
:1024B000DECFCF93DF93EC01FB0101900020E9F721
:1024C0003197AF01461B570B0E942D12811103C09B
:1024D000CE010E94160FCE01DF91CF910895CF93C8
:1024E000DF93EC01FB0144815581608171810E9481
:1024F0002D12811103C0CE010E94160FCE01DF9173
:10250000CF910895EF92FF920F931F93CF93DF9394
:10251000EC017B018A01BA010E94051281110BC0F6
:10252000CE010E94160FCE01DF91CF911F910F9126
:10253000FF90EF9008951D830C83B70188819981E6
:102540000E949134F0CFFB0101900020E9F7319710
:10255000AF01461B570B0C9482120F931F93CF931E
:10256000DF93CDB7DEB762970FB6F894DEBF0FBE2C
:10257000CDBF8C01CB01F80111821082138212822F
:10258000158214824AE0BE016F5F7F4F0E94A62F22
:10259000BE016F5F7F4FC8010E94A31262960FB603
:1025A000F894DEBF0FBECDBFDF91CF911F910F9189
:1025B0000895CF93DF93EC01FB018617970749F04D
:1025C000608171816115710541F0448155810E94DE
:1025D0008212CE01DF91CF9108950E94160FF9CF9C
:1025E000FC011182108213821282158214820C94D3
:1025F000D912FC0111821082138212821582148278
:10260000FB0101900020E9F73197AF01461B570B02
:102610000C948212AF92BF92CF92DF92EF92FF9210
:102620000F931F93CF93DF936C015B017A018901B4
:102630002417350720F48F2D7901042F182F6CE310
:1026400073E0C6010E94F912D5011496CD91DC9178
:10265000EC16FD06E0F40C171D0708F4E801D5019F
:10266000ED91FC911197EC0FFD1F108110826D917F
:102670007C916E0D7F1DC60161157105A1F00E9450
:10268000A312F50180819181C80FD91F1883C6015B
:10269000DF91CF911F910F91FF90EF90DF90CF903E
:1026A000BF90AF9008950E94160FEBCF4F925F92AC
:1026B0006F927F928F929F92AF92BF92CF92DF9252
:1026C000EF92FF920F931F93CF93DF9300D000D030
:1026D00000D0CDB7DEB77C014B015A018091A20436
:1026E00081113AC081E08093A2049CE9692E94E0B4
:1026F000792E26E9422E24E0522E10E000E00F5FF2
:102700001F4F680181E0C81AD1089801A601B401E1
:10271000CE0101960E940A13CE0101960E94970FE6
:10272000D3016D933D01CE0101960E94280F9801BF
:10273000A601B501CE0101960E940A13CE010196B1
:102740000E94970FF20161932F01CE0101960E9422
:10275000280F0630110599F6909195048CE9C82E42
:1027600084E0D82EE6E9F4E08601A801D8018C9136
:102770009A3008F04DC08F5F8C930F5F1F4FDA01C6
:102780008C918A3019F4D80111971C923196B4E0DB
:10279000023A1B0751F79F5F943109F43FC09093B1
:1027A00095046CE373E0C7010E94F912FE013196B3
:1027B0005F01D6018D916D014AE0B50190E00E9464
:1027C000A62FF50101900020E9F73197AF014A19D2
:1027D0005B09B501C7010E942D120C151D0549F7B3
:1027E000C70126960FB6F894DEBF0FBECDBFDF91AE
:1027F000CF911F910F91FF90EF90DF90CF90BF90FE
:10280000AF909F908F907F906F905F904F900895C2
:102810002081281709F4B1CF8F5FAECF10929504B5
:102820001092A204BECFCF92DF92EF92FF921F933D
:10283000CF93DF93CDB7DEB72C970FB6F894DEBFFA
:102840000FBECDBF182F63E573E0CE0107960E943F
:10285000F91222E030E050E040E0133071F024E063
:1028600030E042E050E01C3041F01033B9F42091E8
:102870000D0730910E0744E050E069E077E0CE01AB
:1028800001960E940A13BE016F5F7F4FCE0107962B
:102890000E94CC11CE0101960E94280FCE0107960E
:1028A0000E94970F6B01CE0107960E94280FC60168
:1028B0002C960FB6F894DEBF0FBECDBFDF91CF913F
:1028C0001F91FF90EF90DF90CF9008950F931F938B
:1028D000CF93DF93CDB7DEB762970FB6F894DEBF24
:1028E0000FBECDBF8C0177FF03C071956195710953
:1028F0006A307105A4F5CE010D960E94AD1262E416
:1029000073E0CE0101960E94F912BE016F5F7F4F06
:10291000CE0107960E94F012BE01635F7F4FCE0189
:1029200007960E946F12BC01C8010E94F012CE01EE
:1029300007960E94280FCE0101960E94280FCE0113
:102940000D960E94280FC80162960FB6F894DEBF5C
:102950000FBECDBFDF91CF911F910F910895C80198
:102960000E94AD12F0CF0F931F93CF93DF93CDB79B
:10297000DEB768970FB6F894DEBF0FBECDBF8B01F0
:10298000833079F520910D0730910E0742E050E039
:1029900069E077E0CE010D960E940A13B801CE01DE
:1029A00001960E946614BE016F5F7F4FCE010796AD
:1029B0000E94F012BE01635F7F4FCE0107960E9416
:1029C0006F12BC0189E097E00E94D912CE010796F0
:1029D0000E94280FCE0101960E94280FCE010D966D
:1029E00044C08C3009F04EC020910D0730910E0785
:1029F00044E050E069E077E0CE0143960E940A137C
:102A0000B801CE010D960E94661422E030E050E03D
:102A100040E069E077E0CE0101960E940A13BE0112
:102A20006F5F7F4FCE0107960E94F012BE01635F79
:102A30007F4FCE0107960E946F12BE016D5E7F4FE1
:102A40000E946F12BC0189E097E00E94D912CE016A
:102A500007960E94280FCE0101960E94280FCE01F2
:102A60000D960E94280FCE0143960E94280F68966B
:102A70000FB6F894DEBF0FBECDBFDF91CF911F918F
:102A80000F910895803399F7CE010D960E94661438
:102A900024E030E050E040E069E077E0CE010196CC
:102AA0000E940A1380CF0E94B20560938C04709339
:102AB0008D0480938E0490938F0480918B048823DF
:102AC00009F44FC02091890430918A04C901880F0C
:102AD000991F22313105A1F1FC01E25CFE4F4081DA
:102AE00051814150510951834083DC01A25CBE4FAA
:102AF0006D917C911197FC01E851FD4F408151810E
:102B0000641775073CF4FC01E656FD4F4081518186
:102B10004D935C932131310509F52091600130918D
:102B2000610121303105B9F420E82093D904825C99
:102B30009E4FFC01608171818091E9040C94B31473
:102B400040916201509163014C50510950936301CF
:102B500040936201CACF1092D904E9CF2A303105DF
:102B600031F708950E94B20560938C0470938D0430
:102B700080938E0490938F0480918B04882309F4B2
:102B800044C02091890430918A04C901880F991F9B
:102B90002231310561F1FC01E25CFE4F408151813F
:102BA0004F5F5F4F51834083DC01A25CBE4F6D914C
:102BB0007C911197FC01E656FD4F408151814617EB
:102BC00057073CF4FC01E851FD4F408151814D9382
:102BD0005C9321313105B1F41092D904825C9E4F8F
:102BE000FC01608171818091E9040C94B3144091DF
:102BF000620150916301445F5F4F509363014093C2
:102C00006201D2CF2A30310549F708950F931F93FF
:102C1000CF93DF93CDB7DEB768970FB6F894DEBFDA
:102C20000FBECDBF8C0180916201909163014897E6
:102C300009F048C00E944309BC01CE0143960E949E
:102C400066140E944B09BC01CE010D960E946614C9
:102C50000E945309BC01CE0101960E946614BE0178
:102C60006F5F7F4FCE0107960E94F012BE01635F37
:102C70007F4FCE0107960E946F12BE016D5E7F4F9F
:102C80000E946F12BC01C8010E94F012CE0107968B
:102C90000E94280FCE0101960E94280FCE010D96AA
:102CA0000E94280FCE0143960E94280FC801689603
:102CB0000FB6F894DEBF0FBECDBFDF91CF911F914D
:102CC0000F9108950E944309BC01CE0143960E94D2
:102CD00066140E944B09BC01CE010D960E94661439
:102CE0000E94EA070E943008809148056CE070E07D
:102CF000882309F4B0CF682F70E08D3008F4ABCF93
:102D00006C507109A8CF8F929F92AF92BF92CF92D1
:102D1000DF92EF92FF920F931F93CF93DF93CDB784
:102D2000DEB72C970FB6F894DEBF0FBECDBF8C0177
:102D30006A017B018091B504811111C00E94B20526
:102D4000645B7B4F8F4F9F4F6093B1047093B204CD
:102D50008093B3049093B40481E08093B504809190
:102D6000A904811109C06DE373E083EA94E00E9435
:102D7000F91281E08093A9040E94B2058090B10409
:102D80009090B204A090B304B090B404681979098B
:102D90008A099B09693E73408105910508F4D0C0FA
:102DA0000E94B2056093B1047093B2048093B3049F
:102DB0009093B40420E030E0A901C701B6010E945D
:102DC0001E3220E030E040E05FE387FDD2C0C70163
:102DD000B6010E947C310E94E8317B0177FF04C07C
:102DE000EE24FF24E61AF70A5B0139E1A31A3CEF4F
:102DF000B30A80916401909165019B012D593F4F69
:102E000069012A5531094901B701892B09F0B6C07A
:102E1000CE0107960E94AD1262E473E0CE010196E6
:102E20000E94F912BE01695F7F4FCE0101960E9498
:102E30006F1262E473E00E945912BC0183EA94E0CD
:102E40000E94D912CE0101960E94280FCE0107964A
:102E50000E94280F3FECA31637E0B30618F5B70120
:102E6000CE0107960E94AD1261E473E0CE01019697
:102E70000E94F912BE01695F7F4FCE0101960E9448
:102E80006F1262E473E00E945912BC0183EA94E07D
:102E90000E94D912CE0101960E94280FCE010796FA
:102EA0000E94280F87ECC816D10418F5B701CE018F
:102EB00007960E94AD1260E473E0CE0101960E9475
:102EC000F912BE01695F7F4FCE0101960E946F1219
:102ED00062E473E00E945912BC0183EA94E00E940C
:102EE000D912CE0101960E94280FCE0107960E94AA
:102EF000280F23E18216910418F5B701CE01079639
:102F00000E94AD126FE373E0CE0101960E94F912A8
:102F1000BE01695F7F4FCE0101960E946F1262E48D
:102F200073E00E945912BC0183EA94E00E94D91216
:102F3000CE0101960E94280FCE0107960E94280F0D
:102F400063EA74E0C8010E94F012C8012C960FB623
:102F5000F894DEBF0FBECDBFDF91CF911F910F91CF
:102F6000FF90EF90DF90CF90BF90AF909F908F90A9
:102F70000895C701B6010E947B312DCFCE0107967F
:102F80000E94AD1262E473E0CE0101960E94F91234
:102F9000BE01695F7F4FCE0101960E946F1262E40D
:102FA00073E00E945912BC0183EA94E00E94D91296
:102FB000CE0101960E94280FCE0107960E94280F8D
:102FC0003FECA31637E0B30638F5C7016AE070E0BE
:102FD0000E944332CE0107960E94AD1261E473E075
:102FE000CE0101960E94F912BE01695F7F4FCE01AA
:102FF00001960E946F1261E473E00E945912BC01B5
:1030000083EA94E00E94D912CE0101960E94280F13
:10301000CE0107960E94280F87ECC816D10438F518
:10302000C7016AE070E00E944332CE0107960E9419
:10303000AD1260E473E0CE0101960E94F912BE0168
:10304000695F7F4FCE0101960E946F1261E473E0C9
:103050000E945912BC0183EA94E00E94D912CE0169
:1030600001960E94280FCE0107960E94280F23E1A7
:103070008216910408F064CFC7016AE070E00E94F4
:103080004332CE0107960E94AD126FE373E0CE018A
:1030900001960E94F912BE01695F7F4FCE01019631
:1030A0000E946F1261E473E03CCF85ED8093BC0019
:1030B0008091C9059091CA05A091CB05B091CC052E
:1030C0000796A11DB11D23E0B695A7959795879505
:1030D0002A95D1F72091BC0024FD03C01092C705AA
:1030E00008954091C9055091CA056091CB05709132
:1030F000CC05452B462B472B69F30097A105B1055D
:1031000041F02AE22A95F1F700C00197A109B1091F
:10311000E1CF8091C8050C940F0A0C941C310C94DB
:1031200014318F929F92AF92BF92CF92DF92EF9223
:10313000FF920F931F93CF93DF9388E090E00E945C
:103140008F18C82FC82ED12C89E090E00E948F18CC
:10315000882EE82EF12C8AE090E00E948F18082F2C
:1031600010E0912CB12CA12CBA2CA92C982C8824DD
:10317000AC2A882AD0E0C0E080913D01B501A401CD
:10318000811103C040E050E0BA01CE010E94C400AA
:103190002196C830D10581F70E94A1048AE790E00A
:1031A0000E94AE060E947E0F85E790E00E94AE0668
:1031B000C6010E94860F8EE690E00E94AE06C7010F
:1031C0000E94860F88E690E00E94AE06C801DF915B
:1031D000CF911F910F91FF90EF90DF90CF90BF9014
:1031E000AF909F908F900C94860F8091D20488238B
:1031F00041F01092D2048091D10480933D010C944F
:10320000911808950F931F9380916001909161012F
:10321000892B09F44BC0809194048823A9F00E9463
:10322000B205009190041091910420919204309184
:103230009304601B710B820B930B693E73408105F5
:103240009105A0F1109294040E94530920915A0113
:1032500030915B018217930749F50E944B09209139
:103260005C0130915D018217930701F50E944309CB
:1032700020915E0130915F0182179307B9F40E949B
:10328000F5180E94B20560939004709391048093A6
:1032900092049093930481E08093940480913B0185
:1032A00090913C0190936705809366051F910F9163
:1032B00008958F929F92AF92BF92CF92DF92EF923A
:1032C000FF920F931F93CF93DF93CDB7DEB7EC97A9
:1032D0000FB6F894DEBF0FBECDBF809115048111EB
:1032E00007C00E9453098093140481E08093150461
:1032F00080918B04811129C00091140410E00E9478
:1033000053090817190709F10E94530980931404FF
:103310000E94530920916801309169018217930737
:1033200049F481E08093D20480913D018093D104DF
:1033300010923D010E94530920916A0130916B0166
:103340008217930711F40E94F5180E94B20520E13C
:1033500037E240E050E00E945732672B682B692B20
:1033600001F5809172058823E1F00E949C0EE090A7
:103370007005F090710500916E0510916F05209118
:103380006C0530916D054091730550917405609105
:103390006A0570916B0580916805909169050E949E
:1033A0000E071092820410928104109280041092F1
:1033B0007F0410927E0410927D04009166051091A6
:1033C0006705F8018081882309F405C10E94B205D0
:1033D000C0902304D0902404E0902504F0902604AB
:1033E0006C197D098E099F09C0901F04D09020049C
:1033F000E0902104F0902204C616D706E806F906EC
:1034000008F0E9C00E94B2054B015C0180922304E0
:1034100090922404A0922504B0922604680130E022
:1034200020E04AE0F801F1908F0180ED8F0D8A30A5
:1034300070F4429FC001439F900D11242F2DFF0C6B
:10344000330B20533109280F391F6F01EBCF309315
:103450008804209387046091830470918404809190
:103460008504909186042115310501F1032E000C8D
:10347000440B550B0E94793220931F043093200493
:103480004093210450932204EFE9EF0DE730A0F4BC
:103490000E2E000CFF0BE15BF54E0C9498325D1D77
:1034A0005F1D511D551D571D591D5B1D2091390173
:1034B00030E050E040E0DECF10921E04F601818142
:1034C000833241F480911E048F5F80931E04860135
:1034D0000E5F1F4FF80180818E32F1F4C0901F04FF
:1034E000D0902004E0902104F0902204C701B6019E
:1034F00022E030E040E050E00E947932C20ED31E5C
:10350000E41EF51EC0921F04D0922004E092210414
:10351000F09222040F5F1F4FF801808180538A30A0
:1035200008F0CFC280931D040F5F1F4FF801808108
:103530008C3211F40F5F1F4FE0911E04EE2309F44B
:103540004AC0C0901F04D0902004E0902104F09065
:10355000220480911D048450990B4CE0489F9001F7
:10356000499F300D1124E20FF32FF11DEE0FFF1FC5
:10357000E657FE4FB701A601808191810E94B602F5
:103580000E94B205681979098A099B09C616D706EF
:10359000E806F90600F50E94B205609323047093D3
:1035A000240480932504909326048091FE058130A5
:1035B00009F48CC2823009F48FC2811105C0809158
:1035C0006E008D7F80936E0060E08091FD050E940B
:1035D0004C0210E000E010936705009366050E941E
:1035E000B2050091790410917A0420917B04309106
:1035F0007C04601B710B820B930B61357105810597
:103600009105F8F08091FE05813009F46BC282309B
:1036100009F46BC2811105C080916E00869581709E
:1036200031F480913D01811163C20E94A50B0E947B
:10363000B2056093790470937A0480937B0490932D
:103640007C048091890490918A04892B21F08091D7
:1036500078048111DBC180918B048111D7C18091E5
:103660003D0481110DC00E94B2056093390470932E
:103670003A0480933B0490933C0481E080933D04A2
:103680008091310481110DC00E94B20560932D0418
:1036900070932E0480932F049093300481E08093E4
:1036A00031040E94B2050091390410913A0420912E
:1036B0003B0430913C04601B710B820B930B009117
:1036C00000011091010120910201309103010617C0
:1036D00017072807390708F04DC00E94B20560930C
:1036E000390470933A0480933B0490933C04809196
:1036F0002B0490912C04009709F07EC281E090E0A9
:1037000090938A048093890488E893E1A0E0B0E074
:103710008093000190930101A0930201B0930301F3
:1037200080912B0490912C048230910581F41092A9
:103730008A041092890440E65AEE60E070E04093FB
:1037400000015093010160930201709303010196FF
:10375000833091050CF070C290932C0480932B045D
:1037600080917804882321F010928A0410928904B1
:10377000109278040E94B2050091390410913A0425
:1037800020913B0430913C04601B710B820B930B26
:10379000603D77408105910508F020C30E94B20585
:1037A00000912D0410912E0420912F0430913004AB
:1037B000601B710B820B930B6536710581059105BA
:1037C00008F424C10E94B20560932D0470932E0466
:1037D00080932F04909330048091890490918A04FF
:1037E00020915D05222309F42CC2892B89F5CE0195
:1037F00049960E94061681E020916401309165018E
:10380000232B09F480E00E94690CAB01BC01CE01BE
:1038100001960E948316AE01475E5F4FBE016F5F47
:103820007F4FCE014F960E945613BE01615E7F4FBF
:1038300089E097E00E94CC11CE014F960E94280F9C
:10384000CE0101960E94280FCE0149960E94280FB2
:103850008091890490918A04019709F062C00E94C6
:10386000290968EE73E00E944332BC01CE018B96B9
:103870000E9466140E943309BC01CE0185960E9405
:1038800066140E943B09BC01CE0149960E94661451
:10389000BE01675E7F4FCE014F960E94F012BE01BF
:1038A0006B5D7F4FCE014F960E946F12BE01655D2A
:1038B0007F4F0E946F12BC01CE01C1960E94F01290
:1038C000CE0101960E940616AE014F5C5F4FBE010D
:1038D0006F5F7F4FCE01C7960E945613BE01695C91
:1038E0007F4F89E097E00E94CC11CE01C7960E94DD
:1038F000280FCE0101960E94280FCE01C1960E948A
:10390000280FCE014F960E94280FCE0149960E94A3
:10391000280FCE0185960E94280FCE018B960E941B
:10392000280F8091890490918A04049709F06EC051
:1039300081E02091640130916501232B09F480E03E
:103940000E94690CAB01BC01CE01C1960E94831696
:103950000E94290968EE73E00E944332BC01CE0147
:1039600085960E9466140E943309BC01CE014F96D1
:103970000E9466140E943B09BC01CE0101960E9480
:103980006614BE016F5F7F4FCE0149960E94F01210
:10399000BE01615E7F4FCE0149960E946F12BE014B
:1039A0006B5D7F4F0E946F12BC01CE018B960E940F
:1039B000F012AE014F5C5F4FBE01655D7F4FCE01DF
:1039C000C7960E945613BE01695C7F4F89E097E05D
:1039D0000E94CC11CE01C7960E94280FCE018B9673
:1039E0000E94280FCE0149960E94280FCE01019611
:1039F0000E94280FCE014F960E94280FCE01859677
:103A00000E94280FCE01C1960E94280F0E94A20F8B
:103A100080EF96E00E945B0987ED96E00E945B09CB
:103A20008EEB96E00E945B0980918B048111D9C1D5
:103A30001092E9048091F0069091F106181619068B
:103A40003CF08091810490918204019709F09AC31F
:103A500081E080937804109267051092660544E631
:103A600050E060E070E088EE93E00E94B602809142
:103A7000D204882309F4E2C10E94F518EC960FB62F
:103A8000F894DEBF0FBECDBFDF91CF911F910F9194
:103A9000FF90EF90DF90CF90BF90AF909F908F906E
:103AA000089581E080931E0409CD83E0FBCF85E07B
:103AB000F9CF86E0F7CF88E0F5CF8AE0F3CF8CE04E
:103AC000F1CF8091380180931D0430CD80916F003B
:103AD0008D7F80936F0078CD809170008D7F809373
:103AE000700072CD80916F0099CD8091700096CD5D
:103AF0008091750581119BCD0091290410912A04B4
:103B0000F801EE0FFF1FE00FF11FDF01AA0FBB1F2F
:103B1000A451BE4F8D919C914AE0489F9001499FCE
:103B2000300D11248091060190910701280F391F53
:103B30003093070120930601DF01AA0FBB1FA2519A
:103B4000BE4F8D919C91489FB001499F700D1124EB
:103B500080916E0490916F04860F971F90936F046D
:103B600080936E04EE0FFF1FE051FE4F6081718164
:103B7000469F6001479FD00C112440916C045091E6
:103B80006D04C40ED51ED0926D04C0926C04D12C6D
:103B9000F12CE22ED82AB12CA12CB701A601C50127
:103BA0000E94C400FFEFAF1ABF0A28E0A216B104BA
:103BB000A1F70E94A1048091270490912804019606
:103BC0009093280480932704499751F40F5F1F4F67
:103BD00010932A04009329041092280410922704B9
:103BE0008091290490912A0406970CF420CD10921C
:103BF0002A04109229041BCD019709F091CD84E08D
:103C000090E090938A048093890488E893E1A0E08F
:103C1000B0E08093000190930101A0930201B09362
:103C2000030180915D058111CEC782E090E0909301
:103C30002C0480932B0474CD10922C0410922B042E
:103C40008FCD892B09F062C0CE01C1960E94061665
:103C50000E94290968EE73E00E944332BC01CE0144
:103C600085960E9466140E943309BC01CE014F96CE
:103C70000E9466140E943B09BC01CE0101960E947D
:103C80006614BE016F5F7F4FCE0149960E94F0120D
:103C9000BE01615E7F4FCE0149960E946F12BE0148
:103CA0006B5D7F4F0E946F12BC01CE018B960E940C
:103CB000F012AE014F5C5F4FBE01655D7F4FCE01DC
:103CC000C7960E945613BE01695C7F4F89E097E05A
:103CD0000E94CC11CE01C7960E94280FCE018B9670
:103CE0000E94280FCE0149960E94280FCE0101960E
:103CF0000E94280FCE014F960E94280FCE01859674
:103D00000E94280FCE01C1960E94280F809189043D
:103D100090918A04019709F079CE0E94290968EEF2
:103D200073E00E944332BC01CE018B960E94661460
:103D30000E943309BC01CE0185960E9466140E9440
:103D40003B09BC01CE0149960E946614BE01675E24
:103D50007F4FCE014F960E94F012BE016B5D7F4FE8
:103D6000CE014F960E946F12BE01655D7F4F0E948B
:103D70006F12BC01CE01C1960E94F012CE010196D5
:103D80000E940616AE014F5C5F4FBE016F5F7F4F12
:103D9000CE01C7960E945613BE01695C7F4F89E031
:103DA00097E00E94CC11CE01C7960E94280FCE0149
:103DB00001960E94280FCE01C1960E94280FCE01C5
:103DC0004F960E94280FCE0149960E94280FCE01DF
:103DD00085960E94280FCE018B9616CE1092A204D3
:103DE00015CE0E94B20500918C0410918D04209193
:103DF0008E0430918F04601B710B820B930B613624
:103E00007A4E8105910508F415CE10928B04E0914D
:103E10008904F0918A04EE0FFF1FE459FD4F808161
:103E2000918190938A0480938904880F991FFC01E3
:103E3000E85FFE4F80818093E904FCCD0E94B205CB
:103E400060938C0470938D0480938E0490938F0400
:103E50008091890490918A0401968530910509F436
:103E60006DC090938A048093890480918904909115
:103E70008A04079721F410928A04109289042091F1
:103E8000890430918A048901000F111FF801E85F4D
:103E9000FE4F80818093E904D9011197FD01EE0F57
:103EA000FF1FE25CFD4F608171816115710509F4AE
:103EB0005AC1AB0141505109FA01EE0FFF1FE05FFB
:103EC000FD4F0190F081E02DAE17BF0709F04BC107
:103ED00062307105B1F588E1E2E7F1E0DE011196AB
:103EE00001900D928A95E1F78091580190915901C6
:103EF00083709927892B21F48DE190E09C838B833B
:103F000080915601909157010197880F991F21E0E8
:103F100030E02C0F3D1F820F931F209154013091F0
:103F20005501FC01808191818217930754F48BE045
:103F300090E090938A0480938904A0CD86E090E07D
:103F400090CF10928B0450938A0440938904452BA0
:103F5000B9F40E9429097C010E9433098C010E9456
:103F60003B09409150015091510160914E01709177
:103F70004F019C0180914C0190914D010E940E07D0
:103F80008091890490918A04019719F5E090580175
:103F9000F0905901F0E3EF1AF8EFFF0A0091560193
:103FA0001091570180905401909055010E9443094F
:103FB0005C010E944B096C010E9453099401A50108
:103FC000B6010E940E07609152018DE090E00E94C0
:103FD0008D188091890490918A040297C1F46091B0
:103FE0005A0182E090E00E948D1860915C0183E0AC
:103FF00090E00E948D1860915E0184E090E00E9444
:104000008D186091600186E090E00E948D1880918B
:10401000890490918A04039731F46091620181E0F0
:1040200090E00E948D188091890490918A040497F1
:1040300031F4609164018BE090E00E948D188091D2
:10404000890490918A04059739F460916601645F50
:104050008CE090E00E948D188091890490918A04F0
:10406000069761F4609168018EE090E00E948D18DF
:1040700060916A018FE090E00E948D180E942909EA
:1040800068EE73E00E944332082F0E943309F82E35
:104090000E943B09E82E0E944309B82E0E944B095A
:1040A000C82E0E945309D82E80913A010E94F00137
:1040B00060E08CE996E00E946E0B1AE08B2D612F78
:1040C0000E9423328295807F682F690F8CE996E0E9
:1040D0000E946E0B8C2D612F0E9423328295807F6F
:1040E000682F690F8CE996E00E946E0B8D2D612F71
:1040F0000E9423328295807F682F690F8CE996E0B9
:104100000E946E0B61E08CE996E00E946E0B8E2D92
:10411000612F0E9423328295807F682F690F8CE97E
:1041200096E00E946E0B8F2D612F0E9423328295A4
:10413000807F682F690F8CE996E00E946E0B802FBC
:10414000612F0E9423328295807F682F690F8CE94E
:1041500096E00E946E0B60E08CE996E00E946E0B88
:104160000E94300A8BCC2431310561F02A5031098C
:104170002230310538F00E941314F801E25CFE4F42
:10418000918380838091F0069091F10697FD07C09E
:104190008091810490918204019609F0F3C044E675
:1041A00050E060E070E088EE93E00E94B6028091FB
:1041B0008B0481114DC00091890410918A040E94E2
:1041C000B20560938C0470938D0480938E04909359
:1041D0008F04012BE9F50E944309BC01CE018596AD
:1041E0000E9466140E944B09BC01CE014F960E94AA
:1041F00066140E945309BC01CE0101960E94661408
:10420000BE016F5F7F4FCE0149960E94F012BE0142
:10421000615E7F4FCE0149960E946F12BE016B5DB9
:104220007F4F0E946F12BC0189E097E00E94D91273
:10423000CE0149960E94280FCE0101960E94280FB8
:10424000CE014F960E94280FCE0185960E94280F1E
:104250008091890490918A04019709F05AC00E94C4
:104260003B0990935501809354010E943309909328
:104270005701809356010E94290968EE73E00E945D
:104280004332BC01909359018093580180915201AF
:1042900090915301892B09F0A4C1CE0185960E940B
:1042A00066146091560170915701CE014F960E949D
:1042B00066146091540170915501CE0101960E94DF
:1042C0006614BE016F5F7F4FCE0149960E94F012C7
:1042D000BE01615E7F4FCE0149960E946F12BE0102
:1042E0006B5D7F4F0E946F12BC0189E097E00E94D6
:1042F000D912CE0149960E94280FCE0101960E9444
:10430000280FCE014F960E94280FCE0185960E945D
:10431000280FE0918904F0918A04EE0FFF1FE45901
:10432000FD4F2081318130938A04209389042E30FF
:10433000310549F481E090E0909361018093600140
:1043400080E88093D90480918B0491E08927809341
:104350008B048901000F111FF801E85FFE4F808177
:104360008093E904A901435151094230510550F0AD
:104370002A30310539F00E941314F801E25CFE4F37
:10438000918380838091D7069091D806009709F099
:1043900039C180917F0490918004019701F581E0FB
:1043A00080937804109267051092660544E650E009
:1043B00060E070E088EE93E00E94B6028091D20443
:1043C00081115ACB0E94B21580918B04811107C0D4
:1043D0001092750560E087E090E00E948D18809152
:1043E000760490917704019609F015C18091D90661
:1043F000882309F410C11092EB0480918B04882368
:10440000F9F00E94B205009172041091730420919A
:10441000740430917504601B710B820B930B673928
:1044200071058105910560F00E94B20560937204E8
:104430007093730480937404909375040E94B21572
:104440008091BE069091BF06009709F0E8C0809168
:104450007D0490917E04019791F511E0109378040A
:10446000109267051092660544E650E060E070E047
:1044700088EE93E00E94B6028091D2048111FCCABA
:104480000E94531580918B04811119C010937505FA
:1044900061E087E090E00E948D186091060188E05D
:1044A00090E00E948D1860916E0489E090E00E9477
:1044B0008D1860916C048AE090E00E948D188091C4
:1044C000700490917104019609F0B2C08091C00609
:1044D000882309F4ADC080918B041092EA048823EC
:1044E00021F10E94B20500916804109169042091A5
:1044F0006A0430916B04601B710B820B930B67395C
:1045000071058105910508F449C00E94B2056093C8
:1045100068047093690480936A0490936B040E940A
:10452000531580918B04811139C08091D7069091E9
:10453000D80697FD06C080917F0490918004019673
:1045400091F444E650E060E070E088EE93E00E9471
:10455000B60281E080933D0161E090E080E00E943E
:104560008D180E9491188091BE069091BF0697FD0C
:1045700006C080917D0490917E04019679F444E612
:1045800050E060E070E088EE93E00E94B602109286
:104590003D0160E090E080E00E948D18E091890488
:1045A000F0918A04E731F10508F068CAE652FD4D42
:1045B0000C9498321C234D234A249224BD24FF24BA
:1045C000AF253E1D3E1D3E1D2D2556255625562543
:1045D0003E1D3E1D3E1D3E1D3E1DBD24FF24AF253C
:1045E000AF25CE0185960E946614609154017091AA
:1045F0005501CE014F960E9466146091560170914C
:1046000057015BCE909377048093760418161906B1
:104610000CF4C5CEBECE81E08093EB0411CF909315
:10462000710480937004181619060CF416CF0FCF7E
:1046300081E08093EA0475CF8091A20481111EC0AD
:104640000E944309209104013091050182179307CC
:10465000E9F00E9443099093050180930401CE0183
:1046600001960E940616BE016F5F7F4F89E097E0BA
:104670000E94CC11CE0101960E94280F0E9443098E
:1046800080FD76C180EC8093D90474C169E077E045
:10469000CE0101960E94F012E6CF8091A204811112
:1046A000E2C080916004811111C00E94B20567517F
:1046B0007C4F8F4F9F4F60935C0470935D04809399
:1046C0005E0490935F0481E08093600480915404C1
:1046D000811144C00E94290968EE73E00E944332B0
:1046E000BC01CE0101960E9466140E943309BC01F0
:1046F000CE0149960E9466140E943B09BC01CE017E
:1047000085960E946614BE016B5D7F4FCE014F9669
:104710000E94F012BE01675E7F4FCE014F960E944D
:104720006F12BE016F5F7F4F0E946F12BC018EE45B
:1047300094E00E94F01281E080935404CE014F96E1
:104740000E94280FCE0185960E94280FCE0149961F
:104750000E94280FCE0101960E94280F009152015D
:104760001091530180914604811105C000934504C6
:1047700081E0809346040E94B205C0905C04D09012
:104780005D04E0905E04F0905F046C197D098E0971
:104790009F09693E73408105910530F4809145047D
:1047A0008017110609F44EC00E94B20560935C04A4
:1047B00070935D0480935E0490935F04012B09F075
:1047C00054C00E94290968EE73E00E944332BC0184
:1047D000CE0101960E9466140E943309BC01CE01ED
:1047E00049960E9466140E943B09BC01CE01859641
:1047F0000E946614BE016B5D7F4FCE014F960E94F2
:10480000F012BE01675E7F4FCE014F960E946F127D
:10481000BE016F5F7F4F0E946F12BC018EE494E077
:104820000E94D912CE014F960E94280FCE01859684
:104830000E94280FCE0149960E94280FCE010196B2
:104840000E94280F6EE474E0CE0101960E94F012DF
:10485000BE016F5F7F4F89E097E00E94CC11CE01CF
:1048600001960E94280F80E40ECF0E94290968EE6D
:1048700073E00E944332BC01CE0101960E9466148F
:104880000E943B09BC01CE0149960E9466140E9419
:104890003309ABCF60915E0170915F01CE018596C7
:1048A0000E94661460915C0170915D01CE014F968B
:1048B0000E94661460915A0170915B01CE010196CD
:1048C0000E946614BE016F5F7F4FCE0149960E9421
:1048D000F012BE01615E7F4FCE0149960E946F12B9
:1048E000BE016B5D7F4F0E946F12BC0189E097E0B3
:1048F0000E94D912CE0149960E94280FCE0101963E
:104900000E94280FCE014F960E94280FCE01859657
:104910000E94280F8091600190916101019741F5FB
:1049200080E8B1CE6091620170916301CE01499639
:104930000E94AD1261E473E0CE0101960E94F9126B
:10494000BE01675E7F4FCE0101960E946F1261E447
:1049500073E00E945912BC0189E097E00E94D912CD
:10496000CE0101960E94280FCE0149960E94280F81
:104970001092D9040E94021981C88091A204811169
:1049800038C081E02091640130916501232B09F446
:1049900080E00E94690C6B017C01BC01A601CE0184
:1049A00001960E948316BE016F5F7F4F89E097E0FA
:1049B0000E94CC11CE0101960E94280F80916401C3
:1049C00090916501892B91F480E48093D904109132
:1049D000D90420E030E0A901C701B6010E94F02F00
:1049E00087FF07C010681093D90448C81092D904F3
:1049F000EECF8091D9048F778093D9043FC860911E
:104A0000660170916701CE0101960E946614BE0195
:104A10006F5F7F4FCE0149960E94F0126FE373E003
:104A2000CE0149960E945912BC0189E097E00E948C
:104A3000D912CE0149960E94280FCE0101960E94FC
:104A4000280F809166019091670197FD04C0109234
:104A5000D9040C943E1D80E8CFCF809152019091F3
:104A60005301892BA1F464E473E089E097E00E948C
:104A7000A31283E090E090931F0180931E018CE0CD
:104A800090E090932101809320010C943E1D6BE4F3
:104A900073E089E097E00E94A3128CE090E090938D
:104AA0001F0180931E0183E090E0EBCF60915801DD
:104AB000709159018091520190915301892BF1F528
:104AC000CE0185960E94661460915601709157013F
:104AD000CE014F960E946614609154017091550169
:104AE000CE0101960E946614BE016F5F7F4FCE011A
:104AF00049960E94F012BE01615E7F4FCE01499639
:104B00000E946F12BE016B5D7F4F0E946F12BC014D
:104B100089E097E00E94D912CE0149960E94280FA1
:104B2000CE0101960E94280FCE014F960E94280FB9
:104B3000CE0185960E94280F0C943E1DCE018596CD
:104B40000E9466146091540170915501CE014F96F8
:104B50000E9466146091560170915701C1CF609117
:104B60006A0170916B01CE014F960E9466146091AC
:104B7000680170916901CE0101960E946614BE0120
:104B80006F5F7F4FCE0149960E94F012BE01615EB9
:104B90007F4FCE0149960E946F1262E573E00E943A
:104BA0005912BC0189E097E00E94D912CE014996C2
:104BB0000E94280FCE0101960E94280FCE014F9629
:104BC0000E94280F44CF81E090E00C94A71B1F9215
:104BD0000F920FB60F9211242F933F938F939F93B1
:104BE000AF93BF938091770590917805A091790557
:104BF000B0917A053091760523E0230F2D3758F5D3
:104C00000196A11DB11D20937605809377059093A1
:104C10007805A0937905B0937A0580917B059091F2
:104C20007C05A0917D05B0917E050196A11DB11D69
:104C300080937B0590937C05A0937D05B0937E05C2
:104C4000BF91AF919F918F913F912F910F900FBE88
:104C50000F901F90189526E8230F0296A11DB11DF5
:104C6000D2CF1F920F920FB60F9211242F933F9322
:104C70004F935F936F937F938F939F93AF93BF9364
:104C8000EF93FF938FEF95E00E943F06FF91EF9126
:104C9000BF91AF919F918F917F916F915F914F9154
:104CA0003F912F910F900FBE0F901F9018951F925C
:104CB0000F920FB60F9211242F938F939F93EF9320
:104CC000FF93E0910F06F09110068081E0911506A8
:104CD000F091160682FD1BC09081809118068F5FAF
:104CE0008F7320911906821741F0E0911806F0E0C9
:104CF000E150FA4F958F80931806FF91EF919F91A5
:104D00008F912F910F900FBE0F901F90189580815B
:104D1000F4CF1F920F920FB60F9211242F933F934F
:104D20008F939F93AF93BF93EF93FF938091F10580
:104D30009091F205A091F305B091F4050097A105BB
:104D4000B10531F130915105E0915205F0915305D3
:104D5000208123272083181619061A061B061CF427
:104D60000197A109B1098093F1059093F205A093F1
:104D7000F305B093F405FF91EF91BF91AF919F912F
:104D80008F913F912F910F900FBE0F901F9018950C
:104D9000209170002D7F2093700020915105E091AB
:104DA0005205F09153053081209523232083DBCFDA
:104DB0001F920F920FB60F9211248F939F93AF9370
:104DC000BF93EF93FF938091F5059091F605A09125
:104DD000F705B091F805892B8A2B8B2BA1F19091C7
:104DE0005405E0915505F09156058081892780830F
:104DF0008091F5059091F605A091F705B091F80521
:104E0000181619061A061B069CF48091F505909158
:104E1000F605A091F705B091F8050197A109B10930
:104E20008093F5059093F605A093F705B093F805E8
:104E3000FF91EF91BF91AF919F918F910F900FBE16
:104E40000F901F90189580916F008D7F80936F0059
:104E500080915405E0915505F0915605908180951B
:104E600089238083E5CF1F920F920FB60F921124F2
:104E70008F939F93AF93BF93EF93FF938091F90527
:104E80009091FA05A091FB05B091FC05892B8A2B26
:104E90008B2BA1F190915705E0915805F0915905A0
:104EA0008081892780838091F9059091FA05A091EE
:104EB000FB05B091FC05181619061A061B069CF492
:104EC0008091F9059091FA05A091FB05B091FC0540
:104ED0000197A109B1098093F9059093FA05A09370
:104EE000FB05B093FC05FF91EF91BF91AF919F91AE
:104EF0008F910F900FBE0F901F90189580916E00AC
:104F00008D7F80936E0080915705E0915805F09158
:104F100059059081809589238083E5CF1F920F9258
:104F20000FB60F9211242F933F934F935F936F937C
:104F30007F938F939F93AF93BF93EF93FF93809152
:104F4000B900887F803609F44AC0F0F5883209F448
:104F5000A7C018F5803109F49BC0B8F4882309F480
:104F6000F9C0883009F494C0FF91EF91BF91AF91DF
:104F70009F918F917F916F915F914F913F912F9171
:104F80000F900FBE0F901F901895883109F488C0BC
:104F9000803251F78093C50514C0803409F49DC058
:104FA00040F48033B9F38833F9F68093C50585EC76
:104FB000B0C0803509F485C0883509F496C08834BE
:104FC00099F60E945518D0CF883909F48CC038F56D
:104FD000883729F050F4883611F0803729F683E0BD
:104FE0008093C7051092330557C0883809F47BC0F9
:104FF000803919F0803809F0B7CF809133058032BD
:1050000008F071C0E091330581E08E0F8093330585
:105010008091BB00F0E0ED5EFA4F80833DC0803BA5
:1050200039F0E0F4803A09F479C0883A09F09CCF6D
:1050300084E08093C7051092120510921105E0914B
:105040004F05F091500509958091110581110FC010
:1050500081E0809311051092F10409C0803C09F4AD
:10506000A6CF883C09F4A3CF883B09F07DCFE0911F
:10507000120581E08E0F80931205F0E0EF50FB4F98
:1050800080818093BB00909112058091110529C009
:105090008091A2058093BB0085EC8093BC0064CF17
:1050A0009091C4058091C305981758F5E091C40507
:1050B00081E08E0F8093C405F0E0ED55FA4F8081BA
:1050C000E9CFE091C40581E08E0F8093C405809103
:1050D000BB00F0E0ED55FA4F80839091C4058091BC
:1050E000C3059817C8F285E8D8CFE091C40581E0E0
:1050F0008E0F8093C4058091BB00F0E0ED55FA4F10
:1051000080838091C60581115CCF81E08093A105E9
:1051100084EA8093BC001092C70526CF85EC80936B
:10512000BC001092C70580913305803230F4E091C5
:105130003305F0E0ED5EFA4F10826091330570E0C8
:10514000E0914D05F0914E0583E195E009951092AF
:1051500033050ACF1092C50534CFCF93DF93EC010E
:10516000862F6F87188A91E0998B9A8B1C8A1B8AED
:10517000198218821A821D8A1E8A1F8A188E44E19B
:1051800050E060E070E04B835C836D837E834AEF88
:1051900050E060E070E04F83588769877A8748EE77
:1051A00053E060E070E04B875C876D877E8760E04E
:1051B0000E947A028889811106C061E08F85DF91A3
:1051C000CF910C944C02DF91CF910895109202067A
:1051D0001092010688EE93E0A0E0B0E08093030611
:1051E00090930406A0930506B09306062AE133E0E7
:1051F000309300062093FF0525EC30E030930C0639
:1052000020930B0624EC30E030930E0620930D061D
:1052100020EC30E03093100620930F0621EC30E0B4
:10522000309312062093110622EC30E030931406DE
:105230002093130626EC30E03093160620931506D3
:10524000109218061092190610921A0610921B0658
:1052500010929F0610929E068093A0069093A1063E
:10526000A093A206B093A3068CE293E090939D06D0
:1052700080939C0665E573E08DE197E00E94F9124A
:1052800060E087E00E947A02E3E2F1E0E491E093DB
:105290000F07EFE0F1E0E491F0E0EE0FFF1FE250C6
:1052A000FF4F85919491909311078093100710926E
:1052B0001A0710921C0710921B07109219071092E0
:1052C00018071092170710921607109215071092E0
:1052D000140710921307109212076DE373E089E030
:1052E00097E00E94F9126EE080EF96E00E94AD28F0
:1052F00060E187ED96E00E94AD286FE08EEB96E0CE
:105300000E94AD281092A9061092B0061092B7061E
:105310001092B8061092B9061092BA0681E08093F6
:10532000B6068093B3061092B40692E09093B50649
:105330008093A80688E190E09093AD068093AC0638
:105340000E94A6329093B2068093B106009789F12D
:1053500028E1FC0111922A95E9F788E090E090930A
:10536000AB068093AA0686E090E09093AF06809308
:10537000AE068091A906882341F061E086E00E9494
:105380007A0260E086E00E944C02EEE0F1E0E491F7
:10539000F0E0EE0FFF1FEC50FF4F8591949190933A
:1053A000BC068093BB06E2E2F1E0E491E093BD0627
:1053B00008951092AD061092AC061092AB061092B2
:1053C000AA06D1CFCF93DF93CDB7DEB7CE54D109A4
:1053D0000FB6F894DEBF0FBECDBF789484B582605F
:1053E00084BD84B5816084BD85B5826085BD85B589
:1053F000816085BD80916E00816080936E00109207
:105400008100809181008260809381008091810081
:105410008160809381008091800081608093800012
:105420008091B10084608093B1008091B000816070
:105430008093B00080917A00846080937A0080919C
:105440007A00826080937A0080917A0081608093F4
:105450007A0080917A00806880937A001092C1006F
:105460001092800510927F051092CE051092F005E3
:105470000E94F1098EEB95E09093500580934F05C3
:105480008FEB95E090934E0580934D05E0910F06CC
:10549000F091100682E08083E0910B06F0910C06FB
:1054A0001082E0910D06F0910E0680E1808310924B
:1054B0001706E0911306F091140686E08083E091D0
:1054C0001106F0911206808180618083E0911106BF
:1054D000F0911206808188608083E0911106F0913E
:1054E0001206808180688083E0911106F091120697
:1054F00080818F7D808381E090E00E948F188C30C6
:1055000009F431C188E190E09093630180936201D6
:1055100090E080E00E948F18882309F427C181E081
:1055200080933D0182E090E00E948F188F3F09F048
:1055300020C110925B0110925A0183E090E00E941A
:105540008F188F3F09F01BC110925D0110925C0112
:1055500084E090E00E948F188F3F09F016C11092EE
:105560005F0110925E0186E090E00E948F188F3FED
:1055700009F011C1109261011092600187E090E082
:105580000E948F188F3F09F00CC1109275058BE0B7
:1055900090E00E948F188F3F09F00AC110926501B8
:1055A000109264018CE090E00E948F188F3F31F0E0
:1055B0008C50990B90936701809366018DE090E089
:1055C0000E948F188F3F29F090E0909353018093B1
:1055D00052018EE090E00E948F188F3F29F090E0FA
:1055E00090936901809368018FE090E00E948F188A
:1055F0008F3F29F090E090936B0180936A0161E006
:1056000089E00E947A0261E086E00E947A0261E00D
:1056100083E00E947A0280915A05833008F03DC1F0
:1056200092E09093FD05E82FF0E0E357FF4FE491FF
:10563000E093FE058F5F80935A05E13009F4DFC0E7
:1056400008F4BCC0E23009F401C180913B019091A3
:105650003C010E943A0D90933C0180933B0161E034
:105660008AE00E947A0262E088E00E947A0288E082
:105670000E94230221E0892B09F020E020935C05A1
:105680001FB7F89480915B05811127C0E2E1F1E03A
:105690008491E6E2F1E09491E82FF0E0EE0FFF1F35
:1056A000EA52FF4FA591B491EC91E92321F461E016
:1056B0008AE00E944C0261E08AE00E947A028CB586
:1056C00080618CBD8CB580648CBD61E08DE00E94F2
:1056D0007A0261E08BE00E947A0280915B058F5F25
:1056E00080935B051FBF80915C05882309F4D9C0B6
:1056F00089E791E00E9435018091AE069091AF0656
:1057000097FD08C061E00E947A0260E08091AE06D9
:105710000E944C0281E08093A9066091B006633339
:1057200009F4C7C02091B1063091B206615009F466
:10573000BAC070E08FEF92E30E942F32F9014091DE
:10574000AC065091AD06CF01821B930B84179507D1
:1057500008F0ACC04081469FC001479F900D1124C6
:1057600090833196ECCF8CE090E0CECE10923D014C
:10577000D9CE90E090935B0180935A01DECE90E009
:1057800090935D0180935C01E3CE90E090935F0184
:1057900080935E01E8CE90E0909361018093600178
:1057A000EDCE91E0811101C090E090937505EFCEB0
:1057B00090E09093650180936401F4CE14BC15BC15
:1057C00084B5826084BD85B5816085BD8091FD050D
:1057D00090E0FC01E85FFE4FE491F0E0EE0FFF1F68
:1057E000EC50FF4F25913491309359052093580583
:1057F000FC01E45EFE4FE491E093570526CF109242
:1058000080001092810080918100886080938100E7
:10581000809181008160809381008091FD0590E0FE
:10582000FC01E85FFE4FE491F0E0EE0FFF1FEC504B
:10583000FF4F259134913093560520935505FC0177
:10584000E45EFE4FE491E0935405FFCE1092B00069
:105850001092B1008091B00082608093B00080917E
:10586000B10081608093B1008091FD0590E0FC0162
:10587000E85FFE4FE491F0E0EE0FFF1FEC50FF4FAA
:10588000259134913093530520935205FC01E45E39
:10589000FE4FE491E0935105D8CE8FEF8093FE0543
:1058A000D4CE89E526CF70E060E048CF83E38093D3
:1058B000B00662E08EE00E947A0262E080E10E941F
:1058C0007A0262E08FE00E947A0261E082E00E9448
:1058D0007A0204E110E020E030E00093F306109338
:1058E000F4062093F5063093F6064EE150E060E0B2
:1058F00070E04093F7065093F8066093F9067093B2
:10590000FA0680ED97E0A0E0B0E08093FB0690936C
:10591000FC06A093FD06B093FE060093DA061093F2
:10592000DB062093DC063093DD064093DE065093C1
:10593000DF066093E0067093E1068093E2069093A1
:10594000E306A093E406B093E5060093C106109326
:10595000C2062093C3063093C4064093C5065093F5
:10596000C6066093C7067093C8068093C9069093D5
:10597000CA06A093CB06B093CC0683EC90E00E94BD
:10598000AE0625E030E042E050E06DE177E0CE0188
:1059900001967C010E940A1322E030E041E050E0D1
:1059A0006DE177E0CE01875B9F4F0E940A13BE0135
:1059B000675B7F4FCE018D5B9F4F0E94F0126CE5BD
:1059C00073E0CE018D5B9F4F0E945912B7010E9478
:1059D0006F12FC0144815581608171818FEF95E0E8
:1059E0000E94C1050E947E0FCE018D5B9F4F0E94D9
:1059F000280FCE01875B9F4F0E94280FC7010E948E
:105A0000280F0CE910E037E2D32EDA94DD2049F0BC
:105A1000F80164918FEF95E00E9461060F5F1F4FC0
:105A2000F4CF0E947E0F80913B0190913C019093B6
:105A30006705809366050E943A0D10E000E040E0A3
:105A400050E06FEF70E0C8010E94C4000F5F1F4F6D
:105A500008301105A1F70E94A10468EE73E080E010
:105A600090E00E94800510E000E040E05FEF60E021
:105A700070E0C8010E94C4000F5F1F4F083011057D
:105A8000A1F70E94A10468EE73E080E090E00E941C
:105A9000800510E000E04FEF50E060E070E0C801EA
:105AA0000E94C4000F5F1F4F08301105A1F70E942C
:105AB000A10468EE73E080E090E00E9480050E94FF
:105AC000A50B6DE373E0C7010E94F9126EE573E068
:105AD000CE0107960E94F91265E673E0CE010D969D
