:10000000F4C1000023C2000021C200001FC2000092
:100010001DC200001BC2000019C2000017C2000070
:1000200015C2000013C2000011C200000FC2000080
:100030000DC200000C943B2709C2000007C200005B
:1000400005C200000C949A2701C20000FFC1000005
:10005000FDC100000C940328F9C100000C94352662
:10006000F5C100000C9462240C943924EFC1000007
:10007000EDC10000EBC10000E9C10000E7C10000D4
:10008000E5C10000E3C10000E1C10000DFC10000E4
:100090000C9410240C94E723D9C100000C94573C15
:1000A000D5C10000D3C100000C94D21ACFC100000A
:1000B000CDC10000CBC10000C9C100000C947F2657
:1000C000C5C10000C3C10000C1C10000BFC1000024
:1000D000BDC10000BBC10000B9C10000B7C1000034
:1000E000B5C1000070077207660768076A076C07EA
:1000F0006E078F0EC10E7A117112A312EF123C1807
:100100003C183C185A138213821382133C183C1873
:100110003C183C183C18A312EF127A1C7D1C781C6A
:100120007A1C7D1C7F1C831C941C67226A22592226
:100130005D226322A1226E22722278227C228022FA
:1001400086228A228E22A122942298229C222C3559
:100150003C3543354935503556355D3561356C355F
:100160005A44410056544700524D430047535600ED
:100170004753540047534100474C4C004747410008
:100180007C017801740170016C01680164016001F7
:100190005570646174696E672074696D652E2E2ECA
:1001A00000496E636F727265637420536F6E6720CF
:1001B000466F726D617421005247423D6F66660062
:1001C0005247423D6F6E004D6F6E74683A00446155
:1001D000793A00446F776E206C6F6E672E2E2E2E4C
:1001E00000446F776E2073686F7274005570206CD6
:1001F0006F6E672E2E2E2E0055702073686F7274EE
:10020000004D6F6465206C6F6E672E2E2E2E004D94
:100210006F64652073686F72740057616B65207539
:10022000702C204E656F2100426C75653D00475271
:1002300045454E3D005245443D005265616465644C
:100240002066726F6D20454550524F4D0000000AE8
:100250000B02090C0D0E080703040100000000004A
:10026000000000000000000000000000000000008E
:10027000000000000000000000121110000000004B
:10028000000000000000000000000000000000006E
:1002900000000002010000002100240027002A00C5
:1002A0002D003000330001010000040107010A01A4
:1002B0004661756C747920445333323331210044E4
:1002C00053333233315F543D0053746F70205465A3
:1002D00073740054656D702E2073656E736F722099
:1002E0006E6F7420666F756E642E00537461727445
:1002F0002054657374004669726D7761726520766B
:10030000657273696F6E3A20005761726E696E672D
:10031000212052544320444F4E27542052455350DD
:100320004F4E44210000002200250028002B002E03
:10033000003100340002010000050108010B01003A
:100340000020002300260029002C002F003200008E
:10035000010000030106010901050505050705085F
:10036000080808020202020A0A0808040404040138
:10037000010101010101010303030303030303045A
:100380000707070C0C0C0C0C0C0C0C0202020206EA
:10039000060606060606060B0B0B0B0B0B0B0B01DA
:1003A0000210202008081020401020408002010286
:1003B000010804020101020408102040808040204E
:1003C0001008040201800402018040201008040289
:1003D0000108040201010204081020408001020407
:1003E0000810204080004E44A73E11241FBECFEFCE
:1003F000D1E2DEBFCDBF00E00CBF29E0A4E0B5E054
:1004000001C01D92A13EB207E1F715E0A0E0B2E005
:10041000ECE4F6E900E00BBF02C007900D92A430B7
:10042000B107D9F711E0C4EFD1E000E006C0219791
:100430000109802FFE010E94DC48C33FD10780E004
:100440000807A9F70E94BE3E0C94154BD9CD2F92F8
:100450003F924F925F926F927F928F929F92AF9254
:10046000BF92CF92DF92EF92FF920F931F93CF93A1
:10047000DF93CDB7DEB7C057D1400FB6F894DEBFDB
:100480000FBECDBF0E947B2520E137E240E050E067
:100490000E94B847672B682B692B29F48091F305DC
:1004A00081110C945615DD24D39401E053E0C52E40
:1004B000F2E0FF2EAAE0EA2EE0912D06F0912E0642
:1004C0000084F185E02D8DE296E01995892B09F4E1
:1004D000D0C1E0912D06F0912E060284F385E02D27
:1004E0008DE296E01995182F8091F4089091F50807
:1004F000A091F608B091F7080196A11DB11D809357
:10050000F4089093F508A093F608B093F708143216
:1005100009F580910E0984FF0FC00E941E2560938B
:10052000FC087093FD088093FE089093FF0880916B
:100530000E098F7E80930E0910920A091092EB0823
:1005400000930F0910920C0980910E098D7F809302
:100550000E09B2CF20910F09223071F51A3219F429
:10056000C0920F0920C080EE810F8F3508F012C1B4
:1005700080910A09812780930A098091EB088630CF
:1005800031F4812F0E941235882309F403C11C32F3
:1005900069F480910E098D7F80930E0980910B097B
:1005A0008F5F80930B0910920C0986CF80910C0904
:1005B0008F5F80930C0980CF213009F071C080914A
:1005C0000A09812780930A091C32D9F48091EB082B
:1005D000882311F40C94361889E099E0C059DE4F55
:1005E0002883C057D1400E948E3EC059DE4F2881DB
:1005F000C057D14020930B0910920C09F0920F09BB
:100600005BCFA0900C0921E02A1510F00C94741512
:100610004EEF942E9A0CB090EB08BB2021F0BA94C8
:1006200087E08B1508F4B12CEB2DF0E0EE0FFF1FE7
:10063000E058FE4F85919491692D70E0FC01E60F22
:10064000F71FE4911E1305C0B394B092EB080C940D
:1006500074151E1714F40C943618B394A8E0BA1647
:1006600011F40C943618EB2DF0E0EE0FFF1FE0585C
:10067000FE4F459154919C01DA01A81BB90BE22F62
:10068000E81BE91510F0CA01D9CFF9018490FD01EA
:10069000E20FF31FE4912F5F3F4F8E1681F3F3CFEC
:1006A000233009F07DC010628FE9810F863010F48D
:1006B000175501C0105340910C0920910A09812F50
:1006C00090E041110DC000930C0930E0B4E0359585
:1006D0002795BA95E1F72817390709F4EDCE47C0F9
:1006E0002F7030E02817390709F041C080910E09BA
:1006F00081FF0DC08D7F80930E094F5F40930C09E1
:100700008091EB08863019F48CE20E9412358091BA
:10071000EC089091ED08A091EE08B091EF080196D9
:10072000A11DB11D8093EC089093ED08A093EE08F5
:10073000B093EF0891E08091EB08823009F090E0EF
:1007400080910E0990FB84F980930E0910920F0995
:1007500020911A09222349F1886080930E09109292
:100760001B0980911A09815080931A091EC080913B
:10077000F0089091F108A091F208B091F308019669
:10078000A11DB11D8093F0089093F108A093F20889
:10079000B093F30889E099E00E948E3E0C943618DD
:1007A00021118ACE1092EB0887CE8091090980FF33
:1007B0000CC0309119092091080930FF04C0309114
:1007C0001809321710F42093180981FF0CC02091EA
:1007D00004092093140920910509209315092091FB
:1007E00006092093160982FF10C0809102098093A8
:1007F0001209809101098093110980910009809369
:100800001009809107098093170920911909809197
:100810000909822B80931909992309F44DCE8091FF
:100820001C09E89EC0011124FC01E75EF64F2081FF
:1008300022FF16C0FC01E551F74F84A5811110C0BD
:100840008091FC089091FD08A091FE08B091FF08EE
:100850008093F8089093F908A093FA08B093FB08E6
:1008600010921C0980911A09811126CED0921A0982
:100870001FCE80911A09882351F1CE0149960E941A
:10088000913E80911A098823C1F0815080931A0902
:1008900080911B092AE0289FC0011124FC01E05F20
:1008A000F64FDE01599601900D922A95E1F7805F8F
:1008B000964F0E94913E10921B098AE0FE017996A4
:1008C000A1EEB8E001900D928A95E1F705C0809104
:1008D000EA088B7F8093EA080E947B2500915F05E0
:1008E000109160052091610530916205DC01CB011A
:1008F000801B910BA20BB30B00912D0210912E02C5
:1009000020912F0230913002081719072A073B0760
:1009100070F480E497E7ABE1B0E080932D02909310
:100920002E02A0932F02B093300210922C028091DD
:100930002C028111CAC08091E308883108F0C5C03B
:100940008091E2088C3308F0C0C08091E1088C33BC
:1009500008F0BBC08091E508803208F0B6C08091F5
:10096000E6088D3008F0B1C08091E70890E0449728
:100970000B9708F0AAC08091EA088B7F8093EA0861
:1009800080E991E00E94BF328091E3080E94043E1A
:100990008091E2080E94043E8091E1080E94043E9A
:1009A000E090E708F12C0091E60810E02091E508BE
:1009B00030E04091E10850E06091E20870E0809101
:1009C000E30890E00E946C280E941E250091F80820
:1009D0001091F9082091FA083091FB08DC01CB0155
:1009E000801B910BA20BB30B8032914AA740B1053B
:1009F00098F08091BD059091BE05A091BF05B09182
:100A0000C0050196A11DB11D8093BD059093BE0543
:100A1000A093BF05B093C005A0915E02B0915F02A4
:100A200020E13EE00E94E4480091BD051091BE0522
:100A30002091BF053091C005DC01CB01800F911FD3
:100A4000A21FB31F8093BD059093BE05A093BF0561
:100A5000B093C0050E9447297C010E945029082FAD
:100A60000E945729C059DE4F8883C057D1400E9449
:100A70005E29C159DE4F8883CF56D1400E94652937
:100A8000182F0E947C29382FC70168EE73E00E945E
:100A9000AD48E82EC059DE4F2881C057D140C1591A
:100AA000DE4F4881CF56D140612F832F0E94883D71
:100AB00081E080932C020E947B2560935F057093F8
:100AC0006005809361059093620510925305109222
:100AD000540510925505109256058AE797E09093B9
:100AE0005A058093590580917707282E312C309232
:100AF0005C0520925B058091440890E090935E0530
:100B000080935D0580917307853009F002C1809163
:100B100077078A3108F46BC080917A0790917B0740
:100B2000843F914090F410925805109257058FEF32
:100B30009FEFDC018093530590935405A0935505D6
:100B4000B09356058BE090E03EC080917C07909179
:100B50007D0785974B9708F04AC0E0E8F7E082E010
:100B600090E040E050E0BA018C010F5F1F4F2091F0
:100B7000770730E00217130774F49F012250310900
:100B8000D9012D913C91275031092730310510F4BE
:100B90000C947915C8010197959587959093580500
:100BA000809357050C972CF4109258051092570516
:100BB0001EC04093530550935405609355057093A0
:100BC000560584E090E09093500580934F05609126
:100BD000530570915405809155059091560540E15B
:100BE0000E94F63384E294E00E948C328DC0B6E01D
:100BF0002B1631040CF488C000E817E0E3E0F0E0C5
:100C0000C359DE4FF983E883CD56D14065ECC62E3B
:100C10006DE9D62E6CE1E62E61E8F62EC359DE4F63
:100C200088819981CD56D140821593050CF05BC027
:100C3000D8016D917C91F8013497A080B18080E05B
:100C400090E00E947E462B013C01B50180E090E0DF
:100C50000E947E464B015C012DEC3CEC4CE45FE3D2
:100C60000E94DF469B01AC01C301B2010E947A469B
:100C700087FD17C02DEC3CEC4CE45FE3C301B201EF
:100C80000E94DF469B01AC01C501B4010E947A4677
:100C9000E82F880FFF0BEE27FF0FEE1FFF2731967F
:100CA00002C0E0E0F0E0A701960163E971E080E0B6
:100CB00091E00E94A9476F01FF0FEE08FF08C626CA
:100CC000D726E826F926C359DE4FE881F981CD56AB
:100CD000D1403196C359DE4FF983E883CD56D140D8
:100CE0000E5F1F4F9BCFC0925305D0925405E092E8
:100CF0005505F092560580E290E090935805809358
:100D000057058FEF9FEF5FCF82E0809373071092BC
:100D10007707609153057091540583ED98E00E9428
:100D20002C3E90934E0580934D05019721F48FE062
:100D300092E00E94BF3280914D0590914E05019640
:100D400021F481E092E00E94BF32609153057091DE
:100D5000540586EC98E00E942C3E90934C058093BD
:100D60004B05019721F488EF91E00E94BF328091FA
:100D70004B0590914C05019621F48CEE91E00E9478
:100D8000BF32609153057091540589EB98E00E9441
:100D90002C3E90934A0580934905019721F481EEFA
:100DA00091E00E94BF328091490590914A050196D9
:100DB00021F483ED91E00E94BF320091E70510918C
:100DC000E805D8018C91882309F435C10E947B2560
:100DD000C0900A05D0900B05E0900C05F0900D0531
:100DE000DC01CB018C199D09AE09BF09C090060535
:100DF000D0900705E0900805F0900905C816D906BF
:100E0000EA06FB0608F017C10E947B256B017C01F6
:100E100060930A0570930B0580930C0590930D0564
:100E20001092680510926705A8016AE08A01FA012C
:100E3000B0804F5F5F4F80ED8B0D20916705309143
:100E400068058A3080F4629FF001639FF00D1124E1
:100E50008B2DBB0C990BC0978E0F9F1F909368052D
:100E600080936705E3CF609163057091640580917D
:100E70006505909166052115310529F0032E000CBA
:100E8000440B550B05C02091340230E040E050E0A7
:100E90000E94C0482093060530930705409308053B
:100EA000509309058B2DBB0C990BAA0BBB0BFC01B6
:100EB000E156F109E730F10530F48827EE58FF4F8D
:100EC0008F4F0C94DC48109205050FC081E00BC0D9
:100ED00083E009C085E007C086E005C088E003C064
:100EE0008AE001C08CE080930505D80111968C91B1
:100EF000833219F00F5F1F4F07C0809105058F5F88
:100F0000809305050E5F1F4FF80180818E3201F539
:100F10008090060590900705A0900805B0900905FF
:100F2000C501B40122E030E040E050E00E94C0483A
:100F3000D501C401820F931FA41FB51F809306051E
:100F400090930705A0930805B09309050F5F1F4F05
:100F5000D8018C9180538A3028F4809304050F5F68
:100F60001F4F04C0809133028093040580910405D3
:100F7000F80190819C3211F40F5F1F4F20910505FD
:100F8000222309F458C08090060590900705A09090
:100F90000805B090090590E004973CE0389FF00107
:100FA000399FF00D1124E20FF11DEE0FFF1FEE57D8
:100FB000FD4FB501A401808191810E94B3300E9450
:100FC0007B25DC01CB018C199D09AE09BF09881670
:100FD0009906AA06BB0678F50E947B2560930A0550
:100FE00070930B0580930C0590930D0580912C0652
:100FF000813051F0823071F0811111C080916E000A
:101000008D7F80936E000BC080916F008D7F8093E9
:101010006F0005C0809170008D7F8093700060E04C
:1010200080912B060E94B32481EA91E00E94BF3296
:1010300090E080E002C0902F812F9093E70580938D
:10104000E8050E947B2500914505109146052091F9
:10105000470530914805DC01CB01801B910BA20BA9
:10106000B30B8997A105B10508F4A9C080912C069E
:10107000813039F0823041F081110CC080916E00D6
:1010800005C080916F0002C08091700086958170CC
:1010900009F08BC080913702811103C00E94C01AF1
:1010A00084C08091F605811180C0009110051091D7
:1010B0001105C801880F991F800F911FFC01EE0FC9
:1010C000FF1FEC51FD4F208131816AE0629FA0013A
:1010D000639F500D11242091020230910302420FB0
:1010E000531F5093030240930202FC01EE0FFF1FB7
:1010F000EA51FD4F20813181629FF001639FF00D25
:10110000112420913B0530913C052E0F3F1F309359
:101110003C0520933B05880F991FFC01E851FD4FCA
:1011200080819181689F6001699FD00C112480911A
:10113000390590913A05C80ED91ED0923A05C09251
:101140003905D12CE12CF12CE42AD22AA12CB12C86
:10115000B701A601C5010E94CB32FFEFAF1ABF0A4B
:1011600028E0A216B104A1F70E94363380910E0543
:1011700090910F05019690930F0580930E05499766
:1011800051F40F5F1F4F109311050093100510923B
:101190000F0510920E05809110059091110506978C
:1011A00024F010921105109210050E947B25609387
:1011B00045057093460580934705909348058091B7
:1011C000030690910406892B21F08091020681117B
:1011D00006C080916905811102C00E94EB298CE84C
:1011E00098E00E94A13B83E798E00E94A13B8AE53A
:1011F00098E00E94A13B80916905811103C0109283
:1012000071052DC00E947B2500916A0510916B0528
:1012100020916C0530916D05DC01CB01801B910B99
:10122000A20BB30B81369A4EA105B105C0F0109206
:101230006905E0910306F0910406EE0FFF1FE85ADE
:10124000FC4F808191819093040680930306880F60
:10125000991FFC01EC5FFD4F8081809371058091A7
:101260008C0890918D08181619063CF080914D0558
:1012700090914E05019709F09BC081E08093020692
:101280001092E8051092E70544E650E060E070E057
:1012900088EE93E00E94B3300E947B2560936A053C
:1012A00070936B0580936C0590936D058091030698
:1012B0009091040601968630910529F090930406DA
:1012C0008093030604C01092040610920306209136
:1012D0000306309104068901000F111FF801EC5F2D
:1012E000FD4F808180937105D9011197FD01EE0FAB
:1012F000FF1FE05DFC4F608171816115710509F48C
:1013000048C0AB0141505109FA01EE0FFF1FE85FE1
:10131000FC4F0190F081E02DEA17FB07D1F5623018
:10132000710511F00C94971588E1EAE6F2E0DE0110
:10133000119601900D928A95E1F78091500290915B
:10134000510283709927892B21F48DE190E09C83D1
:101350008B8320914C0230914D02E0914E02F0912E
:101360004F023197EE0FFF1F81E090E08C0F9D1F21
:10137000E80FF91F808191818217930714F00C9474
:1013800097158AE090E090930406809303060C94EE
:101390003C182331310561F02950310922303105E3
:1013A00038F00E94A136F801E85CFD4F91838083FC
:1013B00080918C0890918D0897FD07C080914D0514
:1013C00090914E05019609F07AC344E650E060E042
:1013D00070E088EE93E00E94B3308091690581113E
:1013E00045C10E947B2560936A0570936B058093CD
:1013F0006C0590936D058091030690910406892BEE
:1014000009F034C10E945E29181619061CF40E94C6
:101410005E2905C00E945E2991958195910911E090
:101420000A974CF010E00E945E291816190664F520
:101430000E945E292EC00E945E29181619061CF40F
:101440000E945E2905C00E945E29919581959109AF
:101450004AE0BC01CE0189599E4F0E94A0236CE254
:1014600074E0CE018F599E4F0E94D323BE0169596B
:101470007E4FCE018F599E4F0E944123BC01CE0169
:101480008F960E94CB230BC00E945E299195819577
:1014900091094AE0BC01CE018F960E94A0230E94D0
:1014A0006529181619061CF40E94652905C00E94BA
:1014B000652991958195910901E00A974CF000E02A
:1014C0000E9465291816190664F50E9465292EC028
:1014D0000E946529181619061CF40E94652905C08A
:1014E0000E9465299195819591094AE0BC01CE0140
:1014F000855A9E4F0E94A0236CE274E0CE018B5A65
:101500009E4F0E94D323BE01655A7E4FCE018B5A57
:101510009E4F0E944123BC01CE0189960E94CB239D
:101520000BC00E9465299195819591094AE0BC0103
:10153000CE0189960E94A0230E947C2918161906C4
:101540001CF40E947C2905C00E947C2991958195FC
:101550009109FF24F3940A974CF0F12C0E947C2906
:101560001816190664F50E947C292EC00E947C2959
:10157000181619061CF40E947C2905C00E947C29BB
:101580009195819591094AE0BC01CE01815B9E4F06
:101590000E94A0236CE274E0CE01875B9E4F0E9404
:1015A000D323BE01615B7E4FCE01875B9E4F0E94BD
:1015B0004123BC01CE0101960E94CB230BC00E94A7
:1015C0007C299195819591094AE0BC01CE01019653
:1015D0000E94A023BE016F5F7F4FCE0183960E94C1
:1015E000CB23BE01675D7F4FCE0183960E944123CE
:1015F000BE01615D7F4F0E944123BC0185EA98E0F6
:101600000E948623CE0183960E949B23CE010196E1
:101610000E949B23FF2051F0CE01875B9E4F0E94CA
:101620009B23CE01815B9E4F0E949B23CE01899616
:101630000E949B23002351F0CE018B5A9E4F0E94A3
:101640009B23CE01855A9E4F0E949B23CE018F96ED
:101650000E949B23112351F0CE018F599E4F0E946F
:101660009B23CE0189599E4F0E949B2380910306A4
:1016700090910406019709F0E9C10E9457299093BF
:101680004D0280934C020E94502990934F02809308
:101690004E020E94472968EE73E00E94AD48909385
:1016A00051028093500240914A0250914B029C019A
:1016B000275F3F4FBC01452B09F0E4C023313105C2
:1016C00008F597FF03C07195619571094AE0CE0155
:1016D0008D5B9E4F0E94A0236CE274E0CE01835C80
:1016E0009E4F0E94D323BE016D5B7E4FCE01835C73
:1016F0009E4F0E944123BC01CE018F960E94CB23B6
:1017000011E00BC097FF03C07195619571094AE024
:10171000CE018F960E94A02310E060914E0270913E
:101720004F02CB010996439708F577FF03C07195E7
:10173000619571094AE0CE01895C9E4F0E94A02309
:101740006CE274E0CE018F5C9E4F0E94D323BE01F9
:10175000695C7E4FCE018F5C9E4F0E944123BC018D
:10176000CE0189960E94CB2301E00BC077FF03C016
:101770007195619571094AE0CE0189960E94A02376
:1017800000E060914C0270914D02CB0109964397A5
:1017900010F577FF03C07195619571094AE0CE019C
:1017A000855D9E4F0E94A0236CE274E0CE018B5DAC
:1017B0009E4F0E94D323BE01655D7E4FCE018B5D9F
:1017C0009E4F0E944123BC01CE0101960E94CB2373
:1017D000FF24F3940BC077FF03C0719561957109E5
:1017E0004AE0CE0101960E94A023F12CBE016F5F5A
:1017F0007F4FCE0183960E94CB23BE01675D7F4F52
:10180000CE0183960E944123BE01615D7F4F0E94FD
:101810004123BC0185EA98E00E948623CE0183968D
:101820000E949B23CE0101960E949B23FF2051F032
:10183000CE018B5D9E4F0E949B23CE01855D9E4F06
:101840000E949B23CE0189960E949B23002351F086
:10185000CE018F5C9E4F0E949B23CE01895C9E4FE0
:101860000E949B23CE018F960E949B23112309F493
:10187000EDC0CE01835C9E4F0E949B23CE018D5B09
:101880009E4FE2C02331310508F597FF03C07195E3
:10189000619571094AE0CE01815E9E4F0E94A023AE
:1018A0006CE274E0CE01875E9E4F0E94D323BE019E
:1018B000615E7E4FCE01875E9E4F0E944123BC0138
:1018C000CE018F960E94CB2311E00BC097FF03C07F
:1018D0007195619571094AE0CE018F960E94A0230F
:1018E00010E060914C0270914D02CB010996439734
:1018F00008F577FF03C07195619571094AE0CE0143
:101900008D5E9E4F0E94A0236CE274E0CE01835F47
:101910009E4F0E94D323BE016D5E7E4FCE01835F3A
:101920009E4F0E944123BC01CE0189960E94CB2389
:1019300001E00BC077FF03C07195619571094AE022
:10194000CE0189960E94A02300E060914E02709122
:101950004F02CB010996439710F577FF03C07195AD
:10196000619571094AE0CE01895F9E4F0E94A023D4
:101970006CE274E0CE018F5F9E4F0E94D323BE01C4
:10198000695F7E4FCE018F5F9E4F0E944123BC0155
:10199000CE0101960E94CB23FF24F3940BC077FF66
:1019A00003C07195619571094AE0CE0101960E94CC
:1019B000A023F12CBE016F5F7F4FCE0183960E9462
:1019C000CB23BE01675D7F4FCE0183960E944123EA
:1019D000BE01615D7F4F0E944123BC0185EA98E012
:1019E0000E948623CE0183960E949B23CE010196FE
:1019F0000E949B23FF2051F0CE018F5F9E4F0E94DB
:101A00009B23CE01895F9E4F0E949B23CE01899626
:101A10000E949B23002351F0CE01835F9E4F0E94C2
:101A20009B23CE018D5E9E4F0E949B23CE018F96FD
:101A30000E949B23112351F0CE01875E9E4F0E948E
:101A40009B23CE01815E9E4F0E949B23E091030663
:101A5000F0910406EE0FFF1FE85AFC4F2081318100
:101A600030930406209303062D30310549F481E0BC
:101A700090E0909359028093580280E8809370051B
:101A80009091690581E08927809369058901000F9C
:101A9000111FF801EC5FFD4F808180937105A90152
:101AA000425151094230510550F02930310539F089
:101AB0000E94A136F801E85CFD4F918380838091FC
:101AC000730890917408009739F480914B059091B8
:101AD0004C05019721F507C0909344058093430579
:101AE0001816190694F781E0809302061092E80513
:101AF0001092E70544E650E060E070E088EE93E085
:101B00000E94B3300E94192080916905811107C09D
:101B10001092F60560E087E090E00E94B13080917D
:101B2000430590914405019661F5809175088823DD
:101B300041F11092730580916905882329F10E9473
:101B40007B2500913F051091400520914105309182
:101B50004205DC01CB01801B910BA20BB30B873933
:101B60009105A105B10580F00E947B2560933F059A
:101B70007093400580934105909342050E9419207F
:101B800003C081E08093730580915A0890915B08AF
:101B9000009739F48091490590914A050197B1F574
:101BA00007C090933E0580933D051816190694F7DB
:101BB00011E0109302061092E8051092E70544E642
:101BC00050E060E070E088EE93E00E94B3300E9445
:101BD000BB1F80916905811119C01093F60561E062
:101BE00087E090E00E94B1306091020288E090E0CE
:101BF0000E94B13060913B0589E090E00E94B130D5
:101C0000609139058AE090E00E94B13080913D05F5
:101C100090913E05019661F580915C08882341F121
:101C20001092720580916905882329F10E947B2515
:101C30000091350510913605209137053091380512
:101C4000DC01CB01801B910BA20BB30B87399105F3
:101C5000A105B10580F00E947B2560933505709346
:101C6000360580933705909338050E94BB1F03C04B
:101C700081E08093720580916905811141C0809156
:101C800073089091740897FD06C080914B05909160
:101C90004C050196B1F444E650E060E070E088EE57
:101CA00093E00E94B33081E08093370261E080E0EE
:101CB00090E00E94B13080EC91E00E94BF320E941F
:101CC000651A80915A0890915B0897FD06C0809133
:101CD000490590914A05019699F444E650E060E088
:101CE00070E088EE93E00E94B3301092370260E01B
:101CF00080E090E00E94B13088EB91E00E94BF321A
:101D0000E0910306F0910406E431F10510F00C9423
:101D10003C188827E758FF4F8F4F0C94DC48809180
:101D20000106811125C00E945E2920910002309198
:101D300001028217930759F00E945E2990930102D5
:101D400080930002CE0101960E947D3706C065EAAD
:101D500078E0CE0101960E94CB23BE016F5F7F4FDA
:101D600085EA98E00E94F622CE0101960E949B230C
:101D70000E945E2980FD02C080ECB3C21092700503
:101D8000B2C2809101068111ABC280912D058111F3
:101D900013C00E947B25DC01CB0187519C4FAF4FC4
:101DA000BF4F8093290590932A05A0932B05B093EC
:101DB0002C0581E080932D0580912105811154C16E
:101DC0000E94472908EE13E0B8010E94AD4818169A
:101DD000190634F40E944729B8010E94AD4808C092
:101DE0000E944729B8010E94AD48919581959109BB
:101DF000FF24F3940A978CF0F12C0E94472908EEF7
:101E000013E0B8010E94AD4818161906BCF50E94EF
:101E10004729B8010E94AD4839C00E94472908EE01
:101E200013E0B8010E94AD481816190634F40E9458
:101E30004729B8010E94AD4808C00E944729B8014F
:101E40000E94AD489195819591094AE0BC01CE016F
:101E500083960E94A0236CE274E0CE0189960E94D2
:101E6000D323BE016D5D7F4FCE0189960E94412331
:101E7000BC01CE0101960E94CB230EC00E944729CF
:101E8000B8010E94AD489195819591094AE0BC0145
:101E9000CE0101960E94A0230E945029181619060F
:101EA0001CF40E94502905C00E94502991958195EB
:101EB000910911E00A974CF010E00E945029181681
:101EC00019064CF50E9450292BC00E945029181663
:101ED00019061CF40E94502905C00E9450299195B2
:101EE000819591094AE0BC01CE01C5960E94A023CC
:101EF0006CE274E0CE01CB960E94D323BE016B5CF2
:101F00007F4FCE01CB960E944123BC01CE018F961C
:101F10000E94CB230BC00E94502991958195910975
:101F20004AE0BC01CE018F960E94A0230E9457294F
:101F3000181619061CF40E94572905C00E9457293B
:101F400091958195910901E00A974CF000E00E947B
:101F50005729181619066CF50E9457292FC00E94A0
:101F60005729181619061CF40E94572905C00E940B
:101F700057299195819591094AE0BC01CE01835B77
:101F80009F4F0E94A0236CE274E0CE018D5A9F4FB8
:101F90000E94D323BE01635B7F4FCE018D5A9F4FBA
:101FA0000E944123BC01CE01895B9F4F0E94CB233D
:101FB0000CC00E9457299195819591094AE0BC0176
:101FC000CE01895B9F4F0E94A023BE01695B7F4FBA
:101FD000CE018F5B9F4F0E94CB23BE01615D7F4F7F
:101FE000CE018F5B9F4F0E944123BE016F5F7F4FE9
:101FF0000E944123BC018BE195E00E94CB2381E04C
:1020000080932105CE018F5B9F4F0E949B23CE01C1
:10201000895B9F4F0E949B23002351F0CE018D5A74
:102020009F4F0E949B23CE01835B9F4F0E949B2367
:10203000CE018F960E949B23112341F0CE01CB96B7
:102040000E949B23CE01C5960E949B23CE01019640
:102050000E949B23FF2041F0CE0189960E949B2382
:10206000CE0183960E949B2380911305811107C0A6
:1020700080914A028093120581E0809313050E94AB
:102080007B250091290510912A0520912B0530917F
:102090002C05DC01CB01801B910BA20BB30B893EFD
:1020A0009340A105B10558F48091120590E020916C
:1020B0004A0230914B028217930709F400C10E9433
:1020C0007B256093290570932A0580932B059093B7
:1020D0002C0580914A0290914B02892B09F06BC626
:1020E0000E94472908EE13E0B8010E94AD48181677
:1020F00019060CF0EAC50E944729B8010E94AD48B4
:10210000FF24F3940A970CF0E9C50E94472908EED2
:1021100013E0B8010E94AD48181619060CF0EFC57F
:102120000E944729B8010E94AD484AE0BC01CE0197
:102130008F960E94A0236CE274E0CE018F5B9F4FCC
:102140000E94D323BE01615D7F4FCE018F5B9F4F05
:102150000E944123BC01CE0101960E94CB230E9424
:102160005029181619060CF0E2C50E94502911E0FA
:102170000A970CF0E2C50E945029181619060CF0B7
:10218000E5C50E9450294AE0BC01CE01875A9F4F05
:102190000E94A0236CE274E0CE01815A9F4F0E94FE
:1021A000D323BE01675A7F4FCE01815A9F4F0E94B1
:1021B0004123BC01CE01895B9F4F0E94CB230E942B
:1021C0005729181619060CF0D4C50E94572901E0AA
:1021D0000A970CF0D4C50E945729181619060CF05E
:1021E000D7C50E9457294AE0BC01CE018F589F4FA6
:1021F0000E94A0236CE274E0CE0189589F4F0E9498
:10220000D323BE016F587F4FCE0189589F4F0E9444
:102210004123BC01CE0185599F4F0E94CB23BE01B3
:1022200065597F4FCE018B599F4F0E94CB23BE0132
:10223000695B7F4FCE018B599F4F0E944123BE01A6
:102240006F5F7F4F0E944123BC018BE195E00E94AC
:102250008623CE018B599F4F0E949B23CE01855927
:102260009F4F0E949B23002351F0CE0189589F4F1E
:102270000E949B23CE018F589F4F0E949B23CE012B
:10228000895B9F4F0E949B23112351F0CE01815AFD
:102290009F4F0E949B23CE01875A9F4F0E949B23F2
:1022A000CE0101960E949B23FF2049F0CE018F5B57
:1022B0009F4F0E949B23CE018F960E949B236BE130
:1022C00075E0CE0101960E94CB23BE016F5F7F4F68
:1022D00085EA98E00E94F622CE0101960E949B2397
:1022E00080E4809370050E945C1F10926F0510922D
:1022F0006E05C2C66091560270915702CB010996D5
:10230000439708F577FF03C07195619571094AE01D
:10231000CE0185509F4F0E94A0236CE274E0CE0155
:102320008B509F4F0E94D323BE0165507F4FCE013B
:102330008B509F4F0E944123BC01CE018F960E947B
:10234000CB2311E00BC077FF03C071956195710934
:102350004AE0CE018F960E94A02310E060915402C3
:1023600070915502CB010996439708F577FF03C09A
:102370007195619571094AE0CE0181519F4F0E948C
:10238000A0236CE274E0CE0187519F4F0E94D323BB
:10239000BE0161517F4FCE0187519F4F0E94412363
:1023A000BC01CE0189960E94CB2301E00BC077FFD0
:1023B00003C07195619571094AE0CE0189960E942A
:1023C000A02300E06091520270915302CB01099664
:1023D000439710F577FF03C07195619571094AE045
:1023E000CE018D519F4F0E94A0236CE274E0CE017C
:1023F00083529F4F0E94D323BE016D517F4FCE0168
:1024000083529F4F0E944123BC01CE0101960E943E
:10241000CB23FF24F3940BC077FF03C07195619524
:1024200071094AE0CE0101960E94A023F12CBE0161
:102430006F5F7F4FCE0183960E94CB23BE01675D05
:102440007F4FCE0183960E944123BE01615D7F4F85
:102450000E944123BC0185EA98E00E948623CE01B8
:1024600083960E949B23CE0101960E949B23FF200E
:1024700051F0CE0183529F4F0E949B23CE018D517C
:102480009F4F0E949B23CE0189960E949B2300238D
:1024900051F0CE0187519F4F0E949B23CE01815165
:1024A0009F4F0E949B23CE018F960E949B23112356
:1024B00051F0CE018B509F4F0E949B23CE0185503F
:1024C0009F4F0E949B2310926F0510926E05809182
:1024D000580290915902019789F580E88093700520
:1024E0002FC060915A0270915B024AE0CE01839640
:1024F0000E94A0236BE274E0CE0101960E94D323D8
:10250000BE016D5D7F4FCE0101960E9441236BE2BB
:1025100074E00E94D429BC0185EA98E00E948623D9
:10252000CE0101960E949B23CE0183960E949B239D
:1025300083E390E090936F0580936E051092700591
:102540000E945C1F99C580910106811142C081E003
:1025500020915C0230915D02232B09F480E00E94FF
:10256000611C6B017C01AB01BC01CE0101960E9494
:10257000F71CBE016F5F7F4F85EA98E00E94F6224C
:10258000CE0101960E949B2380915C0290915D0296
:10259000892B51F481E390E090936F0580936E0551
:1025A00080E48093700508C083E290E090936F050B
:1025B00080936E051092700520E030E0A901C701FC
:1025C000B6010E947A4687FF04C08091700580683A
:1025D00003C0809170058F77809370054DC5609121
:1025E0005E0270915F02CB010996439708F577FF71
:1025F00003C07195619571094AE0CE0189529F4FE0
:102600000E94A0236CE274E0CE018F529F4F0E9483
:10261000D323BE0169527F4FCE018F529F4F0E943C
:102620004123BC01CE0101960E94CB2311E00BC0D7
:1026300077FF03C07195619571094AE0CE0101965B
:102640000E94A02310E0BE016F5F7F4FCE018396F2
:102650000E94CB2369E274E0CE0183960E94D429C4
:10266000BC0185EA98E00E948623CE0183960E94F1
:102670009B23CE0101960E949B23112351F0CE0192
:102680008F529F4F0E949B23CE0189529F4F0E94E1
:102690009B238FE090E090936F0580936E0580916F
:1026A0005E0290915F0297FD03C010927005E4C432
:1026B00080E892CF80914A0290914B02892B79F465
:1026C00066E174E085EA98E00E94712383E090E07F
:1026D00090931902809318028CE090E00EC06DE197
:1026E00074E085EA98E00E9471238CE090E090937A
:1026F00019028093180283E090E090931B0280936C
:102700001A02BAC480914A0290914B026091500221
:1027100070915102892B09F0E5C0CB0109964397CE
:1027200008F577FF03C07195619571094AE0CE0104
:1027300085539F4F0E94A0236CE274E0CE018B531F
:102740009F4F0E94D323BE0165537F4FCE018B5311
:102750009F4F0E944123BC01CE018F960E94CB2344
:1027600011E00BC077FF03C07195619571094AE0D4
:10277000CE018F960E94A02310E060914E027091CE
:102780004F02CB010996439708F577FF03C0719577
:10279000619571094AE0CE0181549F4F0E94A023A8
:1027A0006CE274E0CE0187549F4F0E94D323BE0198
:1027B00061547F4FCE0187549F4F0E944123BC013B
:1027C000CE0189960E94CB2301E00BC077FF03C0A6
:1027D0007195619571094AE0CE0189960E94A02306
:1027E00000E060914C0270914D02CB010996439735
:1027F00010F577FF03C07195619571094AE0CE012C
:102800008D549F4F0E94A0236CE274E0CE0183554B
:102810009F4F0E94D323BE016D547F4FCE0183553D
:102820009F4F0E944123BC01CE0101960E94CB2301
:10283000FF24F3940BC077FF03C071956195710974
:102840004AE0CE0101960E94A023F12CBE016F5FE9
:102850007F4FCE0183960E94CB23BE01675D7F4FE1
:10286000CE0183960E944123BE01615D7F4F0E948D
:102870004123BC0185EA98E00E948623CE0183961D
:102880000E949B23CE0101960E949B23FF2051F0C2
:10289000CE0183559F4F0E949B23CE018D549F4FA5
:1028A0000E949B23CE0189960E949B23002351F016
:1028B000CE0187549F4F0E949B23CE0181549F4F8E
:1028C0000E949B23CE018F960E949B23112309F423
:1028D000D3C3CE018B539F4F0E949B23CE018553C0
:1028E0009F4FE1C0CB010996439708F577FF03C0DE
:1028F0007195619571094AE0CE0189559F4F0E94FB
:10290000A0236CE274E0CE018F559F4F0E94D32329
:10291000BE0169557F4FCE018F559F4F0E944123C5
:10292000BC01CE01C5960E94CB2311E00BC077FFFE
:1029300003C07195619571094AE0CE01C5960E9468
:10294000A02310E060914C0270914D02CB010996DA
:10295000439708F577FF03C07195619571094AE0C7
:10296000CE0185569F4F0E94A0236CE274E0CE01F9
:102970008B569F4F0E94D323BE0165567F4FCE01D9
:102980008B569F4F0E944123BC01CE018F960E941F
:10299000CB2301E00BC077FF03C0719561957109EE
:1029A0004AE0CE018F960E94A02300E060914E0283
:1029B00070914F02CB010996439700F577FF03C052
:1029C0007195619571094AE0CE0181579F4F0E9430
:1029D000A0236CE274E0CE0101960E94D323BE01D5
:1029E00061577F4FCE0101960E944123BC01CE0169
:1029F00083960E94CB23FF24F3940BC077FF03C080
:102A00007195619571094AE0CE0183960E94A023D9
:102A1000F12CBE016D5D7F4FCE0189960E94CB23C4
:102A2000BE01615D7F4FCE0189960E944123BE01A8
:102A30006B5C7F4F0E944123BC0185EA98E00E94B5
:102A40008623CE0189960E949B23CE0183960E9405
:102A50009B23FF2049F0CE0101960E949B23CE01CB
:102A600081579F4F0E949B23CE018F960E949B23EC
:102A7000002351F0CE018B569F4F0E949B23CE0125
:102A800085569F4F0E949B23CE01C5960E949B2393
:102A9000112309F4F1C2CE018F559F4F0E949B2351
:102AA000CE0189559F4F0E949B23E6C20E94F736B4
:102AB000E090F105F090F2050091EF051091F0051E
:102AC0002091ED053091EE054091F4055091F5050A
:102AD0006091EB057091EC058091E9059091EA0514
:102AE0000E946C280C945302A394A0920C090C949D
:102AF0005C0220813181235131092F30310548F4A6
:102B0000440F551F661F771F4160029634960C9440
:102B1000B405208131812A5031092930310510F066
:102B20000C94F705440F551F661F771FEECF1092C8
:102B300069055093040640930306452BB9F40E949F
:102B400047297C010E9450298C010E9457299C0131
:102B500040914802509149026091460270914702AB
:102B600080914402909145020E946C288091030656
:102B7000909104060197B9F58EEC91E00E949E3287
:102B800080914C0290914D020E94363487EC91E086
:102B90000E949E3280914E0290914F020E943634E4
:102BA000E0905002F090510290E3E91A98EFF90A90
:102BB00000914E0210914F0280904C0290904D0275
:102BC0000E945E295C010E9465296C010E947C299B
:102BD0009401A501B6010E946C2860914A028DE023
:102BE00090E00E94B1308091030690910406029714
:102BF000C1F46091520282E090E00E94B130609195
:102C0000540283E090E00E94B1306091560284E06B
:102C100090E00E94B1306091580286E090E00E94FE
:102C2000B1308091030690910406039731F46091CE
:102C30005A0281E090E00E94B130809103069091A9
:102C40000406049731F460915C028BE090E00E94EE
:102C5000B1308091030690910406059739F4609194
:102C60005E02645F8CE090E00E94B1300E944729D0
:102C70007C010E945029082F0E945729C059DE4F1D
:102C80008883C057D1400E945E29C159DE4F888396
:102C9000CF56D1400E946529182F0E947C29382FD9
:102CA000C70168EE73E00E94AD48E82EC059DE4FC0
:102CB0002881C057D140C159DE4F4881CF56D140FD
:102CC000612F832F0E94883DD7C10E944729B801F8
:102CD0000E94AD4891958195910912CAF12C0E94EC
:102CE000472908EE13E0B8010E94AD4818161906EE
:102CF0007CF40E944729B8010E94AD4811C00E948F
:102D00004729B8010E94AD489195819591090DCA56
:102D10000E944729B8010E94AD489195819591097B
:102D20004AE0BC01CE0101960E94A02318CA0E946D
:102D300050299195819591091ACA10E00E94502955
:102D4000181619064CF40E9450290BC00E945029F5
:102D500091958195910917CA0E9450299195819565
:102D600091094AE0BC01CE01895B9F4F0E94A023DC
:102D700026CA0E94572991958195910928CA00E099
:102D80000E945729181619064CF40E9457290BC0A7
:102D90000E94572991958195910925CA0E9457292A
:102DA0009195819591094AE0BC01CE0185599F4FCB
:102DB0000E94A02334CA0E94472908EE13E0B801FC
:102DC0000E94AD481816190634F40E944729B8012C
:102DD0000E94AD4808C00E944729B8010E94AD4832
:102DE000919581959109FF24F3940A978CF0F12C29
:102DF0000E94472908EE13E0B8010E94AD4818165A
:102E00001906D4F50E944729B8010E94AD483CC07C
:102E10000E94472908EE13E0B8010E94AD48181639
:102E2000190634F40E944729B8010E94AD4808C031
:102E30000E944729B8010E94AD489195819591095A
:102E40004AE0BC01CE01895B9F4F0E94A0236CE247
:102E500074E0CE018B599F4F0E94D323BE01695B62
:102E60007F4FCE018B599F4F0E944123BC01CE0161
:102E700001960E94CB230EC00E944729B8010E94F0
:102E8000AD489195819591094AE0BC01CE0101962A
:102E90000E94A0230E945729181619061CF40E94AC
:102EA000572905C00E94572991958195910911E0F4
:102EB0000A974CF010E00E9457291816190664F57D
:102EC0000E9457292EC00E945729181619061CF473
:102ED0000E94572905C00E94572991958195910913
:102EE0004AE0BC01CE0185599F4F0E94A0236CE2AD
:102EF00074E0CE0183589F4F0E94D323BE016559D1
:102F00007F4FCE0183589F4F0E944123BC01CE01C9
:102F10008F960E94CB230BC00E94572991958195D3
:102F200091094AE0BC01CE018F960E94A0230E9425
:102F30005029181619061CF40E94502905C00E9439
:102F4000502991958195910901E00A974CF000E094
:102F50000E945029181619066CF50E9450292FC09E
:102F60000E945029181619061CF40E94502905C009
:102F70000E9450299195819591094AE0BC01CE01AA
:102F80008D579F4F0E94A0236CE274E0CE018757BB
:102F90009F4F0E94D323BE016D577F4FCE018757AD
:102FA0009F4F0E944123BC01CE01875A9F4F0E9430
:102FB000CB230CC00E9450299195819591094AE03C
:102FC000BC01CE01875A9F4F0E94A023BE01675AC1
:102FD0007F4FCE018F5B9F4F0E94CB23BE01615D6F
:102FE0007F4FCE018F5B9F4F0E944123BE016F5FD9
:102FF0007F4F0E944123BC018BE195E00E94862314
:10300000CE018F5B9F4F0E949B23CE01875A9F4F1B
:103010000E949B23002351F0CE0187579F4F0E94AF
:103020009B23CE018D579F4F0E949B23CE018F96ED
:103030000E949B23112351F0CE0183589F4F0E9481
:103040009B23CE0185599F4F0E949B23CE01019661
:103050000E949B23FF2009F432C9CE018B599F4F58
:103060000E949B23CE01895B9F4F27C91092EB08DA
:1030700010920F090C945C02C059DE4F0FB6F89401
:10308000DEBF0FBECDBFDF91CF911F910F91FF909B
:10309000EF90DF90CF90BF90AF909F908F907F90F8
:1030A0006F905F904F903F902F9008954091BB0597
:1030B0005091BC052091B9053091BA0542175307CC
:1030C00019F080E09CE302C08FEF9FEF4F5F5F4FEE
:1030D0004330510529F05093BC054093BB0508953A
:1030E0001092BC051092BB052F5F3F4F2330310576
:1030F00029F03093BA052093B90508951092BA05C6
:103100001092B9050895CF92DF92EF92FF921F932C
:10311000CF93DF9390917305911103C08FEF9FEFD1
:1031200072C0909172059923C9F3182FC09171054F
:10313000D0E08091B10581110DC00E947B25609384
:10314000AD057093AE058093AF059093B00581E017
:103150008093B1050E947B25C090AD05D090AE054F
:10316000E090AF05F090B005DC01CB018C199D0912
:10317000AE09BF098D329140A105B105D8F00E947A
:103180007B256093AD057093AE058093AF0590935A
:10319000B0058091AC0591E098279093AC059923F8
:1031A00029F01092AB051092AA0504C0D093AB058C
:1031B000C093AA052091AA053091AB0520953095C2
:1031C0004091700550E02423352326FF04C081E0A0
:1031D0008093A90502C01092A90527FF04C081E0D1
:1031E0008093A80502C01092A8058091AC058823A1
:1031F00009F494CF02C0D595C7951A95E2F7C0FFA0
:103200008DCF80E09CE3DF91CF911F91FF90EF90F5
:10321000DF90CF9008950F931F93CF93DF93CDB797
:10322000DEB7A4970FB6F894DEBF0FBECDBF8B01FB
:10323000833009F062C02091A9083091AA0842E0C9
:1032400050E065EA78E0CE0149960E949029C801D5
:103250000996B8014397F0F417FF03C07195619583
:1032600071094AE0CE0107960E94A0236CE274E047
:10327000CE0101960E94D323BE01695F7F4FCE012C
:1032800001960E944123BC01CE010D960E94CB23E2
:1032900011E00BC017FF03C07195619571094AE0F9
:1032A000CE010D960E94A02310E0BE01635F7F4F08
:1032B000CE0143960E94CB23BE01675E7F4FCE01B5
:1032C00043960E944123BC0185EA98E00E94862330
:1032D000CE0143960E949B23CE010D960E949B2314
:1032E000112341F0CE0101960E949B23CE01079647
:1032F0000E949B23CE014996D9C08C3009F075C03D
:103300002091A9083091AA0844E050E065EA78E0ED
:10331000CE0143960E949029C8010996B8014397AF
:10332000F0F417FF03C07195619571094AE0CE0171
:103330004F960E94A0236CE274E0CE0149960E9451
:10334000D323BE01615E7F4FCE0149960E94412387
:10335000BC01CE010D960E94CB2311E00BC017FFDC
:1033600003C07195619571094AE0CE010D960E94E6
:10337000A02310E022E030E040E050E065EA78E091
:10338000CE0101960E949029BE016F5F7F4FCE0152
:1033900007960E94CB23BE01635F7F4FCE01079645
:1033A0000E944123BE016D5E7F4F0E944123BC01FC
:1033B00085EA98E00E948623CE0107960E949B230F
:1033C000CE0101960E949B23CE010D960E949B2365
:1033D000112341F0CE0149960E949B23CE014F96C6
:1033E0000E949B23CE01439661C0803309F060C0E8
:1033F000CB0109964397F0F477FF03C0719561956F
:1034000071094AE0CE0143960E94A0236CE274E069
:10341000CE010D960E94D323BE016D5E7F4FCE017B
:103420000D960E944123BC01CE0149960E94CB23F8
:1034300011E00BC077FF03C07195619571094AE0F7
:10344000CE0149960E94A02310E024E030E040E045
:1034500050E065EA78E0CE0101960E949029BE0115
:103460006F5F7F4FCE0107960E94CB23BE01675E40
:103470007F4FCE0107960E944123BC0185EA98E068
:103480000E948623CE0107960E949B23CE010196BF
:103490000E949B23CE0149960E949B23112341F059
:1034A000CE010D960E949B23CE0143960E949B2342
:1034B000A4960FB6F894DEBF0FBECDBFDF91CF91BB
:1034C0001F910F9108950C9493478F929F92AF9202
:1034D000BF92CF92DF92EF92FF920F931F93CF9301
:1034E000DF9388E090E0EFDF982EA82EB12C89E0E2
:1034F00090E0E9DFC82E082F10E08AE090E0E3DFDB
:10350000C82FD0E0D12CE12CF12CFE2CED2CDC2CA2
:10351000CC24E928C82A812C912CB701A601C4012A
:103520000E94CB328FEF881A980A88E0881691049F
:10353000A1F70E9436338AE392E00E94BF3285E30E
:1035400092E00E949E32C5010E9436348EE292E0E3
:103550000E949E32C8010E94363488E292E00E94A6
:103560009E32CE01DF91CF911F910F91FF90EF908E
:10357000DF90CF90BF90AF909F908F900C94363497
:10358000CF93DF93C0E0D0E040E050E0BA01CE013D
:103590000E94CB322196C830D105B1F7DF91CF918F
:1035A0000C9436331F920F920FB60F9211240BB664
:1035B0000F922F923F924F925F926F927F928F92D3
:1035C0009F92AF92BF92CF92DF92EF92FF920F93B2
:1035D0001F932F933F934F935F936F937F938F939B
:1035E0009F93AF93BF93EF93FF93CF93DF93CDB7A9
:1035F000DEB72897DEBFCDBF789485EA98E00E94B9
:1036000085292C982AE0822E912CA12CB12CA50181
:1036100094010E94C048660F771FFB01E855FC4FDC
:10362000808191819A83898385E090E02B833C831C
:103630004D835E8368DD98878F8338DD7C012B8125
:103640003C814D815E81CA01B901A50194010E94AE
:10365000C048660F771FFB01E855FC4F6080718002
:1036600084E090E02B833C834D835E834CDD8C01B2
:103670001DDD6C012B813C814D815E81CA01B90148
:10368000A50194010E94C04819012A01660F771F05
:10369000FB01E855FC4F8080918083E090E033DDB2
:1036A0005C0104DD0C211D210621172120E030E002
:1036B000BAE0000F111F221F331FBA95D1F78A21DC
:1036C0009B21AC014821592160E070E0480159017B
:1036D000842A952AA62AB72A8F819885E822F9227A
:1036E00089819A81E822F922A70160E070E014E163
:1036F000440F551F661F771F1A95D1F7842A952A04
:10370000A62AB72A8091A905882319F06894B6F8EB
:1037100002C0E894B6F88091A805882319F068944F
:10372000B7F802C0E894B7F88B2D0E94A03E8A2D0E
:103730000E94A03E892D0E94A03E882D0E94A03E9E
:103740008AE0C82ED12CE12CF12CC201B101A701D5
:1037500096010E94C048660F771FFB01E855FC4F99
:103760004080518082E090E02B833C834D835E83D8
:10377000CADC5C019BDC8C012B813C814D815E812C
:10378000CA01B901A70196010E94C048660F771FC0
:10379000FB01E855FC4F6080718081E090E02B8355
:1037A0003C834D835E83AFDC4C0180DC150120221D
:1037B000312224203520412C512CF4E1220C331CE1
:1037C000441C551CFA95D1F788219921862197210F
:1037D000A0E0B0E01AE0880F991FAA1FBB1F1A953E
:1037E000D1F752014101882A992AAA2ABB2A2B81A2
:1037F0003C814D815E81CA01B901A70196010E94F9
:10380000C048660F771FFB01E855FC4FE080F18050
:1038100080E090E078DC8C0149DC802391238E21CC
:103820009F21A0E0B0E0882A992AAA2ABB2A809189
:10383000A905882319F06894B6F802C0E894B6F890
:103840008091A805882319F06894B7F802C0E8941D
:10385000B7F88B2D0E94A03E8A2D0E94A03E892D94
:103860000E94A03E882D0E94A03E2C9A28960FB65A
:10387000F894DEBF0FBECDBFDF91CF91FF91EF91E6
:10388000BF91AF919F918F917F916F915F914F9178
:103890003F912F911F910F91FF90EF90DF90CF906C
:1038A000BF90AF909F908F907F906F905F904F9060
:1038B0003F902F900F900BBE0F900FBE0F901F9058
:1038C0001895DF92EF92FF920F931F93CF93DF93A0
:1038D000C091A605D091A705C830D10508F06AC0EF
:1038E000082FFE018827E357FF4F8F4F0C94DC48C9
:1038F00084E406C00E946A365DC08CEC01C08EEB89
:103900000E94413657C028E0E22EF12C01E010E081
:103910000E94EA358111102B000F81E0E81AF108AE
:10392000B9F71093A40546C098E0E92EF12CDD24E8
:10393000D39410E00E94EA3581111D29DD0C81E04D
:10394000E81AF108B9F71093A505612F70E0762FFA
:1039500066278091A405682B6F3F8FEF780711F4DD
:1039600060E070E0072E000C880B990B0E948046E7
:1039700020E030E040E85DE30E94DF46002361F094
:1039800026E636E646EE5FE30E94DF4620E030E0C2
:1039900040E052E40E94F44720E030E040E251E48D
:1039A0000E94DF466093A0057093A1058093A20555
:1039B0009093A3052196C830D10529F0D093A7058F
:1039C000C093A60504C01092A7051092A6056091A9
:1039D000A0057091A1058091A2059091A305DF91AA
:1039E000CF911F910F91FF90EF90DF9008958F92EC
:1039F0009F92AF92BF92CF92DF92EF92FF920F937E
:103A00001F93CF93DF93CDB7DEB72C970FB6F89403
:103A1000DEBF0FBECDBF8C016A017B01809198058E
:103A2000811113C00E947B25DC01CB01845B9B4F7D
:103A3000AF4FBF4F8093940590939505A093960543
:103A4000B093970581E08093980580918C05811152
:103A500008C067E274E086E895E0A5D681E080932F
:103A60008C050E947B258090940590909505A090F0
:103A70009605B0909705DC01CB0188199909AA0930
:103A8000BB09893E9340A105B10508F44AC10E94D3
:103A90007B2560939405709395058093960590938C
:103AA000970520E030E0A901C701B6010E948948CE
:103AB00020E030E040E05FE387FD05C0C701B601CC
:103AC0000E94F44704C0C701B6010E94F3470E9458
:103AD000584880915C0290915D029B0129513C4FB6
:103AE00049012458334059012A55310969017B01A4
:103AF000892B09F080C077FF03C0F194E194F108AD
:103B00004AE0B701CE0107961BD66CE274E0CE0105
:103B1000019649D6BE01695F7F4FCE010196B1D5AE
:103B20006CE274E00E94D429BC0186E895E0EED5F1
:103B3000CE01019600D6CE010796FDD53FEC831647
:103B400037E09306F0F44AE0B701CE010796F8D5C6
:103B50006BE274E0CE01019626D6BE01695F7F4F0D
:103B6000CE0101968ED56CE274E00E94D429BC018E
:103B700086E895E0CBD5CE010196DDD5CE0107963E
:103B8000DAD587ECA816B104F0F44AE0B701CE010B
:103B90000796D6D56AE274E0CE01019604D6BE013E
:103BA000695F7F4FCE0101966CD56CE274E00E9494
:103BB000D429BC0186E895E0A9D5CE010196BBD5F4
:103BC000CE010796B8D523E1C216D10408F0A9C0EA
:103BD0004AE0B701CE010796B3D569E274E0CE01A1
:103BE0000196E1D5BE01695F7F4FCE01019649D5AF
:103BF0006CE274E08AC077FF03C0F194E194F108AD
:103C00004AE0B701CE0107969BD56CE274E0CE0185
:103C10000196C9D5BE01695F7F4FCE01019631D5AE
:103C20006CE274E00E94D429BC0186E895E06ED570
:103C3000CE01019680D5CE0107967DD53FEC831647
:103C400037E0930610F5C7016AE070E00E94AD48C6
:103C50004AE0CE01079674D56BE274E0CE0101967E
:103C6000A2D5BE01695F7F4FCE0101960AD56BE2F6
:103C700074E00E94D429BC0186E895E047D5CE01C6
:103C8000019659D5CE01079656D587ECA816B104F2
:103C900010F5C7016AE070E00E94AD484AE0CE012D
:103CA00007964ED56AE274E0CE0101967CD5BE013E
:103CB000695F7F4FCE010196E4D46BE274E00E940D
:103CC000D429BC0186E895E021D5CE01019633D5F3
:103CD000CE01079630D523E1C216D10410F5C701F5
:103CE0006AE070E00E94AD484AE0CE01079628D510
:103CF00069E274E0CE01019656D5BE01695F7F4F3F
:103D0000CE010196BED46BE274E00E94D429BC01BE
:103D100086E895E0FBD4CE0101960DD5CE0107963D
:103D20000AD566E875E0C80136D5C8012C960FB6ED
:103D3000F894DEBF0FBECDBFDF91CF911F910F91E1
:103D4000FF90EF90DF90CF90BF90AF909F908F90BB
:103D500008954F925F926F927F928F929F92AF924F
:103D6000BF92CF92DF92EF92FF920F931F93CF9368
:103D7000DF9300D000D0CDB7DEB77C014B015A01F4
:103D800080910106882341F08091790500E815E0D3
:103D9000AAE7B5E0F8014AC081E0809301061092DD
:103DA0006F0510926E0580E8682E85E0782E9AE700
:103DB000492E95E0592E00E010E00F5F1F4F68017B
:103DC00081E0C81AD1089801A601B401CE0101967C
:103DD0000E949029CE0101960E948529F3016193EA
:103DE0003F01CE010196A7D49801A601B501CE01ED
:103DF00001960E949029CE0101960E948529F20128
:103E000061932F01CE01019696D406301105A9F6D3
:103E1000BBCF2C9192130DC090819A3009F410827F
:103E20003196119695E0E638F90731F090818A30A5
:103E300080F79F5F9083F0CF8F5F843119F080937C
:103E4000790504C0109279051092010666E274E0CB
:103E5000C701A9D4FE0131966F01F80181918F014C
:103E60004AE0B60190E00E943246F601019000203F
:103E7000E9F73197AF014C195D09B601C70189D344
:103E8000F5E006381F0749F7C70126960FB6F894E4
:103E9000DEBF0FBECDBFDF91CF911F910F91FF907D
:103EA000EF90DF90CF90BF90AF909F908F907F90DA
:103EB0006F905F904F9008950F931F9380915802D9
:103EC00090915902892B09F453C080917805882379
:103ED000A1F011D600917405109175052091760519
:103EE00030917705DC01CB01801B910BA20BB30B4A
:103EF000893E9340A105B105C0F5809178058111F7
:103F000037C00E947C2920915202309153028217BF
:103F1000930771F50E946529209154023091550252
:103F20008217930729F50E945E292091560230914D
:103F3000570282179307E1F4DED5609374057093FE
:103F40007505809376059093770581E080937805D9
:103F50008AE192E00E94BF32809135029091360250
:103F60009093E8058093E70503C010927805C5CFCC
:103F70001F910F910895BFD560936A0570936B05EB
:103F800080936C0590936D0580916905882309F4F1
:103F90004FC02091030630910406C901880F991F74
:103FA0002131310551F0FC01E85CFD4F4081518128
:103FB00041505109518340830AC040915A025091A7
:103FC0005B024C50510950935B0240935A02DC0152
:103FD000A85CBD4F6D917C911197FC01E853FC4F9B
:103FE00040815181641775073CF4FC01E058FC4F97
:103FF000408151814D935C932031310571F42091C2
:104000005802309159022130310521F420E82093E3
:10401000700506C01092700503C02930310541F0CB
:10402000FC01E85CFD4F6081718180917105F3C8EE
:10403000089561D560936A0570936B0580936C0554
:1040400090936D0580916905882309F444C02091FF
:10405000030630910406C901880F991F21313105EB
:1040600051F0FC01E85CFD4F408151814F5F5F4F93
:10407000518340830AC040915A0250915B02445FD1
:104080005F4F50935B0240935A02DC01A85CBD4F26
:104090006D917C911197FC01E058FC4F408151815A
:1040A000461757073CF4FC01E853FC4F408151810F
:1040B0004D935C932031310519F41092700503C0C3
:1040C0002930310541F0FC01E85CFD4F60817181D0
:1040D00080917105A0C80895CF93DF93EC010196FC
:1040E00028812A33D9F78981843639F510926805F9
:1040F0001092670523964AE0FE018881219690ED93
:10410000980F20916705309168059A3080F4429F9E
:10411000B001439F700D1124082E000C990BC0971D
:10412000860F971F9093680580936705E5CF121659
:10413000130614F420933402EF01219688818F3600
:1041400089F48A81082E000C990B9C0120533109B7
:104150003093680520936705C397059710F4209363
:10416000330224968881823629F5109268051092D0
:104170006705FE0132964AE0819190ED980F2091FB
:104180006705309168059A3080F4429FB001439FE3
:10419000700D1124082E000C990BC097860F971FE5
:1041A0009093680580936705E7CF309332022093A0
:1041B0003102EF012091310230913202032E000CC6
:1041C000440B550B60E67AEE80E090E00E94C04818
:1041D000DA01C90122E0880F991FAA1FBB1F2A9587
:1041E000D1F78093630590936405A0936505B09320
:1041F0006605CE01DF91CF9108950895CF92DF92A9
:10420000EF92FF920F931F93CF93DF936C017A018C
:104210008B01C0E0D0E0CE15DF0589F0D8016D91AB
:104220008D01D601ED91FC910190F081E02DC60148
:104230001995892B11F47E0102C02196ECCFC7019C
:10424000DF91CF911F910F91FF90EF90DF90CF9072
:104250000895FC01A089B1898C91A689B78982FD56
:104260000FC09C91818D8F5F8F73228D821749F0D3
:10427000218DDF01A20FB11D5D969C93818F089562
:104280008C910895FC01538D448D252F30E0842FAF
:1042900090E0821B930B541710F0CF96089501976E
:1042A0000895FC01918D828D981761F0828DDF0158
:1042B000A80FB11D5D968C91928D9F5F9F73928F19
:1042C00090E008958FEF9FEF0895FC01918D828D0E
:1042D000981731F0828DE80FF11D858D90E00895DB
:1042E0008FEF9FEF0895FC01918D228D892F90E033
:1042F000805C9F4F821B91098F73992708958DE2EF
:1043000096E0F1DF21E0892B09F420E0822F089567
:104310008AEC96E0E8DF21E0892B09F420E0822F87
:104320000895FC01848DDF01A80FB11DA35ABF4F72
:104330002C91848D90E001968F739927848FA689A4
:10434000B7892C93A089B1898C9180648C93938DCB
:10435000848D981306C00288F389E02D80818F7DBB
:1043600080830895EF92FF920F931F93CF93DF9373
:10437000EC0181E0888F9B8D8C8D981305C0E889B6
:10438000F989808185FD23C0F62E0B8D10E00F5F2B
:104390001F4F0F731127E02E8C8DE8120BC00FB644
:1043A00007FCFACFE889F989808185FFF5CFCE0136
:1043B000B8DFF2CF8B8DFE01E80FF11DE35AFF4FFE
:1043C000F0820B8FEA89FB898081806207C0EE89C9
:1043D000FF896083E889F98980818064808381E036
:1043E00090E0DF91CF911F910F91FF90EF90089592
:1043F000CF93DF93EC01888D8823C1F0EA89FB8994
:10440000808185FD05C0A889B9898C9186FD0EC083
:104410000FB607FCF5CF808185FFF2CFA889B98957
:104420008C9185FFEDCFCE017CDFE8CFDF91CF917E
:10443000089580E090E0892B19F06ADF811120C097
:1044400080E090E0892B19F05ADF81111CC080E0D8
:1044500090E0892B41F080E090E0892B21F00E94D0
:104460000000811113C080E090E0892BA1F080E072
:1044700090E0892B81F00E94000081110AC008950C
:104480000E940000DDCF0E940000E1CF0E940000EA
:10449000EACF0C940000089590E0FC013197E231DE
:1044A000F10508F04EC08827EB56FF4F8F4F0C9454
:1044B000DC48809180008F7703C0809180008F7DE1
:1044C00080938000089580918000877FF9CF84B524
:1044D0008F7702C084B58F7D84BD08958091B00030
:1044E0008F7703C08091B0008F7D8093B0000895D6
:1044F000809190008F7707C0809190008F7D03C0DE
:1045000080919000877F8093900008958091A00013
:104510008F7707C08091A0008F7D03C08091A0009D
:10452000877F8093A0000895809120018F7707C036
:10453000809120018F7D03C080912001877F80932F
:10454000200108950F931F93CF93DF93EC0188818F
:104550009981009729F02A813B812617370788F433
:104560008B016F5F7F4F0E941D4A009761F0998316
:1045700088831B830A832C813D81232B11F4FC014A
:10458000108281E001C080E0DF91CF911F910F91F7
:104590000895EF92FF920F931F93CF93DF93FC0147
:1045A000248135816115710511F480E018C0411531
:1045B0005105A1F07B01EC018A01020F131FB80124
:1045C000C1DF882391F3288139818C819D81B701D6
:1045D000820F931F0E940E4B1D830C8381E0DF919D
:1045E000CF911F910F91FF90EF9008950F931F931C
:1045F000CF93DF938C01EB01FC01808191810097C7
:10460000B1F0688179816115710579F0428153813A
:104610002C813D814217530740F00E940E4B8C8144
:104620009D81F8019583848313C00E948549888108
:104630009981F801918380838A819B81938382830E
:104640008C819D8195838483198218821B821A82B2
:104650001D821C82DF91CF911F910F910895CF93FE
:10466000DF93EC0188819981009711F00E948549C0
:10467000198218821D821C821B821A82DF91CF91BF
:104680000895CF93DF93EC01FB0144815581608154
:1046900071817FDF811102C0CE01E1DFCE01DF91A8
:1046A000CF910895EF92FF920F931F93CF93DF93D3
:1046B000EC017B018A01BA0145DF811103C0CE0103
:1046C000CEDF07C01D830C83B701888199810E94CA
:1046D0000E4BCE01DF91CF911F910F91FF90EF9084
:1046E0000895CF93DF93EC016115710551F0FB0143
:1046F00001900020E9F73197AF01461B570BD2DF3D
:1047000001C0ADDFCE01DF91CF910895CF93DF934C
:10471000EC01FB018617970751F0608171816115EB
:10472000710521F044815581BDDF01C098DFCE01C4
:10473000DF91CF910895FC01808191810C9485498E
:104740000F931F93CF93DF93CDB7DEB762970FB66A
:10475000F894DEBF0FBECDBF8C01CB01F8011182F2
:104760001082138212821582148250E0BE016F5FA4
:104770007F4F0E942846BE016F5F7F4FC801B1DFA7
:1047800062960FB6F894DEBF0FBECDBFDF91CF911A
:104790001F910F910895FC011182108213821282E1
:1047A00015821482B3CFFC0111821082138212820F
:1047B000158214826115710549F0FB0101900020FA
:1047C000E9F73197AF01461B570B6CCF08951F9245
:1047D0000F920FB60F9211240BB60F922F933F93A7
:1047E0004F935F936F937F938F939F93AF93BF93F9
:1047F000EF93FF938DE296E094DDFF91EF91BF91EF
:10480000AF919F918F917F916F915F914F913F9168
:104810002F910F900BBE0F900FBE0F901F90189509
:104820001F920F920FB60F9211240BB60F922F9377
:104830003F934F935F936F937F938F939F93AF9328
:10484000BF93EF93FF938DE296E003DDFF91EF912D
:10485000BF91AF919F918F917F916F915F914F9198
:104860003F912F910F900BBE0F900FBE0F901F9096
:1048700018951F920F920FB60F9211240BB60F923C
:104880002F933F934F935F936F937F938F939F9358
:10489000AF93BF93EF93FF938AEC96E042DDFF91D5
:1048A000EF91BF91AF919F918F917F916F915F91A8
:1048B0004F913F912F910F900BBE0F900FBE0F9015
:1048C0001F9018951F920F920FB60F9211240BB6DE
:1048D0000F922F933F934F935F936F937F938F9399
:1048E0009F93AF93BF93EF93FF938AEC96E0B1DC75
:1048F000FF91EF91BF91AF919F918F917F916F91B8
:104900005F914F913F912F910F900BBE0F900FBE73
:104910000F901F901895CF93DF93282F30E0F90167
:10492000E35BFD4F8491F901E156FC4FD491F9010D
:10493000E75AFC4FC491CC2389F08111ADDDEC2FF7
:10494000F0E0EE0FFF1FE15CFC4FA591B491EC91FC
:10495000ED2381E090E021F480E002C080E090E06F
:10496000DF91CF9108951F93CF93DF93282F30E0ED
:10497000F901E35BFD4F8491F901E156FC4FD491BD
:10498000F901E75AFC4FC491CC23C1F0162F8111D5
:1049900083DDEC2FF0E0EE0FFF1FEB5DFC4FA591E8
:1049A000B4918FB7F894111105C09C91ED2FE0954B
:1049B000E92302C0EC91ED2BEC938FBFDF91CF91F7
:1049C0001F910895CF93DF9390E0FC01E156FC4FD7
:1049D0002491FC01E75AFC4F8491882361F190E017
:1049E000880F991FFC01EA56FD4FC591D491FC0137
:1049F000EB5DFC4FA591B491611109C09FB7F8948C
:104A00008881209582238883EC912E230BC062300D
:104A100061F49FB7F8943881822F8095832388832F
:104A2000EC912E2B2C939FBF06C08FB7F894E88192
:104A30002E2B28838FBFDF91CF9108953FB7F89435
:104A40008091D9059091DA05A091DB05B091DC0544
:104A500026B5A89B05C02F3F19F00196A11DB11DD9
:104A60003FBFBA2FA92F982F8827820F911DA11D14
:104A7000B11DBC01CD0142E0660F771F881F991F51
:104A80004A95D1F708958F929F92AF92BF92CF929D
:104A9000DF92EF92FF926B017C01D0DF4B015C0152
:104AA000C114D104E104F104E9F0C8DFDC01CB0159
:104AB00088199909AA09BB09883E9340A105B10547
:104AC00078F321E0C21AD108E108F10888EE880ED7
:104AD00083E0981EA11CB11CC114D104E104F104AF
:104AE00021F7DECFFF90EF90DF90CF90BF90AF9097
:104AF0009F908F9008952FB7F8946091D50570918D
:104B0000D6058091D7059091D8052FBF0895609361
:104B1000BD057093BE058093BF059093C005DC0171
:104B2000CB01845D9E4FAF4FBF4F8093D0059093D4
:104B3000D105A093D205B093D30582E090E0909385
:104B4000CF058093CE05D7DF6093CA057093CB0560
:104B50008093CC059093CD050895CF92DF92EF928C
:104B6000FF920F931F93C7DFC090CA05D090CB056B
:104B7000E090CC05F090CD058B019C010C191D092E
:104B80002E093F098091BD059091BE05A091BF05FA
:104B9000B091C005083E134021053105D0F00196C3
:104BA000A11DB11D8093BD059093BE05A093BF05C7
:104BB000B093C005B701A60148515C4F6F4F7F4FBE
:104BC0004093CA055093CB056093CC057093CD05F7
:104BD000CACF4091D0055091D1056091D205709116
:104BE000D30584179507A607B70780F1E091C8059C
:104BF000F091C905309751F119956115710581053D
:104C0000910511F084DF22C08091BD059091BE0511
:104C1000A091BF05B091C005845D9E4FAF4FBF4FBF
:104C20008093D0059093D105A093D205B093D3057E
:104C300081E090E02091CE053091CF05232B11F437
:104C400080E090E09093CF058093CE056091BD0504
:104C50007091BE058091BF059091C0051F910F9185
:104C6000FF90EF90DF90CF9008951F920F920FB6B4
:104C70000F9211242F933F938F939F93AF93BF93E2
:104C80008091D5059091D605A091D705B091D80512
:104C90003091D40523E0230F2D3720F40196A11D78
:104CA000B11D05C026E8230F0296A11DB11D20935A
:104CB000D4058093D5059093D605A093D705B093DE
:104CC000D8058091D9059091DA05A091DB05B091C6
:104CD000DC050196A11DB11D8093D9059093DA05DD
:104CE000A093DB05B093DC05BF91AF919F918F91AD
:104CF0003F912F910F900FBE0F901F9018951F920C
:104D00000F920FB60F9211240BB60F922F933F9371
:104D10004F935F936F937F938F939F93AF93BF93C3
:104D2000EF93FF9380917407F6DD2091780730911F
:104D300079072F5F3F4F3093790720937807909141
:104D40007707953618F096E0909373079091730764
:104D50009430C9F128F4923069F09330D1F05EC0FC
:104D6000953009F451C0963009F058C091E0909305
:104D7000440851C0811152C02091780730917907C1
:104D80002436310508F442C0109244081092770787
:104D90001CC0813009F042C0E091770791E09E0F7E
:104DA00090937707F0E02091780730917907EE0F24
:104DB000FF1FED58F84F3087278310927907109224
:104DC000780794E029C0811117C0E091770791E03E
:104DD0009E0F90937707F0E0209178073091790744
:104DE000EE0FFF1FED58F84F308727831092790799
:104DF0001092780793E010C02091780730917907DE
:104E00002536310558F007C0811108C01092790786
:104E10001092780703C095E09093730790917607FE
:104E20009923B1F081110AC080917507882321F080
:104E30008091750761E009C02F9A0AC080917507BB
:104E4000882329F08091750760E08DDD01C02F98DF
:104E5000FF91EF91BF91AF919F918F917F916F9152
:104E60005F914F913F912F910F900BBE0F900FBE0E
:104E70000F901F9018951F920F920FB60F9211244A
:104E80000BB60F922F933F934F935F936F937F9344
:104E90008F939F93EF93FF9340911F0650912006AD
:104EA0006091210670912206411551056105710539
:104EB00099F08091DD05E091DE05F091DF059081AC
:104EC000892780831416150616061706D4F4415058
:104ED00051096109710915C0809170008D7F80931F
:104EE00070009091DD05E091DE05F091DF05808195
:104EF000282F30E0892F90E080959095822393238E
:104F0000808340931F065093200660932106709380
:104F10002206FF91EF919F918F917F916F915F9109
:104F20004F913F912F910F900BBE0F900FBE0F909E
:104F30001F9018951F920F920FB60F9211240BB667
:104F40000F922F933F938F939F93AF93BF93EF93C2
:104F5000FF938091230690912406A0912506B0919D
:104F60002606892B8A2B8B2B51F18091E005E0914D
:104F7000E105F091E20590818927808380912306E5
:104F800090912406A0912506B091260618161906C0
:104F90001A061B064CF58091230690912406A091D9
:104FA0002506B09126060197A109B1098093230631
:104FB00090932406A0932506B093260615C08091F1
:104FC0006F008D7F80936F009091E005E091E10587
:104FD000F091E2058081282F30E0892F90E08095C4
:104FE0009095822393238083FF91EF91BF91AF919E
:104FF0009F918F913F912F910F900BBE0F900FBEFD
:105000000F901F9018951F920F920FB60F921124B8
:105010000BB60F922F933F938F939F93AF93BF93B2
:10502000EF93FF938091270690912806A09129067F
:10503000B0912A06892B8A2B8B2B51F18091E305A5
:10504000E091E405F091E5059081892780838091C6
:10505000270690912806A0912906B0912A061816D5
:1050600019061A061B064CF5809127069091280612
:10507000A0912906B0912A060197A109B109809350
:10508000270690932806A0932906B0932A0615C0F8
:1050900080916E008D7F80936E009091E305E0918A
:1050A000E405F091E5058081282F30E0892F90E01C
:1050B00080959095822393238083FF91EF91BF91F8
:1050C000AF919F918F913F912F910F900BBE0F90B9
:1050D0000FBE0F901F9018953F924F925F926F9264
:1050E0007F928F929F92AF92BF92CF92DF92EF9278
:1050F000FF920F931F93CF93DF93382E962E842E1B
:10510000F90184E6E816F1042CF082EBE81A87E056
:10511000F80A03C08EE1E80EF11CE092C705009387
:10512000C605E093C5053092C3059092C2058092F2
:10513000C105AE2DB0E020E833E341EE51E00E941E
:10514000DA472B013C0122EB37E0FF2484E6C82E2E
:10515000D12CC0E9D1E0C901825B97408E159F0533
:10516000DCF4C90183709927892B99F4C901B60130
:105170000E94AD48892B31F4C901BE010E94AD489F
:10518000892B39F480E8480E81E5581E81E0681EBD
:10519000711C2F5F3F4FDFCF8EE4E81A88EFF80ACB
:1051A000C70164E670E00E94AD486C01C70160E988
:1051B00071E00E94AD485C01C1E0D0E0112783E0BE
:1051C000E822FF24C017D1072CF5C230D10589F49D
:1051D000E114F10471F4C114D10419F4A114B1045F
:1051E00041F480E8480E8BE3581E86E2681E711C6D
:1051F0000FC0DE01A554BC4FAC91B0E020E831E512
:1052000041E050E00E94DA47460E571E681E791EA4
:105210002196D8CF292D30E0ACE3B0E00E94E447DE
:105220006B017C01C80CD11CE11CF11C232D30E06A
:10523000A0E1BEE00E94E447C60ED71EE81EF91E9C
:10524000DF01BB27119720E831E541E050E00E94E3
:10525000EA48DC01CB018C0D9D1DAE1DBF1DBC01BC
:10526000CD01640D751D861D971DDF91CF911F9196
:105270000F91FF90EF90DF90CF90BF90AF909F90F5
:105280008F907F906F905F904F903F9040CC65DC07
:105290000E94AE3A8091C70590E08E54984F0895D1
:1052A0005CDC0E94AE3A8091C60590E0089555DC22
:1052B0000E94AE3A8091C50590E008954EDC0E94B0
:1052C000AE3A8091C10590E0089547DC0E94AE3A65
:1052D0008091C20590E0089540DC0E94AE3A209192
:1052E000C305222331F0822F90E02D3020F00C975F
:1052F00008958CE090E0089530DC0E94AE3A8091F1
:10530000C30590E008950E94014BFC0180819181CA
:10531000009711F00C94024660E070E0CB01089514
:10532000BF92CF92DF92EF92FF920F931F93CF9392
:10533000DF937C016B018A01E9012417350720F412
:10534000812F8901C42FD82F66E274E0C7012BDAC0
:10535000D60114968D919C91159708171907C8F4DA
:105360008C179D0708F4EC01D601ED91FC91119783
:10537000EC0FFD1FB08010824D915C91BA01600F5F
:10538000711FC701AED9D601ED91FC91EC0FFD1F45
:10539000B082C701DF91CF911F910F91FF90EF90E5
:1053A000DF90CF90BF900895CF93DF93EC0161150C
:1053B000710559F0FB0101900020E9F73197AF0129
:1053C000461B570BE6D8811102C0CE0148D9CE0149
:1053D000DF91CF910895EF92FF920F931F93CF9398
:1053E000DF93CDB7DEB7C25AD1090FB6F894DEBF4E
:1053F0000FBECDBF8091170681110CC07CDB60937E
:10540000130670931406809315069093160681E098
:105410008093170680910B0681110CC06CDB6093A2
:105420000706709308068093090690930A0681E0A8
:1054300080930B0660DB00911306109114062091F7
:10544000150630911606DC01CB01801B910BA20BD7
:10545000B30B0091600210916102209162023091C1
:105460006302081719072A073B0708F06EC043DBE1
:105470006093130670931406809315069093160696
:105480008091050690910606009799F481E090E0DE
:10549000909304068093030688E893E1A0E0B0E0CF
:1054A0008093600290936102A0936202B0936302C2
:1054B0001EC00197E1F484E090E09093040680938D
:1054C000030688E893E1A0E0B0E080936002909347
:1054D0006102A0936202B09363028091E60581119C
:1054E00006C082E090E090930606809305068091C6
:1054F0000506909106068230910581F4109204060B
:105500001092030640E65AEE60E070E040936002BD
:10551000509361026093620270936302019683303C
:1055200091052CF4909306068093050604C0109212
:1055300006061092050680910206882321F010923B
:1055400004061092030610920206D5DA00911306A3
:10555000109114062091150630911606DC01CB013E
:10556000801B910BA20BB30B803D9740A105B105A9
:1055700008F0E7C5C0DA00910706109108062091EF
:10558000090630910A06DC01CB01801B910BA20BAE
:10559000B30B85369105A105B10508F4D4C5ABDA86
:1055A00060930706709308068093090690930A0695
:1055B0002091E6058091030690910406222309F4C8
:1055C000FAC2892B71F5CE0107960E947D3781E0E2
:1055D00020915C0230915D02232B09F480E00E944F
:1055E000611CAB01BC01CE010D960E94F71CAE01FF
:1055F000495F5F4FBE01635F7F4FCE0101960E94FE
:10560000A91EBE016F5F7F4F85EA98E00E94F622D7
:10561000CE01019690D8CE010D968DD8CE01079679
:105620008AD88091030690910406019709F04EC133
:105630002EDE08EE13E0B8010E94AD4818161906D8
:105640002CF425DEB8010E94AD4807C020DEB80169
:105650000E94AD4891958195910911E00A978CF0CF
:1056600010E015DEE8EEEE2EE3E0FE2EB7010E941C
:10567000AD481816190694F50ADEB7010E94AD4828
:1056800034C005DEF8EEEF2EF3E0FF2EB7010E94E6
:10569000AD48181619062CF4FADDB7010E94AD4882
:1056A00007C0F5DDB7010E94AD489195819591093C
:1056B0004AE0BC01CE01439643D86CE274E0CE01CF
:1056C000499671D8BE016D5E7F4FCE0149960E940A
:1056D0004123BC01CE010D965ED80CC0D8DDB701C8
:1056E0000E94AD489195819591094AE0BC01CE0197
:1056F0000D9626D8D5DD1816190614F4D1DD04C090
:10570000CFDD91958195910901E00A973CF000E089
:10571000C7DD1816190614F5C3DD24C0C1DD18163F
:10572000190614F4BDDD04C0BBDD91958195910986
:105730004AE0BC01CE01859603D86CE274E0CE014C
:105740008B9631D8BE016B5D7F4FCE018B960E9448
:105750004123BC01CE014F961ED80AC0A1DD919510
:10576000819591094AE0BC01CE014F960E94A02389
:105770009EDD1816190614F49ADD04C098DD919583
:1057800081959109FF24F3940A973CF0F12C8FDD69
:10579000181619063CF58BDD29C089DD1816190687
:1057A00014F485DD04C083DD9195819591094AE06B
:1057B000BC01CE01CD960E94A0236CE274E0CE0124
:1057C0008D5B9F4F0E94D323BE01635C7F4FCE0150
:1057D0008D5B9F4F0E944123BC01CE01C7960E9462
:1057E000CB230AC064DD9195819591094AE0BC0103
:1057F000CE01C7960E94A023BE01695C7F4FCE01F7
:10580000C1960E94CB23BE01615E7F4FCE01C1963F
:105810000E944123BE01635F7F4F0E944123BC0170
:10582000CE0107960E94CB23CE01875B9F4F0E943B
:105830007D37AE01495F5F4FBE01675B7F4FCE0191
:1058400001960E94A91EBE016F5F7F4F85EA98E016
:105850000E94F622CE0101960E949B23CE01875B17
:105860009F4F0E949B23CE0107960E949B23CE014F
:10587000C1960E949B23CE01C7960E949B23FF20C6
:1058800049F0CE018D5B9F4F0E949B23CE01CD96A8
:105890000E949B23CE014F960E949B23002341F040
:1058A000CE018B960E949B23CE0185960E949B235E
:1058B000CE010D960E949B23112341F0CE01499603
:1058C0000E949B23CE0143960E949B238091030656
:1058D00090910406049709F036C481E020915C029F
:1058E00030915D02232B09F480E00E94611CAB0122
:1058F000BC01CE0107960E94F71CC9DC08EE13E03C
:10590000B8010E94AD48181619062CF4C0DCB80185
:105910000E94AD4807C0BBDCB8010E94AD4891951C
:105920008195910911E00A978CF010E0B0DC68EEE7
:10593000E62E63E0F62EB7010E94AD481816190650
:10594000ACF5A5DCB7010E94AD4837C0A0DC78EE0D
:10595000E72E73E0F72EB7010E94AD48181619061E
:105960002CF495DCB7010E94AD4807C090DCB7016C
:105970000E94AD489195819591094AE0BC01CE0104
:10598000C1960E94A0236CE274E0CE01C7960E94EB
:10599000D323BE016F5C7F4FCE01C7960E94412387
:1059A000BC01CE014F960E94CB230DC070DCB70125
:1059B0000E94AD489195819591094AE0BC01CE01C4
:1059C0004F960E94A0236CDC1816190614F468DCAC
:1059D00004C066DC91958195910901E00A973CF03D
:1059E00000E05EDC181619064CF55ADC2BC058DCBA
:1059F0001816190614F454DC04C052DC91958195F4
:105A000091094AE0BC01CE01815B9F4F0E94A02317
:105A10006CE274E0CE018B5A9F4F0E94D323BE01EB
:105A2000615B7F4FCE018B5A9F4F0E944123BC0187
:105A3000CE01875B9F4F0E94CB230BC031DC919539
:105A4000819591094AE0BC01CE01875B9F4F0E947E
:105A5000A0232DDC1816190614F429DC04C027DC59
:105A6000919581959109FF24F3940A973CF0F12CCC
:105A70001EDC181619064CF51ADC2BC018DC18169B
:105A8000190614F414DC04C012DC91958195910977
:105A90004AE0BC01CE0189599F4F0E94A0236CE2CD
:105AA00074E0CE0183599F4F0E94D323BE016959F0
:105AB0007F4FCE0183599F4F0E944123BC01CE01ED
:105AC0008F599F4F0E94CB230BC0F1DB919581959D
:105AD00091094AE0BC01CE018F599F4F0E94A0233B
