:100000000C949A000C94C2000C94C2000C94C20090
:100010000C94C2000C94C2000C94C2000C94AA254B
:100020000C94C2000C94C2000C94C2000C94F925EC
:100030000C94C2000C94C2000C9454260C94C20080
:100040000C9408250C94C2000C9478250C9452252D
:100050000C94C2000C94C2000C94C2000C94C20018
:100060000C94AF260C94C200426C75653D0047525B
:1000700045454E3D005245443D005265616465640E
:100080002066726F6D20454550524F4D00020100B1
:100090004661756C74792052544321004E435333AA
:1000A00031382F35363820666F7220485720312E70
:1000B0007820485635313232206F7220485635321A
:1000C0003232004669726D776172652076657273AF
:1000D000696F6E3A200000000000240027002A000B
:1000E00000000008000201000003040700000000F7
:1000F0000000000000000000250028002B00000088
:10010000000023002600290004040404040404045D
:1001100002020202020203030303030301020408B2
:100120001020408001020408102001020408102061
:100130000728732E11241FBECFEFD8E0DEBFCDBF3E
:1001400026E0A8E9B3E001C01D92A03AB207E1F7AA
:1001500013E0A0E0B1E0E0E6F7E602C005900D9202
:10016000A839B107D9F710E0C9E9D0E004C0219758
:10017000FE010E94A331C839D107C9F70E940329A3
:100180000C94A3330C9400008F929F92AF92BF9275
:10019000CF92DF92EF92FF92CF932091230630917E
:1001A000240682179307E8F54B01AA24BB24C82D27
:1001B000C52ED62EE72EFF24BC2DA42F2091290674
:1001C000222361F0829E40011124C92D2C9D6001E3
:1001D0001124BD2D249FF0011124AF2FE0912F0693
:1001E000E0902A06F0902B0630912C06E31323C0F2
:1001F0009C01220F331F820F931F8E0D9F1DE091D4
:100200002C06E80FF92FF11DC083E0912D06E80FB1
:10021000F92FF11DB08320912E06820F911DFC0154
:10022000A083CF91FF90EF90DF90CF90BF90AF90E1
:100230009F908F900895880F991F880F991F8E0D9A
:100240009F1D472F552766277727222349F030E047
:10025000249F7001259FF00C349FF00C11244F2D2A
:10026000E80FF92FF11D4083CACF8CBD9DBD0895C5
:1002700080918806E0918906F0918A06F894918130
:10028000982B91832281382F309523232283A7E056
:10029000B0E01197F1F7918193239183A3E2B0E04D
:1002A0001197F1F790817894EFECF0E03197F1F746
:1002B000982381E009F480E0089590918806E09108
:1002C0008906F0918A06292F209580FF14C0F894A2
:1002D0008281822382838181892B8183A3E2B0E0A2
:1002E0001197F1F78281982B9283789487ED90E0B3
:1002F0000197F1F70895F8948281822382838181A6
:10030000892B8183AFEFB0E01197F1F78281982BB1
:10031000928378948FE090E0EBCF0F931F93CF936D
:10032000DF93082FC8E0D0E011E081E0902F912307
:1003300009F480E00E945D01110F2197B1F7F89454
:10034000E0918906F0918A069181809188068095D6
:1003500098239183E0918906F0918A0692818923FE
:1003600082837894DF91CF911F910F9108958091AE
:100370008806E0918906F0918A06F8949181282FE9
:1003800020959223918378943DE743E050E03150EB
:1003900029F1DA011197F1F790819823C1F3F894CC
:1003A0009281922392839181982B91837894ABE7E9
:1003B000B7E01197F1F7F894918192239183A3E12B
:1003C000B1E01197F1F79081982381E009F080E086
:1003D0007894E3E6F6E03197F1F7089580E0089528
:1003E00091E090934605809368051092470510921E
:1003F00069050895833081F028F4813099F08230C6
:10040000A9F008958730A9F08830C9F08430B1F49C
:10041000809180008F7D03C0809180008F778093D2
:100420008000089584B58F7784BD089584B58F7D4D
:10043000FBCF8091B0008F778093B00008958091BA
:10044000B0008F7DF9CFCF93DF93282F30E0F901F3
:10045000E052FF4F8491F901E45EFE4FD491F9011F
:10046000E85FFE4FC491CC23A1F081110E94FA01F4
:10047000EC2FF0E0EE0FFF1FE250FF4FA591B4917B
:10048000EC91ED2381E090E009F480E0DF91CF91E1
:10049000089580E090E0FACF1F93CF93DF93282F49
:1004A00030E0F901E052FF4F8491F901E45EFE4F24
:1004B000D491F901E85FFE4FC491CC23A9F0162F27
:1004C00081110E94FA01EC2FF0E0EE0FFF1FEC50BB
:1004D000FF4FA591B4918FB7F894EC91111108C01A
:1004E000D095DE23DC938FBFDF91CF911F910895CC
:1004F000DE2BF8CFCF93DF9390E0FC01E45EFE4F5C
:100500002491885F9E4FFC0184918823C9F090E07C
:10051000880F991FFC01EA52FF4FA591B491FC018D
:10052000EC50FF4FC591D49161110DC09FB7F89465
:100530008C91209582238C938881282328839FBFC8
:10054000DF91CF910895623051F49FB7F8943C91B8
:10055000822F809583238C93E8812E2BEFCF8FB74A
:10056000F894EC912E2B2C938FBFEACF4F925F9291
:100570006F927F928F929F92AF92BF92CF92DF92B3
:10058000EF92FF920F931F93CF93DF9300D000D091
:100590001F92CDB7DEB72091770527FD2CC1498387
:1005A0005A836B837C838C0161E0809176050E9485
:1005B0007A02809177058D834801B12CA12C8D7F23
:1005C00009F031C160E072E18AE790E0A50198018D
:1005D0000E94843129013A017A01690191E0C91A26
:1005E000D108E108F108AFEFCA16D104E104F10423
:1005F00009F00CF4C7C060E472E48FE090E0A5015C
:1006000098010E94843169017A01B1E0CB1AD108C6
:10061000E108F1088D81823009F06AC082E09FEF25
:10062000C916D104E104F10409F00CF45EC160E9DB
:1006300070ED83E090E0A50198010E94843169018A
:100640007A01A1E0CA1AD108E108F10883E0BFEFFE
:10065000CB16D104E104F10409F00CF446C168E4BE
:1006600078EE81E090E0A50198010E948431690153
:100670007A0181E0C81AD108E108F10884E09FEF0F
:10068000C916D104E104F10409F00CF42EC164E2AE
:1006900074EF80E090E0A50194010E94843169012B
:1006A0007A01B1E0CB1AD108E108F10885E09FEFAB
:1006B000C916D104E104F10409F008F416C162E19D
:1006C0007AE780E090E0A50194010E9484316901FD
:1006D0007A01B1E0CB1AD108E108F1088FEFC81612
:1006E000D104E104F10411F008F0F0C086E0FDC08F
:1006F0008FEFC816D104E104F10409F00CF491C0A5
:1007000068E478EE81E090E0A50198010E948431D0
:1007100069017A0191E0C91AD108E108F108AD81B7
:1007200084E0A111C4CF83E0AFEFCA16D104E10485
:10073000F10461F15CF162E17AE780E090E0A5010B
:1007400094010E94843169017A0181E0C81AD108BC
:10075000E108F10884E09FEFC916D104E104F10437
:10076000A9F0A0F0730162019AE0F594E794D794A0
:10077000C7949A95D1F7A1E0CA1AD108E108F10807
:1007800085E004C081E0AD81A111AFC095B5987F2F
:10079000892B85BD89819A81AB81BC812FEF3FEF89
:1007A000A901892B8A2B8B2B79F0D801AA0FBB1FAB
:1007B00029813A814B815C810E94353028EE33E0FB
:1007C00040E050E00E9462319D81913009F45CC0AC
:1007D000923009F46BC091110EC0C7BC2093720512
:1007E00030937305409374055093750580916E00A6
:1007F000826080936E000F900F900F900F900F907B
:10080000DF91CF911F910F91FF90EF90DF90CF90EC
:10081000BF90AF909F908F907F906F905F904F9020
:10082000089582E0B0CF60E072E18AE790E0A50130
:1008300098010E94843169017A01B1E0CB1AD10894
:10084000E108F10891E0C114D10481E0E806F10467
:1008500084F068E478EE81E090E0A50198010E94C0
:10086000843169017A0191E0C91AD108E108F108DF
:1008700093E0AD81A13009F08DCF80918100887F18
:10088000892B8093810086CFD0928900C092880006
:1008900020936E0530936F0540937005509371055A
:1008A00080916F00826080936F00A5CFC092B300EB
:1008B00020936A0530936B0540936C0550936D054A
:1008C0008091700082608093700095CF7301620107
:1008D0008AE0F594E794D794C7948A95D1F7B1E06C
:1008E000CB1AD108E108F10887E09091B100987F18
:1008F000892B8093B1004ECF3FB7F8948091F404D8
:100900009091F504A091F604B091F70426B5A89B48
:1009100005C02F3F19F00196A11DB11D3FBFBA2F91
:10092000A92F982F8827BC01CD01620F711D811D51
:10093000911D42E0660F771F881F991F4A95D1F7D6
:100940000895CF92DF92EF92FF920F931F93CF9370
:10095000DF93CDB7DEB729970FB6F894DEBF0FBE91
:10096000CDBF80912A0690912B06892B09F480C077
:10097000C0903006D0903106E0903206F0903306F9
:100980000E947C046C157D058E059F0550F40E9425
:100990007C04609330067093310680933206909306
:1009A00033060E947C04009130061091310620919C
:1009B000320630913306601B710B820B930B6C3245
:1009C000714081059105A0F2F894809125069091DF
:1009D00026069A838983E0912A06F0912B06DF018F
:1009E00011968081898790912106E0913406F091DB
:1009F000350680913606992309F449C09081982BD9
:100A000098879081809589238F838F818C8388E05C
:100A10008B8358856F8149853B812C8189819A819F
:100A2000508347FD252F3A952083262F39F0441F08
:100A300000C000006083000000C0F2CF38E04D919C
:100A400060830000019761F7F0933506E093340668
:100A500049873B832C839A83898378940E947C0402
:100A6000609330067093310680933206909333067C
:100A700029960FB6F894DEBF0FBECDBFDF91CF91A0
:100A80001F910F91FF90EF90DF90CF90089590818C
:100A9000982B98879081809589238F838F818E836F
:100AA00088E08D8358856F8149853D812E818981BC
:100AB0009A81508347FD252F00C000C0208300C0CD
:100AC00000C000C000C000C060830000262F3A951F
:100AD00041F0441F000000C000C000C000C000C0C2
:100AE000E8CF38E04D9100C0608300C0019709F75E
:100AF000F0933506E093340649873D832E83ABCFD0
:100B00008F929F92AF92BF92CF92DF92EF92FF921D
:100B10004B015C010E947C046B017C010E947C04FF
:100B20006C197D098E099F09683E73408105910506
:100B3000A8F321E0821A9108A108B10888EEC80E36
:100B400083E0D81EE11CF11C81149104A104B104BE
:100B500029F7FF90EF90DF90CF90BF90AF909F90DC
:100B60008F9008952FB7F8946091F0047091F1047C
:100B70008091F2049091F3042FBF08950895089591
:100B80000895AF92BF92CF92DF92EF92FF920F93B0
:100B90001F93CF93DF936C017B018B01040F151F13
:100BA000EB015E01AE18BF08C017D10759F069917B
:100BB000D601ED91FC910190F081E02DC6010995DF
:100BC000892B79F7C501DF91CF911F910F91FF908C
:100BD000EF90DF90CF90BF90AF900895FC01538DC0
:100BE000448D252F30E0842F90E0821B930B541707
:100BF00010F0CF96089501970895FC01918D828D94
:100C0000981761F0A28DAE0FBF2FB11D5D968C912C
:100C1000928D9F5F9F73928F90E008958FEF9FEF6B
:100C20000895FC01918D828D981731F0828DE80F27
:100C3000F11D858D90E008958FEF9FEF0895FC01E1
:100C4000918D228D892F90E0805C9F4F821B9109AE
:100C50008F739927089588E795E00E941F0621E089
:100C6000892B09F420E0822F089580E090E0892B01
:100C700029F00E942B0681110C9400000895FC01BC
:100C8000A48DA80FB92FB11DA35ABF4F2C91848DED
:100C900090E001968F739927848FA689B7892C934A
:100CA000A089B1898C91837080648C93938D848D9D
:100CB000981306C00288F389E02D80818F7D8083A0
:100CC0000895EF92FF920F931F93CF93DF93EC0160
:100CD00081E0888F9B8D8C8D98131AC0E889F989E3
:100CE000808185FF15C09FB7F894EE89FF896083E6
:100CF000E889F98980818370806480839FBF81E067
:100D000090E0DF91CF911F910F91FF90EF900895A8
:100D1000F62E0B8D10E00F5F1F4F0F731127E02E83
:100D20008C8D8E110CC00FB607FCFACFE889F989BB
:100D3000808185FFF5CFCE010E943F06F1CFEB8D7C
:100D4000EC0FFD2FF11DE35AFF4FF0829FB7F8948F
:100D50000B8FEA89FB8980818062CFCF0F931F932D
:100D6000CF93DF938C01D0E0C0E0F801EC0FFD1FC2
:100D70006491662341F088E795E00E946106892B23
:100D800011F02196F2CFCE01DF91CF911F910F91FB
:100D90000895CF93DF93EC01888D8823B9F0AA8959
:100DA000BB89E889F9898C9185FD03C0808186FD26
:100DB0000DC00FB607FCF7CF8C9185FFF2CF808175
:100DC00085FFEDCFCE010E943F06E9CFDF91CF91A5
:100DD00008956093BB047093BC048093BD0490930A
:100DE000BE04645D7E4F8F4F9F4F6093B704709336
:100DF000B8048093B9049093BA0482E090E0909391
:100E0000B6048093B5040E94B2056093B104709358
:100E1000B2048093B3049093B40408952F923F9248
:100E20004F925F926F927F928F929F92AF92BF92FA
:100E3000CF92DF92EF92FF920F931F93CF93DF93A6
:100E4000382E962E842E222E84E6E816F1040CF419
:100E500059C092EBE91A97E0F90AE092C5040093B1
:100E6000C4042092C3043092C1049092C0048092C2
:100E7000BF04AE2DB0E020E833E341EE51E00E9424
:100E800035302B013C0122EB37E0FF24E4E6F0E0B3
:100E9000C0E9D1E0C901825B97408E159F05B4F18E
:100EA0009EE4E91A98EFF90AC70164E670E00E942F
:100EB0004E316C01C70160E971E00E944E315C0166
:100EC000C8E6D2E0E1E0F0E0112783E0E822FF2469
:100ED000E017F1070CF042C0E230F10591F5E114A2
:100EE000F10479F5C114D10419F4A114B10449F540
:100EF00080E8480E8BE3581E86E2681E711C31960E
:100F00002196E6CF8EE1E80EF11CA7CFC9018370D0
:100F10009927892B99F4C901BF010E944E31892B71
:100F200031F4C901BE010E944E31892B39F490E899
:100F3000490E91E5591E91E0691E711C2F5F3F4FCC
:100F4000A9CFA881B0E020E831E541E050E00E945F
:100F50003530460E571E681E791ED1CF292D30E040
:100F6000ACE3B0E00E9477306B017C01C80CD11C6F
:100F7000E11CF11C232D30E0A0E1BEE00E9477309F
:100F8000C60ED71EE81EF91E822D8150990BDC017A
:100F900020E831E541E050E00E94A9316C0D7D1D53
:100FA0008E1D9F1D640D751D861D971DDF91CF91B0
:100FB0001F910F91FF90EF90DF90CF90BF90AF9077
:100FC0009F908F907F906F905F904F903F902F9069
:100FD0000C94E906CF92DF92EF92FF920F931F934A
:100FE0000E94B2058B019C01C090B104D090B20464
:100FF000E090B304F090B4046091BB047091BC0421
:101000008091BD049091BE040C191D092E093F0961
:10101000083E134021053105E0F0DC01CB010196CB
:10102000A11DB11D8093BB049093BC04A093BD048B
:10103000B093BE04B701A60148515C4F6F4F7F4F7C
:101040004093B1045093B2046093B3047093B4041A
:10105000C7CF1F910F91FF90EF90DF90CF90089531
:101060004F925F926F927F928F929F92AF92BF92B8
:10107000CF92DF92EF92FF920F931F93CF93DF9364
:101080004B015C018091AD049091AE04A091AF043E
:10109000B091B00488159905AA05BB0509F4C6C02E
:1010A0008CE3C82ED12CE12CF12CC501A7019601AF
:1010B0000E9462316093BF04CA01B901A701960181
:1010C0000E9462316093C004C501B40120E13EE09A
:1010D00040E050E00E946231CA01B90128E130E0ED
:1010E00040E050E00E9462316093C104C501B40148
:1010F00020E831E541E050E00E94623169017A0167
:10110000CA01B9016C5F7F4F8F4F9F4F27E030E0DE
:1011100040E050E00E9462316F5F6093C204412C56
:10112000512C320140E004E610E0C0E9D1E0242F68
:1011300030E02E54384FF901E370FF273097F9F46F
:10114000C901B8010E944E31892B31F4C901BE0199
:101150000E944E31892B99F48EE691E0A0E0B0E038
:10116000480E591E6A1E7B1ED301C201AA27BB2747
:10117000C816D906EA06FB0638F04F5FD8CF8DE6D1
:1011800091E0A0E0B0E0ECCF4093C504C90164E673
:1011900070E00E944E31EC01C90160E971E00E94EB
:1011A0004E31309721F42097D9F40097C9F04DE6DD
:1011B00051E060E070E0441A550A660A770AC418E4
:1011C000D508E608F708A8E6B2E020E0213069F487
:1011D0003097E9F5209711F40097C9F54DE106C065
:1011E0004EE651E060E070E0E6CF4C9150E070E0F8
:1011F00060E031E0320FC416D506E606F70640F08F
:10120000C41AD50AE60AF70A1196232F3C30F1F6E4
:101210002F5F2093C404C394C092C3048092AD0492
:101220009092AE04A092AF04B092B004DF91CF913F
:101230001F910F91FF90EF90DF90CF90BF90AF90F4
:101240009F908F907F906F905F904F9008954CE1AA
:10125000CDCF0E94EA070E9430088091C50490E03B
:101260008E54984F08950E94EA070E94300880919A
:10127000C40490E008950E94EA070E94300880911B
:10128000C30490E008950E94EA070E94300880910C
:10129000BF0490E008950E94EA070E943008809100
:1012A000C00490E008950E94EA070E9430088091EF
:1012B000C10490E00895CF92DF92EF92FF92CF9316
:1012C000DF93EC010E94B2056B017C018F850E94C7
:1012D00023029C0181E02115310509F480E0898B0E
:1012E0008889811105C091E0232B09F090E0998B4A
:1012F00029898A89281721F0CD8ADE8AEF8AF88E1B
:101300008D899E89AF89B88DB701A601481B590BFD
:101310006A0B7B0BDB01CA01CB80DC80ED80FE8099
:10132000C816D906EA06FB0664F43A81231749F089
:101330002A83222349F04B895C894F5F5F4F5C8B86
:101340004B8B3A81311117C0CF80D884E984FA845D
:10135000C816D906EA06FB0634F48B899C89998362
:1013600088831C8A1B8A2A8BDF91CF91FF90EF9094
:10137000DF90CF900895CB84DC84ED84FE84C81682
:10138000D906EA06FB067CF78B899C8991958195A5
:101390009109E5CF20918A04260F3327331F21328C
:1013A0003105ECF420914005FC0190E080E0243010
:1013B00069F082E00895A0918A042191AC01465918
:1013C0005B4FA40FB52FB11D2C930196861798F390
:1013D00080918A04680F60938A0480E0089581E018
:1013E00008951092400581E080933F0510921A0500
:1013F00061E082E10E944C0261E083E10E944C02C4
:10140000E9EBF0E080818E7F808380818D7F808317
:1014100088E48093B80085E48093BC000895CF935E
:10142000DF9391E0909369048823B9F0C091B800EC
:10143000D091BA008091BC008A7B8093BC0060E0B0
:1014400082E10E944C0260E083E10E944C020E9413
:10145000F109D093BA00C093B800DF91CF910895FD
:10146000CF92DF92EF92FF920F931F93CF93DF9370
:10147000D091690581E0D13208F09CC0C091680527
:101480000E947C046B017C018091400581116CC03D
:1014900082E08093400581E080933F058FEF809349
:1014A0003E0510923D05D0933C05A8E4B5E0ECE183
:1014B000F5E080E0D8138DC010921B0580911B05CC
:1014C000CC0FC82BC0931B0580911A05813009F001
:1014D00084C010921A050E947C046B017C018091EB
:1014E0001B058093BB008091420590914305A0911C
:1014F0004405B0914505892B8A2B8B2BA1F00E94C6
:101500007C040091420510914305209144053091DF
:1015100045056C197D098E099F09061717072807CD
:10152000390708F442C08091BC0083FDD8CF85EC18
:101530008093BC000E947C046B017C01809140057B
:10154000823009F44CC080913E058F3F09F469C098
:1015500080913E05803209F466C080913E0580335B
:1015600009F463C084E026C0809142059091430550
:10157000A0914405B0914505892B8A2B8B2B09F44A
:1015800083CF0E947C040091420510914305209175
:101590004405309145056C197D098E099F09061790
:1015A00017072807390708F06FCF809141050E947F
:1015B0000F0A85E0109247051092690510924605C2
:1015C000DF91CF911F910F91FF90EF90DF90CF901F
:1015D00008959D9191938F5F6DCF85EEA9CF8091F6
:1015E000420590914305A0914405B0914505892B92
:1015F0008A2B8B2B09F4A2CF0E947C040091420518
:101600001091430520914405309145056C197D09E1
:101610008E099F09061717072807390708F08ECF8C
:10162000C4CF80E0C7CF82E0C5CF83E0C3CF0895A9
:10163000E091F9048091F804E81730F4F0E0E65006
:10164000FB4F808190E008958FEF9FEF0895909178
:10165000F9048091F8042FEF3FEF981748F4E92F31
:10166000F0E0E650FB4F208130E09F5F9093F9045B
:10167000C90108958091F8049091F904891B990B90
:101680000895CF92DF92EF92FF920F931F93CF9323
:10169000DF937C01CB018A0120914605222389F04A
:1016A000EB016B01C40ED51ECC15DD0569F0699107
:1016B000D701ED91FC910190F081E02DC7010995D2
:1016C000F3CF642F0E94CA09C801DF91CF911F9107
:1016D0000F91FF90EF90DF90CF900895CF93DF931D
:1016E0001F92CDB7DEB76983209146052223F9F01A
:1016F00020916905203258F021E030E0FC0133836D
:10170000228390E080E00F90DF91CF910895809147
:101710004705E82FF0E0E85BFA4F998190838F5FEF
:10172000809347058093690581E090E0ECCF61E00C
:10173000CE0101960E94CA09F7CF682F85E196E095
:101740000C946E0B90E080E00895CF93DF93D0E08F
:10175000C0E040E050E0BA01CE010E94C4002196F2
:10176000C830D105B1F7DF91CF910C94A10440911D
:10177000670450916804209165043091660480E00C
:101780009CE34217530711F48FEF9FEF4F5F5F4FBA
:101790004330510529F0509368044093670408953D
:1017A00010926804109267042F5F3F4F2330310579
:1017B00029F030936604209365040895109266041E
:1017C000109265040895CF92DF92EF92FF920F93EB
:1017D0001F93CF93DF939091640491110BC08FEF0F
:1017E0009FEFDF91CF911F910F91FF90EF90DF90CE
:1017F000CF90089590916304992389F3082FC091A5
:101800006204D0E080915A0481110DC00E94B2059B
:10181000609356047093570480935804909359042E
:1018200081E080935A040E94B205C0905604D09083
:101830005704E0905804F09059046C197D098E0902
:101840009F096D32714081059105B0F010915504EA
:101850000E94B20560935604709357048093580415
:101860009093590491E0912790935504992331F175
:101870001092540410925304209153043091540454
:101880002095309580915204282326FF1CC081E0CA
:101890008093510427FF1AC081E080935004809107
:1018A0005504882309F49BCF02C0D595C7950A95A6
:1018B000E2F7C0FF94CF80E09CE393CFD093540431
:1018C000C0935304D9CF10925104E4CF1092500426
:1018D000E6CFEF92FF920F931F93CF93DF93182FD2
:1018E0008091440481110DC00E94B20560934004B0
:1018F00070934104809342049093430481E0809369
:101900004404C0913E04D0913F04C930D10508F091
:1019100075C0FE01E257F34F0C94A331970CA30C52
:10192000A70CB50C970CA30CDA0CDC0CED0C0E9488
:10193000B7012196CA30D10509F097C010923F0433
:1019400010923E0428C08CEC0E948D01F2CF84E4FA
:101950000E948D010E94B20560934004709341047F
:101960008093420490934304E4CF0E94B205009117
:101970004004109141042091420430914304601BC3
:10198000710B820B930BC4E0D0E06E3E7240810578
:10199000910508F06AC060913A0470913B0480910F
:1019A0003C0490913D04DF91CF911F910F91FF90E6
:1019B000EF9008958EEBC8CF98E0E92EF12C10E05F
:1019C00001E00E9438018111102B000F81E0E81A1C
:1019D000F108B9F710933804ACCF88E0E82EF12C69
:1019E00010E001E00E9438018111102B000F21E06E
:1019F000E21AF108B9F7109339049BCFC930D10529
:101A000009F097CF60913804709139046F3F7607E1
:101A100011F470E060E0072E000C880B990B0E9417
:101A2000022F20E030E040E85DE30E94612F1111B9
:101A30000FC020E030E040E251E40E94612F60934B
:101A40003A0470933B0480933C0490933D0471CF1F
:101A500026E636E646EE5FE30E94612F20E030E0A6
:101A600040E052E40E948730E4CFD0933F04C0931B
:101A70003E0491CF0F931F938091440190914501B3
:101A8000892B09F449C080910F048823A9F00E9492
:101A9000B20500910B0410910C0420910D043091BB
:101AA0000E04601B710B820B930B693E7340810522
:101AB000910590F110920F040E94530920913E016C
:101AC00030913F018217930739F50E944B0920910D
:101AD00040013091410182179307F1F40E944309BC
:101AE000209142013091430182179307A9F40E948B
:101AF000B20560930B0470930C0480930D049093D3
:101B00000E0481E080930F048091210190912201C5
:101B10009093E0048093DF041F910F910895CF9379
:101B2000DF93EC012196FC0120812A33C9F4218145
:101B3000243609F5229630E020E06AE0899190EDA4
:101B4000980F9A3078F4629FA001639F500D112482
:101B5000082E000C990BC0979A01280F391FEECF61
:101B6000CE01DFCF30930304209302042115310509
:101B700011F020931F0188818F3689F48A81082E05
:101B8000000C990B9C0120533109309303042093DE
:101B90000204C397059710F420931E0124968881B0
:101BA0008236F1F4229630E020E06AE0899190EDEF
:101BB000980F9A3068F4629FA001639F500D112422
:101BC000082E000C990BC0979A01280F391FEECFF1
:101BD000309303042093020430931D0120931C01D1
:101BE00020911C0130911D01032E000C440B550B5C
:101BF00060E67AEE80E090E00E94843182E0220F7D
:101C0000331F441F551F8A95D1F72093FE0330934D
:101C1000FF034093000450930104CE01DF91CF9164
:101C200008958EBD00000DB407FEFDCF8EB508955A
:101C30008F929F92AF92BF92CF92DF92EF92FF92DC
:101C40000F931F93CF93DF937C01D62F0E947C04C8
:101C50004B015C0180914005811167C0CD2F81E06F
:101C60008093400580933F059FEF90933E0510922F
:101C70003D059D0F90933C0580931B0580911B05AE
:101C8000EE0CFF1C8E2980931B0580911A05813074
:101C900009F083C010921A050E947C046B017C013C
:101CA00080911B058093BB00809142059091430574
:101CB000A0914405B0914505892B8A2B8B2BA1F06F
:101CC0000E947C048090420590904305A0904405BA
:101CD000B09045056C197D098E099F0986169706F7
:101CE000A806B90608F442C08091BC0083FDD8CF95
:101CF00085EC8093BC000E947C046B017C01809188
:101D00004005813009F44BC080913D058D1710F4DA
:101D1000C0913D05ECE1F5E0AAEFB4E080E08C175E
:101D200051F191919D938F5FFACF809142059091EF
:101D30004305A0914405B0914505892B8A2B8B2B37
:101D400009F488CF0E947C0400914205109143055C
:101D50002091440530914505681979098A099B0944
:101D6000061717072807390708F074CF8091410537
:101D70000E940F0AC0E01092F904C093F8048C2F5F
:101D8000DF91CF911F910F91FF90EF90DF90CF9057
:101D9000BF90AF909F908F90089585EEAACF8091CD
:101DA000420590914305A0914405B0914505892BCA
:101DB0008A2B8B2B09F4A3CF0E947C0480904205D0
:101DC00090904305A0904405B09045056C197D099D
:101DD0008E099F0986169706A806B90608F08FCFC8
:101DE000C5CFCF93C09120018C2F0E94F00160E0FD
:101DF00085E196E00E946E0B0E94300A67E070E079
:101E00008C2F90E00E94180E85E196E00E94270B2F
:101E1000982F92959F70CAE08F709C9F800D11241F
:101E200090E09093ED048093EC0485E196E00E94AD
:101E3000270B982F92959F708F709C9F800D112477
:101E400090E09093E4048093E30485E196E00E949F
:101E5000270B982F929593708F709C9F800D112463
:101E600090E09093E2048093E10485E196E00E9483
:101E7000270B85E196E00E94270B982F92959F7083
:101E80008F709C9F800D112490E09093E6048093C6
:101E9000E50485E196E00E94270B982F92959F70AC
:101EA0008F709C9F800D112490E09093E8048093A4
:101EB000E70485E196E00E94270B982F92959F708A
:101EC0008F709C9F800D112490E09093EA04809382
:101ED000E904CF910895CF93DF93EC018881998134
:101EE000009711F00E944D32198218821D821C82C7
:101EF0001B821A82DF91CF910895FC01808191812C
:101F0000009711F00C944D3208958F929F92AF92EA
:101F1000BF920F931F93CF93DF93CDB7DEB7A197F7
:101F20000FB6F894DEBF0FBECDBF19A2423008F441
:101F30004AE08E010F5D1F4F842E912CB12CA12CF5
:101F4000A50194010E946231E62FB901CA01EA306D
:101F500044F5E05DD801EE938D01232B242B252B36
:101F600079F790E080E0109769F0FD010190002082
:101F7000E9F73197AF014A1B5B0BBD0188E795E09C
:101F80000E94C105A1960FB6F894DEBF0FBECDBF6B
:101F9000DF91CF911F910F91BF90AF909F908F9045
:101FA0000895E95CD7CF42E050E060EC72E088E74A
:101FB00095E00C94C105CF93DF93BC01990F880B7A
:101FC000990B4AE00E94850FEC010E94D30F8C0F01
:101FD0009D1FDF91CF910895FC0180819181009731
:101FE00011F00C948A2E60E070E0CB0108952F92DE
:101FF0003F924F925F926F927F928F929F92AF9299
:10200000BF92CF92DF92EF92FF920F931F93CF93E5
:10201000DF93CDB7DEB72C970FB6F894DEBF0FBEB7
:10202000CDBF0E947C0400914C0410914D0420917E
:102030004E0430914F046B017C01C01AD10AE20AB0
:10204000F30A97018601003D17402105310508F488
:10205000C0C160934C0470934D0480934E049093E0
:102060004F0482E896E00E94EC0F69837A838B83A9
:102070009C8360E08AE00E944C021AE0812E912C41
:10208000A12CB12C69817A818B819C81A50194015D
:102090000E94843169017A01660F771F6C5A7D4F67
:1020A000DB012D903C9085E090E00E94E30B9E8345
:1020B0008D830E94B70B3C01C701B601A5019401B5
:1020C0000E948431660F771F6C5A7D4FFB01C080E0
:1020D000D18084E090E00E94E30B2C010E94B70BBA
:1020E0008C0169817A818B819C8124E630E040E01B
:1020F00050E00E948431CA01B901A50194010E94F7
:102100008431660F771F6C5A7D4FDB01AD90BC9018
:1021100083E090E00E94E30B7C010E94B70B4D81AD
:102120005E81462157214221532170E060E024E185
:10213000440F551F661F771F2A95D1F78E219F21C7
:102140008A219B21B0E0A0E0842B952BA62BB72BF6
:1021500040225122C420D520F12CE12C3AE0CC0CB5
:10216000DD1CEE1CFF1C3A95D1F7C82AD92AEA2AB1
:10217000FB2A69817A818B819C8128EE33E040E0E3
:1021800050E00E94843129013A0180915104882352
:1021900009F4FDC06894F6F880915004882309F48E
:1021A000F9C06894F7F81091D5048F2D9927AA27C4
:1021B000BB278D839E83AF83B8874701AA24BB24A6
:1021C000BB27AF2D9E2D8D2D89879A87AB87BC8726
:1021D000112309F4E2C08C2D0E94110E89850E9402
:1021E000110E882D0E94110E8D810E94110E3AE071
:1021F000832E912CA12CB12CC301B201A501940115
:102200000E948431660F771F6C5A7D4FDB014D9021
:102210005C9082E090E00E94E30B7C010E94B70B8F
:102220006C0169817A818B819C8120E137E240E0F9
:1022300050E00E948431CA01B901A50194010E94B5
:102240008431660F771F6C5A7D4FFB010190F0813E
:10225000E02DFE83ED8381E090E00E94E30B3C01E2
:102260000E94B70BCE20DF20C420D520F12CE12C1A
:1022700064E1CC0CDD1CEE1CFF1C6A95D1F78621B5
:1022800097212D813E8182239323B0E0A0E07AE064
:10229000880F991FAA1FBB1F7A95D1F7C82AD92A80
:1022A000EA2AFB2A69817A818B819C8120EA36E8BF
:1022B00041E050E00E948431CA01B901A5019401B6
:1022C0000E948431660F771F6C5A7D4FDB01AD9001
:1022D000BC9090E080E00E94E30B9A8389830E9487
:1022E000B70BE981FA818E239F238A219B21B0E0DD
:1022F000A0E08C299D29AE29BF29209151046C01B1
:102300007D01222309F454C06894F6F880915004AA
:10231000882309F450C06894F7F84F2C552466249C
:1023200077244701AA24BB24BB27AF2D9E2D8D2DDA
:1023300089839A83AB83BC83112309F43FC08C2D1E
:102340000E94110E89810E94110E882D0E94110E8B
:10235000842D0E94110E61E08AE02C960FB6F8944D
:10236000DEBF0FBECDBFDF91CF911F910F91FF90C8
:10237000EF90DF90CF90BF90AF909F908F907F9025
:102380006F905F904F903F902F900C944C02E89488
:10239000F6F802CFE894F7F806CF8D810E94110E6F
:1023A000882D0E94110E89850E94110E8C2D1DCF43
:1023B000E894F6F8ABCFE894F7F8AFCF842D0E94FD
:1023C000110E882D0E94110E89810E94110E8C2DF4
:1023D000C0CF2C960FB6F894DEBF0FBECDBFDF91F5
:1023E000CF911F910F91FF90EF90DF90CF90BF9012
:1023F000AF909F908F907F906F905F904F903F90A5
:102400002F9008950F931F93CF93DF938C01EB01CF
:10241000FC01808191810097E1F0688179816115EB
:102420007105A9F0428153812C813D8142175307E8
:1024300070F00E949C338C819D81F8019583848388
:102440001D821C82DF91CF911F910F9108950E94F0
:102450004D3288819981F801918380838A819B81A3
:10246000938382838C819D819583848319821882D2
:102470001B821A82E5CF0F931F93CF93DF93EC015A
:1024800088819981009759F02A813B812617370767
:1024900030F081E0DF91CF911F910F9108958B0172
:1024A0006F5F7F4F0E94D632009759F099838883DF
:1024B0001B830A832C813D81232B59F7FC01108259
:1024C000E8CF80E0E7CFEF92FF920F931F93CF9377
:1024D000DF936115710541F480E0DF91CF911F9189
:1024E0000F91FF90EF90089541155105B1F07B01D8
:1024F000EC010C811D81040F151FB8010E943B12D5
:10250000882351F3288139818C819D81B701820F05
:10251000931F0E949C331D830C8381E0DECFCF93F9
:10252000DF93EC01FB0101900020E9F73197AF0147
:10253000461B570B0E946312811103C0CE010E94FB
:102540006B0FCE01DF91CF910895CF93DF93EC0114
:10255000FB0144815581608171810E946312811168
:1025600003C0CE010E946B0FCE01DF91CF91089581
:10257000EF92FF920F931F93CF93DF93EC017B01B8
:102580008A01BA010E943B1281110BC0CE010E9448
:102590006B0FCE01DF91CF911F910F91FF90EF90C4
:1025A00008951D830C83B701888199810E949C3313
:1025B000F0CFFB0101900020E9F73197AF01461BF6
:1025C000570B0C94B8120F931F93CF93DF93CDB793
:1025D000DEB762970FB6F894DEBF0FBECDBF8C0199
:1025E000CB01F801118210821382128215821482AB
:1025F0004AE0BE016F5F7F4F0E94B12EBE016F5F48
:102600007F4FC8010E94D91262960FB6F894DEBFC0
:102610000FBECDBFDF91CF911F910F910895CF9342
:10262000DF93EC01FB018617970749F06081718108
:102630006115710541F0448155810E94B812CE01A7
:10264000DF91CF9108950E946B0FF9CFFC011182A9
:10265000108213821282158214820C940F13FC01D3
:10266000118210821382128215821482FB01019062
:102670000020E9F73197AF01461B570B0C94B812B5
:10268000AF92BF92CF92DF92EF92FF920F931F9380
:10269000CF93DF936C015B017A0189012417350721
:1026A00020F48F2D7901042F182F62EC72E0C601FF
:1026B0000E942F13D5011496CD91DC91EC16FD06E6
:1026C000E0F40C171D0708F4E801D501ED91FC9129
:1026D0001197EC0FFD1F108110826D917C916E0D92
:1026E0007F1DC60161157105A1F00E94D912F50187
:1026F00080819181C80FD91F1883C601DF91CF91C6
:102700001F910F91FF90EF90DF90CF90BF90AF900F
:1027100008950E946B0FEBCF4F925F926F927F9262
:102720008F929F92AF92BF92CF92DF92EF92FF92E1
:102730000F931F93CF93DF9300D000D000D0CDB77D
:10274000DEB77C014B015A0180911D0481113AC012
:1027500081E080931D0497E1692E94E0792E21E1B8
:10276000422E24E0522E10E000E00F5F1F4F680160
:1027700081E0C81AD1089801A601B401CE010196E2
:102780000E944013CE0101960E94EC0FD3016D937D
:102790003D01CE0101960E947D0F9801A601B50171
:1027A000CE0101960E944013CE0101960E94EC0FCB
:1027B000F20161932F01CE0101960E947D0F063038
:1027C000110599F69091100487E1C82E84E0D82E67
:1027D000E1E1F4E08601A801D8018C919A3008F07B
:1027E0004DC08F5F8C930F5F1F4FDA018C918A3041
:1027F00019F4D80111971C923196B4E00D311B07E2
:1028000051F79F5F943109F43FC09093100462EC3C
:1028100072E0C7010E942F13FE0131965F01D601BD
:102820008D916D014AE0B50190E00E94B12EF50155
:1028300001900020E9F73197AF014A195B09B50112
:10284000C7010E9463120C151D0549F7C7012696A2
:102850000FB6F894DEBF0FBECDBFDF91CF911F91B1
:102860000F91FF90EF90DF90CF90BF90AF909F902F
:102870008F907F906F905F904F90089520812817E0
:1028800009F4B1CF8F5FAECF1092100410921D04E7
:10289000BECFCF92DF92EF92FF921F93CF93DF9341
:1028A000CDB7DEB72C970FB6F894DEBF0FBECDBF05
:1028B000182F66EE72E0CE0107960E942F1322E0D9
:1028C00030E050E040E0133071F024E030E042E0CE
:1028D00050E01C3041F01033B9F42091860630915D
:1028E000870644E050E062E876E0CE0101960E945F
:1028F0004013BE016F5F7F4FCE0107960E94021208
:10290000CE0101960E947D0FCE0107960E94EC0F2A
:102910006B01CE0107960E947D0FC6012C960FB663
:10292000F894DEBF0FBECDBFDF91CF911F91FF9016
:10293000EF90DF90CF9008950F931F93CF93DF9385
:10294000CDB7DEB762970FB6F894DEBF0FBECDBF2E
:102950008C0177FF03C07195619571096A3071052B
:10296000A4F5CE010D960E94E31268EC72E0CE0150
:1029700001960E942F13BE016F5F7F4FCE01079615
:102980000E942613BE01635F7F4FCE0107960E940F
:10299000A512BC01C8010E942613CE0107960E9411
:1029A0007D0FCE0101960E947D0FCE010D960E94F3
:1029B0007D0FC80162960FB6F894DEBF0FBECDBF83
:1029C000DF91CF911F910F910895C8010E94E312EA
:1029D000F0CF0F931F93CF93DF93CDB7DEB76897F8
:1029E0000FB6F894DEBF0FBECDBF8B01833079F5F3
:1029F000209186063091870642E050E062E876E05A
:102A0000CE010D960E944013B801CE0101960E949E
:102A10009C14BE016F5F7F4FCE0107960E94261364
:102A2000BE01635F7F4FCE0107960E94A512BC01D5
:102A300082E896E00E940F13CE0107960E947D0F58
:102A4000CE0101960E947D0FCE010D9644C08C30C0
:102A500009F04EC0209186063091870644E050E090
:102A600062E876E0CE0143960E944013B801CE01A1
:102A70000D960E949C1422E030E050E040E062E8B5
:102A800076E0CE0101960E944013BE016F5F7F4F3A
:102A9000CE0107960E942613BE01635F7F4FCE01D1
:102AA00007960E94A512BE016D5E7F4F0E94A5127F
:102AB000BC0182E896E00E940F13CE0107960E94A7
:102AC0007D0FCE0101960E947D0FCE010D960E94D2
:102AD0007D0FCE0143960E947D0F68960FB6F89445
:102AE000DEBF0FBECDBFDF91CF911F910F91089533
:102AF000803399F7CE010D960E949C1424E030E0BB
:102B000050E040E062E876E0CE0101960E9440137A
:102B100080CF0E94B20560930704709308048093ED
:102B2000090490930A0480910604882309F44FC095
:102B30002091040430910504C901880F991F2131A7
:102B40003105A1F1FC01EC5DFE4F40815181415006
:102B5000510951834083DC01AC5DBE4F6D917C9186
:102B60001197FC01EC58FD4F4081518164177507A6
:102B70003CF4FC01E45DFD4F408151814D935C9339
:102B80002031310509F52091440130914501213072
:102B90003105B9F420E8209352048C5D9E4FFC016E
:102BA00060817181809162040C94E9144091460126
:102BB000509147014C5051095093470140934601B1
:102BC000CACF10925204E9CF2930310531F7089568
:102BD0000E94B2056093070470930804809309046F
:102BE00090930A0480910604882309F444C020913C
:102BF000040430910504C901880F991F2131310562
:102C000061F1FC01EC5DFE4F408151814F5F5F4FF0
:102C100051834083DC01AC5DBE4F6D917C91119777
:102C2000FC01E45DFD4F40815181461757073CF49C
:102C3000FC01EC58FD4F408151814D935C93203154
:102C40003105B1F4109252048C5D9E4FFC016081FD
:102C50007181809162040C94E91440914601509175
:102C60004701445F5F4F5093470140934601D2CFE5
:102C70002930310549F708950F931F93CF93DF93C0
:102C8000CDB7DEB768970FB6F894DEBF0FBECDBFE5
:102C90008C018091460190914701489709F048C006
:102CA0000E944309BC01CE0143960E949C140E94DD
:102CB0004B09BC01CE010D960E949C140E94530941
:102CC000BC01CE0101960E949C14BE016F5F7F4F34
:102CD000CE0107960E942613BE01635F7F4FCE018F
:102CE00007960E94A512BE016D5E7F4F0E94A5123D
:102CF000BC01C8010E942613CE0107960E947D0FD9
:102D0000CE0101960E947D0FCE010D960E947D0F8F
:102D1000CE0143960E947D0FC80168960FB6F894C5
:102D2000DEBF0FBECDBFDF91CF911F910F910895F0
:102D30000E944309BC01CE0143960E949C140E944C
:102D40004B09BC01CE010D960E949C140E94EA071B
:102D50000E9430088091C1046CE070E0882309F47F
:102D6000B0CF682F70E08D3008F4ABCF6C50710994
:102D7000A8CF8F929F92AF92BF92CF92DF92EF92A5
:102D8000FF920F931F93CF93DF93CDB7DEB72C97AE
:102D90000FB6F894DEBF0FBECDBF8C016A017B0178
:102DA00080913004811111C00E94B205645B7B4F99
:102DB0008F4F9F4F60932C0470932D0480932E04AB
:102DC00090932F0481E0809330048091240481113A
:102DD00009C063EC72E08EE194E00E942F1381E061
:102DE000809324040E94B20580902C0490902D04BE
:102DF000A0902E04B0902F04681979098A099B09C4
:102E0000693E73408105910508F4D0C00E94B20567
:102E100060932C0470932D0480932E0490932F04C0
:102E200020E030E0A901C701B6010E94293120E06D
:102E300030E040E05FE387FDD2C0C701B6010E94E9
:102E400087300E94F3307B0177FF04C0EE24FF241B
:102E5000E61AF70A5B0139E1A31A3CEFB30A809145
:102E60004801909149019B012D593F4F69012A5515
:102E700031094901B701892B09F0B6C0CE01079687
:102E80000E94E31268EC72E0CE0101960E942F13BB
:102E9000BE01695F7F4FCE0101960E94A51268ECCA
:102EA00072E00E948F12BC018EE194E00E940F1329
:102EB000CE0101960E947D0FCE0107960E947D0FE4
:102EC0003FECA31637E0B30618F5B701CE0107961D
:102ED0000E94E31267EC72E0CE0101960E942F136C
:102EE000BE01695F7F4FCE0101960E94A51268EC7A
:102EF00072E00E948F12BC018EE194E00E940F13D9
:102F0000CE0101960E947D0FCE0107960E947D0F93
:102F100087ECC816D10418F5B701CE0107960E94B8
:102F2000E31266EC72E0CE0101960E942F13BE01FF
:102F3000695F7F4FCE0101960E94A51268EC72E096
:102F40000E948F12BC018EE194E00E940F13CE010B
:102F500001960E947D0FCE0107960E947D0F23E10E
:102F60008216910418F5B701CE0107960E94E3126C
:102F700065EC72E0CE0101960E942F13BE01695FDD
:102F80007F4FCE0101960E94A51268EC72E00E946C
:102F90008F12BC018EE194E00E940F13CE010196C6
:102FA0000E947D0FCE0107960E947D0F6EE174E0B6
:102FB000C8010E942613C8012C960FB6F894DEBFF4
:102FC0000FBECDBFDF91CF911F910F91FF90EF907A
:102FD000DF90CF90BF90AF909F908F900895C701E2
:102FE000B6010E9486302DCFCE0107960E94E312D3
:102FF00068EC72E0CE0101960E942F13BE01695F5A
:103000007F4FCE0101960E94A51268EC72E00E94EB
:103010008F12BC018EE194E00E940F13CE01019645
:103020000E947D0FCE0107960E947D0F3FECA316F4
:1030300037E0B30638F5C7016AE070E00E944E3110
:10304000CE0107960E94E31267EC72E0CE01019672
:103050000E942F13BE01695F7F4FCE0101960E942F
:10306000A51267EC72E00E948F12BC018EE194E021
:103070000E940F13CE0101960E947D0FCE0107968C
:103080000E947D0F87ECC816D10438F5C7016AE0AD
:1030900070E00E944E31CE0107960E94E31266EC6A
:1030A00072E0CE0101960E942F13BE01695F7F4F2F
:1030B000CE0101960E94A51267EC72E00E948F1269
:1030C000BC018EE194E00E940F13CE0101960E9494
:1030D0007D0FCE0107960E947D0F23E18216910499
:1030E00008F064CFC7016AE070E00E944E31CE0163
:1030F00007960E94E31265EC72E0CE0101960E94F1
:103100002F13BE01695F7F4FCE0101960E94A51269
:1031100067EC72E03CCF85ED8093BC008091420566
:1031200090914305A0914405B09145050796A11DD6
:10313000B11D23E0B695A795979587952A95D1F768
:103140002091BC0024FD03C01092400508954091D9
:103150004205509143056091440570914505452B0A
:10316000462B472B69F30097A105B10541F02AE2F0
:103170002A95F1F700C00197A109B109E1CF80912B
:1031800041050C940F0A0C9427300C941F308F9239
:103190009F92AF92BF92CF92DF92EF92FF920F93E6
:1031A0001F93CF93DF9388E090E00E94C518C82F4B
:1031B000C82ED12C89E090E00E94C518882EE82EF8
:1031C000F12C8AE090E00E94C518082F10E0912CA5
:1031D000B12CA12CBA2CA92C982C8824AC2A882A92
:1031E000D0E0C0E0B501A401CE010E94C400219648
:1031F000C830D105B9F70E94A1048AE790E00E9487
:10320000AE060E94D30F85E790E00E94AE06C6018D
:103210000E94DB0F8EE690E00E94AE06C7010E947E
:10322000DB0F88E690E00E94AE06C801DF91CF91E7
:103230001F910F91FF90EF90DF90CF90BF90AF90D4
:103240009F908F900C94DB0F8F929F92AF92BF92C2
:10325000CF92DF92EF92FF920F931F93CF93DF9362
:10326000CDB7DEB7EC970FB6F894DEBF0FBECDBF7B
:103270000E94B20520E137E240E050E00E94623156
:10328000672B682B692B01F58091EB048823E1F013
:103290000E94F10EE090E904F090EA040091E70446
:1032A0001091E8042091E5043091E6044091EC048B
:1032B0005091ED046091E3047091E4048091E10485
:1032C0009091E2040E940E071092FD031092FC03FD
:1032D0001092FB031092FA031092F9031092F80374
:1032E0000091DF041091E004F8018081882309F443
:1032F00005C10E94B205C0909E03D0909F03E0904C
:10330000A003F090A1036C197D098E099F09C0905C
:103310009A03D0909B03E0909C03F0909D03C61607
:10332000D706E806F90608F0E9C00E94B2054B018D
:103330005C0180929E0390929F03A092A003B092A2
:10334000A103680130E020E04AE0F801F1908F012C
:1033500080ED8F0D8A3070F4429FC001439F900D25
:1033600011242F2DFF0C330B20533109280F391F47
:103370006F01EBCF30930304209302046091FE03AE
:103380007091FF0380910004909101042115310593
:1033900001F1032E000C440B550B0E948431209345
:1033A0009A0330939B0340939C0350939D03EFE952
:1033B000EF0DE730A0F40E2E000CFF0BEE51F64E91
:1033C0000C94A331601D621D541D581D5A1D5C1DB7
:1033D0005E1D20911F0130E050E040E0DECF1092F2
:1033E0009903F6018181833241F4809199038F5FC3
:1033F0008093990386010E5F1F4FF80180818E3202
:10340000F1F4C0909A03D0909B03E0909C03F0905D
:103410009D03C701B60122E030E040E050E00E9489
:103420008431C20ED31EE41EF51EC0929A03D092C0
:103430009B03E0929C03F0929D030F5F1F4FF801E6
:10344000808180538A3008F03FC3809398030F5FD8
:103450001F4FF80180818C3211F40F5F1F4FE091F4
:103460009903EE2309F44AC0C0909A03D0909B03BD
:10347000E0909C03F0909D03809198038450990BF9
:103480004CE0489F9001499F300D1124E20FF32F2B
:10349000F11DEE0FFF1FE659FE4FB701A601808117
:1034A00091810E94B6020E94B205681979098A09C1
:1034B0009B09C616D706E806F90600F50E94B20574
:1034C00060939E0370939F038093A0039093A10346
:1034D00080917705813009F4FCC2823009F4FFC283
:1034E000811105C080916E008D7F80936E0060E039
:1034F000809176050E944C0210E000E01093E004F9
:103500000093DF040E94B2050091F4031091F503CB
:103510002091F6033091F703601B710B820B930B24
:103520006932710581059105F8F080917705813048
:1035300009F4DBC2823009F4DBC2811105C080913D
:103540006E008695817031F4809123018111D3C280
:103550000E94A50B0E94B2056093F4037093F503DB
:103560008093F6039093F7038091040490910504EF
:10357000892B21F08091F3038111DBC18091060436
:103580008111D7C18091B80381110DC00E94B2058D
:103590006093B4037093B5038093B6039093B7031D
:1035A00081E08093B8038091AC0381110DC00E942B
:1035B000B2056093A8037093A9038093AA03909324
:1035C000AB0381E08093AC030E94B2050091B40389
:1035D0001091B5032091B6033091B703601B710BB6
:1035E000820B930B009100011091010120910201C7
:1035F00030910301061717072807390708F04DC057
:103600000E94B2056093B4037093B5038093B60330
:103610009093B7038091A6039091A703009709F0B8
:10362000EEC281E090E0909305048093040488E862
:1036300093E1A0E0B0E08093000190930101A0939A
:103640000201B09303018091A6039091A7038230F9
:10365000910581F4109205041092040440E65AEE9C
:1036600060E070E04093000150930101609302011B
:10367000709303010196833091050CF0E0C29093A2
:10368000A7038093A6038091F303882321F010926F
:103690000504109204041092F3030E94B2050091F5
:1036A000B4031091B5032091B6033091B703601BAA
:1036B000710B820B930B603D77408105910508F0FB
:1036C00090C30E94B2050091A8031091A903209114
:1036D000AA033091AB03601B710B820B930B653611
:1036E00071058105910508F424C10E94B20560931B
:1036F000A8037093A9038093AA039093AB038091CE
:103700000404909105042091D604222309F49CC25C
:10371000892B89F5CE0149960E943C1681E02091C3
:10372000480130914901232B09F480E00E94690C83
:10373000AB01BC01CE0101960E94B916AE01475EF5
:103740005F4FBE016F5F7F4FCE014F960E948C137B
:10375000BE01615E7F4F82E896E00E940212CE01B8
:103760004F960E947D0FCE0101960E947D0FCE01E3
:1037700049960E947D0F8091040490910504019761
:1037800009F062C00E94290968EE73E00E944E3180
:10379000BC01CE018B960E949C140E943309BC018F
:1037A000CE0185960E949C140E943B09BC01CE016B
:1037B00049960E949C14BE01675E7F4FCE014F96D2
:1037C0000E942613BE016B5D7F4FCE014F960E9473
:1037D000A512BE01655D7F4F0E94A512BC01CE01FE
:1037E000C1960E942613CE0101960E943C16AE019E
:1037F0004F5C5F4FBE016F5F7F4FCE01C7960E9447
:103800008C13BE01695C7F4F82E896E00E94021231
:10381000CE01C7960E947D0FCE0101960E947D0FBA
:10382000CE01C1960E947D0FCE014F960E947D0F62
:10383000CE0149960E947D0FCE0185960E947D0F94
:10384000CE018B960E947D0F809104049091050417
:10385000049709F06EC081E0209148013091490140
:10386000232B09F480E00E94690CAB01BC01CE015E
:10387000C1960E94B9160E94290968EE73E00E9461
:103880004E31BC01CE0185960E949C140E943309E2
:10389000BC01CE014F960E949C140E943B09BC01C2
:1038A000CE0101960E949C14BE016F5F7F4FCE0136
:1038B00049960E942613BE01615E7F4FCE01499654
:1038C0000E94A512BE016B5D7F4F0E94A512BC0134
:1038D000CE018B960E942613AE014F5C5F4FBE0156
:1038E000655D7F4FCE01C7960E948C13BE01695C57
:1038F0007F4F82E896E00E940212CE01C7960E9496
:103900007D0FCE018B960E947D0FCE0149960E94BD
:103910007D0FCE0101960E947D0FCE014F960E9431
:103920007D0FCE0185960E947D0FCE01C1960E942B
:103930007D0F0E94F70F89E696E00E945B0980E503
:1039400096E00E945B0987E396E00E945B09809104
:103950000604811149C21092620480916906909117
:103960006A06181619063CF08091FC039091FD033D
:10397000019709F077C381E08093F3031092E0048C
:103980001092DF0444E650E060E070E088EE93E0DF
:103990000E94B6020E94B205609307047093080467
:1039A0008093090490930A04809104049091050483
:1039B00001968530910509F440C2909305048093E7
:1039C00004048091040490910504069721F4109258
:1039D0000504109204040091040410910504F801F8
:1039E000E85FFE4F808180936204A8014150510935
:1039F000FA01EC5FFD4F9081992309F421C3692FEF
:103A00006150770B9B01FB01E051FE4F6081641711
:103A1000150609F015C3923009F012C288E1E2E5FB
:103A2000F1E0DE01119601900D928A95E1F7809107
:103A30003C0190913D0183709927892B21F48DE100
:103A400090E09C838B8380913A0190913B01019798
:103A5000880F991FE1E0F0E0EC0FFD1F8E0F9F1F14
:103A60004091380150913901FC0180819181841786
:103A700095070CF0E5C18AE090E0909305048093EF
:103A80000404EC960FB6F894DEBF0FBECDBFDF91F5
:103A9000CF911F910F91FF90EF90DF90CF90BF904B
:103AA000AF909F908F90089581E08093990399CC77
:103AB00083E0FBCF85E0F9CF86E0F7CF88E0F5CF54
:103AC0008AE0F3CF8CE0F1CF80911E0180939803C0
:103AD000C0CC80916F008D7F80936F0008CD809166
:103AE00070008D7F8093700002CD80916F0029CD92
:103AF0008091700026CD8091EE0481112BCD009134
:103B0000A4031091A503F801EE0FFF1FE00FF11FB2
:103B1000DF01AA0FBB1FA453BE4F8D919C914AE0B9
:103B2000489F9001499F300D11248091060190918A
:103B30000701280F391F3093070120930601DF0189
:103B4000AA0FBB1FA253BE4F8D919C91489FB001FD
:103B5000499F700D11248091E9039091EA03860F2B
:103B6000971F9093EA038093E903EE0FFF1FE05342
:103B7000FE4F60817181469F6001479FD00C1124E8
:103B80004091E7035091E803C40ED51ED092E8039C
:103B9000C092E703D12CF12CE22ED82AB12CA12C13
:103BA000B701A601C5010E94C400FFEFAF1ABF0A0A
:103BB00028E0A216B104A1F70E94A1048091A203FB
:103BC0009091A30301969093A3038093A203499736
:103BD00051F40F5F1F4F1093A5030093A40310929D
:103BE000A3031092A2038091A4039091A5030697CA
:103BF0000CF4B0CC1092A5031092A403ABCC0197A7
:103C000009F021CD84E090E09093050480930404B2
:103C100088E893E1A0E0B0E0809300019093010177
:103C2000A0930201B09303018091D6048111ECC6E8
:103C300082E090E09093A7038093A60304CD1092B6
:103C4000A7031092A6031FCD892B09F062C0CE01F5
:103C5000C1960E943C160E94290968EE73E00E94FA
:103C60004E31BC01CE0185960E949C140E943309FE
:103C7000BC01CE014F960E949C140E943B09BC01DE
:103C8000CE0101960E949C14BE016F5F7F4FCE0152
:103C900049960E942613BE01615E7F4FCE01499670
:103CA0000E94A512BE016B5D7F4F0E94A512BC0150
:103CB000CE018B960E942613AE014F5C5F4FBE0172
:103CC000655D7F4FCE01C7960E948C13BE01695C73
:103CD0007F4F82E896E00E940212CE01C7960E94B2
:103CE0007D0FCE018B960E947D0FCE0149960E94DA
:103CF0007D0FCE0101960E947D0FCE014F960E944E
:103D00007D0FCE0185960E947D0FCE01C1960E9447
:103D10007D0F8091040490910504019709F009CE6C
:103D20000E94290968EE73E00E944E31BC01CE0169
:103D30008B960E949C140E943309BC01CE0185968B
:103D40000E949C140E943B09BC01CE0149960E942E
:103D50009C14BE01675E7F4FCE014F960E942613D2
:103D6000BE016B5D7F4FCE014F960E94A512BE0132
:103D7000655D7F4F0E94A512BC01CE01C1960E94D5
:103D80002613CE0101960E943C16AE014F5C5F4F98
:103D9000BE016F5F7F4FCE01C7960E948C13BE019C
:103DA000695C7F4F82E896E00E940212CE01C796BE
:103DB0000E947D0FCE0101960E947D0FCE01C1961B
:103DC0000E947D0FCE014F960E947D0FCE01499635
:103DD0000E947D0FCE0185960E947D0FCE018B96AD
:103DE000A6CD10921D04A5CD0E94B2050091070436
:103DF000109108042091090430910A04601B710B92
:103E0000820B930B61367A4E8105910508F4A5CD9E
:103E100010920604E0910404F0910504E85EFD4F61
:103E2000808190E09093050480930404885F9E4F06
:103E3000FC0180818093620490CD86E090E0BDCD4E
:103E4000109206043093050420930404232BB9F444
:103E50000E9429097C010E9433098C010E943B09C0
:103E600040913401509135016091320170913301DC
:103E70009C0180913001909131010E940E07809148
:103E8000040490910504019719F5E0903C01F0902D
:103E90003D01F0E3EF1AF8EFFF0A00913A011091AB
:103EA0003B0180903801909039010E9443095C01E8
:103EB0000E944B096C010E9453099401A501B601AF
:103EC0000E940E07609136018DE090E00E94C318B9
:103ED00080910404909105040297C1F460913E0121
:103EE00082E090E00E94C3186091400183E090E07E
:103EF0000E94C3186091420184E090E00E94C318C0
:103F00006091440186E090E00E94C318809104040F
:103F100090910504039731F46091460181E090E0AF
:103F20000E94C3188091040490910504049731F411
:103F3000609148018BE090E00E94C31880910404D6
:103F400090910504059739F460914A01645F8CE013
:103F500090E00E94C3180E94290968EE73E00E9455
:103F60004E31082F0E943309F82E0E943B09E82E9B
:103F70000E944309B82E0E944B09C82E0E94530983
:103F8000D82E809120010E94F00160E085E196E04A
:103F90000E946E0B1AE08B2D612F0E942E318295AC
:103FA000807F682F690F85E196E00E946E0B8C2D53
:103FB000612F0E942E318295807F682F690F85E1E5
:103FC00096E00E946E0B8D2D612F0E942E318295FE
:103FD000807F682F690F85E196E00E946E0B61E09B
:103FE00085E196E00E946E0B8E2D612F0E942E318E
:103FF0008295807F682F690F85E196E00E946E0BA5
:104000008F2D612F0E942E318295807F682F690F3E
:1040100085E196E00E946E0B802F612F0E942E3169
:104020008295807F682F690F85E196E00E946E0B74
:1040300060E085E196E00E946E0B0E94300A21CD7F
:104040000331110579F098012950310922303105E9
:1040500048F00E944914F801EE0FFF1FEC5DFE4F7F
:10406000918380838091690690916A0697FD07C0CD
:104070008091FC039091FD03019609F0F0C044E6A5
:1040800050E060E070E088EE93E00E94B60280911C
:10409000060481114DC000910404109105040E9492
:1040A000B205609307047093080480930904909309
:1040B0000A04012BE9F50E944309BC01CE01859653
:1040C0000E949C140E944B09BC01CE014F960E9495
:1040D0009C140E945309BC01CE0101960E949C14BD
:1040E000BE016F5F7F4FCE0149960E942613BE012D
:1040F000615E7F4FCE0149960E94A512BE016B5DA5
:104100007F4F0E94A512BC0182E896E00E940F1327
:10411000CE0149960E947D0FCE0101960E947D0F2F
:10412000CE014F960E947D0FCE0185960E947D0F95
:104130008091040490910504019709F05AC00E94EF
:104140003B0990933901809338010E943309909381
:104150003B0180933A010E94290968EE73E00E94B6
:104160004E31BC0190933D0180933C01809136011A
:1041700090913701892B09F096C1CE0185960E9456
:104180009C1460913A0170913B01CE014F960E94C0
:104190009C146091380170913901CE0101960E9402
:1041A0009C14BE016F5F7F4FCE0149960E9426137B
:1041B000BE01615E7F4FCE0149960E94A512BE01ED
:1041C0006B5D7F4F0E94A512BC0182E896E00E94C1
:1041D0000F13CE0149960E947D0FCE0101960E94D9
:1041E0007D0FCE014F960E947D0FCE0185960E94D5
:1041F0007D0FE0910404F0910504E85EFD4F00811D
:1042000010E010930504009304040D30110549F4E7
:1042100081E090E0909345018093440180E8809391
:1042200052048091060491E0892780930604F801E6
:10423000E85FFE4F8081809362049801225131092A
:104240002230310560F00930110549F00E9449140F
:10425000000F111FF801EC5DFE4F91838083809168
:10426000500690915106009709F02EC18091FA03F3
:104270009091FB030197E1F481E08093F3031092A6
:10428000E0041092DF0444E650E060E070E088EE65
:1042900093E00E94B6020E94E81580910604811105
:1042A00007C01092EE0460E087E090E00E94C3181F
:1042B0008091F1039091F203019609F00EC1809173
:1042C0005206882309F409C11092640480910604FF
:1042D0008823F9F00E94B2050091ED031091EE03DE
:1042E0002091EF033091F003601B710B820B930B55
:1042F000673971058105910560F00E94B2056093F0
:10430000ED037093EE038093EF039093F0030E940C
:10431000E8158091370690913806009709F0E1C0C2
:104320008091F8039091F903019771F511E01093D2
:10433000F3031092E0041092DF0444E650E060E0E2
:1043400070E088EE93E00E94B6020E948915809189
:104350000604811119C01093EE0461E087E090E03B
:104360000E94C3186091060188E090E00E94C31883
:104370006091E90389E090E00E94C3186091E7032F
:104380008AE090E00E94C3188091EB039091EC03C7
:10439000019609F0AFC080913906882309F4AAC0BC
:1043A0008091060410926304882321F10E94B205D3
:1043B0000091E3031091E4032091E5033091E603BB
:1043C000601B710B820B930B673971058105910599
:1043D00008F449C00E94B2056093E3037093E403BC
:1043E0008093E5039093E6030E948915809106046B
:1043F000811139C0809150069091510697FD06C0F9
:104400008091FA039091FB03019691F444E650E009
:1044100060E070E088EE93E00E94B60281E0809355
:10442000230161E090E080E00E94C3180E94C71859
:10443000809137069091380697FD06C08091F80369
:104440009091F903019679F444E650E060E070E061
:1044500088EE93E00E94B6021092230160E090E0A3
:1044600080E00E94C318E0910404F0910504E43157
:10447000F10508F006CBE15CFD4D0C94A3317E22E2
:10448000AF22AC23F4231F246124411D411D411D93
:104490008E24AC24AC24AC24411D411D411D411D82
:1044A000411D1F246124CE0185960E949C146091B9
:1044B000380170913901CE014F960E949C14609191
:1044C0003A0170913B0169CE9093F2038093F1031E
:1044D000181619060CF4D0CEC9CE81E0809364047E
:1044E00018CF9093EC038093EB03181619060CF485
:1044F0001DCF16CF81E08093630478CF80911D0497
:1045000081111EC00E9443092091040130910501D0
:1045100082179307E9F00E94430990930501809365
:104520000401CE0101960E943C16BE016F5F7F4FD1
:1045300082E896E00E940212CE0101960E947D0F51
:104540000E94430980FD76C180EC8093520474C1BF
:1045500062E876E0CE0101960E942613E6CF8091B4
:104560001D048111E2C08091DB03811111C00E9402
:10457000B20567517C4F8F4F9F4F6093D703709365
:10458000D8038093D9039093DA0381E08093DB030F
:104590008091CF03811144C00E94290968EE73E025
:1045A0000E944E31BC01CE0101960E949C140E94D3
:1045B0003309BC01CE0149960E949C140E943B091C
:1045C000BC01CE0185960E949C14BE016B5D7F4F9D
:1045D000CE014F960E942613BE01675E7F4FCE012B
:1045E0004F960E94A512BE016F5F7F4F0E94A512D9
:1045F000BC0189EC93E00E94261381E08093CF03F5
:10460000CE014F960E947D0FCE0185960E947D0FB0
:10461000CE0149960E947D0FCE0101960E947D0F2A
:1046200000913601109137018091C103811105C0BD
:104630000093C00381E08093C1030E94B205C09043
:10464000D703D090D803E090D903F090DA036C1927
:104650007D098E099F09693E73408105910530F4FB
:104660008091C0038017110609F44EC00E94B20564
:104670006093D7037093D8038093D9039093DA03A0
:10468000012B09F054C00E94290968EE73E00E94D2
:104690004E31BC01CE0101960E949C140E94330948
:1046A000BC01CE0149960E949C140E943B09BC01AA
:1046B000CE0185960E949C14BE016B5D7F4FCE019A
:1046C0004F960E942613BE01675E7F4FCE014F9624
:1046D0000E94A512BE016F5F7F4F0E94A512BC0110
:1046E00089EC93E00E940F13CE014F960E947D0F3C
:1046F000CE0185960E947D0FCE0149960E947D0FC6
:10470000CE0101960E947D0F69EC73E0CE01019607
:104710000E942613BE016F5F7F4F82E896E00E94E1
:104720000212CE0101960E947D0F80E40ECF0E94FE
:10473000290968EE73E00E944E31BC01CE0101965A
:104740000E949C140E943B09BC01CE0149960E9424
:104750009C140E943309ABCF6091420170914301D8
:10476000CE0185960E949C14609140017091410198
:10477000CE014F960E949C1460913E0170913F01C2
:10478000CE0101960E949C14BE016F5F7F4FCE0147
:1047900049960E942613BE01615E7F4FCE01499665
:1047A0000E94A512BE016B5D7F4F0E94A512BC0145
:1047B00082E896E00E940F13CE0149960E947D0F79
:1047C000CE0101960E947D0FCE014F960E947D0F73
:1047D000CE0185960E947D0F809144019091450104
:1047E000019741F580E8B1CE609146017091470193
:1047F000CE0149960E94E31267EC72E0CE01019669
:104800000E942F13BE01675E7F4FCE0101960E946A
:10481000A51267EC72E00E948F12BC0182E896E05C
:104820000E940F13CE0101960E947D0FCE01499682
:104830000E947D0F109252040E943A0D22C980916D
:104840001D04811138C081E0209148013091490157
:10485000232B09F480E00E94690C6B017C01BC01F0
:10486000A601CE0101960E94B916BE016F5F7F4F6F
:1048700082E896E00E940212CE0101960E947D0F0E
:104880008091480190914901892B91F480E48093B3
:1048900052041091520420E030E0A901C701B60192
:1048A0000E94FB2E87FF07C0106810935204E9C8CE
:1048B00010925204EECF809152048F77809352046D
:1048C000E0C860914A0170914B01CE0101960E94AF
:1048D0009C14BE016F5F7F4FCE0149960E94261344
:1048E00065EC72E0CE0149960E948F12BC0182E80D
:1048F00096E00E940F13CE0149960E947D0FCE01D3
:1049000001960E947D0F80914A0190914B0197FD85
:1049100003C010925204B5C880E8D0CF8091360110
:1049200090913701892B69F46AEC72E082E896E095
:104930000E94D91283E0809312018CE080931301CE
:10494000A0C861ED72E082E896E00E94D9128CE086
:104950008093120183E0F2CF60913C0170913D01A0
:104960008091360190913701892BE9F5CE0185962A
:104970000E949C1460913A0170913B01CE014F96C8
:104980000E949C146091380170913901CE0101960A
:104990000E949C14BE016F5F7F4FCE0149960E941A
:1049A0002613BE01615E7F4FCE0149960E94A5127B
:1049B000BE016B5D7F4F0E94A512BC0182E896E0AC
:1049C0000E940F13CE0149960E947D0FCE010196E1
:1049D0000E947D0FCE014F960E947D0FCE018596DD
:1049E0000E947D0F4EC8CE0185960E949C14609156
:1049F000380170913901CE014F960E949C1460914C
:104A00003A0170913B01C2CF81E090E00C943A1BD7
:104A10001F920F920FB60F9211242F933F938F93F3
:104A20009F93AF93BF938091F0049091F104A09174
:104A3000F204B091F3043091EF0423E0230F2D37FB
:104A400058F50196A11DB11D2093EF048093F00449
:104A50009093F104A093F204B093F3048091F404D2
:104A60009091F504A091F604B091F7040196A11D70
:104A7000B11D8093F4049093F504A093F604B093D1
:104A8000F704BF91AF919F918F913F912F910F901C
:104A90000FBE0F901F90189526E8230F0296A11DB8
:104AA000B11DD2CF1F920F920FB60F9211242F93E8
:104AB0003F934F935F936F937F938F939F93AF93A6
:104AC000BF93EF93FF9388E795E00E943F06FF9125
:104AD000EF91BF91AF919F918F917F916F915F9176
:104AE0004F913F912F910F900FBE0F901F901895EF
:104AF0001F920F920FB60F9211242F938F939F93B3
:104B0000EF93FF93E0918805F09189058081E09112
:104B10008E05F0918F0582FD1BC0908180919105DB
:104B20008F5F8F7320919205821741F0E09191057C
:104B3000F0E0E858FA4F958F80939105FF91EF913F
:104B40009F918F912F910F900FBE0F901F901895EE
:104B50008081F4CF1F920F920FB60F9211242F93E2
:104B60003F938F939F93AF93BF93EF93FF93809166
:104B70006A0590916B05A0916C05B0916D05009749
:104B8000A105B10531F13091CA04E091CB04F09157
:104B9000CC04208123272083181619061A061B0629
:104BA0001CF40197A109B10980936A0590936B05E4
:104BB000A0936C05B0936D05FF91EF91BF91AF91FC
:104BC0009F918F913F912F910F900FBE0F901F904B
:104BD0001895209170002D7F209370002091CA04B9
:104BE000E091CB04F091CC043081209523232083E5
:104BF000DBCF1F920F920FB60F9211248F939F93CA
:104C0000AF93BF93EF93FF9380916E0590916F05E3
:104C1000A0917005B0917105892B8A2B8B2BA1F186
:104C20009091CD04E091CE04F091CF04808189274A
:104C3000808380916E0590916F05A0917005B09171
:104C40007105181619061A061B069CF480916E054C
:104C500090916F05A0917005B09171050197A10920
:104C6000B10980936E0590936F05A0937005B09382
:104C70007105FF91EF91BF91AF919F918F910F902F
:104C80000FBE0F901F90189580916F008D7F8093BD
:104C90006F008091CD04E091CE04F091CF0490811B
:104CA000809589238083E5CF1F920F920FB60F92D4
:104CB00011248F939F93AF93BF93EF93FF938091B2
:104CC000720590917305A0917405B0917505892BBB
:104CD0008A2B8B2BA1F19091D004E091D104F0911B
:104CE000D204808189278083809172059091730519
:104CF000A0917405B0917505181619061A061B06C1
:104D00009CF48091720590917305A0917405B09107
:104D100075050197A109B1098093720590937305F8
:104D2000A0937405B0937505FF91EF91BF91AF917A
:104D30009F918F910F900FBE0F901F9018958091AB
:104D40006E008D7F80936E008091D004E091D1043D
:104D5000F091D2049081809589238083E5CF1F92C2
:104D60000F920FB60F9211242F933F934F935F939F
:104D70006F937F938F939F93AF93BF93EF93FF9323
:104D80008091B900887F803609F44AC0F0F58832F6
:104D900009F4A7C018F5803109F49BC0B8F4882342
:104DA00009F4F9C0883009F494C0FF91EF91BF91E4
:104DB000AF919F918F917F916F915F914F913F91B3
:104DC0002F910F900FBE0F901F901895883109F406
:104DD00088C0803251F780933E0514C0803409F4B6
:104DE0009DC040F48033B9F38833F9F680933E05D3
:104DF00085ECB0C0803509F485C0883509F496C0CB
:104E0000883499F60E948B18D0CF883909F48CC069
:104E100038F5883729F050F4883611F0803729F6B4
:104E200083E0809340051092AC0457C0883809F4A1
:104E30007BC0803919F0803809F0B7CF8091AC047D
:104E4000803208F071C0E091AC0481E08E0F809355
:104E5000AC048091BB00F0E0E457FB4F80833DC081
:104E6000803B39F0E0F4803A09F479C0883A09F0DF
:104E70009CCF84E08093400510928B0410928A04AA
:104E8000E091C804F091C904099580918A048111C8
:104E90000FC081E080938A0410926A0409C0803CAC
:104EA00009F4A6CF883C09F4A3CF883B09F07DCF55
:104EB000E0918B0481E08E0F80938B04F0E0E65943
:104EC000FB4F80818093BB0090918B0480918A047A
:104ED00029C080911B058093BB0085EC8093BC00AA
:104EE00064CF90913D0580913C05981758F5E0916D
:104EF0003D0581E08E0F80933D05F0E0E45EFA4FC2
:104F00008081E9CFE0913D0581E08E0F80933D05E2
:104F10008091BB00F0E0E45EFA4F808390913D0504
:104F200080913C059817C8F285E8D8CFE0913D05FF
:104F300081E08E0F80933D058091BB00F0E0E45E40
:104F4000FA4F808380913F0581115CCF81E080938F
:104F50001A0584EA8093BC001092400526CF85ECA8
:104F60008093BC00109240058091AC04803230F4F4
:104F7000E091AC04F0E0E457FB4F10826091AC0488
:104F800070E0E091C604F091C7048CE894E00995C4
:104F90001092AC040ACF10923E0534CFCF93DF932A
:104FA000EC01862F6F87188A91E0998B9A8B1C8A67
:104FB0001B8A198218821A821D8A1E8A1F8A188EDD
:104FC00044E150E060E070E04B835C836D837E835E
:104FD0004AEF50E060E070E04F83588769877A8736
:104FE00048EE53E060E070E04B875C876D877E871A
:104FF00060E00E947A028889811106C061E08F8595
:10500000DF91CF910C944C02DF91CF9108951092D3
:105010007B0510927A0588EE93E0A0E0B0E08093E3
:105020007C0590937D05A0937E05B0937F0520EAD3
:1050300032E0309379052093780525EC30E0309309
:1050400085052093840524EC30E030938705209378
:10505000860520EC30E0309389052093880521EC0B
:1050600030E030938B0520938A0522EC30E03093BA
:105070008D0520938C0526EC30E030938F0520932E
:105080008E05109291051092920510929305109240
:1050900094051092180610921706809319069093A3
:1050A0001A06A0931B06B0931C0682EB92E0909325
:1050B00016068093150668ED72E086E996E00E9478
:1050C0002F1360E087E00E947A02E3E2F1E0E491CE
:1050D000E0938806EFE0F1E0E491F0E0EE0FFF1FCF
:1050E000E250FF4F8591949190938A0680938906B0
:1050F00010929306109295061092940610929206C2
:10510000109291061092900610928F0610928E06C1
:1051100010928D0610928C0610928B0663EC72E052
:1051200082E896E00E942F136EE089E696E00E94E6
:10513000CE2760E180E596E00E94CE276FE087E30E
:1051400096E00E94CE271092220610922906109215
:10515000300610923106109232061092330681E02A
:1051600080932F0680932C0610922D0692E0909348
:105170002E068093210688E190E090932606809386
:1051800025060E94B13190932B0680932A06009742
:1051900089F128E1FC0111922A95E9F788E090E075
:1051A000909324068093230686E090E0909328064F
:1051B0008093270680912206882341F061E086E0F3
:1051C0000E947A0260E086E00E944C02EEE0F1E08C
:1051D000E491F0E0EE0FFF1FEC50FF4F85919491AA
:1051E0009093350680933406E2E2F1E0E491E09397
:1051F000360608951092260610922506109224066F
:1052000010922306D1CFCF93DF93CDB7DEB7CE5424
:10521000D1090FB6F894DEBF0FBECDBF789484B528
:10522000826084BD84B5816084BD85B5826085BDA2
:1052300085B5816085BD80916E00816080936E0030
:105240001092810080918100826080938100809122
:1052500081008160809381008091800081608093D3
:1052600080008091B10084608093B1008091B00093
:1052700081608093B00080917A00846080937A008E
:1052800080917A00826080937A0080917A008160B8
:1052900080937A0080917A00806880937A001092DF
:1052A000C1001092F9041092F80410924705109270
:1052B00069050E94F1098EEB95E09093C9048093F3
:1052C000C8048FEB95E09093C7048093C604E091E7
:1052D0008805F091890582E08083E0918405F09152
:1052E00085051082E0918605F091870580E1808335
:1052F00010929005E0918C05F0918D0586E08083F9
:10530000E0918A05F0918B05808180618083E09136
:105310008A05F0918B05808188608083E0918A0501
:10532000F0918B05808180688083E0918A05F091FF
:105330008B0580818F7D808381E090E00E94C5187D
:105340008C3009F41BC188E190E090934701809371
:10535000460190E080E00E94C518882309F411C13D
:1053600081E08093230182E090E00E94C5188F3F86
:1053700009F00AC110923F0110923E0183E090E0D3
:105380000E94C5188F3F09F005C11092410110928B
:10539000400184E090E00E94C5188F3F09F000C1F1
:1053A000109243011092420186E090E00E94C518DD
:1053B0008F3F09F0FBC0109245011092440187E035
:1053C00090E00E94C5188F3F09F0F6C01092EE04DD
:1053D0008BE090E00E94C5188F3F09F0F4C0109256
:1053E0004901109248018CE090E00E94C5188F3F5F
:1053F00031F08C50990B90934B0180934A018DE0D2
:1054000090E00E94C5188F3F29F090E090933701FB
:105410008093360161E089E00E947A0261E086E0D3
:105420000E947A0261E083E00E947A028091D304B4
:10543000833008F03DC192E090937605E82FF0E0CC
:10544000E357FF4FE491E09377058F5F8093D30498
:10545000E13009F4DFC008F4BCC0E23009F401C156
:1054600080912101909122010E948F0D9093220141
:105470008093210161E08AE00E947A0262E088E084
:105480000E947A0288E00E94230221E0892B09F021
:1054900020E02093D5041FB7F8948091D4048111A3
:1054A00027C0E2E1F1E08491E6E2F1E09491E82F97
:1054B000F0E0EE0FFF1FEA52FF4FA591B491EC917F
:1054C000E92321F461E08AE00E944C0261E08AE075
:1054D0000E947A028CB580618CBD8CB580648CBDD5
:1054E00061E08DE00E947A0261E08BE00E947A0226
:1054F0008091D4048F5F8093D4041FBF8091D50422
:10550000882309F4D9C089E791E00E943501809190
:1055100027069091280697FD08C061E00E947A0254
:1055200060E0809127060E944C0281E08093220671
:1055300060912906633309F4C7C020912A0630918F
:105540002B06615009F4BAC070E08FEF92E30E941D
:105550003A31F9014091250650912606CF01821B70
:10556000930B8417950708F0ACC04081469FC0019B
:10557000479F900D112490833196ECCF8CE090E002
:10558000E4CE10922301EFCE90E090933F01809300
:105590003E01F4CE90E09093410180934001F9CE1A
:1055A00090E09093430180934201FECE90E090936F
:1055B00045018093440103CF91E0811101C090E047
:1055C0009093EE0405CF90E09093490180934801B9
:1055D0000ACF14BC15BC84B5826084BD85B58160DA
:1055E00085BD8091760590E0FC01E85FFE4FE49177
:1055F000F0E0EE0FFF1FEC50FF4F259134913093F8
:10560000D2042093D104FC01E45EFE4FE491E093C8
:10561000D00426CF109280001092810080918100EA
:1056200088608093810080918100816080938100F7
:105630008091760590E0FC01E85FFE4FE491F0E098
:10564000EE0FFF1FEC50FF4F259134913093CF04A4
:105650002093CE04FC01E45EFE4FE491E093CD0480
:10566000FFCE1092B0001092B1008091B000826025
:105670008093B0008091B10081608093B1008091EF
:10568000760590E0FC01E85FFE4FE491F0E0EE0F5C
:10569000FF1FEC50FF4F259134913093CC042093A1
:1056A000CB04FC01E45EFE4FE491E093CA04D8CE43
:1056B0008FEF80937705D4CE89E526CF70E060E048
:1056C00048CF83E38093290662E08EE00E947A024D
:1056D00062E080E10E947A0262E08FE00E947A023A
:1056E00061E082E00E947A0204E110E020E030E014
:1056F00000936C0610936D0620936E0630936F0630
:105700004EE150E060E070E0409370065093710607
:10571000609372067093730680ED97E0A0E0B0E0AE
:105720008093740690937506A0937606B0937706DF
:105730000093530610935406209355063093560653
:1057400040935706509358066093590670935A0633
:1057500080935B0690935C06A0935D06B0935E0613
:1057600000933A0610933B0620933C0630933D0687
:1057700040933E0650933F06609340067093410667
:105780008093420690934306A0934406B093450647
:1057900083EC90E00E94AE0625E030E042E050E06D
:1057A00066E976E0CE0101967C010E94401322E07A
:1057B00030E041E050E066E976E0CE01875B9F4F44
:1057C0000E944013BE01675B7F4FCE018D5B9F4FF0
:1057D0000E9426136FED72E0CE018D5B9F4F0E94F9
:1057E0008F12B7010E94A512FC014481558160818E
:1057F000718188E795E00E94C1050E94D30FCE0118
:105800008D5B9F4F0E947D0FCE01875B9F4F0E9453
:105810007D0FC7010E947D0F0CE910E037E2D32E07
:10582000DA94DD2049F0F801649188E795E00E9460
:1058300061060F5F1F4FF4CF0E94D30F80912101AB
:10584000909122019093E0048093DF040E948F0DD9
:1058500010E000E040E050E06FEF70E0C8010E940F
:10586000C4000F5F1F4F08301105A1F70E94A1046B
:1058700068EE73E080E090E00E94800510E000E0B8
:1058800040E05FEF60E070E0C8010E94C4000F5F7D
:105890001F4F08301105A1F70E94A10468EE73E0C4
:1058A00080E090E00E94800510E000E04FEF50E0C3
:1058B00060E070E0C8010E94C4000F5F1F4F083015
:1058C0001105A1F70E94A10468EE73E080E090E06A
:1058D0000E9480050E94A50B63EC72E0C7010E9444
:1058E0002F1361EE72E0CE0107960E942F1368EE2F
:1058F00072E0CE010D960E942F136FEE72E0CE0182
:1059000043960E942F1366EF72E0CE0149960E94E3
:105910002F136DEF72E0CE014F960E942F1364E0BB
:1059200073E0CE0185960E942F136BE073E0CE01E9
:105930008B960E942F1362E173E0CE01C1960E9404
:105940002F1369E173E0CE01C7960E942F1362EC1A
:1059500072E0CE01CD960E942F1366E976E0CE016B
:10596000CD960E940F130E94B2054B015C01F8EE28
:105970008F0EF3E09F1EA11CB11C712C1FEF94EF42
:10598000C92EDD24D39426E0622E8FE00E942302EC
:10599000892B11F47724739480E10E942302892BD0
:1059A00009F4712C0E94B205681979098A099B09CA
:1059B00096010D2C000C440B550B01E02617370700
:1059C00048075907B0F40E94B2054B015C01711001
:1059D00001C01F5F1A3009F4CCC008F0CFC001E04D
:1059E000B701169D600D711D112482E896E00E949A
:1059F0000F130E94F70F0111C8CFC0909506C11078
:105A000004C00E94B7018111BCC01092930610928D
:105A100095061092940610912001812F0E94F001AA
:105A200081E190E00E949D0B0E94300A62E070E0EC
:105A3000812F90E00E94180E85E196E00E94270BCE
:105A4000855000E0883320F082E58093200101E05A
:105A500010912001812F0E94F00188E290E00E94C5
:105A60009D0B0E94300A61E070E0812F90E00E945F
:105A7000180E85E196E00E94270B181619060CF403
:105A8000E3C0013009F0E0C080E990E00E94AE067A
:105A90000E94D30F05E010E048EE53E060E070E0B4
:105AA00088EE93E00E94B60260ED77E080E090E03F
:105AB0000E9480050150110979F78E010D5B1F4F7F
:105AC00006501109C8010E947D0FE016F106C1F7CA
:105AD0008091EE0481110E94C7180E94F10E00917E
