:100000000C9467020C9498020C9498020C94980239
:100010000C9498020C9498020C9498020C949802F8
:100020000C9498020C9498020C9498020C949802E8
:100030000C9498020C947D390C9498020C949802BC
:100040000C9498020C94D0390C9498020C94980259
:100050000C9498020C942F3A0C9498020C94B33799
:100060000C9498020C9487380C945D380C94980288
:100070000C9498020C9498020C9498020C94980298
:100080000C9498020C9498020C9498020C94980288
:100090000C9427380C94FD370C9498020C948E3AEB
:1000A0000C9498020C9498020C94B23B0C94980215
:1000B0000C9498020C9498020C9498020C94BD38FD
:1000C0000C9498020C9498020C9498020C94980248
:1000D0000C9498020C9498020C9498020C94980238
:1000E0000C9498020C9415300C9428340C94700ED7
:1000F0000C94730F0C94CC450C94FE3D0C9446303C
:100100000C94C5290C94850F0C94F8030C94DA0810
:100110000C9422370C94FC030C94850D0C9433043E
:100120000C94CB290C9470350C9400350C94090474
:100130000C94F5350C94CC350C94C1290C94030423
:100140000C94F4030C94D0070C94C3290C94D2079C
:100150000C94980D0C94770F0C9417040C94750D57
:100160000C94C7290C940D040C9430080C94C929E4
:100170000C942E040C9429040C94AA0F0C94760D64
:100180000C94AC0F0C941B040C940E080C94670F89
:100190000C94EE030C9425040C94BD290C949F0D33
:1001A0000C94A3290C9400040C94BD0F0C94FF072D
:1001B0000C94CF070C942F040C9413040C942C353E
:1001C0000C94CC0D0C9422080C9472080C9421040D
:1001D0005570646174696E672074696D652066721C
:1001E0006F6D204750532E2E2E00496E636F727232
:1001F00065637420536F6E6720466F726D61742162
:10020000005247423D6F6666005247423D6F6E00A6
:100210004D6F6E74683A004461793A00446F776EAE
:10022000206C6F6E672E2E2E2E00446F776E20731B
:10023000686F7274005570206C6F6E672E2E2E2EB4
:100240000055702073686F7274004D6F6465206C88
:100250006F6E672E2E2E2E004D6F64652073686FB3
:10026000727400416C6C20617474656D70747320DD
:100270007765726520756E737563636573736675F4
:100280006C2E00417474656D707420746F207379E6
:100290006E632077697468204750532E0057616B56
:1002A000652075702C204E656F21004461746520B7
:1002B0006F722054696D65206E6F7420696E2072B4
:1002C000616E676500426C75653D00475245454E5D
:1002D0003D005245443D005265616465642066728C
:1002E0006F6D20454550524F4D000201004661752B
:1002F0006C747920525443210053746F70205465FC
:1003000073740054656D702E2073656E736F722068
:100310006E6F7420666F756E642E00475053204ECA
:100320004F542064657465637465642100475053BD
:10033000206465746563746564005374617274202D
:1003400054657374004E43533331382F353638209B
:10035000666F7220485720312E782048563531324A
:1003600032206F7220485635323232204C6F77205F
:100370006E6F697365206D6F64004669726D776199
:1003800072652076657273696F6E3A2000576172EC
:100390006E696E67212052544320444F4E275420EB
:1003A000524553504F4E44210000002100240027A5
:1003B000002A002D00300033000101000004010775
:1003C000010A0100000A0B02090C0D0E08070304C4
:1003D000010000000000000000000000000000001C
:1003E00000000000000000000000000000000012FB
:1003F00011100000000000000000000000000000DC
:10040000000000000000000000000022002500287D
:10041000002B002E0031003400020100000501080D
:10042000010B01000020002300260029002C002FD2
:100430000032000001000003010601090105050565
:1004400005070508080808020202020A0A0808044B
:100450000404040101010101010101030303030379
:10046000030303040707070C0C0C0C0C0C0C0C0208
:1004700002020206060606060606060B0B0B0B0B0F
:100480000B0B0B0102102020080810204010204008
:100490008002010201080402010102040810204048
:1004A0008080402010080402018004020180402066
:1004B000100804020108040201010204081020408F
:1004C00080010204081020408000FE3DCC4511242C
:1004D0001FBECFEFD1E2DEBFCDBF00E00CBF2AE0F0
:1004E000A8E1B5E001C01D92A633B207E1F715E01F
:1004F000A0E0B2E0E8E2F6E900E00BBF02C007903E
:100500000D92A831B107D9F712E0C6E6D2E000E0BB
:1005100006C021970109802FFE010E94D548C536EB
:10052000D10780E00807A9F70E94953F0C94024B81
:100530000C9400008F929F92AF92BF92CF92DF9265
:10054000EF92FF92CF93209186093091870982170D
:100550009307E8F54B01AA24BB24C82DC52ED62E3F
:10056000E72EFF24BC2DA42F20918C09222361F0BB
:10057000829E40011124C92D2C9D60011124BD2DA6
:10058000249FF0011124AF2FE0919209E0908D0992
:10059000F0908E0930918F09E31323C09C01220F44
:1005A000331F820F931F8E0D9F1DE0918F09E80F5F
:1005B000F92FF11DC083E0919009E80FF92FF11D8B
:1005C000B08320919109820F911DFC01A083CF91EE
:1005D000FF90EF90DF90CF90BF90AF909F908F9063
:1005E0000895880F991F880F991F8E0D9F1D472F03
:1005F000552766277727222349F030E0249F700192
:10060000259FF00C349FF00C11244F2DE80FF92F8B
:10061000F11D4083CACF8CBD9DBD08958091EB092B
:10062000E091EC09F091ED09F8949181982B918378
:100630002281382F309523232283A7E0B0E0119741
:10064000F1F7918193239183A3E2B0E01197F1F741
:1006500090817894EFECF0E03197F1F7982381E006
:1006600009F480E008959091EB09E091EC09F09194
:10067000ED09292F209580FF14C0F89482818223F0
:1006800082838181892B8183A3E2B0E01197F1F706
:100690008281982B9283789487ED90E00197F1F70F
:1006A0000895F8948281822382838181892B8183BA
:1006B000AFEFB0E01197F1F78281982B9283789495
:1006C0008FE090E0EBCF0F931F93CF93DF93082F32
:1006D000C8E0D0E011E081E0902F912309F480E0A0
:1006E0000E943303110F2197B1F7F894E091EC09C0
:1006F000F091ED0991818091EB0980959823918388
:10070000E091EC09F091ED0992818923828378943C
:10071000DF91CF911F910F9108958091EB09E091A6
:10072000EC09F091ED09F8949181282F20959223FE
:10073000918378943DE743E050E0315029F1DA01AC
:100740001197F1F790819823C1F3F8949281922345
:1007500092839181982B91837894ABE7B7E01197BE
:10076000F1F7F894918192239183A3E1B1E011977D
:10077000F1F79081982381E009F080E07894E3E636
:10078000F6E03197F1F7089580E0089591E09093B5
:100790003A0780935C0710923B0710925D0708951B
:1007A0008150823108F05AC0E82FF0E08827E452E7
:1007B000FC4F8F4F0C94D548FC030004EE03F40368
:1007C000F8032E04030409040D04130417041B0486
:1007D000210425042E0429042F0433048091800071
:1007E0008F77809380000895809180008F7DF9CF6E
:1007F00080918000877FF5CF84B58F7784BD089581
:1008000084B58F7DFBCF8091B0008F778093B0004F
:1008100008958091B0008F7DF9CF809190008F77FF
:10082000809390000895809190008F7DF9CF809102
:100830009000877FF5CF8091A0008F778093A000F4
:1008400008958091A0008F7DF9CF8091A000877FCF
:10085000F5CF809120018F778093200108958091BA
:1008600020018F7DF9CF80912001877FF5CFCF9335
:10087000DF93282F30E0F901ED53FC4F8491F9010B
:10088000ED57FB4FD491F901E35CFB4FC491CC23AE
:10089000A1F081110E94D003EC2FF0E0EE0FFF1FBA
:1008A000ED5DFB4FA591B491EC91ED2381E090E0DB
:1008B00009F480E0DF91CF91089580E090E0FACFD5
:1008C0001F93CF93DF93282F30E0F901ED53FC4FB6
:1008D0008491F901ED57FB4FD491F901E35CFB4F93
:1008E000C491CC23A9F0162F81110E94D003EC2FC4
:1008F000F0E0EE0FFF1FE75FFB4FA591B4918FB7BC
:10090000F894EC91111108C0D095DE23DC938FBFD1
:10091000DF91CF911F910895DE2BF8CFCF93DF9316
:1009200090E0FC01ED57FB4F2491835C9B4FFC0151
:1009300084918823C9F090E0880F991FFC01E75546
:10094000FC4FA591B491FC01E75FFB4FC591D49199
:1009500061110DC09FB7F8948C91209582238C93E0
:100960008881282328839FBFDF91CF91089562302B
:1009700051F49FB7F8943C91822F809583238C93F8
:10098000E8812E2BEFCF8FB7F894EC912E2B2C9380
:100990008FBFEACF4F925F926F927F928F929F921A
:1009A000AF92BF92CF92DF92EF92FF920F931F937D
:1009B000CF93DF9300D01F921F92CDB7DEB7209167
:1009C0006B0727FD2CC149835A836B837C838C0181
:1009D00061E080916A070E948E0480916B078D838D
:1009E0004801B12CA12C8D7F09F031C160E072E18A
:1009F0008AE790E0A50198010E94B64829013A01D2
:100A00007A01690191E0C91AD108E108F108AFEF54
:100A1000CA16D104E104F10409F00CF4C7C060E483
:100A200072E48FE090E0A50198010E94B648690148
:100A30007A01B1E0CB1AD108E108F1088D8182304A
:100A400009F06AC082E09FEFC916D104E104F10405
:100A500009F00CF45EC160E970ED83E090E0A5015F
:100A600098010E94B64869017A01A1E0CA1AD1082A
:100A7000E108F10883E0BFEFCB16D104E104F104F3
:100A800009F00CF446C168E478EE81E090E0A5013D
:100A900098010E94B64869017A0181E0C81AD1081C
:100AA000E108F10884E09FEFC916D104E104F104E4
:100AB00009F00CF42EC164E274EF80E090E0A5012F
:100AC00094010E94B64869017A01B1E0CB1AD108BD
:100AD000E108F10885E09FEFC916D104E104F104B3
:100AE00009F008F416C162E17AE780E090E0A50120
:100AF00094010E94B64869017A01B1E0CB1AD1088D
:100B0000E108F1088FEFC816D104E104F10411F0F7
:100B100008F0F0C086E0FDC08FEFC816D104E104F4
:100B2000F10409F00CF491C068E478EE81E090E003
:100B3000A50198010E94B64869017A0191E0C91A9D
:100B4000D108E108F108AD8184E0A111C4CF83E0B0
:100B5000AFEFCA16D104E104F10461F15CF162E186
:100B60007AE780E090E0A50194010E94B64869010F
:100B70007A0181E0C81AD108E108F10884E09FEF0A
:100B8000C916D104E104F104A9F0A0F073016201D7
:100B90009AE0F594E794D794C7949A95D1F7A1E099
:100BA000CA1AD108E108F10885E004C081E0AD81EE
:100BB000A111AFC095B5987F892B85BD89819A8198
:100BC000AB81BC812FEF3FEFA901892B8A2B8B2BA7
:100BD00079F0D801AA0FBB1F29813A814B815C8132
:100BE0000E948E4728EE33E040E050E00E94944897
:100BF0009D81913009F45CC0923009F46BC0911171
:100C00000EC0C7BC20936607309367074093680700
:100C10005093690780916E00826080936E000F9000
:100C20000F900F900F900F90DF91CF911F910F9128
:100C3000FF90EF90DF90CF90BF90AF909F908F90FC
:100C40007F906F905F904F90089582E0B0CF60E00A
:100C500072E18AE790E0A50198010E94B648690117
:100C60007A01B1E0CB1AD108E108F10891E0C11492
:100C7000D10481E0E806F10484F068E478EE81E0D4
:100C800090E0A50198010E94B64869017A0191E0BF
:100C9000C91AD108E108F10893E0AD81A13009F04B
:100CA0008DCF80918100887F892B8093810086CFB2
:100CB000D0928900C0928800209362073093630726
:100CC000409364075093650780916F008260809322
:100CD0006F00A5CFC092B30020935E0730935F07EB
:100CE0004093600750936107809170008260809309
:100CF000700095CF730162018AE0F594E794D79470
:100D0000C7948A95D1F7B1E0CB1AD108E108F10870
:100D100087E09091B100987F892B8093B1004ECFEE
:100D20003FB7F8948091E8069091E906A091EA0611
:100D3000B091EB0626B5A89B05C02F3F19F0019690
:100D4000A11DB11D3FBFBA2FA92F982F8827BC0125
:100D5000CD01620F711D811D911D42E0660F771F4D
:100D6000881F991F4A95D1F70895CF92DF92EF928D
:100D7000FF920F931F93CF93DF9300D000D000D04A
:100D8000CDB7DEB780918D0990918E09892B09F43A
:100D900080C0C0909309D0909409E0909509F0909C
:100DA00096090E9490066C157D058E059F0550F4EE
:100DB0000E9490066093930970939409809395091B
:100DC000909396090E9490060091930910919409BE
:100DD0002091950930919609601B710B820B930B42
:100DE0006C32714081059105A0F2F89480918809D8
:100DF000909189099A838983E0918D09F0918E09F8
:100E0000DF0111968081898790918409E09197098B
:100E1000F091980980919909992309F449C090812A
:100E2000982B98879081809589238F838F818C83DD
:100E300088E08B8358856F8149853B812C8189812E
:100E40009A81508347FD252F3A952083262F39F02C
:100E5000441F00C000006083000000C0F2CF38E0F3
:100E60004D9160830000019761F7F0939809E0933A
:100E7000970949873B832C839A83898378940E94BE
:100E800090066093930970939409809395099093C9
:100E9000960929960FB6F894DEBF0FBECDBFDF913D
:100EA000CF911F910F91FF90EF90DF90CF90089519
:100EB0009081982B98879081809589238F838F814B
:100EC0008E8388E08D8358856F8149853D812E8191
:100ED00089819A81508347FD252F00C000C020835F
:100EE00000C000C000C000C000C060830000262F0A
:100EF0003A9541F0441F000000C000C000C000C08F
:100F000000C0E8CF38E04D9100C0608300C0019779
:100F100009F7F0939809E093970949873D832E8359
:100F2000ABCF8F929F92AF92BF92CF92DF92EF9210
:100F3000FF924B015C010E9490066B017C010E94B4
:100F400090066C197D098E099F09683E73408105E2
:100F50009105A8F321E0821A9108A108B10888EE52
:100F6000C80E83E0D81EE11CF11C81149104A10479
:100F7000B10429F7FF90EF90DF90CF90BF90AF9032
:100F80009F908F9008952FB7F8946091E406709128
:100F9000E5068091E6069091E7062FBF0895089533
:100FA00008950895AF92BF92CF92DF92EF92FF9291
:100FB0000F931F93CF93DF936C017B018B01040F81
:100FC000151FEB015E01AE18BF08C017D10759F01D
:100FD0006991D601ED91FC910190F081E02DC6015F
:100FE0001995892B79F7C501DF91CF911F910F9149
:100FF000FF90EF90DF90CF90BF90AF900895FC01ED
:10100000538D448D252F30E0842F90E0821B930B6D
:10101000541710F0CF96089501970895FC01918D13
:10102000828D981761F0A28DAE0FBF2FB11D5D9616
:101030008C91928D9F5F9F73928F90E008958FEFB8
:101040009FEF0895FC01918D828D981731F0828D6C
:10105000E80FF11D858D90E008958FEF9FEF0895C3
:10106000FC01918D228D892F90E0805C9F4F821B27
:1010700091098F73992708958CE697E00E943008B4
:1010800021E0892B09F420E0822F089589E098E07F
:101090000E94300821E0892B09F420E0822F089576
:1010A000FC01A48DA80FB92FB11DA35ABF4F2C91DD
:1010B000848D90E001968F739927848FA689B789D4
:1010C0002C93A089B1898C91837080648C93938DCB
:1010D000848D981306C00288F389E02D80818F7D6E
:1010E00080830895EF92FF920F931F93CF93DF9326
:1010F000EC0181E0888F9B8D8C8D98131AC0E88954
:10110000F989808185FF15C09FB7F894EE89FF8922
:101110006083E889F98980818370806480839FBFC0
:1011200081E090E0DF91CF911F910F91FF90EF90C0
:101130000895F62E0B8D10E00F5F1F4F0F731127D0
:10114000E02E8C8D8E110CC00FB607FCFACFE8890B
:10115000F989808185FFF5CFCE010E945008F1CF3B
:10116000EB8DEC0FFD2FF11DE35AFF4FF0829FB77F
:10117000F8940B8FEA89FB8980818062CFCF0F932F
:101180001F93CF93DF938C01D0E0C0E0F801EC0F08
:10119000FD1F6491662341F089E098E00E94720887
:1011A000892B11F02196F2CFCE01DF91CF911F91C3
:1011B0000F910895CF93DF93EC01888D8823B9F0C8
:1011C000AA89BB89E889F9898C9185FD03C0808152
:1011D00086FD0DC00FB607FCF7CF8C9185FFF2CFCF
:1011E000808185FFEDCFCE010E945008E9CFDF91CD
:1011F000CF91089580E090E0892B29F00E94460865
:1012000081110E94000080E090E0892B29F00E946B
:101210003C0881110E94000080E090E0892B49F099
:1012200080E090E0892B29F00E94000081110E944B
:10123000000080E090E0892B49F080E090E0892B6D
:1012400029F00E94000081110C9400000895609321
:10125000AF067093B0068093B1069093B206645DBA
:101260007E4F8F4F9F4F6093AB067093AC06809379
:10127000AD069093AE0682E090E09093AA0680932C
:10128000A9060E94C3076093A5067093A6068093E3
:10129000A7069093A8060895CF92DF92EF92FF924F
:1012A0000F931F930E94C3078B019C01C090A5065A
:1012B000D090A606E090A706F090A8066091AF0631
:1012C0007091B0068091B1069091B2060C191D097B
:1012D0002E093F09083E134021053105E0F0DC01ED
:1012E000CB010196A11DB11D8093AF069093B0066E
:1012F000A093B106B093B206B701A60148515C4F66
:101300006F4F7F4F4093A5065093A6066093A706A4
:101310007093A806C7CF1F910F91FF90EF90DF90B9
:10132000CF9008954F925F926F927F928F929F928B
:10133000AF92BF92CF92DF92EF92FF920F931F93E3
:10134000CF93DF93FC011681A12FB0E020E833E3B7
:1013500041EE51E00E948E474B015C01C2EBD7E0A9
:101360009D0104E610E080E9E82EFF24F394CE010D
:10137000825B9740821793079CF14580512C2E5435
:10138000384FC90164E670E00E9480487C01C901C1
:1013900060E971E00E9480486C0100EE13E0C1E05A
:1013A000D0E0390183E068227724C415D5050CF01C
:1013B00040C0C230D10571F56114710459F5E114D2
:1013C000F10419F4C114D10429F5B0E88B0EBBE384
:1013D0009B1EB6E2AB1EB11C21960F5F1F4FE5CFDF
:1013E000CE0183709927892B99F4CE01B8010E9410
:1013F0008048892B31F4CE01B7010E948048892BA7
:1014000039F4A0E88A0EA1E59A1EA1E0AA1EB11C3B
:101410002196ADCFD8018C91A82FB0E020E831E51E
:1014200041E050E00E948E47860E971EA81EB91E0E
:10143000D3CF228130E0A0E1BEE00E9499476B014A
:101440007C01218130E0ACE3B0E00E949947C60EF8
:10145000D71EE81EF91E8081C80ED11CE11CF11CAC
:10146000A481A150BB0B20E831E541E050E00E948F
:10147000E4486C0D7D1D8E1D9F1D680D791D8A1D14
:101480009B1DDF91CF911F910F91FF90EF90DF9007
:10149000CF90BF90AF909F908F907F906F905F9014
:1014A0004F900895EF92FF920F9394E6E916F1049E
:1014B000CCF092EBE91A97E0F90AE092B9060093B2
:1014C000B8062093B7068093B5066093B4064093A0
:1014D000B30683EB96E00E9492090F91FF90EF9084
:1014E0000C9427099EE1E90EF11CE7CF6F927F92E1
:1014F0008F929F92AF92BF92CF92DF92EF92FF9224
:101500000F931F93CF93DF936B017C01EA018CE370
:10151000882E912CA12CB12CC701A50194010E9409
:1015200094486883CA01B901A50194010E949448B6
:101530006983C701B60120E13EE040E050E00E942F
:101540009448CA01B90128E130E040E050E00E942F
:1015500094486A83C701B60120E831E541E050E0D4
:101560000E94944869017A01CA01B9016C5F7F4FFA
:101570008F4F9F4F27E030E040E050E00E949448BA
:101580006F5F6B83812C912C540140E094E6692EAF
:10159000712C00E911E0242F30E02E54384FF9016E
:1015A000E370FF273097F9F4C901B3010E94804826
:1015B000892B31F4C901B8010E948048892B99F424
:1015C0008EE691E0A0E0B0E0880E991EAA1EBB1E38
:1015D000D501C401AA27BB27C816D906EA06FB060F
:1015E00038F04F5FD8CF8DE691E0A0E0B0E0ECCFCF
:1015F0004E83C90164E670E00E9480488C01C901F5
:1016000060E971E00E948048309729F401151105C6
:10161000E1F40097D1F04DE651E060E070E0841A0B
:10162000950AA60AB70AC818D908EA08FB08A0EE66
:10163000B3E020E0213071F4309791F501151105E8
:1016400011F4009769F54DE106C04EE651E060E007
:1016500070E0E5CF4C9150E070E060E031E0320F97
:10166000C416D506E606F70640F0C41AD50AE60AFF
:10167000F70A1196232F3C30E9F62F5F2D83C39490
:10168000CC82DF91CF911F910F91FF90EF90DF906F
:10169000CF90BF90AF909F908F907F906F90089564
:1016A0004CE1D9CFCF92DF92EF92FF92C090A1068A
:1016B000D090A206E090A306F090A406C616D70626
:1016C000E806F90671F06B017C0143EB56E00E94DD
:1016D000760AC092A106D092A206E092A306F092EA
:1016E000A406FF90EF90DF90CF9008950E944C09E0
:1016F0000E94520B8091B90690E08E54984F089545
:101700000E944C090E94520B8091B80690E0089507
:101710000E944C090E94520B8091B70690E00895F8
:101720000E944C090E94520B8091B30690E00895EC
:101730000E944C090E94520B8091B40690E00895DB
:101740000E944C090E94520B2091B506222331F0D1
:10175000822F90E02D3020F00C9708958CE090E0DF
:1017600008950E944C090E94520B8091B50690E0AA
:101770000895CF92DF92EF92FF92CF93DF93EC0127
:101780000E94C3076B017C018F850E9437049C0176
:1017900081E02115310509F480E0898B8889811168
:1017A00005C091E0232B09F090E0998B29898A8963
:1017B000281721F0CD8ADE8AEF8AF88E8D899E89DE
:1017C000AF89B88DB701A601481B590B6A0B7B0B7B
:1017D000DB01CA01CB80DC80ED80FE80C816D90613
:1017E000EA06FB0664F43A81231749F02A83222390
:1017F00049F04B895C894F5F5F4F5C8B4B8B3A8123
:10180000311117C0CF80D884E984FA84C816D9066C
:10181000EA06FB0634F48B899C89998388831C8AA9
:101820001B8A2A8BDF91CF91FF90EF90DF90CF90B2
:101830000895CB84DC84ED84FE84C816D906EA06BC
:10184000FB067CF78B899C89919581959109E5CF61
:1018500020917E06260F3327331F21323105ECF409
:1018600020913407FC0190E080E0243069F082E0B0
:101870000895A0917E062191AC01425A594FA40FC0
:10188000B52FB11D2C930196861798F380917E0693
:10189000680F60937E0680E0089581E008951092BD
:1018A000340781E08093330710920E0761E084E1F2
:1018B0000E94600461E085E10E946004E9EBF0E0D1
:1018C00080818E7F808380818D7F808388E4809378
:1018D000B80085E48093BC000895CF93DF9391E036
:1018E00090935D068823B9F0C091B800D091BA00FA
:1018F0008091BC008A7B8093BC0060E084E10E9400
:10190000600460E085E10E9460040E944F0CD09367
:10191000BA00C093B800DF91CF910895CF92DF92C3
:10192000EF92FF920F931F93CF93DF93D0915D07B8
:1019300081E0D13208F09CC0C0915C070E94900603
:101940006B017C018091340781116CC082E080932F
:10195000340781E0809333078FEF80933207109232
:101960003107D0933007ACE3B7E0E0E1F7E080E087
:10197000D8138DC010920F0780910F07CC0FC82B82
:10198000C0930F0780910E07813009F084C0109238
:101990000E070E9490066B017C0180910F078093D7
:1019A000BB008091360790913707A0913807B0911E
:1019B0003907892B8A2B8B2BA1F00E94900600916E
:1019C00036071091370720913807309139076C1985
:1019D0007D098E099F09061717072807390708F49C
:1019E00042C08091BC0083FDD8CF85EC8093BC00C1
:1019F0000E9490066B017C0180913407823009F4CB
:101A00004CC0809132078F3F09F469C08091320742
:101A1000803209F466C080913207803309F463C0D4
:101A200084E026C08091360790913707A09138074F
:101A3000B0913907892B8A2B8B2B09F483CF0E9415
:101A400090060091360710913707209138073091A2
:101A500039076C197D098E099F0906171707280792
:101A6000390708F06FCF809135070E946D0C85E033
:101A700010923B0710925D0710923A07DF91CF91C9
:101A80001F910F91FF90EF90DF90CF9008959D915F
:101A900091938F5F6DCF85EEA9CF8091360790919E
:101AA0003707A0913807B0913907892B8A2B8B2BE8
:101AB00009F4A2CF0E9490060091360710913707D3
:101AC00020913807309139076C197D098E099F09DB
:101AD000061717072807390708F08ECFC4CF80E014
:101AE000C7CF82E0C5CF83E0C3CF0895E091ED0674
:101AF0008091EC06E81730F4F0E0E251F94F808174
:101B000090E008958FEF9FEF08959091ED068091FA
:101B1000EC062FEF3FEF981748F4E92FF0E0E25181
:101B2000F94F208130E09F5F9093ED06C901089541
:101B30008091EC069091ED06891B990B0895CF9248
:101B4000DF92EF92FF920F931F93CF93DF937C016D
:101B5000CB018A0120913A07222389F0EB016B0126
:101B6000C40ED51ECC15DD0569F06991D701ED9144
:101B7000FC910190F081E02DC7011995F3CF642FFE
:101B80000E94280CC801DF91CF911F910F91FF9007
:101B9000EF90DF90CF900895CF93DF931F92CDB752
:101BA000DEB7698320913A072223F9F020915D077F
:101BB000203258F021E030E0FC013383228390E0B2
:101BC00080E00F90DF91CF91089580913B07E82F3F
:101BD000F0E0E45CF84F998190838F5F80933B073E
:101BE00080935D0781E090E0ECCF61E0CE0101964B
:101BF0000E94280CF7CF682F86EA98E00C94CC0D51
:101C0000DF92EF92FF920F931F93CF93DF93182FE2
:101C1000F62ED42ED22F80916F020E94C60360E070
:101C200086EA98E00E94CC0DCAE08D2D6C2F0E94B0
:101C300060488295807F682F690F86EA98E00E944D
:101C4000CC0D8F2D6C2F0E9460488295807F682F6D
:101C5000690F86EA98E00E94CC0D812F6C2F0E94BC
:101C600060488295807F682F690F86EA98E00E941D
:101C7000CC0D61E086EA98E00E94CC0D8D2F6C2F90
:101C80000E9460488295807F682F690F86EA98E0FD
:101C90000E94CC0D802F6C2F0E9460488295807F1F
:101CA000682F690F86EA98E00E94CC0D8E2D6C2F6C
:101CB0000E9460488295807F682F690F86EA98E0CD
:101CC0000E94CC0D60E086EA98E00E94CC0DDF9186
:101CD000CF911F910F91FF90EF90DF900C948E0C9D
:101CE00090E080E00895CF93DF93D0E0C0E040E043
:101CF00050E0BA01CE010E949A022196C830D10567
:101D0000B1F7DF91CF910C94B50640913D0650910B
:101D10003E0620913B0630913C0680E09CE3421752
:101D2000530711F48FEF9FEF4F5F5F4F4330510523
:101D300029F050933E0640933D06089510923E06CA
:101D400010923D062F5F3F4F2330310529F030932D
:101D50003C0620933B06089510923C0610923B06E9
:101D60000895CF92DF92EF92FF920F931F93CF933C
:101D7000DF9390913A0691110BC08FEF9FEFDF91A7
:101D8000CF911F910F91FF90EF90DF90CF9008952A
:101D900090913906992389F3082FC0913806D0E035
:101DA0008091300681110DC00E94C30760932C06FC
:101DB00070932D0680932E0690932F0681E08093DA
:101DC00030060E94C307C0902C06D0902D06E090EC
:101DD0002E06F0902F066C197D098E099F096D3231
:101DE000714081059105B0F010912B060E94C30748
:101DF00060932C0670932D0680932E0690932F06E9
:101E000091E0912790932B06992331F110922A06A5
:101E1000109229062091290630912A0620953095A6
:101E200080912806282326FF1CC081E08093270686
:101E300027FF1AC081E08093260680912B06882315
:101E400009F49BCF02C0D595C7950A95E2F7C0FF6C
:101E500094CF80E09CE393CFD0932A06C0932906C9
:101E6000D9CF10922706E4CF10922606E6CFEF9244
:101E7000FF920F931F93CF93DF93182F80911C062F
:101E800081110DC00E94C307609318067093190654
:101E900080931A0690931B0681E080931C06C091E4
:101EA0001606D0911706C930D10508F077C0FE019B
:101EB0008827E25AF04F8F4F0C94D548670F730F65
:101EC000770F850F670F730FAA0FAC0FBD0F0E941E
:101ED0008D032196CA30D10509F097C010921706DC
:101EE0001092160628C08CEC0E946303F2CF84E4A3
:101EF0000E9463030E94C30760931806709319063B
:101F000080931A0690931B06E4CF0E94C3070091AA
:101F100018061091190620911A0630911B06601BB5
:101F2000710B820B930BC4E0D0E06E3E72408105D2
:101F3000910508F06AC060911206709113068091B5
:101F4000140690911506DF91CF911F910F91FF908C
:101F5000EF9008958EEBC8CF98E0E92EF12C10E0B9
:101F600001E00E940E038111102B000F81E0E81A9E
:101F7000F108B9F710931006ACCF88E0E82EF12CE9
:101F800010E001E00E940E038111102B000F21E0F0
:101F9000E21AF108B9F7109311069BCFC930D105A9
:101FA00009F097CF60911006709111066F3F760788
:101FB00011F470E060E0072E000C880B990B0E9472
:101FC0005B4620E030E040E85DE30E94BA46111134
:101FD0000FC020E030E040E251E40E94BA46609336
:101FE000120670931306809314069093150671CF12
:101FF00026E636E646EE5FE30E94BA4620E030E091
:1020000040E052E40E94A947E4CFD0931706C09362
:10201000160691CFCF93DF93EC012196FC0120812E
:102020002A33C9F42181243609F5229630E020E0D4
:102030006AE0899190ED980F9A3078F4629FA00140
:10204000639F500D1124082E000C990BC0979A0124
:10205000280F391FEECFCE01DFCF3093DE0520935E
:10206000DD052115310511F02093390288818F3665
:1020700089F48A81082E000C990B9C0120533109A8
:102080003093DE052093DD05C397059710F4209368
:102090003802249688818236F1F4229630E020E0DE
:1020A0006AE0899190ED980F9A3068F4629FA001E0
:1020B000639F500D1124082E000C990BC0979A01B4
:1020C000280F391FEECF3093DE052093DD053093C6
:1020D0003702209336022091360230913702032EC8
:1020E000000C440B550B60E67AEE80E090E00E9415
:1020F000B64882E0220F331F441F551F8A95D1F73F
:102100002093D9053093DA054093DB055093DC0525
:10211000CE01DF91CF910895CF92DF92EF92FF929F
:102120000F931F93CF93DF93EC018B010E94C307A2
:10213000CE80DF80E884F984AB01BC014C195D09D5
:102140006E097F0988819981092E000CAA0BBB0BAF
:1021500084179507A607B707A0F48A85882389F016
:102160001A868D811C821D82823060F181E090E0B0
:10217000DF91CF911F910F91FF90EF90DF90CF9063
:1021800008958B859C8580179107C9F481E08C8325
:102190008D818F5F8D830E94C3076E837F838887C5
:1021A000998781E08A872D818A819B81281719066A
:1021B0004CF01C821D821A868FEF9FEFD9CF8C8145
:1021C000811103C090E080E0D3CF0F3F1F4FD1F7C4
:1021D000DFCF8EBD00000DB407FEFDCF8EB5089594
:1021E0008F929F92AF92BF92CF92DF92EF92FF9227
:1021F0000F931F93CF93DF937C01D62F0E949006FD
:102200004B015C0180913407811167C0CD2F81E0C3
:1022100080933407809333079FEF90933207109297
:1022200031079D0F9093300780930F0780910F0720
:10223000EE0CFF1C8E2980930F0780910E078130D2
:1022400009F083C010920E070E9490066B017C017A
:1022500080910F078093BB008091360790913707DC
:10226000A0913807B0913907892B8A2B8B2BA1F0CD
:102270000E9490068090360790903707A09038070C
:10228000B09039076C197D098E099F09861697064B
:10229000A806B90608F442C08091BC0083FDD8CFDF
:1022A00085EC8093BC000E9490066B017C018091BC
:1022B0003407813009F44BC0809131078D1710F439
:1022C000C0913107E0E1F7E0AEEEB6E080E08C17B8
:1022D00051F191919D938F5FFACF80913607909144
:1022E0003707A0913807B0913907892B8A2B8B2BA0
:1022F00009F488CF0E9490060091360710913707A5
:102300002091380730913907681979098A099B09A2
:10231000061717072807390708F074CF809135078B
:102320000E946D0CC0E01092ED06C093EC068C2F5D
:10233000DF91CF911F910F91FF90EF90DF90CF90A1
:10234000BF90AF909F908F90089585EEAACF809117
:10235000360790913707A0913807B0913907892B3C
:102360008A2B8B2B09F4A3CF0E949006809036070E
:1023700090903707A0903807B09039076C197D0905
:102380008E099F0986169706A806B90608F08FCF12
:10239000C5CFCF93C0916F028C2F0E94C60360E01F
:1023A00086EA98E00E94CC0D0E948E0C67E070E0F7
:1023B0008C2F90E00E94F01086EA98E00E94850D34
:1023C000982F92959F70CAE08F709C9F800D11246A
:1023D00090E09093E1068093E00686EA98E00E9400
:1023E000850D982F92959F708F709C9F800D112462
:1023F00090E09093D8068093D70686EA98E00E94F2
:10240000850D982F929593708F709C9F800D11244D
:1024100090E09093D6068093D50686EA98E00E94D5
:10242000850D86EA98E00E94850D982F92959F7001
:102430008F709C9F800D112490E09093DA0680931A
:10244000D90686EA98E00E94850D982F92959F7094
:102450008F709C9F800D112490E09093DC068093F8
:10246000DB0686EA98E00E94850D982F92959F7072
:102470008F709C9F800D112490E09093DE068093D6
:10248000DD06CF910895CF93DF93EC018881998188
:10249000009711F00E948849198218821D821C82BF
:1024A0001B821A82DF91CF910895FC018081918176
:1024B000009711F00C94884908958F929F92AF92E3
:1024C000BF920F931F93CF93DF93CDB7DEB7A19742
:1024D0000FB6F894DEBF0FBECDBF19A2423008F48C
:1024E0004AE08E010F5D1F4F842E912CB12CA12C40
:1024F000A50194010E949448E62FB901CA01EA306F
:1025000044F5E05DD801EE938D01232B242B252B80
:1025100079F790E080E0109769F0FD0101900020CC
:10252000E9F73197AF014A1B5B0BBD0189E098E0E9
:102530000E94D207A1960FB6F894DEBF0FBECDBFA2
:10254000DF91CF911F910F91BF90AF909F908F908F
:102550000895E95CD7CF42E050E06EE374E089E093
:1025600098E00C94D207CF93DF930E94BF08EC0150
:102570000E94AB128C0F9D1FDF91CF910895CF92D7
:10258000DF92EF92FF92CF93DF936C01990FEE08E9
:10259000FF08F7FE1DC06DE289E098E00E94720816
:1025A000EC0166277727CB016C197D098E099F09FD
:1025B0004AE00E945D12C80FD91F0E94AB128C0F17
:1025C0009D1FDF91CF91FF90EF90DF90CF90089506
:1025D0004AE0C701B6010E945D12EC01EECFCF9335
:1025E000DF93682F70E090E080E04AE00E945D1287
:1025F000EC010E94AB128C0F9D1FDF91CF910895CB
:10260000CF93DF93FC01448155816081718189E022
:1026100098E00E94D207EC010E94AB128C0F9D1F24
:10262000DF91CF910895FC0180819181009711F095
:102630000C94E34560E070E0CB0108950F931F9385
:10264000CF93DF938C01EB01FC0180819181009796
:10265000E1F06881798161157105A9F042815381AA
:102660002C813D814217530770F00E94FB4A8C81F8
:102670009D81F801958384831D821C82DF91CF9117
:102680001F910F9108950E94884988819981F801CE
:10269000918380838A819B81938382838C819D81B6
:1026A00095838483198218821B821A82E5CF0F9347
:1026B0001F93CF93DF93EC0188819981009759F0A4
:1026C0002A813B812617370730F081E0DF91CF91D7
:1026D0001F910F9108958B016F5F7F4F0E94114AE8
:1026E000009759F0998388831B830A832C813D814D
:1026F000232B59F7FC011082E8CF80E0E7CFEF925F
:10270000FF920F931F93CF93DF936115710541F4EF
:1027100080E0DF91CF911F910F91FF90EF9008958E
:1027200041155105B1F07B01EC010C811D81040FB5
:10273000151FB8010E945713882351F3288139814E
:102740008C819D81B701820F931F0E94FB4A1D83DC
:102750000C8381E0DECFCF93DF93EC01FB0101908E
:102760000020E9F73197AF01461B570B0E947F13FA
:10277000811103C0CE010E944312CE01DF91CF919F
:102780000895CF93DF93EC01FB0144815581608173
:1027900071810E947F13811103C0CE010E944312F8
:1027A000CE01DF91CF910895EF92FF920F931F9387
:1027B000CF93DF93EC017B018A01BA010E9457138A
:1027C00081110BC0CE010E944312CE01DF91CF9147
:1027D0001F910F91FF90EF9008951D830C83B70117
:1027E000888199810E94FB4AF0CFFB010190002073
:1027F000E9F73197AF01461B570B0C94D4130F9395
:102800001F93CF93DF93CDB7DEB762970FB6F894DF
:10281000DEBF0FBECDBF8C01CB01F801118210824B
:1028200013821282158214824AE0BE016F5F7F4FCD
:102830000E940A46BE016F5F7F4FC8010E94F513D8
:1028400062960FB6F894DEBF0FBECDBFDF91CF9179
:102850001F910F910895CF93DF93EC01FB01861731
:10286000970749F0608171816115710541F04481DC
:1028700055810E94D413CE01DF91CF9108950E941B
:102880004312F9CFFC011182108213821282158249
:1028900014820C942B14FC01118210821382128278
:1028A00015821482FB0101900020E9F73197AF01F6
:1028B000461B570B0C94D413AF92BF92CF92DF926A
:1028C000EF92FF920F931F93CF93DF936C015B0105
:1028D0007A0189012417350720F48F2D7901042FFF
:1028E000182F60E474E0C6010E944B14D5011496C1
:1028F000CD91DC91EC16FD06E0F40C171D0708F4F1
:10290000E801D501ED91FC911197EC0FFD1F1081AD
:1029100010826D917C916E0D7F1DC6016115710550
:10292000A1F00E94F513F50180819181C80FD91F94
:102930001883C601DF91CF911F910F91FF90EF9007
:10294000DF90CF90BF90AF9008950E944312EBCFDD
:102950004F925F926F927F928F929F92AF92BF92AF
:10296000CF92DF92EF92FF920F931F93CF93DF935B
:1029700000D000D0CDB7DEB77C014B015A01809169
:102980003F0681113AC081E080933F0690EF692EA7
:1029900095E0792E2AEE422E25E0522E10E000E03E
:1029A0000F5F1F4F680181E0C81AD1089801A60186
:1029B000B401CE0101960E945C14CE0101960E94E2
:1029C0001313D3016D933D01CE0101960E94551260
:1029D0009801A601B501CE0101960E945C14CE01BA
:1029E00001960E941313F20161932F01CE0101960B
:1029F0000E9455120630110599F69091E90580EF75
:102A0000C82E85E0D82EEAEEF5E08601A801D801AF
:102A10008C919A3008F04DC08F5F8C930F5F1F4FE1
:102A2000DA018C918A3019F4D80111971C923196F1
:102A3000B5E0063F1B0751F79F5F943109F43FC093
:102A40009093E90560E474E0C7010E944B14FE0115
:102A500031965F01D6018D916D014AE0B50190E09C
:102A60000E940A46F50101900020E9F73197AF0175
:102A70004A195B09B501C7010E947F130C151D059A
:102A800049F7C70126960FB6F894DEBF0FBECDBF3B
:102A9000DF91CF911F910F91FF90EF90DF90CF903A
:102AA000BF90AF909F908F907F906F905F904F906E
:102AB00008952081281709F4B1CF8F5FAECF10920F
:102AC000E90510923F06BECFCF92DF92EF92FF92C0
:102AD0001F93CF93DF93CDB7DEB72C970FB6F89443
:102AE000DEBF0FBECDBF182F67E574E0CE0107969D
:102AF0000E944B1422E030E050E040E0133071F0CF
:102B000024E030E042E050E01C3041F01033B9F4F2
:102B10002091E9093091EA0944E050E065EE79E05E
:102B2000CE0101960E945C14BE016F5F7F4FCE0103
:102B300007960E941E13CE0101960E945512CE01E7
:102B400007960E9413136B01CE0107960E9455123F
:102B5000C6012C960FB6F894DEBF0FBECDBFDF9135
:102B6000CF911F91FF90EF90DF90CF9008958F92BB
:102B70009F92AF92BF92CF92DF92EF92FF920F930C
:102B80001F93CF93DF93CDB7DEB72C970FB6F89492
:102B9000DEBF0FBECDBF8C016A017B0180910806AC
:102BA000811111C00E94C307645B7B4F8F4F9F4F01
:102BB00060930406709305068093060690930706BB
:102BC00081E0809308068091FC05811109C061E4D1
:102BD00074E086EF95E00E944B1481E08093FC0541
:102BE0000E94C3078090040690900506A0900606F8
:102BF000B0900706681979098A099B09693E7340F4
:102C00008105910508F4D0C00E94C30760930406B3
:102C100070930506809306069093070620E030E047
:102C2000A901C701B6010E944B4820E030E040E016
:102C30005FE387FDD2C0C701B6010E94A9470E9489
:102C400015487B0177FF04C0EE24FF24E61AF70A3B
:102C50005B0139E1A31A3CEFB30A809167029091BE
:102C600068029B012D593F4F69012A5531094901DD
:102C7000B701892B09F0B6C0CE0107960E94FF1359
:102C800066E474E0CE0101960E944B14BE01695FB8
:102C90007F4FCE0101960E94C11366E474E00E944A
:102CA000AB13BC0186EF95E00E942B14CE01019678
:102CB0000E945512CE0107960E9455123FECA316B2
:102CC00037E0B30618F5B701CE0107960E94FF134F
:102CD00065E474E0CE0101960E944B14BE01695F69
:102CE0007F4FCE0101960E94C11366E474E00E94FA
:102CF000AB13BC0186EF95E00E942B14CE01019628
:102D00000E945512CE0107960E94551287ECC816F4
:102D1000D10418F5B701CE0107960E94FF1364E4B1
:102D200074E0CE0101960E944B14BE01695F7F4F93
:102D3000CE0101960E94C11366E474E00E94AB13B9
:102D4000BC0186EF95E00E942B14CE0101960E94F3
:102D50005512CE0107960E94551223E18216910466
:102D600018F5B701CE0107960E94FF1363E474E0E3
:102D7000CE0101960E944B14BE01695F7F4FCE01C8
:102D800001960E94C11366E474E00E94AB13BC017B
:102D900086EF95E00E942B14CE0101960E945512F9
:102DA000CE0107960E94551266EF75E0C8010E9499
:102DB0004214C8012C960FB6F894DEBF0FBECDBFEB
:102DC000DF91CF911F910F91FF90EF90DF90CF9007
:102DD000BF90AF909F908F900895C701B6010E9459
:102DE000A8472DCFCE0107960E94FF1366E474E03A
:102DF000CE0101960E944B14BE01695F7F4FCE0148
:102E000001960E94C11366E474E00E94AB13BC01FA
:102E100086EF95E00E942B14CE0101960E94551278
:102E2000CE0107960E9455123FECA31637E0B30679
:102E300038F5C7016AE070E00E948048CE0107962D
:102E40000E94FF1365E474E0CE0101960E944B14CA
:102E5000BE01695F7F4FCE0101960E94C11365E4F8
:102E600074E00E94AB13BC0186EF95E00E942B1426
:102E7000CE0101960E945512CE0107960E9455126E
:102E800087ECC816D10438F5C7016AE070E00E94EB
:102E90008048CE0107960E94FF1364E474E0CE01DF
:102EA00001960E944B14BE01695F7F4FCE010196CF
:102EB0000E94C11365E474E00E94AB13BC0186EF6D
:102EC00095E00E942B14CE0101960E945512CE016E
:102ED00007960E94551223E18216910408F064CFF0
:102EE000C7016AE070E00E948048CE0107960E9408
:102EF000FF1363E474E0CE0101960E944B14BE01FF
:102F0000695F7F4FCE0101960E94C11365E474E0B2
:102F10003CCF0F931F93CF93DF93CDB7DEB7A4972A
:102F20000FB6F894DEBF0FBECDBF8B01833009F022
:102F300069C02091E9093091EA0942E050E065EE6C
:102F400079E0CE0149960E945C14B80117FF04C0D5
:102F500066277727601B710B075F1F4FCE01033178
:102F6000110508F04AC007960E94FF1366E474E05A
:102F7000CE0101960E944B14BE01695F7F4FCE01C6
:102F800001960E94C113BC01CE010D960E9442140D
:102F900011E0BE01635F7F4FCE0143960E94421451
:102FA000BE01675E7F4FCE0143960E94C113BC01F4
:102FB00085EE99E00E942B14CE0143960E94551293
:102FC000CE010D960E945512112341F0CE010196BB
:102FD0000E945512CE0107960E945512CE014996C5
:102FE0000E945512A4960FB6F894DEBF0FBECDBF57
:102FF000DF91CF911F910F9108950D960E94FF13BD
:1030000010E0C7CF8C3009F070C02091E9093091F1
:10301000EA0944E050E065EE79E0CE014F960E9467
:103020005C14B80117FF04C066277727601B710B7B
:10303000075F1F4FCE010331110508F051C04396C1
:103040000E94FF1366E474E0CE010D960E944B14BB
:10305000BE016D5E7F4FCE010D960E94C113BC0173
:10306000CE0149960E94421411E022E030E050E087
:1030700040E065EE79E0CE0101960E945C14BE014D
:103080006F5F7F4FCE0107960E944214BE01675EBC
:103090007F4FCE0107960E94C113BE01615E7F4F34
:1030A0000E94C113BC0185EE99E00E942B14CE0151
:1030B00007960E945512CE0101960E945512CE012C
:1030C00049960E945512112341F0CE010D960E949F
:1030D0005512CE0143960E945512CE014F9680CFD5
:1030E00049960E94FF1310E0C0CF803309F07ACFD9
:1030F00077FF04C066277727601B710B075F1F4FA0
:10310000CE010331110508F049C043960E94FF1318
:1031100066E474E0CE010D960E944B14BE016D5E14
:103120007F4FCE010D960E94C113BC01CE0149967E
:103130000E94421411E024E030E050E040E065EEEF
:1031400079E0CE0101960E945C14BE016F5F7F4F53
:10315000CE0107960E944214BE01675E7F4FCE01EA
:1031600007960E94C113BC0185EE99E00E942B14C2
:10317000CE0107960E945512CE0101960E9455126B
:10318000CE0149960E945512112309F42BCFCE018E
:103190000D960E945512CE01439622CF49960E9469
:1031A000FF1310E0C8CF0E94C3076093E00570933F
:1031B000E1058093E2059093E3058091DF05882384
:1031C00009F44FC02091410630914206C901880F91
:1031D000991F22313105A1F1FC01EF5BFD4F4081C8
:1031E00051814150510951834083DC01AF5BBD4F98
:1031F0006D917C911197FC01E451FC4F408151810C
:10320000641775073CF4FC01E256FC4F4081518184
:103210004D935C932131310509F520916302309182
:10322000640221303105B9F420E8209328068F5B31
:103230009D4FFC0160817181809138060C94891743
:1032400040916502509166024C50510950936602BC
:1032500040936502CACF10922806E9CF2A30310583
:1032600031F708950E94C3076093E0057093E1056C
:103270008093E2059093E3058091DF05882309F4AC
:1032800044C02091410630914206C901880F991F20
:103290002231310561F1FC01EF5BFD4F408151812D
:1032A0004F5F5F4F51834083DC01AF5BBD4F6D913A
:1032B0007C911197FC01E256FC4F408151814617E9
:1032C00057073CF4FC01E451FC4F408151814D9380
:1032D0005C9321313105B1F4109228068F5B9D4F2C
:1032E000FC0160817181809138060C9489174091AE
:1032F000650250916602445F5F4F509366024093AF
:103300006502D2CF2A30310549F70895CF92DF9276
:10331000FF920F931F93CF93DF93CDB7DEB7EC9758
:103320000FB6F894DEBF0FBECDBF6C018091650271
:1033300090916602489709F032C10E94900B1816CE
:103340001906A4F40E94900B11E00A97ACF010E06B
:103350000E94900B181619060CF04BC00E94900B9F
:10336000BC01CE01C7960E94FF1324C00E94900B9F
:1033700011E0873F9F4F5CF30E94900B18161906CF
:1033800094F50E94900BBC01CE01C1960E94FF13E0
:1033900066E474E0CE018B960E944B14BE016F5C14
:1033A0007F4FCE018B960E94C113BC01CE01C79600
:1033B0000E9442140E94980B1816190604F50E94E8
:1033C000980B01E00A970CF100E00E94980B181688
:1033D00019060CF058C00E94980BBC01CE018596CE
:1033E0000E94FF1330C00E94900B91958195910926
:1033F000CACF0E94900B919581959109B1CF0E94FF
:10340000980B01E0873F9F4FFCF20E94980B181623
:1034100019069CF50E94980BBC01CE014F960E94A4
:10342000FF1366E474E0CE0149960E944B14BE017E
:10343000615E7F4FCE0149960E94C113BC01CE014F
:1034400085960E9442140E94B10B181619060CF5BD
:103450000E94B10BFF24F3940A9714F1F12C0E94FF
:10346000B10B181619060CF094C00E94B10BBC01E8
:10347000CE010D960E94FF1332C00E94980B9195C9
:1034800081959109C9CF0E94980B919581959109D9
:10349000A4CF0E94B10BFF24F394873F9F4FF4F217
:1034A0000E94B10B181619060CF06DC00E94B10BEA
:1034B000BC01CE0107960E94FF1366E474E0CE01C2
:1034C00001960E944B14BE01695F7F4FCE010196A9
:1034D0000E94C113BC01CE010D960E944214BE0190
:1034E000635F7F4FCE0143960E944214BE016B5D25
:1034F0007F4FCE0143960E94C113BE01695C7F4F8E
:103500000E94C113BC01C6010E944214CE01439621
:103510000E945512CE010D960E945512FF2041F0D7
:10352000CE0101960E945512CE0107960E945512B7
:10353000CE0185960E945512002341F0CE01499696
:103540000E945512CE014F960E945512CE01C79689
:103550000E945512112341F0CE018B960E94551204
:10356000CE01C1960E945512C601EC960FB6F89492
:10357000DEBF0FBECDBFDF91CF911F910F91FF90A6
:10358000DF90CF9008950E94B10B9195819591099C
:103590008FCF0E94B10B91958195910968CF0E94C0
:1035A000900B18161906A4F40E94900B11E00A97CC
:1035B000ACF010E00E94900B181619060CF04BC0EE
:1035C0000E94900BBC01CE01C7960E94FF1324C03D
:1035D0000E94900B11E0873F9F4F5CF30E94900B7D
:1035E0001816190694F50E94900BBC01CE01C196E5
:1035F0000E94FF1366E474E0CE018B960E944B1488
:10360000BE016F5C7F4FCE018B960E94C113BC013F
:10361000CE01C7960E9442140E94980B18161906F4
:1036200004F50E94980B01E00A970CF100E00E945B
:10363000980B181619060CF052C00E94980BBC018A
:10364000CE0185960E94FF1330C00E94900B919589
:1036500081959109CACF0E94900B9195819591090E
:10366000B1CF0E94980B01E0873F9F4FFCF20E9470
:10367000980B181619066CF50E94980BBC01CE0128
:103680004F960E94FF1366E474E0CE0149960E94B3
:103690004B14BE01615E7F4FCE0149960E94C1135B
:1036A000BC01CE0185960E9442140E94A00B181600
:1036B0001906DCF40E94A00BFF24F3940A97E4F0AF
:1036C000F12C0E94A00B181619060CF50E94A00BF5
:1036D000CECE0E94980B919581959109CFCF0E94F3
:1036E000980B919581959109AACF0E94A00BFF2478
:1036F000F394873F9F4F24F30E94A00B18161906DE
:103700001CF40E94A00BD4CE0E94A00B3ECF0E94BE
:10371000A00B41CFEF92FF920F931F93CF93DF93B4
:10372000CDB7DEB7CE54D1090FB6F894DEBF0FBEC9
:10373000CDBF8091550681110DC00E94C3076093D3
:10374000510670935206809353069093540681E07D
:10375000809355068091490681110DC00E94C307D0
:1037600060934506709346068093470690934806FB
:1037700081E0809349060E94C30700915106109191
:1037800052062091530630915406601B710B820B38
:10379000930B00913A0210913B0220913C02309130
:1037A0003D02061717072807390708F04DC00E9489
:1037B000C30760935106709352068093530690930B
:1037C00054068091430690914406009709F0DEC0AC
:1037D00081E090E0909342068093410688E893E16F
:1037E000A0E0B0E080933A0290933B02A0933C02A9
:1037F000B0933D028091430690914406823091053A
:1038000081F4109242061092410640E65AEE60E0C2
:1038100070E040933A0250933B0260933C027093F5
:103820003D020196833091050CF0D0C09093440680
:103830008093430680914006882321F0109242062F
:1038400010924106109240060E94C3070091510653
:10385000109152062091530630915406601B710B53
:10386000820B930B603D77408105910508F070C68F
:103870000E94C30700914506109146062091470615
:1038800030914806601B710B820B930B65367105F6
:103890008105910508F45AC30E94C3076093450649
:1038A00070934606809347069093480680914106A0
:1038B000909142062091CA06222309F461C3892B04
:1038C00089F5CE0107960E94861981E02091670252
:1038D00030916802232B09F480E00E94370FAB017E
:1038E000BC01CE010D960E94B715AE01495F5F4F36
:1038F000BE01635F7F4FCE0101960E94A814BE01F6
:103900006F5F7F4F85EE99E00E941E13CE010196F6
:103910000E945512CE010D960E945512CE010796B7
:103920000E9455128091410690914206019709F03C
:103930008BC10E94760B08EE13E0B8010E9480480C
:10394000181619060CF047C00E94760BB8010E94A9
:10395000804811E00A970CF448C010E00E94760BF2
:10396000E8EEEE2EE3E0FE2EB7010E948048181626
:1039700019060CF084C00E94760BB7010E948048A3
:10398000BC01CE010D960E94FF1357C0019709F0AC
:1039900031CF84E090E0909342068093410688E81E
:1039A00093E1A0E0B0E080933A0290933B02A093B1
:1039B0003C02B0933D028091CA068111CCC582E0E1
:1039C00090E0909344068093430614CF10924406EF
:1039D000109243062FCF0E94760BB8010E948048B8
:1039E00011E0873F9F4F0CF4B8CF0E94760BF8EEA2
:1039F000EF2EF3E0FF2EB7010E948048181619063B
:103A0000ACF50E94760BB7010E948048BC01CE0144
:103A100043960E94FF1366E474E0CE0149960E942B
:103A20004B14BE016D5E7F4FCE0149960E94C113BB
:103A3000BC01CE010D960E9442140E94800B181604
:103A4000190634F50E94800B01E00A973CF100E072
:103A50000E94800B181619060CF05EC00E94800BA5
:103A6000BC01CE014F960E94FF1336C00E94760B18
:103A7000B7010E948048919581959109C7CF0E9416
:103A8000760BB7010E94804891958195910978CF76
:103A90000E94800B01E0873F9F4FCCF20E94800B79
:103AA000181619069CF50E94800BBC01CE01859664
:103AB0000E94FF1366E474E0CE018B960E944B14C3
:103AC000BE016B5D7F4FCE018B960E94C113BC017E
:103AD000CE014F960E9442140E94880B18161906B8
:103AE0000CF50E94880BFF24F3940A9714F1F12C33
:103AF0000E94880B181619060CF0EEC00E94880B65
:103B0000BC01CE01C7960E94FF1334C00E94800BF7
:103B1000919581959109C9CF0E94800B91958195CE
:103B200091099ECF0E94880BFF24F394873F9F4FFB
:103B3000F4F20E94880B181619060CF0C7C00E94F8
:103B4000880BBC01CE01CD960E94FF1366E474E0A1
:103B5000CE018D5B9F4F0E944B14BE01635C7F4F73
:103B6000CE018D5B9F4F0E94C113BC01CE01C79651
:103B70000E944214BE01695C7F4FCE01C1960E9433
:103B80004214BE01615E7F4FCE01C1960E94C113F7
:103B9000BE01635F7F4F0E94C113BC01CE01079637
:103BA0000E944214CE01875B9F4F0E948619AE018E
:103BB000495F5F4FBE01675B7F4FCE0101960E9458
:103BC000A814BE016F5F7F4F85EE99E00E941E131F
:103BD000CE0101960E945512CE01875B9F4F0E9435
:103BE0005512CE0107960E945512CE01C1960E9431
:103BF0005512CE01C7960E945512FF2049F0CE0102
:103C00008D5B9F4F0E945512CE01CD960E9455129A
:103C1000CE014F960E945512002341F0CE018B96A3
:103C20000E945512CE0185960E945512CE010D9626
:103C30000E945512112341F0CE0149960E9455125F
:103C4000CE0143960E945512809141069091420602
:103C5000049709F07BC181E02091670230916802EE
:103C6000232B09F480E00E94370FAB01BC01CE0189
:103C700007960E94B7150E94760B08EE13E0B80174
:103C80000E948048181619066CF50E94760BB80140
:103C90000E94804811E00A9774F110E00E94760BB0
:103CA00068EEE62E63E0F62EB7010E9480481816F3
:103CB00019060CF06AC00E94760BB7010E9480487A
:103CC000BC01CE0143960E94FF133DC00E94880BA9
:103CD00091958195910935CF0E94880B9195819599
:103CE00091090ECF0E94760BB8010E94804811E026
:103CF000873F9F4F94F20E94760B78EEE72E73E099
:103D0000F72EB7010E94804818161906ACF50E94DC
:103D1000760BB7010E948048BC01CE0149960E94F3
:103D2000FF1366E474E0CE014F960E944B14BE016F
:103D3000675E7F4FCE014F960E94C113BC01CE013A
:103D400043960E9442140E94800B1816190634F5FF
:103D50000E94800B01E00A973CF100E00E94800B7A
:103D6000181619060CF05EC00E94800BBC01CE0133
:103D700085960E94FF1336C00E94760BB7010E9401
:103D80008048919581959109C7CF0E94760BB70124
:103D90000E94804891958195910992CF0E94800B55
:103DA00001E0873F9F4FCCF20E94800B1816190646
:103DB0009CF50E94800BBC01CE018B960E94FF13E4
:103DC00066E474E0CE01C1960E944B14BE01655DAD
:103DD0007F4FCE01C1960E94C113BC01CE018596D2
:103DE0000E9442140E94880B181619060CF50E94B6
:103DF000880BFF24F3940A9714F1F12C0E94880B8E
:103E0000181619060CF0B6C00E94880BBC01CE0132
:103E1000CD960E94FF1335C00E94800B919581952D
:103E20009109C9CF0E94800B9195819591099ECFF0
:103E30000E94880BFF24F394873F9F4FF4F20E9467
:103E4000880B181619060CF08FC00E94880BBC0155
:103E5000CE018D5B9F4F0E94FF1366E474E0CE019C
:103E6000875B9F4F0E944B14BE016D5B7F4FCE015D
:103E7000875B9F4F0E94C113BC01CE01CD960E946B
:103E80004214BE01635C7F4FCE01C7960E9442146C
:103E9000BE016B5D7F4FCE01C7960E94C113BE016C
:103EA0006D5E7F4F0E94C113BC01CE010D960E9432
:103EB0004214AE01495F5F4FBE01635F7F4FCE0189
:103EC00001960E94A814BE016F5F7F4F85EE99E0B6
:103ED0000E941E13CE0101960E945512CE010D962E
:103EE0000E945512CE01C7960E945512CE01CD9662
:103EF0000E945512FF2051F0CE01875B9F4F0E9418
:103F00005512CE018D5B9F4F0E945512CE018596B2
:103F10000E945512002341F0CE01C1960E94551215
:103F2000CE018B960E945512CE0143960E945512E7
:103F3000112341F0CE014F960E945512CE014996B1
:103F40000E945512CE0107960E945512C25BDF4FA8
:103F50000FB6F894DEBF0FBECDBFDF91CF911F919A
:103F60000F91FF90EF9008950E94880B9195819595
:103F700091096DCF0E94880B91958195910946CF4B
:103F8000892B09F063C1CE0107960E9486190E9411
:103F9000760B08EE13E0B8010E9480481816190647
:103FA0000CF50E94760BB8010E94804811E00A9738
:103FB00014F110E00E94760B48EEE42E43E0F42E5C
:103FC000B7010E948048181619060CF05EC00E94C6
:103FD000760BB7010E948048BC01CE0143960E9437
:103FE000FF1331C00E94760BB8010E94804811E097
:103FF000873F9F4FF4F20E94760B58EEE52E53E078
:10400000F52EB7010E94804818161906ACF50E94DB
:10401000760BB7010E948048BC01CE0149960E94F0
:10402000FF1366E474E0CE014F960E944B14BE016C
:10403000675E7F4FCE014F960E94C113BC01CE0137
:1040400043960E9442140E94800B1816190634F5FC
:104050000E94800B01E00A973CF100E00E94800B77
:10406000181619060CF05EC00E94800BBC01CE0130
:1040700085960E94FF1336C00E94760BB7010E94FE
:104080008048919581959109C7CF0E94760BB70121
:104090000E9480489195819591099ECF0E94800B46
:1040A00001E0873F9F4FCCF20E94800B1816190643
:1040B0009CF50E94800BBC01CE018B960E94FF13E1
:1040C00066E474E0CE01C1960E944B14BE01655DAA
:1040D0007F4FCE01C1960E94C113BC01CE018596CF
:1040E0000E9442140E94880B181619060CF50E94B3
:1040F000880BFF24F3940A9714F1F12C0E94880B8B
:10410000181619060CF0DAC00E94880BBC01CE010B
:10411000CD960E94FF1335C00E94800B919581952A
:104120009109C9CF0E94800B9195819591099ECFED
:104130000E94880BFF24F394873F9F4FF4F20E9464
:10414000880B181619060CF0B3C00E94880BBC012E
:10415000CE018D5B9F4F0E94FF1366E474E0CE0199
:10416000875B9F4F0E944B14BE016D5B7F4FCE015A
:10417000875B9F4F0E94C113BC01CE01CD960E9468
:104180004214BE01635C7F4FCE01C7960E94421469
:10419000BE016B5D7F4FCE01C7960E94C113BE0169
:1041A0006D5E7F4F0E94C113BC01CE010D960E942F
:1041B0004214AE01495F5F4FBE01635F7F4FCE0186
:1041C00001960E94A814BE016F5F7F4F85EE99E0B3
:1041D0000E941E13CE0101960E945512CE010D962B
:1041E0000E945512CE01C7960E945512CE01CD965F
:1041F0000E945512FF2051F0CE01875B9F4F0E9415
:104200005512CE018D5B9F4F0E945512CE018596AF
:104210000E945512002341F0CE01C1960E94551212
:10422000CE018B960E945512CE0143960E945512E4
:10423000112341F0CE014F960E945512CE014996AE
:104240000E945512CE0107960E9455128091410698
:1042500090914206019709F079CE0E94760B08EE04
:1042600013E0B8010E948048181619066CF50E94E8
:10427000760BB8010E94804811E00A9774F110E0B3
:104280000E94760B28EEE22E23E0F22EB7010E9468
:104290008048181619060CF06AC00E94760BB70108
:1042A0000E948048BC01CE010D960E94FF133DC0C4
:1042B0000E94880B91958195910949CF0E94880BA6
:1042C00091958195910922CF0E94760BB8010E94A9
:1042D000804811E0873F9F4F94F20E94760B38EEA2
:1042E000E32E33E0F32EB7010E948048181619061A
:1042F000ACF50E94760BB7010E948048BC01CE014C
:1043000043960E94FF1366E474E0CE0149960E9432
:104310004B14BE016D5E7F4FCE0149960E94C113C2
:10432000BC01CE010D960E9442140E94800B18160B
:10433000190634F50E94800B01E00A973CF100E079
:104340000E94800B181619060CF05EC00E94800BAC
:10435000BC01CE014F960E94FF1336C00E94760B1F
:10436000B7010E948048919581959109C7CF0E941D
:10437000760BB7010E94804891958195910992CF63
:104380000E94800B01E0873F9F4FCCF20E94800B80
:10439000181619069CF50E94800BBC01CE0185966B
:1043A0000E94FF1366E474E0CE018B960E944B14CA
:1043B000BE016B5D7F4FCE018B960E94C113BC0185
:1043C000CE014F960E9442140E94880B18161906BF
:1043D0000CF50E94880BFF24F3940A9714F1F12C3A
:1043E0000E94880B181619060CF0ACC00E94880BAE
:1043F000BC01CE01C7960E94FF1334C00E94800BFF
:10440000919581959109C9CF0E94800B91958195D5
:1044100091099ECF0E94880BFF24F394873F9F4F02
:10442000F4F20E94880B181619060CF085C00E9441
:10443000880BBC01CE01CD960E94FF1366E474E0A8
:10444000CE018D5B9F4F0E944B14BE01635C7F4F7A
:10445000CE018D5B9F4F0E94C113BC01CE01C79658
:104460000E944214BE01695C7F4FCE01C1960E943A
:104470004214BE01615E7F4FCE01C1960E94C113FE
:10448000BE01635F7F4F0E94C113BC01CE0107963E
:104490000E944214CE01875B9F4F0E948619AE0195
:1044A000495F5F4FBE01675B7F4FCE0101960E945F
:1044B000A814BE016F5F7F4F85EE99E00E941E1326
:1044C000CE0101960E945512CE01875B9F4F0E943C
:1044D0005512CE0107960E945512CE01C1960E9438
:1044E0005512CE01C7960E945512FF2049F0CE0109
:1044F0008D5B9F4F0E945512CE01CD960E945512A2
:10450000CE014F960E945512002341F0CE018B96AA
:104510000E945512CE0185960E945512CE010D962D
:104520000E945512112309F411CDCE0149960E9423
:104530005512CE01439608CD0E94880B9195819526
:10454000910977CF0E94880B91958195910950CF61
:1045500010923F06FBCC81E090E063C985ED80932B
:10456000BC008091360790913707A0913807B09131
:1045700039070796A11DB11D23E0B695A79597951C
:1045800087952A95D1F72091BC0024FD03C0109295
:1045900034070895409136075091370760913807E6
:1045A00070913907452B462B472B69F30097A105DE
:1045B000B10541F02AE22A95F1F700C00197A1095F
:1045C000B109E1CF809135070C946D0C0C948047B4
:1045D0000C9478478F929F92AF92BF92CF92DF92C6
:1045E000EF92FF920F931F93CF93DF9388E090E0B9
:1045F0000E94E822C82FC82ED12C89E090E00E94AA
:10460000E822882EE82EF12C8AE090E00E94E82231
:10461000082F10E0912CB12CA12CBA2CA92C982C8D
:104620008824AC2A882AD0E0C0E080914002B501FD
:10463000A401811103C040E050E0BA01CE010E9404
:104640009A022196C830D10581F70E94B50687ED00
:1046500092E00E94B31282ED92E00E94BF08C60170
:104660000E94BF128BEC92E00E94BF08C7010E941B
:10467000BF1285EC92E00E94BF08C801DF91CF9184
:104680001F910F91FF90EF90DF90CF90BF90AF9070
:104690009F908F900C94BF1280912506882341F043
:1046A0001092250680912406809340020C94EA2201
:1046B00008950F931F938091630290916402892B58
:1046C00009F44FC08091E8058823A9F00E94C30730
:1046D0000091E4051091E5052091E6053091E7058C
:1046E000601B710B820B930B693E73408105910532
:1046F000C0F11092E8050E94B10B20915D0230914B
:104700005E028217930769F50E94980B20915F0261
:10471000309160028217930721F50E94900B20913F
:1047200061023091620282179307D9F40E944C23F0
:104730000E94C3076093E4057093E5058093E60546
:104740009093E70581E08093E8058DE992E00E946F
:10475000B31280913E0290913F029093D4068093D1
:10476000D3061F910F9108952F923F924F925F921F
:104770006F927F928F929F92AF92BF92CF92DF9271
:10478000EF92FF920F931F93CF93DF93CDB7DEB7D6
:10479000C055D1090FB6F894DEBF0FBECDBF8091D2
:1047A0001905811107C00E94B10B8093180581E0A3
:1047B000809319058091DF05811129C000911805AA
:1047C00010E00E94B10B0817190709F10E94B10B04
:1047D000809318050E94B10B20916B0230916C02FE
:1047E0008217930749F481E0809325068091400267
:1047F00080932406109240020E94B10B20916D021A
:1048000030916E028217930711F40E944C230E948C
:10481000C30720E137E240E050E00E949448672B54
:10482000682B692B01F58091DF068823E1F00E9457
:10483000C911E090DD06F090DE060091DB061091D4
:10484000DC062091D9063091DA064091E0065091BD
:10485000E1066091D7067091D8068091D5069091B7
:10486000D6060E94520A0E94C3076093D505709332
:10487000D6058093D7059093D8050091D105109166
:10488000D2052091D3053091D405601B710B820BAA
:10489000930B009132021091330220913402309137
:1048A00035020617170728073907E0F58091D0056C
:1048B000811107C083E892E00E94B31281E08093E7
:1048C000D0058CE697E00E943008892B59F18CE6E0
:1048D00097E00E940E0890917405E92FF0E0EF5DDB
:1048E000FA4F80839F5F923509F444C19093740519
:1048F0008A30C1F4E0917405F0E0EF5DFA4F108268
:1049000010927405E2E2F5E021E030E040E05191E0
:10491000C90101965A3209F430C145279C018335FB
:104920009105A9F74091D5055091D6056091D7051D
:104930007091D8058091D1059091D205A091D305B1
:10494000B091D4058A019B01081B190B2A0B3B0B64
:104950008091320290913302A0913402B0913502DD
:10496000805A9541AF4FBF4F80179107A207B307F9
:1049700070F44093D1055093D2056093D3057093A2
:10498000D40583E692E00E94B3121092D0051092F3
:10499000C4051092C5051092C6051092C70589EB93
:1049A00098E09093CB058093CA050091B60810E07B
:1049B0001093CD050093CC058091830990E09093EE
:1049C000CF058093CE058091B2088530A1F5809106
:1049D000B6088A3108F4C9C28091B9089091BA0822
:1049E000843F914008F092C21092C9051092C80508
:1049F0008FEF9FEFDC018093C4059093C505A093D2
:104A0000C605B093C7058BE090E09093C1058093F5
:104A1000C0056091C4057091C5058091C60590914F
:104A2000C70540E10E945D120E94AB1282E08093B4
:104A3000B2081092B6086091C4057091C50583E173
:104A40009AE00E948C109093BF058093BE05019759
:104A500021F488E592E00E94B3128091BE05909106
:104A6000BF05019621F48AE492E00E94B31260919E
:104A7000C4057091C50586E09AE00E948C10909361
:104A8000BD058093BC05019721F481E492E00E946A
:104A9000B3128091BC059091BD05019621F485E388
:104AA00092E00E94B3126091C4057091C50589EF30
:104AB00099E00E948C109093BB058093BA050197F2
:104AC00021F48AE292E00E94B3128091BA0590919B
:104AD000BB05019621F48CE192E00E94B312009193
:104AE000D3061091D406F8018081882309F4AFC35E
:104AF0000E94C307C0907B05D0907C05E0907D05A7
:104B0000F0907E056C197D098E099F09C09077058C
:104B1000D0907805E0907905F0907A05C616D70612
:104B2000E806F90608F093C30E94C3074B015C0135
:104B300080927B0590927C05A0927D05B0927E05C7
:104B4000780130E020E04AE0F801D1908F0180ED5B
:104B50008D0D8A3008F0B1C2429FC001439F900D75
:104B600011242D2DDD0C330B20533109280F391F53
:104B70007F01EACF10927405BBCE8F5D9A4FFC0186
:104B8000808181340CF087538295807F2F5D3A4F6E
:104B9000F901928191340CF4B0C19753890F4813F5
:104BA000C1CE80912105843209F0BCCE80912405CC
:104BB000823509F0B7CE809125058D3409F0B2CE4B
:104BC00080912605833409F0ADCEA0902805909001
:104BD0002905B0902A0560902B0570902C05409017
:104BE0002D05ADE2B5E090E080E0ECE0F0E02D9145
:104BF0002C3209F084C101968830910509F07FC1FB
:104C0000EF5FF0E0EF5DFA4FC080D1808281082E27
:104C1000000C990BC0971AE0189F7001199FF00CB7
:104C200011248381E80EF11C87FDFA9420E3E21A37
:104C3000F108048155804CE050E061E070E0C7016C
:104C40000E94BE45882309F46DCE8C2DCC0C990BA7
:104C5000C097189F9001199F300D1124C9018D0D27
:104C6000911DD7FC9A956C0190E3C91AD1084FE1C8
:104C700050E061E070E0C6010E94BE45882309F45F
:104C800051CE8A2DAA0C990BC097189F9001199F9D
:104C9000300D1124F901E90DF11D97FCFA954F0132
:104CA000F0E38F1A910847E150E070E060E0C40142
:104CB0000E94BE45882309F435CE8B2DBB0C990B81
:104CC000C097189F5001199FB00C1124A60CB11C5D
:104CD00067FCBA9420E3A21AB1084BE350E070E0FD
:104CE00060E0C5010E94BE45882309F41BCE872DD4
:104CF000770C990BC097189F3001199F700C1124E5
:104D0000640C711C47FC7A9430E3631A71084BE31E
:104D100050E070E060E0C3010E94BE45882309F4C2
:104D200001CE202F000F330B20533109129FC001F9
:104D3000139F900D11248C010053184F050D111D68
:104D400057FC1A9500531109063E87E01807C4F472
:104D50006982AA828B82CD82EE82025B0F83CE01B2
:104D600001960E94920986519B4DAE014F5F5F4FA5
:104D70000E94760A0F8110E00E54184FEE80CD800D
:104D800046EF57E062EE77E0C8010E94BE458823F7
:104D900009F4C8CD8092200AA092210A6092220ACA
:104DA000C092230AE092240A1093260A0093250A4F
:104DB0000E94C3076B017C01C092280AD092290A85
:104DC000E0922A0AF0922B0A0E94C3076C197D090F
:104DD0008E099F09693B7B408105910508F0A2CDB2
:104DE00080ED91E00E94B3128091200A0E94EF12A0
:104DF0008091210A0E94EF128091220A0E94EF12F4
:104E00008091250A9091260A18EEC12E13E0D12E2A
:104E1000B6010E9480487C010091240A10E0209194
:104E2000230A30E04091220A50E06091210A70E0AC
:104E30008091200A90E00E94520AA0916902B091EC
:104E40006A0220E13EE00E94DD480091AF06109129
:104E5000B0062091B1063091B206DC01CB01800F83
:104E6000911FA21FB31F8093AF069093B006A0932B
:104E7000B106B093B2060E944C0943EB56E00E9483
:104E8000760A0E94760B4C010E94800B082F0E942C
:104E9000880BB82E0E94900BF82E0E94980B182FAA
:104EA0000E94B10B382FC401B6010E948048E82E41
:104EB0002B2D4F2D612F832F0E94000E8091D50541
:104EC0009091D605A091D705B091D8058093D105D2
:104ED0009093D205A093D305B093D40580E497E7CF
:104EE000ABE1B0E08093320290933302A09334029E
:104EF000B09335021092D00515CD90534FCE319618
:104F0000E335F10509F073CEE0E07BCE8091BB087C
:104F10009091BC0885974B9740F5E2EBF8E082E072
:104F200090E040E050E0BA01DC0111962091B60813
:104F30002A171B0609F00CF496C0238534852750E8
:104F400031092730310508F08DC02585368523517C
:104F500031092F30310508F478C0258536852A506F
:104F600031092930310508F478C0063011050CF4F8
:104F70005DCD22EB38E061963FAF2EAF619753E0F5
:104F8000252E312C65ECC62E6DE9D62E6CE1E62E71
:104F900061E8F62E201631060CF07EC06196EEAD6B
:104FA000FFAD619765857685A184B28490E080E04D
:104FB0000E9459462B013C01B50190E080E00E941F
:104FC00059464B015C012DEC3CEC4CE45FE30E9444
:104FD000BA469B01AC01C301B2010E945446F0E005
:104FE000E0E087FD14C02DEC3CEC4CE45FE3C30132
:104FF000B2010E94BA469B01AC01C501B4010E94F6
:105000005446E2E0F0E087FD02C0E1E0F0E0A701F5
:10501000960163E971E080E091E00E9450486F01E1
:10502000FF0FEE08FF08C626D726E826F926FFEF71
:105030002F1A3F0A61962EAD3FAD61972E5F3F4F0D
:1050400061963FAF2EAF6197A5CF440F551F661FE6
:10505000771F41600296349667CF440F551F661F35
:10506000771FF8CFCD010197959587959093C90546
:105070008093C8050C972CF41092C9051092C805AE
:1050800074CF4093C4055093C5056093C6057093D3
:10509000C70584E090E0B9CCC092C405D092C505A4
:1050A000E092C605F092C70580E290E09093C905B2
:1050B0008093C8058FEF9FEFA8CC3093DE05209337
:1050C000DD056091D9057091DA058091DB0590913D
:1050D000DC052115310511F1032E000C440B550B95
:1050E0000E94B64820937705309378054093790560
:1050F00050937A05EFE9ED0DE730B0F40E2E000C79
:10510000FF0B8827E957F74D8F4F0C94D548C929D5
:10511000CB29BD29C129C329C529C7292091390215
:1051200030E050E040E0DCCF10927605F70181815D
:10513000833241F4809176058F5F809376058701F5
:105140000E5F1F4FF80180818E32F1F4C090770519
:10515000D0907805E0907905F0907A05C701B60106
:1051600022E030E040E050E00E94B648C20ED31E7C
:10517000E41EF51EC0927705D0927805E09279057D
:10518000F0927A050F5F1F4FF801808180538A30BB
:1051900008F003C1809375050F5F1F4FF8018081F0
:1051A0008C3211F40F5F1F4FE0917605EE2309F466
:1051B0004EC0C0907705D0907805E0907905F090CA
:1051C0007A05809175058450990B4CE0489F9001B9
:1051D000499F300D1124E20FF32FF11DEE0FFF1F39
:1051E000E257FD4FB701A601808191810E94CA0458
:1051F0000E94C307681979098A099B09C616D70650
:10520000E806F90620F50E94C30760937B057093BA
:105210007C0580937D0590937E0580916B0781309E
:1052200009F4C0C0823009F4C3C0811105C0809167
:105230006E008D7F80936E0060E080916A070E940F
:1052400060048AEE91E00E94B31210E000E0109337
:10525000D4060093D3060E94C3070091B6051091AF
:10526000B7052091B8053091B905601B710B820B11
:10527000930B6135710581059105F8F080916B07FD
:10528000813009F49BC0823009F49BC0811105C0B4
:1052900080916E008695817031F480914002811179
:1052A00093C00E94730E0E94C3076093B60570936B
:1052B000B7058093B8059093B90580914106909108
:1052C0004206892B21F080914006811106C0809111
:1052D000DF05811102C00E948A1B8CEC99E00E94BC
:1052E000B90B83EB99E00E94B90B8AE999E00E941F
:1052F000B90B8091DF058111EBC0109238068091C7
:10530000CC099091CD09181619063CF08091BE0584
:105310009091BF05019709F062C281E08093400639
:105320001092D4061092D30644E650E060E070E09C
:1053300088EE93E00E94CA0480912506882309F430
:10534000F4C00E944C23C05BDF4F0FB6F894DEBF61
:105350000FBECDBFDF91CF911F910F91FF90EF90C6
:10536000DF90CF90BF90AF909F908F907F906F9085
:105370005F904F903F902F90089581E08093760545
:10538000D5CE83E0FBCF85E0F9CF86E0F7CF88E08C
:10539000F5CF8AE0F3CF8CE0F1CF80913802809393
:1053A0007505FCCE80916F008D7F80936F0044CF98
:1053B000809170008D7F809370003ECF80916F0050
:1053C00069CF8091700066CF8091E20681116BCF2A
:1053D0000091810510918205F801EE0FFF1FE00F8B
:1053E000F11FDF01AA0FBB1FA051BD4F8D919C91F2
:1053F0004AE0489F9001499F300D1124809102029C
:1054000090910302280F391F309303022093020268
:10541000DF01AA0FBB1FAE50BD4F8D919C91489FDD
:10542000B001499F700D11248091AC059091AD059C
:10543000860F971F9093AD058093AC05EE0FFF1F6D
:10544000EC50FD4F60817181469F6001479FD00CF9
:1054500011244091AA055091AB05C40ED51ED092DF
:10546000AB05C092AA05D12CF12CE22ED82AB12C82
:10547000A12CB701A601C5010E949A02FFEFAF1A45
:10548000BF0A28E0A216B104A1F70E94B5068091D8
:105490007F059091800501969093800580937F050C
:1054A000499751F40F5F1F4F1093820500938105B8
:1054B0001092800510927F05809181059091820560
:1054C00006970CF4F0CE1092820510928105EBCE77
:1054D0000E94C3070091E0051091E1052091E205CB
:1054E0003091E305601B710B820B930B61367A4E92
:1054F0008105910508F403CF1092DF05E091410684
:10550000F0914206EE0FFF1FE059FC4F8081918120
:105510009093420680934106880F991FFC01EC5F2F
:10552000FD4F808180933806EACE0E94C3076093C6
:10553000E0057093E1058093E2059093E305809187
:1055400041069091420601968730910509F463C0A7
:105550009093420680934106209141063091420685
:105560008901000F111FF801EC5FFD4F80818093CE
:105570003806D9011197FD01EE0FFF1FEE5BFC4FBE
:10558000608171816115710509F41AC1AB01415047
:105590005109FA01EE0FFF1FEC5EFC4F0190F08104
:1055A000E02DAE17BF0709F00BC162307105C1F5E0
:1055B00088E1E6E7F2E0DE01119601900D928A950E
:1055C000E1F780915B0290915C0283709927892BAF
:1055D00021F48DE190E09C838B838091590290911E
:1055E0005A020197880F991FE1E0F0E0EC0FFD1FD0
:1055F0008E0F9F1F2091570230915802FC0180812D
:1056000091818217930764F48BE090E090934206B7
:105610008093410698CE10924206109241069CCF8C
:105620001092DF055093420640934106452BB9F492
:105630000E94760B7C010E94800B8C010E94880BDB
:105640004091530250915402609151027091520264
:105650009C0180914F02909150020E94520A8091C9
:105660004106909142060197B9F587E192E00E94C8
:10567000BF0880915702909158020E94BF1280E1AA
:1056800092E00E94BF088091590290915A020E94B4
:10569000BF12E0905B02F0905C02F0E3EF1AF8EFCB
:1056A000FF0A0091590210915A028090570290907F
:1056B00058020E94900B5C010E94980B6C010E94A2
:1056C000B10B9401A501B6010E94520A60915502E6
:1056D0008DE090E00E94E622809141069091420682
:1056E0000297C1F460915D0282E090E00E94E622A0
:1056F00060915F0283E090E00E94E6226091610287
:1057000084E090E00E94E6226091630286E090E0EF
:105710000E94E6228091410690914206039731F45F
:105720006091650281E090E00E94E622809141064E
:1057300090914206049731F4609167028BE090E00B
:105740000E94E6228091410690914206059739F425
:1057500060916902645F8CE090E00E94E622809193
:10576000410690914206069761F460916B028EE0CB
:1057700090E00E94E62260916D028FE090E00E942E
:10578000E6220E94760B5C010E94800B082F0E948B
:10579000880BD82E0E94900BF82E0E94980B182F81
:1057A0000E94B10B382FC50168EE73E00E9480485B
:1057B000E82E2D2D4F2D612F832F0E94000EC3CD7B
:1057C0002431310561F02A5031092230310538F099
:1057D0000E946415F801EF5BFD4F918380838091F7
:1057E000CC099091CD0997FD07C08091BE0590919D
:1057F000BF05019609F04FC244E650E060E070E05A
:1058000088EE93E00E94CA048091DF0581112EC1C9
:1058100000914106109142060E94C3076093E00583
:105820007093E1058093E2059093E305012B09F065
:105830001DC10E94900B18161906ACF40E94900B23
:1058400001E00A97B4F000E00E94900B18161906C8
:105850000CF04FC00E94900BBC01CE01875B9F4FA4
:105860000E94FF1326C00E94900B01E0873F9F4FCC
:1058700054F30E94900B18161906ACF50E94900B79
:10588000BC01CE018D5B9F4F0E94FF1366E474E064
:10589000CE01CD960E944B14BE016D5B7F4FCE01B1
:1058A000CD960E94C113BC01CE01875B9F4F0E9421
:1058B00042140E94980B181619060CF50E94980BBA
:1058C000FF24F3940A9714F1F12C0E94980B1816F8
:1058D00019060CF058C00E94980BBC01CE01C79667
:1058E0000E94FF1331C00E94900B91958195910900
:1058F000C7CF0E94900B919581959109ADCF0E94E1
:10590000980BFF24F394873F9F4FF4F20E94980B6B
:105910001816190694F50E94980BBC01CE01C19689
:105920000E94FF1366E474E0CE018B960E944B1434
:10593000BE016F5C7F4FCE018B960E94C113BC01EC
:10594000CE01C7960E9442140E94B10B1816190688
:1059500004F50E94B10B11E00A970CF110E00E94CF
:10596000B10B181619060CF0D5C20E94B10BBC0180
:10597000CE014F960E94FF1331C00E94980B919563
:1059800081959109CACF0E94980B919581959109B3
:10599000A4CF0E94B10B11E0873F9F4FFCF20E9401
:1059A000B10B181619060CF0AFC20E94B10BBC0166
:1059B000CE0149960E94FF1366E474E0CE01019681
:1059C0000E944B14BE01675E7F4FCE0101960E947C
:1059D000C113BC01CE014F960E944214BE01615E0C
:1059E0007F4FCE0185960E944214BE01695C7F4FB5
:1059F000CE0185960E94C113BE01675B7F4F0E9456
:105A0000C113BC0185EE99E00E942B14CE0185964E
:105A10000E945512CE014F960E945512112341F05B
:105A2000CE0101960E945512CE0149960E94551250
:105A3000CE01C7960E945512FF2041F0CE018B96F1
:105A40000E945512CE01C1960E945512CE01875B6D
:105A50009F4F0E945512002349F0CE01CD960E941F
:105A60005512CE018D5B9F4F0E94551280914106C9
:105A700090914206019709F0D5C00E94880B90933F
:105A80005802809357020E94800B90935A02809391
:105A900059020E94760B68EE73E00E948048BC01B8
:105AA00090935C0280935B022091550230915602E4
:105AB0000996232B09F041C277FF03C071956195C8
:105AC0007109439708F02CC2CE018D5B9F4F0E9455
:105AD000FF1366E474E0CE01CD960E944B14BE0124
