:100000000C94A4000C94CC000C94CC000C94CC0068
:100010000C94CC000C94CC000C94CC000C94F31FEA
:100020000C94CC000C94CC000C94CC000C944E207E
:100030000C94CC000C94CC000C94B3200C94CC0009
:100040000C94160E0C94CC000C94E70F0C94C10F7A
:100050000C94CC000C94CC000C94CC000C94CC00F0
:100060000C9459240C94CC00940196018A018C01C3
:100070008E019001920105097C09770AC50AF70AE9
:10008000410B350D350D350D760B9E0B9E0B9E0BE2
:10009000350D350D350D350D350DF70A410B81192F
:1000A00084197F198119841986198A199B190201EB
:1000B000004669726D776172652076657273696F4B
:1000C0006E3A200000000000240027002A000000F3
:1000D0000008000201000003040700000000000007
:1000E000000000000000250028002B000000000098
:1000F000230026002900040404040404040402026A
:100100000202020203030303030301020408102096
:100110004080010204081020010204081020426CF3
:1001200075653D00475245454E3D005245443D00F2
:100130005265616465642066726F6D20454550525A
:100140004F4D0000292C212D11241FBECFEFD8E0E8
:10015000DEBFCDBF27E0A6EFB3E001C01D92A13105
:10016000B207E1F713E0A0E0B1E0E2E0F5E602C09B
:1001700005900D92A63FB107D9F710E0C3EAD0E091
:1001800004C02197FE010E945A30C23AD107C9F734
:100190000E947B270C9474320C9400004F925F9263
:1001A0006F927F928F929F92AF92BF92CF92DF9287
:1001B000EF92FF920F931F93CF93DF93CDB7DEB7EC
:1001C000EC970FB6F894DEBF0FBECDBF0E940A0EAB
:1001D00020E137E240E050E00E941930672B682BA5
:1001E000692B29F48091850481110C94F60B1092EF
:1001F0006C0410926B0410926A04109269041092BD
:100200006804109267040091790410917A04D8016F
:100210008C91882309F42EC10E940A0EC090FC0321
:10022000D090FD03E090FE03F090FF03DC01CB01D2
:100230008C199D09AE09BF09C090F803D090F9034D
:10024000E090FA03F090FB03C816D906EA06FB0615
:1002500008F010C10E940A0E6B017C016093FC0340
:100260007093FD038093FE039093FF031092290681
:1002700010922806A801EAE08A01DA017C904F5F1B
:100280005F4F80ED870D20912806309129068A3036
:1002900080F4E29FB001E39F700D1124872D770C4D
:1002A000990BC097860F971F909329068093280675
:1002B000E3CF6091240670912506809126069091E7
:1002C00027062115310529F0032E000C440B550B90
:1002D00005C020915C0130E040E050E00E943B30DE
:1002E0002093F8033093F9034093FA035093FB03F0
:1002F000872D770C990BAA0BBB0BFC01E156F1097A
:10030000E730F10520F4EC5CFF4F0C945A3010926A
:10031000F7030FC081E00BC083E009C085E007C090
:1003200086E005C088E003C08AE001C08CE08093CD
:10033000F703F8018181833219F00F5F1F4F07C067
:100340008091F7038F5F8093F7030E5F1F4FD801F3
:100350008C918E3201F54090F8035090F903609033
:10036000FA037090FB03C301B20122E030E040E0E9
:1003700050E00E943B30D301C201820F931FA41FA3
:10038000B51F8093F8039093F903A093FA03B093F9
:10039000FB030F5F1F4FF801808180538A3028F4E0
:1003A0008093F6030F5F1F4F04C080915B01809321
:1003B000F6038091F603D8019C919C3211F40F5FF3
:1003C0001F4F2091F703222309F454C04090F803F3
:1003D0005090F9036090FA037090FB0390E004974B
:1003E0003CE0389FF001399FF00D1124E20FF11D20
:1003F000EE0FFF1FE558FE4FB301A20180819181EE
:100400000E9404140E940A0EDC01CB018C199D0984
:10041000AE09BF09481659066A067B0658F50E94C0
:100420000A0E6093FC037093FD038093FE03909388
:10043000FF038091F404813051F0823071F081111A
:1004400011C080916E008D7F80936E000BC08091F3
:100450006F008D7F80936F0005C0809170008D7F4D
:100460008093700060E08091F3040E94981390E004
:1004700080E002C0902F812F9093790480937A04BA
:100480000E940A0E00916304109164042091650497
:1004900030916604DC01CB01801B910BA20BB30BE6
:1004A0008997A105B10508F4A9C08091F4048130B1
:1004B00039F0823041F081110CC080916E0005C08E
:1004C00080916F0002C0809170008695817009F064
:1004D0008BC080913001811103C00E94961784C0A7
:1004E00080918804811180C000910204109103045E
:1004F000C801880F991F800F911FFC01EE0FFF1F8D
:10050000E352FE4F208131816AE0629FA001639F28
:10051000500D11242091040130910501420F531F09
:100520005093050140930401FC01EE0FFF1FE152BF
:10053000FE4F20813181629FF001639FF00D1124F5
:1005400020915804309159042E0F3F1F30935904C5
:1005500020935804880F991FFC01EF51FE4F8081B2
:100560009181689F2001699F500C1124809156044D
:1005700090915704480E591E5092570440925604C9
:10058000512C612C712C642A522AE12CF12CB301DC
:10059000A201C7010E944210BFEFEB1AFB0AE8E07C
:1005A000EE16F104A1F70E94AD1080910004909125
:1005B000010401969093010480930004499751F43B
:1005C0000F5F1F4F10930304009302041092010465
:1005D000109200048091020490910304069724F085
:1005E00010920304109202040E940A0E60936304A6
:1005F00070936404809365049093660480912A0646
:1006000090912B06892B21F0809162048111D3C235
:1006100080912C068111CFC28091160481110DC0EA
:100620000E940A0E609312047093130480931404C2
:100630009093150481E08093160480910A0481113F
:100640000DC00E940A0E6093060470930704809305
:1006500008049093090481E080930A040E940A0E22
:100660000091120410911304209114043091150488
:10067000DC01CB01801B910BA20BB30B009100019D
:10068000109101012091020130910301081719070F
:100690002A073B0708F06FC00E940A0E60931204FD
:1006A00070931304809314049093150480910404B0
:1006B00090910504009799F481E090E090932B06C7
:1006C00080932A0688E893E1A0E0B0E080930001DF
:1006D00090930101A0930201B09303011EC0019702
:1006E000E1F484E090E090932B0680932A0688E85A
:1006F00093E1A0E0B0E08093000190930101A0930A
:100700000201B093030180917804811106C082E058
:1007100090E09093050480930404809104049091E8
:1007200005048230910581F410922B0610922A065E
:1007300040E65AEE60E070E0409300015093010102
:1007400060930201709303010196833091052CF4AC
:10075000909305048093040404C010920504109241
:10076000040480916204882321F010922B061092D9
:100770002A06109262040E940A0E0091120410913F
:1007800013042091140430911504DC01CB01801B6B
:10079000910BA20BB30B803D9740A105B10508F06A
:1007A00008C20E940A0E00910604109107042091CD
:1007B000080430910904DC01CB01801B910BA20BD2
:1007C000B30B85369105A105B10508F4F4C10E946B
:1007D0000A0E6093060470930704809308049093B4
:1007E00009042091780480912A0690912B062223F7
:1007F00009F410C1892B89F5CE0149960E94002782
:1008000081E02091550130915601232B09F480E0BD
:100810000E946A19AB01BC01CE0101960E94FE192B
:10082000AE01475E5F4FBE016F5F7F4FCE014F96B7
:100830000E94DF1BBE01615E7F4F8EEF95E00E943C
:10084000F30ECE014F960E942C0FCE0101960E940E
:100850002C0FCE0149960E942C0F80912A06909170
:100860002B06019709F062C00E94712368EE73E0C5
:100870000E940530BC01CE018B960E94B2260E94D8
:100880007B23BC01CE0185960E94B2260E94832361
:10089000BC01CE0149960E94B226BE01675E7F4F21
:1008A000CE014F960E945D0FBE016B5D7F4FCE0162
:1008B0004F960E94B20EBE01655D7F4F0E94B20E40
:1008C000BC01CE01C1960E945D0FCE0101960E942F
:1008D0000027AE014F5C5F4FBE016F5F7F4FCE01BF
:1008E000C7960E94DF1BBE01695C7F4F8EEF95E0CB
:1008F0000E94F30ECE01C7960E942C0FCE010196E6
:100900000E942C0FCE01C1960E942C0FCE014F9653
:100910000E942C0FCE0149960E942C0FCE01859685
:100920000E942C0FCE018B960E942C0F80912A06DC
:1009300090912B06049709F03EC181E0209155016A
:1009400030915601232B09F480E00E946A19AB0113
:10095000BC01CE01C1960E94FE190E94712368EE6F
:1009600073E00E940530BC01CE0185960E94B2263C
:100970000E947B23BC01CE014F960E94B2260E94AA
:100980008323BC01CE0101960E94B226BE016F5F97
:100990007F4FCE0149960E945D0FBE01615E7F4F81
:1009A000CE0149960E94B20EBE016B5D7F4F0E9440
:1009B000B20EBC01CE018B960E945D0FAE014F5C62
:1009C0005F4FBE01655D7F4FCE01C7960E94DF1B62
:1009D000BE01695C7F4F8EEF95E00E94F30ECE0161
:1009E000C7960E942C0FCE018B960E942C0FCE0131
:1009F00049960E942C0FCE0101960E942C0FCE0129
:100A00004F960E942C0FCE0185960E942C0FCE018E
:100A1000C196CCC0892B09F062C0CE01C1960E945C
:100A200000270E94712368EE73E00E940530BC012C
:100A3000CE0185960E94B2260E947B23BC01CE0186
:100A40004F960E94B2260E948323BC01CE010196DC
:100A50000E94B226BE016F5F7F4FCE0149960E9471
:100A60005D0FBE01615E7F4FCE0149960E94B20EBE
:100A7000BE016B5D7F4F0E94B20EBC01CE018B9612
:100A80000E945D0FAE014F5C5F4FBE01655D7F4F01
:100A9000CE01C7960E94DF1BBE01695C7F4F8EEFBF
:100AA00095E00E94F30ECE01C7960E942C0FCE0156
:100AB0008B960E942C0FCE0149960E942C0FCE01DE
:100AC00001960E942C0FCE014F960E942C0FCE0152
:100AD00085960E942C0FCE01C1960E942C0F80910A
:100AE0002A0690912B06019709F065C00E94712398
:100AF00068EE73E00E940530BC01CE018B960E9427
:100B0000B2260E947B23BC01CE0185960E94B226AC
:100B10000E948323BC01CE0149960E94B226BE01E9
:100B2000675E7F4FCE014F960E945D0FBE016B5DE9
:100B30007F4FCE014F960E94B20EBE01655D7F4F82
:100B40000E94B20EBC01CE01C1960E945D0FCE0183
:100B500001960E940027AE014F5C5F4FBE016F5FA0
:100B60007F4FCE01C7960E94DF1BBE01695C7F4F9D
:100B70008EEF95E00E94F30ECE01C7960E942C0FD7
:100B8000CE0101960E942C0FCE01C1960E942C0F1F
:100B9000CE014F960E942C0FCE0149960E942C0F39
:100BA000CE0185960E942C0FCE018B960E942C0FB1
:100BB00002C0109233060E94A81785EE95E00E94AD
:100BC000A3238CEC95E00E94A32383EB95E00E9485
:100BD000A32380912C06811103C0109235062DC0ED
:100BE0000E940A0E00912D0610912E0620912F06CC
:100BF00030913006DC01CB01801B910BA20BB30BB3
:100C000081369A4EA105B105C0F010922C06E091F4
:100C10002A06F0912B06EE0FFF1FEF5AFD4F808141
:100C2000918190932B0680932A06880F991FFC01CF
:100C3000EA5FFE4F8081809335068091E5059091B3
:100C4000E605181619063CF080916B0490916C042F
:100C5000019709F0A5C081E08093620410927A04A4
:100C60001092790444E650E060E070E088EE93E092
:100C70000E9404140E940A0E60932D0670932E06A3
:100C800080932F069093300680912A0690912B0630
:100C90009C012F5F3F4F2530310529F030932B0603
:100CA00020932A0605C0029690932B0680932A066D
:100CB00080912A0690912B06069721F410922B061C
:100CC00010922A0640912A0650912B068A01000FA5
:100CD000111FF801EA5FFE4F808180933506DA012B
:100CE0001197FD01EE0FFF1FE75DFD4F60817181E0
:100CF0006115710509F445C09B0121503109F901C5
:100D0000EE0FFF1FEF5FFD4F0190F081E02DEA171E
:100D1000FB07B9F56230710509F086C588E1E3E6A5
:100D2000F1E0DE01119601900D928A95E1F7809134
:100D3000490190914A0183709927892B21F48DE113
:100D400090E09C838B834091450150914601E09156
:100D50004701F09148013197EE0FFF1F81E090E0CD
:100D60008C0F9D1FE80FF91F8081918184179507D3
:100D70000CF05AC58AE090E090932B0680932A06E7
:100D800074C64331510561F0495051094230510553
:100D900038F00E948925F801EF5CFE4F9183808333
:100DA0008091E5059091E60597FD07C080916B0461
:100DB00090916C04019609F003C144E650E060E0B4
:100DC00070E088EE93E00E94041480912C0681115B
:100DD0004DC00E940A0E60932D0670932E068093DC
:100DE0002F069093300680912A0690912B06892B2E
:100DF000E9F50E948B23BC01CE0185960E94B226A4
:100E00000E949323BC01CE014F960E94B2260E94FD
:100E10009B23BC01CE0101960E94B226BE016F5FEA
:100E20007F4FCE0149960E945D0FBE01615E7F4FEC
:100E3000CE0149960E94B20EBE016B5D7F4F0E94AB
:100E4000B20EBC018EEF95E00E94DC0ECE014996F9
:100E50000E942C0FCE0101960E942C0FCE014F96BE
:100E60000E942C0FCE0185960E942C0F80912A069D
:100E700090912B06019709F06AC00E9483239093FA
:100E80004601809345010E947B2390934801809303
:100E900047010E94712368EE73E00E940530BC0197
:100EA00090934A01809349018091430190914401BC
:100EB000892B89F4CE0185960E94B2266091470164
:100EC00070914801CE014F960E94B2266091450173
:100ED0007091460110C0CE0185960E94B2266091A5
:100EE000450170914601CE014F960E94B226609155
:100EF000470170914801CE0101960E94B226BE01C1
:100F00006F5F7F4FCE0149960E945D0FBE01615E0B
:100F10007F4FCE0149960E94B20EBE016B5D7F4F9E
:100F20000E94B20EBC018EEF95E00E94DC0ECE0155
:100F300049960E942C0FCE0101960E942C0FCE01E3
:100F40004F960E942C0FCE0185960E942C0FE091A7
:100F50002A06F0912B06EE0FFF1FEF5AFD4F20815E
:100F6000318130932B0620932A062D30310549F428
:100F700081E090E0909352018093510180E880934A
:100F8000340690912C0681E0892780932C068901F4
:100F9000000F111FF801EA5FFE4F80818093350634
:100FA000A901425151094230510550F02930310513
:100FB00039F00E948925F801EF5CFE4F9183808310
:100FC0008091CC059091CD05009739F4809169040A
:100FD00090916A04019721F507C090936104809372
:100FE00060041816190694F781E080936204109249
:100FF0007A041092790444E650E060E070E088EEF4
:1010000093E00E9404140E94541D80912C068111CB
:1010100007C01092880460E087E090E00E94872576
:101020008091600490916104019661F58091CE05F4
:10103000882341F11092370680912C06882329F1EC
:101040000E940A0E00915C0410915D0420915E04E0
:1010500030915F04DC01CB01801B910BA20BB30B21
:1010600087399105A105B10580F00E940A0E6093B1
:101070005C0470935D0480935E0490935F040E940F
:10108000541D03C081E0809337068091B305909191
:10109000B405009739F48091670490916804019732
:1010A000B1F507C090935B0480935A041816190693
:1010B00094F711E01093620410927A04109279046C
:1010C00044E650E060E070E088EE93E00E94041493
:1010D0000E94F41C80912C06811119C01093880481
:1010E00061E087E090E00E9487256091040188E03C
:1010F00090E00E9487256091580489E090E00E946A
:101100008725609156048AE090E00E9487258091AF
:101110005A0490915B04019661F58091B50588238E
:1011200041F11092360680912C06882329F10E9405
:101130000A0E0091520410915304209154043091EE
:101140005504DC01CB01801B910BA20BB30B87393B
:101150009105A105B10580F00E940A0E609352042A
:101160007093530480935404909355040E94F41C8C
:1011700003C081E08093360680912C06811139C02E
:101180008091CC059091CD0597FD06C080916904B2
:1011900090916A04019691F444E650E060E070E0BA
:1011A00088EE93E00E94041481E08093300161E0B6
:1011B00080E090E00E9487250E9434178091B3055B
:1011C0009091B40597FD06C08091670490916804E2
:1011D000019679F444E650E060E070E088EE93E038
:1011E0000E9404141092300160E080E090E00E94C0
:1011F0008725E0912A06F0912B06E431F10508F0ED
:1012000034C4E55CFF4F0C945A3080913306811151
:1012100035C00E940A0E00911E0410911F042091F7
:10122000200430912104DC01CB01801B910BA20B27
:10123000B30B893E9340A105B10578F00E940A0ED8
:1012400060931E0470931F048093200490932104E4
:10125000CE0101960E94002706C06EEF75E0CE0118
:1012600001960E945D0FBE016F5F7F4F8EEF95E08C
:101270000E94F30ECE0101960E942C0F809127044C
:1012800081110DC00E940A0E609323047093240400
:10129000809325049093260481E0809327040E9484
:1012A0000A0E00912304109124042091250430910A
:1012B0002604DC01CB01801B910BA20BB30B893EF2
:1012C0009340A105B10508F40BC10E940A0E60937A
:1012D0002304709324048093250490932604909112
:1012E000220481E0892780932204882311F080EC76
:1012F000F5C010923406F4C0809133068111EDC020
:1013000080914A04811113C00E940A0EDC01CB01B6
:1013100087519C4FAF4FBF4F809346049093470433
:10132000A0934804B093490481E080934A048091DB
:101330003E04811144C00E94712368EE73E00E9454
:101340000530BC01CE0101960E94B2260E947B238B
:10135000BC01CE0149960E94B2260E948323BC01A3
:10136000CE0185960E94B226BE016B5D7F4FCE01F5
:101370004F960E945D0FBE01675E7F4FCE014F9674
:101380000E94B20EBE016F5F7F4F0E94B20EBC0181
:1013900088E394E00E945D0F81E080933E04CE01DB
:1013A0004F960E942C0FCE0185960E942C0FCE01E5
:1013B00049960E942C0FCE0101960E942C0F80911D
:1013C0003004811107C08091430180932F0481E094
:1013D000809330040E940A0E009146041091470445
:1013E0002091480430914904DC01CB01801B910B12
:1013F000A20BB30B893E9340A105B10558F480912F
:101400002F0490E02091430130914401821793070B
:1014100009F452C00E940A0E609346047093470478
:101420008093480490934904809143019091440132
:10143000892B09F005C30E94712368EE73E00E94B6
:101440000530BC01CE0101960E94B2260E947B238A
:10145000BC01CE0149960E94B2260E948323BC01A2
:10146000CE0185960E94B226BE016B5D7F4FCE01F4
:101470004F960E945D0FBE01675E7F4FCE014F9673
:101480000E94B20EBE016F5F7F4F0E94B20EBC0180
:1014900088E394E00E94DC0ECE014F960E942C0F50
:1014A000CE0185960E942C0FCE0149960E942C0FEA
:1014B000CE0101960E942C0F68E374E0CE010196E4
:1014C0000E945D0FBE016F5F7F4F8EEF95E00E941F
:1014D000F30ECE0101960E942C0F80E48093340617
:1014E0000E94971C1092320610923106BEC2609183
:1014F0004F0170915001CE0185960E94B2266091F5
:101500004D0170914E01CE014F960E94B22660911E
:101510004B0170914C01CE0101960E94B226BE0192
:101520006F5F7F4FCE0149960E945D0FBE01615EE5
:101530007F4FCE0149960E94B20EBE016B5D7F4F78
:101540000E94B20EBC018EEF95E00E94DC0ECE012F
:1015500049960E942C0FCE0101960E942C0FCE01BD
:101560004F960E942C0FCE0185960E942C0F109250
:1015700032061092310680915101909152010197EB
:1015800089F580E8809334062FC0609153017091F3
:1015900054014AE0CE0149960E94310F66E373E0A0
:1015A000CE0101960E94660FBE01675E7F4FCE019D
:1015B00001960E94B20E66E373E00E94990EBC0190
:1015C0008EEF95E00E94DC0ECE0101960E942C0F5A
:1015D000CE0149960E942C0F83E390E0909332064F
:1015E00080933106109234060E94971C3EC280916F
:1015F0003306811135C081E02091550130915601AB
:10160000232B09F480E00E946A194B015C01AB01B5
:10161000BC01CE0101960E94FE19BE016F5F7F4F93
:101620008EEF95E00E94F30ECE0101960E942C0FE2
:101630008091550190915601892B51F481E390E0FE
:10164000909332068093310680E48093340608C07C
:1016500083E290E090933206809331061092340634
:1016600020E030E0A901C501B4010E94B22D9091A3
:10167000340687FF02C0906801C09F7790933406BC
:10168000F4C16091570170915801CE0101960E94FA
:10169000B226BE016F5F7F4FCE0149960E945D0F5B
:1016A00064E373E0CE0149960E94990EBC018EEF6F
:1016B00095E00E94DC0ECE0149960E942C0FCE01CF
:1016C00001960E942C0F8FE090E090933206809359
:1016D0003106809157019091580197FD03C01092F7
:1016E0003406C3C180E880933406BFC180914301B2
:1016F00090914401892B79F46DE073E08EEF95E0D1
:101700000E94C50E83E090E090931B0180931A0124
:101710008CE090E00EC064E173E08EEF95E00E94F3
:10172000C50E8CE090E090931B0180931A0183E03A
:1017300090E090931D0180931C0197C1809143011B
:10174000909144016091490170914A01892B89F47B
:10175000CE0185960E94B2266091470170914801A2
:10176000CE014F960E94B2266091450170914601CC
:1017700010C0CE0185960E94B226609145017091FD
:101780004601CE014F960E94B226609147017091AA
:101790004801CE0101960E94B226BE016F5F7F4FC5
:1017A000CE0149960E945D0FBE01615E7F4FCE0162
:1017B00049960E94B20EBE016B5D7F4F0E94B20E31
:1017C000BC018EEF95E00E94DC0ECE0149960E948E
:1017D0002C0FCE0101960E942C0FCE014F960E9435
:1017E0002C0FCE0185960E942C0F3FC10E94DF2551
:1017F000E0908304F09084040091810410918204AD
:1018000020917F0430918004409186045091870498
:1018100060917D0470917E0480917B0490917C04A2
:101820000E9418210C94F70010922C0630932B067E
:1018300020932A06232BB9F40E9471237C010E9475
:101840007B238C010E9483239C0140914101509194
:10185000420160913F017091400180913D01909162
:101860003E010E94182180912A0690912B06019733
:1018700019F5E0904901F0904A0190E3E91A98EFD8
:10188000F90A00914701109148018090450190901C
:1018900046010E948B235C010E9493236C010E94ED
:1018A0009B239401A501B6010E9418216091430178
:1018B0008DE090E00E94872580912A0690912B066A
:1018C0000297C1F460914B0182E090E00E9487256D
:1018D00060914D0183E090E00E94872560914F0167
:1018E00084E090E00E9487256091510186E090E0BD
:1018F0000E94872580912A0690912B06039731F448
:101900006091530181E090E00E94872580912A0632
:1019100090912B06049731F4609155018BE090E093
:101920000E94872580912A0690912B06059739F40D
:1019300060915701645F8CE090E00E9487250E94CF
:10194000712368EE73E00E940530082F0E947B230C
:10195000F82E0E948323E82E0E948B23B82E0E942B
:101960009323C82E0E949B23D82E81E08093C3042A
:1019700088E68093E5041092C4041092E60460E0C7
:1019800082E995E00E940F1F1AE08B2D612F0E94C3
:10199000E52F692FA0E18A9F600D112482E995E06F
:1019A0000E940F1F8C2D612F0E94E52F692FB0E13F
:1019B0008B9F600D112482E995E00E940F1F8D2DF1
:1019C000612F0E94E52F692FE0E18E9F600D1124A9
:1019D00082E995E00E940F1F61E082E995E00E9494
:1019E0000F1F8E2D612F0E94E52F692FF0E18F9F31
:1019F000600D112482E995E00E940F1F8F2D612F49
:101A00000E94E52F692F20E1829F600D112482E959
:101A100095E00E940F1F802F612F0E94E52F692FF4
:101A2000A0E18A9F600D112482E995E00E940F1FBA
:101A300060E082E995E00E940F1F0E94121315C01A
:101A40000E94712368EE73E00E940530BC01CE0154
:101A500001960E94B2260E948323BC01CE014996C2
:101A60000E94B2260E947B23FACCEC960FB6F89423
:101A7000DEBF0FBECDBFDF91CF911F910F91FF90C1
:101A8000EF90DF90CF90BF90AF909F908F907F901E
:101A90006F905F904F9008958EBD00000DB407FECB
:101AA000FDCF8EB508950895CF92DF92EF92FF9209
:101AB0000F931F93CF93DF936C017A018B01C0E0EA
:101AC000D0E0CE15DF0589F0D8016D918D01D601EA
:101AD000ED91FC910190F081E02DC6010995892BD3
:101AE00011F47E0102C02196ECCFC701DF91CF91A6
:101AF0001F910F91FF90EF90DF90CF9008950E947B
:101B00005F32CF93DF93EC0188819981009711F0C8
:101B10000E94FD30198218821D821C821B821A824B
:101B2000DF91CF9108950F931F93CF93DF93EC0133
:101B300088819981009729F02A813B8126173707F0
:101B400088F48B016F5F7F4F0E949531009761F0A1
:101B5000998388831B830A832C813D81232B11F475
:101B6000FC01108281E001C080E0DF91CF911F91E4
:101B70000F910895EF92FF920F931F93CF93DF93EE
:101B8000EC017B018A01BA010E94930D811104C00E
:101B9000CE010E94810D07C01D830C83B70188818F
:101BA00099810E946D32CE01DF91CF911F910F91EB
:101BB000FF90EF90089585EF94E00E946B1E21E066
:101BC000892B09F420E0822F08953FB7F894809183
:101BD000980490919904A0919A04B0919B0426B521
:101BE000A89B05C02F3F19F00196A11DB11D3FBF55
:101BF000BA2FA92F982F8827820F911DA11DB11DE3
:101C0000BC01CD0142E0660F771F881F991F4A95DE
:101C1000D1F708952FB7F8946091940470919504CA
:101C200080919604909197042FBF08951F920F9270
:101C30000FB60F9211242F933F938F939F93AF93DF
:101C4000BF938091940490919504A0919604B091D3
:101C500097043091930423E0230F2D3720F401964D
:101C6000A11DB11D05C026E8230F0296A11DB11DBF
:101C7000209393048093940490939504A0939604E6
:101C8000B09397048091980490919904A0919A043C
:101C9000B0919B040196A11DB11D8093980490936F
:101CA0009904A0939A04B0939B04BF91AF919F9124
:101CB0008F913F912F910F900FBE0F901F9018950D
:101CC000FC0180819181009711F00C94362D60E029
:101CD00070E0CB010895EF92FF920F931F93CF9383
:101CE000DF93FC01248135816115710511F480E0D9
:101CF00019C041155105A9F07B01EC018A01020FC1
:101D0000131FB8010E94930D882389F3288139811C
:101D10008C819D81B701820F931F0E946D321D83BC
:101D20000C8381E0DF91CF911F910F91FF90EF9095
:101D30000895CF93DF93EC016115710561F0FB010C
:101D400001900020E9F73197AF01461B570B0E9425
:101D50006B0E811103C0CE010E94810DCE01DF9177
:101D6000CF910895CF93DF93EC01FB01448155811E
:101D7000608171810E946B0E811103C0CE010E94AF
:101D8000810DCE01DF91CF910895CF93DF93EC01C8
:101D90006115710559F0FB0101900020E9F73197B9
:101DA000AF01461B570B0E94BA0D02C00E94810D65
:101DB000CE01DF91CF910895CF93DF93EC01FB012A
:101DC0008617970761F0608171816115710529F0AF
:101DD000448155810E94BA0D02C00E94810DCE013E
:101DE000DF91CF9108950F931F93CF93DF938C01D1
:101DF000EB01FC01808191810097B1F068817981CC
:101E00006115710579F0428153812C813D81421722
:101E1000530740F00E946D328C819D81F8019583BB
:101E2000848313C00E94FD3088819981F8019183D9
:101E300080838A819B81938382838C819D8195831A
:101E40008483198218821B821A821D821C82DF9170
:101E5000CF911F910F910895FC01808191810C9485
:101E6000FD300F931F93CF93DF93CDB7DEB762970B
:101E70000FB6F894DEBF0FBECDBF8C01CB01F801C9
:101E800011821082138212821582148250E0BE01E8
:101E90006F5F7F4F0E945D2DBE016F5F7F4FC80156
:101EA0000E94C50E62960FB6F894DEBF0FBECDBF7E
:101EB000DF91CF911F910F910895FC011182108243
:101EC00013821282158214820C94DC0EFC011182A2
:101ED000108213821282158214826115710551F0ED
:101EE000FB0101900020E9F73197AF01461B570B2A
:101EF0000C94BA0D0895BF92CF92DF92EF92FF92A9
:101F00000F931F93CF93DF937C016B018A01E9014B
:101F10002417350720F4812F8901C42FD82F6FE1B2
:101F200073E0C7010E94660FD60114968D919C91B3
:101F3000159708171907D0F48C179D0708F4EC01C2
:101F4000D601ED91FC911197EC0FFD1FB08010822E
:101F50004D915C91BA01600F711FC7010E94C50EBF
:101F6000D601ED91FC91EC0FFD1FB082C701DF910E
:101F7000CF911F910F91FF90EF90DF90CF90BF9086
:101F800008951F920F920FB60F9211242F933F9333
:101F90004F935F936F937F938F939F93AF93BF9371
:101FA000EF93FF9385EF94E00E94691FFF91EF91FB
:101FB000BF91AF919F918F917F916F915F914F9161
:101FC0003F912F910F900FBE0F901F9018951F9269
:101FD0000F920FB60F9211242F938F939F93EF932D
:101FE000FF93E0910505F09106058081E0910B05D6
:101FF000F0910C0582FD12C0908180910E058F5FDB
:102000008F7320910F05821751F0E0910E05F0E0DB
:10201000EB50FB4F958F80930E0501C08081FF919F
:10202000EF919F918F912F910F900FBE0F901F9066
:102030001895833081F028F4813099F08230A1F036
:1020400008958730A9F08830B9F08430D1F48091B8
:1020500080008F7D03C0809180008F778093800007
:10206000089584B58F7702C084B58F7D84BD0895AF
:102070008091B0008F7703C08091B0008F7D8093F6
:10208000B00008958F929F92AF92BF92CF92DF924D
:10209000EF92FF922091A0053091A105821793073E
:1020A00008F052C04B01AA24BB24E82DC52ED62E21
:1020B000E72EFF24FC2D342F2091A505222361F06B
:1020C000829E40011124E92DC29E60011124FD2D44
:1020D000429FD00111243B2FF090AB05E090A80562
:1020E000A091A605B091A705FE1008C0AC01440F51
:1020F000551F840F951F8A0F9B1F14C0880F991FAF
:10210000880F991F8A0F9B1F472F55276627772710
:10211000DC01AF0DB11D222321F0429FA00111244B
:10212000452F4C932091A805DC01A20FB11DEC9323
:102130002091A905DC01A20FB11DFC932091AA05F5
:10214000FC01E20FF11D3083FF90EF90DF90CF9004
:10215000BF90AF909F908F9008950F931F93CF9350
:10216000DF93CDB7DEB729970FB6F894DEBF0FBE69
:10217000CDBF8091A6059091A705892B09F4A2C037
:102180000E94E50D0091AC051091AD052091AE05C2
:102190003091AF05DC01CB01801B910BA20BB30B7F
:1021A0008C329140A105B10558F3F8948091A205B5
:1021B0009091A3059A838983E091A605F091A705E4
:1021C000DF0111968081898790919E05E091B0058D
:1021D000F091B1058091B205992309F42EC0908148
:1021E000982B98879081809589238F838F818C830A
:1021F00088E08B8358856F8149853B812C8189815B
:102200009A81508347FD252F3A952083262F39F058
:10221000441F00C000006083000000C0F2CF38E01F
:102220004D9160830000019761F7F093B105E09351
:10223000B00549873B832C8338C09081982B9887C1
:102240009081809589238F838F818E8388E08D8311
:1022500058856F8149853D812E8189819A8150837E
:1022600047FD252F00C000C0208300C000C000C073
:1022700000C000C060830000262F3A9541F0441F43
:10228000000000C000C000C000C000C0E8CF38E0BF
:102290004D9100C0608300C0019709F7F093B1052C
:1022A000E093B00549873D832E839A838983789490
:1022B0000E94E50D6093AC057093AD058093AE056B
:1022C0009093AF0529960FB6F894DEBF0FBECDBF31
:1022D000DF91CF911F910F91089580910406E091B5
:1022E0000506F0910606F8949181982B918322813E
:1022F000982F909529232283A7E0B0E01197F1F75A
:10230000218192239183A3E2B0E01197F1F79081AC
:102310007894EFE7F0E03197F1F7982381E009F442
:1023200080E0089590910406E0910506F09106067C
:10233000392F309580FF13C0F8942281832F822398
:1023400082838181892B8183A3E2B0E01197F1F729
:102350008281982B9283789487E890E012C0F89459
:102360002281832F822382838181892B8183AFEA1B
:10237000B0E01197F1F78281982B928378948FE0E7
:1023800090E00197F1F708950F931F93CF93DF9398
:10239000082FC8E0D0E011E081E0912F902309F4EC
:1023A00080E00E949211110F2197B1F7F894E0910B
:1023B0000506F09106069181809104068095982388
:1023C0009183E0910506F09106069281892382832C
:1023D0007894DF91CF911F910F9108959091040609
:1023E000E0910506F0910606F8948181292F209549
:1023F0008223818378948DE743E050E0815021F17E
:10240000DA011197F1F730813923C1F3F894828111
:10241000822382838181892B81837894ABE7B7E023
:102420001197F1F7F894818128232183A3E1B1E08A
:102430001197F1F78081982381E009F080E078948A
:10244000E3E6F6E03197F1F708958F929F92AF920D
:10245000BF92CF92DF92EF92FF920E94E50D4B0167
:102460005C0188EEC82E83E0D82EE12CF12C0E946E
:10247000E50DDC01CB0188199909AA09BB09883E41
:102480009340A105B10558F021E0C21AD108E10836
:10249000F10888EE880E83E0981EA11CB11CC114BF
:1024A000D104E104F10419F7FF90EF90DF90CF9091
:1024B000BF90AF909F908F900895009769F0FC01B6
:1024C00001900020E9F73197AF01481B590BBC017F
:1024D00085EF94E00C94540D80E090E008950F9304
:1024E0001F93CF93DF938C01C0E0D0E0F801EC0F95
:1024F000FD1F6491662371F0E091F504F091F604FC
:102500000190F081E02D85EF94E00995892B11F081
:102510002196ECCFCE01DF91CF911F910F910895BD
:102520008F929F92AF92BF92CF92DF92EF92FF92E3
:102530000F931F93CF93DF93CDB7DEB7A1970FB65D
:10254000F894DEBF0FBECDBF6C01990FEE08FF08F7
:10255000F7FE31C0E091F504F091F6040190F081AE
:10256000E02D6DE285EF94E009958C012227332759
:10257000A9012C193D094E095F0919A2CE018196C6
:102580007C019AE0892E912CA12CB12CCA01B901B1
:10259000A50194010E941930605DF70162937F01EB
:1025A000211531054105510589F7CF010E945D12C2
:1025B000080F191F1EC0A701960119A28E010F5DF9
:1025C0001F4F8AE0C82ED12CE12CF12CCA01B90191
:1025D000A70196010E941930605DF80162938F0196
:1025E000211531054105510589F7CF010E945D1282
:1025F0008C018DE193E00E945D12800F911FA196E6
:102600000FB6F894DEBF0FBECDBFDF91CF911F9103
:102610000F91FF90EF90DF90CF90BF90AF909F9081
:102620008F9008952091E6049091E504213208F0FE
:102630004AC08091C2048111FCCF32E03093C204C1
:1026400031E03093C1043FEF3093C0041092BF04D7
:102650002093BE04A5ECB4E04EE954E0FA013E2F0D
:10266000341B321718F43D913193F9CF10929D0429
:1026700020919D04990F922B90939D0490919C041E
:10268000913061F410929C0490919D049093BB0052
:102690009091BC0093FDF8CF95EC01C095EE90931E
:1026A000BC009091C2049230E1F39091C0049F3F2E
:1026B00079F08091C004803241F08091C004803371
:1026C00031F084E005C081E003C082E001C083E016
:1026D0001092C4041092E6041092C3040895CF939C
:1026E000DF93282F30E0F901E253FF4F8491F90185
:1026F000E65FFE4FD491F901EA50FF4FC491CC231D
:1027000091F081110E941910EC2FF0E0EE0FFF1FE5
:10271000E451FF4FA591B491EC91ED2381E090E05D
:1027200021F480E002C080E090E0DF91CF91089535
:102730001F93CF93DF93282F30E0F901E253FF4F2F
:102740008491F901E65FFE4FD491F901EA50FF4F01
:10275000C491CC23C9F0162F81110E941910EC2FBF
:10276000F0E0EE0FFF1FEE51FF4FA591B4918FB730
:10277000F894111105C09C91ED2FE095E92302C05A
:10278000EC91ED2BEC938FBFDF91CF911F910895CA
:10279000CF93DF9390E0FC01E65FFE4F2491FC01B4
:1027A000EA50FF4F8491882361F190E0880F991FD0
:1027B000FC01EC53FF4FC591D491FC01EE51FF4F4A
:1027C000A591B491611109C09FB7F89488812095B3
:1027D00082238883EC912E230BC0623061F49FB773
:1027E000F8943881822F809583238883EC912E2B57
:1027F0002C939FBF06C08FB7F894E8812E2B2883B7
:102800008FBFDF91CF9108953F924F925F926F9269
:102810007F928F929F92AF92BF92CF92DF92EF9270
:10282000FF920F931F93CF93DF9300D000D0CDB7CB
:10283000DEB72091F40427FDAAC149835A836B8334
:102840007C838C0161E08091F3040E94C813309076
:10285000F404832D8D7F4801A12CB12C09F0B7C061
:1028600060E072E18AE790E0A50194010E943B30AC
:1028700029013A0169017A0121E0C21AD108E1086F
:10288000F1088FEFC816D104E104F10409F008F44F
:102890004CC060E472E48FE090E0A50194010E94D6
:1028A0003B3069017A0191E0C91AD108E108F108C9
:1028B000A2E03A1220C0BFEFCB16D104E104F1042C
:1028C00009F008F462C160E970ED83E090E0A501D1
:1028D00094010E943B3069017A01E1E0CE1AD108EF
:1028E000E108F108FFEFCF16D104E104F10409F08B
:1028F000C0F583E065C02FEFC216D104E104F104F6
:10290000B1F0A8F068E478EE81E090E0A5019401D0
:102910000E943B3069017A0181E0C81AD108E108C0
:10292000F108332009F4D9C027C181E001C082E059
:10293000332091F045C0D301C2012AE0B595A79597
:10294000979587952A95D1F76C017D01E1E0CE1A24
:10295000D108E108F10885E095B5987F892B85BD00
:1029600066C068E478EE81E090E0A50194010E94E1
:102970003B3069017A01B1E0CB1AD108E108F108D6
:10298000EFEFCE16D104E104F10409F008F4A3C07E
:1029900064E274EF80E090E0A50194010E943B3076
:1029A00069017A0191E0C91AD108E108F108AFEF95
:1029B000CA16D104E104F10411F008F0B0C085E0BA
:1029C0009091B100987F892B8093B10030C060E076
:1029D00072E18AE790E0A50194010E943B30690111
:1029E0007A01F1E0CF1AD108E108F108C114D1044D
:1029F00021E0E206F10488F068E478EE81E090E0FE
:102A0000A50194010E943B3069017A0181E0C81A56
:102A1000D108E108F10893E001C091E0A1E03A1289
:102A200006C080918100887F892B809381008981F5
:102A30009A81AB81BC81892B8A2B8B2B81F0D801A9
:102A4000AA0FBB1F29813A814B815C810E94EC2E29
:102A500028EE33E040E050E00E94193003C02FEF31
:102A60003FEFA90191E03916A1F0A2E03A1619F161
:102A700031108DC0C7BC2093EF043093F004409315
:102A8000F1045093F20480916E00826080936E0096
:102A90007EC0D0928900C09288002093EB043093CE
:102AA000EC044093ED045093EE0480916F0082603B
:102AB00080936F006CC0C092B3002093E704309302
:102AC000E8044093E9045093EA0480917000826026
:102AD000809370005CC084E073CF8FEFC816D10480
:102AE000E104F104D1F0C8F062E17AE780E090E01F
:102AF000A50194010E943B3069017A01F1E0CF1AEF
:102B0000D108E108F1082FEFC216D104E104F10465
:102B100011F008F010CF84E01FCF83E01DCF62E1F9
:102B20007AE780E090E0A50194010E943B306901C2
:102B30007A0191E0C91AD108E108F108AFEFCA168D
:102B4000D104E104F104B1F0A8F0D301C2014AE0DC
:102B5000B595A795979587954A95D1F76C017D0115
:102B6000E1E0CE1AD108E108F108332009F4F3CEF0
:102B700087E026CF86E0DCCEBFEFCB16D104E104A0
:102B8000F10409F060F684E0D3CE82E019CF0F9013
:102B90000F900F900F90DF91CF911F910F91FF90A9
:102BA000EF90DF90CF90BF90AF909F908F907F90ED
:102BB0006F905F904F903F9008954091870650919D
:102BC000880620918506309186064217530719F032
:102BD00080E09CE302C08FEF9FEF4F5F5F4F463076
:102BE000510529F050938806409387060895109266
:102BF0008806109287062F5F3F4F2630310529F057
:102C000030938606209385060895109286061092CA
:102C100085060895CF92DF92EF92FF921F93CF9394
:102C2000DF9390913706911103C08FEF9FEF72C031
:102C3000909136069923C9F3182FC0913506D0E03C
:102C400080917D0681110DC00E940A0E6093790665
:102C500070937A0680937B0690937C0681E0809344
:102C60007D060E940A0EC0907906D0907A06E09008
:102C70007B06F0907C06DC01CB018C199D09AE0926
:102C8000BF098D329140A105B105D8F00E940A0E0E
:102C90006093790670937A0680937B0690937C0606
:102CA0008091780691E0982790937806992329F0EF
:102CB000109277061092760604C0D0937706C093E0
:102CC00076062091760630917706209530954091D2
:102CD000340650E02423352326FF04C081E080938E
:102CE000750602C01092750627FF04C081E080932C
:102CF000740602C01092740680917806882309F445
:102D000094CF02C0D595C7951A95E2F7C0FF8DCF35
:102D100080E09CE3DF91CF911F91FF90EF90DF90D7
:102D2000CF9008950F931F93CF93DF93CDB7DEB766
:102D300068970FB6F894DEBF0FBECDBF8B0183300E
:102D400091F4209102063091030642E050E06EEFCC
:102D500075E0CE010D960E947B0FB801CE01019661
:102D60000E94B22655C08C3009F042C02091020664
:102D70003091030644E050E06EEF75E0CE014396DB
:102D80000E947B0FB801CE010D960E94B22622E070
:102D900030E040E050E06EEF75E0CE0101960E9419
:102DA0007B0FBE016F5F7F4FCE0107960E945D0FC4
:102DB000BE01635F7F4FCE0107960E94B20EBE0137
:102DC0006D5E7F4F0E94B20EBC018EEF95E00E94B7
:102DD000DC0ECE0107960E942C0FCE0101960E94B8
:102DE0002C0FCE010D960E942C0FCE0143962DC0C4
:102DF000803369F5CE010D960E94B22624E030E0C2
:102E000040E050E06EEF75E0CE0101960E947B0F2E
:102E1000BE016F5F7F4FCE0107960E945D0FBE011E
:102E2000635F7F4FCE0107960E94B20EBC018EEF0A
:102E300095E00E94DC0ECE0107960E942C0FCE0179
:102E400001960E942C0FCE010D960E942C0F6896C1
:102E50000FB6F894DEBF0FBECDBFDF91CF911F91AB
:102E60000F9108950C94D62E8F929F92AF92BF929D
:102E7000CF92DF92EF92FF920F931F93CF93DF9346
:102E800088E090E00E943217982EA82EB12C89E09D
:102E900090E00E943217C82E082F10E08AE090E0E0
:102EA0000E943217C82FD0E0D12CE12CF12CFE2C3F
:102EB000ED2CDC2CCC24E928C82A812C912CB701DC
:102EC000A601C4010E9442108FEF881A980A88E078
:102ED00088169104A1F70E94AD1080E391E00E9452
:102EE0006F128DE193E00E945D128BE291E00E94EF
:102EF0006F12C5010E94901284E291E00E946F124D
:102F0000C8010E9490128EE191E00E946F12CE01E2
:102F1000DF91CF911F910F91FF90EF90DF90CF90B5
:102F2000BF90AF909F908F900C949012CF93DF93AF
:102F3000C0E0D0E040E050E0BA01CE010E94421073
:102F40002196C830D105B1F7DF91CF910C94AD1027
:102F50002F923F924F925F926F927F928F929F92A9
:102F6000AF92BF92CF92DF92EF92FF920F931F9397
:102F7000CF93DF93CDB7DEB728970FB6F894DEBFB7
:102F80000FBECDBF0E94E50D609370067093710671
:102F9000809372069093730600916C0610916D06F3
:102FA00020916E0630916F066B017C01C01AD10A28
:102FB000E20AF30A40EDC41647E0D406E104F10446
:102FC00008F46FC160936C0670936D0680936E0673
:102FD00090936F068EEF95E00E94600E6B017C016E
:102FE00060E08AE00E9498138AE0882E912CA12C40
:102FF000B12CC701B601A50194010E943B30660FB8
:10300000771FFB01E351FD4FC080D180DA82C98276
:1030100085E090E02B833C834D835E830E940A16FB
:1030200098878F830E94DD157C012B813C814D8127
:103030005E81CA01B901A50194010E943B30660F6F
:10304000771FFB01E351FD4F6080718084E090E0C9
:103050002B833C834D835E830E940A168C010E9461
:10306000DD156C012B813C814D815E81CA01B90166
:10307000A50194010E943B3019012A01660F771FB8
:10308000FB01E351FD4F8080918083E090E00E943E
:103090000A165C010E94DD150C211D210621172155
:1030A00020E030E0AAE0000F111F221F331FAA9575
:1030B000D1F78A219B21AC014821592160E070E0C1
:1030C00048015901842A952AA62AB72ACF80D88494
:1030D000EC20FD20C980DA80EC20FD20A70160E013
:1030E00070E0B4E1440F551F661F771FBA95D1F702
:1030F000842A952AA62AB72A80917506882319F072
:103100006894B6F802C0E894B6F8809174068823F3
:1031100019F06894B7F802C0E894B7F88B2D0E94B4
:103120004C0D8A2D0E944C0D892D0E944C0D882D2E
:103130000E944C0D8AE0C82ED12CE12CF12CC2014A
:10314000B101A70196010E943B30660F771FFB017A
:10315000E351FD4F4080518082E090E02B833C831F
:103160004D835E830E940A165C010E94DD158C016E
:103170002B813C814D815E81CA01B901A701960175
:103180000E943B30660F771FFB01E351FD4F6080CB
:10319000718081E090E02B833C834D835E830E94AD
:1031A0000A164C010E94DD1515012022312224202F
:1031B0003520412C512CF4E1220C331C441C551CAD
:1031C000FA95D1F78821992186219721A0E0B0E0D6
:1031D0001AE0880F991FAA1FBB1F1A95D1F7520139
:1031E0004101882A992AAA2ABB2A2B813C814D8138
:1031F0005E81CA01B901A70196010E943B30660FAA
:10320000771FFB01E351FD4FE080F18080E090E00B
:103210000E940A168C010E94DD15802391238E21C5
:103220009F21A0E0B0E0882A992AAA2ABB2A80918F
:103230007506882319F06894B6F802C0E894B6F8C9
:1032400080917406882319F06894B7F802C0E89456
:10325000B7F88B2D0E944C0D8A2D0E944C0D892DA4
:103260000E944C0D882D0E944C0D61E08AE028964A
:103270000FB6F894DEBF0FBECDBFDF91CF911F9187
:103280000F91FF90EF90DF90CF90BF90AF909F9005
:103290008F907F906F905F904F903F902F900C9405
:1032A000981328960FB6F894DEBF0FBECDBFDF91FE
:1032B000CF911F910F91FF90EF90DF90CF90BF9033
:1032C000AF909F908F907F906F905F904F903F90C6
:1032D0002F900895DF92EF92FF920F931F93CF9359
:1032E000DF93C0916A06D0916B06C830D10508F013
:1032F00068C0082FFE01E15BFF4F0C945A3084E454
:1033000006C00E94EE115DC08CEC01C08EEB0E94E5
:10331000C41157C028E0E22EF12C01E010E00E9419
:103320006D118111102B000F81E0E81AF108B9F737
:103330001093680646C098E0E92EF12CDD24D39462
:1033400010E00E946D1181111D29DD0C81E0E81A49
:10335000F108B9F710936906612F70E0762F6627A0
:1033600080916806682B6F3F8FEF780711F460E05B
:1033700070E0072E000C880B990B0E94B92D20E0FD
:1033800030E040E85DE30E94182E002361F026E65D
:1033900036E646EE5FE30E94182E20E030E040E083
:1033A00052E40E943E2F20E030E040E251E40E94CF
:1033B000182E60936406709365068093660690935A
:1033C00067062196C830D10529F0D0936B06C093CB
:1033D0006A0604C010926B0610926A066091640639
:1033E000709165068091660690916706DF91CF9196
:1033F0001F910F91FF90EF90DF9008958F929F9211
:10340000AF92BF92CF92DF92EF92FF920F931F93F2
:10341000CF93DF93CDB7DEB72C970FB6F894DEBF0E
:103420000FBECDBF8C016A017B0180915C068111CA
:1034300013C00E940A0EDC01CB01845B9B4FAF4F8F
:10344000BF4F8093580690935906A0935A06B093A5
:103450005B0681E080935C0680915006811109C073
:1034600062E373E08AE496E00E94660F81E0809355
:1034700050060E940A0E8090580690905906A0901F
:103480005A06B0905B06DC01CB0188199909AA099C
:10349000BB09893E9340A105B10508F477C10E949C
:1034A0000A0E609358067093590680935A069093BB
:1034B0005B0620E030E0A901C701B6010E94E02FC1
:1034C00020E030E040E05FE387FD05C0C701B601C2
:1034D0000E943E2F04C0C701B6010E943D2F0E94EA
:1034E000AA2F80915501909156019B0129513C4F83
:1034F00049012458334059012A55310969017B019A
:10350000892B09F095C077FF03C0F194E194F1088D
:103510004AE0B701CE0107960E94310F67E373E0DE
:10352000CE0101960E94660FBE01695F7F4FCE01FA
:1035300001960E94B20E67E373E00E94990EBC01EF
:103540008AE496E00E94DC0ECE0101960E942C0FC8
:10355000CE0107960E942C0F3FEC831637E09306AE
:1035600020F54AE0B701CE0107960E94310F66E3CD
:1035700073E0CE0101960E94660FBE01695F7F4F26
:10358000CE0101960E94B20E67E373E00E94990E8D
:10359000BC018AE496E00E94DC0ECE0101960E94F6
:1035A0002C0FCE0107960E942C0F87ECA816B104B1
:1035B00020F54AE0B701CE0107960E94310F65E37E
:1035C00073E0CE0101960E94660FBE01695F7F4FD6
:1035D000CE0101960E94B20E67E373E00E94990E3D
:1035E000BC018AE496E00E94DC0ECE0101960E94A6
:1035F0002C0FCE0107960E942C0F23E1C216D10496
:1036000008F0C4C04AE0B701CE0107960E94310F0E
:1036100064E373E0CE0101960E94660FBE01695F0C
:103620007F4FCE0101960E94B20E67E373E09FC008
:1036300077FF03C0F194E194F1084AE0B701CE01AD
:1036400007960E94310F67E373E0CE0101960E9456
:10365000660FBE01695F7F4FCE0101960E94B20ED8
:1036600067E373E00E94990EBC018AE496E00E9431
:10367000DC0ECE0101960E942C0FCE0107960E940F
:103680002C0F3FEC831637E0930640F5C7016AE044
:1036900070E00E9405304AE0CE0107960E94310F8B
:1036A00066E373E0CE0101960E94660FBE01695F7A
:1036B0007F4FCE0101960E94B20E66E373E00E9436
:1036C000990EBC018AE496E00E94DC0ECE010196C0
:1036D0000E942C0FCE0107960E942C0F87ECA81693
:1036E000B10440F5C7016AE070E00E9405304AE08D
:1036F000CE0107960E94310F65E373E0CE0101967B
:103700000E94660FBE01695F7F4FCE0101960E9445
:10371000B20E66E373E00E94990EBC018AE496E063
:103720000E94DC0ECE0101960E942C0FCE0107965E
:103730000E942C0F23E1C216D10440F5C7016AE0B4
:1037400070E00E9405304AE0CE0107960E94310FDA
:1037500064E373E0CE0101960E94660FBE01695FCB
:103760007F4FCE0101960E94B20E66E373E00E9485
:10377000990EBC018AE496E00E94DC0ECE0101960F
:103780000E942C0FCE0107960E942C0F6AE476E06F
:10379000C8010E945D0FC8012C960FB6F894DEBFD9
:1037A0000FBECDBFDF91CF911F910F91FF90EF9092
:1037B000DF90CF90BF90AF909F908F9008954F92E1
:1037C0005F926F927F928F929F92AF92BF92CF92B1
:1037D000DF92EF92FF920F931F93CF93DF9300D06E
:1037E00000D000D0CDB7DEB77C014B015A018091EB
:1037F0003306882341F080913D0604E416E0AEE3F1
:10380000B6E0F8014CC081E0809333061092320696
:103810001092310684E4682E86E0782E9EE3492ECD
:1038200096E0592E00E010E00F5F1F4F680181E025
:10383000C81AD1089801A601B401CE0101960E94D0
:103840007B0FCE0101960E94600EF30161933F0150
:10385000CE0101960E942C0F9801A601B501CE0160
:1038600001960E947B0FCE0101960E94600EF2012C
:1038700061932F01CE0101960E942C0F0630110595
:1038800099F6B9CF2C9192130DC090819A3009F41A
:1038900010823196119696E0EA34F90731F0908162
:1038A0008A3080F79F5F9083F0CF8F5F843119F06B
:1038B00080933D0604C010923D06109233066FE1DE
:1038C00073E0C7010E94660FFE0131966F01F80197
:1038D00081918F014AE0B60190E00E94682DF601C7
:1038E00001900020E9F73197AF014C195D09B6014D
:1038F000C7010E946B0EF6E00A341F0741F7C701AB
:1039000026960FB6F894DEBF0FBECDBFDF91CF91E4
:103910001F910F91FF90EF90DF90CF90BF90AF90ED
:103920009F908F907F906F905F904F9008950F932E
:103930001F938091510190915201892B09F451C03C
:1039400080913C068823A9F00E940A0E0091380657
:103950001091390620913A0630913B06DC01CB01EB
:10396000801B910BA20BB30B893E9340A105B105BF
:10397000A8F580913C06811134C00E949B232091C0
:103980004B0130914C018217930759F50E94932304
:1039900020914D0130914E018217930711F50E943D
:1039A0008B2320914F013091500182179307C9F466
:1039B0000E940A0E609338067093390680933A0687
:1039C00090933B0681E080933C0680912E0190917C
:1039D0002F0190937A048093790403C010923C06DF
:1039E000C8CF1F910F9108950E940A0E60932D0673
:1039F00070932E0680932F069093300680912C06AC
:103A0000882309F450C020912A0630912B06C90161
:103A1000880F991F2131310551F0FC01EF5CFE4FF9
:103A20004081518141505109518340830AC04091E6
:103A30005301509154014C505109509354014093FB
:103A40005301DC01AF5CBE4F6D917C911197FC017D
:103A5000E758FD4F40815181641775073CF4FC0124
:103A6000EB53FD4F408151814D935C9320313105E3
:103A700071F420915101309152012130310521F42E
:103A800020E82093340606C01092340603C0293083
:103A9000310549F0FC01EF5CFE4F6081718180913E
:103AA00035060C94921608950E940A0E60932D0616
:103AB00070932E0680932F069093300680912C06EB
:103AC000882309F445C020912A0630912B06C901AC
:103AD000880F991F2131310551F0FC01EF5CFE4F39
:103AE000408151814F5F5F4F518340830AC04091B5
:103AF000530150915401445F5F4F509354014093E0
:103B00005301DC01AF5CBE4F6D917C911197FC01BC
:103B1000EB53FD4F40815181461757073CF4FC01A0
:103B2000E758FD4F408151814D935C932031310521
:103B300019F41092340603C02930310549F0FC0114
:103B4000EF5CFE4F60817181809135060C94921676
:103B50000895CF93DF93EC01019628812A33D9F79A
:103B60008981843639F51092290610922806239609
:103B70004AE0FE018881219690ED980F2091280659
:103B8000309129069A3080F4429FB001439F700D16
:103B90001124082E000C990BC097860F971F909345
:103BA000290680932806E5CF1216130614F42093F5
:103BB0005C01EF01219688818F3689F48A81082E75
:103BC000000C990B9C012053310930932906209356
:103BD0002806C397059710F420935B0124968881EB
:103BE000823629F51092290610922806FE01329697
:103BF0004AE0819190ED980F209128063091290696
:103C00009A3080F4429FB001439F700D1124082E1A
:103C1000000C990BC097860F971F909329068093ED
:103C20002806E7CF30935A0120935901EF012091E4
:103C3000590130915A01032E000C440B550B60E6DC
:103C40007AEE80E090E00E943B30DA01C90122E088
:103C5000880F991FAA1FBB1F2A95D1F780932406AE
:103C600090932506A0932606B0932706CE01DF91F8
:103C7000CF910895FC01538D448D252F30E0842F82
:103C800090E0821B930B541710F0CF960895019784
:103C90000895FC01918D828D981761F0828DDF016E
:103CA000A80FB11D5D968C91928D9F5F9F73928F2F
:103CB00090E008958FEF9FEF0895FC01918D828D24
:103CC000981731F0828DE80FF11D858D90E00895F1
:103CD0008FEF9FEF0895FC01918D228D892F90E049
:103CE000805C9F4F821B91098F739927089580E014
:103CF00090E0892B29F00E94DB0D81110C940000CB
:103D0000089585ED8093BC008091BC0084FDFCCFBC
:103D10001092C20408954091D206262F30E0240F5D
:103D2000311D21323105DCF42091C2042430C9F464
:103D3000FC0180E090E0861758F43091D206219182
:103D4000DC01A055B94FA30FB11D2C930196F3CF01
:103D50008091D206680F6093D20680E0089581E0DA
:103D6000089582E008950895E0916E0480916D04B5
:103D7000E81730F4F0E0E757F94F808190E00895BC
:103D80008FEF9FEF089590916E0480916D049817C6
:103D900050F4E92FF0E0E757F94F208130E09F5FC2
:103DA00090936E0402C02FEF3FEFC90108958091F8
:103DB0006D0490E020916E04821B91090895CF92CA
:103DC000DF92EF92FF920F931F93CF93DF937C01CB
:103DD000262F972F8A018091C304882391F0C62F44
:103DE000D72F6E01C40ED51ECC15DD0571F069917B
:103DF000D701ED91FC910190F081E02DC70109956B
:103E0000F3CF642F822F0E948B1EC801DF91CF91C8
:103E10001F910F91FF90EF90DF90CF900895CF9377
:103E2000DF931F92CDB7DEB769832091C3042223AD
:103E3000D1F02091E604203240F021E030E0FC0196
:103E40003383228380E090E015C08091C404E82F82
:103E5000F0E0EB53FB4F998190838F5F8093C40414
:103E60008093E60405C061E0CE0101960E948B1E9E
:103E700081E090E00F90DF91CF910895089580E068
:103E800090E00895609307077093080780930907EF
:103E900090930A07DC01CB01845D9E4FAF4FBF4F6B
:103EA0008093030790930407A0930507B093060738
:103EB00082E090E090930207809301070E940A0E2F
:103EC0006093FD067093FE068093FF0690930007B3
:103ED0000895FC01848DDF01A80FB11DA35ABF4FC7
:103EE0002C91848D90E001968F739927848FA689F9
:103EF000B7892C93A089B1898C9180648C93938D20
:103F0000848D981306C00288F389E02D80818F7D0F
:103F100080830895EF92FF920F931F93CF93DF93C7
:103F2000EC0181E0888F9B8D8C8D981305C0E8890A
:103F3000F989808185FD24C0F62E0B8D10E00F5F7E
:103F40001F4F0F731127E02E8C8DE8120CC00FB697
:103F500007FCFACFE889F989808185FFF5CFCE018A
:103F60000E94691FF1CF8B8DFE01E80FF11DE35A0E
:103F7000FF4FF0820B8FEA89FB898081806207C046
:103F8000EE89FF896083E889F98980818064808374
:103F900081E090E0DF91CF911F910F91FF90EF9022
:103FA0000895CF93DF93EC01888D8823C9F0EA89C7
:103FB000FB89808185FD05C0A889B9898C9186FD22
:103FC0000FC00FB607FCF5CF808185FFF2CFA8891F
:103FD000B9898C9185FFEDCFCE010E94691FE7CF93
:103FE000DF91CF9108951F920F920FB60F92112477
:103FF0002F933F934F935F936F937F938F939F93F1
:10400000EF93FF934091E7045091E8046091E90435
:104010007091EA04411551056105710599F080918F
:104020006F04E0917004F09171049081892780837E
:104030001416150616061706D4F4415051096109E5
:10404000710915C0809170008D7F809370009091F0
:104050006F04E0917004F09171048081282F30E0AA
:10406000892F90E0809590958223932380834093BD
:10407000E7045093E8046093E9047093EA04FF9125
:10408000EF919F918F917F916F915F914F913F91B0
:104090002F910F900FBE0F901F9018951F920F92A7
:1040A0000FB60F9211242F933F938F939F93AF934B
:1040B000BF93EF93FF938091EB049091EC04A09158
:1040C000ED04B091EE04892B8A2B8B2B51F180915A
:1040D0007204E0917304F0917404908189278083C5
:1040E0008091EB049091EC04A091ED04B091EE046A
:1040F000181619061A061B064CF58091EB049091D0
:10410000EC04A091ED04B091EE040197A109B1096E
:104110008093EB049093EC04A093ED04B093EE0431
:1041200015C080916F008D7F80936F009091720415
:10413000E0917304F09174048081282F30E0892F7E
:1041400090E080959095822393238083FF91EF9157
:10415000BF91AF919F918F913F912F910F900FBE83
:104160000F901F9018951F920F920FB60F92112467
:104170002F933F938F939F93AF93BF93EF93FF93AF
:104180008091EF049091F004A091F104B091F204B9
:10419000892B8A2B8B2B51F180917504E091760449
:1041A000F09177049081892780838091EF0490912A
:1041B000F004A091F104B091F204181619061A0641
:1041C0001B064CF58091EF049091F004A091F1044E
:1041D000B091F2040197A109B1098093EF04909383
:1041E000F004A093F104B093F20415C080916E0026
:1041F0008D7F80936E0090917504E0917604F0912C
:1042000077048081282F30E0892F90E08095909569
:10421000822393238083FF91EF91BF91AF919F9170
:104220008F913F912F910F900FBE0F901F90189577
:104230003F924F925F926F927F928F929F92AF9236
:10424000BF92CF92DF92EF92FF920F931F93CF9383
:10425000DF93382E962E842EF90184E6E816F104B9
:104260002CF082EBE81A87E0F80A03C08EE1E80E32
:10427000F11CE092AF060093AE06E093AD063092DB
:10428000AB069092AA068092A906AE2DB0E020E877
:1042900033E341EE51E00E94EC2E2B013C0122EB76
:1042A00037E0FF2484E6C82ED12CC0E9D1E0C90153
:1042B000825B97408E159F05DCF4C90183709927B6
:1042C000892B99F4C901B6010E940530892B31F47C
:1042D000C901BE010E940530892B39F480E8480EDF
:1042E00081E5581E81E0681E711C2F5F3F4FDFCFB4
:1042F0008EE4E81A88EFF80AC70164E670E00E94CD
:1043000005306C01C70160E971E00E9405305C0175
:10431000C1E0D0E0112783E0E822FF24C017D107D5
:104320002CF5C230D10589F4E114F10471F4C11403
:10433000D10419F4A114B10441F480E8480E8BE3D0
:10434000581E86E2681E711C0FC0DE01A050BD4FD2
:10435000AC91B0E020E831E541E050E00E94EC2E65
:10436000460E571E681E791E2196D8CF292D30E0A3
:10437000ACE3B0E00E942E2F6B017C01C80CD11C75
:10438000E11CF11C232D30E0A0E1BEE00E942E2FA5
:10439000C60ED71EE81EF91EDF01BB27119720E8C5
:1043A00031E541E050E00E946030DC01CB018C0D32
:1043B0009D1DAE1DBF1DBC01CD01640D751D861D6B
:1043C000971DDF91CF911F910F91FF90EF90DF909C
:1043D000CF90BF90AF909F908F907F906F905F90A5
:1043E0004F903F900C94421FCF92DF92EF92FF923A
:1043F0000F931F930E940A0EC090FD06D090FE06F8
:10440000E090FF06F09000078B019C010C191D093C
:104410002E093F098091070790910807A09109078D
:10442000B0910A07083E134021053105D0F00196EE
:10443000A11DB11D8093070790930807A09309075A
:10444000B0930A07B701A60148515C4F6F4F7F4FE9
:104450004093FD065093FE066093FF06709300079D
:10446000C9CF4091030750910407609105077091EF
:10447000060784179507A607B70788F1E091FB06A2
:10448000F091FC06309759F1099561157105810588
:10449000910519F00E94421F22C080910707909158
:1044A0000807A0910907B0910A07845D9E4FAF4F9E
:1044B000BF4F8093030790930407A0930507B09321
:1044C000060781E090E02091010730910207232B3D
:1044D00011F480E090E090930207809301076091CF
:1044E0000707709108078091090790910A071F91AB
:1044F0000F91FF90EF90DF90CF9008954F925F92D1
:104500006F927F928F929F92AF92BF92CF92DF92E3
:10451000EF92FF920F931F93CF93DF934B015C01B8
:104520008091F7069091F806A091F906B091FA06ED
:1045300088169906AA06BB0609F4C2C08CE3C82EE9
:10454000D12CE12CF12CC501B401A70196010E94E8
:1045500019306093A906CA01B901A70196010E940A
:1045600019306093AA06CA01B90128E130E040E0A1
:1045700050E00E94193069017A016093AB06CA01CC
:10458000B9016C5F7F4F8F4F9F4F27E030E040E0D5
:1045900050E00E9419306F5F6093AC06412C512CA3
:1045A000320140E004E610E0C0E9D1E0242F30E021
:1045B0002E54384FF901E370FF27309789F4C90171
:1045C000B8010E940530892B31F4C901BE010E9457
:1045D0000530892B29F48EE691E0A0E0B0E004C01C
:1045E0008DE691E0A0E0B0E0480E591E6A1E7B1EE9
:1045F000D301C201AA27BB27C816D906EA06FB06C3
:1046000010F04F5FD3CF4093AF06309799F4C901B4
:1046100064E670E00E940530892B39F4C90160E935
:1046200071E00E940530892B29F48EE691E0A0E02C
:10463000B0E004C08DE691E0A0E0B0E0481A590A6D
:104640006A0A7B0AC418D508E608F708C90164E6B7
:1046500070E00E940530EC01C90160E971E00E9440
:104660000530A1E0B3E020E0213039F4309749F47F
:10467000209729F4009729F402C04C9103C04DE122
:1046800001C04CE150E060E070E0C416D506E606DB
:10469000F70640F0C41AD50AE60AF70A2F5F11960A
:1046A0002C3011F72F5F2093AE06C394C092AD0655
:1046B0008092F7069092F806A092F906B092FA0658
:1046C000DF91CF911F910F91FF90EF90DF90CF90EE
:1046D000BF90AF909F908F907F906F905F904F9022
:1046E00008950E94F4210E947E228091AF0690E0FE
:1046F0008E54984F08950E94F4210E947E2280914A
:10470000AE0690E008950E94F4210E947E228091DE
:10471000AD0690E008950E94F4210E947E228091CF
:10472000A90690E008950E94F4210E947E228091C3
:10473000AA0690E008950E94F4210E947E228091B2
:10474000AB0690E00895CF92DF92EF92FF92CF9365
:10475000DF93EC010E940A0E6B017C018F850E94A1
:104760006F1321E0892B09F420E0298B88898111BE
:1047700003C081E08227898B29898A89281721F043
:10478000CD8ADE8AEF8AF88E8D899E89AF89B88DB1
:10479000B701A601481B590B6A0B7B0BDB01CA0151
:1047A000CB80DC80ED80FE80C416D506E606F706D9
:1047B00064F43A81231749F02A83222331F04B898C
:1047C0005C894F5F5F4F5C8B4B8B3A8131110CC022
:1047D000CF80D884E984FA84C816D906EA06FB0695
:1047E000ACF48B899C890EC0CB84DC84ED84FE8480
:1047F000C816D906EA06FB064CF48B899C8991956C
:1048000081959109998388831C8A1B8A2A8BDF9161
:10481000CF91FF90EF90DF90CF9008950F931F936B
:10482000CF93DF931F92CDB7DEB78C01862FF801AF
:104830006787408B91E04927418B428B148A138A0A
:10484000118210821282158A168A178A108E44E10C
:1048500050E060E070E043835483658376834AEFE1
:1048600050E060E070E0478350876187728748EED0
:1048700053E060E070E0438754876587768760E0A7
:1048800029830E94C813F8018089298181110BC0F6
:10489000222349F061E087850F90DF91CF911F912E
:1048A0000F910C9498130F90DF91CF911F910F915E
:1048B00008951F920F920FB60F9211242F933F93DA
:1048C0004F935F936F937F938F939F93AF93BF9318
:1048D000EF93FF938091B900887F803609F49CC0E4
:1048E00068F5883209F45BC090F4803109F454C053
:1048F00038F4882309F4F6C0883009F44DC0F6C0B6
:10490000883109F44CC0803209F45DC0EFC08034B6
:1049100009F468C048F4803309F455C0883309F0BD
:10492000E5C08093C004D8C0803509F44FC08835F5
:1049300009F45DC0883409F0D9C0D6C0883909F4BB
:10494000C7C0A8F4883709F467C038F4883609F47A
:1049500063C0803709F460C0C9C0883809F4B8C0A2
:10496000803909F45FC0803809F0C0C05BC0803B6B
:1049700009F486C038F4803A09F466C0883A09F42C
:104980007FC0B4C0803C09F4A7C0883C09F4A4C02F
:10499000883B09F48AC0AAC080919D0410C0909100
:1049A000BF048091BE04981770F5E091BF0481E0C8
:1049B0008E0F8093BF04F0E0E256FB4F808180931E
:1049C000BB0085EC86C08093C0048EC0E091BF041C
:1049D00081E08E0F8093BF048091BB00F0E0E2562F
:1049E000FB4F80839091BF048091BE046EC0E09124
:1049F000BF0481E08E0F8093BF048091BB00F0E084
:104A0000E256FB4F80838091C10481116DC081E02B
:104A100080939C0484EA61C083E08093C204109276
:104A2000F606CFCF8091F606803208F051C0E091B3
:104A3000F60681E08E0F8093F6068091BB00F0E0D1
:104A4000EA52F94F8083BDCF85EC8093BC00109271
:104A5000C2048091F606803230F4E091F606F0E070
:104A6000EA52F94F10826091F60670E0E091D406A8
:104A7000F091D50686ED96E009951092F60636C0BF
:104A800084E08093C2041092D3061092D206E09183
:104A9000D006F091D10609958091D206811105C00A
:104AA00081E08093D2061092B006E091D30681E0B7
:104AB0008E0F8093D306F0E0E055F94F808180930C
:104AC000BB009091D3068091D206981708F479CF55
:104AD00085E88093BC000AC085EC8093BC001092EE
:104AE000C20404C01092C0040E94811EFF91EF9185
:104AF000BF91AF919F918F917F916F915F914F91F6
:104B00003F912F910F900FBE0F901F9018950C940E
:104B1000DE2ECF92DF92EF92FF921F93CF93DF931F
:104B2000CDB7DEB72C970FB6F894DEBF0FBECDBF62
:104B3000182F6EE373E0CE0101960E94660F1330CA
:104B400029F422E030E040E050E00FC01C3029F4AE
:104B500024E030E042E050E008C01033B9F4209186
:104B600002063091030644E050E06EEF75E0CE019E
:104B700007960E947B0FBE01695F7F4FCE010196B1
:104B80000E94F30ECE0107960E942C0FCE010196D3
:104B90000E94600E6B017C01CE0101960E942C0FD9
:104BA000C6012C960FB6F894DEBF0FBECDBFDF91C5
:104BB000CF911F91FF90EF90DF90CF90089581E00B
:104BC0008093C30488E68093E5041092C404109295
:104BD000E60460E082E995E00E940F1F0E94121334
:104BE0008091C2048111FCCF81E08093C204809344
:104BF000C1049FEF9093C0041092BF0496E090937D
:104C0000BE0480939D0480919D04806D80939D04DB
:104C100080919C04813061F410929C0480919D04E9
:104C20008093BB008091BC0083FDF8CF85EC01C070
:104C300085EE8093BC008091C2048130E1F38091C5
:104C4000BF04873018F48091BF0401C087E0AEE94B
:104C5000B4E029E836E0F9019E2F921B981718F46A
:104C60009D919193F9CF10926E0480936D0482E927
:104C700095E00E94C31E982F92959F708F702AE036
:104C8000929F800D112490E0909387048093860476
:104C900082E995E00E94C31E982F92959F708F70B5
:104CA0002AE0929F800D112490E090937E048093DF
:104CB0007D0482E995E00E94C31E982F96959695F3
:104CC00096959670292F220F220F920F8F70890FC1
:104CD00090E090937C0480937B0482E995E00E94AD
:104CE000C31E982F92959F708F702AE0929F800D1F
:104CF000112490E090930C0780930B0782E995E0D4
:104D00000E94C31E982F92959F708F702AE0929FE9
:104D1000800D112490E09093800480937F0482E9B9
:104D200095E00E94C31E982F92959F708F702AE085
:104D3000929F800D112490E09093820480938104CF
:104D400082E995E00E94C31E982F92959F708F7004
:104D50002AE0929F800D112490E090938404809328
:104D6000830408950F931F93CF93DF93CDB7DEB7DE
:104D700062970FB6F894DEBF0FBECDBF8C0177FFF0
:104D800003C07195619571094AE06A3071054CF56F
:104D9000CE010D960E94310F67E373E0CE010196BC
:104DA0000E94660FBE016F5F7F4FCE0107960E9483
:104DB0005D0FBE01635F7F4FCE0107960E94B20E6A
:104DC000BC01C8010E945D0FCE0107960E942C0F06
:104DD000CE0101960E942C0FCE010D960E942C0F41
:104DE00003C0C8010E94310FC80162960FB6F89443
:104DF000DEBF0FBECDBFDF91CF911F910F91089500
:104E00000F931F93CF93DF93CDB7DEB768970FB69D
:104E1000F894DEBF0FBECDBF8C01809153019091FD
:104E20005401489791F40E948B23BC01CE01439614
:104E30000E94B2260E949323BC01CE010D960E94CF
:104E4000B2260E949B23BC011FC00E948B23BC0181
:104E5000CE0143960E94B2260E949323BC01CE014C
:104E60000D960E94B2260E94F4210E947E2280911B
:104E7000AB06882339F0682F70E08D3028F06C5035
:104E8000710902C06CE070E0CE0101960E94B2266A
:104E9000BE016F5F7F4FCE0107960E945D0FBE017E
:104EA000635F7F4FCE0107960E94B20EBE016D5E1A
:104EB0007F4F0E94B20EBC01C8010E945D0FCE015F
:104EC00007960E942C0FCE0101960E942C0FCE0156
:104ED0000D960E942C0FCE0143960E942C0FC80104
:104EE00068960FB6F894DEBF0FBECDBFDF91CF91AD
:104EF0001F910F910895CF93DF93CDB7DEB7CF54B5
:104F0000D1090FB6F894DEBF0FBECDBF789484B53B
:104F1000826084BD84B5816084BD85B5826085BDB5
:104F200085B5816085BD80916E00816080936E0043
:104F30001092810080918100826080938100809135
:104F400081008160809381008091800081608093E6
:104F500080008091B10084608093B1008091B000A6
:104F600081608093B00080917A00846080937A00A1
:104F700080917A00826080937A0080917A008160CB
:104F800080937A0080917A00806880937A001092F2
:104F9000C10010926E0410926D041092C40410921D
:104FA000E6041092C20481E08093C10410929C0434
:104FB00061E082E10E94981361E083E10E9498130E
:104FC0008091B9008E7F8093B9008091B9008D7F68
:104FD0008093B90088E48093B80085E48093BC0096
:104FE000E0910505F091060582E08083E0910105DE
:104FF000F09102051082E0910305F091040580E133
:10500000808310920D05E0910905F0910A0586E074
:105010008083E0910705F09108058081806180839D
:10502000E0910705F0910805808188608083E09118
:105030000705F0910805808180688083E09107056D
:10504000F091080580818F7D808381E090E00E944F
:1050500032178C3019F088E190E002C08CE090E0CB
:10506000909354018093530180E090E00E943217A6
:10507000882321F081E08093300102C0109230013A
:1050800082E090E00E9432178F3F29F410924C0189
:1050900010924B0105C090E090934C0180934B011E
:1050A00083E090E00E9432178F3F29F410924E0166
:1050B00010924D0105C090E090934E0180934D01F8
:1050C00084E090E00E9432178F3F29F41092500143
:1050D00010924F0105C090E09093500180934F01D2
:1050E00086E090E00E9432178F3F29F4109252011F
:1050F0001092510105C090E09093520180935101AC
:1051000087E090E00E9432178F3F19F410928804D4
:1051100006C091E0811101C090E0909388048BE07B
:1051200090E00E9432178F3F29F41092560110929E
:10513000550105C090E090935601809355018CE095
:1051400090E00E9432178F3F31F090E00C979093DF
:105150005801809357018DE090E00E9432178F3FF5
:1051600029F090E0909344018093430161E089E04D
:105170000E94C81361E086E00E94C81361E083E0EA
:105180000E94C81380918904833008F083C092E0A4
:105190009093F304E82FF0E0E255FF4FE491E093A1
:1051A000F4048F5F80938904E13031F1E23009F437
:1051B0004AC0E11172C014BC15BC84B5826084BDC4
:1051C00085B5816085BD8091F30490E0FC01EA50D3
:1051D000FF4FE491F0E0EE0FFF1FEE51FF4F2591DE
:1051E00034913093770420937604FC01E65FFE4F00
:1051F000E491E093750451C01092800010928100F8
:10520000809181008860809381008091810081601D
:10521000809381008091F30490E0FC01EA50FF4FFD
:10522000E491F0E0EE0FFF1FEE51FF4F2591349116
:105230003093740420937304FC01E65FFE4FE49105
:10524000E09372042AC01092B0001092B1008091D5
:10525000B00082608093B0008091B1008160809343
:10526000B1008091F30490E0FC01EA50FF4FE4911B
:10527000F0E0EE0FFF1FEE51FF4F25913491309378
:10528000710420937004FC01E65FFE4FE491E0930B
:105290006F0403C08FEF8093F40480912E019091EE
:1052A0002F010E94A91D90932F0180932E0161E090
:1052B0008AE00E94C8131FB7F89480918A04811174
:1052C00027C0E0E0F1E08491E4E1F1E09491E82F7F
:1052D000F0E0EE0FFF1FEC53FF4FA591B491EC915E
:1052E000E92321F461E08AE00E94981361E08AE0FA
:1052F0000E94C8138CB580618CBD8CB580648CBD58
:1053000061E08DE00E94C81361E08BE00E94C81349
:1053100080918A048F5F80938A041FBF8CB5837F3E
:1053200088608CBD8CB58C7F81608CBD8DB58160B3
:105330008DBD8091A40587FD08C061E00E94C8135F
:1053400060E08091A4050E94981381E080939F05FE
:105350006091A505633321F12091A6053091A70541
:10536000615031F070E08FEF92E30E94F12F02C0A4
:1053700060E070E0F9014091A2055091A305CF01D2
:10538000821B930B8417950740F44081469FC00110
:10539000479F900D11249193EECF83E38093A50551
:1053A00062E08EE00E94C81362E080E10E94C813B0
:1053B00062E08FE00E94C81361E082E00E94C8139F
:1053C00004E110E020E030E00093E8051093E905E7
:1053D0002093EA053093EB054EE150E060E070E089
:1053E0004093EC055093ED056093EE057093EF0547
:1053F00080ED97E0A0E0B0E08093F0059093F10598
:10540000A093F205B093F3050093CF051093D00558
:105410002093D1053093D2054093D3055093D40502
:105420006093D5057093D6058093D7059093D805E2
:10543000A093D905B093DA050093B6051093B7058C
:105440002093B8053093B9054093BA055093BB0536
:105450006093BC057093BD058093BE059093BF0516
:10546000A093C005B093C10581EB90E00E946F123C
:1054700025E030E042E050E06EE176E0CE010196BA
:105480007C010E947B0F22E030E041E050E06EE1C1
:1054900076E0CE01875B9F4F0E947B0FBE01675B6A
:1054A0007F4FCE018D5B9F4F0E945D0F6BE173E0DC
:1054B000CE018D5B9F4F0E94990EB7010E94B20EE4
:1054C000FC01448155816081718185EF94E00E94E7
:1054D000540D8DE193E00E945D12CE018D5B9F4FD4
:1054E0000E942C0FCE01875B9F4F0E942C0FC7019B
:1054F0000E942C0F80E293E00E945D128DE193E008
:105500000E945D1280912E0190912F0190937A0458
:10551000809379040E94A91D00E010E040E050E073
:105520006FEF70E0C8010E9442100F5F1F4F0830FC
:105530001105A1F70E94AD100E94251200E010E0B5
:1055400040E05FEF60E070E0C8010E9442100F5F32
:105550001F4F08301105A1F70E94AD100E942512BF
:1055600000E010E04FEF50E060E070E0C8010E9402
:1055700042100F5F1F4F08301105A1F70E94AD10B8
:105580000E9425120E94961762E373E0C7010E94F1
:10559000660F69E373E0CE0107960E94660F60E430
:1055A00073E0CE010D960E94660F67E473E0CE01B2
:1055B00043960E94660F6EE473E0CE0149960E9406
:1055C000660F65E573E0CE014F960E94660F6CE5AD
:1055D00073E0CE0185960E94660F63E673E0CE010C
:1055E0008B960E94660F6AE673E0CE01C1960E9418
:1055F000660F61E773E0CE01C7960E94660F6FE108
:1056000073E0CE01CD960E94660F6EE176E0CE018A
:10561000CD960E94DC0E0E940A0E4B015C01F8EE52
:105620008F0EF3E09F1EA11CB11C712C1FEF94EF95
:10563000C92EDD24D39426E0622E8FE00E946F13E2
:10564000892B11F47724739480E10E946F13892BC6
:1056500009F4712C0E940A0EDC01CB01881999090A
:10566000AA09BB0996010D2C000C440B550B2817F9
:1056700039074A075B07E8F40E940A0E4B015C01F8
:10568000711001C01F5F1A3011F038F404C080EDB2
:10569000C82E87E0D82E01E002C01AE000E0B70172
:1056A000619E600D711D11248EEF95E00E94DC0E4D
:1056B00001C001E00E94A8170111BFCF809111061F
:1056C000811104C00E94EE11811107C010920F06D3
:1056D000109211061092100667C080EF0E94C4114C
:1056E00001E0D12CB12C11E00E946D1160968FAFBA
:1056F00060970E946D1160969FAD6097913019F48C
:105700008130C1F435C02D2D30E098131DC080913B
:105710000F06181738F4F901EC5FF94F83818023E5
:1057200049F402C0181731F090E0193060F410937A
:10573000100609C0ED2DF0E0EC5FF94F8381802B5E
:10574000838391E009C0B12EF901EC5FF94F238109
:10575000802F809582238383892F0E9492111F5F5F
:10576000000F11F4D39401E027E02D1508F0BCCF11
:10577000113408F4ABCFB0920F06B11003C081E032
:105780008093110680910706882309F49FCFA7E034
:10579000B6E0EBE8F4E08D91819384E0E339F8071B
:1057A000D1F781E0809378048E010D5B1F4F065086
:1057B0001109C8010E942C0F0E151F05C1F7809119
:1057C000880481110E9434170E94DF25009186040D
:1057D000109187040E940A0E6B017C0181E0809386
:1057E0008504112780918604909187040817190772
:1057F00089F40E94DF250E940A0EDC01CB018C197E
:105800009D09AE09BF09893B9B40A105B10550F335
:1058100010928504E0908304F09084040091810448
:105820001091820420917F0430918004409186047D
:105830005091870460917D0470917E0480917B0477
:1058400090917C040E9418210E94CE000E94771E35
:10585000FBCF1092F8041092F70488EE93E0A0E0DA
:10586000B0E08093F9049093FA04A093FB04B09302
:10587000FC0425EA32E03093F6042093F50425EC8D
:1058800030E0309302052093010524EC30E03093A2
:1058900004052093030520EC30E0309306052093A7
:1058A000050521EC30E0309308052093070522EC34
:1058B00030E030930A052093090526EC30E0309360
:1058C0000C0520930B0510920E0510920F051092F7
:1058D0001005109211051092950510929405809371
:1058E000960590939705A0939805B093990587EB3B
:1058F00092E090939305809392056FEE73E08EE1B2
:1059000096E00E94660F1092190660E087E00E9400
:10591000C813E1E1F1E0E491E0930406EDEFF0E07B
:10592000E491F0E0EE0FFF1FE451FF4F8591949159
:10593000909306068093050610920F0610921106AA
:1059400010921006EFE0F6E0129286E0E730F807DA
:10595000D9F762E373E08EEF95E00E94660F21E0D5
:1059600040E06EE085EE95E00E940E2421E040E0EC
:1059700060E18CEC95E00E940E2421E040E06FE0B5
:1059800083EB95E00E940E2410929F051092A505CE
:105990001092AC051092AD051092AE051092AF05B5
:1059A00081E08093AB058093A8051092A90592E051
:1059B0009093AA0580939E0588E190E09093A305BB
:1059C0008093A2050E9468309093A7058093A60556
:1059D000009761F028E1FC0111922A95E9F788E02F
:1059E00090E09093A1058093A00508C01092A305B4
:1059F0001092A2051092A1051092A00586E0809356
:105A0000A40580919F05882341F061E086E00E9413
:105A1000C81360E086E00E949813ECEFF0E0E49198
:105A2000F0E0EE0FFF1FEE51FF4F859194919093A0
:105A3000B1058093B005E0E1F1E0E491E093B205B7
:105A400008958091A6059091A7050E94FD30809150
:105A5000A40587FD03C060E00E94C8138EEF95E0A7
:105A60000E942C0F8EE196E00C942C0F1F93FC01EA
:105A700099278827BC01E89411911032E9F3193075
:105A800010F01E30C8F31B3251F01D3249F46894F7
:105A900006C00E94732D610F711D811D911D119112
:105AA00010531A30B0F33EF490958095709561953F
:105AB0007F4F8F4F9F4F1F9108954532510520F41E
:105AC000423010F00C94682DFB011082CB01089538
:105AD000BB274A3031F4992322F4BDE29095819599
