:10000000E5C1000014C2000012C2000010C20000CE
:100010000EC200000CC200000AC2000008C20000AC
:1000200006C2000004C2000002C2000000C20000BC
:10003000FEC100000C945E25FAC10000F8C100006A
:10004000F6C100000C94BD25F2C10000F0C1000013
:10005000EEC100000C942626EAC100000C949237F1
:10006000E6C100000C9477240C944E24E0C10000FB
:10007000DEC10000DCC10000DAC10000D8C1000010
:10008000D6C10000D4C10000D2C10000D0C1000020
:100090000C9425240C94FC23CAC100000C94552810
:1000A000C6C10000C4C100000C94752AC0C1000084
:1000B000BEC10000BCC10000BAC100000C94A02465
:1000C000B6C10000B4C10000B2C10000B0C1000060
:1000D000AEC10000ACC10000AAC10000A8C1000070
:1000E000A6C100007D057F057305750577057905B7
:1000F0007B059B0C120DC60FBD10EF104511881724
:1001000088178817B211DA11DA11DA1188178817EF
:10011000881788178817EF1045111D2C202C1B2CD1
:100120001D2C202C222C262C362C953498348734E8
:100130008B349134CF349C34A034A634AA34AE34FA
:10014000B434B834BC34CF34C234C634CA34456E47
:1001500064206F6620746865206C696E6500557058
:10016000646174696E672074696D652E2E2E00506F
:100170006172736564206461746120746F206F6CB8
:100180006400496E636F727265637420536F6E67AB
:1001900020466F726D617421005247423D6F666662
:1001A000005247423D6F6E004D6F6E74683A0044D6
:1001B00061793A00446F776E206C6F6E672E2E2E39
:1001C0002E00446F776E2073686F72740055702034
:1001D0006C6F6E672E2E2E2E0055702073686F7216
:1001E00074004D6F6465206C6F6E672E2E2E2E008E
:1001F0004D6F64652073686F72740053796E63206D
:1002000066726F6D2047505300426C75653D004724
:100210005245454E3D005245443D0052656164657E
:10022000642066726F6D20454550524F4D000201AB
:100230000053746F7020546573740054656D702E94
:100240002073656E736F72206E6F7420666F756EAB
:10025000642E00537461727420546573740046698F
:10026000726D776172652076657273696F6E3A2080
:10027000005761726E696E67212052544320444FCB
:100280004E275420524553504F4E44210057616B26
:10029000652075702C204E656F21004E6F742069AB
:1002A0006E2072616E676500000022002500280044
:1002B0002B002E003100340002010000050108016E
:1002C0000B01000020002300260029002C002F0035
:1002D00032000001000003010601090105050505C2
:1002E000070508080808020202020A0A08080404AE
:1002F00004040101010101010101030303030303DC
:100300000303040707070C0C0C0C0C0C0C0C02026A
:10031000020206060606060606060B0B0B0B0B0B67
:100320000B0B0102102020080810204010204080F4
:1003300002010201080402010102040810204080A9
:100340008040201008040201800402018040201037
:100350000804020108040201010204081020408080
:100360000102040810204080000021002400270022
:100370002A002D00300033000101000004010701B4
:100380000A0100000A0B02090C0D0E080703040104
:10039000000000000000000000000000000000005D
:1003A000000000000000000000000000000012112A
:1003B000100000000000000000000000000000002D
:1003C0000000000000000000F942353D11241FBE6E
:1003D000CFEFD1E2DEBFCDBF00E00CBF2AE0ACE042
:1003E000B5E001C01D92AF31B207E1F715E0A0E022
:1003F000B2E0EEE4F3E900E00BBF02C007900D921B
:10040000AC30B107D9F711E0C5EED1E000E006C08D
:1004100021970109802FFE010E946347C43ED10746
:1004200080E00807A9F70E94493D0C949649E8CD61
:100430002F923F924F925F926F927F928F929F92F4
:10044000AF92BF92CF92DF92EF92FF920F931F93E2
:10045000CF93DF93CDB7DEB7CA56D1400FB6F8942D
:10046000DEBF0FBECDBF0E94863720E137E240E0FD
:1004700050E00E942547672B682B692B29F4809157
:10048000070681110C94AE138FEF96E00E9436217F
:10049000892B09F452C08FEF96E00E9414219091AD
:1004A0005F05E92FF0E0E45FFA4F80839F5F9235AC
:1004B00019F090935F0502C010925F058A30E9F54C
:1004C000E0915F05F0E0E45FFA4F108210925F0563
:1004D00081E090E020E0FC01E45FFA4F30813A32A5
:1004E00051F02327019683359105A9F78EE491E019
:1004F0000E94DA3222C0818181340CF087538295C8
:10050000807F9281913414F0975301C09053890FEA
:10051000821749F08FE094E00E94A7328EE194E0C8
:100520000E94A7320AC080910C05843231F4809178
:100530000F05823511F40C94CC130E94863721E10B
:1005400037E240E050E00E942547672B682B692B7B
:1005500009F0CAC0809164058111A7C00E94863746
:100560000091930910919409209195093091960971
:10057000DC01CB01801B910BA20BB30B893B9B4091
:10058000A105B10528F08FE691E00E94DA32A8C0FB
:100590008EE591E00E94DA3280918B090E948736C5
:1005A00080918C090E94873680918D090E94873640
:1005B000809190099091910948EEC42E43E0D42E89
:1005C000B6010E9412477C0100918F0910E0209132
:1005D0008E0930E040918D0950E060918C0970E007
:1005E00080918B0990E00E948F2640915702509194
:1005F000580220E13EE0429FC001439F900D529F70
:10060000900D1124092E000CAA0BBB0B409135064E
:10061000509136066091370670913806840F951F09
:10062000A61FB71F8093350690933606A093370612
:10063000B09338060E946A277C010E947227082F17
:100640000E947827C659DE4F8883CA56D1400E943F
:100650007E27C759DE4F8883C956D1400E94842720
:10066000182F0E949927382FC701B6010E94124700
:10067000E82EC659DE4F2881CA56D140C759DE4FF1
:100680004881C956D140612F832F0E94033681E0F3
:10069000809364050E9486376093600570936105BE
:1006A00080936205909363051BC00E94863700917A
:1006B0006005109161052091620530916305DC01B0
:1006C000CB01801B910BA20BB30B81349747AB413D
:1006D000B10518F01092640503C081E080936405B1
:1006E0008BEF91E00E94DA321092C5051092C60598
:1006F0001092C7051092C8058CE498E09093CC0541
:100700008093CB0580914908282E312C3092CE055C
:100710002092CD058091160990E09093D0058093AA
:10072000CF0580914508853009F000C180914908C6
:100730008A3108F455C080914C0890914D08843F4F
:10074000914090F41092CA051092C9058FEF9FEF67
:10075000DC018093C5059093C605A093C705B093AF
:10076000C8058BE090E0CAC080914E0890914F0878
:1007700085974B97A8F5E2E5F8E082E090E0C12C80
:10078000D12C7601AC014F5F5F4F2091490830E0DA
:100790004217530764F4DF0112972D913C912750C3
:1007A00031092730310510F40C94CA14CA0101979D
:1007B000959587959093CA058093C9050C972CF45D
:1007C0001092CA051092C9050BC0C092C505D092FF
:1007D000C605E092C705F092C80584E090E08EC09F
:1007E00086E0281631040CF49CC002E518E0A3E072
:1007F000B0E0CD59DE4FB983A883C356D14025EC74
:10080000822E2DE9922E2CE1A22E21E8B22ECD5976
:10081000DE4FA881B981C356D140A215B3050CF0B3
:100820005DC0F801608171813497E080F18080E0E3
:1008300090E00E9405452B013C01B70180E090E06B
:100840000E9405456B017C012DEC3CEC4CE45FE320
:100850000E9466459B01AC01C301B2010E940145A3
:1008600087FD18C02DEC3CEC4CE45FE3C301B20102
:100870000E9466459B01AC01C701B6010E9401457B
:10088000082E000C990BFC01EE27FF0FEE1FFF272F
:10089000319602C0E0E0F0E0A501940163E971E067
:1008A00080E091E00E94E3466F01FF0FEE08FF0831
:1008B0004601570186269726A826B926CD59DE4F30
:1008C00088819981C356D1400196CD59DE4F9983D5
:1008D0008883C356D1400E5F1F4F99CF8092C505C4
:1008E0009092C605A092C705B092C80580E290E03C
:1008F0009093CA058093C9058FEF9FEF9093C2052F
:100900008093C1056091C5057091C6058091C705AA
:100910009091C80540E10E9430358EE194E00E943C
:10092000A73282E080934508109249086091C5057E
:100930007091C60581EB99E00E94CE3C9093C00572
:100940008093BF05019721F480EF91E00E94DA3295
:100950008091BF059091C005019621F482EE91E04F
:100960000E94DA326091C5057091C60584EA99E06B
:100970000E94CE3C9093BE058093BD05019721F463
:1009800089ED91E00E94DA328091BD059091BE051B
:10099000019621F48DEC91E00E94DA326091C50558
:1009A0007091C60587E999E00E94CE3C9093BC0502
:1009B0008093BB05019721F482EC91E00E94DA322A
:1009C0008091BB059091BC05019621F484EB91E0E8
:1009D0000E94DA320091FB051091FC05D8018C9140
:1009E000882309F434C10E948637C0906B05D090EB
:1009F0006C05E0906D05F0906E05DC01CB018C1963
:100A00009D09AE09BF09C0906705D0906805E090C8
:100A10006905F0906A05C816D906EA06FB0608F0D3
:100A200016C10E9486376B017C0160936B05709341
:100A30006C0580936D0590936E0510929C06109244
:100A40009B06A801EAE08A01DA017C904F5F5F4FC4
:100A500080ED870D20919B0630919C068A3080F4B2
:100A6000E29FB001E39F700D1124872D770C990B45
:100A7000C097860F971F90939C0680939B06E3CFA9
:100A800060919706709198068091990690919A06C8
:100A90002115310529F0032E000C440B550B05C020
:100AA00020915C0230E040E050E00E9447472093F4
:100AB0006705309368054093690550936A05872D53
:100AC000770C990BAA0BBB0BFC01E156F109E7303F
:100AD000F10530F48827EE58FF4F8F4F0C94634791
:100AE000109266050FC081E00BC083E009C085E06D
:100AF00007C086E005C088E003C08AE001C08CE042
:100B000080936605F8018181833219F00F5F1F4FD2
:100B100007C0809166058F5F809366050E5F1F4F4B
:100B2000D8018C918E3201F5409067055090680590
:100B30006090690570906A05C301B20122E030E05F
:100B400040E050E00E944747D301C201820F931F4B
:100B5000A41FB51F8093670590936805A09369054E
:100B6000B0936A050F5F1F4FF801808180538A3070
:100B700028F4809365050F5F1F4F04C080915B02CE
:100B80008093650580916505D8019C919C3211F494
:100B90000F5F1F4F20916605222309F458C0409033
:100BA0006705509068056090690570906A0590E04F
:100BB00004973CE0389FF001399FF00D1124E20FBB
:100BC000F11DEE0FFF1FE558FD4FB301A20180811B
:100BD00091810E94CF300E948637DC01CB018C19B5
:100BE0009D09AE09BF09481659066A067B0678F5C5
:100BF0000E94863760936B0570936C0580936D053A
:100C000090936E058091FE06813051F0823071F034
:100C1000811111C080916E008D7F80936E000BC09A
:100C200080916F008D7F80936F0005C08091700070
:100C30008D7F8093700060E08091FD060E94C03639
:100C400082E891E00E94DA3290E080E002C0902FCA
:100C5000812F9093FB058093FC050E9486370091BD
:100C6000B7051091B8052091B9053091BA05DC019E
:100C7000CB01801B910BA20BB30B8997A105B1058A
:100C800008F4A9C08091FE06813039F0823041F02D
:100C900081110CC080916E0005C080916F0002C070
:100CA000809170008695817009F08BC08091300230
:100CB000811103C00E94632A84C080910A068111B9
:100CC00080C00091710510917205C801880F991FAD
:100CD000800F911FFC01EE0FFF1FE352FD4F20819B
:100CE00031816AE0629FA001639F500D1124209121
:100CF000000230910102420F531F509301024093B2
:100D00000002FC01EE0FFF1FE152FD4F20813181F7
:100D1000629FF001639FF00D11242091AD05309189
:100D2000AE052E0F3F1F3093AE052093AD05880F03
:100D3000991FFC01EF51FD4F80819181689F200137
:100D4000699F500C11248091AB059091AC05480E21
:100D5000591E5092AC054092AB05512C612C712C60
:100D6000642A522AE12CF12CB301A201C7010E948E
:100D7000E632BFEFEB1AFB0AE8E0EE16F104A1F74A
:100D80000E94513380916F05909170050196909368
:100D9000700580936F05499751F40F5F1F4F1093B3
:100DA0007205009371051092700510926F05809185
:100DB000710590917205069724F0109272051092B9
:100DC00071050E9486376093B7057093B8058093CC
:100DD000B9059093BA058091D3059091D405892BDC
:100DE00021F08091D205811106C080919D0681116C
:100DF00002C00E9405188EE599E00E949F2785E4B5
:100E000099E00E949F278CE299E00E949F278091A1
:100E10009D06811103C01092A5062DC00E94863741
:100E200000919E0610919F062091A0063091A10688
:100E3000DC01CB01801B910BA20BB30B81369A4EC8
:100E4000A105B105C0F010929D06E091D305F09187
:100E5000D405EE0FFF1FEF5AFC4F808191819093D4
:100E6000D4058093D305880F991FFC01EE5FFD4FD9
:100E700080818093A50680915E0990915F09181684
:100E800019063CF08091BF059091C005019709F0CB
:100E90009BC081E08093D2051092FC051092FB0567
:100EA00044E650E060E070E088EE93E00E94CF30CE
:100EB0000E94863760939E0670939F068093A006DB
:100EC0009093A1068091D3059091D4050196863028
:100ED000910529F09093D4058093D30504C0109216
:100EE000D4051092D3054091D3055091D4058A01C1
:100EF000000F111FF801EE5FFD4F80818093A50662
:100F0000DA011197FD01EE0FFF1FE75DFC4F6081D5
:100F100071816115710509F448C09B0121503109A7
:100F2000F901EE0FFF1FEF5FFC4F0190F081E02D04
:100F3000EA17FB07D1F56230710511F00C94E91442
:100F400088E1E3E6F2E0DE01119601900D928A95C8
:100F5000E1F78091490290914A0283709927892B89
:100F600021F48DE190E09C838B8340914502509168
:100F70004602E0914702F09148023197EE0FFF1FC1
:100F800081E090E08C0F9D1FE80FF91F8081918117
:100F90008417950714F00C94E9148AE090E090937C
:100FA000D4058093D3050C9488174331510561F023
:100FB000495051094230510538F00E943439F80146
:100FC000EF5CFD4F9183808380915E0990915F0972
:100FD00097FD07C08091BF059091C005019609F06B
:100FE0007AC344E650E060E070E088EE93E00E944F
:100FF000CF3080919D06811145C10E948637609354
:101000009E0670939F068093A0069093A106809100
:10101000D3059091D405892B09F034C10E947E2715
:10102000181619061CF40E947E2705C00E947E2710
:1010300091958195910911E00A974CF010E00E947A
:101040007E271816190664F50E947E272EC00E947E
:101050007E27181619061CF40E947E2705C00E94E0
:101060007E279195819591094AE0BC01CE01835A72
:101070009E4F0E948D2068E474E0CE01895A9E4FF5
:101080000E94E823BE01635A7E4FCE01895A9E4FCB
:101090000E94B11FBC01CE0185960E94B8200BC0F2
:1010A0000E947E279195819591094AE0BC01CE016D
:1010B00085960E948D200E948427181619061CF41C
:1010C0000E94842705C00E948427919581959109EB
:1010D00001E00A974CF000E00E94842718161906D8
:1010E00064F50E9484272EC00E94842718161906D2
:1010F0001CF40E94842705C00E9484279195819545
:1011000091094AE0BC01CE018F5A9E4F0E948D206A
:1011100068E474E0CE01855B9E4F0E94E823BE0127
:101120006F5A7E4FCE01855B9E4F0E94B11FBC015E
:10113000CE014F960E94B8200BC00E948427919543
:10114000819591094AE0BC01CE014F960E948D2005
:101150000E949927181619061CF40E94992705C0A9
:101160000E949927919581959109FF24F3940A97FC
:101170004CF0F12C0E9499271816190664F50E946C
:1011800099272EC00E949927181619061CF40E9450
:10119000992705C00E9499279195819591094AE068
:1011A000BC01CE018B5B9E4F0E948D2068E474E0F1
:1011B000CE01815C9E4F0E94E823BE016B5B7E4F97
:1011C000CE01815C9E4F0E94B11FBC01CE010196F1
:1011D0000E94B8200BC00E94992791958195910992
:1011E0004AE0BC01CE0101960E948D20BE016F5FD6
:1011F0007F4FCE0149960E94B820BE01615E7F4FAD
:10120000CE0149960E94B11FBE016B5D7F4F0E94C7
:10121000B11FBC0187E799E00E947320CE01499677
:101220000E948820CE0101960E948820FF2051F064
:10123000CE01815C9E4F0E948820CE018B5B9E4F29
:101240000E948820CE014F960E948820002351F0F2
:10125000CE01855B9E4F0E948820CE018F5A9E4F03
:101260000E948820CE0185960E948820112351F08B
:10127000CE01895A9E4F0E948820CE01835A9E4FEC
:101280000E9488208091D3059091D405019709F0A0
:10129000E9C10E94782790934602809345020E94FC
:1012A000722790934802809347020E946A2768EE53
:1012B00073E00E94124790934A0280934902409142
:1012C0004302509144029C01275F3F4FBC01452BD4
:1012D00009F0E4C02331310508F597FF03C071958B
:1012E000619571094AE0CE01875C9E4F0E948D2076
:1012F00068E474E0CE018D5C9E4F0E94E823BE013D
:10130000675C7E4FCE018D5C9E4F0E94B11FBC0179
:10131000CE0185960E94B82011E00BC097FF03C054
:101320007195619571094AE0CE0185960E948D20E4
:1013300010E06091470270914802CB0109964397F3
:1013400008F577FF03C07195619571094AE0CE01F8
:10135000835D9E4F0E948D2068E474E0CE01895D1C
:101360009E4F0E94E823BE01635D7E4FCE01895DE2
:101370009E4F0E94B11FBC01CE014F960E94B82023
:1013800001E00BC077FF03C07195619571094AE0D8
:10139000CE014F960E948D2000E060914502709131
:1013A0004602CB010996439710F577FF03C071956C
:1013B000619571094AE0CE018F5D9E4F0E948D209C
:1013C00068E474E0CE01855E9E4F0E94E823BE0172
:1013D0006F5D7E4FCE01855E9E4F0E94B11FBC01A6
:1013E000CE0101960E94B820FF24F3940BC077FF32
:1013F00003C07195619571094AE0CE0101960E9482
:101400008D20F12CBE016F5F7F4FCE0149960E9467
:10141000B820BE01615E7F4FCE0149960E94B11F88
:10142000BE016B5D7F4F0E94B11FBC0187E799E051
:101430000E947320CE0149960E948820CE01019619
:101440000E948820FF2051F0CE01855E9E4F0E94B1
:101450008820CE018F5D9E4F0E948820CE014F963E
:101460000E948820002351F0CE01895D9E4F0E948A
:101470008820CE01835D9E4F0E948820CE018596F4
:101480000E948820112309F4EDC0CE018D5C9E4F8F
:101490000E948820CE01875C9E4FE2C02331310537
:1014A00008F597FF03C07195619571094AE0CE0177
:1014B0008B5E9E4F0E948D2068E474E0CE01815FB8
:1014C0009E4F0E94E823BE016B5E7E4FCE01815F7E
:1014D0009E4F0E94B11FBC01CE0185960E94B8208C
:1014E00011E00BC097FF03C07195619571094AE047
:1014F000CE0185960E948D2010E06091450270918A
:101500004602CB010996439708F577FF03C0719512
:10151000619571094AE0CE01875F9E4F0E948D2040
:1015200068E474E0CE018D5F9E4F0E94E823BE0107
:10153000675F7E4FCE018D5F9E4F0E94B11FBC0141
:10154000CE014F960E94B82001E00BC077FF03C088
:101550007195619571094AE0CE014F960E948D20E8
:1015600000E06091470270914802CB0109964397D1
:1015700010F577FF03C07195619571094AE0CE01BE
:1015800083509F4F0E948D2068E474E0CE01895003
:101590009F4F0E94E823BE0163507F4FCE018950C8
:1015A0009F4F0E94B11FBC01CE0101960E94B8203E
:1015B000FF24F3940BC077FF03C071956195710907
:1015C0004AE0CE0101960E948D20F12CBE016F5F92
:1015D0007F4FCE0149960E94B820BE01615E7F4FC9
:1015E000CE0149960E94B11FBE016B5D7F4F0E94E4
:1015F000B11FBC0187E799E00E947320CE01499694
:101600000E948820CE0101960E948820FF2051F080
:10161000CE0189509F4F0E948820CE0183509F4F5A
:101620000E948820CE014F960E948820002351F00E
:10163000CE018D5F9E4F0E948820CE01875F9E4F16
:101640000E948820CE0185960E948820112351F0A7
:10165000CE01815F9E4F0E948820CE018B5E9E4FFF
:101660000E948820E091D305F091D405EE0FFF1F72
:10167000EF5AFC4F208131813093D4052093D3055C
:101680002D30310549F481E090E09093520280932F
:10169000510280E88093A40690919D0681E08927FD
:1016A00080939D068901000F111FF801EE5FFD4F29
:1016B00080818093A506A90142515109423051050C
:1016C00050F02930310539F00E943439F801EF5CCF
:1016D000FD4F918380838091450990914609009741
:1016E00039F48091BD059091BE05019721F507C0A1
:1016F0009093B6058093B5051816190694F781E006
:101700008093D2051092FC051092FB0544E650E050
:1017100060E070E088EE93E00E94CF300E94EB2FF3
:1017200080919D06811107C010920A0660E087E053
:1017300090E00E94C81E8091B5059091B605019673
:1017400061F580914709882341F11092A7068091A5
:101750009D06882329F10E9486370091B1051091DA
:10176000B2052091B3053091B405DC01CB01801B9B
:10177000910BA20BB30B87399105A105B10580F040
:101780000E9486376093B1057093B2058093B305CC
:101790009093B4050E94EB2F03C081E08093A706CD
:1017A00080912C0990912D09009739F48091BB0507
:1017B0009091BC050197B1F507C09093B005809357
:1017C000AF051816190694F711E01093D205109280
:1017D000FC051092FB0544E650E060E070E088EE06
:1017E00093E00E94CF300E948D2F80919D06811141
:1017F00019C010930A0661E087E090E00E94C81EBD
:101800006091000288E090E00E94C81E6091AD05E2
:1018100089E090E00E94C81E6091AB058AE090E0EC
:101820000E94C81E8091AF059091B005019661F5A8
:1018300080912E09882341F11092A60680919D0681
:10184000882329F10E9486370091A7051091A805E9
:101850002091A9053091AA05DC01CB01801B910BD9
:10186000A20BB30B87399105A105B10580F00E9449
:1018700086376093A7057093A8058093A905909378
:10188000AA050E948D2F03C081E08093A606809157
:101890009D06811141C0809145099091460997FDAF
:1018A00006C08091BD059091BE050196B1F444E655
:1018B00050E060E070E088EE93E00E94CF3081E07D
:1018C0008093300261E080E090E00E94C81E81EACF
:1018D00091E00E94DA320E94CC1E80912C099091F6
:1018E0002D0997FD06C08091BB059091BC0501961E
:1018F00099F444E650E060E070E088EE93E00E94E6
:10190000CF301092300260E080E090E00E94C81E6C
:1019100089E991E00E94DA32E091D305F091D40593
:10192000E431F10510F00C9488178827E758FF4F31
:101930008F4F0C9463478091D105811135C00E946F
:1019400086370091730510917405209175053091CB
:101950007605DC01CB01801B910BA20BB30B893EFA
:101960009340A105B10578F00E9486376093730516
:10197000709374058093750590937605CE0101965A
:101980000E945C3A06C067E779E0CE0101960E94AA
:10199000B820BE016F5F7F4F87E799E00E94C21FAA
:1019A000CE0101960E94882080917C0581110DC096
:1019B0000E948637609378057093790580937A0545
:1019C00090937B0581E080937C050E94863700918F
:1019D00078051091790520917A0530917B05DC011D
:1019E000CB01801B910BA20BB30B893E9340A10549
:1019F000B10508F4C4C20E948637609378057093DD
:101A0000790580937A0590937B059091770581E025
:101A1000892780937705882311F080ECAEC210925D
:101A2000A406ADC28091D1058111A6C280919F0507
:101A3000811113C00E948637DC01CB0187519C4F76
:101A4000AF4FBF4F80939B0590939C05A0939D053E
:101A5000B0939E0581E080939F058091930581114D
:101A600052C10E946A2708EE13E0B8010E94124793
:101A70001816190634F40E946A27B8010E9412470A
:101A800008C00E946A27B8010E941247919581956B
:101A9000910911E00A979CF010E00E946A27E8EE95
:101AA000EE2EE3E0FE2EB7010E941247181619062B
:101AB000CCF50E946A27B7010E9412473BC00E94E2
:101AC0006A27F8EEEF2EF3E0FF2EB7010E941247CF
:101AD0001816190634F40E946A27B7010E941247AB
:101AE00008C00E946A27B7010E941247919581950C
:101AF00091094AE0BC01CE0149960E948D2068E41C
:101B000074E0CE014F960E94E823BE01675E7F4FCE
:101B1000CE014F960E94B11FBC01CE0101960E94DA
:101B2000B8200EC00E946A27B7010E941247919503
:101B3000819591094AE0BC01CE0101960E948D2059
:101B40000E947227181619061CF40E94722705C0FD
:101B50000E94722791958195910901E00A974CF0B6
:101B600000E00E947227181619064CF50E94722791
:101B70002BC00E947227181619061CF40E947227A7
:101B800005C00E9472279195819591094AE0BC0198
:101B9000CE018B960E948D2068E474E0CE01C19640
:101BA0000E94E823BE01655D7F4FCE01C1960E9471
:101BB000B11FBC01CE0185960E94B8200BC00E94C7
:101BC00072279195819591094AE0BC01CE018596D5
:101BD0000E948D200E947827181619061CF40E9476
:101BE000782705C00E947827919581959109FF2457
:101BF000F3940A974CF0F12C0E94782718161906D6
:101C000064F50E9478272EC00E94782718161906BE
:101C10001CF40E94782705C00E9478279195819531
:101C200091094AE0BC01CE018D5B9F4F0E948D203F
:101C300068E474E0CE01875B9F4F0E94E823BE01F9
:101C40006D5B7F4FCE01875B9F4F0E94B11FBC0130
:101C5000CE01CD960E94B8200BC00E9478279195A6
:101C6000819591094AE0BC01CE01CD960E948D205C
:101C7000BE01635C7F4FCE01C7960E94B820BE01B3
:101C80006B5D7F4FCE01C7960E94B11FBE016F5F93
:101C90007F4F0E94B11FBC018DE895E00E94B820E3
:101CA00081E080939305CE01C7960E948820CE01E3
:101CB000CD960E948820FF2051F0CE01875B9F4F78
:101CC0000E948820CE018D5B9F4F0E948820CE010C
:101CD00085960E948820002341F0CE01C1960E9483
:101CE0008820CE018B960E948820CE0101960E940A
:101CF0008820112341F0CE014F960E948820CE010A
:101D000049960E94882080918505811107C08091A5
:101D100043028093840581E0809385050E94863785
:101D200000919B0510919C0520919D0530919E0589
:101D3000DC01CB01801B910BA20BB30B893E9340BE
:101D4000A105B10558F48091840590E020914302EB
:101D5000309144028217930709F4FDC00E94863730
:101D600060939B0570939C0580939D0590939E05C1
:101D70008091430290914402892B09F06FC70E9421
:101D80006A2708EE13E0B8010E94124718161906D8
:101D90000CF0EDC60E946A27B8010E94124711E0BC
:101DA0000A970CF0EDC60E946A2778EEE72E73E0E2
:101DB000F72EB7010E941247181619060CF0F3C649
:101DC0000E946A27B7010E9412474AE0BC01CE0177
:101DD00085960E948D2068E474E0CE01C7960E942B
:101DE000E823BE016B5D7F4FCE01C7960E94B11FF5
:101DF000BC01CE0101960E94B8200E9472271816DD
:101E000019060CF0E8C60E94722701E00A970CF050
:101E1000E8C60E947227181619060CF0EBC60E943D
:101E200072274AE0BC01CE01815B9F4F0E948D204A
:101E300068E474E0CE018B5A9F4F0E94E823BE01F4
:101E4000615B7F4FCE018B5A9F4F0E94B11FBC0137
:101E5000CE01CD960E94B8200E9478271816190648
:101E60000CF0DAC60E947827FF24F3940A970CF04E
:101E7000D9C60E947827181619060CF0DCC60E94F5
:101E800078274AE0BC01CE0189599F4F0E948D20DE
:101E900068E474E0CE0183599F4F0E94E823BE019D
:101EA00069597F4FCE0183599F4F0E94B11FBC01DA
:101EB000CE018F599F4F0E94B820BE016F597F4FAE
:101EC000CE01855A9F4F0E94B820BE01635C7F4FB0
:101ED000CE01855A9F4F0E94B11FBE016F5F7F4F99
:101EE0000E94B11FBC018DE895E00E947320CE01D5
:101EF000855A9F4F0E948820CE018F599F4F0E9484
:101F00008820FF2051F0CE0183599F4F0E948820E6
:101F1000CE0189599F4F0E948820CE01CD960E9404
:101F20008820002351F0CE018B5A9F4F0E948820B9
:101F3000CE01815B9F4F0E948820CE0101960E94B6
:101F40008820112341F0CE01C7960E948820CE013F
:101F500085960E9488206DE875E0CE0101960E946A
:101F6000B820BE016F5F7F4F87E799E00E94C21FD4
:101F7000CE0101960E94882080E48093A4060E94EE
:101F8000302F1092A3061092A206C2C760914F0292
:101F900070915002CB010996439708F577FF03C073
:101FA0007195619571094AE0CE018F509F4F0E9453
:101FB0008D2068E474E0CE0185519F4F0E94E82394
:101FC000BE016F507F4FCE0185519F4F0E94B11FC0
:101FD000BC01CE0185960E94B82011E00BC077FFAE
:101FE00003C07195619571094AE0CE0185960E9402
:101FF0008D2010E060914D0270914E02CB01099648
:10200000439708F577FF03C07195619571094AE020
:10201000CE018B519F4F0E948D2068E474E0CE0169
:1020200081529F4F0E94E823BE016B517F4FCE012A
:1020300081529F4F0E94B11FBC01CE014F960E945A
:10204000B82001E00BC077FF03C07195619571095D
:102050004AE0CE014F960E948D2000E060914B0235
:1020600070914C02CB010996439710F577FF03C09E
:102070007195619571094AE0CE0187529F4F0E9488
:102080008D2068E474E0CE018D529F4F0E94E823BA
:10209000BE0167527F4FCE018D529F4F0E94B11FEC
:1020A000BC01CE0101960E94B820FF24F3940BC01E
:1020B00077FF03C07195619571094AE0CE010196E1
:1020C0000E948D20F12CBE016F5F7F4FCE0149969B
:1020D0000E94B820BE01615E7F4FCE0149960E94EA
:1020E000B11FBE016B5D7F4F0E94B11FBC0187E72E
:1020F00099E00E947320CE0149960E948820CE016B
:1021000001960E948820FF2051F0CE018D529F4FF2
:102110000E948820CE0187529F4F0E948820CE01C6
:102120004F960E948820002351F0CE0181529F4F8C
:102130000E948820CE018B519F4F0E948820CE01A3
:1021400085960E948820112351F0CE0185519F4F22
:102150000E948820CE018F509F4F0E9488201092AD
:10216000A3061092A206809151029091520201970B
:1021700089F580E88093A4062FC060915302709186
:1021800054024AE0CE0149960E948D2067E474E033
:10219000CE0101960E94E823BE01675E7F4FCE010B
:1021A00001960E94B11F67E474E00E949A1FBC016F
:1021B00087E799E00E947320CE0101960E94882053
:1021C000CE0149960E94882083E390E09093A30675
:1021D0008093A2061092A4060E94302F99C6809187
:1021E000D10581113BC081E020915502309156020A
:1021F000232B09F480E00E94042CCB59DE4F688326
:1022000079838A839B83C556D140AB01BC01CE0143
:1022100001960E94982CBE016F5F7F4F87E799E07F
:102220000E94C21FCE0101960E9488208091550213
:1022300090915602892B51F481E390E09093A3068C
:102240008093A20680E48093A40608C083E290E015
:102250009093A3068093A2061092A40620E030E09B
:10226000A901CB59DE4F688179818A819B81C5564E
:10227000D1400E9401459091A40687FF02C090685A
:1022800001C09F779093A40643C660915702709156
:102290005802CB010996439708F577FF03C0719563
:1022A000619571094AE0CE0183539F4F0E948D20B2
:1022B00068E474E0CE0189539F4F0E94E823BE0179
:1022C00063537F4FCE0189539F4F0E94B11FBC01C2
:1022D000CE0101960E94B82011E00BC077FF03C029
:1022E0007195619571094AE0CE0101960E948D2099
:1022F00010E0BE016F5F7F4FCE0149960E94B8206B
:1023000065E474E0CE0149960E949A1FBC0187E7FC
:1023100099E00E947320CE0149960E948820CE0148
:1023200001960E948820112351F0CE0189539F4FBE
:102330000E948820CE0183539F4F0E9488208FE007
:1023400090E09093A3068093A2068091570290910B
:10235000580297FD03C01092A406DAC580E8809366
:10236000A406D6C58091430290914402892B79F44A
:1023700061E274E087E799E00E941A2083E090E030
:1023800090931702809316028CE090E00EC068E2F2
:1023900074E087E799E00E941A208CE090E0909327
:1023A00017028093160283E090E0909319028093C5
:1023B0001802AEC580914302909144026091490297
:1023C00070914A02892B09F0E5C0CB010996439729
:1023D00008F577FF03C07195619571094AE0CE0158
:1023E0008F539F4F0E948D2068E474E0CE01855486
:1023F0009F4F0E94E823BE016F537F4FCE0185544B
:102400009F4F0E94B11FBC01CE0185960E94B8204B
:1024100011E00BC077FF03C07195619571094AE027
:10242000CE0185960E948D2010E060914702709148
:102430004802CB010996439708F577FF03C07195D1
:10244000619571094AE0CE018B549F4F0E948D2007
:1024500068E474E0CE0181559F4F0E94E823BE01DD
:102460006B547F4FCE0181559F4F0E94B11FBC011D
:10247000CE014F960E94B82001E00BC077FF03C049
:102480007195619571094AE0CE014F960E948D20A9
:1024900000E06091450270914602CB010996439796
:1024A00010F577FF03C07195619571094AE0CE017F
:1024B00087559F4F0E948D2068E474E0CE018D55B2
:1024C0009F4F0E94E823BE0167557F4FCE018D5577
:1024D0009F4F0E94B11FBC01CE0101960E94B820FF
:1024E000FF24F3940BC077FF03C0719561957109C8
:1024F0004AE0CE0101960E948D20F12CBE016F5F53
:102500007F4FCE0149960E94B820BE01615E7F4F89
:10251000CE0149960E94B11FBE016B5D7F4F0E94A4
:10252000B11FBC0187E799E00E947320CE01499654
:102530000E948820CE0101960E948820FF2051F041
:10254000CE018D559F4F0E948820CE0187559F4F09
:102550000E948820CE014F960E948820002351F0CF
:10256000CE0181559F4F0E948820CE018B549F4FF2
:102570000E948820CE0185960E948820112309F4AC
:10258000C7C4CE0185549F4F0E948820CE018F532F
:102590009F4FE1C0CB010996439708F577FF03C031
:1025A0007195619571094AE0CE0183569F4F0E9453
:1025B0008D2068E474E0CE0189569F4F0E94E82385
:1025C000BE0163567F4FCE0189569F4F0E94B11FB7
:1025D000BC01CE018B960E94B82011E00BC077FFA2
:1025E00003C07195619571094AE0CE018B960E94F6
:1025F0008D2010E06091450270914602CB01099652
:10260000439708F577FF03C07195619571094AE01A
:10261000CE018F569F4F0E948D2068E474E0CE015A
:1026200085579F4F0E94E823BE016F567F4FCE0112
:1026300085579F4F0E94B11FBC01CE0185960E9415
:10264000B82001E00BC077FF03C071956195710957
:102650004AE0CE0185960E948D2000E060914702FD
:1026600070914802CB010996439700F577FF03C0AC
:102670007195619571094AE0CE018B579F4F0E9479
:102680008D2068E474E0CE0101960E94E823BE012B
:102690006B577F4FCE0101960E94B11FBC01CE0146
:1026A00049960E94B820FF24F3940BC077FF03C023
:1026B0007195619571094AE0CE0149960E948D207D
:1026C000F12CBE01675E7F4FCE014F960E94B8206D
:1026D000BE016B5D7F4FCE014F960E94B11FBE01C0
:1026E000655D7F4F0E94B11FBC0187E799E00E94A2
:1026F0007320CE014F960E948820CE0149960E94F9
:102700008820FF2049F0CE0101960E948820CE014A
:102710008B579F4F0E948820CE0185960E9488206B
:10272000002351F0CE0185579F4F0E948820CE0193
:102730008F569F4F0E948820CE018B960E94882042
:10274000112309F4E5C3CE0189569F4F0E948820CA
:10275000CE0183569F4F0E948820DAC30E948A3997
:10276000E0900506F090060600910306109104061D
:102770002091010630910206409108065091090609
:102780006091FF05709100068091FD059091FE0516
:102790000E948F260C944402809110058D3411F014
:1027A0000C949D0280911105833411F00C949D02CC
:1027B000D0901305C0901405709015056090160513
:1027C000E0901705B090180580E090E0ECE0F0E0B4
:1027D000DF01A45FBA4F2C912C3231F4019688307E
:1027E000910511F4EF5F05C03196E335F10581F7EE
:1027F000E0E0F0E0E45FFA4F5080418032802380D7
:102800008481082E000C990BC0975AE0F52EF89E93
:102810008001F99E100D11240053184F8581080F77
:10282000111D87FD1A950053110946EF57E062EE1E
:1028300077E0C8010E948A42882311F40C949D021B
:10284000832D330C990BC097F89E9001F99E300DA3
:102850001124C901820D911D27FC9A951C0190E35A
:10286000291A31084CE050E061E070E0C1010E949B
:102870008A42882311F40C949D02852D550C990BE6
:10288000C097F89E9001F99E300D1124D901A40D36
:10289000B11D47FCBA952D01B0E34B1A51084FE129
:1028A00050E061E070E0C2010E948A42882311F486
:1028B0000C949D028D2DDD0C990BC097F89E900114
:1028C000F99E300D1124F901EC0DF11DC7FCFA95AC
:1028D0006F01F0E3CF1AD10847E150E060E070E00B
:1028E000C6010E948A42882311F40C949D02872D10
:1028F000770C990BC097F89E9001F99E300D11242A
:10290000C901860D911D67FC9A953C0190E3691AF7
:1029100071084BE350E060E070E0C3010E948A421E
:10292000882311F40C949D028E2DEE0C990BC09708
:10293000F89E9001F99E300D11247901EB0CF11CE9
:10294000B7FCFA94A0E3EA1AF1084BE350E060E028
:1029500070E0C7010E948A42882311F40C949D0202
:10296000C0928B0960928C09E0928D0940928E0989
:1029700020928F0910939109009390090E94863745
:1029800060939309709394098093950990939609A5
:102990000C949D0220813181235131092F30310562
:1029A00050F4CC0CDD1CEE1CFF1C6894C0F80296A1
:1029B00034960C94C203208131812A503109293088
:1029C000310510F00C94F003CC0CDD1CEE1CFF1C48
:1029D000EECF10929D063093D4052093D305232B80
:1029E000B9F40E946A277C010E9472278C010E9420
:1029F00078279C01409141025091420260913F0230
:102A00007091400280913D0290913E020E948F267B
:102A10008091D3059091D4050197B9F58FEA91E0A3
:102A20000E94B93280914502909146020E94703511
:102A300088EA91E00E94B932809147029091480261
:102A40000E947035E0904902F0904A0290E3E91A42
:102A500098EFF90A009147021091480280904502D0
:102A6000909046020E947E275C010E9484276C01A0
:102A70000E9499279401A501B6010E948F266091BA
:102A800043028DE090E00E94C81E8091D305909192
:102A9000D4050297C1F460914B0282E090E00E945D
:102AA000C81E60914D0283E090E00E94C81E6091B4
:102AB0004F0284E090E00E94C81E6091510286E0BF
:102AC00090E00E94C81E8091D3059091D405039791
:102AD00031F46091530281E090E00E94C81E809121
:102AE000D3059091D405049731F4609155028BE0A1
:102AF00090E00E94C81E8091D3059091D40505975F
:102B000039F460915702645F8CE090E00E94C81E27
:102B10000E946A277C010E947227082F0E94782752
:102B2000C659DE4F8883CA56D1400E947E27C759B6
:102B3000DE4F8883C956D1400E948427182F0E94F7
:102B40009927382FC70168EE73E00E941247E82EDC
:102B5000C659DE4F2881CA56D140C759DE4F488139
:102B6000C956D140612F832F0E940336D1C10E94E4
:102B70006A27B8010E9412479195819591090FC962
:102B800010E00E946A2768EEE62E63E0F62EB70199
:102B90000E941247181619067CF40E946A27B70192
:102BA0000E94124711C00E946A27B7010E94124773
:102BB00091958195910909C90E946A27B7010E94E0
:102BC00012479195819591094AE0BC01CE01019689
:102BD0000E948D2012C90E947227919581959109BA
:102BE00014C900E00E947227181619064CF40E94BE
:102BF00072270BC00E94722791958195910911C986
:102C00000E9472279195819591094AE0BC01CE01FD
:102C1000CD960E948D2020C90E947827919581959C
:102C2000910922C9F12C0E947827181619064CF434
:102C30000E9478270BC00E94782791958195910971
:102C400020C90E9478279195819591094AE0BC019D
:102C5000CE018F599F4F0E948D202FC90E946A2755
:102C600008EE13E0B8010E9412471816190634F452
:102C70000E946A27B8010E94124708C00E946A2772
:102C8000B8010E94124791958195910911E00A9728
:102C90009CF010E00E946A2748EEE42E43E0F42EF8
:102CA000B7010E94124718161906DCF50E946A2720
:102CB000B7010E9412473DC00E946A2758EEE52ED8
:102CC00053E0F52EB7010E9412471816190634F486
:102CD0000E946A27B7010E94124708C00E946A2713
:102CE000B7010E9412479195819591094AE0BC0174
:102CF000CE01CD960E948D2068E474E0CE01855A05
:102D00009F4F0E94E823BE01635C7F4FCE01855A2E
:102D10009F4F0E94B11FBC01CE0101960E94B820B6
:102D20000EC00E946A27B7010E94124791958195B3
:102D300091094AE0BC01CE0101960E948D200E94BB
:102D40007827181619061CF40E94782705C00E94DF
:102D5000782791958195910901E00A974CF000E060
:102D60000E9478271816190664F50E9478272EC04D
:102D70000E947827181619061CF40E94782705C0AF
:102D80000E9478279195819591094AE0BC01CE0176
:102D90008F599F4F0E948D2068E474E0CE018D58BA
:102DA0009F4F0E94E823BE016F597F4FCE018D587F
:102DB0009F4F0E94B11FBC01CE0185960E94B82092
:102DC0000BC00E9478279195819591094AE0BC013A
:102DD000CE0185960E948D200E9472271816190632
:102DE0001CF40E94722705C00E947227919581955C
:102DF0009109FF24F3940A974CF0F12C0E9472275A
:102E0000181619066CF50E9472272FC00E947227AF
:102E1000181619061CF40E94722705C00E9472271A
:102E20009195819591094AE0BC01CE0187589F4F49
:102E30000E948D2068E474E0CE0181589F4F0E946B
:102E4000E823BE0167587F4FCE0181589F4F0E94F3
:102E5000B11FBC01CE01815B9F4F0E94B8200CC006
:102E60000E9472279195819591094AE0BC01CE019B
:102E7000815B9F4F0E948D20BE01615B7F4FCE0121
:102E8000C7960E94B820BE016B5D7F4FCE01C796EA
:102E90000E94B11FBE016F5F7F4F0E94B11FBC0136
:102EA0008DE895E00E947320CE01C7960E9488208D
:102EB000CE01815B9F4F0E948820FF2051F0CE0100
:102EC00081589F4F0E948820CE0187589F4F0E94B3
:102ED0008820CE0185960E948820002351F0CE01E3
:102EE0008D589F4F0E948820CE018F599F4F0E947E
:102EF0008820CE0101960E948820112309F42BC856
:102F0000CE01855A9F4F0E948820CE01CD9621C8C0
:102F1000C659DE4F0FB6F894DEBF0FBECDBFDF91AE
:102F2000CF911F910F91FF90EF90DF90CF90BF90C6
:102F3000AF909F908F907F906F905F904F903F9059
:102F40002F900895089580E090E00895CF92DF9249
:102F5000EF92FF920F931F93CF93DF937C01262F65
:102F6000972F8A018091EC09882391F0C62FD72FE3
:102F70006E01C40ED51ECC15DD0571F06991D70127
:102F8000ED91FC910190F081E02DC7011995F3CFEF
:102F9000642F822F0E948629C801DF91CF911F9153
:102FA0000F91FF90EF90DF90CF900895CF93DF9334
:102FB0001F92CDB7DEB769832091EC092223D1F0AF
:102FC00020910F0A203240F021E030E0FC013383F1
:102FD000228380E090E015C08091ED09E82FF0E0B9
:102FE000E251F64F998190838F5F8093ED09809332
:102FF0000F0A05C061E0CE0101960E94862981E09A
:1030000090E00F90DF91CF910895EF92FF920F9390
:103010001F93CF93DF93CDB7DEB7C25AD1090FB656
:10302000F894DEBF0FBECDBF8091E70581110DC0C2
:103030000E9486376093E3057093E4058093E5056D
:103040009093E60581E08093E7058091DB0581118F
:103050000DC00E9486376093D7057093D805809382
:10306000D9059093DA0581E08093DB050E948637CD
:103070000091E3051091E4052091E5053091E60506
:10308000DC01CB01801B910BA20BB30B00912A0238
:1030900010912B0220912C0230912D020817190754
:1030A0002A073B0708F06FC00E9486376093E3054C
:1030B0007093E4058093E5059093E6058091D5052E
:1030C0009091D605009799F481E090E09093D40513
:1030D0008093D30588E893E1A0E0B0E080932A02D2
:1030E00090932B02A0932C02B0932D021EC0019747
:1030F000E1F484E090E09093D4058093D30588E8D0
:1031000093E1A0E0B0E080932A0290932B02A09379
:103110002C02B0932D028091FA05811106C082E045
:1031200090E09093D6058093D5058091D505909138
:10313000D6058230910581F41092D4051092D30502
:1031400040E65AEE60E070E040932A0250932B0272
:1031500060932C0270932D020196833091052CF41C
:103160009093D6058093D50504C01092D605109291
:10317000D5058091D205882321F01092D4051092B4
:10318000D3051092D2050E9486370091E305109175
:10319000E4052091E5053091E605DC01CB01801BBB
:1031A000910BA20BB30B803D9740A105B10508F030
:1031B000DFC50E9486370091D7051091D805209170
:1031C000D9053091DA05DC01CB01801B910BA20BF4
:1031D000B30B85369105A105B10508F4CBC50E9456
:1031E00086376093D7057093D8058093D90590935F
:1031F000DA052091FA058091D3059091D405222318
:1032000009F4FBC2892B69F5CE0107960E945C3A4E
:1032100081E02091550230915602232B09F480E081
:103220000E94042CAB01BC01CE010D960E94982C8B
:10323000AE01495F5F4FBE01635F7F4FCE010196D4
:103240000E94792EBE016F5F7F4F87E799E09AD683
:10325000CE0101965DD7CE010D965AD7CE010796C5
:1032600057D78091D3059091D405019709F052C1A9
:103270000E946A2708EE13E0B8010E941247181650
:10328000190634F40E946A27B8010E94124708C048
:103290000E946A27B8010E94124791958195910971
:1032A00011E00A979CF010E00E946A27E8EEEE2EEB
:1032B000E3E0FE2EB7010E94124718161906B4F576
:1032C0000E946A27B7010E94124738C00E946A27ED
:1032D000F8EEEF2EF3E0FF2EB7010E94124718160A
:1032E000190634F40E946A27B7010E94124708C0E9
:1032F0000E946A27B7010E94124791958195910912
:103300004AE0BC01CE01439608D768E474E0CE01E0
:1033100049960E94E823BE016D5E7F4FCE0149961B
:1033200020D6BC01CE010D9623D70DC00E946A277E
:10333000B7010E9412479195819591094AE0BC011D
:10334000CE010D96EAD60E947227181619061CF4B3
:103350000E94722705C00E9472279195819591095C
:1033600001E00A974CF000E00E9472271816190637
:1033700034F50E94722728C00E9472271816190679
:103380001CF40E94722705C00E94722791958195B6
:1033900091094AE0BC01CE018596BFD668E474E08D
:1033A000CE018B960E94E823BE016B5D7F4FCE015C
:1033B0008B96D7D5BC01CE014F96DAD60AC00E94B3
:1033C00072279195819591094AE0BC01CE014F96F3
:1033D000A4D60E947827181619061CF40E94782794
:1033E00005C00E947827919581959109FF24F39457
:1033F0000A974CF0F12C0E9478271816190644F50C
:103400000E9478272AC00E947827181619061CF4F3
:103410000E94782705C00E9478279195819591098F
:103420004AE0BC01CE01CD9678D668E474E0CE01C6
:103430008D5B9F4F0E94E823BE01635C7F4FCE01EE
:103440008D5B9F4F8ED5BC01CE01C79691D60AC029
:103450000E9478279195819591094AE0BC01CE019F
:10346000C7965BD6BE01695C7F4FCE01C19680D600
:10347000BE01615E7F4FCE01C19673D5BE01635F11
:103480007F4F6FD5BC01CE01079672D6CE01875B08
:103490009F4F0E945C3AAE01495F5F4FBE01675B80
:1034A0007F4FCE0101960E94792EBE016F5F7F4F44
:1034B00087E799E067D5CE0101962AD6CE01875BD2
:1034C0009F4F26D6CE01079623D6CE01C19620D691
:1034D000CE01C7961DD6FF2039F0CE018D5B9F4FE0
:1034E00017D6CE01CD9614D6CE014F9611D6002315
:1034F00031F0CE018B960CD6CE01859609D6CE0141
:103500000D9606D6112331F0CE01499601D6CE0193
:103510004396FED58091D3059091D405049709F088
:1035200029C481E02091550230915602232B09F4E1
:1035300080E00E94042CAB01BC01CE0107960E94E2
:10354000982C0E946A2708EE13E0B8010E941247E7
:103550001816190634F40E946A27B8010E9412470F
:1035600008C00E946A27B8010E9412479195819570
:10357000910911E00A979CF010E00E946A2768EE1A
:10358000E62E63E0F62EB7010E94124718161906C0
:10359000B4F50E946A27B7010E94124738C00E9402
:1035A0006A2778EEE72E73E0F72EB7010E941247E4
:1035B0001816190634F40E946A27B7010E941247B0
:1035C00008C00E946A27B7010E9412479195819511
:1035D00091094AE0BC01CE01C1969FD568E474E030
:1035E000CE01C7960E94E823BE016F5C7F4FCE01DB
:1035F000C796B7D4BC01CE014F96BAD50DC00E9474
:103600006A27B7010E9412479195819591094AE076
:10361000BC01CE014F9681D50E947227181619065B
:103620001CF40E94722705C00E9472279195819513
:10363000910901E00A974CF000E00E9472271816E9
:10364000190654F50E9472272CC00E947227181682
:1036500019061CF40E94722705C00E9472279195DA
:10366000819591094AE0BC01CE01815B9F4F55D500
:1036700068E474E0CE018B5A9F4F0E94E823BE019C
:10368000615B7F4FCE018B5A9F4F6BD4BC01CE0143
:10369000875B9F4F6DD50BC00E94722791958195D6
:1036A00091094AE0BC01CE01875B9F4F36D50E944D
:1036B0007827181619061CF40E94782705C00E9466
:1036C0007827919581959109FF24F3940A974CF0FE
:1036D000F12C0E9478271816190654F50E947827B5
:1036E0002CC00E947827181619061CF40E9478270F
:1036F00005C00E9478279195819591094AE0BC0107
:10370000CE0189599F4F09D568E474E0CE018359F1
:103710009F4F0E94E823BE0169597F4FCE01835914
:103720009F4F1FD4BC01CE018F599F4F21D50BC095
:103730000E9478279195819591094AE0BC01CE01BC
:103740008F599F4FEAD4BE016F597F4FCE01855AE2
:103750009F4F0ED5BE01675B7F4FCE01855A9F4FAD
:1037600000D4BE01615E7F4FFCD3BC01CE010D963B
:10377000FFD4AE01495F5F4FBE01635F7F4FCE0153
:1037800001960E94792EBE016F5F7F4F87E799E017
:10379000F9D3CE010196BCD4CE010D96B9D4CE0199
:1037A000855A9F4FB5D4CE018F599F4FB1D4FF207A
:1037B00041F0CE0183599F4FABD4CE0189599F4F21
:1037C000A7D4CE01875B9F4FA3D4002341F0CE0145
:1037D0008B5A9F4F9DD4CE01815B9F4F99D4CE01D0
:1037E0004F9696D4112331F0CE01C79691D4CE01D5
:1037F000C1968ED4CE010796B9C2892B09F057C164
:10380000CE0107960E945C3A0E946A2708EE13E0F8
:10381000B8010E9412471816190634F40E946A274C
:10382000B8010E94124708C00E946A27B8010E948E
:10383000124791958195910911E00A979CF010E04B
:103840000E946A2748EEE42E43E0F42EB7010E945E
:10385000124718161906BCF50E946A27B7010E9484
:10386000124739C00E946A2758EEE52E53E0F52E24
:10387000B7010E9412471816190634F40E946A27ED
:10388000B7010E94124708C00E946A27B7010E9430
:1038900012479195819591094AE0BC01CE014F965E
:1038A0003CD468E474E0CE01875B9F4F91D7BE01A2
:1038B000615E7F4FCE01875B9F4F53D3BC01CE012A
:1038C000439656D40DC00E946A27B7010E94124742
:1038D0009195819591094AE0BC01CE0143961DD492
:1038E0000E947227181619061CF40E94722705C040
:1038F0000E94722791958195910901E00A974CF0F9
:1039000000E00E9472271816190644F50E947227DB
:103910002AC00E947227181619061CF40E947227EA
:1039200005C00E9472279195819591094AE0BC01DA
:10393000CE01855A9F4FF1D368E474E0CE018F59D0
:103940009F4F46D7BE01655A7F4FCE018F599F4F7B
:1039500008D3BC01CE0149960BD40AC00E9472273D
:103960009195819591094AE0BC01CE014996D5D344
:103970000E947827181619061CF40E94782705C0A3
:103980000E947827919581959109FF24F3940A97D5
:103990004CF0F12C0E9478271816190644F50E9465
:1039A00078272AC00E947827181619061CF40E944E
:1039B000782705C00E9478279195819591094AE062
:1039C000BC01CE018D589F4FA8D368E474E0CE01AE
:1039D00087589F4FFDD6BE016D587F4FCE01875847
:1039E0009F4FBFD2BC01CE018B96C2D30AC00E94AA
:1039F00078279195819591094AE0BC01CE018B967B
:103A00008CD3BE01655D7F4FCE018596B1D3BE01DB
:103A1000675E7F4FCE018596A4D2BE016D5E7F4F5B
:103A2000A0D2BC01CE010D96A3D3AE01495F5F4F7A
:103A3000BE01635F7F4FCE0101960E94792EBE01C9
:103A40006F5F7F4F87E799E09DD2CE01019660D3EB
:103A5000CE010D965DD3CE0185965AD3CE018B96BD
:103A600057D3FF2041F0CE0187589F4F51D3CE014D
:103A70008D589F4F4DD3CE0149964AD3002341F034
:103A8000CE018F599F4F44D3CE01855A9F4F40D3CB
:103A9000CE0143963DD3112339F0CE01875B9F4F72
:103AA00037D3CE014F9634D3CE01079631D38091D0
:103AB000D3059091D405019709F05CC10E946A2753
:103AC00008EE13E0B8010E9412471816190634F4E4
:103AD0000E946A27B8010E94124708C00E946A2704
:103AE000B8010E94124791958195910911E00A97BA
:103AF0009CF010E00E946A2728EEE22E23E0F22ECE
:103B0000B7010E94124718161906C4F50E946A27C9
:103B1000B7010E9412473AC00E946A2738EEE32E8E
:103B200033E0F32EB7010E9412471816190634F439
:103B30000E946A27B7010E94124708C00E946A27A4
:103B4000B7010E9412479195819591094AE0BC0105
:103B5000CE0181589F4FE1D268E474E0CE018B57CB
:103B60009F4F36D6BE0161587F4FCE018B579F4F76
:103B7000F8D1BC01CE010D96FBD20DC00E946A2780
:103B8000B7010E9412479195819591094AE0BC01C5
:103B9000CE010D96C2D20E947227181619061CF487
:103BA0000E94722705C00E94722791958195910904
:103BB00001E00A974CF000E00E94722718161906DF
:103BC00044F50E9472272AC00E947227181619060F
:103BD0001CF40E94722705C00E947227919581955E
:103BE00091094AE0BC01CE0185579F4F96D268E407
:103BF00074E0CE018F569F4FEBD5BE0165577F4FC6
:103C0000CE018F569F4FADD1BC01CE014396B0D2AD
:103C10000AC00E9472279195819591094AE0BC01E2
:103C2000CE0143967AD20E947827181619061CF402
:103C30000E94782705C00E94782791958195910967
:103C4000FF24F3940A974CF0F12C0E947827181661
:103C5000190644F50E9478272AC00E947827181672
:103C600019061CF40E94782705C00E9478279195B8
:103C7000819591094AE0BC01CE0189569F4F4DD2F2
:103C800068E474E0CE0183569F4FA2D5BE01695609
:103C90007F4FCE0183569F4F64D1BC01CE018596E4
:103CA00067D20AC00E9478279195819591094AE0D0
:103CB000BC01CE01859631D2BE016B5D7F4FCE0136
:103CC000499656D2BE016D5E7F4FCE01499649D1CD
:103CD000BE01635F7F4F45D1BC01CE01079648D23C
:103CE000CE018B960E945C3AAE01495F5F4FBE01E8
:103CF000655D7F4FCE0101960E94792EBE016F5FF8
:103D00007F4F87E799E03ED1CE01019601D2CE01E7
:103D10008B96FED1CE010796FBD1CE014996F8D104
:103D2000CE018596F5D1FF2041F0CE0183569F4FFD
:103D3000EFD1CE0189569F4FEBD1CE014396E8D10A
:103D4000002341F0CE018F569F4FE2D1CE0185571F
:103D50009F4FDED1CE010D96DBD1112359F0CE015C
:103D60008B579F4FD5D1CE0181589F4FD1D102C0E3
:103D70001092D105CE55DF4F0FB6F894DEBF0FBEBF
:103D8000CDBFDF91CF911F910F91FF90EF900895DC
:103D90000C9422460C941A468F929F92AF92BF9237
:103DA000CF92DF92EF92FF920F931F93CF93DF9307
:103DB00088E090E0EFDF982EA82EB12C89E090E00B
:103DC000E9DFC82E082F10E08AE090E0E3DFC82F7B
:103DD000D0E0D12CE12CF12CFE2CED2CDC2CCC24D1
:103DE000E928C82A812C912CB701A601C4010E94A0
:103DF000E6328FEF881A980A88E088169104A1F7B6
:103E00000E9451338BE192E00E94DA3286E192E027
:103E10000E94B932C5010E9470358FE092E00E9485
:103E2000B932C8010E94703589E092E00E94B9322F
:103E3000CE01DF91CF911F910F91FF90EF90DF9016
:103E4000CF90BF90AF909F908F900C9470350E9450
:103E50008249CF93DF93EC0188819981009711F01B
:103E60000E940648198218821D821C821B821A82B7
:103E7000DF91CF9108950F931F93CF93DF93EC01C0
:103E800088819981009729F02A813B81261737077D
:103E900088F48B016F5F7F4F0E949E48009761F00E
:103EA000998388831B830A832C813D81232B11F402
:103EB000FC01108281E001C080E0DF91CF911F9171
:103EC0000F910895FC0180819181009711F00C946D
:103ED000894460E070E0CB010895EF92FF920F9368
:103EE0001F93CF93DF93FC01248135816115710508
:103EF00011F480E018C041155105A1F07B01EC01DF
:103F00008A01020F131FB801B6DF882391F32881BD
:103F100039818C819D81B701820F931F0E948F4947
:103F20001D830C8381E0DF91CF911F910F91FF9052
:103F3000EF900895CF93DF93EC016115710559F06F
:103F4000FB0101900020E9F73197AF01461B570BA9
:103F5000C4DF811102C0CE017CDFCE01DF91CF91A1
:103F60000895CF93DF93EC01FB014481558160817B
:103F70007181B3DF811102C0CE016BDFCE01DF9111
:103F8000CF9108950F931F93CF93DF938C01EB0193
:103F9000FC01808191810097B1F068817981611580
:103FA000710579F0428153812C813D81421753077D
:103FB00040F00E948F498C819D81F8019583848314
:103FC00013C00E94064888819981F80191838083FB
:103FD0008A819B81938382838C819D819583848355
:103FE000198218821B821A821D821C82DF91CF9156
:103FF0001F910F910895EF92FF920F931F93CF930C
:10400000DF93EC017B018A01BA0135DF811103C026
:10401000CE011FDF07C01D830C83B7018881998102
:104020000E948F49CE01DF91CF911F910F91FF9098
:10403000EF900895CF93DF93EC016115710551F076
:10404000FB0101900020E9F73197AF01461B570BA8
:10405000D2DF01C0FEDECE01DF91CF910895BF9285
:10406000CF92DF92EF92FF920F931F93CF93DF9344
:104070007C016B018A01E9012417350720F4812FA7
:104080008901C42FD82F60E274E0C701A1D3D60103
:1040900014968D919C91159708171907C8F48C17E1
:1040A0009D0708F4EC01D601ED91FC911197EC0FFE
:1040B000FD1FB08010824D915C91BA01600F711F9D
:1040C000C701B8DFD601ED91FC91EC0FFD1FB08266
:1040D000C701DF91CF911F910F91FF90EF90DF907B
:1040E000CF90BF900895CF93DF93EC01FB0186172B
:1040F000970751F0608171816115710521F044814C
:10410000558179DF01C0A5DECE01DF91CF91089501
:10411000FC01808191810C9406480F931F93CF93EB
:10412000DF93CDB7DEB762970FB6F894DEBF0FBE50
:10413000CDBF8C01CB01F801118210821382128253
:104140001582148250E0BE016F5F7F4F0E94AF4422
:10415000BE016F5F7F4FC8016DDF62960FB6F894A6
:10416000DEBF0FBECDBFDF91CF911F910F9108959C
:10417000FC01118210821382128215821482B3CF45
:104180000895CF92DF92EF92FF920F931F93CF93F8
:10419000DF936C017A018B01C0E0D0E0CE15DF0522
:1041A00089F0D8016D918D01D601ED91FC910190BE
:1041B000F081E02DC6011995892B11F47E0102C012
:1041C0002196ECCFC701DF91CF911F910F91FF9006
:1041D000EF90DF90CF900895FC01A089B1898C9178
:1041E000A689B78982FD0FC09C91818D8F5F8F73E7
:1041F000228D821749F0218DDF01A20FB11D5D963E
:104200009C93818F08958C910895FC01538D448D6A
:10421000252F30E0842F90E0821B930B541710F071
:10422000CF96089501970895FC01918D828D98177E
:1042300061F0828DDF01A80FB11D5D968C91928D8A
:104240009F5F9F73928F90E008958FEF9FEF089587
:10425000FC01918D828D981731F0828DE80FF11D50
:10426000858D90E008958FEF9FEF0895FC01918D6B
:10427000228D892F90E0805C9F4F821B91098F7364
:10428000992708958FEF96E0F1DF21E0892B09F45B
:1042900020E0822F08958CE997E0E8DF21E0892B68
:1042A00009F420E0822F0895FC01848DDF01A80F1E
:1042B000B11DA35ABF4F2C91848D90E001968F734E
:1042C0009927848FA689B7892C93A089B1898C916D
:1042D00080648C93938D848D981306C00288F38933
:1042E000E02D80818F7D80830895EF92FF920F9360
:1042F0001F93CF93DF93EC0181E0888F9B8D8C8D92
:10430000981305C0E889F989808185FD23C0F62EC0
:104310000B8D10E00F5F1F4F0F731127E02E8C8D58
:10432000E8120BC00FB607FCFACFE889F989808143
:1043300085FFF5CFCE01B8DFF2CF8B8DFE01E80F00
:10434000F11DE35AFF4FF0820B8FEA89FB898081D0
:10435000806207C0EE89FF896083E889F9898081DE
:104360008064808381E090E0DF91CF911F910F9175
:10437000FF90EF900895CF93DF93EC01888D882311
:10438000C1F0EA89FB89808185FD05C0A889B989CA
:104390008C9186FD0EC00FB607FCF5CF808185FF9E
:1043A000F2CFA889B9898C9185FFEDCFCE017CDF52
:1043B000E8CFDF91CF91089580E090E0892B19F04C
:1043C0006ADF811120C080E090E0892B19F05ADF6C
:1043D00081111CC080E090E0892B41F080E090E0EA
:1043E000892B21F00E940000811113C080E090E031
:1043F000892BA1F080E090E0892B81F00E940000E1
:1044000081110AC008950E940000DDCF0E940000C3
:10441000E1CF0E940000EACF0C94000008954F9273
:104420005F926F927F928F929F92AF92BF92CF9244
:10443000DF92EF92FF920F931F93CF93DF934B0185
:104440005C018091800690918106A0918206B091D6
:10445000830688169906AA06BB0609F4C2C08CE337
:10446000C82ED12CE12CF12CC501B401A701960175
:104470000E94254760939006CA01B901A7019601E1
:104480000E94254760939106CA01B90128E130E0F6
:1044900040E050E00E94254769017A01609392064E
:1044A000CA01B9016C5F7F4F8F4F9F4F27E030E00B
:1044B00040E050E00E9425476F5F60939306412CD7
:1044C000512C320140E004E610E0C0E9D1E0242F95
:1044D00030E02E54384FF901E370FF27309789F40C
:1044E000C901B8010E941247892B31F4C901BE01EC
:1044F0000E941247892B29F48EE691E0A0E0B0E0FB
:1045000004C08DE691E0A0E0B0E0480E591E6A1E9E
:104510007B1ED301C201AA27BB27C816D906EA060B
:10452000FB0610F04F5FD3CF40939606309799F477
:10453000C90164E670E00E941247892B39F4C90171
:1045400060E971E00E941247892B29F48EE691E020
:10455000A0E0B0E004C08DE691E0A0E0B0E0481A31
:10456000590A6A0A7B0AC418D508E608F708C9017F
:1045700064E670E00E941247EC01C90160E971E055
:104580000E941247A1EAB3E020E0213039F43097CD
:1045900049F4209729F4009729F402C04C9103C0F4
:1045A0004DE101C04CE150E060E070E0C416D5067A
:1045B000E606F70640F0C41AD50AE60AF70A2F5FA6
:1045C00011962C3011F72F5F20939506C394C0925B
:1045D00094068092800690928106A0928206B09204
:1045E0008306DF91CF911F910F91FF90EF90DF90A5
:1045F000CF90BF90AF909F908F907F906F905F9083
:104600004F90089585ED8093BC008091BC0084FD9F
:10461000FCCF1092EB0908950895E091F005809188
:10462000EF05E81730F4F0E0EB5EF94F808190E0A1
:1046300008958FEF9FEF08959091F0058091EF0519
:10464000981750F4E92FF0E0EB5EF94F208130E04D
:104650009F5F9093F00502C02FEF3FEFC9010895CF
:104660008091EF0590E02091F005821B910908955B
:10467000609335067093360680933706909338061C
:10468000DC01CB01845D9E4FAF4FBF4F80938C0602
:1046900090938D06A0938E06B0938F0682E090E0F3
:1046A00090938B0680938A060E94863760938606D5
:1046B0007093870680938806909389060895CF9219
:1046C000DF92EF92FF920F931F930E948637C09064
:1046D0008606D0908706E0908806F09089068B01C8
:1046E0009C010C191D092E093F09809135069091F6
:1046F0003606A0913706B0913806083E13402105D2
:104700003105D0F00196A11DB11D8093350690931F
:104710003606A0933706B0933806B701A601485174
:104720005C4F6F4F7F4F4093860650938706609390
:10473000880670938906C9CF40918C0650918D06EA
:1047400060918E0670918F0684179507A607B707AC
:1047500080F1E0918406F0918506309751F119952A
:10476000611571058105910511F082DF22C08091EC
:10477000350690913606A0913706B0913806845DD3
:104780009E4FAF4FBF4F80938C0690938D06A093A2
:104790008E06B0938F0681E090E020918A063091DA
:1047A0008B06232B11F480E090E090938B0680938E
:1047B0008A06609135067091360680913706909191
:1047C00038061F910F91FF90EF90DF90CF900895E2
:1047D000FC011182108213821282158214826115EB
:1047E000710549F0FB0101900020E9F73197AF0115
:1047F000461B570B00CC08951F920F920FB60F92D5
:1048000011240BB60F922F933F934F935F936F93A7
:104810007F938F939F93AF93BF93EF93FF938FEF0C
:1048200096E042DDFF91EF91BF91AF919F918F9103
:104830007F916F915F914F913F912F910F900BBEA0
:104840000F900FBE0F901F9018951F920F920FB6EA
:104850000F9211240BB60F922F933F934F935F93B8
:104860006F937F938F939F93AF93BF93EF93FF9338
:104870008FEF96E0B1DCFF91EF91BF91AF919F91E7
:104880008F917F916F915F914F913F912F910F90F9
:104890000BBE0F900FBE0F901F9018951F920F9296
:1048A0000FB60F9211240BB60F922F933F934F9395
:1048B0005F936F937F938F939F93AF93BF93EF9388
:1048C000FF938CE997E0F0DCFF91EF91BF91AF91FE
:1048D0009F918F917F916F915F914F913F912F9118
:1048E0000F900BBE0F900FBE0F901F9018951F9248
:1048F0000F920FB60F9211240BB60F922F933F9386
:104900004F935F936F937F938F939F93AF93BF93D7
:10491000EF93FF938CE997E05FDCFF91EF91BF91FC
:10492000AF919F918F917F916F915F914F913F9147
:104930002F910F900BBE0F900FBE0F901F901895E8
:104940001F920F920FB60F9211240BB60F922F9356
:104950003F934F935F936F937F938F939F93AF9307
:10496000BF93EF93FF93809146080E949836209161
:104970004A0830914B082F5F3F4F30934B082093EC
:104980004A0890914908953618F096E090934508AA
:10499000909145089430C9F128F4923069F0933031
:1049A000D1F05EC0953009F451C0963009F058C07E
:1049B00091E09093160951C0811152C020914A088C
:1049C00030914B082436310508F442C01092160984
:1049D000109249081CC0813009F042C0E09149089A
:1049E00091E09E0F90934908F0E020914A083091A1
:1049F0004B08EE0FFF1FEB5BF74F308727831092BA
:104A00004B0810924A0894E029C0811117C0E09128
:104A1000490891E09E0F90934908F0E020914A08E0
:104A200030914B08EE0FFF1FEB5BF74F308727836A
:104A300010924B0810924A0893E010C020914A0847
:104A400030914B082536310558F007C0811108C058
:104A500010924B0810924A0803C095E090934508C5
:104A6000909148089923B9F081110AC080914708B4
:104A7000882321F08091470861E009C02F9A0BC07C
:104A800080914708882331F08091470860E00E94B8
:104A9000C03601C02F98FF91EF91BF91AF919F91C8
:104AA0008F917F916F915F914F913F912F910F90D7
:104AB0000BBE0F900FBE0F901F9018951F920F9274
:104AC0000FB60F9211240BB60F922F933F934F9373
:104AD0005F936F937F938F939F93EF93FF93409197
:104AE000F1065091F2066091F3067091F4064115BB
:104AF00051056105710599F08091F105E091F2058C
:104B0000F091F30590818927808314161506160607
:104B10001706D4F4415051096109710915C08091FB
:104B200070008D7F809370009091F105E091F20507
:104B3000F091F3058081282F30E0892F90E0809557
:104B400090958223932380834093F1065093F2063D
:104B50006093F3067093F406FF91EF919F918F910C
:104B60007F916F915F914F913F912F910F900BBE6D
:104B70000F900FBE0F901F9018951F920F920FB6B7
:104B80000F9211240BB60F922F933F938F939F9305
:104B9000AF93BF93EF93FF938091F5069091F60644
:104BA000A091F706B091F806892B8A2B8B2B51F137
:104BB0008091F405E091F505F091F6059081892743
:104BC00080838091F5069091F606A091F706B0914A
:104BD000F806181619061A061B064CF58091F506FC
:104BE0009091F606A091F706B091F8060197A109F9
:104BF000B1098093F5069093F606A093F706B0935B
:104C0000F80615C080916F008D7F80936F009091A2
:104C1000F405E091F505F091F6058081282F30E04C
:104C2000892F90E080959095822393238083FF9134
:104C3000EF91BF91AF919F918F913F912F910F90E5
:104C40000BBE0F900FBE0F901F9018951F920F92E2
:104C50000FB60F9211240BB60F922F933F938F93A1
:104C60009F93AF93BF93EF93FF938091F906909139
:104C7000FA06A091FB06B091FC06892B8A2B8B2BA0
:104C800051F18091F705E091F805F091F9059081D7
:104C9000892780838091F9069091FA06A091FB06FE
:104CA000B091FC06181619061A061B064CF58091E1
:104CB000F9069091FA06A091FB06B091FC060197C7
:104CC000A109B1098093F9069093FA06A093FB0617
:104CD000B093FC0615C080916E008D7F80936E00AE
:104CE0009091F705E091F805F091F9058081282F62
:104CF00030E0892F90E080959095822393238083E4
:104D0000FF91EF91BF91AF919F918F913F912F9123
:104D10000F900BBE0F900FBE0F901F9018953F92F3
:104D20004F925F926F927F928F929F92AF92BF92BB
:104D3000CF92DF92EF92FF920F931F93CF93DF9367
:104D4000382E962E842EF90184E6E816F1042CF014
:104D500082EBE81A87E0F80A03C08EE1E80EF11C46
:104D6000E092960600939506E093940630929206A0
:104D70009092910680929006AE2DB0E020E833E349
:104D800041EE51E00E9430462B013C0122EB37E01E
:104D9000FF2484E6C82ED12CC0E9D1E0C901825B92
:104DA00097408E159F05DCF4C90183709927892BE4
:104DB00099F4C901B6010E941247892B31F4C90147
:104DC000BE010E941247892B39F480E8480E81E524
:104DD000581E81E0681E711C2F5F3F4FDFCF8EE4AD
:104DE000E81A88EFF80AC70164E670E00E941247EB
:104DF0006C01C70160E971E00E9412475C01C1E0EB
:104E0000D0E0112783E0E822FF24C017D1072CF55A
:104E1000C230D10589F4E114F10471F4C114D10454
:104E200019F4A114B10441F480E8480E8BE3581E34
:104E300086E2681E711C0FC0DE01A056BC4FAC910B
:104E4000B0E020E831E541E050E00E943046460EF7
:104E5000571E681E791E2196D8CF292D30E0ACE36D
:104E6000B0E00E943A466B017C01C80CD11CE11CE9
:104E7000F11C232D30E0A0E1BEE00E943A46C60EB0
:104E8000D71EE81EF91EDF01BB27119720E831E588
:104E900041E050E00E946B47DC01CB018C0D9D1D71
:104EA000AE1DBF1DBC01CD01640D751D861D971D76
:104EB000DF91CF911F910F91FF90EF90DF90CF90F6
:104EC000BF90AF909F908F907F906F905F904F902A
:104ED0003F90CECBF4DBA3DA8091960690E08E541F
:104EE000984F0895ECDB9BDA8091950690E0089549
:104EF000E6DB95DA8091940690E00895E0DB8FDAA6
:104F00008091900690E00895DADB89DA809191062D
:104F100090E00895D4DB83DA20919206222331F0C9
:104F2000822F90E02D3020F00C9708958CE090E0D7
:104F30000895C5DB74DA8091920690E00895CF92CF
:104F4000DF92EF92FF92CF93DF93EC010E948637BE
:104F50006B017C018F850E94983621E0892B09F432
:104F600020E0298B8889811103C081E08227898B09
:104F700029898A89281721F0CD8ADE8AEF8AF88E5E
:104F80008D899E89AF89B88DB701A601481B590B41
:104F90006A0B7B0BDB01CA01CB80DC80ED80FE80DD
:104FA000C416D506E606F70664F43A81231749F0DD
:104FB0002A83222331F04B895C894F5F5F4F5C8BE2
:104FC0004B8B3A8131110CC0CF80D884E984FA84AC
:104FD000C816D906EA06FB06ACF48B899C890EC07C
:104FE000CB84DC84ED84FE84C816D906EA06FB0671
:104FF0004CF48B899C89919581959109998388833B
:105000001C8A1B8A2A8BDF91CF91FF90EF90DF9053
:10501000CF9008950F931F93CF93DF931F92CDB737
:10502000DEB78C01862FF8016787408B91E0492716
:10503000418B428B148A138A118210821282158A44
:10504000168A178A108E44E150E060E070E04383D6
:105050005483658376834AEF50E060E070E04783D5
:1050600050876187728748EE53E060E070E04387C5
:1050700054876587768760E029830E94EF36F801C0
:105080008089298181110BC0222349F061E0878545
:105090000F90DF91CF911F910F910C94C0360F901C
:1050A000DF91CF911F910F9108951F920F920FB62C
:1050B0000F9211240BB60F922F933F934F935F9350
:1050C0006F937F938F939F93AF93BF93EF93FF93D0
:1050D0008091B900887F803609F49CC068F58832D9
:1050E00009F45BC090F4803109F454C038F488238B
:1050F00009F4F6C0883009F44DC0F5C0883109F4D0
:105100004CC0803209F45DC0EEC0803409F468C040
:1051100048F4803309F455C0883309F0E4C0809323
:10512000E909D8C0803509F44FC0883509F45DC05D
:10513000883409F0D8C0D6C0883909F4C7C0A8F4AB
:10514000883709F467C038F4883609F463C08037BB
:1051500009F460C0C8C0883809F4B8C0803909F4BF
:105160005FC0803809F0BFC05BC0803B09F486C0D7
:1051700038F4803A09F466C0883A09F47FC0B3C0B5
:10518000803C09F4A7C0883C09F4A4C0883B09F41A
:105190008AC0A9C08091C60910C09091E809809189
:1051A000E709981770F5E091E80981E08E0F809388
:1051B000E809F0E0E953F64F80818093BB0085EC6D
:1051C00086C08093E9098EC0E091E80981E08E0FE6
:1051D0008093E8098091BB00F0E0E953F64F8083AB
:1051E0009091E8098091E7096EC0E091E80981E0BB
:1051F0008E0F8093E8098091BB00F0E0E953F64FF1
:1052000080838091EA0981116DC081E08093C50996
:1052100084EA61C083E08093EB0910927F06CFCFD0
:1052200080917F06803208F051C0E0917F0681E0D6
:105230008E0F80937F068091BB00F0E0E15AF94F1A
:105240008083BDCF85EC8093BC001092EB098091E8
:105250007F06803230F4E0917F06F0E0E15AF94FAA
:10526000108260917F0670E0E0915D06F0915E062D
:105270008FE596E0199510927F0635C084E0809303
:10528000EB0910925C0610925B06E0915906F091D2
:105290005A06199580915B06811105C081E08093C3
:1052A0005B0610923906E0915C0681E08E0F8093D8
:1052B0005C06F0E0E75CF94F80818093BB00909141
:1052C0005C0680915B06981708F479CF85E8809397
:1052D000BC0009C085EC8093BC001092EB0903C0B0
:1052E0001092E9098FD9FF91EF91BF91AF919F91F2
:1052F0008F917F916F915F914F913F912F910F907F
:105300000BBE0F900FBE0F901F90189540915B063B
:10531000262F30E0240F311D21323105DCF420919D
:10532000EB092430C9F4FC0180E090E0861758F4C2
:1053300030915B062191DC01A75CB94FA30FB11D31
:105340002C930196F3CF80915B06680F60935B0608
:1053500080E0089581E0089582E008954091EF068D
:105360005091F0062091ED063091EE06421753075A
:1053700019F080E09CE302C08FEF9FEF4F5F5F4F1B
:105380004630510529F05093F0064093EF060895FA
:105390001092F0061092EF062F5F3F4F2630310536
:1053A00029F03093EE062093ED0608951092EE0654
:1053B0001092ED060895CF92DF92EF92FF921F9325
:1053C000CF93DF939091A706911103C08FEF9FEFCA
:1053D00072C09091A6069923C9F3182FC091A50613
:1053E000D0E08091E50681110DC00E948637609360
:1053F000E1067093E2068093E3069093E40681E071
:105400008093E5060E948637C090E106D090E206C0
:10541000E090E306F090E406DC01CB018C199D09D5
:10542000AE09BF098D329140A105B105D8F00E94A7
:1054300086376093E1067093E2068093E3069093CB
:10544000E4068091E00691E098279093E006992386
:1054500029F01092DF061092DE0604C0D093DF061A
:10546000C093DE062091DE063091DF062095309550
:105470004091A40650E02423352326FF04C081E098
:105480008093DD0602C01092DD0627FF04C081E094
:105490008093DC0602C01092DC068091E00688232F
:1054A00009F494CF02C0D595C7951A95E2F7C0FFCD
:1054B0008DCF80E09CE3DF91CF911F91FF90EF9023
:1054C000DF90CF900895CF93DF93C0E0D0E040E02D
:1054D00050E0BA01CE010E94E6322196C830D105D3
:1054E000B1F7DF91CF910C9451331F920F920FB609
:1054F0000F9211240BB60F922F923F924F925F9210
:105500006F927F928F929F92AF92BF92CF92DF92D3
:10551000EF92FF920F931F932F933F934F935F93BD
:105520006F937F938F939F93AF93BF93EF93FF936B
:10553000CF93DF93CDB7DEB72897DEBFCDBF78948A
:1055400087E799E00E94621F2C982AE0822E912C16
:10555000A12CB12CA50194010E944747660F771F2B
:10556000FB01EB52FC4F808191819A83898385E016
:1055700090E02B833C834D835E831DDF98878F8370
:10558000EDDE7C012B813C814D815E81CA01B90138
:10559000A50194010E944747660F771FFB01EB525C
:1055A000FC4F6080718084E090E02B833C834D83CE
:1055B0005E8301DF8C01D2DE6C012B813C814D8149
:1055C0005E81CA01B901A50194010E9447471901F2
:1055D0002A01660F771FFB01EB52FC4F8080918000
:1055E00083E090E0E8DE5C01B9DE0C211D2106219C
:1055F000172120E030E0BAE0000F111F221F331FF7
:10560000BA95D1F78A219B21AC014821592160E04C
:1056100070E048015901842A952AA62AB72A8F8169
:105620009885E822F92289819A81E822F922A70146
:1056300060E070E014E1440F551F661F771F1A9554
:10564000D1F7842A952AA62AB72A8091DD068823D5
:1056500019F06894B6F802C0E894B6F88091DC06B8
:10566000882319F06894B7F802C0E894B7F88B2D36
:105670000E942E3D8A2D0E942E3D892D0E942E3D96
:10568000882D0E942E3D8AE0C82ED12CE12CF12CD1
:10569000C201B101A70196010E944747660F771F1B
:1056A000FB01EB52FC4F4080518082E090E02B8365
:1056B0003C834D835E837FDE5C0150DE8C012B8159
:1056C0003C814D815E81CA01B901A70196010E940A
:1056D0004747660F771FFB01EB52FC4F60807180DC
:1056E00081E090E02B833C834D835E8364DE4C013C
:1056F00035DE15012022312224203520412C512C69
:10570000F4E1220C331C441C551CFA95D1F7882176
:10571000992186219721A0E0B0E01AE0880F991F17
:10572000AA1FBB1F1A95D1F752014101882A992A55
:10573000AA2ABB2A2B813C814D815E81CA01B90115
:10574000A70196010E944747660F771FFB01EB52A6
:10575000FC4FE080F18080E090E02DDE8C01FEDDEA
:10576000802391238E219F21A0E0B0E0882A992AEE
:10577000AA2ABB2A8091DD06882319F06894B6F81E
:1057800002C0E894B6F88091DC06882319F068948A
:10579000B7F802C0E894B7F88B2D0E942E3D8A2DF1
:1057A0000E942E3D892D0E942E3D882D0E942E3D67
:1057B0002C9A28960FB6F894DEBF0FBECDBFDF91AE
:1057C000CF91FF91EF91BF91AF919F918F917F9179
:1057D0006F915F914F913F912F911F910F91FF908A
:1057E000EF90DF90CF90BF90AF909F908F907F9081
:1057F0006F905F904F903F902F900F900BBE0F9047
:105800000FBE0F901F901895DF92EF92FF920F93AB
:105810001F93CF93DF93C091DA06D091DB06C83097
:10582000D10508F068C0082FFE018827E357FF4F15
:105830008F4F0C94634784E406C00E94F9345BC028
:105840008CEC01C08EEB0E94D03455C028E0E22ED3
:10585000F12C01E010E0F7D78111102B000F81E04F
:10586000E81AF108C1F71093D80645C098E0E92E70
:10587000F12CDD24D39410E0E6D781111D29DD0C35
:1058800081E0E81AF108C1F71093D906612F70E0A2
:10589000762F66278091D806682B6F3F8FEF7807A9
:1058A00011F460E070E0072E000C880B990B0E9449
:1058B000074520E030E040E85DE30E9466450023B4
:1058C00061F026E636E646EE5FE30E94664520E09C
:1058D00030E040E052E40E944A4620E030E040E2FE
:1058E00051E40E9466456093D4067093D506809378
:1058F000D6069093D7062196C830D10529F0D093CB
:10590000DB06C093DA0604C01092DB061092DA06BA
:105910006091D4067091D5068091D6069091D706F5
:10592000DF91CF911F910F91FF90EF90DF9008953D
:105930008F929F92AF92BF92CF92DF92EF92FF929F
:105940000F931F93CF93DF93CDB7DEB72C970FB68E
:10595000F894DEBF0FBECDBF8C016A017B01809140
:10596000CC06811113C00E948637DC01CB01845B19
:105970009B4FAF4FBF4F8093C8069093C906A0932B
:10598000CA06B093CB0681E08093CC068091C00616
:10599000811109C063E474E08AEB96E00E94E82379
:1059A00081E08093C0060E9486378090C806909060
:1059B000C906A090CA06B090CB06DC01CB018819BD
:1059C0009909AA09BB09893E9340A105B10508F4CC
:1059D00077C10E9486376093C8067093C90680938A
:1059E000CA069093CB0620E030E0A901C701B601BA
:1059F0000E94DF4620E030E040E05FE387FD05C025
:105A0000C701B6010E944A4604C0C701B6010E9400
:105A100049460E94AE4680915502909156029B01E4
:105A200029513C4F49012458334059012A55310925
:105A300069017B01892B09F095C077FF03C0F194C0
:105A4000E194F1084AE0B701CE0107960E948D204B
:105A500068E474E0CE0101960E94E823BE01695F0C
:105A60007F4FCE0101960E94B11F68E474E00E944E
:105A70009A1FBC018AEB96E00E947320CE0101962A
:105A80000E948820CE0107960E9488203FEC831652
:105A900037E0930620F54AE0B701CE0107960E9451
:105AA0008D2067E474E0CE0101960E94E823BE01D8
:105AB000695F7F4FCE0101960E94B11F68E474E0D8
:105AC0000E949A1FBC018AEB96E00E947320CE01CF
:105AD00001960E948820CE0107960E94882087ECBC
